{
	"data": {
		"bytecode": {
			"linkReferences": {},
			"object": "60806040523480156200001157600080fd5b5062000022620000a060201b60201c565b6000806101000a81548173ffffffffffffffffffffffffffffffffffffffff021916908373ffffffffffffffffffffffffffffffffffffffff160217905550620000796301ffc9a760e01b620000a860201b60201c565b6200009a63bc197c8160e01b63f23a6e6160e01b18620000a860201b60201c565b620001f5565b600033905090565b63ffffffff60e01b817bffffffffffffffffffffffffffffffffffffffffffffffffffffffff1916141562000114576040517f08c379a00000000000000000000000000000000000000000000000000000000081526004016200010b90620001c2565b60405180910390fd5b6001806000837bffffffffffffffffffffffffffffffffffffffffffffffffffffffff19167bffffffffffffffffffffffffffffffffffffffffffffffffffffffff1916815260200190815260200160002060006101000a81548160ff02191690831515021790555050565b60006200018f601c83620001e4565b91507f4552433136353a20696e76616c696420696e74657266616365206964000000006000830152602082019050919050565b60006020820190508181036000830152620001dd8162000180565b9050919050565b600082825260208201905092915050565b61361d80620002056000396000f3fe608060405234801561001057600080fd5b50600436106100ea5760003560e01c8063715018a61161008c578063a24d22fe11610066578063a24d22fe14610247578063bc197c8114610263578063f23a6e6114610293578063f2fde38b146102c3576100ea565b8063715018a6146101ef5780637c4d7f44146101f95780638da5cb5b14610229576100ea565b80632a3b3836116100c85780632a3b38361461016b5780632a6c7d0c146101875780633291bf99146101a3578063467f4cb9146101bf576100ea565b806301ffc9a7146100ef5780630525bdcf1461011f578063074540da1461014f575b600080fd5b61010960048036038101906101049190612533565b6102df565b6040516101169190613033565b60405180910390f35b6101396004803603810190610134919061255c565b610347565b60405161014691906130ae565b60405180910390f35b61016960048036038101906101649190612349565b6103a3565b005b6101856004803603810190610180919061255c565b610423565b005b6101a1600480360381019061019c9190612427565b610473565b005b6101bd60048036038101906101b8919061255c565b610509565b005b6101d960048036038101906101d491906123d8565b61054f565b6040516101e69190613332565b60405180910390f35b6101f76105ee565b005b610213600480360381019061020e91906123d8565b610741565b6040516102209190613310565b60405180910390f35b61023161088f565b60405161023e9190612e64565b60405180910390f35b610261600480360381019061025c919061255c565b6108b8565b005b61027d600480360381019061027891906121eb565b610d41565b60405161028a9190613093565b60405180910390f35b6102ad60048036038101906102a891906122b7565b610dd9565b6040516102ba9190613093565b60405180910390f35b6102dd60048036038101906102d891906121c2565b610e29565b005b600060016000837bffffffffffffffffffffffffffffffffffffffffffffffffffffffff19167bffffffffffffffffffffffffffffffffffffffffffffffffffffffff1916815260200190815260200160002060009054906101000a900460ff169050919050565b606080826000015183602001518460400151856060015186608001518760a001518860c001518960e00151604051602001610389989796959493929190612f39565b604051602081830303815290604052905080915050919050565b6103ab611c41565b6103bd85856103b8610feb565b610741565b90506001816020015114610406576040517f08c379a00000000000000000000000000000000000000000000000000000000081526004016103fd90613250565b60405180910390fd5b61041b610411610feb565b8787878787610ff3565b505050505050565b61042c816108b8565b610434611c41565b6104508260000151836020015184606001518560e001516112fd565b905061046f8260400151828460000151856020015186608001516113a5565b5050565b61047b611c41565b61048d8585610488610feb565b610741565b905060018160200151146104d6576040517f08c379a00000000000000000000000000000000000000000000000000000000081526004016104cd90613250565b60405180910390fd5b6104de611c41565b6104ea868689866112fd565b90506105006104f7610feb565b828888886113a5565b50505050505050565b610512816108b8565b61054c8160400151826060015160008151811061052b57fe5b60200260200101518360000151846020015185608001518660a00151610ff3565b50565b6000600260008573ffffffffffffffffffffffffffffffffffffffff1673ffffffffffffffffffffffffffffffffffffffff168152602001908152602001600020600084815260200190815260200160002060010160008373ffffffffffffffffffffffffffffffffffffffff1673ffffffffffffffffffffffffffffffffffffffff1681526020019081526020016000206000015490509392505050565b6105f6610feb565b73ffffffffffffffffffffffffffffffffffffffff1660008054906101000a900473ffffffffffffffffffffffffffffffffffffffff1673ffffffffffffffffffffffffffffffffffffffff1614610683576040517f08c379a000000000000000000000000000000000000000000000000000000000815260040161067a90613230565b60405180910390fd5b600073ffffffffffffffffffffffffffffffffffffffff1660008054906101000a900473ffffffffffffffffffffffffffffffffffffffff1673ffffffffffffffffffffffffffffffffffffffff167f8be0079c531659141344cd1fd0a4f28419497f9722a3daafe3b4186f6b6457e060405160405180910390a360008060006101000a81548173ffffffffffffffffffffffffffffffffffffffff021916908373ffffffffffffffffffffffffffffffffffffffff160217905550565b610749611c41565b600260008573ffffffffffffffffffffffffffffffffffffffff1673ffffffffffffffffffffffffffffffffffffffff168152602001908152602001600020600084815260200190815260200160002060010160008373ffffffffffffffffffffffffffffffffffffffff1673ffffffffffffffffffffffffffffffffffffffff16815260200190815260200160002060405180606001604052908160008201548152602001600182015481526020016002820180548060200260200160405190810160405280929190818152602001828054801561087d57602002820191906000526020600020905b8160009054906101000a900473ffffffffffffffffffffffffffffffffffffffff1673ffffffffffffffffffffffffffffffffffffffff1681526020019060010190808311610833575b50505050508152505090509392505050565b60008060009054906101000a900473ffffffffffffffffffffffffffffffffffffffff16905090565b428160c00151116108fe576040517f08c379a00000000000000000000000000000000000000000000000000000000081526004016108f5906130d0565b60405180910390fd5b6000816000015190506000826020015190506000836040015190506060846101000151905060608561012001519050606061093887610347565b905060008180519060200120905061094e611c41565b610959888888610741565b9050600073ffffffffffffffffffffffffffffffffffffffff168673ffffffffffffffffffffffffffffffffffffffff1614156109cb576040517f08c379a00000000000000000000000000000000000000000000000000000000081526004016109c290613210565b60405180910390fd5b80604001516000815181106109dc57fe5b602002602001015173ffffffffffffffffffffffffffffffffffffffff168673ffffffffffffffffffffffffffffffffffffffff1614610a51576040517f08c379a0000000000000000000000000000000000000000000000000000000008152600401610a48906131b0565b60405180910390fd5b806020015185511015610a99576040517f08c379a0000000000000000000000000000000000000000000000000000000008152600401610a90906132d0565b60405180910390fd5b8351855114610add576040517f08c379a0000000000000000000000000000000000000000000000000000000008152600401610ad490613170565b60405180910390fd5b6060816020015167ffffffffffffffff81118015610afa57600080fd5b50604051908082528060200260200182016040528015610b295781602001602082028036833780820191505090505b5090506000805b8751811015610cec576000888281518110610b4757fe5b602002602001015190507fffffffffffffffffffffffffffffffffffffffffffffffffffffffffffffffff610b7c8583611761565b148015610bb657507fffffffffffffffffffffffffffffffffffffffffffffffffffffffffffffffff610bb3866040015183611761565b14155b15610cde57610bc3611c62565b888381518110610bcf57fe5b60200260200101519050600060018883604001518460000151856020015160405160008152602001604052604051610c0a949392919061304e565b6020604051602081039080840390855afa158015610c2c573d6000803e3d6000fd5b5050506020604051035190508273ffffffffffffffffffffffffffffffffffffffff168173ffffffffffffffffffffffffffffffffffffffff161415610cdb5782868681518110610c7957fe5b602002602001019073ffffffffffffffffffffffffffffffffffffffff16908173ffffffffffffffffffffffffffffffffffffffff168152505084806001019550508660200151851415610cda575050505050505050505050505050610d3e565b5b50505b508080600101915050610b30565b5082602001518114610d33576040517f08c379a0000000000000000000000000000000000000000000000000000000008152600401610d2a906130f0565b60405180910390fd5b505050505050505050505b50565b6000606060008484810190610d5691906124b6565b80925081935050506000610d70610d6b610feb565b6117fa565b905060005b8a8a9050811015610dbf57610db2828d868e8e86818110610d9257fe5b905060200201358d8d87818110610da557fe5b9050602002013588611931565b8080600101915050610d75565b5063bc197c8160e01b935050505098975050505050505050565b6000606060008484810190610dee91906124b6565b8092508193505050610e13610e09610e04610feb565b6117fa565b89848a8a86611931565b63f23a6e6160e01b925050509695505050505050565b610e31610feb565b73ffffffffffffffffffffffffffffffffffffffff1660008054906101000a900473ffffffffffffffffffffffffffffffffffffffff1673ffffffffffffffffffffffffffffffffffffffff1614610ebe576040517f08c379a0000000000000000000000000000000000000000000000000000000008152600401610eb590613230565b60405180910390fd5b600073ffffffffffffffffffffffffffffffffffffffff168173ffffffffffffffffffffffffffffffffffffffff161415610f2e576040517f08c379a0000000000000000000000000000000000000000000000000000000008152600401610f2590613130565b60405180910390fd5b8073ffffffffffffffffffffffffffffffffffffffff1660008054906101000a900473ffffffffffffffffffffffffffffffffffffffff1673ffffffffffffffffffffffffffffffffffffffff167f8be0079c531659141344cd1fd0a4f28419497f9722a3daafe3b4186f6b6457e060405160405180910390a3806000806101000a81548173ffffffffffffffffffffffffffffffffffffffff021916908373ffffffffffffffffffffffffffffffffffffffff16021790555050565b600033905090565b6000600260008673ffffffffffffffffffffffffffffffffffffffff1673ffffffffffffffffffffffffffffffffffffffff1681526020019081526020016000206000858152602001908152602001600020905060008160010160008973ffffffffffffffffffffffffffffffffffffffff1673ffffffffffffffffffffffffffffffffffffffff168152602001908152602001600020905080600001548411156110d3576040517f08c379a00000000000000000000000000000000000000000000000000000000081526004016110ca90613290565b60405180910390fd5b60008411611116576040517f08c379a000000000000000000000000000000000000000000000000000000000815260040161110d90613150565b60405180910390fd5b60008482600001540390508082600001819055508483600001600082825403925050819055508673ffffffffffffffffffffffffffffffffffffffff1663f242432a308a8989896040518663ffffffff1660e01b815260040161117d959493929190612e7f565b600060405180830381600087803b15801561119757600080fd5b505af11580156111ab573d6000803e3d6000fd5b50505050600081141561121d578260010160008a73ffffffffffffffffffffffffffffffffffffffff1673ffffffffffffffffffffffffffffffffffffffff168152602001908152602001600020600080820160009055600182016000905560028201600061121a9190611c8c565b50505b60008360000154141561128657600260008873ffffffffffffffffffffffffffffffffffffffff1673ffffffffffffffffffffffffffffffffffffffff168152602001908152602001600020600087815260200190815260200160002060008082016000905550505b85600073ffffffffffffffffffffffffffffffffffffffff168a73ffffffffffffffffffffffffffffffffffffffff167f737ab30b9cd3ddae02069f3057591007faf2305652d04c2582f7f1f6185d97118a8560006040516112ea93929190612fc5565b60405180910390a4505050505050505050565b611305611c41565b600061131084611b94565b905061131a611c41565b611325878784610741565b905060008160400151511415611398578451841115611379576040517f08c379a0000000000000000000000000000000000000000000000000000000008152600401611370906132f0565b60405180910390fd5b6001816000018181525050848160400181905250838160200181815250505b8092505050949350505050565b6000600260008573ffffffffffffffffffffffffffffffffffffffff1673ffffffffffffffffffffffffffffffffffffffff168152602001908152602001600020600084815260200190815260200160002090508060010160008773ffffffffffffffffffffffffffffffffffffffff1673ffffffffffffffffffffffffffffffffffffffff16815260200190815260200160002060000154821115611480576040517f08c379a000000000000000000000000000000000000000000000000000000000815260040161147790613190565b60405180910390fd5b600082116114c3576040517f08c379a00000000000000000000000000000000000000000000000000000000081526004016114ba90613110565b60405180910390fd5b600085604001516000815181106114d657fe5b602002602001015190506000838360010160008a73ffffffffffffffffffffffffffffffffffffffff1673ffffffffffffffffffffffffffffffffffffffff168152602001908152602001600020600001540390506000848460010160008573ffffffffffffffffffffffffffffffffffffffff1673ffffffffffffffffffffffffffffffffffffffff16815260200190815260200160002060000154019050818460010160008b73ffffffffffffffffffffffffffffffffffffffff1673ffffffffffffffffffffffffffffffffffffffff16815260200190815260200160002060000181905550878460010160008573ffffffffffffffffffffffffffffffffffffffff1673ffffffffffffffffffffffffffffffffffffffff16815260200190815260200160002060008201518160000155602082015181600101556040820151816002019080519060200190611631929190611cad565b50905050808460010160008573ffffffffffffffffffffffffffffffffffffffff1673ffffffffffffffffffffffffffffffffffffffff1681526020019081526020016000206000018190555060008214156116ec578360010160008a73ffffffffffffffffffffffffffffffffffffffff1673ffffffffffffffffffffffffffffffffffffffff16815260200190815260200160002060008082016000905560018201600090556002820160006116e99190611c8c565b50505b858373ffffffffffffffffffffffffffffffffffffffff168a73ffffffffffffffffffffffffffffffffffffffff167f737ab30b9cd3ddae02069f3057591007faf2305652d04c2582f7f1f6185d97118a868660405161174e93929190612ffc565b60405180910390a4505050505050505050565b600080600090505b83518110156117cf578273ffffffffffffffffffffffffffffffffffffffff1684828151811061179557fe5b602002602001015173ffffffffffffffffffffffffffffffffffffffff1614156117c257809150506117f4565b8080600101915050611769565b507fffffffffffffffffffffffffffffffffffffffffffffffffffffffffffffffff90505b92915050565b600061181b8273ffffffffffffffffffffffffffffffffffffffff16611bf6565b61185a576040517f08c379a0000000000000000000000000000000000000000000000000000000008152600401611851906132b0565b60405180910390fd5b8173ffffffffffffffffffffffffffffffffffffffff166301ffc9a763d9b67a2660e01b6040518263ffffffff1660e01b815260040161189a9190613093565b60206040518083038186803b1580156118b257600080fd5b505afa1580156118c6573d6000803e3d6000fd5b505050506040513d601f19601f820116820180604052508101906118ea919061250a565b611929576040517f08c379a0000000000000000000000000000000000000000000000000000000008152600401611920906131f0565b60405180910390fd5b819050919050565b6000600260008873ffffffffffffffffffffffffffffffffffffffff1673ffffffffffffffffffffffffffffffffffffffff16815260200190815260200160002060008581526020019081526020016000209050828160000154018773ffffffffffffffffffffffffffffffffffffffff1662fdd58e30876040518363ffffffff1660e01b81526004016119c6929190612f10565b60206040518083038186803b1580156119de57600080fd5b505afa1580156119f2573d6000803e3d6000fd5b505050506040513d601f19601f82011682018060405250810190611a16919061259d565b1015611a57576040517f08c379a0000000000000000000000000000000000000000000000000000000008152600401611a4e90613270565b60405180910390fd5b611a5f611c41565b611a6b888688866112fd565b9050600086600081518110611a7c57fe5b6020026020010151905060008360010160008373ffffffffffffffffffffffffffffffffffffffff1673ffffffffffffffffffffffffffffffffffffffff168152602001908152602001600020905060008682600001540190508082600001819055508360400151826002019080519060200190611afb929190611cad565b5083602001518260010181905550868560000160008282540192505081905550878373ffffffffffffffffffffffffffffffffffffffff16600073ffffffffffffffffffffffffffffffffffffffff167f737ab30b9cd3ddae02069f3057591007faf2305652d04c2582f7f1f6185d97118e600086604051611b7f93929190612ed9565b60405180910390a45050505050505050505050565b60008082511415611bda576040517f08c379a0000000000000000000000000000000000000000000000000000000008152600401611bd1906131d0565b60405180910390fd5b81600081518110611be757fe5b60200260200101519050919050565b60008060007fc5d2460186f7233c927e7db2dcc703c0e500b653ca82273b7bfad8045d85a47060001b9050833f9150808214158015611c3857506000801b8214155b92505050919050565b60405180606001604052806000815260200160008152602001606081525090565b60405180606001604052806000801916815260200160008019168152602001600060ff1681525090565b5080546000825590600052602060002090810190611caa9190611d37565b50565b828054828255906000526020600020908101928215611d26579160200282015b82811115611d255782518260006101000a81548173ffffffffffffffffffffffffffffffffffffffff021916908373ffffffffffffffffffffffffffffffffffffffff16021790555091602001919060010190611ccd565b5b509050611d339190611d54565b5090565b5b80821115611d50576000816000905550600101611d38565b5090565b5b80821115611d8b57600081816101000a81549073ffffffffffffffffffffffffffffffffffffffff021916905550600101611d55565b5090565b600081359050611d9e8161355d565b92915050565b600082601f830112611db557600080fd5b8135611dc8611dc38261337a565b61334d565b91508181835260208401935060208101905083856020840282011115611ded57600080fd5b60005b83811015611e1d5781611e038882611d8f565b845260208401935060208301925050600181019050611df0565b5050505092915050565b600082601f830112611e3857600080fd5b8135611e4b611e46826133a2565b61334d565b91508181835260208401935060208101905083856060840282011115611e7057600080fd5b60005b83811015611ea05781611e868882611fd1565b845260208401935060608301925050600181019050611e73565b5050505092915050565b60008083601f840112611ebc57600080fd5b8235905067ffffffffffffffff811115611ed557600080fd5b602083019150836020820283011115611eed57600080fd5b9250929050565b600081519050611f0381613574565b92915050565b600081359050611f188161358b565b92915050565b600081359050611f2d816135a2565b92915050565b60008083601f840112611f4557600080fd5b8235905067ffffffffffffffff811115611f5e57600080fd5b602083019150836001820283011115611f7657600080fd5b9250929050565b600082601f830112611f8e57600080fd5b8135611fa1611f9c826133ca565b61334d565b91508082526020830160208301858383011115611fbd57600080fd5b611fc883828461350a565b50505092915050565b600060608284031215611fe357600080fd5b611fed606061334d565b90506000611ffd84828501611f09565b600083015250602061201184828501611f09565b6020830152506040612025848285016121ad565b60408301525092915050565b6000610140828403121561204457600080fd5b61204f61014061334d565b9050600061205f84828501611d8f565b600083015250602061207384828501612183565b602083015250604061208784828501611d8f565b604083015250606082013567ffffffffffffffff8111156120a757600080fd5b6120b384828501611da4565b60608301525060806120c784828501612183565b60808301525060a082013567ffffffffffffffff8111156120e757600080fd5b6120f384828501611f7d565b60a08301525060c061210784828501612183565b60c08301525060e061211b84828501612183565b60e08301525061010082013567ffffffffffffffff81111561213c57600080fd5b61214884828501611da4565b6101008301525061012082013567ffffffffffffffff81111561216a57600080fd5b61217684828501611e27565b6101208301525092915050565b600081359050612192816135b9565b92915050565b6000815190506121a7816135b9565b92915050565b6000813590506121bc816135d0565b92915050565b6000602082840312156121d457600080fd5b60006121e284828501611d8f565b91505092915050565b60008060008060008060008060a0898b03121561220757600080fd5b60006122158b828c01611d8f565b98505060206122268b828c01611d8f565b975050604089013567ffffffffffffffff81111561224357600080fd5b61224f8b828c01611eaa565b9650965050606089013567ffffffffffffffff81111561226e57600080fd5b61227a8b828c01611eaa565b9450945050608089013567ffffffffffffffff81111561229957600080fd5b6122a58b828c01611f33565b92509250509295985092959890939650565b60008060008060008060a087890312156122d057600080fd5b60006122de89828a01611d8f565b96505060206122ef89828a01611d8f565b955050604061230089828a01612183565b945050606061231189828a01612183565b935050608087013567ffffffffffffffff81111561232e57600080fd5b61233a89828a01611f33565b92509250509295509295509295565b600080600080600060a0868803121561236157600080fd5b600061236f88828901611d8f565b955050602061238088828901611d8f565b945050604061239188828901612183565b93505060606123a288828901612183565b925050608086013567ffffffffffffffff8111156123bf57600080fd5b6123cb88828901611f7d565b9150509295509295909350565b6000806000606084860312156123ed57600080fd5b60006123fb86828701611d8f565b935050602061240c86828701612183565b925050604061241d86828701611d8f565b9150509250925092565b600080600080600060a0868803121561243f57600080fd5b600086013567ffffffffffffffff81111561245957600080fd5b61246588828901611da4565b955050602061247688828901611d8f565b945050604061248788828901612183565b935050606061249888828901612183565b92505060806124a988828901612183565b9150509295509295909350565b600080604083850312156124c957600080fd5b600083013567ffffffffffffffff8111156124e357600080fd5b6124ef85828601611da4565b925050602061250085828601612183565b9150509250929050565b60006020828403121561251c57600080fd5b600061252a84828501611ef4565b91505092915050565b60006020828403121561254557600080fd5b600061255384828501611f1e565b91505092915050565b60006020828403121561256e57600080fd5b600082013567ffffffffffffffff81111561258857600080fd5b61259484828501612031565b91505092915050565b6000602082840312156125af57600080fd5b60006125bd84828501612198565b91505092915050565b60006125d283836125de565b60208301905092915050565b6125e78161346d565b82525050565b6125f68161346d565b82525050565b600061260782613406565b6126118185613429565b935061261c836133f6565b8060005b8381101561264d57815161263488826125c6565b975061263f8361341c565b925050600181019050612620565b5085935050505092915050565b600061266582613406565b61266f818561343a565b935061267a836133f6565b8060005b838110156126ab57815161269288826125c6565b975061269d8361341c565b92505060018101905061267e565b5085935050505092915050565b6126c18161347f565b82525050565b6126d08161348b565b82525050565b6126df81613495565b82525050565b60006126f082613411565b6126fa818561344b565b935061270a818560208601613519565b6127138161354c565b840191505092915050565b612727816134f8565b82525050565b600061273a60218361345c565b91507f234e465450726f7879237665726966793a205452414e534645525f455850495260008301527f59000000000000000000000000000000000000000000000000000000000000006020830152604082019050919050565b60006127a060258361345c565b91507f234e465450726f787923766572696669636174696f6e3a204241445f5349474e60008301527f41545552450000000000000000000000000000000000000000000000000000006020830152604082019050919050565b600061280660278361345c565b91507f234552433131353550726f7879235f7472616e736665723a20494e56414c494460008301527f5f414d4f554e54000000000000000000000000000000000000000000000000006020830152604082019050919050565b600061286c60268361345c565b91507f4f776e61626c653a206e6577206f776e657220697320746865207a65726f206160008301527f64647265737300000000000000000000000000000000000000000000000000006020830152604082019050919050565b60006128d260278361345c565b91507f234552433131353550726f7879235f77697468647261773a20494e56414c494460008301527f5f414d4f554e54000000000000000000000000000000000000000000000000006020830152604082019050919050565b600061293860258361345c565b91507f234e465450726f7879237665726966793a204241445f5253565f4c4953545f4c60008301527f454e4754480000000000000000000000000000000000000000000000000000006020830152604082019050919050565b600061299e602e8361345c565b91507f234552433131353550726f7879235f7472616e736665723a20494e535546464960008301527f4349454e545f42414c414e4345530000000000000000000000000000000000006020830152604082019050919050565b6000612a0460208361345c565b91507f234e465450726f7879237665726966793a204f574e45525f4e4f5f4d415443486000830152602082019050919050565b6000612a4460358361345c565b91507f234e465450726f787923636865636b41646472657373456d7074793a2041444460008301527f524553535f4c4953545f4c454e4754485f5a45524f00000000000000000000006020830152604082019050919050565b6000612aaa60368361345c565b91507f546865204e465420636f6e74726163742068617320616e20696e76616c69642060008301527f4552433131353520696d706c656d656e746174696f6e000000000000000000006020830152604082019050919050565b6000612b10601e8361345c565b91507f234e465450726f7879237665726966793a20414444524553535f5a45524f00006000830152602082019050919050565b6000612b5060208361345c565b91507f4f776e61626c653a2063616c6c6572206973206e6f7420746865206f776e65726000830152602082019050919050565b6000612b9060288361345c565b91507f234e465450726f7879237472616e736665723a204e4f5f5452414e534645525f60008301527f5349474e5f4552520000000000000000000000000000000000000000000000006020830152604082019050919050565b6000612bf660308361345c565b91507f234552433131353550726f7879235f6f6e45524331313535526563656976656460008301527f3a20494e56414c49445f414d4f554e54000000000000000000000000000000006020830152604082019050919050565b6000612c5c602e8361345c565b91507f234552433131353550726f7879235f77697468647261773a20494e535546464960008301527f4349454e545f42414c414e4345530000000000000000000000000000000000006020830152604082019050919050565b6000612cc260328361345c565b91507f234552433131353550726f7879235f6973455243313135353a20494e564c494160008301527f445f434f4e54524143545f4144445245535300000000000000000000000000006020830152604082019050919050565b6000612d2860278361345c565b91507f234e465450726f7879237665726966793a205349474e5f434f554e545f544f4f60008301527f5f4c4954544c45000000000000000000000000000000000000000000000000006020830152604082019050919050565b6000612d8e60258361345c565b91507f234e465450726f787923636865636b4f776e6572733a204241445f5349474e5f60008301527f434f554e540000000000000000000000000000000000000000000000000000006020830152604082019050919050565b6000606083016000830151612dff6000860182612e37565b506020830151612e126020860182612e37565b5060408301518482036040860152612e2a82826125fc565b9150508091505092915050565b612e40816134e1565b82525050565b612e4f816134e1565b82525050565b612e5e816134eb565b82525050565b6000602082019050612e7960008301846125ed565b92915050565b600060a082019050612e9460008301886125ed565b612ea160208301876125ed565b612eae6040830186612e46565b612ebb6060830185612e46565b8181036080830152612ecd81846126e5565b90509695505050505050565b6000606082019050612eee60008301866125ed565b612efb602083018561271e565b612f086040830184612e46565b949350505050565b6000604082019050612f2560008301856125ed565b612f326020830184612e46565b9392505050565b600061010082019050612f4f600083018b6125ed565b612f5c602083018a612e46565b612f6960408301896125ed565b8181036060830152612f7b818861265a565b9050612f8a6080830187612e46565b81810360a0830152612f9c81866126e5565b9050612fab60c0830185612e46565b612fb860e0830184612e46565b9998505050505050505050565b6000606082019050612fda60008301866125ed565b612fe76020830185612e46565b612ff4604083018461271e565b949350505050565b600060608201905061301160008301866125ed565b61301e6020830185612e46565b61302b6040830184612e46565b949350505050565b600060208201905061304860008301846126b8565b92915050565b600060808201905061306360008301876126c7565b6130706020830186612e55565b61307d60408301856126c7565b61308a60608301846126c7565b95945050505050565b60006020820190506130a860008301846126d6565b92915050565b600060208201905081810360008301526130c881846126e5565b905092915050565b600060208201905081810360008301526130e98161272d565b9050919050565b6000602082019050818103600083015261310981612793565b9050919050565b60006020820190508181036000830152613129816127f9565b9050919050565b600060208201905081810360008301526131498161285f565b9050919050565b60006020820190508181036000830152613169816128c5565b9050919050565b600060208201905081810360008301526131898161292b565b9050919050565b600060208201905081810360008301526131a981612991565b9050919050565b600060208201905081810360008301526131c9816129f7565b9050919050565b600060208201905081810360008301526131e981612a37565b9050919050565b6000602082019050818103600083015261320981612a9d565b9050919050565b6000602082019050818103600083015261322981612b03565b9050919050565b6000602082019050818103600083015261324981612b43565b9050919050565b6000602082019050818103600083015261326981612b83565b9050919050565b6000602082019050818103600083015261328981612be9565b9050919050565b600060208201905081810360008301526132a981612c4f565b9050919050565b600060208201905081810360008301526132c981612cb5565b9050919050565b600060208201905081810360008301526132e981612d1b565b9050919050565b6000602082019050818103600083015261330981612d81565b9050919050565b6000602082019050818103600083015261332a8184612de7565b905092915050565b60006020820190506133476000830184612e46565b92915050565b6000604051905081810181811067ffffffffffffffff8211171561337057600080fd5b8060405250919050565b600067ffffffffffffffff82111561339157600080fd5b602082029050602081019050919050565b600067ffffffffffffffff8211156133b957600080fd5b602082029050602081019050919050565b600067ffffffffffffffff8211156133e157600080fd5b601f19601f8301169050602081019050919050565b6000819050602082019050919050565b600081519050919050565b600081519050919050565b6000602082019050919050565b600082825260208201905092915050565b600082825260208201905092915050565b600082825260208201905092915050565b600082825260208201905092915050565b6000613478826134c1565b9050919050565b60008115159050919050565b6000819050919050565b60007fffffffff0000000000000000000000000000000000000000000000000000000082169050919050565b600073ffffffffffffffffffffffffffffffffffffffff82169050919050565b6000819050919050565b600060ff82169050919050565b6000613503826134e1565b9050919050565b82818337600083830152505050565b60005b8381101561353757808201518184015260208101905061351c565b83811115613546576000848401525b50505050565b6000601f19601f8301169050919050565b6135668161346d565b811461357157600080fd5b50565b61357d8161347f565b811461358857600080fd5b50565b6135948161348b565b811461359f57600080fd5b50565b6135ab81613495565b81146135b657600080fd5b50565b6135c2816134e1565b81146135cd57600080fd5b50565b6135d9816134eb565b81146135e457600080fd5b5056fea26469706673582212200262ee0887347edb691b9e471760ad74117ec829d8871b5c473b207fa84f049464736f6c634300060c0033",
			"opcodes": "PUSH1 0x80 PUSH1 0x40 MSTORE CALLVALUE DUP1 ISZERO PUSH3 0x11 JUMPI PUSH1 0x0 DUP1 REVERT JUMPDEST POP PUSH3 0x22 PUSH3 0xA0 PUSH1 0x20 SHL PUSH1 0x20 SHR JUMP JUMPDEST PUSH1 0x0 DUP1 PUSH2 0x100 EXP DUP2 SLOAD DUP2 PUSH20 0xFFFFFFFFFFFFFFFFFFFFFFFFFFFFFFFFFFFFFFFF MUL NOT AND SWAP1 DUP4 PUSH20 0xFFFFFFFFFFFFFFFFFFFFFFFFFFFFFFFFFFFFFFFF AND MUL OR SWAP1 SSTORE POP PUSH3 0x79 PUSH4 0x1FFC9A7 PUSH1 0xE0 SHL PUSH3 0xA8 PUSH1 0x20 SHL PUSH1 0x20 SHR JUMP JUMPDEST PUSH3 0x9A PUSH4 0xBC197C81 PUSH1 0xE0 SHL PUSH4 0xF23A6E61 PUSH1 0xE0 SHL XOR PUSH3 0xA8 PUSH1 0x20 SHL PUSH1 0x20 SHR JUMP JUMPDEST PUSH3 0x1F5 JUMP JUMPDEST PUSH1 0x0 CALLER SWAP1 POP SWAP1 JUMP JUMPDEST PUSH4 0xFFFFFFFF PUSH1 0xE0 SHL DUP2 PUSH28 0xFFFFFFFFFFFFFFFFFFFFFFFFFFFFFFFFFFFFFFFFFFFFFFFFFFFFFFFF NOT AND EQ ISZERO PUSH3 0x114 JUMPI PUSH1 0x40 MLOAD PUSH32 0x8C379A000000000000000000000000000000000000000000000000000000000 DUP2 MSTORE PUSH1 0x4 ADD PUSH3 0x10B SWAP1 PUSH3 0x1C2 JUMP JUMPDEST PUSH1 0x40 MLOAD DUP1 SWAP2 SUB SWAP1 REVERT JUMPDEST PUSH1 0x1 DUP1 PUSH1 0x0 DUP4 PUSH28 0xFFFFFFFFFFFFFFFFFFFFFFFFFFFFFFFFFFFFFFFFFFFFFFFFFFFFFFFF NOT AND PUSH28 0xFFFFFFFFFFFFFFFFFFFFFFFFFFFFFFFFFFFFFFFFFFFFFFFFFFFFFFFF NOT AND DUP2 MSTORE PUSH1 0x20 ADD SWAP1 DUP2 MSTORE PUSH1 0x20 ADD PUSH1 0x0 KECCAK256 PUSH1 0x0 PUSH2 0x100 EXP DUP2 SLOAD DUP2 PUSH1 0xFF MUL NOT AND SWAP1 DUP4 ISZERO ISZERO MUL OR SWAP1 SSTORE POP POP JUMP JUMPDEST PUSH1 0x0 PUSH3 0x18F PUSH1 0x1C DUP4 PUSH3 0x1E4 JUMP JUMPDEST SWAP2 POP PUSH32 0x4552433136353A20696E76616C696420696E7465726661636520696400000000 PUSH1 0x0 DUP4 ADD MSTORE PUSH1 0x20 DUP3 ADD SWAP1 POP SWAP2 SWAP1 POP JUMP JUMPDEST PUSH1 0x0 PUSH1 0x20 DUP3 ADD SWAP1 POP DUP2 DUP2 SUB PUSH1 0x0 DUP4 ADD MSTORE PUSH3 0x1DD DUP2 PUSH3 0x180 JUMP JUMPDEST SWAP1 POP SWAP2 SWAP1 POP JUMP JUMPDEST PUSH1 0x0 DUP3 DUP3 MSTORE PUSH1 0x20 DUP3 ADD SWAP1 POP SWAP3 SWAP2 POP POP JUMP JUMPDEST PUSH2 0x361D DUP1 PUSH3 0x205 PUSH1 0x0 CODECOPY PUSH1 0x0 RETURN INVALID PUSH1 0x80 PUSH1 0x40 MSTORE CALLVALUE DUP1 ISZERO PUSH2 0x10 JUMPI PUSH1 0x0 DUP1 REVERT JUMPDEST POP PUSH1 0x4 CALLDATASIZE LT PUSH2 0xEA JUMPI PUSH1 0x0 CALLDATALOAD PUSH1 0xE0 SHR DUP1 PUSH4 0x715018A6 GT PUSH2 0x8C JUMPI DUP1 PUSH4 0xA24D22FE GT PUSH2 0x66 JUMPI DUP1 PUSH4 0xA24D22FE EQ PUSH2 0x247 JUMPI DUP1 PUSH4 0xBC197C81 EQ PUSH2 0x263 JUMPI DUP1 PUSH4 0xF23A6E61 EQ PUSH2 0x293 JUMPI DUP1 PUSH4 0xF2FDE38B EQ PUSH2 0x2C3 JUMPI PUSH2 0xEA JUMP JUMPDEST DUP1 PUSH4 0x715018A6 EQ PUSH2 0x1EF JUMPI DUP1 PUSH4 0x7C4D7F44 EQ PUSH2 0x1F9 JUMPI DUP1 PUSH4 0x8DA5CB5B EQ PUSH2 0x229 JUMPI PUSH2 0xEA JUMP JUMPDEST DUP1 PUSH4 0x2A3B3836 GT PUSH2 0xC8 JUMPI DUP1 PUSH4 0x2A3B3836 EQ PUSH2 0x16B JUMPI DUP1 PUSH4 0x2A6C7D0C EQ PUSH2 0x187 JUMPI DUP1 PUSH4 0x3291BF99 EQ PUSH2 0x1A3 JUMPI DUP1 PUSH4 0x467F4CB9 EQ PUSH2 0x1BF JUMPI PUSH2 0xEA JUMP JUMPDEST DUP1 PUSH4 0x1FFC9A7 EQ PUSH2 0xEF JUMPI DUP1 PUSH4 0x525BDCF EQ PUSH2 0x11F JUMPI DUP1 PUSH4 0x74540DA EQ PUSH2 0x14F JUMPI JUMPDEST PUSH1 0x0 DUP1 REVERT JUMPDEST PUSH2 0x109 PUSH1 0x4 DUP1 CALLDATASIZE SUB DUP2 ADD SWAP1 PUSH2 0x104 SWAP2 SWAP1 PUSH2 0x2533 JUMP JUMPDEST PUSH2 0x2DF JUMP JUMPDEST PUSH1 0x40 MLOAD PUSH2 0x116 SWAP2 SWAP1 PUSH2 0x3033 JUMP JUMPDEST PUSH1 0x40 MLOAD DUP1 SWAP2 SUB SWAP1 RETURN JUMPDEST PUSH2 0x139 PUSH1 0x4 DUP1 CALLDATASIZE SUB DUP2 ADD SWAP1 PUSH2 0x134 SWAP2 SWAP1 PUSH2 0x255C JUMP JUMPDEST PUSH2 0x347 JUMP JUMPDEST PUSH1 0x40 MLOAD PUSH2 0x146 SWAP2 SWAP1 PUSH2 0x30AE JUMP JUMPDEST PUSH1 0x40 MLOAD DUP1 SWAP2 SUB SWAP1 RETURN JUMPDEST PUSH2 0x169 PUSH1 0x4 DUP1 CALLDATASIZE SUB DUP2 ADD SWAP1 PUSH2 0x164 SWAP2 SWAP1 PUSH2 0x2349 JUMP JUMPDEST PUSH2 0x3A3 JUMP JUMPDEST STOP JUMPDEST PUSH2 0x185 PUSH1 0x4 DUP1 CALLDATASIZE SUB DUP2 ADD SWAP1 PUSH2 0x180 SWAP2 SWAP1 PUSH2 0x255C JUMP JUMPDEST PUSH2 0x423 JUMP JUMPDEST STOP JUMPDEST PUSH2 0x1A1 PUSH1 0x4 DUP1 CALLDATASIZE SUB DUP2 ADD SWAP1 PUSH2 0x19C SWAP2 SWAP1 PUSH2 0x2427 JUMP JUMPDEST PUSH2 0x473 JUMP JUMPDEST STOP JUMPDEST PUSH2 0x1BD PUSH1 0x4 DUP1 CALLDATASIZE SUB DUP2 ADD SWAP1 PUSH2 0x1B8 SWAP2 SWAP1 PUSH2 0x255C JUMP JUMPDEST PUSH2 0x509 JUMP JUMPDEST STOP JUMPDEST PUSH2 0x1D9 PUSH1 0x4 DUP1 CALLDATASIZE SUB DUP2 ADD SWAP1 PUSH2 0x1D4 SWAP2 SWAP1 PUSH2 0x23D8 JUMP JUMPDEST PUSH2 0x54F JUMP JUMPDEST PUSH1 0x40 MLOAD PUSH2 0x1E6 SWAP2 SWAP1 PUSH2 0x3332 JUMP JUMPDEST PUSH1 0x40 MLOAD DUP1 SWAP2 SUB SWAP1 RETURN JUMPDEST PUSH2 0x1F7 PUSH2 0x5EE JUMP JUMPDEST STOP JUMPDEST PUSH2 0x213 PUSH1 0x4 DUP1 CALLDATASIZE SUB DUP2 ADD SWAP1 PUSH2 0x20E SWAP2 SWAP1 PUSH2 0x23D8 JUMP JUMPDEST PUSH2 0x741 JUMP JUMPDEST PUSH1 0x40 MLOAD PUSH2 0x220 SWAP2 SWAP1 PUSH2 0x3310 JUMP JUMPDEST PUSH1 0x40 MLOAD DUP1 SWAP2 SUB SWAP1 RETURN JUMPDEST PUSH2 0x231 PUSH2 0x88F JUMP JUMPDEST PUSH1 0x40 MLOAD PUSH2 0x23E SWAP2 SWAP1 PUSH2 0x2E64 JUMP JUMPDEST PUSH1 0x40 MLOAD DUP1 SWAP2 SUB SWAP1 RETURN JUMPDEST PUSH2 0x261 PUSH1 0x4 DUP1 CALLDATASIZE SUB DUP2 ADD SWAP1 PUSH2 0x25C SWAP2 SWAP1 PUSH2 0x255C JUMP JUMPDEST PUSH2 0x8B8 JUMP JUMPDEST STOP JUMPDEST PUSH2 0x27D PUSH1 0x4 DUP1 CALLDATASIZE SUB DUP2 ADD SWAP1 PUSH2 0x278 SWAP2 SWAP1 PUSH2 0x21EB JUMP JUMPDEST PUSH2 0xD41 JUMP JUMPDEST PUSH1 0x40 MLOAD PUSH2 0x28A SWAP2 SWAP1 PUSH2 0x3093 JUMP JUMPDEST PUSH1 0x40 MLOAD DUP1 SWAP2 SUB SWAP1 RETURN JUMPDEST PUSH2 0x2AD PUSH1 0x4 DUP1 CALLDATASIZE SUB DUP2 ADD SWAP1 PUSH2 0x2A8 SWAP2 SWAP1 PUSH2 0x22B7 JUMP JUMPDEST PUSH2 0xDD9 JUMP JUMPDEST PUSH1 0x40 MLOAD PUSH2 0x2BA SWAP2 SWAP1 PUSH2 0x3093 JUMP JUMPDEST PUSH1 0x40 MLOAD DUP1 SWAP2 SUB SWAP1 RETURN JUMPDEST PUSH2 0x2DD PUSH1 0x4 DUP1 CALLDATASIZE SUB DUP2 ADD SWAP1 PUSH2 0x2D8 SWAP2 SWAP1 PUSH2 0x21C2 JUMP JUMPDEST PUSH2 0xE29 JUMP JUMPDEST STOP JUMPDEST PUSH1 0x0 PUSH1 0x1 PUSH1 0x0 DUP4 PUSH28 0xFFFFFFFFFFFFFFFFFFFFFFFFFFFFFFFFFFFFFFFFFFFFFFFFFFFFFFFF NOT AND PUSH28 0xFFFFFFFFFFFFFFFFFFFFFFFFFFFFFFFFFFFFFFFFFFFFFFFFFFFFFFFF NOT AND DUP2 MSTORE PUSH1 0x20 ADD SWAP1 DUP2 MSTORE PUSH1 0x20 ADD PUSH1 0x0 KECCAK256 PUSH1 0x0 SWAP1 SLOAD SWAP1 PUSH2 0x100 EXP SWAP1 DIV PUSH1 0xFF AND SWAP1 POP SWAP2 SWAP1 POP JUMP JUMPDEST PUSH1 0x60 DUP1 DUP3 PUSH1 0x0 ADD MLOAD DUP4 PUSH1 0x20 ADD MLOAD DUP5 PUSH1 0x40 ADD MLOAD DUP6 PUSH1 0x60 ADD MLOAD DUP7 PUSH1 0x80 ADD MLOAD DUP8 PUSH1 0xA0 ADD MLOAD DUP9 PUSH1 0xC0 ADD MLOAD DUP10 PUSH1 0xE0 ADD MLOAD PUSH1 0x40 MLOAD PUSH1 0x20 ADD PUSH2 0x389 SWAP9 SWAP8 SWAP7 SWAP6 SWAP5 SWAP4 SWAP3 SWAP2 SWAP1 PUSH2 0x2F39 JUMP JUMPDEST PUSH1 0x40 MLOAD PUSH1 0x20 DUP2 DUP4 SUB SUB DUP2 MSTORE SWAP1 PUSH1 0x40 MSTORE SWAP1 POP DUP1 SWAP2 POP POP SWAP2 SWAP1 POP JUMP JUMPDEST PUSH2 0x3AB PUSH2 0x1C41 JUMP JUMPDEST PUSH2 0x3BD DUP6 DUP6 PUSH2 0x3B8 PUSH2 0xFEB JUMP JUMPDEST PUSH2 0x741 JUMP JUMPDEST SWAP1 POP PUSH1 0x1 DUP2 PUSH1 0x20 ADD MLOAD EQ PUSH2 0x406 JUMPI PUSH1 0x40 MLOAD PUSH32 0x8C379A000000000000000000000000000000000000000000000000000000000 DUP2 MSTORE PUSH1 0x4 ADD PUSH2 0x3FD SWAP1 PUSH2 0x3250 JUMP JUMPDEST PUSH1 0x40 MLOAD DUP1 SWAP2 SUB SWAP1 REVERT JUMPDEST PUSH2 0x41B PUSH2 0x411 PUSH2 0xFEB JUMP JUMPDEST DUP8 DUP8 DUP8 DUP8 DUP8 PUSH2 0xFF3 JUMP JUMPDEST POP POP POP POP POP POP JUMP JUMPDEST PUSH2 0x42C DUP2 PUSH2 0x8B8 JUMP JUMPDEST PUSH2 0x434 PUSH2 0x1C41 JUMP JUMPDEST PUSH2 0x450 DUP3 PUSH1 0x0 ADD MLOAD DUP4 PUSH1 0x20 ADD MLOAD DUP5 PUSH1 0x60 ADD MLOAD DUP6 PUSH1 0xE0 ADD MLOAD PUSH2 0x12FD JUMP JUMPDEST SWAP1 POP PUSH2 0x46F DUP3 PUSH1 0x40 ADD MLOAD DUP3 DUP5 PUSH1 0x0 ADD MLOAD DUP6 PUSH1 0x20 ADD MLOAD DUP7 PUSH1 0x80 ADD MLOAD PUSH2 0x13A5 JUMP JUMPDEST POP POP JUMP JUMPDEST PUSH2 0x47B PUSH2 0x1C41 JUMP JUMPDEST PUSH2 0x48D DUP6 DUP6 PUSH2 0x488 PUSH2 0xFEB JUMP JUMPDEST PUSH2 0x741 JUMP JUMPDEST SWAP1 POP PUSH1 0x1 DUP2 PUSH1 0x20 ADD MLOAD EQ PUSH2 0x4D6 JUMPI PUSH1 0x40 MLOAD PUSH32 0x8C379A000000000000000000000000000000000000000000000000000000000 DUP2 MSTORE PUSH1 0x4 ADD PUSH2 0x4CD SWAP1 PUSH2 0x3250 JUMP JUMPDEST PUSH1 0x40 MLOAD DUP1 SWAP2 SUB SWAP1 REVERT JUMPDEST PUSH2 0x4DE PUSH2 0x1C41 JUMP JUMPDEST PUSH2 0x4EA DUP7 DUP7 DUP10 DUP7 PUSH2 0x12FD JUMP JUMPDEST SWAP1 POP PUSH2 0x500 PUSH2 0x4F7 PUSH2 0xFEB JUMP JUMPDEST DUP3 DUP9 DUP9 DUP9 PUSH2 0x13A5 JUMP JUMPDEST POP POP POP POP POP POP POP JUMP JUMPDEST PUSH2 0x512 DUP2 PUSH2 0x8B8 JUMP JUMPDEST PUSH2 0x54C DUP2 PUSH1 0x40 ADD MLOAD DUP3 PUSH1 0x60 ADD MLOAD PUSH1 0x0 DUP2 MLOAD DUP2 LT PUSH2 0x52B JUMPI INVALID JUMPDEST PUSH1 0x20 MUL PUSH1 0x20 ADD ADD MLOAD DUP4 PUSH1 0x0 ADD MLOAD DUP5 PUSH1 0x20 ADD MLOAD DUP6 PUSH1 0x80 ADD MLOAD DUP7 PUSH1 0xA0 ADD MLOAD PUSH2 0xFF3 JUMP JUMPDEST POP JUMP JUMPDEST PUSH1 0x0 PUSH1 0x2 PUSH1 0x0 DUP6 PUSH20 0xFFFFFFFFFFFFFFFFFFFFFFFFFFFFFFFFFFFFFFFF AND PUSH20 0xFFFFFFFFFFFFFFFFFFFFFFFFFFFFFFFFFFFFFFFF AND DUP2 MSTORE PUSH1 0x20 ADD SWAP1 DUP2 MSTORE PUSH1 0x20 ADD PUSH1 0x0 KECCAK256 PUSH1 0x0 DUP5 DUP2 MSTORE PUSH1 0x20 ADD SWAP1 DUP2 MSTORE PUSH1 0x20 ADD PUSH1 0x0 KECCAK256 PUSH1 0x1 ADD PUSH1 0x0 DUP4 PUSH20 0xFFFFFFFFFFFFFFFFFFFFFFFFFFFFFFFFFFFFFFFF AND PUSH20 0xFFFFFFFFFFFFFFFFFFFFFFFFFFFFFFFFFFFFFFFF AND DUP2 MSTORE PUSH1 0x20 ADD SWAP1 DUP2 MSTORE PUSH1 0x20 ADD PUSH1 0x0 KECCAK256 PUSH1 0x0 ADD SLOAD SWAP1 POP SWAP4 SWAP3 POP POP POP JUMP JUMPDEST PUSH2 0x5F6 PUSH2 0xFEB JUMP JUMPDEST PUSH20 0xFFFFFFFFFFFFFFFFFFFFFFFFFFFFFFFFFFFFFFFF AND PUSH1 0x0 DUP1 SLOAD SWAP1 PUSH2 0x100 EXP SWAP1 DIV PUSH20 0xFFFFFFFFFFFFFFFFFFFFFFFFFFFFFFFFFFFFFFFF AND PUSH20 0xFFFFFFFFFFFFFFFFFFFFFFFFFFFFFFFFFFFFFFFF AND EQ PUSH2 0x683 JUMPI PUSH1 0x40 MLOAD PUSH32 0x8C379A000000000000000000000000000000000000000000000000000000000 DUP2 MSTORE PUSH1 0x4 ADD PUSH2 0x67A SWAP1 PUSH2 0x3230 JUMP JUMPDEST PUSH1 0x40 MLOAD DUP1 SWAP2 SUB SWAP1 REVERT JUMPDEST PUSH1 0x0 PUSH20 0xFFFFFFFFFFFFFFFFFFFFFFFFFFFFFFFFFFFFFFFF AND PUSH1 0x0 DUP1 SLOAD SWAP1 PUSH2 0x100 EXP SWAP1 DIV PUSH20 0xFFFFFFFFFFFFFFFFFFFFFFFFFFFFFFFFFFFFFFFF AND PUSH20 0xFFFFFFFFFFFFFFFFFFFFFFFFFFFFFFFFFFFFFFFF AND PUSH32 0x8BE0079C531659141344CD1FD0A4F28419497F9722A3DAAFE3B4186F6B6457E0 PUSH1 0x40 MLOAD PUSH1 0x40 MLOAD DUP1 SWAP2 SUB SWAP1 LOG3 PUSH1 0x0 DUP1 PUSH1 0x0 PUSH2 0x100 EXP DUP2 SLOAD DUP2 PUSH20 0xFFFFFFFFFFFFFFFFFFFFFFFFFFFFFFFFFFFFFFFF MUL NOT AND SWAP1 DUP4 PUSH20 0xFFFFFFFFFFFFFFFFFFFFFFFFFFFFFFFFFFFFFFFF AND MUL OR SWAP1 SSTORE POP JUMP JUMPDEST PUSH2 0x749 PUSH2 0x1C41 JUMP JUMPDEST PUSH1 0x2 PUSH1 0x0 DUP6 PUSH20 0xFFFFFFFFFFFFFFFFFFFFFFFFFFFFFFFFFFFFFFFF AND PUSH20 0xFFFFFFFFFFFFFFFFFFFFFFFFFFFFFFFFFFFFFFFF AND DUP2 MSTORE PUSH1 0x20 ADD SWAP1 DUP2 MSTORE PUSH1 0x20 ADD PUSH1 0x0 KECCAK256 PUSH1 0x0 DUP5 DUP2 MSTORE PUSH1 0x20 ADD SWAP1 DUP2 MSTORE PUSH1 0x20 ADD PUSH1 0x0 KECCAK256 PUSH1 0x1 ADD PUSH1 0x0 DUP4 PUSH20 0xFFFFFFFFFFFFFFFFFFFFFFFFFFFFFFFFFFFFFFFF AND PUSH20 0xFFFFFFFFFFFFFFFFFFFFFFFFFFFFFFFFFFFFFFFF AND DUP2 MSTORE PUSH1 0x20 ADD SWAP1 DUP2 MSTORE PUSH1 0x20 ADD PUSH1 0x0 KECCAK256 PUSH1 0x40 MLOAD DUP1 PUSH1 0x60 ADD PUSH1 0x40 MSTORE SWAP1 DUP2 PUSH1 0x0 DUP3 ADD SLOAD DUP2 MSTORE PUSH1 0x20 ADD PUSH1 0x1 DUP3 ADD SLOAD DUP2 MSTORE PUSH1 0x20 ADD PUSH1 0x2 DUP3 ADD DUP1 SLOAD DUP1 PUSH1 0x20 MUL PUSH1 0x20 ADD PUSH1 0x40 MLOAD SWAP1 DUP2 ADD PUSH1 0x40 MSTORE DUP1 SWAP3 SWAP2 SWAP1 DUP2 DUP2 MSTORE PUSH1 0x20 ADD DUP3 DUP1 SLOAD DUP1 ISZERO PUSH2 0x87D JUMPI PUSH1 0x20 MUL DUP3 ADD SWAP2 SWAP1 PUSH1 0x0 MSTORE PUSH1 0x20 PUSH1 0x0 KECCAK256 SWAP1 JUMPDEST DUP2 PUSH1 0x0 SWAP1 SLOAD SWAP1 PUSH2 0x100 EXP SWAP1 DIV PUSH20 0xFFFFFFFFFFFFFFFFFFFFFFFFFFFFFFFFFFFFFFFF AND PUSH20 0xFFFFFFFFFFFFFFFFFFFFFFFFFFFFFFFFFFFFFFFF AND DUP2 MSTORE PUSH1 0x20 ADD SWAP1 PUSH1 0x1 ADD SWAP1 DUP1 DUP4 GT PUSH2 0x833 JUMPI JUMPDEST POP POP POP POP POP DUP2 MSTORE POP POP SWAP1 POP SWAP4 SWAP3 POP POP POP JUMP JUMPDEST PUSH1 0x0 DUP1 PUSH1 0x0 SWAP1 SLOAD SWAP1 PUSH2 0x100 EXP SWAP1 DIV PUSH20 0xFFFFFFFFFFFFFFFFFFFFFFFFFFFFFFFFFFFFFFFF AND SWAP1 POP SWAP1 JUMP JUMPDEST TIMESTAMP DUP2 PUSH1 0xC0 ADD MLOAD GT PUSH2 0x8FE JUMPI PUSH1 0x40 MLOAD PUSH32 0x8C379A000000000000000000000000000000000000000000000000000000000 DUP2 MSTORE PUSH1 0x4 ADD PUSH2 0x8F5 SWAP1 PUSH2 0x30D0 JUMP JUMPDEST PUSH1 0x40 MLOAD DUP1 SWAP2 SUB SWAP1 REVERT JUMPDEST PUSH1 0x0 DUP2 PUSH1 0x0 ADD MLOAD SWAP1 POP PUSH1 0x0 DUP3 PUSH1 0x20 ADD MLOAD SWAP1 POP PUSH1 0x0 DUP4 PUSH1 0x40 ADD MLOAD SWAP1 POP PUSH1 0x60 DUP5 PUSH2 0x100 ADD MLOAD SWAP1 POP PUSH1 0x60 DUP6 PUSH2 0x120 ADD MLOAD SWAP1 POP PUSH1 0x60 PUSH2 0x938 DUP8 PUSH2 0x347 JUMP JUMPDEST SWAP1 POP PUSH1 0x0 DUP2 DUP1 MLOAD SWAP1 PUSH1 0x20 ADD KECCAK256 SWAP1 POP PUSH2 0x94E PUSH2 0x1C41 JUMP JUMPDEST PUSH2 0x959 DUP9 DUP9 DUP9 PUSH2 0x741 JUMP JUMPDEST SWAP1 POP PUSH1 0x0 PUSH20 0xFFFFFFFFFFFFFFFFFFFFFFFFFFFFFFFFFFFFFFFF AND DUP7 PUSH20 0xFFFFFFFFFFFFFFFFFFFFFFFFFFFFFFFFFFFFFFFF AND EQ ISZERO PUSH2 0x9CB JUMPI PUSH1 0x40 MLOAD PUSH32 0x8C379A000000000000000000000000000000000000000000000000000000000 DUP2 MSTORE PUSH1 0x4 ADD PUSH2 0x9C2 SWAP1 PUSH2 0x3210 JUMP JUMPDEST PUSH1 0x40 MLOAD DUP1 SWAP2 SUB SWAP1 REVERT JUMPDEST DUP1 PUSH1 0x40 ADD MLOAD PUSH1 0x0 DUP2 MLOAD DUP2 LT PUSH2 0x9DC JUMPI INVALID JUMPDEST PUSH1 0x20 MUL PUSH1 0x20 ADD ADD MLOAD PUSH20 0xFFFFFFFFFFFFFFFFFFFFFFFFFFFFFFFFFFFFFFFF AND DUP7 PUSH20 0xFFFFFFFFFFFFFFFFFFFFFFFFFFFFFFFFFFFFFFFF AND EQ PUSH2 0xA51 JUMPI PUSH1 0x40 MLOAD PUSH32 0x8C379A000000000000000000000000000000000000000000000000000000000 DUP2 MSTORE PUSH1 0x4 ADD PUSH2 0xA48 SWAP1 PUSH2 0x31B0 JUMP JUMPDEST PUSH1 0x40 MLOAD DUP1 SWAP2 SUB SWAP1 REVERT JUMPDEST DUP1 PUSH1 0x20 ADD MLOAD DUP6 MLOAD LT ISZERO PUSH2 0xA99 JUMPI PUSH1 0x40 MLOAD PUSH32 0x8C379A000000000000000000000000000000000000000000000000000000000 DUP2 MSTORE PUSH1 0x4 ADD PUSH2 0xA90 SWAP1 PUSH2 0x32D0 JUMP JUMPDEST PUSH1 0x40 MLOAD DUP1 SWAP2 SUB SWAP1 REVERT JUMPDEST DUP4 MLOAD DUP6 MLOAD EQ PUSH2 0xADD JUMPI PUSH1 0x40 MLOAD PUSH32 0x8C379A000000000000000000000000000000000000000000000000000000000 DUP2 MSTORE PUSH1 0x4 ADD PUSH2 0xAD4 SWAP1 PUSH2 0x3170 JUMP JUMPDEST PUSH1 0x40 MLOAD DUP1 SWAP2 SUB SWAP1 REVERT JUMPDEST PUSH1 0x60 DUP2 PUSH1 0x20 ADD MLOAD PUSH8 0xFFFFFFFFFFFFFFFF DUP2 GT DUP1 ISZERO PUSH2 0xAFA JUMPI PUSH1 0x0 DUP1 REVERT JUMPDEST POP PUSH1 0x40 MLOAD SWAP1 DUP1 DUP3 MSTORE DUP1 PUSH1 0x20 MUL PUSH1 0x20 ADD DUP3 ADD PUSH1 0x40 MSTORE DUP1 ISZERO PUSH2 0xB29 JUMPI DUP2 PUSH1 0x20 ADD PUSH1 0x20 DUP3 MUL DUP1 CALLDATASIZE DUP4 CALLDATACOPY DUP1 DUP3 ADD SWAP2 POP POP SWAP1 POP JUMPDEST POP SWAP1 POP PUSH1 0x0 DUP1 JUMPDEST DUP8 MLOAD DUP2 LT ISZERO PUSH2 0xCEC JUMPI PUSH1 0x0 DUP9 DUP3 DUP2 MLOAD DUP2 LT PUSH2 0xB47 JUMPI INVALID JUMPDEST PUSH1 0x20 MUL PUSH1 0x20 ADD ADD MLOAD SWAP1 POP PUSH32 0xFFFFFFFFFFFFFFFFFFFFFFFFFFFFFFFFFFFFFFFFFFFFFFFFFFFFFFFFFFFFFFFF PUSH2 0xB7C DUP6 DUP4 PUSH2 0x1761 JUMP JUMPDEST EQ DUP1 ISZERO PUSH2 0xBB6 JUMPI POP PUSH32 0xFFFFFFFFFFFFFFFFFFFFFFFFFFFFFFFFFFFFFFFFFFFFFFFFFFFFFFFFFFFFFFFF PUSH2 0xBB3 DUP7 PUSH1 0x40 ADD MLOAD DUP4 PUSH2 0x1761 JUMP JUMPDEST EQ ISZERO JUMPDEST ISZERO PUSH2 0xCDE JUMPI PUSH2 0xBC3 PUSH2 0x1C62 JUMP JUMPDEST DUP9 DUP4 DUP2 MLOAD DUP2 LT PUSH2 0xBCF JUMPI INVALID JUMPDEST PUSH1 0x20 MUL PUSH1 0x20 ADD ADD MLOAD SWAP1 POP PUSH1 0x0 PUSH1 0x1 DUP9 DUP4 PUSH1 0x40 ADD MLOAD DUP5 PUSH1 0x0 ADD MLOAD DUP6 PUSH1 0x20 ADD MLOAD PUSH1 0x40 MLOAD PUSH1 0x0 DUP2 MSTORE PUSH1 0x20 ADD PUSH1 0x40 MSTORE PUSH1 0x40 MLOAD PUSH2 0xC0A SWAP5 SWAP4 SWAP3 SWAP2 SWAP1 PUSH2 0x304E JUMP JUMPDEST PUSH1 0x20 PUSH1 0x40 MLOAD PUSH1 0x20 DUP2 SUB SWAP1 DUP1 DUP5 SUB SWAP1 DUP6 GAS STATICCALL ISZERO DUP1 ISZERO PUSH2 0xC2C JUMPI RETURNDATASIZE PUSH1 0x0 DUP1 RETURNDATACOPY RETURNDATASIZE PUSH1 0x0 REVERT JUMPDEST POP POP POP PUSH1 0x20 PUSH1 0x40 MLOAD SUB MLOAD SWAP1 POP DUP3 PUSH20 0xFFFFFFFFFFFFFFFFFFFFFFFFFFFFFFFFFFFFFFFF AND DUP2 PUSH20 0xFFFFFFFFFFFFFFFFFFFFFFFFFFFFFFFFFFFFFFFF AND EQ ISZERO PUSH2 0xCDB JUMPI DUP3 DUP7 DUP7 DUP2 MLOAD DUP2 LT PUSH2 0xC79 JUMPI INVALID JUMPDEST PUSH1 0x20 MUL PUSH1 0x20 ADD ADD SWAP1 PUSH20 0xFFFFFFFFFFFFFFFFFFFFFFFFFFFFFFFFFFFFFFFF AND SWAP1 DUP2 PUSH20 0xFFFFFFFFFFFFFFFFFFFFFFFFFFFFFFFFFFFFFFFF AND DUP2 MSTORE POP POP DUP5 DUP1 PUSH1 0x1 ADD SWAP6 POP POP DUP7 PUSH1 0x20 ADD MLOAD DUP6 EQ ISZERO PUSH2 0xCDA JUMPI POP POP POP POP POP POP POP POP POP POP POP POP POP POP PUSH2 0xD3E JUMP JUMPDEST JUMPDEST POP POP JUMPDEST POP DUP1 DUP1 PUSH1 0x1 ADD SWAP2 POP POP PUSH2 0xB30 JUMP JUMPDEST POP DUP3 PUSH1 0x20 ADD MLOAD DUP2 EQ PUSH2 0xD33 JUMPI PUSH1 0x40 MLOAD PUSH32 0x8C379A000000000000000000000000000000000000000000000000000000000 DUP2 MSTORE PUSH1 0x4 ADD PUSH2 0xD2A SWAP1 PUSH2 0x30F0 JUMP JUMPDEST PUSH1 0x40 MLOAD DUP1 SWAP2 SUB SWAP1 REVERT JUMPDEST POP POP POP POP POP POP POP POP POP POP JUMPDEST POP JUMP JUMPDEST PUSH1 0x0 PUSH1 0x60 PUSH1 0x0 DUP5 DUP5 DUP2 ADD SWAP1 PUSH2 0xD56 SWAP2 SWAP1 PUSH2 0x24B6 JUMP JUMPDEST DUP1 SWAP3 POP DUP2 SWAP4 POP POP POP PUSH1 0x0 PUSH2 0xD70 PUSH2 0xD6B PUSH2 0xFEB JUMP JUMPDEST PUSH2 0x17FA JUMP JUMPDEST SWAP1 POP PUSH1 0x0 JUMPDEST DUP11 DUP11 SWAP1 POP DUP2 LT ISZERO PUSH2 0xDBF JUMPI PUSH2 0xDB2 DUP3 DUP14 DUP7 DUP15 DUP15 DUP7 DUP2 DUP2 LT PUSH2 0xD92 JUMPI INVALID JUMPDEST SWAP1 POP PUSH1 0x20 MUL ADD CALLDATALOAD DUP14 DUP14 DUP8 DUP2 DUP2 LT PUSH2 0xDA5 JUMPI INVALID JUMPDEST SWAP1 POP PUSH1 0x20 MUL ADD CALLDATALOAD DUP9 PUSH2 0x1931 JUMP JUMPDEST DUP1 DUP1 PUSH1 0x1 ADD SWAP2 POP POP PUSH2 0xD75 JUMP JUMPDEST POP PUSH4 0xBC197C81 PUSH1 0xE0 SHL SWAP4 POP POP POP POP SWAP9 SWAP8 POP POP POP POP POP POP POP POP JUMP JUMPDEST PUSH1 0x0 PUSH1 0x60 PUSH1 0x0 DUP5 DUP5 DUP2 ADD SWAP1 PUSH2 0xDEE SWAP2 SWAP1 PUSH2 0x24B6 JUMP JUMPDEST DUP1 SWAP3 POP DUP2 SWAP4 POP POP POP PUSH2 0xE13 PUSH2 0xE09 PUSH2 0xE04 PUSH2 0xFEB JUMP JUMPDEST PUSH2 0x17FA JUMP JUMPDEST DUP10 DUP5 DUP11 DUP11 DUP7 PUSH2 0x1931 JUMP JUMPDEST PUSH4 0xF23A6E61 PUSH1 0xE0 SHL SWAP3 POP POP POP SWAP7 SWAP6 POP POP POP POP POP POP JUMP JUMPDEST PUSH2 0xE31 PUSH2 0xFEB JUMP JUMPDEST PUSH20 0xFFFFFFFFFFFFFFFFFFFFFFFFFFFFFFFFFFFFFFFF AND PUSH1 0x0 DUP1 SLOAD SWAP1 PUSH2 0x100 EXP SWAP1 DIV PUSH20 0xFFFFFFFFFFFFFFFFFFFFFFFFFFFFFFFFFFFFFFFF AND PUSH20 0xFFFFFFFFFFFFFFFFFFFFFFFFFFFFFFFFFFFFFFFF AND EQ PUSH2 0xEBE JUMPI PUSH1 0x40 MLOAD PUSH32 0x8C379A000000000000000000000000000000000000000000000000000000000 DUP2 MSTORE PUSH1 0x4 ADD PUSH2 0xEB5 SWAP1 PUSH2 0x3230 JUMP JUMPDEST PUSH1 0x40 MLOAD DUP1 SWAP2 SUB SWAP1 REVERT JUMPDEST PUSH1 0x0 PUSH20 0xFFFFFFFFFFFFFFFFFFFFFFFFFFFFFFFFFFFFFFFF AND DUP2 PUSH20 0xFFFFFFFFFFFFFFFFFFFFFFFFFFFFFFFFFFFFFFFF AND EQ ISZERO PUSH2 0xF2E JUMPI PUSH1 0x40 MLOAD PUSH32 0x8C379A000000000000000000000000000000000000000000000000000000000 DUP2 MSTORE PUSH1 0x4 ADD PUSH2 0xF25 SWAP1 PUSH2 0x3130 JUMP JUMPDEST PUSH1 0x40 MLOAD DUP1 SWAP2 SUB SWAP1 REVERT JUMPDEST DUP1 PUSH20 0xFFFFFFFFFFFFFFFFFFFFFFFFFFFFFFFFFFFFFFFF AND PUSH1 0x0 DUP1 SLOAD SWAP1 PUSH2 0x100 EXP SWAP1 DIV PUSH20 0xFFFFFFFFFFFFFFFFFFFFFFFFFFFFFFFFFFFFFFFF AND PUSH20 0xFFFFFFFFFFFFFFFFFFFFFFFFFFFFFFFFFFFFFFFF AND PUSH32 0x8BE0079C531659141344CD1FD0A4F28419497F9722A3DAAFE3B4186F6B6457E0 PUSH1 0x40 MLOAD PUSH1 0x40 MLOAD DUP1 SWAP2 SUB SWAP1 LOG3 DUP1 PUSH1 0x0 DUP1 PUSH2 0x100 EXP DUP2 SLOAD DUP2 PUSH20 0xFFFFFFFFFFFFFFFFFFFFFFFFFFFFFFFFFFFFFFFF MUL NOT AND SWAP1 DUP4 PUSH20 0xFFFFFFFFFFFFFFFFFFFFFFFFFFFFFFFFFFFFFFFF AND MUL OR SWAP1 SSTORE POP POP JUMP JUMPDEST PUSH1 0x0 CALLER SWAP1 POP SWAP1 JUMP JUMPDEST PUSH1 0x0 PUSH1 0x2 PUSH1 0x0 DUP7 PUSH20 0xFFFFFFFFFFFFFFFFFFFFFFFFFFFFFFFFFFFFFFFF AND PUSH20 0xFFFFFFFFFFFFFFFFFFFFFFFFFFFFFFFFFFFFFFFF AND DUP2 MSTORE PUSH1 0x20 ADD SWAP1 DUP2 MSTORE PUSH1 0x20 ADD PUSH1 0x0 KECCAK256 PUSH1 0x0 DUP6 DUP2 MSTORE PUSH1 0x20 ADD SWAP1 DUP2 MSTORE PUSH1 0x20 ADD PUSH1 0x0 KECCAK256 SWAP1 POP PUSH1 0x0 DUP2 PUSH1 0x1 ADD PUSH1 0x0 DUP10 PUSH20 0xFFFFFFFFFFFFFFFFFFFFFFFFFFFFFFFFFFFFFFFF AND PUSH20 0xFFFFFFFFFFFFFFFFFFFFFFFFFFFFFFFFFFFFFFFF AND DUP2 MSTORE PUSH1 0x20 ADD SWAP1 DUP2 MSTORE PUSH1 0x20 ADD PUSH1 0x0 KECCAK256 SWAP1 POP DUP1 PUSH1 0x0 ADD SLOAD DUP5 GT ISZERO PUSH2 0x10D3 JUMPI PUSH1 0x40 MLOAD PUSH32 0x8C379A000000000000000000000000000000000000000000000000000000000 DUP2 MSTORE PUSH1 0x4 ADD PUSH2 0x10CA SWAP1 PUSH2 0x3290 JUMP JUMPDEST PUSH1 0x40 MLOAD DUP1 SWAP2 SUB SWAP1 REVERT JUMPDEST PUSH1 0x0 DUP5 GT PUSH2 0x1116 JUMPI PUSH1 0x40 MLOAD PUSH32 0x8C379A000000000000000000000000000000000000000000000000000000000 DUP2 MSTORE PUSH1 0x4 ADD PUSH2 0x110D SWAP1 PUSH2 0x3150 JUMP JUMPDEST PUSH1 0x40 MLOAD DUP1 SWAP2 SUB SWAP1 REVERT JUMPDEST PUSH1 0x0 DUP5 DUP3 PUSH1 0x0 ADD SLOAD SUB SWAP1 POP DUP1 DUP3 PUSH1 0x0 ADD DUP2 SWAP1 SSTORE POP DUP5 DUP4 PUSH1 0x0 ADD PUSH1 0x0 DUP3 DUP3 SLOAD SUB SWAP3 POP POP DUP2 SWAP1 SSTORE POP DUP7 PUSH20 0xFFFFFFFFFFFFFFFFFFFFFFFFFFFFFFFFFFFFFFFF AND PUSH4 0xF242432A ADDRESS DUP11 DUP10 DUP10 DUP10 PUSH1 0x40 MLOAD DUP7 PUSH4 0xFFFFFFFF AND PUSH1 0xE0 SHL DUP2 MSTORE PUSH1 0x4 ADD PUSH2 0x117D SWAP6 SWAP5 SWAP4 SWAP3 SWAP2 SWAP1 PUSH2 0x2E7F JUMP JUMPDEST PUSH1 0x0 PUSH1 0x40 MLOAD DUP1 DUP4 SUB DUP2 PUSH1 0x0 DUP8 DUP1 EXTCODESIZE ISZERO DUP1 ISZERO PUSH2 0x1197 JUMPI PUSH1 0x0 DUP1 REVERT JUMPDEST POP GAS CALL ISZERO DUP1 ISZERO PUSH2 0x11AB JUMPI RETURNDATASIZE PUSH1 0x0 DUP1 RETURNDATACOPY RETURNDATASIZE PUSH1 0x0 REVERT JUMPDEST POP POP POP POP PUSH1 0x0 DUP2 EQ ISZERO PUSH2 0x121D JUMPI DUP3 PUSH1 0x1 ADD PUSH1 0x0 DUP11 PUSH20 0xFFFFFFFFFFFFFFFFFFFFFFFFFFFFFFFFFFFFFFFF AND PUSH20 0xFFFFFFFFFFFFFFFFFFFFFFFFFFFFFFFFFFFFFFFF AND DUP2 MSTORE PUSH1 0x20 ADD SWAP1 DUP2 MSTORE PUSH1 0x20 ADD PUSH1 0x0 KECCAK256 PUSH1 0x0 DUP1 DUP3 ADD PUSH1 0x0 SWAP1 SSTORE PUSH1 0x1 DUP3 ADD PUSH1 0x0 SWAP1 SSTORE PUSH1 0x2 DUP3 ADD PUSH1 0x0 PUSH2 0x121A SWAP2 SWAP1 PUSH2 0x1C8C JUMP JUMPDEST POP POP JUMPDEST PUSH1 0x0 DUP4 PUSH1 0x0 ADD SLOAD EQ ISZERO PUSH2 0x1286 JUMPI PUSH1 0x2 PUSH1 0x0 DUP9 PUSH20 0xFFFFFFFFFFFFFFFFFFFFFFFFFFFFFFFFFFFFFFFF AND PUSH20 0xFFFFFFFFFFFFFFFFFFFFFFFFFFFFFFFFFFFFFFFF AND DUP2 MSTORE PUSH1 0x20 ADD SWAP1 DUP2 MSTORE PUSH1 0x20 ADD PUSH1 0x0 KECCAK256 PUSH1 0x0 DUP8 DUP2 MSTORE PUSH1 0x20 ADD SWAP1 DUP2 MSTORE PUSH1 0x20 ADD PUSH1 0x0 KECCAK256 PUSH1 0x0 DUP1 DUP3 ADD PUSH1 0x0 SWAP1 SSTORE POP POP JUMPDEST DUP6 PUSH1 0x0 PUSH20 0xFFFFFFFFFFFFFFFFFFFFFFFFFFFFFFFFFFFFFFFF AND DUP11 PUSH20 0xFFFFFFFFFFFFFFFFFFFFFFFFFFFFFFFFFFFFFFFF AND PUSH32 0x737AB30B9CD3DDAE02069F3057591007FAF2305652D04C2582F7F1F6185D9711 DUP11 DUP6 PUSH1 0x0 PUSH1 0x40 MLOAD PUSH2 0x12EA SWAP4 SWAP3 SWAP2 SWAP1 PUSH2 0x2FC5 JUMP JUMPDEST PUSH1 0x40 MLOAD DUP1 SWAP2 SUB SWAP1 LOG4 POP POP POP POP POP POP POP POP POP JUMP JUMPDEST PUSH2 0x1305 PUSH2 0x1C41 JUMP JUMPDEST PUSH1 0x0 PUSH2 0x1310 DUP5 PUSH2 0x1B94 JUMP JUMPDEST SWAP1 POP PUSH2 0x131A PUSH2 0x1C41 JUMP JUMPDEST PUSH2 0x1325 DUP8 DUP8 DUP5 PUSH2 0x741 JUMP JUMPDEST SWAP1 POP PUSH1 0x0 DUP2 PUSH1 0x40 ADD MLOAD MLOAD EQ ISZERO PUSH2 0x1398 JUMPI DUP5 MLOAD DUP5 GT ISZERO PUSH2 0x1379 JUMPI PUSH1 0x40 MLOAD PUSH32 0x8C379A000000000000000000000000000000000000000000000000000000000 DUP2 MSTORE PUSH1 0x4 ADD PUSH2 0x1370 SWAP1 PUSH2 0x32F0 JUMP JUMPDEST PUSH1 0x40 MLOAD DUP1 SWAP2 SUB SWAP1 REVERT JUMPDEST PUSH1 0x1 DUP2 PUSH1 0x0 ADD DUP2 DUP2 MSTORE POP POP DUP5 DUP2 PUSH1 0x40 ADD DUP2 SWAP1 MSTORE POP DUP4 DUP2 PUSH1 0x20 ADD DUP2 DUP2 MSTORE POP POP JUMPDEST DUP1 SWAP3 POP POP POP SWAP5 SWAP4 POP POP POP POP JUMP JUMPDEST PUSH1 0x0 PUSH1 0x2 PUSH1 0x0 DUP6 PUSH20 0xFFFFFFFFFFFFFFFFFFFFFFFFFFFFFFFFFFFFFFFF AND PUSH20 0xFFFFFFFFFFFFFFFFFFFFFFFFFFFFFFFFFFFFFFFF AND DUP2 MSTORE PUSH1 0x20 ADD SWAP1 DUP2 MSTORE PUSH1 0x20 ADD PUSH1 0x0 KECCAK256 PUSH1 0x0 DUP5 DUP2 MSTORE PUSH1 0x20 ADD SWAP1 DUP2 MSTORE PUSH1 0x20 ADD PUSH1 0x0 KECCAK256 SWAP1 POP DUP1 PUSH1 0x1 ADD PUSH1 0x0 DUP8 PUSH20 0xFFFFFFFFFFFFFFFFFFFFFFFFFFFFFFFFFFFFFFFF AND PUSH20 0xFFFFFFFFFFFFFFFFFFFFFFFFFFFFFFFFFFFFFFFF AND DUP2 MSTORE PUSH1 0x20 ADD SWAP1 DUP2 MSTORE PUSH1 0x20 ADD PUSH1 0x0 KECCAK256 PUSH1 0x0 ADD SLOAD DUP3 GT ISZERO PUSH2 0x1480 JUMPI PUSH1 0x40 MLOAD PUSH32 0x8C379A000000000000000000000000000000000000000000000000000000000 DUP2 MSTORE PUSH1 0x4 ADD PUSH2 0x1477 SWAP1 PUSH2 0x3190 JUMP JUMPDEST PUSH1 0x40 MLOAD DUP1 SWAP2 SUB SWAP1 REVERT JUMPDEST PUSH1 0x0 DUP3 GT PUSH2 0x14C3 JUMPI PUSH1 0x40 MLOAD PUSH32 0x8C379A000000000000000000000000000000000000000000000000000000000 DUP2 MSTORE PUSH1 0x4 ADD PUSH2 0x14BA SWAP1 PUSH2 0x3110 JUMP JUMPDEST PUSH1 0x40 MLOAD DUP1 SWAP2 SUB SWAP1 REVERT JUMPDEST PUSH1 0x0 DUP6 PUSH1 0x40 ADD MLOAD PUSH1 0x0 DUP2 MLOAD DUP2 LT PUSH2 0x14D6 JUMPI INVALID JUMPDEST PUSH1 0x20 MUL PUSH1 0x20 ADD ADD MLOAD SWAP1 POP PUSH1 0x0 DUP4 DUP4 PUSH1 0x1 ADD PUSH1 0x0 DUP11 PUSH20 0xFFFFFFFFFFFFFFFFFFFFFFFFFFFFFFFFFFFFFFFF AND PUSH20 0xFFFFFFFFFFFFFFFFFFFFFFFFFFFFFFFFFFFFFFFF AND DUP2 MSTORE PUSH1 0x20 ADD SWAP1 DUP2 MSTORE PUSH1 0x20 ADD PUSH1 0x0 KECCAK256 PUSH1 0x0 ADD SLOAD SUB SWAP1 POP PUSH1 0x0 DUP5 DUP5 PUSH1 0x1 ADD PUSH1 0x0 DUP6 PUSH20 0xFFFFFFFFFFFFFFFFFFFFFFFFFFFFFFFFFFFFFFFF AND PUSH20 0xFFFFFFFFFFFFFFFFFFFFFFFFFFFFFFFFFFFFFFFF AND DUP2 MSTORE PUSH1 0x20 ADD SWAP1 DUP2 MSTORE PUSH1 0x20 ADD PUSH1 0x0 KECCAK256 PUSH1 0x0 ADD SLOAD ADD SWAP1 POP DUP2 DUP5 PUSH1 0x1 ADD PUSH1 0x0 DUP12 PUSH20 0xFFFFFFFFFFFFFFFFFFFFFFFFFFFFFFFFFFFFFFFF AND PUSH20 0xFFFFFFFFFFFFFFFFFFFFFFFFFFFFFFFFFFFFFFFF AND DUP2 MSTORE PUSH1 0x20 ADD SWAP1 DUP2 MSTORE PUSH1 0x20 ADD PUSH1 0x0 KECCAK256 PUSH1 0x0 ADD DUP2 SWAP1 SSTORE POP DUP8 DUP5 PUSH1 0x1 ADD PUSH1 0x0 DUP6 PUSH20 0xFFFFFFFFFFFFFFFFFFFFFFFFFFFFFFFFFFFFFFFF AND PUSH20 0xFFFFFFFFFFFFFFFFFFFFFFFFFFFFFFFFFFFFFFFF AND DUP2 MSTORE PUSH1 0x20 ADD SWAP1 DUP2 MSTORE PUSH1 0x20 ADD PUSH1 0x0 KECCAK256 PUSH1 0x0 DUP3 ADD MLOAD DUP2 PUSH1 0x0 ADD SSTORE PUSH1 0x20 DUP3 ADD MLOAD DUP2 PUSH1 0x1 ADD SSTORE PUSH1 0x40 DUP3 ADD MLOAD DUP2 PUSH1 0x2 ADD SWAP1 DUP1 MLOAD SWAP1 PUSH1 0x20 ADD SWAP1 PUSH2 0x1631 SWAP3 SWAP2 SWAP1 PUSH2 0x1CAD JUMP JUMPDEST POP SWAP1 POP POP DUP1 DUP5 PUSH1 0x1 ADD PUSH1 0x0 DUP6 PUSH20 0xFFFFFFFFFFFFFFFFFFFFFFFFFFFFFFFFFFFFFFFF AND PUSH20 0xFFFFFFFFFFFFFFFFFFFFFFFFFFFFFFFFFFFFFFFF AND DUP2 MSTORE PUSH1 0x20 ADD SWAP1 DUP2 MSTORE PUSH1 0x20 ADD PUSH1 0x0 KECCAK256 PUSH1 0x0 ADD DUP2 SWAP1 SSTORE POP PUSH1 0x0 DUP3 EQ ISZERO PUSH2 0x16EC JUMPI DUP4 PUSH1 0x1 ADD PUSH1 0x0 DUP11 PUSH20 0xFFFFFFFFFFFFFFFFFFFFFFFFFFFFFFFFFFFFFFFF AND PUSH20 0xFFFFFFFFFFFFFFFFFFFFFFFFFFFFFFFFFFFFFFFF AND DUP2 MSTORE PUSH1 0x20 ADD SWAP1 DUP2 MSTORE PUSH1 0x20 ADD PUSH1 0x0 KECCAK256 PUSH1 0x0 DUP1 DUP3 ADD PUSH1 0x0 SWAP1 SSTORE PUSH1 0x1 DUP3 ADD PUSH1 0x0 SWAP1 SSTORE PUSH1 0x2 DUP3 ADD PUSH1 0x0 PUSH2 0x16E9 SWAP2 SWAP1 PUSH2 0x1C8C JUMP JUMPDEST POP POP JUMPDEST DUP6 DUP4 PUSH20 0xFFFFFFFFFFFFFFFFFFFFFFFFFFFFFFFFFFFFFFFF AND DUP11 PUSH20 0xFFFFFFFFFFFFFFFFFFFFFFFFFFFFFFFFFFFFFFFF AND PUSH32 0x737AB30B9CD3DDAE02069F3057591007FAF2305652D04C2582F7F1F6185D9711 DUP11 DUP7 DUP7 PUSH1 0x40 MLOAD PUSH2 0x174E SWAP4 SWAP3 SWAP2 SWAP1 PUSH2 0x2FFC JUMP JUMPDEST PUSH1 0x40 MLOAD DUP1 SWAP2 SUB SWAP1 LOG4 POP POP POP POP POP POP POP POP POP JUMP JUMPDEST PUSH1 0x0 DUP1 PUSH1 0x0 SWAP1 POP JUMPDEST DUP4 MLOAD DUP2 LT ISZERO PUSH2 0x17CF JUMPI DUP3 PUSH20 0xFFFFFFFFFFFFFFFFFFFFFFFFFFFFFFFFFFFFFFFF AND DUP5 DUP3 DUP2 MLOAD DUP2 LT PUSH2 0x1795 JUMPI INVALID JUMPDEST PUSH1 0x20 MUL PUSH1 0x20 ADD ADD MLOAD PUSH20 0xFFFFFFFFFFFFFFFFFFFFFFFFFFFFFFFFFFFFFFFF AND EQ ISZERO PUSH2 0x17C2 JUMPI DUP1 SWAP2 POP POP PUSH2 0x17F4 JUMP JUMPDEST DUP1 DUP1 PUSH1 0x1 ADD SWAP2 POP POP PUSH2 0x1769 JUMP JUMPDEST POP PUSH32 0xFFFFFFFFFFFFFFFFFFFFFFFFFFFFFFFFFFFFFFFFFFFFFFFFFFFFFFFFFFFFFFFF SWAP1 POP JUMPDEST SWAP3 SWAP2 POP POP JUMP JUMPDEST PUSH1 0x0 PUSH2 0x181B DUP3 PUSH20 0xFFFFFFFFFFFFFFFFFFFFFFFFFFFFFFFFFFFFFFFF AND PUSH2 0x1BF6 JUMP JUMPDEST PUSH2 0x185A JUMPI PUSH1 0x40 MLOAD PUSH32 0x8C379A000000000000000000000000000000000000000000000000000000000 DUP2 MSTORE PUSH1 0x4 ADD PUSH2 0x1851 SWAP1 PUSH2 0x32B0 JUMP JUMPDEST PUSH1 0x40 MLOAD DUP1 SWAP2 SUB SWAP1 REVERT JUMPDEST DUP2 PUSH20 0xFFFFFFFFFFFFFFFFFFFFFFFFFFFFFFFFFFFFFFFF AND PUSH4 0x1FFC9A7 PUSH4 0xD9B67A26 PUSH1 0xE0 SHL PUSH1 0x40 MLOAD DUP3 PUSH4 0xFFFFFFFF AND PUSH1 0xE0 SHL DUP2 MSTORE PUSH1 0x4 ADD PUSH2 0x189A SWAP2 SWAP1 PUSH2 0x3093 JUMP JUMPDEST PUSH1 0x20 PUSH1 0x40 MLOAD DUP1 DUP4 SUB DUP2 DUP7 DUP1 EXTCODESIZE ISZERO DUP1 ISZERO PUSH2 0x18B2 JUMPI PUSH1 0x0 DUP1 REVERT JUMPDEST POP GAS STATICCALL ISZERO DUP1 ISZERO PUSH2 0x18C6 JUMPI RETURNDATASIZE PUSH1 0x0 DUP1 RETURNDATACOPY RETURNDATASIZE PUSH1 0x0 REVERT JUMPDEST POP POP POP POP PUSH1 0x40 MLOAD RETURNDATASIZE PUSH1 0x1F NOT PUSH1 0x1F DUP3 ADD AND DUP3 ADD DUP1 PUSH1 0x40 MSTORE POP DUP2 ADD SWAP1 PUSH2 0x18EA SWAP2 SWAP1 PUSH2 0x250A JUMP JUMPDEST PUSH2 0x1929 JUMPI PUSH1 0x40 MLOAD PUSH32 0x8C379A000000000000000000000000000000000000000000000000000000000 DUP2 MSTORE PUSH1 0x4 ADD PUSH2 0x1920 SWAP1 PUSH2 0x31F0 JUMP JUMPDEST PUSH1 0x40 MLOAD DUP1 SWAP2 SUB SWAP1 REVERT JUMPDEST DUP2 SWAP1 POP SWAP2 SWAP1 POP JUMP JUMPDEST PUSH1 0x0 PUSH1 0x2 PUSH1 0x0 DUP9 PUSH20 0xFFFFFFFFFFFFFFFFFFFFFFFFFFFFFFFFFFFFFFFF AND PUSH20 0xFFFFFFFFFFFFFFFFFFFFFFFFFFFFFFFFFFFFFFFF AND DUP2 MSTORE PUSH1 0x20 ADD SWAP1 DUP2 MSTORE PUSH1 0x20 ADD PUSH1 0x0 KECCAK256 PUSH1 0x0 DUP6 DUP2 MSTORE PUSH1 0x20 ADD SWAP1 DUP2 MSTORE PUSH1 0x20 ADD PUSH1 0x0 KECCAK256 SWAP1 POP DUP3 DUP2 PUSH1 0x0 ADD SLOAD ADD DUP8 PUSH20 0xFFFFFFFFFFFFFFFFFFFFFFFFFFFFFFFFFFFFFFFF AND PUSH3 0xFDD58E ADDRESS DUP8 PUSH1 0x40 MLOAD DUP4 PUSH4 0xFFFFFFFF AND PUSH1 0xE0 SHL DUP2 MSTORE PUSH1 0x4 ADD PUSH2 0x19C6 SWAP3 SWAP2 SWAP1 PUSH2 0x2F10 JUMP JUMPDEST PUSH1 0x20 PUSH1 0x40 MLOAD DUP1 DUP4 SUB DUP2 DUP7 DUP1 EXTCODESIZE ISZERO DUP1 ISZERO PUSH2 0x19DE JUMPI PUSH1 0x0 DUP1 REVERT JUMPDEST POP GAS STATICCALL ISZERO DUP1 ISZERO PUSH2 0x19F2 JUMPI RETURNDATASIZE PUSH1 0x0 DUP1 RETURNDATACOPY RETURNDATASIZE PUSH1 0x0 REVERT JUMPDEST POP POP POP POP PUSH1 0x40 MLOAD RETURNDATASIZE PUSH1 0x1F NOT PUSH1 0x1F DUP3 ADD AND DUP3 ADD DUP1 PUSH1 0x40 MSTORE POP DUP2 ADD SWAP1 PUSH2 0x1A16 SWAP2 SWAP1 PUSH2 0x259D JUMP JUMPDEST LT ISZERO PUSH2 0x1A57 JUMPI PUSH1 0x40 MLOAD PUSH32 0x8C379A000000000000000000000000000000000000000000000000000000000 DUP2 MSTORE PUSH1 0x4 ADD PUSH2 0x1A4E SWAP1 PUSH2 0x3270 JUMP JUMPDEST PUSH1 0x40 MLOAD DUP1 SWAP2 SUB SWAP1 REVERT JUMPDEST PUSH2 0x1A5F PUSH2 0x1C41 JUMP JUMPDEST PUSH2 0x1A6B DUP9 DUP7 DUP9 DUP7 PUSH2 0x12FD JUMP JUMPDEST SWAP1 POP PUSH1 0x0 DUP7 PUSH1 0x0 DUP2 MLOAD DUP2 LT PUSH2 0x1A7C JUMPI INVALID JUMPDEST PUSH1 0x20 MUL PUSH1 0x20 ADD ADD MLOAD SWAP1 POP PUSH1 0x0 DUP4 PUSH1 0x1 ADD PUSH1 0x0 DUP4 PUSH20 0xFFFFFFFFFFFFFFFFFFFFFFFFFFFFFFFFFFFFFFFF AND PUSH20 0xFFFFFFFFFFFFFFFFFFFFFFFFFFFFFFFFFFFFFFFF AND DUP2 MSTORE PUSH1 0x20 ADD SWAP1 DUP2 MSTORE PUSH1 0x20 ADD PUSH1 0x0 KECCAK256 SWAP1 POP PUSH1 0x0 DUP7 DUP3 PUSH1 0x0 ADD SLOAD ADD SWAP1 POP DUP1 DUP3 PUSH1 0x0 ADD DUP2 SWAP1 SSTORE POP DUP4 PUSH1 0x40 ADD MLOAD DUP3 PUSH1 0x2 ADD SWAP1 DUP1 MLOAD SWAP1 PUSH1 0x20 ADD SWAP1 PUSH2 0x1AFB SWAP3 SWAP2 SWAP1 PUSH2 0x1CAD JUMP JUMPDEST POP DUP4 PUSH1 0x20 ADD MLOAD DUP3 PUSH1 0x1 ADD DUP2 SWAP1 SSTORE POP DUP7 DUP6 PUSH1 0x0 ADD PUSH1 0x0 DUP3 DUP3 SLOAD ADD SWAP3 POP POP DUP2 SWAP1 SSTORE POP DUP8 DUP4 PUSH20 0xFFFFFFFFFFFFFFFFFFFFFFFFFFFFFFFFFFFFFFFF AND PUSH1 0x0 PUSH20 0xFFFFFFFFFFFFFFFFFFFFFFFFFFFFFFFFFFFFFFFF AND PUSH32 0x737AB30B9CD3DDAE02069F3057591007FAF2305652D04C2582F7F1F6185D9711 DUP15 PUSH1 0x0 DUP7 PUSH1 0x40 MLOAD PUSH2 0x1B7F SWAP4 SWAP3 SWAP2 SWAP1 PUSH2 0x2ED9 JUMP JUMPDEST PUSH1 0x40 MLOAD DUP1 SWAP2 SUB SWAP1 LOG4 POP POP POP POP POP POP POP POP POP POP POP JUMP JUMPDEST PUSH1 0x0 DUP1 DUP3 MLOAD EQ ISZERO PUSH2 0x1BDA JUMPI PUSH1 0x40 MLOAD PUSH32 0x8C379A000000000000000000000000000000000000000000000000000000000 DUP2 MSTORE PUSH1 0x4 ADD PUSH2 0x1BD1 SWAP1 PUSH2 0x31D0 JUMP JUMPDEST PUSH1 0x40 MLOAD DUP1 SWAP2 SUB SWAP1 REVERT JUMPDEST DUP2 PUSH1 0x0 DUP2 MLOAD DUP2 LT PUSH2 0x1BE7 JUMPI INVALID JUMPDEST PUSH1 0x20 MUL PUSH1 0x20 ADD ADD MLOAD SWAP1 POP SWAP2 SWAP1 POP JUMP JUMPDEST PUSH1 0x0 DUP1 PUSH1 0x0 PUSH32 0xC5D2460186F7233C927E7DB2DCC703C0E500B653CA82273B7BFAD8045D85A470 PUSH1 0x0 SHL SWAP1 POP DUP4 EXTCODEHASH SWAP2 POP DUP1 DUP3 EQ ISZERO DUP1 ISZERO PUSH2 0x1C38 JUMPI POP PUSH1 0x0 DUP1 SHL DUP3 EQ ISZERO JUMPDEST SWAP3 POP POP POP SWAP2 SWAP1 POP JUMP JUMPDEST PUSH1 0x40 MLOAD DUP1 PUSH1 0x60 ADD PUSH1 0x40 MSTORE DUP1 PUSH1 0x0 DUP2 MSTORE PUSH1 0x20 ADD PUSH1 0x0 DUP2 MSTORE PUSH1 0x20 ADD PUSH1 0x60 DUP2 MSTORE POP SWAP1 JUMP JUMPDEST PUSH1 0x40 MLOAD DUP1 PUSH1 0x60 ADD PUSH1 0x40 MSTORE DUP1 PUSH1 0x0 DUP1 NOT AND DUP2 MSTORE PUSH1 0x20 ADD PUSH1 0x0 DUP1 NOT AND DUP2 MSTORE PUSH1 0x20 ADD PUSH1 0x0 PUSH1 0xFF AND DUP2 MSTORE POP SWAP1 JUMP JUMPDEST POP DUP1 SLOAD PUSH1 0x0 DUP3 SSTORE SWAP1 PUSH1 0x0 MSTORE PUSH1 0x20 PUSH1 0x0 KECCAK256 SWAP1 DUP2 ADD SWAP1 PUSH2 0x1CAA SWAP2 SWAP1 PUSH2 0x1D37 JUMP JUMPDEST POP JUMP JUMPDEST DUP3 DUP1 SLOAD DUP3 DUP3 SSTORE SWAP1 PUSH1 0x0 MSTORE PUSH1 0x20 PUSH1 0x0 KECCAK256 SWAP1 DUP2 ADD SWAP3 DUP3 ISZERO PUSH2 0x1D26 JUMPI SWAP2 PUSH1 0x20 MUL DUP3 ADD JUMPDEST DUP3 DUP2 GT ISZERO PUSH2 0x1D25 JUMPI DUP3 MLOAD DUP3 PUSH1 0x0 PUSH2 0x100 EXP DUP2 SLOAD DUP2 PUSH20 0xFFFFFFFFFFFFFFFFFFFFFFFFFFFFFFFFFFFFFFFF MUL NOT AND SWAP1 DUP4 PUSH20 0xFFFFFFFFFFFFFFFFFFFFFFFFFFFFFFFFFFFFFFFF AND MUL OR SWAP1 SSTORE POP SWAP2 PUSH1 0x20 ADD SWAP2 SWAP1 PUSH1 0x1 ADD SWAP1 PUSH2 0x1CCD JUMP JUMPDEST JUMPDEST POP SWAP1 POP PUSH2 0x1D33 SWAP2 SWAP1 PUSH2 0x1D54 JUMP JUMPDEST POP SWAP1 JUMP JUMPDEST JUMPDEST DUP1 DUP3 GT ISZERO PUSH2 0x1D50 JUMPI PUSH1 0x0 DUP2 PUSH1 0x0 SWAP1 SSTORE POP PUSH1 0x1 ADD PUSH2 0x1D38 JUMP JUMPDEST POP SWAP1 JUMP JUMPDEST JUMPDEST DUP1 DUP3 GT ISZERO PUSH2 0x1D8B JUMPI PUSH1 0x0 DUP2 DUP2 PUSH2 0x100 EXP DUP2 SLOAD SWAP1 PUSH20 0xFFFFFFFFFFFFFFFFFFFFFFFFFFFFFFFFFFFFFFFF MUL NOT AND SWAP1 SSTORE POP PUSH1 0x1 ADD PUSH2 0x1D55 JUMP JUMPDEST POP SWAP1 JUMP JUMPDEST PUSH1 0x0 DUP2 CALLDATALOAD SWAP1 POP PUSH2 0x1D9E DUP2 PUSH2 0x355D JUMP JUMPDEST SWAP3 SWAP2 POP POP JUMP JUMPDEST PUSH1 0x0 DUP3 PUSH1 0x1F DUP4 ADD SLT PUSH2 0x1DB5 JUMPI PUSH1 0x0 DUP1 REVERT JUMPDEST DUP2 CALLDATALOAD PUSH2 0x1DC8 PUSH2 0x1DC3 DUP3 PUSH2 0x337A JUMP JUMPDEST PUSH2 0x334D JUMP JUMPDEST SWAP2 POP DUP2 DUP2 DUP4 MSTORE PUSH1 0x20 DUP5 ADD SWAP4 POP PUSH1 0x20 DUP2 ADD SWAP1 POP DUP4 DUP6 PUSH1 0x20 DUP5 MUL DUP3 ADD GT ISZERO PUSH2 0x1DED JUMPI PUSH1 0x0 DUP1 REVERT JUMPDEST PUSH1 0x0 JUMPDEST DUP4 DUP2 LT ISZERO PUSH2 0x1E1D JUMPI DUP2 PUSH2 0x1E03 DUP9 DUP3 PUSH2 0x1D8F JUMP JUMPDEST DUP5 MSTORE PUSH1 0x20 DUP5 ADD SWAP4 POP PUSH1 0x20 DUP4 ADD SWAP3 POP POP PUSH1 0x1 DUP2 ADD SWAP1 POP PUSH2 0x1DF0 JUMP JUMPDEST POP POP POP POP SWAP3 SWAP2 POP POP JUMP JUMPDEST PUSH1 0x0 DUP3 PUSH1 0x1F DUP4 ADD SLT PUSH2 0x1E38 JUMPI PUSH1 0x0 DUP1 REVERT JUMPDEST DUP2 CALLDATALOAD PUSH2 0x1E4B PUSH2 0x1E46 DUP3 PUSH2 0x33A2 JUMP JUMPDEST PUSH2 0x334D JUMP JUMPDEST SWAP2 POP DUP2 DUP2 DUP4 MSTORE PUSH1 0x20 DUP5 ADD SWAP4 POP PUSH1 0x20 DUP2 ADD SWAP1 POP DUP4 DUP6 PUSH1 0x60 DUP5 MUL DUP3 ADD GT ISZERO PUSH2 0x1E70 JUMPI PUSH1 0x0 DUP1 REVERT JUMPDEST PUSH1 0x0 JUMPDEST DUP4 DUP2 LT ISZERO PUSH2 0x1EA0 JUMPI DUP2 PUSH2 0x1E86 DUP9 DUP3 PUSH2 0x1FD1 JUMP JUMPDEST DUP5 MSTORE PUSH1 0x20 DUP5 ADD SWAP4 POP PUSH1 0x60 DUP4 ADD SWAP3 POP POP PUSH1 0x1 DUP2 ADD SWAP1 POP PUSH2 0x1E73 JUMP JUMPDEST POP POP POP POP SWAP3 SWAP2 POP POP JUMP JUMPDEST PUSH1 0x0 DUP1 DUP4 PUSH1 0x1F DUP5 ADD SLT PUSH2 0x1EBC JUMPI PUSH1 0x0 DUP1 REVERT JUMPDEST DUP3 CALLDATALOAD SWAP1 POP PUSH8 0xFFFFFFFFFFFFFFFF DUP2 GT ISZERO PUSH2 0x1ED5 JUMPI PUSH1 0x0 DUP1 REVERT JUMPDEST PUSH1 0x20 DUP4 ADD SWAP2 POP DUP4 PUSH1 0x20 DUP3 MUL DUP4 ADD GT ISZERO PUSH2 0x1EED JUMPI PUSH1 0x0 DUP1 REVERT JUMPDEST SWAP3 POP SWAP3 SWAP1 POP JUMP JUMPDEST PUSH1 0x0 DUP2 MLOAD SWAP1 POP PUSH2 0x1F03 DUP2 PUSH2 0x3574 JUMP JUMPDEST SWAP3 SWAP2 POP POP JUMP JUMPDEST PUSH1 0x0 DUP2 CALLDATALOAD SWAP1 POP PUSH2 0x1F18 DUP2 PUSH2 0x358B JUMP JUMPDEST SWAP3 SWAP2 POP POP JUMP JUMPDEST PUSH1 0x0 DUP2 CALLDATALOAD SWAP1 POP PUSH2 0x1F2D DUP2 PUSH2 0x35A2 JUMP JUMPDEST SWAP3 SWAP2 POP POP JUMP JUMPDEST PUSH1 0x0 DUP1 DUP4 PUSH1 0x1F DUP5 ADD SLT PUSH2 0x1F45 JUMPI PUSH1 0x0 DUP1 REVERT JUMPDEST DUP3 CALLDATALOAD SWAP1 POP PUSH8 0xFFFFFFFFFFFFFFFF DUP2 GT ISZERO PUSH2 0x1F5E JUMPI PUSH1 0x0 DUP1 REVERT JUMPDEST PUSH1 0x20 DUP4 ADD SWAP2 POP DUP4 PUSH1 0x1 DUP3 MUL DUP4 ADD GT ISZERO PUSH2 0x1F76 JUMPI PUSH1 0x0 DUP1 REVERT JUMPDEST SWAP3 POP SWAP3 SWAP1 POP JUMP JUMPDEST PUSH1 0x0 DUP3 PUSH1 0x1F DUP4 ADD SLT PUSH2 0x1F8E JUMPI PUSH1 0x0 DUP1 REVERT JUMPDEST DUP2 CALLDATALOAD PUSH2 0x1FA1 PUSH2 0x1F9C DUP3 PUSH2 0x33CA JUMP JUMPDEST PUSH2 0x334D JUMP JUMPDEST SWAP2 POP DUP1 DUP3 MSTORE PUSH1 0x20 DUP4 ADD PUSH1 0x20 DUP4 ADD DUP6 DUP4 DUP4 ADD GT ISZERO PUSH2 0x1FBD JUMPI PUSH1 0x0 DUP1 REVERT JUMPDEST PUSH2 0x1FC8 DUP4 DUP3 DUP5 PUSH2 0x350A JUMP JUMPDEST POP POP POP SWAP3 SWAP2 POP POP JUMP JUMPDEST PUSH1 0x0 PUSH1 0x60 DUP3 DUP5 SUB SLT ISZERO PUSH2 0x1FE3 JUMPI PUSH1 0x0 DUP1 REVERT JUMPDEST PUSH2 0x1FED PUSH1 0x60 PUSH2 0x334D JUMP JUMPDEST SWAP1 POP PUSH1 0x0 PUSH2 0x1FFD DUP5 DUP3 DUP6 ADD PUSH2 0x1F09 JUMP JUMPDEST PUSH1 0x0 DUP4 ADD MSTORE POP PUSH1 0x20 PUSH2 0x2011 DUP5 DUP3 DUP6 ADD PUSH2 0x1F09 JUMP JUMPDEST PUSH1 0x20 DUP4 ADD MSTORE POP PUSH1 0x40 PUSH2 0x2025 DUP5 DUP3 DUP6 ADD PUSH2 0x21AD JUMP JUMPDEST PUSH1 0x40 DUP4 ADD MSTORE POP SWAP3 SWAP2 POP POP JUMP JUMPDEST PUSH1 0x0 PUSH2 0x140 DUP3 DUP5 SUB SLT ISZERO PUSH2 0x2044 JUMPI PUSH1 0x0 DUP1 REVERT JUMPDEST PUSH2 0x204F PUSH2 0x140 PUSH2 0x334D JUMP JUMPDEST SWAP1 POP PUSH1 0x0 PUSH2 0x205F DUP5 DUP3 DUP6 ADD PUSH2 0x1D8F JUMP JUMPDEST PUSH1 0x0 DUP4 ADD MSTORE POP PUSH1 0x20 PUSH2 0x2073 DUP5 DUP3 DUP6 ADD PUSH2 0x2183 JUMP JUMPDEST PUSH1 0x20 DUP4 ADD MSTORE POP PUSH1 0x40 PUSH2 0x2087 DUP5 DUP3 DUP6 ADD PUSH2 0x1D8F JUMP JUMPDEST PUSH1 0x40 DUP4 ADD MSTORE POP PUSH1 0x60 DUP3 ADD CALLDATALOAD PUSH8 0xFFFFFFFFFFFFFFFF DUP2 GT ISZERO PUSH2 0x20A7 JUMPI PUSH1 0x0 DUP1 REVERT JUMPDEST PUSH2 0x20B3 DUP5 DUP3 DUP6 ADD PUSH2 0x1DA4 JUMP JUMPDEST PUSH1 0x60 DUP4 ADD MSTORE POP PUSH1 0x80 PUSH2 0x20C7 DUP5 DUP3 DUP6 ADD PUSH2 0x2183 JUMP JUMPDEST PUSH1 0x80 DUP4 ADD MSTORE POP PUSH1 0xA0 DUP3 ADD CALLDATALOAD PUSH8 0xFFFFFFFFFFFFFFFF DUP2 GT ISZERO PUSH2 0x20E7 JUMPI PUSH1 0x0 DUP1 REVERT JUMPDEST PUSH2 0x20F3 DUP5 DUP3 DUP6 ADD PUSH2 0x1F7D JUMP JUMPDEST PUSH1 0xA0 DUP4 ADD MSTORE POP PUSH1 0xC0 PUSH2 0x2107 DUP5 DUP3 DUP6 ADD PUSH2 0x2183 JUMP JUMPDEST PUSH1 0xC0 DUP4 ADD MSTORE POP PUSH1 0xE0 PUSH2 0x211B DUP5 DUP3 DUP6 ADD PUSH2 0x2183 JUMP JUMPDEST PUSH1 0xE0 DUP4 ADD MSTORE POP PUSH2 0x100 DUP3 ADD CALLDATALOAD PUSH8 0xFFFFFFFFFFFFFFFF DUP2 GT ISZERO PUSH2 0x213C JUMPI PUSH1 0x0 DUP1 REVERT JUMPDEST PUSH2 0x2148 DUP5 DUP3 DUP6 ADD PUSH2 0x1DA4 JUMP JUMPDEST PUSH2 0x100 DUP4 ADD MSTORE POP PUSH2 0x120 DUP3 ADD CALLDATALOAD PUSH8 0xFFFFFFFFFFFFFFFF DUP2 GT ISZERO PUSH2 0x216A JUMPI PUSH1 0x0 DUP1 REVERT JUMPDEST PUSH2 0x2176 DUP5 DUP3 DUP6 ADD PUSH2 0x1E27 JUMP JUMPDEST PUSH2 0x120 DUP4 ADD MSTORE POP SWAP3 SWAP2 POP POP JUMP JUMPDEST PUSH1 0x0 DUP2 CALLDATALOAD SWAP1 POP PUSH2 0x2192 DUP2 PUSH2 0x35B9 JUMP JUMPDEST SWAP3 SWAP2 POP POP JUMP JUMPDEST PUSH1 0x0 DUP2 MLOAD SWAP1 POP PUSH2 0x21A7 DUP2 PUSH2 0x35B9 JUMP JUMPDEST SWAP3 SWAP2 POP POP JUMP JUMPDEST PUSH1 0x0 DUP2 CALLDATALOAD SWAP1 POP PUSH2 0x21BC DUP2 PUSH2 0x35D0 JUMP JUMPDEST SWAP3 SWAP2 POP POP JUMP JUMPDEST PUSH1 0x0 PUSH1 0x20 DUP3 DUP5 SUB SLT ISZERO PUSH2 0x21D4 JUMPI PUSH1 0x0 DUP1 REVERT JUMPDEST PUSH1 0x0 PUSH2 0x21E2 DUP5 DUP3 DUP6 ADD PUSH2 0x1D8F JUMP JUMPDEST SWAP2 POP POP SWAP3 SWAP2 POP POP JUMP JUMPDEST PUSH1 0x0 DUP1 PUSH1 0x0 DUP1 PUSH1 0x0 DUP1 PUSH1 0x0 DUP1 PUSH1 0xA0 DUP10 DUP12 SUB SLT ISZERO PUSH2 0x2207 JUMPI PUSH1 0x0 DUP1 REVERT JUMPDEST PUSH1 0x0 PUSH2 0x2215 DUP12 DUP3 DUP13 ADD PUSH2 0x1D8F JUMP JUMPDEST SWAP9 POP POP PUSH1 0x20 PUSH2 0x2226 DUP12 DUP3 DUP13 ADD PUSH2 0x1D8F JUMP JUMPDEST SWAP8 POP POP PUSH1 0x40 DUP10 ADD CALLDATALOAD PUSH8 0xFFFFFFFFFFFFFFFF DUP2 GT ISZERO PUSH2 0x2243 JUMPI PUSH1 0x0 DUP1 REVERT JUMPDEST PUSH2 0x224F DUP12 DUP3 DUP13 ADD PUSH2 0x1EAA JUMP JUMPDEST SWAP7 POP SWAP7 POP POP PUSH1 0x60 DUP10 ADD CALLDATALOAD PUSH8 0xFFFFFFFFFFFFFFFF DUP2 GT ISZERO PUSH2 0x226E JUMPI PUSH1 0x0 DUP1 REVERT JUMPDEST PUSH2 0x227A DUP12 DUP3 DUP13 ADD PUSH2 0x1EAA JUMP JUMPDEST SWAP5 POP SWAP5 POP POP PUSH1 0x80 DUP10 ADD CALLDATALOAD PUSH8 0xFFFFFFFFFFFFFFFF DUP2 GT ISZERO PUSH2 0x2299 JUMPI PUSH1 0x0 DUP1 REVERT JUMPDEST PUSH2 0x22A5 DUP12 DUP3 DUP13 ADD PUSH2 0x1F33 JUMP JUMPDEST SWAP3 POP SWAP3 POP POP SWAP3 SWAP6 SWAP9 POP SWAP3 SWAP6 SWAP9 SWAP1 SWAP4 SWAP7 POP JUMP JUMPDEST PUSH1 0x0 DUP1 PUSH1 0x0 DUP1 PUSH1 0x0 DUP1 PUSH1 0xA0 DUP8 DUP10 SUB SLT ISZERO PUSH2 0x22D0 JUMPI PUSH1 0x0 DUP1 REVERT JUMPDEST PUSH1 0x0 PUSH2 0x22DE DUP10 DUP3 DUP11 ADD PUSH2 0x1D8F JUMP JUMPDEST SWAP7 POP POP PUSH1 0x20 PUSH2 0x22EF DUP10 DUP3 DUP11 ADD PUSH2 0x1D8F JUMP JUMPDEST SWAP6 POP POP PUSH1 0x40 PUSH2 0x2300 DUP10 DUP3 DUP11 ADD PUSH2 0x2183 JUMP JUMPDEST SWAP5 POP POP PUSH1 0x60 PUSH2 0x2311 DUP10 DUP3 DUP11 ADD PUSH2 0x2183 JUMP JUMPDEST SWAP4 POP POP PUSH1 0x80 DUP8 ADD CALLDATALOAD PUSH8 0xFFFFFFFFFFFFFFFF DUP2 GT ISZERO PUSH2 0x232E JUMPI PUSH1 0x0 DUP1 REVERT JUMPDEST PUSH2 0x233A DUP10 DUP3 DUP11 ADD PUSH2 0x1F33 JUMP JUMPDEST SWAP3 POP SWAP3 POP POP SWAP3 SWAP6 POP SWAP3 SWAP6 POP SWAP3 SWAP6 JUMP JUMPDEST PUSH1 0x0 DUP1 PUSH1 0x0 DUP1 PUSH1 0x0 PUSH1 0xA0 DUP7 DUP9 SUB SLT ISZERO PUSH2 0x2361 JUMPI PUSH1 0x0 DUP1 REVERT JUMPDEST PUSH1 0x0 PUSH2 0x236F DUP9 DUP3 DUP10 ADD PUSH2 0x1D8F JUMP JUMPDEST SWAP6 POP POP PUSH1 0x20 PUSH2 0x2380 DUP9 DUP3 DUP10 ADD PUSH2 0x1D8F JUMP JUMPDEST SWAP5 POP POP PUSH1 0x40 PUSH2 0x2391 DUP9 DUP3 DUP10 ADD PUSH2 0x2183 JUMP JUMPDEST SWAP4 POP POP PUSH1 0x60 PUSH2 0x23A2 DUP9 DUP3 DUP10 ADD PUSH2 0x2183 JUMP JUMPDEST SWAP3 POP POP PUSH1 0x80 DUP7 ADD CALLDATALOAD PUSH8 0xFFFFFFFFFFFFFFFF DUP2 GT ISZERO PUSH2 0x23BF JUMPI PUSH1 0x0 DUP1 REVERT JUMPDEST PUSH2 0x23CB DUP9 DUP3 DUP10 ADD PUSH2 0x1F7D JUMP JUMPDEST SWAP2 POP POP SWAP3 SWAP6 POP SWAP3 SWAP6 SWAP1 SWAP4 POP JUMP JUMPDEST PUSH1 0x0 DUP1 PUSH1 0x0 PUSH1 0x60 DUP5 DUP7 SUB SLT ISZERO PUSH2 0x23ED JUMPI PUSH1 0x0 DUP1 REVERT JUMPDEST PUSH1 0x0 PUSH2 0x23FB DUP7 DUP3 DUP8 ADD PUSH2 0x1D8F JUMP JUMPDEST SWAP4 POP POP PUSH1 0x20 PUSH2 0x240C DUP7 DUP3 DUP8 ADD PUSH2 0x2183 JUMP JUMPDEST SWAP3 POP POP PUSH1 0x40 PUSH2 0x241D DUP7 DUP3 DUP8 ADD PUSH2 0x1D8F JUMP JUMPDEST SWAP2 POP POP SWAP3 POP SWAP3 POP SWAP3 JUMP JUMPDEST PUSH1 0x0 DUP1 PUSH1 0x0 DUP1 PUSH1 0x0 PUSH1 0xA0 DUP7 DUP9 SUB SLT ISZERO PUSH2 0x243F JUMPI PUSH1 0x0 DUP1 REVERT JUMPDEST PUSH1 0x0 DUP7 ADD CALLDATALOAD PUSH8 0xFFFFFFFFFFFFFFFF DUP2 GT ISZERO PUSH2 0x2459 JUMPI PUSH1 0x0 DUP1 REVERT JUMPDEST PUSH2 0x2465 DUP9 DUP3 DUP10 ADD PUSH2 0x1DA4 JUMP JUMPDEST SWAP6 POP POP PUSH1 0x20 PUSH2 0x2476 DUP9 DUP3 DUP10 ADD PUSH2 0x1D8F JUMP JUMPDEST SWAP5 POP POP PUSH1 0x40 PUSH2 0x2487 DUP9 DUP3 DUP10 ADD PUSH2 0x2183 JUMP JUMPDEST SWAP4 POP POP PUSH1 0x60 PUSH2 0x2498 DUP9 DUP3 DUP10 ADD PUSH2 0x2183 JUMP JUMPDEST SWAP3 POP POP PUSH1 0x80 PUSH2 0x24A9 DUP9 DUP3 DUP10 ADD PUSH2 0x2183 JUMP JUMPDEST SWAP2 POP POP SWAP3 SWAP6 POP SWAP3 SWAP6 SWAP1 SWAP4 POP JUMP JUMPDEST PUSH1 0x0 DUP1 PUSH1 0x40 DUP4 DUP6 SUB SLT ISZERO PUSH2 0x24C9 JUMPI PUSH1 0x0 DUP1 REVERT JUMPDEST PUSH1 0x0 DUP4 ADD CALLDATALOAD PUSH8 0xFFFFFFFFFFFFFFFF DUP2 GT ISZERO PUSH2 0x24E3 JUMPI PUSH1 0x0 DUP1 REVERT JUMPDEST PUSH2 0x24EF DUP6 DUP3 DUP7 ADD PUSH2 0x1DA4 JUMP JUMPDEST SWAP3 POP POP PUSH1 0x20 PUSH2 0x2500 DUP6 DUP3 DUP7 ADD PUSH2 0x2183 JUMP JUMPDEST SWAP2 POP POP SWAP3 POP SWAP3 SWAP1 POP JUMP JUMPDEST PUSH1 0x0 PUSH1 0x20 DUP3 DUP5 SUB SLT ISZERO PUSH2 0x251C JUMPI PUSH1 0x0 DUP1 REVERT JUMPDEST PUSH1 0x0 PUSH2 0x252A DUP5 DUP3 DUP6 ADD PUSH2 0x1EF4 JUMP JUMPDEST SWAP2 POP POP SWAP3 SWAP2 POP POP JUMP JUMPDEST PUSH1 0x0 PUSH1 0x20 DUP3 DUP5 SUB SLT ISZERO PUSH2 0x2545 JUMPI PUSH1 0x0 DUP1 REVERT JUMPDEST PUSH1 0x0 PUSH2 0x2553 DUP5 DUP3 DUP6 ADD PUSH2 0x1F1E JUMP JUMPDEST SWAP2 POP POP SWAP3 SWAP2 POP POP JUMP JUMPDEST PUSH1 0x0 PUSH1 0x20 DUP3 DUP5 SUB SLT ISZERO PUSH2 0x256E JUMPI PUSH1 0x0 DUP1 REVERT JUMPDEST PUSH1 0x0 DUP3 ADD CALLDATALOAD PUSH8 0xFFFFFFFFFFFFFFFF DUP2 GT ISZERO PUSH2 0x2588 JUMPI PUSH1 0x0 DUP1 REVERT JUMPDEST PUSH2 0x2594 DUP5 DUP3 DUP6 ADD PUSH2 0x2031 JUMP JUMPDEST SWAP2 POP POP SWAP3 SWAP2 POP POP JUMP JUMPDEST PUSH1 0x0 PUSH1 0x20 DUP3 DUP5 SUB SLT ISZERO PUSH2 0x25AF JUMPI PUSH1 0x0 DUP1 REVERT JUMPDEST PUSH1 0x0 PUSH2 0x25BD DUP5 DUP3 DUP6 ADD PUSH2 0x2198 JUMP JUMPDEST SWAP2 POP POP SWAP3 SWAP2 POP POP JUMP JUMPDEST PUSH1 0x0 PUSH2 0x25D2 DUP4 DUP4 PUSH2 0x25DE JUMP JUMPDEST PUSH1 0x20 DUP4 ADD SWAP1 POP SWAP3 SWAP2 POP POP JUMP JUMPDEST PUSH2 0x25E7 DUP2 PUSH2 0x346D JUMP JUMPDEST DUP3 MSTORE POP POP JUMP JUMPDEST PUSH2 0x25F6 DUP2 PUSH2 0x346D JUMP JUMPDEST DUP3 MSTORE POP POP JUMP JUMPDEST PUSH1 0x0 PUSH2 0x2607 DUP3 PUSH2 0x3406 JUMP JUMPDEST PUSH2 0x2611 DUP2 DUP6 PUSH2 0x3429 JUMP JUMPDEST SWAP4 POP PUSH2 0x261C DUP4 PUSH2 0x33F6 JUMP JUMPDEST DUP1 PUSH1 0x0 JUMPDEST DUP4 DUP2 LT ISZERO PUSH2 0x264D JUMPI DUP2 MLOAD PUSH2 0x2634 DUP9 DUP3 PUSH2 0x25C6 JUMP JUMPDEST SWAP8 POP PUSH2 0x263F DUP4 PUSH2 0x341C JUMP JUMPDEST SWAP3 POP POP PUSH1 0x1 DUP2 ADD SWAP1 POP PUSH2 0x2620 JUMP JUMPDEST POP DUP6 SWAP4 POP POP POP POP SWAP3 SWAP2 POP POP JUMP JUMPDEST PUSH1 0x0 PUSH2 0x2665 DUP3 PUSH2 0x3406 JUMP JUMPDEST PUSH2 0x266F DUP2 DUP6 PUSH2 0x343A JUMP JUMPDEST SWAP4 POP PUSH2 0x267A DUP4 PUSH2 0x33F6 JUMP JUMPDEST DUP1 PUSH1 0x0 JUMPDEST DUP4 DUP2 LT ISZERO PUSH2 0x26AB JUMPI DUP2 MLOAD PUSH2 0x2692 DUP9 DUP3 PUSH2 0x25C6 JUMP JUMPDEST SWAP8 POP PUSH2 0x269D DUP4 PUSH2 0x341C JUMP JUMPDEST SWAP3 POP POP PUSH1 0x1 DUP2 ADD SWAP1 POP PUSH2 0x267E JUMP JUMPDEST POP DUP6 SWAP4 POP POP POP POP SWAP3 SWAP2 POP POP JUMP JUMPDEST PUSH2 0x26C1 DUP2 PUSH2 0x347F JUMP JUMPDEST DUP3 MSTORE POP POP JUMP JUMPDEST PUSH2 0x26D0 DUP2 PUSH2 0x348B JUMP JUMPDEST DUP3 MSTORE POP POP JUMP JUMPDEST PUSH2 0x26DF DUP2 PUSH2 0x3495 JUMP JUMPDEST DUP3 MSTORE POP POP JUMP JUMPDEST PUSH1 0x0 PUSH2 0x26F0 DUP3 PUSH2 0x3411 JUMP JUMPDEST PUSH2 0x26FA DUP2 DUP6 PUSH2 0x344B JUMP JUMPDEST SWAP4 POP PUSH2 0x270A DUP2 DUP6 PUSH1 0x20 DUP7 ADD PUSH2 0x3519 JUMP JUMPDEST PUSH2 0x2713 DUP2 PUSH2 0x354C JUMP JUMPDEST DUP5 ADD SWAP2 POP POP SWAP3 SWAP2 POP POP JUMP JUMPDEST PUSH2 0x2727 DUP2 PUSH2 0x34F8 JUMP JUMPDEST DUP3 MSTORE POP POP JUMP JUMPDEST PUSH1 0x0 PUSH2 0x273A PUSH1 0x21 DUP4 PUSH2 0x345C JUMP JUMPDEST SWAP2 POP PUSH32 0x234E465450726F7879237665726966793A205452414E534645525F4558504952 PUSH1 0x0 DUP4 ADD MSTORE PUSH32 0x5900000000000000000000000000000000000000000000000000000000000000 PUSH1 0x20 DUP4 ADD MSTORE PUSH1 0x40 DUP3 ADD SWAP1 POP SWAP2 SWAP1 POP JUMP JUMPDEST PUSH1 0x0 PUSH2 0x27A0 PUSH1 0x25 DUP4 PUSH2 0x345C JUMP JUMPDEST SWAP2 POP PUSH32 0x234E465450726F787923766572696669636174696F6E3A204241445F5349474E PUSH1 0x0 DUP4 ADD MSTORE PUSH32 0x4154555245000000000000000000000000000000000000000000000000000000 PUSH1 0x20 DUP4 ADD MSTORE PUSH1 0x40 DUP3 ADD SWAP1 POP SWAP2 SWAP1 POP JUMP JUMPDEST PUSH1 0x0 PUSH2 0x2806 PUSH1 0x27 DUP4 PUSH2 0x345C JUMP JUMPDEST SWAP2 POP PUSH32 0x234552433131353550726F7879235F7472616E736665723A20494E56414C4944 PUSH1 0x0 DUP4 ADD MSTORE PUSH32 0x5F414D4F554E5400000000000000000000000000000000000000000000000000 PUSH1 0x20 DUP4 ADD MSTORE PUSH1 0x40 DUP3 ADD SWAP1 POP SWAP2 SWAP1 POP JUMP JUMPDEST PUSH1 0x0 PUSH2 0x286C PUSH1 0x26 DUP4 PUSH2 0x345C JUMP JUMPDEST SWAP2 POP PUSH32 0x4F776E61626C653A206E6577206F776E657220697320746865207A65726F2061 PUSH1 0x0 DUP4 ADD MSTORE PUSH32 0x6464726573730000000000000000000000000000000000000000000000000000 PUSH1 0x20 DUP4 ADD MSTORE PUSH1 0x40 DUP3 ADD SWAP1 POP SWAP2 SWAP1 POP JUMP JUMPDEST PUSH1 0x0 PUSH2 0x28D2 PUSH1 0x27 DUP4 PUSH2 0x345C JUMP JUMPDEST SWAP2 POP PUSH32 0x234552433131353550726F7879235F77697468647261773A20494E56414C4944 PUSH1 0x0 DUP4 ADD MSTORE PUSH32 0x5F414D4F554E5400000000000000000000000000000000000000000000000000 PUSH1 0x20 DUP4 ADD MSTORE PUSH1 0x40 DUP3 ADD SWAP1 POP SWAP2 SWAP1 POP JUMP JUMPDEST PUSH1 0x0 PUSH2 0x2938 PUSH1 0x25 DUP4 PUSH2 0x345C JUMP JUMPDEST SWAP2 POP PUSH32 0x234E465450726F7879237665726966793A204241445F5253565F4C4953545F4C PUSH1 0x0 DUP4 ADD MSTORE PUSH32 0x454E475448000000000000000000000000000000000000000000000000000000 PUSH1 0x20 DUP4 ADD MSTORE PUSH1 0x40 DUP3 ADD SWAP1 POP SWAP2 SWAP1 POP JUMP JUMPDEST PUSH1 0x0 PUSH2 0x299E PUSH1 0x2E DUP4 PUSH2 0x345C JUMP JUMPDEST SWAP2 POP PUSH32 0x234552433131353550726F7879235F7472616E736665723A20494E5355464649 PUSH1 0x0 DUP4 ADD MSTORE PUSH32 0x4349454E545F42414C414E434553000000000000000000000000000000000000 PUSH1 0x20 DUP4 ADD MSTORE PUSH1 0x40 DUP3 ADD SWAP1 POP SWAP2 SWAP1 POP JUMP JUMPDEST PUSH1 0x0 PUSH2 0x2A04 PUSH1 0x20 DUP4 PUSH2 0x345C JUMP JUMPDEST SWAP2 POP PUSH32 0x234E465450726F7879237665726966793A204F574E45525F4E4F5F4D41544348 PUSH1 0x0 DUP4 ADD MSTORE PUSH1 0x20 DUP3 ADD SWAP1 POP SWAP2 SWAP1 POP JUMP JUMPDEST PUSH1 0x0 PUSH2 0x2A44 PUSH1 0x35 DUP4 PUSH2 0x345C JUMP JUMPDEST SWAP2 POP PUSH32 0x234E465450726F787923636865636B41646472657373456D7074793A20414444 PUSH1 0x0 DUP4 ADD MSTORE PUSH32 0x524553535F4C4953545F4C454E4754485F5A45524F0000000000000000000000 PUSH1 0x20 DUP4 ADD MSTORE PUSH1 0x40 DUP3 ADD SWAP1 POP SWAP2 SWAP1 POP JUMP JUMPDEST PUSH1 0x0 PUSH2 0x2AAA PUSH1 0x36 DUP4 PUSH2 0x345C JUMP JUMPDEST SWAP2 POP PUSH32 0x546865204E465420636F6E74726163742068617320616E20696E76616C696420 PUSH1 0x0 DUP4 ADD MSTORE PUSH32 0x4552433131353520696D706C656D656E746174696F6E00000000000000000000 PUSH1 0x20 DUP4 ADD MSTORE PUSH1 0x40 DUP3 ADD SWAP1 POP SWAP2 SWAP1 POP JUMP JUMPDEST PUSH1 0x0 PUSH2 0x2B10 PUSH1 0x1E DUP4 PUSH2 0x345C JUMP JUMPDEST SWAP2 POP PUSH32 0x234E465450726F7879237665726966793A20414444524553535F5A45524F0000 PUSH1 0x0 DUP4 ADD MSTORE PUSH1 0x20 DUP3 ADD SWAP1 POP SWAP2 SWAP1 POP JUMP JUMPDEST PUSH1 0x0 PUSH2 0x2B50 PUSH1 0x20 DUP4 PUSH2 0x345C JUMP JUMPDEST SWAP2 POP PUSH32 0x4F776E61626C653A2063616C6C6572206973206E6F7420746865206F776E6572 PUSH1 0x0 DUP4 ADD MSTORE PUSH1 0x20 DUP3 ADD SWAP1 POP SWAP2 SWAP1 POP JUMP JUMPDEST PUSH1 0x0 PUSH2 0x2B90 PUSH1 0x28 DUP4 PUSH2 0x345C JUMP JUMPDEST SWAP2 POP PUSH32 0x234E465450726F7879237472616E736665723A204E4F5F5452414E534645525F PUSH1 0x0 DUP4 ADD MSTORE PUSH32 0x5349474E5F455252000000000000000000000000000000000000000000000000 PUSH1 0x20 DUP4 ADD MSTORE PUSH1 0x40 DUP3 ADD SWAP1 POP SWAP2 SWAP1 POP JUMP JUMPDEST PUSH1 0x0 PUSH2 0x2BF6 PUSH1 0x30 DUP4 PUSH2 0x345C JUMP JUMPDEST SWAP2 POP PUSH32 0x234552433131353550726F7879235F6F6E455243313135355265636569766564 PUSH1 0x0 DUP4 ADD MSTORE PUSH32 0x3A20494E56414C49445F414D4F554E5400000000000000000000000000000000 PUSH1 0x20 DUP4 ADD MSTORE PUSH1 0x40 DUP3 ADD SWAP1 POP SWAP2 SWAP1 POP JUMP JUMPDEST PUSH1 0x0 PUSH2 0x2C5C PUSH1 0x2E DUP4 PUSH2 0x345C JUMP JUMPDEST SWAP2 POP PUSH32 0x234552433131353550726F7879235F77697468647261773A20494E5355464649 PUSH1 0x0 DUP4 ADD MSTORE PUSH32 0x4349454E545F42414C414E434553000000000000000000000000000000000000 PUSH1 0x20 DUP4 ADD MSTORE PUSH1 0x40 DUP3 ADD SWAP1 POP SWAP2 SWAP1 POP JUMP JUMPDEST PUSH1 0x0 PUSH2 0x2CC2 PUSH1 0x32 DUP4 PUSH2 0x345C JUMP JUMPDEST SWAP2 POP PUSH32 0x234552433131353550726F7879235F6973455243313135353A20494E564C4941 PUSH1 0x0 DUP4 ADD MSTORE PUSH32 0x445F434F4E54524143545F414444524553530000000000000000000000000000 PUSH1 0x20 DUP4 ADD MSTORE PUSH1 0x40 DUP3 ADD SWAP1 POP SWAP2 SWAP1 POP JUMP JUMPDEST PUSH1 0x0 PUSH2 0x2D28 PUSH1 0x27 DUP4 PUSH2 0x345C JUMP JUMPDEST SWAP2 POP PUSH32 0x234E465450726F7879237665726966793A205349474E5F434F554E545F544F4F PUSH1 0x0 DUP4 ADD MSTORE PUSH32 0x5F4C4954544C4500000000000000000000000000000000000000000000000000 PUSH1 0x20 DUP4 ADD MSTORE PUSH1 0x40 DUP3 ADD SWAP1 POP SWAP2 SWAP1 POP JUMP JUMPDEST PUSH1 0x0 PUSH2 0x2D8E PUSH1 0x25 DUP4 PUSH2 0x345C JUMP JUMPDEST SWAP2 POP PUSH32 0x234E465450726F787923636865636B4F776E6572733A204241445F5349474E5F PUSH1 0x0 DUP4 ADD MSTORE PUSH32 0x434F554E54000000000000000000000000000000000000000000000000000000 PUSH1 0x20 DUP4 ADD MSTORE PUSH1 0x40 DUP3 ADD SWAP1 POP SWAP2 SWAP1 POP JUMP JUMPDEST PUSH1 0x0 PUSH1 0x60 DUP4 ADD PUSH1 0x0 DUP4 ADD MLOAD PUSH2 0x2DFF PUSH1 0x0 DUP7 ADD DUP3 PUSH2 0x2E37 JUMP JUMPDEST POP PUSH1 0x20 DUP4 ADD MLOAD PUSH2 0x2E12 PUSH1 0x20 DUP7 ADD DUP3 PUSH2 0x2E37 JUMP JUMPDEST POP PUSH1 0x40 DUP4 ADD MLOAD DUP5 DUP3 SUB PUSH1 0x40 DUP7 ADD MSTORE PUSH2 0x2E2A DUP3 DUP3 PUSH2 0x25FC JUMP JUMPDEST SWAP2 POP POP DUP1 SWAP2 POP POP SWAP3 SWAP2 POP POP JUMP JUMPDEST PUSH2 0x2E40 DUP2 PUSH2 0x34E1 JUMP JUMPDEST DUP3 MSTORE POP POP JUMP JUMPDEST PUSH2 0x2E4F DUP2 PUSH2 0x34E1 JUMP JUMPDEST DUP3 MSTORE POP POP JUMP JUMPDEST PUSH2 0x2E5E DUP2 PUSH2 0x34EB JUMP JUMPDEST DUP3 MSTORE POP POP JUMP JUMPDEST PUSH1 0x0 PUSH1 0x20 DUP3 ADD SWAP1 POP PUSH2 0x2E79 PUSH1 0x0 DUP4 ADD DUP5 PUSH2 0x25ED JUMP JUMPDEST SWAP3 SWAP2 POP POP JUMP JUMPDEST PUSH1 0x0 PUSH1 0xA0 DUP3 ADD SWAP1 POP PUSH2 0x2E94 PUSH1 0x0 DUP4 ADD DUP9 PUSH2 0x25ED JUMP JUMPDEST PUSH2 0x2EA1 PUSH1 0x20 DUP4 ADD DUP8 PUSH2 0x25ED JUMP JUMPDEST PUSH2 0x2EAE PUSH1 0x40 DUP4 ADD DUP7 PUSH2 0x2E46 JUMP JUMPDEST PUSH2 0x2EBB PUSH1 0x60 DUP4 ADD DUP6 PUSH2 0x2E46 JUMP JUMPDEST DUP2 DUP2 SUB PUSH1 0x80 DUP4 ADD MSTORE PUSH2 0x2ECD DUP2 DUP5 PUSH2 0x26E5 JUMP JUMPDEST SWAP1 POP SWAP7 SWAP6 POP POP POP POP POP POP JUMP JUMPDEST PUSH1 0x0 PUSH1 0x60 DUP3 ADD SWAP1 POP PUSH2 0x2EEE PUSH1 0x0 DUP4 ADD DUP7 PUSH2 0x25ED JUMP JUMPDEST PUSH2 0x2EFB PUSH1 0x20 DUP4 ADD DUP6 PUSH2 0x271E JUMP JUMPDEST PUSH2 0x2F08 PUSH1 0x40 DUP4 ADD DUP5 PUSH2 0x2E46 JUMP JUMPDEST SWAP5 SWAP4 POP POP POP POP JUMP JUMPDEST PUSH1 0x0 PUSH1 0x40 DUP3 ADD SWAP1 POP PUSH2 0x2F25 PUSH1 0x0 DUP4 ADD DUP6 PUSH2 0x25ED JUMP JUMPDEST PUSH2 0x2F32 PUSH1 0x20 DUP4 ADD DUP5 PUSH2 0x2E46 JUMP JUMPDEST SWAP4 SWAP3 POP POP POP JUMP JUMPDEST PUSH1 0x0 PUSH2 0x100 DUP3 ADD SWAP1 POP PUSH2 0x2F4F PUSH1 0x0 DUP4 ADD DUP12 PUSH2 0x25ED JUMP JUMPDEST PUSH2 0x2F5C PUSH1 0x20 DUP4 ADD DUP11 PUSH2 0x2E46 JUMP JUMPDEST PUSH2 0x2F69 PUSH1 0x40 DUP4 ADD DUP10 PUSH2 0x25ED JUMP JUMPDEST DUP2 DUP2 SUB PUSH1 0x60 DUP4 ADD MSTORE PUSH2 0x2F7B DUP2 DUP9 PUSH2 0x265A JUMP JUMPDEST SWAP1 POP PUSH2 0x2F8A PUSH1 0x80 DUP4 ADD DUP8 PUSH2 0x2E46 JUMP JUMPDEST DUP2 DUP2 SUB PUSH1 0xA0 DUP4 ADD MSTORE PUSH2 0x2F9C DUP2 DUP7 PUSH2 0x26E5 JUMP JUMPDEST SWAP1 POP PUSH2 0x2FAB PUSH1 0xC0 DUP4 ADD DUP6 PUSH2 0x2E46 JUMP JUMPDEST PUSH2 0x2FB8 PUSH1 0xE0 DUP4 ADD DUP5 PUSH2 0x2E46 JUMP JUMPDEST SWAP10 SWAP9 POP POP POP POP POP POP POP POP POP JUMP JUMPDEST PUSH1 0x0 PUSH1 0x60 DUP3 ADD SWAP1 POP PUSH2 0x2FDA PUSH1 0x0 DUP4 ADD DUP7 PUSH2 0x25ED JUMP JUMPDEST PUSH2 0x2FE7 PUSH1 0x20 DUP4 ADD DUP6 PUSH2 0x2E46 JUMP JUMPDEST PUSH2 0x2FF4 PUSH1 0x40 DUP4 ADD DUP5 PUSH2 0x271E JUMP JUMPDEST SWAP5 SWAP4 POP POP POP POP JUMP JUMPDEST PUSH1 0x0 PUSH1 0x60 DUP3 ADD SWAP1 POP PUSH2 0x3011 PUSH1 0x0 DUP4 ADD DUP7 PUSH2 0x25ED JUMP JUMPDEST PUSH2 0x301E PUSH1 0x20 DUP4 ADD DUP6 PUSH2 0x2E46 JUMP JUMPDEST PUSH2 0x302B PUSH1 0x40 DUP4 ADD DUP5 PUSH2 0x2E46 JUMP JUMPDEST SWAP5 SWAP4 POP POP POP POP JUMP JUMPDEST PUSH1 0x0 PUSH1 0x20 DUP3 ADD SWAP1 POP PUSH2 0x3048 PUSH1 0x0 DUP4 ADD DUP5 PUSH2 0x26B8 JUMP JUMPDEST SWAP3 SWAP2 POP POP JUMP JUMPDEST PUSH1 0x0 PUSH1 0x80 DUP3 ADD SWAP1 POP PUSH2 0x3063 PUSH1 0x0 DUP4 ADD DUP8 PUSH2 0x26C7 JUMP JUMPDEST PUSH2 0x3070 PUSH1 0x20 DUP4 ADD DUP7 PUSH2 0x2E55 JUMP JUMPDEST PUSH2 0x307D PUSH1 0x40 DUP4 ADD DUP6 PUSH2 0x26C7 JUMP JUMPDEST PUSH2 0x308A PUSH1 0x60 DUP4 ADD DUP5 PUSH2 0x26C7 JUMP JUMPDEST SWAP6 SWAP5 POP POP POP POP POP JUMP JUMPDEST PUSH1 0x0 PUSH1 0x20 DUP3 ADD SWAP1 POP PUSH2 0x30A8 PUSH1 0x0 DUP4 ADD DUP5 PUSH2 0x26D6 JUMP JUMPDEST SWAP3 SWAP2 POP POP JUMP JUMPDEST PUSH1 0x0 PUSH1 0x20 DUP3 ADD SWAP1 POP DUP2 DUP2 SUB PUSH1 0x0 DUP4 ADD MSTORE PUSH2 0x30C8 DUP2 DUP5 PUSH2 0x26E5 JUMP JUMPDEST SWAP1 POP SWAP3 SWAP2 POP POP JUMP JUMPDEST PUSH1 0x0 PUSH1 0x20 DUP3 ADD SWAP1 POP DUP2 DUP2 SUB PUSH1 0x0 DUP4 ADD MSTORE PUSH2 0x30E9 DUP2 PUSH2 0x272D JUMP JUMPDEST SWAP1 POP SWAP2 SWAP1 POP JUMP JUMPDEST PUSH1 0x0 PUSH1 0x20 DUP3 ADD SWAP1 POP DUP2 DUP2 SUB PUSH1 0x0 DUP4 ADD MSTORE PUSH2 0x3109 DUP2 PUSH2 0x2793 JUMP JUMPDEST SWAP1 POP SWAP2 SWAP1 POP JUMP JUMPDEST PUSH1 0x0 PUSH1 0x20 DUP3 ADD SWAP1 POP DUP2 DUP2 SUB PUSH1 0x0 DUP4 ADD MSTORE PUSH2 0x3129 DUP2 PUSH2 0x27F9 JUMP JUMPDEST SWAP1 POP SWAP2 SWAP1 POP JUMP JUMPDEST PUSH1 0x0 PUSH1 0x20 DUP3 ADD SWAP1 POP DUP2 DUP2 SUB PUSH1 0x0 DUP4 ADD MSTORE PUSH2 0x3149 DUP2 PUSH2 0x285F JUMP JUMPDEST SWAP1 POP SWAP2 SWAP1 POP JUMP JUMPDEST PUSH1 0x0 PUSH1 0x20 DUP3 ADD SWAP1 POP DUP2 DUP2 SUB PUSH1 0x0 DUP4 ADD MSTORE PUSH2 0x3169 DUP2 PUSH2 0x28C5 JUMP JUMPDEST SWAP1 POP SWAP2 SWAP1 POP JUMP JUMPDEST PUSH1 0x0 PUSH1 0x20 DUP3 ADD SWAP1 POP DUP2 DUP2 SUB PUSH1 0x0 DUP4 ADD MSTORE PUSH2 0x3189 DUP2 PUSH2 0x292B JUMP JUMPDEST SWAP1 POP SWAP2 SWAP1 POP JUMP JUMPDEST PUSH1 0x0 PUSH1 0x20 DUP3 ADD SWAP1 POP DUP2 DUP2 SUB PUSH1 0x0 DUP4 ADD MSTORE PUSH2 0x31A9 DUP2 PUSH2 0x2991 JUMP JUMPDEST SWAP1 POP SWAP2 SWAP1 POP JUMP JUMPDEST PUSH1 0x0 PUSH1 0x20 DUP3 ADD SWAP1 POP DUP2 DUP2 SUB PUSH1 0x0 DUP4 ADD MSTORE PUSH2 0x31C9 DUP2 PUSH2 0x29F7 JUMP JUMPDEST SWAP1 POP SWAP2 SWAP1 POP JUMP JUMPDEST PUSH1 0x0 PUSH1 0x20 DUP3 ADD SWAP1 POP DUP2 DUP2 SUB PUSH1 0x0 DUP4 ADD MSTORE PUSH2 0x31E9 DUP2 PUSH2 0x2A37 JUMP JUMPDEST SWAP1 POP SWAP2 SWAP1 POP JUMP JUMPDEST PUSH1 0x0 PUSH1 0x20 DUP3 ADD SWAP1 POP DUP2 DUP2 SUB PUSH1 0x0 DUP4 ADD MSTORE PUSH2 0x3209 DUP2 PUSH2 0x2A9D JUMP JUMPDEST SWAP1 POP SWAP2 SWAP1 POP JUMP JUMPDEST PUSH1 0x0 PUSH1 0x20 DUP3 ADD SWAP1 POP DUP2 DUP2 SUB PUSH1 0x0 DUP4 ADD MSTORE PUSH2 0x3229 DUP2 PUSH2 0x2B03 JUMP JUMPDEST SWAP1 POP SWAP2 SWAP1 POP JUMP JUMPDEST PUSH1 0x0 PUSH1 0x20 DUP3 ADD SWAP1 POP DUP2 DUP2 SUB PUSH1 0x0 DUP4 ADD MSTORE PUSH2 0x3249 DUP2 PUSH2 0x2B43 JUMP JUMPDEST SWAP1 POP SWAP2 SWAP1 POP JUMP JUMPDEST PUSH1 0x0 PUSH1 0x20 DUP3 ADD SWAP1 POP DUP2 DUP2 SUB PUSH1 0x0 DUP4 ADD MSTORE PUSH2 0x3269 DUP2 PUSH2 0x2B83 JUMP JUMPDEST SWAP1 POP SWAP2 SWAP1 POP JUMP JUMPDEST PUSH1 0x0 PUSH1 0x20 DUP3 ADD SWAP1 POP DUP2 DUP2 SUB PUSH1 0x0 DUP4 ADD MSTORE PUSH2 0x3289 DUP2 PUSH2 0x2BE9 JUMP JUMPDEST SWAP1 POP SWAP2 SWAP1 POP JUMP JUMPDEST PUSH1 0x0 PUSH1 0x20 DUP3 ADD SWAP1 POP DUP2 DUP2 SUB PUSH1 0x0 DUP4 ADD MSTORE PUSH2 0x32A9 DUP2 PUSH2 0x2C4F JUMP JUMPDEST SWAP1 POP SWAP2 SWAP1 POP JUMP JUMPDEST PUSH1 0x0 PUSH1 0x20 DUP3 ADD SWAP1 POP DUP2 DUP2 SUB PUSH1 0x0 DUP4 ADD MSTORE PUSH2 0x32C9 DUP2 PUSH2 0x2CB5 JUMP JUMPDEST SWAP1 POP SWAP2 SWAP1 POP JUMP JUMPDEST PUSH1 0x0 PUSH1 0x20 DUP3 ADD SWAP1 POP DUP2 DUP2 SUB PUSH1 0x0 DUP4 ADD MSTORE PUSH2 0x32E9 DUP2 PUSH2 0x2D1B JUMP JUMPDEST SWAP1 POP SWAP2 SWAP1 POP JUMP JUMPDEST PUSH1 0x0 PUSH1 0x20 DUP3 ADD SWAP1 POP DUP2 DUP2 SUB PUSH1 0x0 DUP4 ADD MSTORE PUSH2 0x3309 DUP2 PUSH2 0x2D81 JUMP JUMPDEST SWAP1 POP SWAP2 SWAP1 POP JUMP JUMPDEST PUSH1 0x0 PUSH1 0x20 DUP3 ADD SWAP1 POP DUP2 DUP2 SUB PUSH1 0x0 DUP4 ADD MSTORE PUSH2 0x332A DUP2 DUP5 PUSH2 0x2DE7 JUMP JUMPDEST SWAP1 POP SWAP3 SWAP2 POP POP JUMP JUMPDEST PUSH1 0x0 PUSH1 0x20 DUP3 ADD SWAP1 POP PUSH2 0x3347 PUSH1 0x0 DUP4 ADD DUP5 PUSH2 0x2E46 JUMP JUMPDEST SWAP3 SWAP2 POP POP JUMP JUMPDEST PUSH1 0x0 PUSH1 0x40 MLOAD SWAP1 POP DUP2 DUP2 ADD DUP2 DUP2 LT PUSH8 0xFFFFFFFFFFFFFFFF DUP3 GT OR ISZERO PUSH2 0x3370 JUMPI PUSH1 0x0 DUP1 REVERT JUMPDEST DUP1 PUSH1 0x40 MSTORE POP SWAP2 SWAP1 POP JUMP JUMPDEST PUSH1 0x0 PUSH8 0xFFFFFFFFFFFFFFFF DUP3 GT ISZERO PUSH2 0x3391 JUMPI PUSH1 0x0 DUP1 REVERT JUMPDEST PUSH1 0x20 DUP3 MUL SWAP1 POP PUSH1 0x20 DUP2 ADD SWAP1 POP SWAP2 SWAP1 POP JUMP JUMPDEST PUSH1 0x0 PUSH8 0xFFFFFFFFFFFFFFFF DUP3 GT ISZERO PUSH2 0x33B9 JUMPI PUSH1 0x0 DUP1 REVERT JUMPDEST PUSH1 0x20 DUP3 MUL SWAP1 POP PUSH1 0x20 DUP2 ADD SWAP1 POP SWAP2 SWAP1 POP JUMP JUMPDEST PUSH1 0x0 PUSH8 0xFFFFFFFFFFFFFFFF DUP3 GT ISZERO PUSH2 0x33E1 JUMPI PUSH1 0x0 DUP1 REVERT JUMPDEST PUSH1 0x1F NOT PUSH1 0x1F DUP4 ADD AND SWAP1 POP PUSH1 0x20 DUP2 ADD SWAP1 POP SWAP2 SWAP1 POP JUMP JUMPDEST PUSH1 0x0 DUP2 SWAP1 POP PUSH1 0x20 DUP3 ADD SWAP1 POP SWAP2 SWAP1 POP JUMP JUMPDEST PUSH1 0x0 DUP2 MLOAD SWAP1 POP SWAP2 SWAP1 POP JUMP JUMPDEST PUSH1 0x0 DUP2 MLOAD SWAP1 POP SWAP2 SWAP1 POP JUMP JUMPDEST PUSH1 0x0 PUSH1 0x20 DUP3 ADD SWAP1 POP SWAP2 SWAP1 POP JUMP JUMPDEST PUSH1 0x0 DUP3 DUP3 MSTORE PUSH1 0x20 DUP3 ADD SWAP1 POP SWAP3 SWAP2 POP POP JUMP JUMPDEST PUSH1 0x0 DUP3 DUP3 MSTORE PUSH1 0x20 DUP3 ADD SWAP1 POP SWAP3 SWAP2 POP POP JUMP JUMPDEST PUSH1 0x0 DUP3 DUP3 MSTORE PUSH1 0x20 DUP3 ADD SWAP1 POP SWAP3 SWAP2 POP POP JUMP JUMPDEST PUSH1 0x0 DUP3 DUP3 MSTORE PUSH1 0x20 DUP3 ADD SWAP1 POP SWAP3 SWAP2 POP POP JUMP JUMPDEST PUSH1 0x0 PUSH2 0x3478 DUP3 PUSH2 0x34C1 JUMP JUMPDEST SWAP1 POP SWAP2 SWAP1 POP JUMP JUMPDEST PUSH1 0x0 DUP2 ISZERO ISZERO SWAP1 POP SWAP2 SWAP1 POP JUMP JUMPDEST PUSH1 0x0 DUP2 SWAP1 POP SWAP2 SWAP1 POP JUMP JUMPDEST PUSH1 0x0 PUSH32 0xFFFFFFFF00000000000000000000000000000000000000000000000000000000 DUP3 AND SWAP1 POP SWAP2 SWAP1 POP JUMP JUMPDEST PUSH1 0x0 PUSH20 0xFFFFFFFFFFFFFFFFFFFFFFFFFFFFFFFFFFFFFFFF DUP3 AND SWAP1 POP SWAP2 SWAP1 POP JUMP JUMPDEST PUSH1 0x0 DUP2 SWAP1 POP SWAP2 SWAP1 POP JUMP JUMPDEST PUSH1 0x0 PUSH1 0xFF DUP3 AND SWAP1 POP SWAP2 SWAP1 POP JUMP JUMPDEST PUSH1 0x0 PUSH2 0x3503 DUP3 PUSH2 0x34E1 JUMP JUMPDEST SWAP1 POP SWAP2 SWAP1 POP JUMP JUMPDEST DUP3 DUP2 DUP4 CALLDATACOPY PUSH1 0x0 DUP4 DUP4 ADD MSTORE POP POP POP JUMP JUMPDEST PUSH1 0x0 JUMPDEST DUP4 DUP2 LT ISZERO PUSH2 0x3537 JUMPI DUP1 DUP3 ADD MLOAD DUP2 DUP5 ADD MSTORE PUSH1 0x20 DUP2 ADD SWAP1 POP PUSH2 0x351C JUMP JUMPDEST DUP4 DUP2 GT ISZERO PUSH2 0x3546 JUMPI PUSH1 0x0 DUP5 DUP5 ADD MSTORE JUMPDEST POP POP POP POP JUMP JUMPDEST PUSH1 0x0 PUSH1 0x1F NOT PUSH1 0x1F DUP4 ADD AND SWAP1 POP SWAP2 SWAP1 POP JUMP JUMPDEST PUSH2 0x3566 DUP2 PUSH2 0x346D JUMP JUMPDEST DUP2 EQ PUSH2 0x3571 JUMPI PUSH1 0x0 DUP1 REVERT JUMPDEST POP JUMP JUMPDEST PUSH2 0x357D DUP2 PUSH2 0x347F JUMP JUMPDEST DUP2 EQ PUSH2 0x3588 JUMPI PUSH1 0x0 DUP1 REVERT JUMPDEST POP JUMP JUMPDEST PUSH2 0x3594 DUP2 PUSH2 0x348B JUMP JUMPDEST DUP2 EQ PUSH2 0x359F JUMPI PUSH1 0x0 DUP1 REVERT JUMPDEST POP JUMP JUMPDEST PUSH2 0x35AB DUP2 PUSH2 0x3495 JUMP JUMPDEST DUP2 EQ PUSH2 0x35B6 JUMPI PUSH1 0x0 DUP1 REVERT JUMPDEST POP JUMP JUMPDEST PUSH2 0x35C2 DUP2 PUSH2 0x34E1 JUMP JUMPDEST DUP2 EQ PUSH2 0x35CD JUMPI PUSH1 0x0 DUP1 REVERT JUMPDEST POP JUMP JUMPDEST PUSH2 0x35D9 DUP2 PUSH2 0x34EB JUMP JUMPDEST DUP2 EQ PUSH2 0x35E4 JUMPI PUSH1 0x0 DUP1 REVERT JUMPDEST POP JUMP INVALID LOG2 PUSH5 0x6970667358 0x22 SLT KECCAK256 MUL PUSH3 0xEE0887 CALLVALUE PUSH31 0xDB691B9E471760AD74117EC829D8871B5C473B207FA84F049464736F6C6343 STOP MOD 0xC STOP CALLER "
		},
		"gasEstimates": {
			"creation": {
				"codeDepositCost": "2770600",
				"executionCost": "infinite",
				"totalCost": "infinite"
			},
			"external": {
				"balanceOf(address,uint256,address)": "infinite",
				"encodePacked((address,uint256,address,address[],uint256,bytes,uint256,uint256,address[],(bytes32,bytes32,uint8)[]))": "infinite",
				"onERC1155BatchReceived(address,address,uint256[],uint256[],bytes)": "infinite",
				"onERC1155Received(address,address,uint256,uint256,bytes)": "infinite",
				"owner()": "1289",
				"ownersOf(address,uint256,address)": "infinite",
				"renounceOwnership()": "24314",
				"supportsInterface(bytes4)": "1570",
				"transfer(address[],address,uint256,uint256,uint256)": "infinite",
				"transferFrom((address,uint256,address,address[],uint256,bytes,uint256,uint256,address[],(bytes32,bytes32,uint8)[]))": "infinite",
				"transferOwnership(address)": "24728",
				"verify((address,uint256,address,address[],uint256,bytes,uint256,uint256,address[],(bytes32,bytes32,uint8)[]))": "infinite",
				"withdraw(address,address,uint256,uint256,bytes)": "infinite",
				"withdrawFrom((address,uint256,address,address[],uint256,bytes,uint256,uint256,address[],(bytes32,bytes32,uint8)[]))": "infinite"
			},
			"internal": {
				"_isERC1155(address)": "infinite",
				"_onERC1155Received(contract IERC1155,address,address[] memory,uint256,uint256,uint256)": "infinite",
				"_transfer(address,struct NFTProxy.Owners memory,address,uint256,uint256)": "infinite",
				"_withdraw(address,address,address,uint256,uint256,bytes memory)": "infinite"
			}
		},
		"methodIdentifiers": {
			"balanceOf(address,uint256,address)": "467f4cb9",
			"encodePacked((address,uint256,address,address[],uint256,bytes,uint256,uint256,address[],(bytes32,bytes32,uint8)[]))": "0525bdcf",
			"onERC1155BatchReceived(address,address,uint256[],uint256[],bytes)": "bc197c81",
			"onERC1155Received(address,address,uint256,uint256,bytes)": "f23a6e61",
			"owner()": "8da5cb5b",
			"ownersOf(address,uint256,address)": "7c4d7f44",
			"renounceOwnership()": "715018a6",
			"supportsInterface(bytes4)": "01ffc9a7",
			"transfer(address[],address,uint256,uint256,uint256)": "2a6c7d0c",
			"transferFrom((address,uint256,address,address[],uint256,bytes,uint256,uint256,address[],(bytes32,bytes32,uint8)[]))": "2a3b3836",
			"transferOwnership(address)": "f2fde38b",
			"verify((address,uint256,address,address[],uint256,bytes,uint256,uint256,address[],(bytes32,bytes32,uint8)[]))": "a24d22fe",
			"withdraw(address,address,uint256,uint256,bytes)": "074540da",
			"withdrawFrom((address,uint256,address,address[],uint256,bytes,uint256,uint256,address[],(bytes32,bytes32,uint8)[]))": "3291bf99"
		}
	},
	"abi": [
		{
			"inputs": [],
			"stateMutability": "nonpayable",
			"type": "constructor"
		},
		{
			"anonymous": false,
			"inputs": [
				{
					"indexed": true,
					"internalType": "address",
					"name": "previousOwner",
					"type": "address"
				},
				{
					"indexed": true,
					"internalType": "address",
					"name": "newOwner",
					"type": "address"
				}
			],
			"name": "OwnershipTransferred",
			"type": "event"
		},
		{
			"anonymous": false,
			"inputs": [
				{
					"indexed": true,
					"internalType": "address",
					"name": "from",
					"type": "address"
				},
				{
					"indexed": true,
					"internalType": "address",
					"name": "to",
					"type": "address"
				},
				{
					"indexed": false,
					"internalType": "address",
					"name": "token",
					"type": "address"
				},
				{
					"indexed": true,
					"internalType": "uint256",
					"name": "tokenId",
					"type": "uint256"
				},
				{
					"indexed": false,
					"internalType": "uint256",
					"name": "fromBalance",
					"type": "uint256"
				},
				{
					"indexed": false,
					"internalType": "uint256",
					"name": "toBalance",
					"type": "uint256"
				}
			],
			"name": "Transfer",
			"type": "event"
		},
		{
			"inputs": [
				{
					"internalType": "address",
					"name": "token",
					"type": "address"
				},
				{
					"internalType": "uint256",
					"name": "tokenId",
					"type": "uint256"
				},
				{
					"internalType": "address",
					"name": "owner",
					"type": "address"
				}
			],
			"name": "balanceOf",
			"outputs": [
				{
					"internalType": "uint256",
					"name": "",
					"type": "uint256"
				}
			],
			"stateMutability": "view",
			"type": "function"
		},
		{
			"inputs": [
				{
					"components": [
						{
							"internalType": "address",
							"name": "token",
							"type": "address"
						},
						{
							"internalType": "uint256",
							"name": "tokenId",
							"type": "uint256"
						},
						{
							"internalType": "address",
							"name": "from",
							"type": "address"
						},
						{
							"internalType": "address[]",
							"name": "to",
							"type": "address[]"
						},
						{
							"internalType": "uint256",
							"name": "amount",
							"type": "uint256"
						},
						{
							"internalType": "bytes",
							"name": "data",
							"type": "bytes"
						},
						{
							"internalType": "uint256",
							"name": "expiry",
							"type": "uint256"
						},
						{
							"internalType": "uint256",
							"name": "signCount",
							"type": "uint256"
						},
						{
							"internalType": "address[]",
							"name": "signer",
							"type": "address[]"
						},
						{
							"components": [
								{
									"internalType": "bytes32",
									"name": "r",
									"type": "bytes32"
								},
								{
									"internalType": "bytes32",
									"name": "s",
									"type": "bytes32"
								},
								{
									"internalType": "uint8",
									"name": "v",
									"type": "uint8"
								}
							],
							"internalType": "struct NFTProxy.Signature[]",
							"name": "rsv",
							"type": "tuple[]"
						}
					],
					"internalType": "struct NFTProxy.TransferTx",
					"name": "tx",
					"type": "tuple"
				}
			],
			"name": "encodePacked",
			"outputs": [
				{
					"internalType": "bytes",
					"name": "",
					"type": "bytes"
				}
			],
			"stateMutability": "pure",
			"type": "function"
		},
		{
			"inputs": [
				{
					"internalType": "address",
					"name": "operator",
					"type": "address"
				},
				{
					"internalType": "address",
					"name": "from",
					"type": "address"
				},
				{
					"internalType": "uint256[]",
					"name": "ids",
					"type": "uint256[]"
				},
				{
					"internalType": "uint256[]",
					"name": "values",
					"type": "uint256[]"
				},
				{
					"internalType": "bytes",
					"name": "data",
					"type": "bytes"
				}
			],
			"name": "onERC1155BatchReceived",
			"outputs": [
				{
					"internalType": "bytes4",
					"name": "",
					"type": "bytes4"
				}
			],
			"stateMutability": "nonpayable",
			"type": "function"
		},
		{
			"inputs": [
				{
					"internalType": "address",
					"name": "operator",
					"type": "address"
				},
				{
					"internalType": "address",
					"name": "from",
					"type": "address"
				},
				{
					"internalType": "uint256",
					"name": "id",
					"type": "uint256"
				},
				{
					"internalType": "uint256",
					"name": "value",
					"type": "uint256"
				},
				{
					"internalType": "bytes",
					"name": "data",
					"type": "bytes"
				}
			],
			"name": "onERC1155Received",
			"outputs": [
				{
					"internalType": "bytes4",
					"name": "",
					"type": "bytes4"
				}
			],
			"stateMutability": "nonpayable",
			"type": "function"
		},
		{
			"inputs": [],
			"name": "owner",
			"outputs": [
				{
					"internalType": "address",
					"name": "",
					"type": "address"
				}
			],
			"stateMutability": "view",
			"type": "function"
		},
		{
			"inputs": [
				{
					"internalType": "address",
					"name": "token",
					"type": "address"
				},
				{
					"internalType": "uint256",
					"name": "tokenId",
					"type": "uint256"
				},
				{
					"internalType": "address",
					"name": "owner",
					"type": "address"
				}
			],
			"name": "ownersOf",
			"outputs": [
				{
					"components": [
						{
							"internalType": "uint256",
							"name": "balances",
							"type": "uint256"
						},
						{
							"internalType": "uint256",
							"name": "signCount",
							"type": "uint256"
						},
						{
							"internalType": "address[]",
							"name": "owners",
							"type": "address[]"
						}
					],
					"internalType": "struct NFTProxy.Owners",
					"name": "",
					"type": "tuple"
				}
			],
			"stateMutability": "view",
			"type": "function"
		},
		{
			"inputs": [],
			"name": "renounceOwnership",
			"outputs": [],
			"stateMutability": "nonpayable",
			"type": "function"
		},
		{
			"inputs": [
				{
					"internalType": "bytes4",
					"name": "interfaceId",
					"type": "bytes4"
				}
			],
			"name": "supportsInterface",
			"outputs": [
				{
					"internalType": "bool",
					"name": "",
					"type": "bool"
				}
			],
			"stateMutability": "view",
			"type": "function"
		},
		{
			"inputs": [
				{
					"internalType": "address[]",
					"name": "to",
					"type": "address[]"
				},
				{
					"internalType": "address",
					"name": "token",
					"type": "address"
				},
				{
					"internalType": "uint256",
					"name": "tokenId",
					"type": "uint256"
				},
				{
					"internalType": "uint256",
					"name": "amount",
					"type": "uint256"
				},
				{
					"internalType": "uint256",
					"name": "signCount",
					"type": "uint256"
				}
			],
			"name": "transfer",
			"outputs": [],
			"stateMutability": "nonpayable",
			"type": "function"
		},
		{
			"inputs": [
				{
					"components": [
						{
							"internalType": "address",
							"name": "token",
							"type": "address"
						},
						{
							"internalType": "uint256",
							"name": "tokenId",
							"type": "uint256"
						},
						{
							"internalType": "address",
							"name": "from",
							"type": "address"
						},
						{
							"internalType": "address[]",
							"name": "to",
							"type": "address[]"
						},
						{
							"internalType": "uint256",
							"name": "amount",
							"type": "uint256"
						},
						{
							"internalType": "bytes",
							"name": "data",
							"type": "bytes"
						},
						{
							"internalType": "uint256",
							"name": "expiry",
							"type": "uint256"
						},
						{
							"internalType": "uint256",
							"name": "signCount",
							"type": "uint256"
						},
						{
							"internalType": "address[]",
							"name": "signer",
							"type": "address[]"
						},
						{
							"components": [
								{
									"internalType": "bytes32",
									"name": "r",
									"type": "bytes32"
								},
								{
									"internalType": "bytes32",
									"name": "s",
									"type": "bytes32"
								},
								{
									"internalType": "uint8",
									"name": "v",
									"type": "uint8"
								}
							],
							"internalType": "struct NFTProxy.Signature[]",
							"name": "rsv",
							"type": "tuple[]"
						}
					],
					"internalType": "struct NFTProxy.TransferTx",
					"name": "tx",
					"type": "tuple"
				}
			],
			"name": "transferFrom",
			"outputs": [],
			"stateMutability": "nonpayable",
			"type": "function"
		},
		{
			"inputs": [
				{
					"internalType": "address",
					"name": "newOwner",
					"type": "address"
				}
			],
			"name": "transferOwnership",
			"outputs": [],
			"stateMutability": "nonpayable",
			"type": "function"
		},
		{
			"inputs": [
				{
					"components": [
						{
							"internalType": "address",
							"name": "token",
							"type": "address"
						},
						{
							"internalType": "uint256",
							"name": "tokenId",
							"type": "uint256"
						},
						{
							"internalType": "address",
							"name": "from",
							"type": "address"
						},
						{
							"internalType": "address[]",
							"name": "to",
							"type": "address[]"
						},
						{
							"internalType": "uint256",
							"name": "amount",
							"type": "uint256"
						},
						{
							"internalType": "bytes",
							"name": "data",
							"type": "bytes"
						},
						{
							"internalType": "uint256",
							"name": "expiry",
							"type": "uint256"
						},
						{
							"internalType": "uint256",
							"name": "signCount",
							"type": "uint256"
						},
						{
							"internalType": "address[]",
							"name": "signer",
							"type": "address[]"
						},
						{
							"components": [
								{
									"internalType": "bytes32",
									"name": "r",
									"type": "bytes32"
								},
								{
									"internalType": "bytes32",
									"name": "s",
									"type": "bytes32"
								},
								{
									"internalType": "uint8",
									"name": "v",
									"type": "uint8"
								}
							],
							"internalType": "struct NFTProxy.Signature[]",
							"name": "rsv",
							"type": "tuple[]"
						}
					],
					"internalType": "struct NFTProxy.TransferTx",
					"name": "tx",
					"type": "tuple"
				}
			],
			"name": "verify",
			"outputs": [],
			"stateMutability": "view",
			"type": "function"
		},
		{
			"inputs": [
				{
					"internalType": "address",
					"name": "to",
					"type": "address"
				},
				{
					"internalType": "address",
					"name": "token",
					"type": "address"
				},
				{
					"internalType": "uint256",
					"name": "tokenId",
					"type": "uint256"
				},
				{
					"internalType": "uint256",
					"name": "amount",
					"type": "uint256"
				},
				{
					"internalType": "bytes",
					"name": "_data",
					"type": "bytes"
				}
			],
			"name": "withdraw",
			"outputs": [],
			"stateMutability": "nonpayable",
			"type": "function"
		},
		{
			"inputs": [
				{
					"components": [
						{
							"internalType": "address",
							"name": "token",
							"type": "address"
						},
						{
							"internalType": "uint256",
							"name": "tokenId",
							"type": "uint256"
						},
						{
							"internalType": "address",
							"name": "from",
							"type": "address"
						},
						{
							"internalType": "address[]",
							"name": "to",
							"type": "address[]"
						},
						{
							"internalType": "uint256",
							"name": "amount",
							"type": "uint256"
						},
						{
							"internalType": "bytes",
							"name": "data",
							"type": "bytes"
						},
						{
							"internalType": "uint256",
							"name": "expiry",
							"type": "uint256"
						},
						{
							"internalType": "uint256",
							"name": "signCount",
							"type": "uint256"
						},
						{
							"internalType": "address[]",
							"name": "signer",
							"type": "address[]"
						},
						{
							"components": [
								{
									"internalType": "bytes32",
									"name": "r",
									"type": "bytes32"
								},
								{
									"internalType": "bytes32",
									"name": "s",
									"type": "bytes32"
								},
								{
									"internalType": "uint8",
									"name": "v",
									"type": "uint8"
								}
							],
							"internalType": "struct NFTProxy.Signature[]",
							"name": "rsv",
							"type": "tuple[]"
						}
					],
					"internalType": "struct NFTProxy.TransferTx",
					"name": "tx",
					"type": "tuple"
				}
			],
			"name": "withdrawFrom",
			"outputs": [],
			"stateMutability": "nonpayable",
			"type": "function"
		}
	]
}