{
	"upgradeSolidityRemix/mvp-sol/solidity/erc1155_proxy.sol": {
		"ERC1155Proxy": {
			"abi": [
				{
					"inputs": [],
					"stateMutability": "nonpayable",
					"type": "constructor"
				},
				{
					"anonymous": false,
					"inputs": [
						{
							"indexed": true,
							"internalType": "address",
							"name": "previousOwner",
							"type": "address"
						},
						{
							"indexed": true,
							"internalType": "address",
							"name": "newOwner",
							"type": "address"
						}
					],
					"name": "OwnershipTransferred",
					"type": "event"
				},
				{
					"anonymous": false,
					"inputs": [
						{
							"indexed": true,
							"internalType": "address",
							"name": "from",
							"type": "address"
						},
						{
							"indexed": true,
							"internalType": "address",
							"name": "to",
							"type": "address"
						},
						{
							"indexed": false,
							"internalType": "address",
							"name": "token",
							"type": "address"
						},
						{
							"indexed": true,
							"internalType": "uint256",
							"name": "tokenId",
							"type": "uint256"
						},
						{
							"indexed": false,
							"internalType": "uint256",
							"name": "fromBalance",
							"type": "uint256"
						},
						{
							"indexed": false,
							"internalType": "uint256",
							"name": "toBalance",
							"type": "uint256"
						}
					],
					"name": "Transfer",
					"type": "event"
				},
				{
					"inputs": [
						{
							"internalType": "address",
							"name": "token",
							"type": "address"
						},
						{
							"internalType": "uint256",
							"name": "tokenId",
							"type": "uint256"
						},
						{
							"internalType": "address",
							"name": "owner",
							"type": "address"
						}
					],
					"name": "balanceOf",
					"outputs": [
						{
							"internalType": "uint256",
							"name": "",
							"type": "uint256"
						}
					],
					"stateMutability": "view",
					"type": "function"
				},
				{
					"inputs": [
						{
							"components": [
								{
									"internalType": "address",
									"name": "token",
									"type": "address"
								},
								{
									"internalType": "uint256",
									"name": "tokenId",
									"type": "uint256"
								},
								{
									"internalType": "address",
									"name": "from",
									"type": "address"
								},
								{
									"internalType": "address[]",
									"name": "to",
									"type": "address[]"
								},
								{
									"internalType": "uint256",
									"name": "amount",
									"type": "uint256"
								},
								{
									"internalType": "bytes",
									"name": "data",
									"type": "bytes"
								},
								{
									"internalType": "uint256",
									"name": "expiry",
									"type": "uint256"
								},
								{
									"internalType": "uint256",
									"name": "signCount",
									"type": "uint256"
								},
								{
									"internalType": "address[]",
									"name": "signer",
									"type": "address[]"
								},
								{
									"components": [
										{
											"internalType": "bytes32",
											"name": "r",
											"type": "bytes32"
										},
										{
											"internalType": "bytes32",
											"name": "s",
											"type": "bytes32"
										},
										{
											"internalType": "uint8",
											"name": "v",
											"type": "uint8"
										}
									],
									"internalType": "struct NFTProxy.Signature[]",
									"name": "rsv",
									"type": "tuple[]"
								}
							],
							"internalType": "struct NFTProxy.TransferTx",
							"name": "tx",
							"type": "tuple"
						}
					],
					"name": "encodePacked",
					"outputs": [
						{
							"internalType": "bytes",
							"name": "",
							"type": "bytes"
						}
					],
					"stateMutability": "pure",
					"type": "function"
				},
				{
					"inputs": [
						{
							"internalType": "address",
							"name": "operator",
							"type": "address"
						},
						{
							"internalType": "address",
							"name": "from",
							"type": "address"
						},
						{
							"internalType": "uint256[]",
							"name": "ids",
							"type": "uint256[]"
						},
						{
							"internalType": "uint256[]",
							"name": "values",
							"type": "uint256[]"
						},
						{
							"internalType": "bytes",
							"name": "data",
							"type": "bytes"
						}
					],
					"name": "onERC1155BatchReceived",
					"outputs": [
						{
							"internalType": "bytes4",
							"name": "",
							"type": "bytes4"
						}
					],
					"stateMutability": "nonpayable",
					"type": "function"
				},
				{
					"inputs": [
						{
							"internalType": "address",
							"name": "operator",
							"type": "address"
						},
						{
							"internalType": "address",
							"name": "from",
							"type": "address"
						},
						{
							"internalType": "uint256",
							"name": "id",
							"type": "uint256"
						},
						{
							"internalType": "uint256",
							"name": "value",
							"type": "uint256"
						},
						{
							"internalType": "bytes",
							"name": "data",
							"type": "bytes"
						}
					],
					"name": "onERC1155Received",
					"outputs": [
						{
							"internalType": "bytes4",
							"name": "",
							"type": "bytes4"
						}
					],
					"stateMutability": "nonpayable",
					"type": "function"
				},
				{
					"inputs": [],
					"name": "owner",
					"outputs": [
						{
							"internalType": "address",
							"name": "",
							"type": "address"
						}
					],
					"stateMutability": "view",
					"type": "function"
				},
				{
					"inputs": [
						{
							"internalType": "address",
							"name": "token",
							"type": "address"
						},
						{
							"internalType": "uint256",
							"name": "tokenId",
							"type": "uint256"
						},
						{
							"internalType": "address",
							"name": "owner",
							"type": "address"
						}
					],
					"name": "ownersOf",
					"outputs": [
						{
							"components": [
								{
									"internalType": "uint256",
									"name": "balances",
									"type": "uint256"
								},
								{
									"internalType": "uint256",
									"name": "signCount",
									"type": "uint256"
								},
								{
									"internalType": "address[]",
									"name": "owners",
									"type": "address[]"
								}
							],
							"internalType": "struct NFTProxy.Owners",
							"name": "",
							"type": "tuple"
						}
					],
					"stateMutability": "view",
					"type": "function"
				},
				{
					"inputs": [],
					"name": "renounceOwnership",
					"outputs": [],
					"stateMutability": "nonpayable",
					"type": "function"
				},
				{
					"inputs": [
						{
							"internalType": "bytes4",
							"name": "interfaceId",
							"type": "bytes4"
						}
					],
					"name": "supportsInterface",
					"outputs": [
						{
							"internalType": "bool",
							"name": "",
							"type": "bool"
						}
					],
					"stateMutability": "view",
					"type": "function"
				},
				{
					"inputs": [
						{
							"internalType": "address[]",
							"name": "to",
							"type": "address[]"
						},
						{
							"internalType": "address",
							"name": "token",
							"type": "address"
						},
						{
							"internalType": "uint256",
							"name": "tokenId",
							"type": "uint256"
						},
						{
							"internalType": "uint256",
							"name": "amount",
							"type": "uint256"
						},
						{
							"internalType": "uint256",
							"name": "signCount",
							"type": "uint256"
						}
					],
					"name": "transfer",
					"outputs": [],
					"stateMutability": "nonpayable",
					"type": "function"
				},
				{
					"inputs": [
						{
							"components": [
								{
									"internalType": "address",
									"name": "token",
									"type": "address"
								},
								{
									"internalType": "uint256",
									"name": "tokenId",
									"type": "uint256"
								},
								{
									"internalType": "address",
									"name": "from",
									"type": "address"
								},
								{
									"internalType": "address[]",
									"name": "to",
									"type": "address[]"
								},
								{
									"internalType": "uint256",
									"name": "amount",
									"type": "uint256"
								},
								{
									"internalType": "bytes",
									"name": "data",
									"type": "bytes"
								},
								{
									"internalType": "uint256",
									"name": "expiry",
									"type": "uint256"
								},
								{
									"internalType": "uint256",
									"name": "signCount",
									"type": "uint256"
								},
								{
									"internalType": "address[]",
									"name": "signer",
									"type": "address[]"
								},
								{
									"components": [
										{
											"internalType": "bytes32",
											"name": "r",
											"type": "bytes32"
										},
										{
											"internalType": "bytes32",
											"name": "s",
											"type": "bytes32"
										},
										{
											"internalType": "uint8",
											"name": "v",
											"type": "uint8"
										}
									],
									"internalType": "struct NFTProxy.Signature[]",
									"name": "rsv",
									"type": "tuple[]"
								}
							],
							"internalType": "struct NFTProxy.TransferTx",
							"name": "tx",
							"type": "tuple"
						}
					],
					"name": "transferFrom",
					"outputs": [],
					"stateMutability": "nonpayable",
					"type": "function"
				},
				{
					"inputs": [
						{
							"internalType": "address",
							"name": "newOwner",
							"type": "address"
						}
					],
					"name": "transferOwnership",
					"outputs": [],
					"stateMutability": "nonpayable",
					"type": "function"
				},
				{
					"inputs": [
						{
							"components": [
								{
									"internalType": "address",
									"name": "token",
									"type": "address"
								},
								{
									"internalType": "uint256",
									"name": "tokenId",
									"type": "uint256"
								},
								{
									"internalType": "address",
									"name": "from",
									"type": "address"
								},
								{
									"internalType": "address[]",
									"name": "to",
									"type": "address[]"
								},
								{
									"internalType": "uint256",
									"name": "amount",
									"type": "uint256"
								},
								{
									"internalType": "bytes",
									"name": "data",
									"type": "bytes"
								},
								{
									"internalType": "uint256",
									"name": "expiry",
									"type": "uint256"
								},
								{
									"internalType": "uint256",
									"name": "signCount",
									"type": "uint256"
								},
								{
									"internalType": "address[]",
									"name": "signer",
									"type": "address[]"
								},
								{
									"components": [
										{
											"internalType": "bytes32",
											"name": "r",
											"type": "bytes32"
										},
										{
											"internalType": "bytes32",
											"name": "s",
											"type": "bytes32"
										},
										{
											"internalType": "uint8",
											"name": "v",
											"type": "uint8"
										}
									],
									"internalType": "struct NFTProxy.Signature[]",
									"name": "rsv",
									"type": "tuple[]"
								}
							],
							"internalType": "struct NFTProxy.TransferTx",
							"name": "tx",
							"type": "tuple"
						}
					],
					"name": "verify",
					"outputs": [],
					"stateMutability": "view",
					"type": "function"
				},
				{
					"inputs": [
						{
							"internalType": "address",
							"name": "to",
							"type": "address"
						},
						{
							"internalType": "address",
							"name": "token",
							"type": "address"
						},
						{
							"internalType": "uint256",
							"name": "tokenId",
							"type": "uint256"
						},
						{
							"internalType": "uint256",
							"name": "amount",
							"type": "uint256"
						},
						{
							"internalType": "bytes",
							"name": "_data",
							"type": "bytes"
						}
					],
					"name": "withdraw",
					"outputs": [],
					"stateMutability": "nonpayable",
					"type": "function"
				},
				{
					"inputs": [
						{
							"components": [
								{
									"internalType": "address",
									"name": "token",
									"type": "address"
								},
								{
									"internalType": "uint256",
									"name": "tokenId",
									"type": "uint256"
								},
								{
									"internalType": "address",
									"name": "from",
									"type": "address"
								},
								{
									"internalType": "address[]",
									"name": "to",
									"type": "address[]"
								},
								{
									"internalType": "uint256",
									"name": "amount",
									"type": "uint256"
								},
								{
									"internalType": "bytes",
									"name": "data",
									"type": "bytes"
								},
								{
									"internalType": "uint256",
									"name": "expiry",
									"type": "uint256"
								},
								{
									"internalType": "uint256",
									"name": "signCount",
									"type": "uint256"
								},
								{
									"internalType": "address[]",
									"name": "signer",
									"type": "address[]"
								},
								{
									"components": [
										{
											"internalType": "bytes32",
											"name": "r",
											"type": "bytes32"
										},
										{
											"internalType": "bytes32",
											"name": "s",
											"type": "bytes32"
										},
										{
											"internalType": "uint8",
											"name": "v",
											"type": "uint8"
										}
									],
									"internalType": "struct NFTProxy.Signature[]",
									"name": "rsv",
									"type": "tuple[]"
								}
							],
							"internalType": "struct NFTProxy.TransferTx",
							"name": "tx",
							"type": "tuple"
						}
					],
					"name": "withdrawFrom",
					"outputs": [],
					"stateMutability": "nonpayable",
					"type": "function"
				}
			],
			"devdoc": {
				"kind": "dev",
				"methods": {
					"owner()": {
						"details": "Returns the address of the current owner."
					},
					"renounceOwnership()": {
						"details": "Leaves the contract without owner. It will not be possible to call `onlyOwner` functions anymore. Can only be called by the current owner. NOTE: Renouncing ownership will leave the contract without an owner, thereby removing any functionality that is only available to the owner."
					},
					"supportsInterface(bytes4)": {
						"details": "See {IERC165-supportsInterface}. Time complexity O(1), guaranteed to always use less than 30 000 gas."
					},
					"transferOwnership(address)": {
						"details": "Transfers ownership of the contract to a new account (`newOwner`). Can only be called by the current owner."
					}
				},
				"version": 1
			},
			"evm": {
				"assembly": "    /* \"upgradeSolidityRemix/mvp-sol/solidity/erc1155_proxy.sol\":94:4829  contract ERC1155Proxy is IERC1155Receiver, NFTProxy {\r... */\n  mstore(0x40, 0x80)\n    /* \"upgradeSolidityRemix/mvp-sol/solidity/erc1155_proxy.sol\":682:868  constructor() public {  // payable\r... */\n  callvalue\n  dup1\n  iszero\n  tag_1\n  jumpi\n  0x00\n  dup1\n  revert\ntag_1:\n  pop\n    /* \"upgradeSolidityRemix/mvp-sol/solidity/base.sol\":2209:2221  _msgSender() */\n  tag_5\n    /* \"upgradeSolidityRemix/mvp-sol/solidity/base.sol\":2209:2219  _msgSender */\n  shl(0x20, tag_6)\n    /* \"upgradeSolidityRemix/mvp-sol/solidity/base.sol\":2209:2221  _msgSender() */\n  0x20\n  shr\n  jump\t// in\ntag_5:\n    /* \"upgradeSolidityRemix/mvp-sol/solidity/base.sol\":2200:2206  _owner */\n  0x00\n  dup1\n    /* \"upgradeSolidityRemix/mvp-sol/solidity/base.sol\":2200:2221  _owner = _msgSender() */\n  0x0100\n  exp\n  dup2\n  sload\n  dup2\n  0xffffffffffffffffffffffffffffffffffffffff\n  mul\n  not\n  and\n  swap1\n  dup4\n  0xffffffffffffffffffffffffffffffffffffffff\n  and\n  mul\n  or\n  swap1\n  sstore\n  pop\n    /* \"upgradeSolidityRemix/mvp-sol/solidity/base.sol\":2226:2266  _registerInterface(_INTERFACE_ID_ERC165) */\n  tag_7\n    /* \"upgradeSolidityRemix/mvp-sol/solidity/base.sol\":1890:1900  0x01ffc9a7 */\n  0x01ffc9a7\n    /* \"upgradeSolidityRemix/mvp-sol/solidity/base.sol\":2245:2265  _INTERFACE_ID_ERC165 */\n  0xe0\n  shl\n    /* \"upgradeSolidityRemix/mvp-sol/solidity/base.sol\":2226:2244  _registerInterface */\n  shl(0x20, tag_8)\n    /* \"upgradeSolidityRemix/mvp-sol/solidity/base.sol\":2226:2266  _registerInterface(_INTERFACE_ID_ERC165) */\n  0x20\n  shr\n  jump\t// in\ntag_7:\n    /* \"upgradeSolidityRemix/mvp-sol/solidity/erc1155_proxy.sol\":720:863  _registerInterface(\r... */\n  tag_10\n    /* \"upgradeSolidityRemix/mvp-sol/solidity/erc1155_proxy.sol\":802:858  ERC1155Proxy(address(0)).onERC1155BatchReceived.selector */\n  shl(0xe0, 0xbc197c81)\n    /* \"upgradeSolidityRemix/mvp-sol/solidity/erc1155_proxy.sol\":744:795  ERC1155Proxy(address(0)).onERC1155Received.selector */\n  shl(0xe0, 0xf23a6e61)\n    /* \"upgradeSolidityRemix/mvp-sol/solidity/erc1155_proxy.sol\":744:858  ERC1155Proxy(address(0)).onERC1155Received.selector ^\r... */\n  xor\n    /* \"upgradeSolidityRemix/mvp-sol/solidity/erc1155_proxy.sol\":720:738  _registerInterface */\n  shl(0x20, tag_8)\n    /* \"upgradeSolidityRemix/mvp-sol/solidity/erc1155_proxy.sol\":720:863  _registerInterface(\r... */\n  0x20\n  shr\n  jump\t// in\ntag_10:\n    /* \"upgradeSolidityRemix/mvp-sol/solidity/erc1155_proxy.sol\":94:4829  contract ERC1155Proxy is IERC1155Receiver, NFTProxy {\r... */\n  jump(tag_11)\n    /* \"upgradeSolidityRemix/mvp-sol/solidity/base.sol\":4255:4352  function _msgSender() internal view virtual returns (address payable) {\r... */\ntag_6:\n    /* \"upgradeSolidityRemix/mvp-sol/solidity/base.sol\":4308:4323  address payable */\n  0x00\n    /* \"upgradeSolidityRemix/mvp-sol/solidity/base.sol\":4337:4347  msg.sender */\n  caller\n    /* \"upgradeSolidityRemix/mvp-sol/solidity/base.sol\":4330:4347  return msg.sender */\n  swap1\n  pop\n    /* \"upgradeSolidityRemix/mvp-sol/solidity/base.sol\":4255:4352  function _msgSender() internal view virtual returns (address payable) {\r... */\n  swap1\n  jump\t// out\n    /* \"upgradeSolidityRemix/mvp-sol/solidity/base.sol\":2915:3103  function _registerInterface(bytes4 interfaceId) internal virtual {\r... */\ntag_8:\n    /* \"upgradeSolidityRemix/mvp-sol/solidity/base.sol\":3009:3019  0xffffffff */\n  0xffffffff\n    /* \"upgradeSolidityRemix/mvp-sol/solidity/base.sol\":2994:3019  interfaceId != 0xffffffff */\n  0xe0\n  shl\n    /* \"upgradeSolidityRemix/mvp-sol/solidity/base.sol\":2994:3005  interfaceId */\n  dup2\n    /* \"upgradeSolidityRemix/mvp-sol/solidity/base.sol\":2994:3019  interfaceId != 0xffffffff */\n  not(0xffffffffffffffffffffffffffffffffffffffffffffffffffffffff)\n  and\n  eq\n  iszero\n    /* \"upgradeSolidityRemix/mvp-sol/solidity/base.sol\":2986:3052  require(interfaceId != 0xffffffff, \"ERC165: invalid interface id\") */\n  tag_14\n  jumpi\n  mload(0x40)\n  0x08c379a000000000000000000000000000000000000000000000000000000000\n  dup2\n  mstore\n  0x04\n  add\n  tag_15\n  swap1\n  tag_16\n  jump\t// in\ntag_15:\n  mload(0x40)\n  dup1\n  swap2\n  sub\n  swap1\n  revert\ntag_14:\n    /* \"upgradeSolidityRemix/mvp-sol/solidity/base.sol\":3094:3098  true */\n  0x01\n    /* \"upgradeSolidityRemix/mvp-sol/solidity/base.sol\":3058:3078  _supportedInterfaces */\n  dup1\n    /* \"upgradeSolidityRemix/mvp-sol/solidity/base.sol\":3058:3091  _supportedInterfaces[interfaceId] */\n  0x00\n    /* \"upgradeSolidityRemix/mvp-sol/solidity/base.sol\":3079:3090  interfaceId */\n  dup4\n    /* \"upgradeSolidityRemix/mvp-sol/solidity/base.sol\":3058:3091  _supportedInterfaces[interfaceId] */\n  not(0xffffffffffffffffffffffffffffffffffffffffffffffffffffffff)\n  and\n  not(0xffffffffffffffffffffffffffffffffffffffffffffffffffffffff)\n  and\n  dup2\n  mstore\n  0x20\n  add\n  swap1\n  dup2\n  mstore\n  0x20\n  add\n  0x00\n  keccak256\n  0x00\n    /* \"upgradeSolidityRemix/mvp-sol/solidity/base.sol\":3058:3098  _supportedInterfaces[interfaceId] = true */\n  0x0100\n  exp\n  dup2\n  sload\n  dup2\n  0xff\n  mul\n  not\n  and\n  swap1\n  dup4\n  iszero\n  iszero\n  mul\n  or\n  swap1\n  sstore\n  pop\n    /* \"upgradeSolidityRemix/mvp-sol/solidity/base.sol\":2915:3103  function _registerInterface(bytes4 interfaceId) internal virtual {\r... */\n  pop\n  jump\t// out\n    /* \"--CODEGEN--\":6:334   */\ntag_18:\n  0x00\n    /* \"--CODEGEN--\":166:233   */\n  tag_20\n    /* \"--CODEGEN--\":230:232   */\n  0x1c\n    /* \"--CODEGEN--\":225:228   */\n  dup4\n    /* \"--CODEGEN--\":166:233   */\n  tag_21\n  jump\t// in\ntag_20:\n    /* \"--CODEGEN--\":159:233   */\n  swap2\n  pop\n    /* \"--CODEGEN--\":266:296   */\n  0x4552433136353a20696e76616c696420696e7465726661636520696400000000\n    /* \"--CODEGEN--\":262:263   */\n  0x00\n    /* \"--CODEGEN--\":257:260   */\n  dup4\n    /* \"--CODEGEN--\":253:264   */\n  add\n    /* \"--CODEGEN--\":246:297   */\n  mstore\n    /* \"--CODEGEN--\":325:327   */\n  0x20\n    /* \"--CODEGEN--\":320:323   */\n  dup3\n    /* \"--CODEGEN--\":316:328   */\n  add\n    /* \"--CODEGEN--\":309:328   */\n  swap1\n  pop\n    /* \"--CODEGEN--\":152:334   */\n  swap2\n  swap1\n  pop\n  jump\t// out\n    /* \"--CODEGEN--\":342:758   */\ntag_16:\n  0x00\n    /* \"--CODEGEN--\":542:544   */\n  0x20\n    /* \"--CODEGEN--\":531:540   */\n  dup3\n    /* \"--CODEGEN--\":527:545   */\n  add\n    /* \"--CODEGEN--\":519:545   */\n  swap1\n  pop\n    /* \"--CODEGEN--\":592:601   */\n  dup2\n    /* \"--CODEGEN--\":586:590   */\n  dup2\n    /* \"--CODEGEN--\":582:602   */\n  sub\n    /* \"--CODEGEN--\":578:579   */\n  0x00\n    /* \"--CODEGEN--\":567:576   */\n  dup4\n    /* \"--CODEGEN--\":563:580   */\n  add\n    /* \"--CODEGEN--\":556:603   */\n  mstore\n    /* \"--CODEGEN--\":617:748   */\n  tag_23\n    /* \"--CODEGEN--\":743:747   */\n  dup2\n    /* \"--CODEGEN--\":617:748   */\n  tag_18\n  jump\t// in\ntag_23:\n    /* \"--CODEGEN--\":609:748   */\n  swap1\n  pop\n    /* \"--CODEGEN--\":513:758   */\n  swap2\n  swap1\n  pop\n  jump\t// out\n    /* \"--CODEGEN--\":766:929   */\ntag_21:\n  0x00\n    /* \"--CODEGEN--\":881:887   */\n  dup3\n    /* \"--CODEGEN--\":876:879   */\n  dup3\n    /* \"--CODEGEN--\":869:888   */\n  mstore\n    /* \"--CODEGEN--\":918:922   */\n  0x20\n    /* \"--CODEGEN--\":913:916   */\n  dup3\n    /* \"--CODEGEN--\":909:923   */\n  add\n    /* \"--CODEGEN--\":894:923   */\n  swap1\n  pop\n    /* \"--CODEGEN--\":862:929   */\n  swap3\n  swap2\n  pop\n  pop\n  jump\t// out\n    /* \"upgradeSolidityRemix/mvp-sol/solidity/erc1155_proxy.sol\":94:4829  contract ERC1155Proxy is IERC1155Receiver, NFTProxy {\r... */\ntag_11:\n  dataSize(sub_0)\n  dup1\n  dataOffset(sub_0)\n  0x00\n  codecopy\n  0x00\n  return\nstop\n\nsub_0: assembly {\n        /* \"upgradeSolidityRemix/mvp-sol/solidity/erc1155_proxy.sol\":94:4829  contract ERC1155Proxy is IERC1155Receiver, NFTProxy {\r... */\n      mstore(0x40, 0x80)\n      callvalue\n      dup1\n      iszero\n      tag_1\n      jumpi\n      0x00\n      dup1\n      revert\n    tag_1:\n      pop\n      jumpi(tag_2, lt(calldatasize, 0x04))\n      shr(0xe0, calldataload(0x00))\n      dup1\n      0x715018a6\n      gt\n      tag_17\n      jumpi\n      dup1\n      0xa24d22fe\n      gt\n      tag_18\n      jumpi\n      dup1\n      0xa24d22fe\n      eq\n      tag_13\n      jumpi\n      dup1\n      0xbc197c81\n      eq\n      tag_14\n      jumpi\n      dup1\n      0xf23a6e61\n      eq\n      tag_15\n      jumpi\n      dup1\n      0xf2fde38b\n      eq\n      tag_16\n      jumpi\n      jump(tag_2)\n    tag_18:\n      dup1\n      0x715018a6\n      eq\n      tag_10\n      jumpi\n      dup1\n      0x7c4d7f44\n      eq\n      tag_11\n      jumpi\n      dup1\n      0x8da5cb5b\n      eq\n      tag_12\n      jumpi\n      jump(tag_2)\n    tag_17:\n      dup1\n      0x2a3b3836\n      gt\n      tag_19\n      jumpi\n      dup1\n      0x2a3b3836\n      eq\n      tag_6\n      jumpi\n      dup1\n      0x2a6c7d0c\n      eq\n      tag_7\n      jumpi\n      dup1\n      0x3291bf99\n      eq\n      tag_8\n      jumpi\n      dup1\n      0x467f4cb9\n      eq\n      tag_9\n      jumpi\n      jump(tag_2)\n    tag_19:\n      dup1\n      0x01ffc9a7\n      eq\n      tag_3\n      jumpi\n      dup1\n      0x0525bdcf\n      eq\n      tag_4\n      jumpi\n      dup1\n      0x074540da\n      eq\n      tag_5\n      jumpi\n    tag_2:\n      0x00\n      dup1\n      revert\n        /* \"upgradeSolidityRemix/mvp-sol/solidity/base.sol\":2410:2544  function supportsInterface(bytes4 interfaceId) public view override returns (bool) {\r... */\n    tag_3:\n      tag_20\n      0x04\n      dup1\n      calldatasize\n      sub\n      dup2\n      add\n      swap1\n      tag_21\n      swap2\n      swap1\n      tag_22\n      jump\t// in\n    tag_21:\n      tag_23\n      jump\t// in\n    tag_20:\n      mload(0x40)\n      tag_24\n      swap2\n      swap1\n      tag_25\n      jump\t// in\n    tag_24:\n      mload(0x40)\n      dup1\n      swap2\n      sub\n      swap1\n      return\n        /* \"upgradeSolidityRemix/mvp-sol/solidity/nft_proxy.sol\":3096:3320  function encodePacked(TransferTx memory tx) public pure returns(bytes memory) {\r... */\n    tag_4:\n      tag_26\n      0x04\n      dup1\n      calldatasize\n      sub\n      dup2\n      add\n      swap1\n      tag_27\n      swap2\n      swap1\n      tag_28\n      jump\t// in\n    tag_27:\n      tag_29\n      jump\t// in\n    tag_26:\n      mload(0x40)\n      tag_30\n      swap2\n      swap1\n      tag_31\n      jump\t// in\n    tag_30:\n      mload(0x40)\n      dup1\n      swap2\n      sub\n      swap1\n      return\n        /* \"upgradeSolidityRemix/mvp-sol/solidity/nft_proxy.sol\":1400:1752  function withdraw(address to, address token, uint256 tokenId, uint256 amount, bytes memory _data) public {\r... */\n    tag_5:\n      tag_32\n      0x04\n      dup1\n      calldatasize\n      sub\n      dup2\n      add\n      swap1\n      tag_33\n      swap2\n      swap1\n      tag_34\n      jump\t// in\n    tag_33:\n      tag_35\n      jump\t// in\n    tag_32:\n      stop\n        /* \"upgradeSolidityRemix/mvp-sol/solidity/nft_proxy.sol\":5158:5375  function transferFrom(TransferTx memory tx) public {\r... */\n    tag_6:\n      tag_36\n      0x04\n      dup1\n      calldatasize\n      sub\n      dup2\n      add\n      swap1\n      tag_37\n      swap2\n      swap1\n      tag_28\n      jump\t// in\n    tag_37:\n      tag_38\n      jump\t// in\n    tag_36:\n      stop\n        /* \"upgradeSolidityRemix/mvp-sol/solidity/nft_proxy.sol\":1757:2188  function transfer(address[] memory to, address token, uint256 tokenId, uint256 amount, uint256 signCount) public {\r... */\n    tag_7:\n      tag_39\n      0x04\n      dup1\n      calldatasize\n      sub\n      dup2\n      add\n      swap1\n      tag_40\n      swap2\n      swap1\n      tag_41\n      jump\t// in\n    tag_40:\n      tag_42\n      jump\t// in\n    tag_39:\n      stop\n        /* \"upgradeSolidityRemix/mvp-sol/solidity/nft_proxy.sol\":5007:5153  function withdrawFrom(TransferTx memory tx) public {\r... */\n    tag_8:\n      tag_43\n      0x04\n      dup1\n      calldatasize\n      sub\n      dup2\n      add\n      swap1\n      tag_44\n      swap2\n      swap1\n      tag_28\n      jump\t// in\n    tag_44:\n      tag_45\n      jump\t// in\n    tag_43:\n      stop\n        /* \"upgradeSolidityRemix/mvp-sol/solidity/erc1155_proxy.sol\":4491:4658  function balanceOf(address token, uint256 tokenId, address owner) public view override returns(uint256) {\r... */\n    tag_9:\n      tag_46\n      0x04\n      dup1\n      calldatasize\n      sub\n      dup2\n      add\n      swap1\n      tag_47\n      swap2\n      swap1\n      tag_48\n      jump\t// in\n    tag_47:\n      tag_49\n      jump\t// in\n    tag_46:\n      mload(0x40)\n      tag_50\n      swap2\n      swap1\n      tag_51\n      jump\t// in\n    tag_50:\n      mload(0x40)\n      dup1\n      swap2\n      sub\n      swap1\n      return\n        /* \"upgradeSolidityRemix/mvp-sol/solidity/base.sol\":3754:3887  function renounceOwnership() public virtual onlyOwner {\r... */\n    tag_10:\n      tag_52\n      tag_53\n      jump\t// in\n    tag_52:\n      stop\n        /* \"upgradeSolidityRemix/mvp-sol/solidity/erc1155_proxy.sol\":4663:4826  function ownersOf(address token, uint256 tokenId, address owner) public view override returns(Owners memory) {\r... */\n    tag_11:\n      tag_54\n      0x04\n      dup1\n      calldatasize\n      sub\n      dup2\n      add\n      swap1\n      tag_55\n      swap2\n      swap1\n      tag_48\n      jump\t// in\n    tag_55:\n      tag_56\n      jump\t// in\n    tag_54:\n      mload(0x40)\n      tag_57\n      swap2\n      swap1\n      tag_58\n      jump\t// in\n    tag_57:\n      mload(0x40)\n      dup1\n      swap2\n      sub\n      swap1\n      return\n        /* \"upgradeSolidityRemix/mvp-sol/solidity/base.sol\":3357:3427  function owner() public view returns (address) {\r... */\n    tag_12:\n      tag_59\n      tag_60\n      jump\t// in\n    tag_59:\n      mload(0x40)\n      tag_61\n      swap2\n      swap1\n      tag_62\n      jump\t// in\n    tag_61:\n      mload(0x40)\n      dup1\n      swap2\n      sub\n      swap1\n      return\n        /* \"upgradeSolidityRemix/mvp-sol/solidity/nft_proxy.sol\":3325:5002  function verify(TransferTx memory tx) view public {\r... */\n    tag_13:\n      tag_63\n      0x04\n      dup1\n      calldatasize\n      sub\n      dup2\n      add\n      swap1\n      tag_64\n      swap2\n      swap1\n      tag_28\n      jump\t// in\n    tag_64:\n      tag_65\n      jump\t// in\n    tag_63:\n      stop\n        /* \"upgradeSolidityRemix/mvp-sol/solidity/erc1155_proxy.sol\":2433:2935  function onERC1155BatchReceived(\r... */\n    tag_14:\n      tag_66\n      0x04\n      dup1\n      calldatasize\n      sub\n      dup2\n      add\n      swap1\n      tag_67\n      swap2\n      swap1\n      tag_68\n      jump\t// in\n    tag_67:\n      tag_69\n      jump\t// in\n    tag_66:\n      mload(0x40)\n      tag_70\n      swap2\n      swap1\n      tag_71\n      jump\t// in\n    tag_70:\n      mload(0x40)\n      dup1\n      swap2\n      sub\n      swap1\n      return\n        /* \"upgradeSolidityRemix/mvp-sol/solidity/erc1155_proxy.sol\":2046:2428  function onERC1155Received(\r... */\n    tag_15:\n      tag_72\n      0x04\n      dup1\n      calldatasize\n      sub\n      dup2\n      add\n      swap1\n      tag_73\n      swap2\n      swap1\n      tag_74\n      jump\t// in\n    tag_73:\n      tag_75\n      jump\t// in\n    tag_72:\n      mload(0x40)\n      tag_76\n      swap2\n      swap1\n      tag_71\n      jump\t// in\n    tag_76:\n      mload(0x40)\n      dup1\n      swap2\n      sub\n      swap1\n      return\n        /* \"upgradeSolidityRemix/mvp-sol/solidity/base.sol\":4027:4250  function transferOwnership(address newOwner) public virtual onlyOwner {\r... */\n    tag_16:\n      tag_77\n      0x04\n      dup1\n      calldatasize\n      sub\n      dup2\n      add\n      swap1\n      tag_78\n      swap2\n      swap1\n      tag_79\n      jump\t// in\n    tag_78:\n      tag_80\n      jump\t// in\n    tag_77:\n      stop\n        /* \"upgradeSolidityRemix/mvp-sol/solidity/base.sol\":2410:2544  function supportsInterface(bytes4 interfaceId) public view override returns (bool) {\r... */\n    tag_23:\n        /* \"upgradeSolidityRemix/mvp-sol/solidity/base.sol\":2487:2491  bool */\n      0x00\n        /* \"upgradeSolidityRemix/mvp-sol/solidity/base.sol\":2506:2526  _supportedInterfaces */\n      0x01\n        /* \"upgradeSolidityRemix/mvp-sol/solidity/base.sol\":2506:2539  _supportedInterfaces[interfaceId] */\n      0x00\n        /* \"upgradeSolidityRemix/mvp-sol/solidity/base.sol\":2527:2538  interfaceId */\n      dup4\n        /* \"upgradeSolidityRemix/mvp-sol/solidity/base.sol\":2506:2539  _supportedInterfaces[interfaceId] */\n      not(0xffffffffffffffffffffffffffffffffffffffffffffffffffffffff)\n      and\n      not(0xffffffffffffffffffffffffffffffffffffffffffffffffffffffff)\n      and\n      dup2\n      mstore\n      0x20\n      add\n      swap1\n      dup2\n      mstore\n      0x20\n      add\n      0x00\n      keccak256\n      0x00\n      swap1\n      sload\n      swap1\n      0x0100\n      exp\n      swap1\n      div\n      0xff\n      and\n        /* \"upgradeSolidityRemix/mvp-sol/solidity/base.sol\":2499:2539  return _supportedInterfaces[interfaceId] */\n      swap1\n      pop\n        /* \"upgradeSolidityRemix/mvp-sol/solidity/base.sol\":2410:2544  function supportsInterface(bytes4 interfaceId) public view override returns (bool) {\r... */\n      swap2\n      swap1\n      pop\n      jump\t// out\n        /* \"upgradeSolidityRemix/mvp-sol/solidity/nft_proxy.sol\":3096:3320  function encodePacked(TransferTx memory tx) public pure returns(bytes memory) {\r... */\n    tag_29:\n        /* \"upgradeSolidityRemix/mvp-sol/solidity/nft_proxy.sol\":3160:3172  bytes memory */\n      0x60\n        /* \"upgradeSolidityRemix/mvp-sol/solidity/nft_proxy.sol\":3179:3197  bytes memory byte_ */\n      dup1\n        /* \"upgradeSolidityRemix/mvp-sol/solidity/nft_proxy.sol\":3216:3218  tx */\n      dup3\n        /* \"upgradeSolidityRemix/mvp-sol/solidity/nft_proxy.sol\":3216:3224  tx.token */\n      0x00\n      add\n      mload\n        /* \"upgradeSolidityRemix/mvp-sol/solidity/nft_proxy.sol\":3226:3228  tx */\n      dup4\n        /* \"upgradeSolidityRemix/mvp-sol/solidity/nft_proxy.sol\":3226:3236  tx.tokenId */\n      0x20\n      add\n      mload\n        /* \"upgradeSolidityRemix/mvp-sol/solidity/nft_proxy.sol\":3238:3240  tx */\n      dup5\n        /* \"upgradeSolidityRemix/mvp-sol/solidity/nft_proxy.sol\":3238:3245  tx.from */\n      0x40\n      add\n      mload\n        /* \"upgradeSolidityRemix/mvp-sol/solidity/nft_proxy.sol\":3247:3249  tx */\n      dup6\n        /* \"upgradeSolidityRemix/mvp-sol/solidity/nft_proxy.sol\":3247:3252  tx.to */\n      0x60\n      add\n      mload\n        /* \"upgradeSolidityRemix/mvp-sol/solidity/nft_proxy.sol\":3254:3256  tx */\n      dup7\n        /* \"upgradeSolidityRemix/mvp-sol/solidity/nft_proxy.sol\":3254:3263  tx.amount */\n      0x80\n      add\n      mload\n        /* \"upgradeSolidityRemix/mvp-sol/solidity/nft_proxy.sol\":3265:3267  tx */\n      dup8\n        /* \"upgradeSolidityRemix/mvp-sol/solidity/nft_proxy.sol\":3265:3272  tx.data */\n      0xa0\n      add\n      mload\n        /* \"upgradeSolidityRemix/mvp-sol/solidity/nft_proxy.sol\":3274:3276  tx */\n      dup9\n        /* \"upgradeSolidityRemix/mvp-sol/solidity/nft_proxy.sol\":3274:3283  tx.expiry */\n      0xc0\n      add\n      mload\n        /* \"upgradeSolidityRemix/mvp-sol/solidity/nft_proxy.sol\":3285:3287  tx */\n      dup10\n        /* \"upgradeSolidityRemix/mvp-sol/solidity/nft_proxy.sol\":3285:3297  tx.signCount */\n      0xe0\n      add\n      mload\n        /* \"upgradeSolidityRemix/mvp-sol/solidity/nft_proxy.sol\":3200:3298  abi.encode(\r... */\n      add(0x20, mload(0x40))\n      tag_83\n      swap9\n      swap8\n      swap7\n      swap6\n      swap5\n      swap4\n      swap3\n      swap2\n      swap1\n      tag_84\n      jump\t// in\n    tag_83:\n      mload(0x40)\n      0x20\n      dup2\n      dup4\n      sub\n      sub\n      dup2\n      mstore\n      swap1\n      0x40\n      mstore\n        /* \"upgradeSolidityRemix/mvp-sol/solidity/nft_proxy.sol\":3179:3298  bytes memory byte_ = abi.encode(\r... */\n      swap1\n      pop\n        /* \"upgradeSolidityRemix/mvp-sol/solidity/nft_proxy.sol\":3310:3315  byte_ */\n      dup1\n        /* \"upgradeSolidityRemix/mvp-sol/solidity/nft_proxy.sol\":3303:3315  return byte_ */\n      swap2\n      pop\n      pop\n        /* \"upgradeSolidityRemix/mvp-sol/solidity/nft_proxy.sol\":3096:3320  function encodePacked(TransferTx memory tx) public pure returns(bytes memory) {\r... */\n      swap2\n      swap1\n      pop\n      jump\t// out\n        /* \"upgradeSolidityRemix/mvp-sol/solidity/nft_proxy.sol\":1400:1752  function withdraw(address to, address token, uint256 tokenId, uint256 amount, bytes memory _data) public {\r... */\n    tag_35:\n        /* \"upgradeSolidityRemix/mvp-sol/solidity/nft_proxy.sol\":1510:1530  Owners memory owners */\n      tag_86\n      tag_87\n      jump\t// in\n    tag_86:\n        /* \"upgradeSolidityRemix/mvp-sol/solidity/nft_proxy.sol\":1533:1571  ownersOf(token, tokenId, _msgSender()) */\n      tag_88\n        /* \"upgradeSolidityRemix/mvp-sol/solidity/nft_proxy.sol\":1542:1547  token */\n      dup6\n        /* \"upgradeSolidityRemix/mvp-sol/solidity/nft_proxy.sol\":1549:1556  tokenId */\n      dup6\n        /* \"upgradeSolidityRemix/mvp-sol/solidity/nft_proxy.sol\":1558:1570  _msgSender() */\n      tag_89\n        /* \"upgradeSolidityRemix/mvp-sol/solidity/nft_proxy.sol\":1558:1568  _msgSender */\n      tag_90\n        /* \"upgradeSolidityRemix/mvp-sol/solidity/nft_proxy.sol\":1558:1570  _msgSender() */\n      jump\t// in\n    tag_89:\n        /* \"upgradeSolidityRemix/mvp-sol/solidity/nft_proxy.sol\":1533:1541  ownersOf */\n      tag_56\n        /* \"upgradeSolidityRemix/mvp-sol/solidity/nft_proxy.sol\":1533:1571  ownersOf(token, tokenId, _msgSender()) */\n      jump\t// in\n    tag_88:\n        /* \"upgradeSolidityRemix/mvp-sol/solidity/nft_proxy.sol\":1510:1571  Owners memory owners = ownersOf(token, tokenId, _msgSender()) */\n      swap1\n      pop\n        /* \"upgradeSolidityRemix/mvp-sol/solidity/nft_proxy.sol\":1604:1605  1 */\n      0x01\n        /* \"upgradeSolidityRemix/mvp-sol/solidity/nft_proxy.sol\":1584:1590  owners */\n      dup2\n        /* \"upgradeSolidityRemix/mvp-sol/solidity/nft_proxy.sol\":1584:1600  owners.signCount */\n      0x20\n      add\n      mload\n        /* \"upgradeSolidityRemix/mvp-sol/solidity/nft_proxy.sol\":1584:1605  owners.signCount == 1 */\n      eq\n        /* \"upgradeSolidityRemix/mvp-sol/solidity/nft_proxy.sol\":1576:1650  require(owners.signCount == 1, \"#NFTProxy#transfer: NO_TRANSFER_SIGN_ERR\") */\n      tag_91\n      jumpi\n      mload(0x40)\n      0x08c379a000000000000000000000000000000000000000000000000000000000\n      dup2\n      mstore\n      0x04\n      add\n      tag_92\n      swap1\n      tag_93\n      jump\t// in\n    tag_92:\n      mload(0x40)\n      dup1\n      swap2\n      sub\n      swap1\n      revert\n    tag_91:\n        /* \"upgradeSolidityRemix/mvp-sol/solidity/nft_proxy.sol\":1689:1747  _withdraw(_msgSender(), to, token, tokenId, amount, _data) */\n      tag_94\n        /* \"upgradeSolidityRemix/mvp-sol/solidity/nft_proxy.sol\":1699:1711  _msgSender() */\n      tag_95\n        /* \"upgradeSolidityRemix/mvp-sol/solidity/nft_proxy.sol\":1699:1709  _msgSender */\n      tag_90\n        /* \"upgradeSolidityRemix/mvp-sol/solidity/nft_proxy.sol\":1699:1711  _msgSender() */\n      jump\t// in\n    tag_95:\n        /* \"upgradeSolidityRemix/mvp-sol/solidity/nft_proxy.sol\":1713:1715  to */\n      dup8\n        /* \"upgradeSolidityRemix/mvp-sol/solidity/nft_proxy.sol\":1717:1722  token */\n      dup8\n        /* \"upgradeSolidityRemix/mvp-sol/solidity/nft_proxy.sol\":1724:1731  tokenId */\n      dup8\n        /* \"upgradeSolidityRemix/mvp-sol/solidity/nft_proxy.sol\":1733:1739  amount */\n      dup8\n        /* \"upgradeSolidityRemix/mvp-sol/solidity/nft_proxy.sol\":1741:1746  _data */\n      dup8\n        /* \"upgradeSolidityRemix/mvp-sol/solidity/nft_proxy.sol\":1689:1698  _withdraw */\n      tag_96\n        /* \"upgradeSolidityRemix/mvp-sol/solidity/nft_proxy.sol\":1689:1747  _withdraw(_msgSender(), to, token, tokenId, amount, _data) */\n      jump\t// in\n    tag_94:\n        /* \"upgradeSolidityRemix/mvp-sol/solidity/nft_proxy.sol\":1400:1752  function withdraw(address to, address token, uint256 tokenId, uint256 amount, bytes memory _data) public {\r... */\n      pop\n      pop\n      pop\n      pop\n      pop\n      pop\n      jump\t// out\n        /* \"upgradeSolidityRemix/mvp-sol/solidity/nft_proxy.sol\":5158:5375  function transferFrom(TransferTx memory tx) public {\r... */\n    tag_38:\n        /* \"upgradeSolidityRemix/mvp-sol/solidity/nft_proxy.sol\":5214:5224  verify(tx) */\n      tag_98\n        /* \"upgradeSolidityRemix/mvp-sol/solidity/nft_proxy.sol\":5221:5223  tx */\n      dup2\n        /* \"upgradeSolidityRemix/mvp-sol/solidity/nft_proxy.sol\":5214:5220  verify */\n      tag_65\n        /* \"upgradeSolidityRemix/mvp-sol/solidity/nft_proxy.sol\":5214:5224  verify(tx) */\n      jump\t// in\n    tag_98:\n        /* \"upgradeSolidityRemix/mvp-sol/solidity/nft_proxy.sol\":5229:5249  Owners memory owners */\n      tag_99\n      tag_87\n      jump\t// in\n    tag_99:\n        /* \"upgradeSolidityRemix/mvp-sol/solidity/nft_proxy.sol\":5252:5306  checkOwners(tx.token, tx.tokenId, tx.to, tx.signCount) */\n      tag_100\n        /* \"upgradeSolidityRemix/mvp-sol/solidity/nft_proxy.sol\":5264:5266  tx */\n      dup3\n        /* \"upgradeSolidityRemix/mvp-sol/solidity/nft_proxy.sol\":5264:5272  tx.token */\n      0x00\n      add\n      mload\n        /* \"upgradeSolidityRemix/mvp-sol/solidity/nft_proxy.sol\":5274:5276  tx */\n      dup4\n        /* \"upgradeSolidityRemix/mvp-sol/solidity/nft_proxy.sol\":5274:5284  tx.tokenId */\n      0x20\n      add\n      mload\n        /* \"upgradeSolidityRemix/mvp-sol/solidity/nft_proxy.sol\":5286:5288  tx */\n      dup5\n        /* \"upgradeSolidityRemix/mvp-sol/solidity/nft_proxy.sol\":5286:5291  tx.to */\n      0x60\n      add\n      mload\n        /* \"upgradeSolidityRemix/mvp-sol/solidity/nft_proxy.sol\":5293:5295  tx */\n      dup6\n        /* \"upgradeSolidityRemix/mvp-sol/solidity/nft_proxy.sol\":5293:5305  tx.signCount */\n      0xe0\n      add\n      mload\n        /* \"upgradeSolidityRemix/mvp-sol/solidity/nft_proxy.sol\":5252:5263  checkOwners */\n      tag_101\n        /* \"upgradeSolidityRemix/mvp-sol/solidity/nft_proxy.sol\":5252:5306  checkOwners(tx.token, tx.tokenId, tx.to, tx.signCount) */\n      jump\t// in\n    tag_100:\n        /* \"upgradeSolidityRemix/mvp-sol/solidity/nft_proxy.sol\":5229:5306  Owners memory owners = checkOwners(tx.token, tx.tokenId, tx.to, tx.signCount) */\n      swap1\n      pop\n        /* \"upgradeSolidityRemix/mvp-sol/solidity/nft_proxy.sol\":5311:5370  _transfer(tx.from, owners, tx.token, tx.tokenId, tx.amount) */\n      tag_102\n        /* \"upgradeSolidityRemix/mvp-sol/solidity/nft_proxy.sol\":5321:5323  tx */\n      dup3\n        /* \"upgradeSolidityRemix/mvp-sol/solidity/nft_proxy.sol\":5321:5328  tx.from */\n      0x40\n      add\n      mload\n        /* \"upgradeSolidityRemix/mvp-sol/solidity/nft_proxy.sol\":5330:5336  owners */\n      dup3\n        /* \"upgradeSolidityRemix/mvp-sol/solidity/nft_proxy.sol\":5338:5340  tx */\n      dup5\n        /* \"upgradeSolidityRemix/mvp-sol/solidity/nft_proxy.sol\":5338:5346  tx.token */\n      0x00\n      add\n      mload\n        /* \"upgradeSolidityRemix/mvp-sol/solidity/nft_proxy.sol\":5348:5350  tx */\n      dup6\n        /* \"upgradeSolidityRemix/mvp-sol/solidity/nft_proxy.sol\":5348:5358  tx.tokenId */\n      0x20\n      add\n      mload\n        /* \"upgradeSolidityRemix/mvp-sol/solidity/nft_proxy.sol\":5360:5362  tx */\n      dup7\n        /* \"upgradeSolidityRemix/mvp-sol/solidity/nft_proxy.sol\":5360:5369  tx.amount */\n      0x80\n      add\n      mload\n        /* \"upgradeSolidityRemix/mvp-sol/solidity/nft_proxy.sol\":5311:5320  _transfer */\n      tag_103\n        /* \"upgradeSolidityRemix/mvp-sol/solidity/nft_proxy.sol\":5311:5370  _transfer(tx.from, owners, tx.token, tx.tokenId, tx.amount) */\n      jump\t// in\n    tag_102:\n        /* \"upgradeSolidityRemix/mvp-sol/solidity/nft_proxy.sol\":5158:5375  function transferFrom(TransferTx memory tx) public {\r... */\n      pop\n      pop\n      jump\t// out\n        /* \"upgradeSolidityRemix/mvp-sol/solidity/nft_proxy.sol\":1757:2188  function transfer(address[] memory to, address token, uint256 tokenId, uint256 amount, uint256 signCount) public {\r... */\n    tag_42:\n        /* \"upgradeSolidityRemix/mvp-sol/solidity/nft_proxy.sol\":1875:1895  Owners memory owners */\n      tag_105\n      tag_87\n      jump\t// in\n    tag_105:\n        /* \"upgradeSolidityRemix/mvp-sol/solidity/nft_proxy.sol\":1898:1936  ownersOf(token, tokenId, _msgSender()) */\n      tag_106\n        /* \"upgradeSolidityRemix/mvp-sol/solidity/nft_proxy.sol\":1907:1912  token */\n      dup6\n        /* \"upgradeSolidityRemix/mvp-sol/solidity/nft_proxy.sol\":1914:1921  tokenId */\n      dup6\n        /* \"upgradeSolidityRemix/mvp-sol/solidity/nft_proxy.sol\":1923:1935  _msgSender() */\n      tag_107\n        /* \"upgradeSolidityRemix/mvp-sol/solidity/nft_proxy.sol\":1923:1933  _msgSender */\n      tag_90\n        /* \"upgradeSolidityRemix/mvp-sol/solidity/nft_proxy.sol\":1923:1935  _msgSender() */\n      jump\t// in\n    tag_107:\n        /* \"upgradeSolidityRemix/mvp-sol/solidity/nft_proxy.sol\":1898:1906  ownersOf */\n      tag_56\n        /* \"upgradeSolidityRemix/mvp-sol/solidity/nft_proxy.sol\":1898:1936  ownersOf(token, tokenId, _msgSender()) */\n      jump\t// in\n    tag_106:\n        /* \"upgradeSolidityRemix/mvp-sol/solidity/nft_proxy.sol\":1875:1936  Owners memory owners = ownersOf(token, tokenId, _msgSender()) */\n      swap1\n      pop\n        /* \"upgradeSolidityRemix/mvp-sol/solidity/nft_proxy.sol\":1969:1970  1 */\n      0x01\n        /* \"upgradeSolidityRemix/mvp-sol/solidity/nft_proxy.sol\":1949:1955  owners */\n      dup2\n        /* \"upgradeSolidityRemix/mvp-sol/solidity/nft_proxy.sol\":1949:1965  owners.signCount */\n      0x20\n      add\n      mload\n        /* \"upgradeSolidityRemix/mvp-sol/solidity/nft_proxy.sol\":1949:1970  owners.signCount == 1 */\n      eq\n        /* \"upgradeSolidityRemix/mvp-sol/solidity/nft_proxy.sol\":1941:2015  require(owners.signCount == 1, \"#NFTProxy#transfer: NO_TRANSFER_SIGN_ERR\") */\n      tag_108\n      jumpi\n      mload(0x40)\n      0x08c379a000000000000000000000000000000000000000000000000000000000\n      dup2\n      mstore\n      0x04\n      add\n      tag_109\n      swap1\n      tag_93\n      jump\t// in\n    tag_109:\n      mload(0x40)\n      dup1\n      swap2\n      sub\n      swap1\n      revert\n    tag_108:\n        /* \"upgradeSolidityRemix/mvp-sol/solidity/nft_proxy.sol\":2054:2076  Owners memory toOwners */\n      tag_110\n      tag_87\n      jump\t// in\n    tag_110:\n        /* \"upgradeSolidityRemix/mvp-sol/solidity/nft_proxy.sol\":2079:2121  checkOwners(token, tokenId, to, signCount) */\n      tag_111\n        /* \"upgradeSolidityRemix/mvp-sol/solidity/nft_proxy.sol\":2091:2096  token */\n      dup7\n        /* \"upgradeSolidityRemix/mvp-sol/solidity/nft_proxy.sol\":2098:2105  tokenId */\n      dup7\n        /* \"upgradeSolidityRemix/mvp-sol/solidity/nft_proxy.sol\":2107:2109  to */\n      dup10\n        /* \"upgradeSolidityRemix/mvp-sol/solidity/nft_proxy.sol\":2111:2120  signCount */\n      dup7\n        /* \"upgradeSolidityRemix/mvp-sol/solidity/nft_proxy.sol\":2079:2090  checkOwners */\n      tag_101\n        /* \"upgradeSolidityRemix/mvp-sol/solidity/nft_proxy.sol\":2079:2121  checkOwners(token, tokenId, to, signCount) */\n      jump\t// in\n    tag_111:\n        /* \"upgradeSolidityRemix/mvp-sol/solidity/nft_proxy.sol\":2054:2121  Owners memory toOwners = checkOwners(token, tokenId, to, signCount) */\n      swap1\n      pop\n        /* \"upgradeSolidityRemix/mvp-sol/solidity/nft_proxy.sol\":2126:2183  _transfer(_msgSender(), toOwners, token, tokenId, amount) */\n      tag_112\n        /* \"upgradeSolidityRemix/mvp-sol/solidity/nft_proxy.sol\":2136:2148  _msgSender() */\n      tag_113\n        /* \"upgradeSolidityRemix/mvp-sol/solidity/nft_proxy.sol\":2136:2146  _msgSender */\n      tag_90\n        /* \"upgradeSolidityRemix/mvp-sol/solidity/nft_proxy.sol\":2136:2148  _msgSender() */\n      jump\t// in\n    tag_113:\n        /* \"upgradeSolidityRemix/mvp-sol/solidity/nft_proxy.sol\":2150:2158  toOwners */\n      dup3\n        /* \"upgradeSolidityRemix/mvp-sol/solidity/nft_proxy.sol\":2160:2165  token */\n      dup9\n        /* \"upgradeSolidityRemix/mvp-sol/solidity/nft_proxy.sol\":2167:2174  tokenId */\n      dup9\n        /* \"upgradeSolidityRemix/mvp-sol/solidity/nft_proxy.sol\":2176:2182  amount */\n      dup9\n        /* \"upgradeSolidityRemix/mvp-sol/solidity/nft_proxy.sol\":2126:2135  _transfer */\n      tag_103\n        /* \"upgradeSolidityRemix/mvp-sol/solidity/nft_proxy.sol\":2126:2183  _transfer(_msgSender(), toOwners, token, tokenId, amount) */\n      jump\t// in\n    tag_112:\n        /* \"upgradeSolidityRemix/mvp-sol/solidity/nft_proxy.sol\":1757:2188  function transfer(address[] memory to, address token, uint256 tokenId, uint256 amount, uint256 signCount) public {\r... */\n      pop\n      pop\n      pop\n      pop\n      pop\n      pop\n      pop\n      jump\t// out\n        /* \"upgradeSolidityRemix/mvp-sol/solidity/nft_proxy.sol\":5007:5153  function withdrawFrom(TransferTx memory tx) public {\r... */\n    tag_45:\n        /* \"upgradeSolidityRemix/mvp-sol/solidity/nft_proxy.sol\":5063:5073  verify(tx) */\n      tag_115\n        /* \"upgradeSolidityRemix/mvp-sol/solidity/nft_proxy.sol\":5070:5072  tx */\n      dup2\n        /* \"upgradeSolidityRemix/mvp-sol/solidity/nft_proxy.sol\":5063:5069  verify */\n      tag_65\n        /* \"upgradeSolidityRemix/mvp-sol/solidity/nft_proxy.sol\":5063:5073  verify(tx) */\n      jump\t// in\n    tag_115:\n        /* \"upgradeSolidityRemix/mvp-sol/solidity/nft_proxy.sol\":5078:5148  _withdraw(tx.from, tx.to[0], tx.token, tx.tokenId, tx.amount, tx.data) */\n      tag_116\n        /* \"upgradeSolidityRemix/mvp-sol/solidity/nft_proxy.sol\":5088:5090  tx */\n      dup2\n        /* \"upgradeSolidityRemix/mvp-sol/solidity/nft_proxy.sol\":5088:5095  tx.from */\n      0x40\n      add\n      mload\n        /* \"upgradeSolidityRemix/mvp-sol/solidity/nft_proxy.sol\":5097:5099  tx */\n      dup3\n        /* \"upgradeSolidityRemix/mvp-sol/solidity/nft_proxy.sol\":5097:5102  tx.to */\n      0x60\n      add\n      mload\n        /* \"upgradeSolidityRemix/mvp-sol/solidity/nft_proxy.sol\":5103:5104  0 */\n      0x00\n        /* \"upgradeSolidityRemix/mvp-sol/solidity/nft_proxy.sol\":5097:5105  tx.to[0] */\n      dup2\n      mload\n      dup2\n      lt\n      tag_117\n      jumpi\n      invalid\n    tag_117:\n      0x20\n      mul\n      0x20\n      add\n      add\n      mload\n        /* \"upgradeSolidityRemix/mvp-sol/solidity/nft_proxy.sol\":5107:5109  tx */\n      dup4\n        /* \"upgradeSolidityRemix/mvp-sol/solidity/nft_proxy.sol\":5107:5115  tx.token */\n      0x00\n      add\n      mload\n        /* \"upgradeSolidityRemix/mvp-sol/solidity/nft_proxy.sol\":5117:5119  tx */\n      dup5\n        /* \"upgradeSolidityRemix/mvp-sol/solidity/nft_proxy.sol\":5117:5127  tx.tokenId */\n      0x20\n      add\n      mload\n        /* \"upgradeSolidityRemix/mvp-sol/solidity/nft_proxy.sol\":5129:5131  tx */\n      dup6\n        /* \"upgradeSolidityRemix/mvp-sol/solidity/nft_proxy.sol\":5129:5138  tx.amount */\n      0x80\n      add\n      mload\n        /* \"upgradeSolidityRemix/mvp-sol/solidity/nft_proxy.sol\":5140:5142  tx */\n      dup7\n        /* \"upgradeSolidityRemix/mvp-sol/solidity/nft_proxy.sol\":5140:5147  tx.data */\n      0xa0\n      add\n      mload\n        /* \"upgradeSolidityRemix/mvp-sol/solidity/nft_proxy.sol\":5078:5087  _withdraw */\n      tag_96\n        /* \"upgradeSolidityRemix/mvp-sol/solidity/nft_proxy.sol\":5078:5148  _withdraw(tx.from, tx.to[0], tx.token, tx.tokenId, tx.amount, tx.data) */\n      jump\t// in\n    tag_116:\n        /* \"upgradeSolidityRemix/mvp-sol/solidity/nft_proxy.sol\":5007:5153  function withdrawFrom(TransferTx memory tx) public {\r... */\n      pop\n      jump\t// out\n        /* \"upgradeSolidityRemix/mvp-sol/solidity/erc1155_proxy.sol\":4491:4658  function balanceOf(address token, uint256 tokenId, address owner) public view override returns(uint256) {\r... */\n    tag_49:\n        /* \"upgradeSolidityRemix/mvp-sol/solidity/erc1155_proxy.sol\":4586:4593  uint256 */\n      0x00\n        /* \"upgradeSolidityRemix/mvp-sol/solidity/erc1155_proxy.sol\":4607:4614  _assets */\n      0x02\n        /* \"upgradeSolidityRemix/mvp-sol/solidity/erc1155_proxy.sol\":4607:4621  _assets[token] */\n      0x00\n        /* \"upgradeSolidityRemix/mvp-sol/solidity/erc1155_proxy.sol\":4615:4620  token */\n      dup6\n        /* \"upgradeSolidityRemix/mvp-sol/solidity/erc1155_proxy.sol\":4607:4621  _assets[token] */\n      0xffffffffffffffffffffffffffffffffffffffff\n      and\n      0xffffffffffffffffffffffffffffffffffffffff\n      and\n      dup2\n      mstore\n      0x20\n      add\n      swap1\n      dup2\n      mstore\n      0x20\n      add\n      0x00\n      keccak256\n        /* \"upgradeSolidityRemix/mvp-sol/solidity/erc1155_proxy.sol\":4607:4630  _assets[token][tokenId] */\n      0x00\n        /* \"upgradeSolidityRemix/mvp-sol/solidity/erc1155_proxy.sol\":4622:4629  tokenId */\n      dup5\n        /* \"upgradeSolidityRemix/mvp-sol/solidity/erc1155_proxy.sol\":4607:4630  _assets[token][tokenId] */\n      dup2\n      mstore\n      0x20\n      add\n      swap1\n      dup2\n      mstore\n      0x20\n      add\n      0x00\n      keccak256\n        /* \"upgradeSolidityRemix/mvp-sol/solidity/erc1155_proxy.sol\":4607:4637  _assets[token][tokenId].values */\n      0x01\n      add\n        /* \"upgradeSolidityRemix/mvp-sol/solidity/erc1155_proxy.sol\":4607:4644  _assets[token][tokenId].values[owner] */\n      0x00\n        /* \"upgradeSolidityRemix/mvp-sol/solidity/erc1155_proxy.sol\":4638:4643  owner */\n      dup4\n        /* \"upgradeSolidityRemix/mvp-sol/solidity/erc1155_proxy.sol\":4607:4644  _assets[token][tokenId].values[owner] */\n      0xffffffffffffffffffffffffffffffffffffffff\n      and\n      0xffffffffffffffffffffffffffffffffffffffff\n      and\n      dup2\n      mstore\n      0x20\n      add\n      swap1\n      dup2\n      mstore\n      0x20\n      add\n      0x00\n      keccak256\n        /* \"upgradeSolidityRemix/mvp-sol/solidity/erc1155_proxy.sol\":4607:4653  _assets[token][tokenId].values[owner].balances */\n      0x00\n      add\n      sload\n        /* \"upgradeSolidityRemix/mvp-sol/solidity/erc1155_proxy.sol\":4600:4653  return _assets[token][tokenId].values[owner].balances */\n      swap1\n      pop\n        /* \"upgradeSolidityRemix/mvp-sol/solidity/erc1155_proxy.sol\":4491:4658  function balanceOf(address token, uint256 tokenId, address owner) public view override returns(uint256) {\r... */\n      swap4\n      swap3\n      pop\n      pop\n      pop\n      jump\t// out\n        /* \"upgradeSolidityRemix/mvp-sol/solidity/base.sol\":3754:3887  function renounceOwnership() public virtual onlyOwner {\r... */\n    tag_53:\n        /* \"upgradeSolidityRemix/mvp-sol/solidity/base.sol\":3228:3240  _msgSender() */\n      tag_120\n        /* \"upgradeSolidityRemix/mvp-sol/solidity/base.sol\":3228:3238  _msgSender */\n      tag_90\n        /* \"upgradeSolidityRemix/mvp-sol/solidity/base.sol\":3228:3240  _msgSender() */\n      jump\t// in\n    tag_120:\n        /* \"upgradeSolidityRemix/mvp-sol/solidity/base.sol\":3218:3240  _owner == _msgSender() */\n      0xffffffffffffffffffffffffffffffffffffffff\n      and\n        /* \"upgradeSolidityRemix/mvp-sol/solidity/base.sol\":3218:3224  _owner */\n      0x00\n      dup1\n      sload\n      swap1\n      0x0100\n      exp\n      swap1\n      div\n      0xffffffffffffffffffffffffffffffffffffffff\n      and\n        /* \"upgradeSolidityRemix/mvp-sol/solidity/base.sol\":3218:3240  _owner == _msgSender() */\n      0xffffffffffffffffffffffffffffffffffffffff\n      and\n      eq\n        /* \"upgradeSolidityRemix/mvp-sol/solidity/base.sol\":3210:3277  require(_owner == _msgSender(), \"Ownable: caller is not the owner\") */\n      tag_121\n      jumpi\n      mload(0x40)\n      0x08c379a000000000000000000000000000000000000000000000000000000000\n      dup2\n      mstore\n      0x04\n      add\n      tag_122\n      swap1\n      tag_123\n      jump\t// in\n    tag_122:\n      mload(0x40)\n      dup1\n      swap2\n      sub\n      swap1\n      revert\n    tag_121:\n        /* \"upgradeSolidityRemix/mvp-sol/solidity/base.sol\":3855:3856  0 */\n      0x00\n        /* \"upgradeSolidityRemix/mvp-sol/solidity/base.sol\":3818:3858  OwnershipTransferred(_owner, address(0)) */\n      0xffffffffffffffffffffffffffffffffffffffff\n      and\n        /* \"upgradeSolidityRemix/mvp-sol/solidity/base.sol\":3839:3845  _owner */\n      0x00\n      dup1\n      sload\n      swap1\n      0x0100\n      exp\n      swap1\n      div\n      0xffffffffffffffffffffffffffffffffffffffff\n      and\n        /* \"upgradeSolidityRemix/mvp-sol/solidity/base.sol\":3818:3858  OwnershipTransferred(_owner, address(0)) */\n      0xffffffffffffffffffffffffffffffffffffffff\n      and\n      0x8be0079c531659141344cd1fd0a4f28419497f9722a3daafe3b4186f6b6457e0\n      mload(0x40)\n      mload(0x40)\n      dup1\n      swap2\n      sub\n      swap1\n      log3\n        /* \"upgradeSolidityRemix/mvp-sol/solidity/base.sol\":3880:3881  0 */\n      0x00\n        /* \"upgradeSolidityRemix/mvp-sol/solidity/base.sol\":3863:3869  _owner */\n      dup1\n      0x00\n        /* \"upgradeSolidityRemix/mvp-sol/solidity/base.sol\":3863:3882  _owner = address(0) */\n      0x0100\n      exp\n      dup2\n      sload\n      dup2\n      0xffffffffffffffffffffffffffffffffffffffff\n      mul\n      not\n      and\n      swap1\n      dup4\n      0xffffffffffffffffffffffffffffffffffffffff\n      and\n      mul\n      or\n      swap1\n      sstore\n      pop\n        /* \"upgradeSolidityRemix/mvp-sol/solidity/base.sol\":3754:3887  function renounceOwnership() public virtual onlyOwner {\r... */\n      jump\t// out\n        /* \"upgradeSolidityRemix/mvp-sol/solidity/erc1155_proxy.sol\":4663:4826  function ownersOf(address token, uint256 tokenId, address owner) public view override returns(Owners memory) {\r... */\n    tag_56:\n        /* \"upgradeSolidityRemix/mvp-sol/solidity/erc1155_proxy.sol\":4757:4770  Owners memory */\n      tag_125\n      tag_87\n      jump\t// in\n    tag_125:\n        /* \"upgradeSolidityRemix/mvp-sol/solidity/erc1155_proxy.sol\":4784:4791  _assets */\n      0x02\n        /* \"upgradeSolidityRemix/mvp-sol/solidity/erc1155_proxy.sol\":4784:4798  _assets[token] */\n      0x00\n        /* \"upgradeSolidityRemix/mvp-sol/solidity/erc1155_proxy.sol\":4792:4797  token */\n      dup6\n        /* \"upgradeSolidityRemix/mvp-sol/solidity/erc1155_proxy.sol\":4784:4798  _assets[token] */\n      0xffffffffffffffffffffffffffffffffffffffff\n      and\n      0xffffffffffffffffffffffffffffffffffffffff\n      and\n      dup2\n      mstore\n      0x20\n      add\n      swap1\n      dup2\n      mstore\n      0x20\n      add\n      0x00\n      keccak256\n        /* \"upgradeSolidityRemix/mvp-sol/solidity/erc1155_proxy.sol\":4784:4807  _assets[token][tokenId] */\n      0x00\n        /* \"upgradeSolidityRemix/mvp-sol/solidity/erc1155_proxy.sol\":4799:4806  tokenId */\n      dup5\n        /* \"upgradeSolidityRemix/mvp-sol/solidity/erc1155_proxy.sol\":4784:4807  _assets[token][tokenId] */\n      dup2\n      mstore\n      0x20\n      add\n      swap1\n      dup2\n      mstore\n      0x20\n      add\n      0x00\n      keccak256\n        /* \"upgradeSolidityRemix/mvp-sol/solidity/erc1155_proxy.sol\":4784:4814  _assets[token][tokenId].values */\n      0x01\n      add\n        /* \"upgradeSolidityRemix/mvp-sol/solidity/erc1155_proxy.sol\":4784:4821  _assets[token][tokenId].values[owner] */\n      0x00\n        /* \"upgradeSolidityRemix/mvp-sol/solidity/erc1155_proxy.sol\":4815:4820  owner */\n      dup4\n        /* \"upgradeSolidityRemix/mvp-sol/solidity/erc1155_proxy.sol\":4784:4821  _assets[token][tokenId].values[owner] */\n      0xffffffffffffffffffffffffffffffffffffffff\n      and\n      0xffffffffffffffffffffffffffffffffffffffff\n      and\n      dup2\n      mstore\n      0x20\n      add\n      swap1\n      dup2\n      mstore\n      0x20\n      add\n      0x00\n      keccak256\n        /* \"upgradeSolidityRemix/mvp-sol/solidity/erc1155_proxy.sol\":4777:4821  return _assets[token][tokenId].values[owner] */\n      mload(0x40)\n      dup1\n      0x60\n      add\n      0x40\n      mstore\n      swap1\n      dup2\n      0x00\n      dup3\n      add\n      sload\n      dup2\n      mstore\n      0x20\n      add\n      0x01\n      dup3\n      add\n      sload\n      dup2\n      mstore\n      0x20\n      add\n      0x02\n      dup3\n      add\n      dup1\n      sload\n      dup1\n      0x20\n      mul\n      0x20\n      add\n      mload(0x40)\n      swap1\n      dup2\n      add\n      0x40\n      mstore\n      dup1\n      swap3\n      swap2\n      swap1\n      dup2\n      dup2\n      mstore\n      0x20\n      add\n      dup3\n      dup1\n      sload\n      dup1\n      iszero\n      tag_127\n      jumpi\n      0x20\n      mul\n      dup3\n      add\n      swap2\n      swap1\n      0x00\n      mstore\n      keccak256(0x00, 0x20)\n      swap1\n    tag_128:\n      dup2\n      0x00\n      swap1\n      sload\n      swap1\n      0x0100\n      exp\n      swap1\n      div\n      0xffffffffffffffffffffffffffffffffffffffff\n      and\n      0xffffffffffffffffffffffffffffffffffffffff\n      and\n      dup2\n      mstore\n      0x20\n      add\n      swap1\n      0x01\n      add\n      swap1\n      dup1\n      dup4\n      gt\n      tag_128\n      jumpi\n    tag_127:\n      pop\n      pop\n      pop\n      pop\n      pop\n      dup2\n      mstore\n      pop\n      pop\n      swap1\n      pop\n        /* \"upgradeSolidityRemix/mvp-sol/solidity/erc1155_proxy.sol\":4663:4826  function ownersOf(address token, uint256 tokenId, address owner) public view override returns(Owners memory) {\r... */\n      swap4\n      swap3\n      pop\n      pop\n      pop\n      jump\t// out\n        /* \"upgradeSolidityRemix/mvp-sol/solidity/base.sol\":3357:3427  function owner() public view returns (address) {\r... */\n    tag_60:\n        /* \"upgradeSolidityRemix/mvp-sol/solidity/base.sol\":3395:3402  address */\n      0x00\n        /* \"upgradeSolidityRemix/mvp-sol/solidity/base.sol\":3416:3422  _owner */\n      dup1\n      0x00\n      swap1\n      sload\n      swap1\n      0x0100\n      exp\n      swap1\n      div\n      0xffffffffffffffffffffffffffffffffffffffff\n      and\n        /* \"upgradeSolidityRemix/mvp-sol/solidity/base.sol\":3409:3422  return _owner */\n      swap1\n      pop\n        /* \"upgradeSolidityRemix/mvp-sol/solidity/base.sol\":3357:3427  function owner() public view returns (address) {\r... */\n      swap1\n      jump\t// out\n        /* \"upgradeSolidityRemix/mvp-sol/solidity/nft_proxy.sol\":3325:5002  function verify(TransferTx memory tx) view public {\r... */\n    tag_65:\n        /* \"upgradeSolidityRemix/mvp-sol/solidity/nft_proxy.sol\":3400:3415  block.timestamp */\n      timestamp\n        /* \"upgradeSolidityRemix/mvp-sol/solidity/nft_proxy.sol\":3388:3390  tx */\n      dup2\n        /* \"upgradeSolidityRemix/mvp-sol/solidity/nft_proxy.sol\":3388:3397  tx.expiry */\n      0xc0\n      add\n      mload\n        /* \"upgradeSolidityRemix/mvp-sol/solidity/nft_proxy.sol\":3388:3415  tx.expiry > block.timestamp */\n      gt\n        /* \"upgradeSolidityRemix/mvp-sol/solidity/nft_proxy.sol\":3380:3453  require(tx.expiry > block.timestamp, \"#NFTProxy#verify: TRANSFER_EXPIRY\") */\n      tag_131\n      jumpi\n      mload(0x40)\n      0x08c379a000000000000000000000000000000000000000000000000000000000\n      dup2\n      mstore\n      0x04\n      add\n      tag_132\n      swap1\n      tag_133\n      jump\t// in\n    tag_132:\n      mload(0x40)\n      dup1\n      swap2\n      sub\n      swap1\n      revert\n    tag_131:\n        /* \"upgradeSolidityRemix/mvp-sol/solidity/nft_proxy.sol\":3460:3473  address token */\n      0x00\n        /* \"upgradeSolidityRemix/mvp-sol/solidity/nft_proxy.sol\":3476:3478  tx */\n      dup2\n        /* \"upgradeSolidityRemix/mvp-sol/solidity/nft_proxy.sol\":3476:3484  tx.token */\n      0x00\n      add\n      mload\n        /* \"upgradeSolidityRemix/mvp-sol/solidity/nft_proxy.sol\":3460:3484  address token = tx.token */\n      swap1\n      pop\n        /* \"upgradeSolidityRemix/mvp-sol/solidity/nft_proxy.sol\":3489:3504  uint256 tokenId */\n      0x00\n        /* \"upgradeSolidityRemix/mvp-sol/solidity/nft_proxy.sol\":3507:3509  tx */\n      dup3\n        /* \"upgradeSolidityRemix/mvp-sol/solidity/nft_proxy.sol\":3507:3517  tx.tokenId */\n      0x20\n      add\n      mload\n        /* \"upgradeSolidityRemix/mvp-sol/solidity/nft_proxy.sol\":3489:3517  uint256 tokenId = tx.tokenId */\n      swap1\n      pop\n        /* \"upgradeSolidityRemix/mvp-sol/solidity/nft_proxy.sol\":3522:3534  address from */\n      0x00\n        /* \"upgradeSolidityRemix/mvp-sol/solidity/nft_proxy.sol\":3537:3539  tx */\n      dup4\n        /* \"upgradeSolidityRemix/mvp-sol/solidity/nft_proxy.sol\":3537:3544  tx.from */\n      0x40\n      add\n      mload\n        /* \"upgradeSolidityRemix/mvp-sol/solidity/nft_proxy.sol\":3522:3544  address from = tx.from */\n      swap1\n      pop\n        /* \"upgradeSolidityRemix/mvp-sol/solidity/nft_proxy.sol\":3549:3572  address[] memory signer */\n      0x60\n        /* \"upgradeSolidityRemix/mvp-sol/solidity/nft_proxy.sol\":3575:3577  tx */\n      dup5\n        /* \"upgradeSolidityRemix/mvp-sol/solidity/nft_proxy.sol\":3575:3584  tx.signer */\n      0x0100\n      add\n      mload\n        /* \"upgradeSolidityRemix/mvp-sol/solidity/nft_proxy.sol\":3549:3584  address[] memory signer = tx.signer */\n      swap1\n      pop\n        /* \"upgradeSolidityRemix/mvp-sol/solidity/nft_proxy.sol\":3589:3612  Signature[] memory rsv_ */\n      0x60\n        /* \"upgradeSolidityRemix/mvp-sol/solidity/nft_proxy.sol\":3615:3617  tx */\n      dup6\n        /* \"upgradeSolidityRemix/mvp-sol/solidity/nft_proxy.sol\":3615:3621  tx.rsv */\n      0x0120\n      add\n      mload\n        /* \"upgradeSolidityRemix/mvp-sol/solidity/nft_proxy.sol\":3589:3621  Signature[] memory rsv_ = tx.rsv */\n      swap1\n      pop\n        /* \"upgradeSolidityRemix/mvp-sol/solidity/nft_proxy.sol\":3628:3644  bytes memory buf */\n      0x60\n        /* \"upgradeSolidityRemix/mvp-sol/solidity/nft_proxy.sol\":3647:3663  encodePacked(tx) */\n      tag_134\n        /* \"upgradeSolidityRemix/mvp-sol/solidity/nft_proxy.sol\":3660:3662  tx */\n      dup8\n        /* \"upgradeSolidityRemix/mvp-sol/solidity/nft_proxy.sol\":3647:3659  encodePacked */\n      tag_29\n        /* \"upgradeSolidityRemix/mvp-sol/solidity/nft_proxy.sol\":3647:3663  encodePacked(tx) */\n      jump\t// in\n    tag_134:\n        /* \"upgradeSolidityRemix/mvp-sol/solidity/nft_proxy.sol\":3628:3663  bytes memory buf = encodePacked(tx) */\n      swap1\n      pop\n        /* \"upgradeSolidityRemix/mvp-sol/solidity/nft_proxy.sol\":3734:3746  bytes32 hash */\n      0x00\n        /* \"upgradeSolidityRemix/mvp-sol/solidity/nft_proxy.sol\":3759:3762  buf */\n      dup2\n        /* \"upgradeSolidityRemix/mvp-sol/solidity/nft_proxy.sol\":3749:3763  keccak256(buf) */\n      dup1\n      mload\n      swap1\n      0x20\n      add\n      keccak256\n        /* \"upgradeSolidityRemix/mvp-sol/solidity/nft_proxy.sol\":3734:3763  bytes32 hash = keccak256(buf) */\n      swap1\n      pop\n        /* \"upgradeSolidityRemix/mvp-sol/solidity/nft_proxy.sol\":3770:3790  Owners memory owners */\n      tag_135\n      tag_87\n      jump\t// in\n    tag_135:\n        /* \"upgradeSolidityRemix/mvp-sol/solidity/nft_proxy.sol\":3793:3823  ownersOf(token, tokenId, from) */\n      tag_136\n        /* \"upgradeSolidityRemix/mvp-sol/solidity/nft_proxy.sol\":3802:3807  token */\n      dup9\n        /* \"upgradeSolidityRemix/mvp-sol/solidity/nft_proxy.sol\":3809:3816  tokenId */\n      dup9\n        /* \"upgradeSolidityRemix/mvp-sol/solidity/nft_proxy.sol\":3818:3822  from */\n      dup9\n        /* \"upgradeSolidityRemix/mvp-sol/solidity/nft_proxy.sol\":3793:3801  ownersOf */\n      tag_56\n        /* \"upgradeSolidityRemix/mvp-sol/solidity/nft_proxy.sol\":3793:3823  ownersOf(token, tokenId, from) */\n      jump\t// in\n    tag_136:\n        /* \"upgradeSolidityRemix/mvp-sol/solidity/nft_proxy.sol\":3770:3823  Owners memory owners = ownersOf(token, tokenId, from) */\n      swap1\n      pop\n        /* \"upgradeSolidityRemix/mvp-sol/solidity/nft_proxy.sol\":4046:4047  0 */\n      0x00\n        /* \"upgradeSolidityRemix/mvp-sol/solidity/nft_proxy.sol\":4030:4048  from != address(0) */\n      0xffffffffffffffffffffffffffffffffffffffff\n      and\n        /* \"upgradeSolidityRemix/mvp-sol/solidity/nft_proxy.sol\":4030:4034  from */\n      dup7\n        /* \"upgradeSolidityRemix/mvp-sol/solidity/nft_proxy.sol\":4030:4048  from != address(0) */\n      0xffffffffffffffffffffffffffffffffffffffff\n      and\n      eq\n      iszero\n        /* \"upgradeSolidityRemix/mvp-sol/solidity/nft_proxy.sol\":4022:4083  require(from != address(0), \"#NFTProxy#verify: ADDRESS_ZERO\") */\n      tag_137\n      jumpi\n      mload(0x40)\n      0x08c379a000000000000000000000000000000000000000000000000000000000\n      dup2\n      mstore\n      0x04\n      add\n      tag_138\n      swap1\n      tag_139\n      jump\t// in\n    tag_138:\n      mload(0x40)\n      dup1\n      swap2\n      sub\n      swap1\n      revert\n    tag_137:\n        /* \"upgradeSolidityRemix/mvp-sol/solidity/nft_proxy.sol\":4104:4110  owners */\n      dup1\n        /* \"upgradeSolidityRemix/mvp-sol/solidity/nft_proxy.sol\":4104:4117  owners.owners */\n      0x40\n      add\n      mload\n        /* \"upgradeSolidityRemix/mvp-sol/solidity/nft_proxy.sol\":4118:4119  0 */\n      0x00\n        /* \"upgradeSolidityRemix/mvp-sol/solidity/nft_proxy.sol\":4104:4120  owners.owners[0] */\n      dup2\n      mload\n      dup2\n      lt\n      tag_140\n      jumpi\n      invalid\n    tag_140:\n      0x20\n      mul\n      0x20\n      add\n      add\n      mload\n        /* \"upgradeSolidityRemix/mvp-sol/solidity/nft_proxy.sol\":4096:4120  from == owners.owners[0] */\n      0xffffffffffffffffffffffffffffffffffffffff\n      and\n        /* \"upgradeSolidityRemix/mvp-sol/solidity/nft_proxy.sol\":4096:4100  from */\n      dup7\n        /* \"upgradeSolidityRemix/mvp-sol/solidity/nft_proxy.sol\":4096:4120  from == owners.owners[0] */\n      0xffffffffffffffffffffffffffffffffffffffff\n      and\n      eq\n        /* \"upgradeSolidityRemix/mvp-sol/solidity/nft_proxy.sol\":4088:4157  require(from == owners.owners[0], \"#NFTProxy#verify: OWNER_NO_MATCH\") */\n      tag_141\n      jumpi\n      mload(0x40)\n      0x08c379a000000000000000000000000000000000000000000000000000000000\n      dup2\n      mstore\n      0x04\n      add\n      tag_142\n      swap1\n      tag_143\n      jump\t// in\n    tag_142:\n      mload(0x40)\n      dup1\n      swap2\n      sub\n      swap1\n      revert\n    tag_141:\n        /* \"upgradeSolidityRemix/mvp-sol/solidity/nft_proxy.sol\":4187:4193  owners */\n      dup1\n        /* \"upgradeSolidityRemix/mvp-sol/solidity/nft_proxy.sol\":4187:4203  owners.signCount */\n      0x20\n      add\n      mload\n        /* \"upgradeSolidityRemix/mvp-sol/solidity/nft_proxy.sol\":4170:4176  signer */\n      dup6\n        /* \"upgradeSolidityRemix/mvp-sol/solidity/nft_proxy.sol\":4170:4183  signer.length */\n      mload\n        /* \"upgradeSolidityRemix/mvp-sol/solidity/nft_proxy.sol\":4170:4203  signer.length >= owners.signCount */\n      lt\n      iszero\n        /* \"upgradeSolidityRemix/mvp-sol/solidity/nft_proxy.sol\":4162:4247  require(signer.length >= owners.signCount, \"#NFTProxy#verify: SIGN_COUNT_TOO_LITTLE\") */\n      tag_144\n      jumpi\n      mload(0x40)\n      0x08c379a000000000000000000000000000000000000000000000000000000000\n      dup2\n      mstore\n      0x04\n      add\n      tag_145\n      swap1\n      tag_146\n      jump\t// in\n    tag_145:\n      mload(0x40)\n      dup1\n      swap2\n      sub\n      swap1\n      revert\n    tag_144:\n        /* \"upgradeSolidityRemix/mvp-sol/solidity/nft_proxy.sol\":4277:4281  rsv_ */\n      dup4\n        /* \"upgradeSolidityRemix/mvp-sol/solidity/nft_proxy.sol\":4277:4288  rsv_.length */\n      mload\n        /* \"upgradeSolidityRemix/mvp-sol/solidity/nft_proxy.sol\":4260:4266  signer */\n      dup6\n        /* \"upgradeSolidityRemix/mvp-sol/solidity/nft_proxy.sol\":4260:4273  signer.length */\n      mload\n        /* \"upgradeSolidityRemix/mvp-sol/solidity/nft_proxy.sol\":4260:4288  signer.length == rsv_.length */\n      eq\n        /* \"upgradeSolidityRemix/mvp-sol/solidity/nft_proxy.sol\":4252:4330  require(signer.length == rsv_.length, \"#NFTProxy#verify: BAD_RSV_LIST_LENGTH\") */\n      tag_147\n      jumpi\n      mload(0x40)\n      0x08c379a000000000000000000000000000000000000000000000000000000000\n      dup2\n      mstore\n      0x04\n      add\n      tag_148\n      swap1\n      tag_149\n      jump\t// in\n    tag_148:\n      mload(0x40)\n      dup1\n      swap2\n      sub\n      swap1\n      revert\n    tag_147:\n        /* \"upgradeSolidityRemix/mvp-sol/solidity/nft_proxy.sol\":4337:4359  address[] memory addrs */\n      0x60\n        /* \"upgradeSolidityRemix/mvp-sol/solidity/nft_proxy.sol\":4376:4382  owners */\n      dup2\n        /* \"upgradeSolidityRemix/mvp-sol/solidity/nft_proxy.sol\":4376:4392  owners.signCount */\n      0x20\n      add\n      mload\n        /* \"upgradeSolidityRemix/mvp-sol/solidity/nft_proxy.sol\":4362:4393  new address[](owners.signCount) */\n      0xffffffffffffffff\n      dup2\n      gt\n      dup1\n      iszero\n      tag_150\n      jumpi\n      0x00\n      dup1\n      revert\n    tag_150:\n      pop\n      mload(0x40)\n      swap1\n      dup1\n      dup3\n      mstore\n      dup1\n      0x20\n      mul\n      0x20\n      add\n      dup3\n      add\n      0x40\n      mstore\n      dup1\n      iszero\n      tag_151\n      jumpi\n      dup2\n      0x20\n      add\n      0x20\n      dup3\n      mul\n      dup1\n      calldatasize\n      dup4\n      calldatacopy\n      dup1\n      dup3\n      add\n      swap2\n      pop\n      pop\n      swap1\n      pop\n    tag_151:\n      pop\n        /* \"upgradeSolidityRemix/mvp-sol/solidity/nft_proxy.sol\":4337:4393  address[] memory addrs = new address[](owners.signCount) */\n      swap1\n      pop\n        /* \"upgradeSolidityRemix/mvp-sol/solidity/nft_proxy.sol\":4398:4415  uint256 signCount */\n      0x00\n        /* \"upgradeSolidityRemix/mvp-sol/solidity/nft_proxy.sol\":4431:4440  uint256 i */\n      dup1\n        /* \"upgradeSolidityRemix/mvp-sol/solidity/nft_proxy.sol\":4426:4912  for (uint256 i = 0; i < signer.length; i++) {\r... */\n    tag_152:\n        /* \"upgradeSolidityRemix/mvp-sol/solidity/nft_proxy.sol\":4450:4456  signer */\n      dup8\n        /* \"upgradeSolidityRemix/mvp-sol/solidity/nft_proxy.sol\":4450:4463  signer.length */\n      mload\n        /* \"upgradeSolidityRemix/mvp-sol/solidity/nft_proxy.sol\":4446:4447  i */\n      dup2\n        /* \"upgradeSolidityRemix/mvp-sol/solidity/nft_proxy.sol\":4446:4463  i < signer.length */\n      lt\n        /* \"upgradeSolidityRemix/mvp-sol/solidity/nft_proxy.sol\":4426:4912  for (uint256 i = 0; i < signer.length; i++) {\r... */\n      iszero\n      tag_153\n      jumpi\n        /* \"upgradeSolidityRemix/mvp-sol/solidity/nft_proxy.sol\":4476:4488  address addr */\n      0x00\n        /* \"upgradeSolidityRemix/mvp-sol/solidity/nft_proxy.sol\":4491:4497  signer */\n      dup9\n        /* \"upgradeSolidityRemix/mvp-sol/solidity/nft_proxy.sol\":4498:4499  i */\n      dup3\n        /* \"upgradeSolidityRemix/mvp-sol/solidity/nft_proxy.sol\":4491:4500  signer[i] */\n      dup2\n      mload\n      dup2\n      lt\n      tag_155\n      jumpi\n      invalid\n    tag_155:\n      0x20\n      mul\n      0x20\n      add\n      add\n      mload\n        /* \"upgradeSolidityRemix/mvp-sol/solidity/nft_proxy.sol\":4476:4500  address addr = signer[i] */\n      swap1\n      pop\n        /* \"upgradeSolidityRemix/mvp-sol/solidity/nft_proxy.sol\":4534:4536  -1 */\n      0xffffffffffffffffffffffffffffffffffffffffffffffffffffffffffffffff\n        /* \"upgradeSolidityRemix/mvp-sol/solidity/nft_proxy.sol\":4510:4530  indexOf(addrs, addr) */\n      tag_156\n        /* \"upgradeSolidityRemix/mvp-sol/solidity/nft_proxy.sol\":4518:4523  addrs */\n      dup6\n        /* \"upgradeSolidityRemix/mvp-sol/solidity/nft_proxy.sol\":4525:4529  addr */\n      dup4\n        /* \"upgradeSolidityRemix/mvp-sol/solidity/nft_proxy.sol\":4510:4517  indexOf */\n      tag_157\n        /* \"upgradeSolidityRemix/mvp-sol/solidity/nft_proxy.sol\":4510:4530  indexOf(addrs, addr) */\n      jump\t// in\n    tag_156:\n        /* \"upgradeSolidityRemix/mvp-sol/solidity/nft_proxy.sol\":4510:4536  indexOf(addrs, addr) == -1 */\n      eq\n        /* \"upgradeSolidityRemix/mvp-sol/solidity/nft_proxy.sol\":4510:4574  indexOf(addrs, addr) == -1 && indexOf(owners.owners, addr) != -1 */\n      dup1\n      iszero\n      tag_158\n      jumpi\n      pop\n        /* \"upgradeSolidityRemix/mvp-sol/solidity/nft_proxy.sol\":4572:4574  -1 */\n      0xffffffffffffffffffffffffffffffffffffffffffffffffffffffffffffffff\n        /* \"upgradeSolidityRemix/mvp-sol/solidity/nft_proxy.sol\":4540:4568  indexOf(owners.owners, addr) */\n      tag_159\n        /* \"upgradeSolidityRemix/mvp-sol/solidity/nft_proxy.sol\":4548:4554  owners */\n      dup7\n        /* \"upgradeSolidityRemix/mvp-sol/solidity/nft_proxy.sol\":4548:4561  owners.owners */\n      0x40\n      add\n      mload\n        /* \"upgradeSolidityRemix/mvp-sol/solidity/nft_proxy.sol\":4563:4567  addr */\n      dup4\n        /* \"upgradeSolidityRemix/mvp-sol/solidity/nft_proxy.sol\":4540:4547  indexOf */\n      tag_157\n        /* \"upgradeSolidityRemix/mvp-sol/solidity/nft_proxy.sol\":4540:4568  indexOf(owners.owners, addr) */\n      jump\t// in\n    tag_159:\n        /* \"upgradeSolidityRemix/mvp-sol/solidity/nft_proxy.sol\":4540:4574  indexOf(owners.owners, addr) != -1 */\n      eq\n      iszero\n        /* \"upgradeSolidityRemix/mvp-sol/solidity/nft_proxy.sol\":4510:4574  indexOf(addrs, addr) == -1 && indexOf(owners.owners, addr) != -1 */\n    tag_158:\n        /* \"upgradeSolidityRemix/mvp-sol/solidity/nft_proxy.sol\":4506:4907  if (indexOf(addrs, addr) == -1 && indexOf(owners.owners, addr) != -1) { // Exclude duplicates\r... */\n      iszero\n      tag_160\n      jumpi\n        /* \"upgradeSolidityRemix/mvp-sol/solidity/nft_proxy.sol\":4605:4625  Signature memory rsv */\n      tag_161\n      tag_162\n      jump\t// in\n    tag_161:\n        /* \"upgradeSolidityRemix/mvp-sol/solidity/nft_proxy.sol\":4628:4632  rsv_ */\n      dup9\n        /* \"upgradeSolidityRemix/mvp-sol/solidity/nft_proxy.sol\":4633:4634  i */\n      dup4\n        /* \"upgradeSolidityRemix/mvp-sol/solidity/nft_proxy.sol\":4628:4635  rsv_[i] */\n      dup2\n      mload\n      dup2\n      lt\n      tag_163\n      jumpi\n      invalid\n    tag_163:\n      0x20\n      mul\n      0x20\n      add\n      add\n      mload\n        /* \"upgradeSolidityRemix/mvp-sol/solidity/nft_proxy.sol\":4605:4635  Signature memory rsv = rsv_[i] */\n      swap1\n      pop\n        /* \"upgradeSolidityRemix/mvp-sol/solidity/nft_proxy.sol\":4642:4653  address rec */\n      0x00\n        /* \"upgradeSolidityRemix/mvp-sol/solidity/nft_proxy.sol\":4656:4692  ecrecover(hash, rsv.v, rsv.r, rsv.s) */\n      0x01\n        /* \"upgradeSolidityRemix/mvp-sol/solidity/nft_proxy.sol\":4666:4670  hash */\n      dup9\n        /* \"upgradeSolidityRemix/mvp-sol/solidity/nft_proxy.sol\":4672:4675  rsv */\n      dup4\n        /* \"upgradeSolidityRemix/mvp-sol/solidity/nft_proxy.sol\":4672:4677  rsv.v */\n      0x40\n      add\n      mload\n        /* \"upgradeSolidityRemix/mvp-sol/solidity/nft_proxy.sol\":4679:4682  rsv */\n      dup5\n        /* \"upgradeSolidityRemix/mvp-sol/solidity/nft_proxy.sol\":4679:4684  rsv.r */\n      0x00\n      add\n      mload\n        /* \"upgradeSolidityRemix/mvp-sol/solidity/nft_proxy.sol\":4686:4689  rsv */\n      dup6\n        /* \"upgradeSolidityRemix/mvp-sol/solidity/nft_proxy.sol\":4686:4691  rsv.s */\n      0x20\n      add\n      mload\n        /* \"upgradeSolidityRemix/mvp-sol/solidity/nft_proxy.sol\":4656:4692  ecrecover(hash, rsv.v, rsv.r, rsv.s) */\n      mload(0x40)\n      0x00\n      dup2\n      mstore\n      0x20\n      add\n      0x40\n      mstore\n      mload(0x40)\n      tag_164\n      swap5\n      swap4\n      swap3\n      swap2\n      swap1\n      tag_165\n      jump\t// in\n    tag_164:\n      0x20\n      mload(0x40)\n      0x20\n      dup2\n      sub\n      swap1\n      dup1\n      dup5\n      sub\n      swap1\n      dup6\n      gas\n      staticcall\n      iszero\n      dup1\n      iszero\n      tag_167\n      jumpi\n      returndatasize\n      0x00\n      dup1\n      returndatacopy\n      revert(0x00, returndatasize)\n    tag_167:\n      pop\n      pop\n      pop\n      mload(sub(mload(0x40), 0x20))\n        /* \"upgradeSolidityRemix/mvp-sol/solidity/nft_proxy.sol\":4642:4692  address rec = ecrecover(hash, rsv.v, rsv.r, rsv.s) */\n      swap1\n      pop\n        /* \"upgradeSolidityRemix/mvp-sol/solidity/nft_proxy.sol\":4781:4785  addr */\n      dup3\n        /* \"upgradeSolidityRemix/mvp-sol/solidity/nft_proxy.sol\":4774:4785  rec == addr */\n      0xffffffffffffffffffffffffffffffffffffffff\n      and\n        /* \"upgradeSolidityRemix/mvp-sol/solidity/nft_proxy.sol\":4774:4777  rec */\n      dup2\n        /* \"upgradeSolidityRemix/mvp-sol/solidity/nft_proxy.sol\":4774:4785  rec == addr */\n      0xffffffffffffffffffffffffffffffffffffffff\n      and\n      eq\n        /* \"upgradeSolidityRemix/mvp-sol/solidity/nft_proxy.sol\":4770:4901  if (rec == addr) {\r... */\n      iszero\n      tag_168\n      jumpi\n        /* \"upgradeSolidityRemix/mvp-sol/solidity/nft_proxy.sol\":4814:4818  addr */\n      dup3\n        /* \"upgradeSolidityRemix/mvp-sol/solidity/nft_proxy.sol\":4795:4800  addrs */\n      dup7\n        /* \"upgradeSolidityRemix/mvp-sol/solidity/nft_proxy.sol\":4801:4810  signCount */\n      dup7\n        /* \"upgradeSolidityRemix/mvp-sol/solidity/nft_proxy.sol\":4795:4811  addrs[signCount] */\n      dup2\n      mload\n      dup2\n      lt\n      tag_169\n      jumpi\n      invalid\n    tag_169:\n      0x20\n      mul\n      0x20\n      add\n      add\n        /* \"upgradeSolidityRemix/mvp-sol/solidity/nft_proxy.sol\":4795:4818  addrs[signCount] = addr */\n      swap1\n      0xffffffffffffffffffffffffffffffffffffffff\n      and\n      swap1\n      dup2\n      0xffffffffffffffffffffffffffffffffffffffff\n      and\n      dup2\n      mstore\n      pop\n      pop\n        /* \"upgradeSolidityRemix/mvp-sol/solidity/nft_proxy.sol\":4826:4837  signCount++ */\n      dup5\n      dup1\n      0x01\n      add\n      swap6\n      pop\n      pop\n        /* \"upgradeSolidityRemix/mvp-sol/solidity/nft_proxy.sol\":4862:4868  owners */\n      dup7\n        /* \"upgradeSolidityRemix/mvp-sol/solidity/nft_proxy.sol\":4862:4878  owners.signCount */\n      0x20\n      add\n      mload\n        /* \"upgradeSolidityRemix/mvp-sol/solidity/nft_proxy.sol\":4849:4858  signCount */\n      dup6\n        /* \"upgradeSolidityRemix/mvp-sol/solidity/nft_proxy.sol\":4849:4878  signCount == owners.signCount */\n      eq\n        /* \"upgradeSolidityRemix/mvp-sol/solidity/nft_proxy.sol\":4845:4894  if (signCount == owners.signCount)\r... */\n      iszero\n      tag_170\n      jumpi\n        /* \"upgradeSolidityRemix/mvp-sol/solidity/nft_proxy.sol\":4887:4894  return; */\n      pop\n      pop\n      pop\n      pop\n      pop\n      pop\n      pop\n      pop\n      pop\n      pop\n      pop\n      pop\n      pop\n      pop\n      jump(tag_130)\n        /* \"upgradeSolidityRemix/mvp-sol/solidity/nft_proxy.sol\":4845:4894  if (signCount == owners.signCount)\r... */\n    tag_170:\n        /* \"upgradeSolidityRemix/mvp-sol/solidity/nft_proxy.sol\":4770:4901  if (rec == addr) {\r... */\n    tag_168:\n        /* \"upgradeSolidityRemix/mvp-sol/solidity/nft_proxy.sol\":4506:4907  if (indexOf(addrs, addr) == -1 && indexOf(owners.owners, addr) != -1) { // Exclude duplicates\r... */\n      pop\n      pop\n    tag_160:\n        /* \"upgradeSolidityRemix/mvp-sol/solidity/nft_proxy.sol\":4426:4912  for (uint256 i = 0; i < signer.length; i++) {\r... */\n      pop\n        /* \"upgradeSolidityRemix/mvp-sol/solidity/nft_proxy.sol\":4465:4468  i++ */\n      dup1\n      dup1\n      0x01\n      add\n      swap2\n      pop\n      pop\n        /* \"upgradeSolidityRemix/mvp-sol/solidity/nft_proxy.sol\":4426:4912  for (uint256 i = 0; i < signer.length; i++) {\r... */\n      jump(tag_152)\n    tag_153:\n      pop\n        /* \"upgradeSolidityRemix/mvp-sol/solidity/nft_proxy.sol\":4939:4945  owners */\n      dup3\n        /* \"upgradeSolidityRemix/mvp-sol/solidity/nft_proxy.sol\":4939:4955  owners.signCount */\n      0x20\n      add\n      mload\n        /* \"upgradeSolidityRemix/mvp-sol/solidity/nft_proxy.sol\":4926:4935  signCount */\n      dup2\n        /* \"upgradeSolidityRemix/mvp-sol/solidity/nft_proxy.sol\":4926:4955  signCount == owners.signCount */\n      eq\n        /* \"upgradeSolidityRemix/mvp-sol/solidity/nft_proxy.sol\":4918:4997  require(signCount == owners.signCount, \"#NFTProxy#verification: BAD_SIGNATURE\") */\n      tag_171\n      jumpi\n      mload(0x40)\n      0x08c379a000000000000000000000000000000000000000000000000000000000\n      dup2\n      mstore\n      0x04\n      add\n      tag_172\n      swap1\n      tag_173\n      jump\t// in\n    tag_172:\n      mload(0x40)\n      dup1\n      swap2\n      sub\n      swap1\n      revert\n    tag_171:\n        /* \"upgradeSolidityRemix/mvp-sol/solidity/nft_proxy.sol\":3325:5002  function verify(TransferTx memory tx) view public {\r... */\n      pop\n      pop\n      pop\n      pop\n      pop\n      pop\n      pop\n      pop\n      pop\n      pop\n    tag_130:\n      pop\n      jump\t// out\n        /* \"upgradeSolidityRemix/mvp-sol/solidity/erc1155_proxy.sol\":2433:2935  function onERC1155BatchReceived(\r... */\n    tag_69:\n        /* \"upgradeSolidityRemix/mvp-sol/solidity/erc1155_proxy.sol\":2611:2617  bytes4 */\n      0x00\n        /* \"upgradeSolidityRemix/mvp-sol/solidity/erc1155_proxy.sol\":2624:2643  address[] memory to */\n      0x60\n        /* \"upgradeSolidityRemix/mvp-sol/solidity/erc1155_proxy.sol\":2648:2665  uint256 signCount */\n      0x00\n        /* \"upgradeSolidityRemix/mvp-sol/solidity/erc1155_proxy.sol\":2698:2702  data */\n      dup5\n      dup5\n        /* \"upgradeSolidityRemix/mvp-sol/solidity/erc1155_proxy.sol\":2687:2724  abi.decode(data, (address[],uint256)) */\n      dup2\n      add\n      swap1\n      tag_175\n      swap2\n      swap1\n      tag_176\n      jump\t// in\n    tag_175:\n        /* \"upgradeSolidityRemix/mvp-sol/solidity/erc1155_proxy.sol\":2670:2724  (to,signCount) = abi.decode(data, (address[],uint256)) */\n      dup1\n      swap3\n      pop\n      dup2\n      swap4\n      pop\n      pop\n      pop\n        /* \"upgradeSolidityRemix/mvp-sol/solidity/erc1155_proxy.sol\":2731:2745  IERC1155 token */\n      0x00\n        /* \"upgradeSolidityRemix/mvp-sol/solidity/erc1155_proxy.sol\":2748:2772  _isERC1155(_msgSender()) */\n      tag_177\n        /* \"upgradeSolidityRemix/mvp-sol/solidity/erc1155_proxy.sol\":2759:2771  _msgSender() */\n      tag_178\n        /* \"upgradeSolidityRemix/mvp-sol/solidity/erc1155_proxy.sol\":2759:2769  _msgSender */\n      tag_90\n        /* \"upgradeSolidityRemix/mvp-sol/solidity/erc1155_proxy.sol\":2759:2771  _msgSender() */\n      jump\t// in\n    tag_178:\n        /* \"upgradeSolidityRemix/mvp-sol/solidity/erc1155_proxy.sol\":2748:2758  _isERC1155 */\n      tag_179\n        /* \"upgradeSolidityRemix/mvp-sol/solidity/erc1155_proxy.sol\":2748:2772  _isERC1155(_msgSender()) */\n      jump\t// in\n    tag_177:\n        /* \"upgradeSolidityRemix/mvp-sol/solidity/erc1155_proxy.sol\":2731:2772  IERC1155 token = _isERC1155(_msgSender()) */\n      swap1\n      pop\n        /* \"upgradeSolidityRemix/mvp-sol/solidity/erc1155_proxy.sol\":2784:2790  uint i */\n      0x00\n        /* \"upgradeSolidityRemix/mvp-sol/solidity/erc1155_proxy.sol\":2779:2894  for (uint i = 0; i < ids.length; i++) {\r... */\n    tag_180:\n        /* \"upgradeSolidityRemix/mvp-sol/solidity/erc1155_proxy.sol\":2800:2803  ids */\n      dup11\n      dup11\n        /* \"upgradeSolidityRemix/mvp-sol/solidity/erc1155_proxy.sol\":2800:2810  ids.length */\n      swap1\n      pop\n        /* \"upgradeSolidityRemix/mvp-sol/solidity/erc1155_proxy.sol\":2796:2797  i */\n      dup2\n        /* \"upgradeSolidityRemix/mvp-sol/solidity/erc1155_proxy.sol\":2796:2810  i < ids.length */\n      lt\n        /* \"upgradeSolidityRemix/mvp-sol/solidity/erc1155_proxy.sol\":2779:2894  for (uint i = 0; i < ids.length; i++) {\r... */\n      iszero\n      tag_181\n      jumpi\n        /* \"upgradeSolidityRemix/mvp-sol/solidity/erc1155_proxy.sol\":2823:2888  _onERC1155Received(token, from, to, ids[i], values[i], signCount) */\n      tag_183\n        /* \"upgradeSolidityRemix/mvp-sol/solidity/erc1155_proxy.sol\":2842:2847  token */\n      dup3\n        /* \"upgradeSolidityRemix/mvp-sol/solidity/erc1155_proxy.sol\":2849:2853  from */\n      dup14\n        /* \"upgradeSolidityRemix/mvp-sol/solidity/erc1155_proxy.sol\":2855:2857  to */\n      dup7\n        /* \"upgradeSolidityRemix/mvp-sol/solidity/erc1155_proxy.sol\":2859:2862  ids */\n      dup15\n      dup15\n        /* \"upgradeSolidityRemix/mvp-sol/solidity/erc1155_proxy.sol\":2863:2864  i */\n      dup7\n        /* \"upgradeSolidityRemix/mvp-sol/solidity/erc1155_proxy.sol\":2859:2865  ids[i] */\n      dup2\n      dup2\n      lt\n      tag_184\n      jumpi\n      invalid\n    tag_184:\n      swap1\n      pop\n      0x20\n      mul\n      add\n      calldataload\n        /* \"upgradeSolidityRemix/mvp-sol/solidity/erc1155_proxy.sol\":2867:2873  values */\n      dup14\n      dup14\n        /* \"upgradeSolidityRemix/mvp-sol/solidity/erc1155_proxy.sol\":2874:2875  i */\n      dup8\n        /* \"upgradeSolidityRemix/mvp-sol/solidity/erc1155_proxy.sol\":2867:2876  values[i] */\n      dup2\n      dup2\n      lt\n      tag_185\n      jumpi\n      invalid\n    tag_185:\n      swap1\n      pop\n      0x20\n      mul\n      add\n      calldataload\n        /* \"upgradeSolidityRemix/mvp-sol/solidity/erc1155_proxy.sol\":2878:2887  signCount */\n      dup9\n        /* \"upgradeSolidityRemix/mvp-sol/solidity/erc1155_proxy.sol\":2823:2841  _onERC1155Received */\n      tag_186\n        /* \"upgradeSolidityRemix/mvp-sol/solidity/erc1155_proxy.sol\":2823:2888  _onERC1155Received(token, from, to, ids[i], values[i], signCount) */\n      jump\t// in\n    tag_183:\n        /* \"upgradeSolidityRemix/mvp-sol/solidity/erc1155_proxy.sol\":2812:2815  i++ */\n      dup1\n      dup1\n      0x01\n      add\n      swap2\n      pop\n      pop\n        /* \"upgradeSolidityRemix/mvp-sol/solidity/erc1155_proxy.sol\":2779:2894  for (uint i = 0; i < ids.length; i++) {\r... */\n      jump(tag_180)\n    tag_181:\n      pop\n        /* \"upgradeSolidityRemix/mvp-sol/solidity/erc1155_proxy.sol\":526:536  0xbc197c81 */\n      0xbc197c81\n        /* \"upgradeSolidityRemix/mvp-sol/solidity/erc1155_proxy.sol\":2907:2930  _ERC1155_BATCH_RECEIVED */\n      0xe0\n      shl\n        /* \"upgradeSolidityRemix/mvp-sol/solidity/erc1155_proxy.sol\":2900:2930  return _ERC1155_BATCH_RECEIVED */\n      swap4\n      pop\n      pop\n      pop\n      pop\n        /* \"upgradeSolidityRemix/mvp-sol/solidity/erc1155_proxy.sol\":2433:2935  function onERC1155BatchReceived(\r... */\n      swap9\n      swap8\n      pop\n      pop\n      pop\n      pop\n      pop\n      pop\n      pop\n      pop\n      jump\t// out\n        /* \"upgradeSolidityRemix/mvp-sol/solidity/erc1155_proxy.sol\":2046:2428  function onERC1155Received(\r... */\n    tag_75:\n        /* \"upgradeSolidityRemix/mvp-sol/solidity/erc1155_proxy.sol\":2195:2201  bytes4 */\n      0x00\n        /* \"upgradeSolidityRemix/mvp-sol/solidity/erc1155_proxy.sol\":2208:2227  address[] memory to */\n      0x60\n        /* \"upgradeSolidityRemix/mvp-sol/solidity/erc1155_proxy.sol\":2232:2249  uint256 signCount */\n      0x00\n        /* \"upgradeSolidityRemix/mvp-sol/solidity/erc1155_proxy.sol\":2282:2286  data */\n      dup5\n      dup5\n        /* \"upgradeSolidityRemix/mvp-sol/solidity/erc1155_proxy.sol\":2271:2309  abi.decode(data, (address[], uint256)) */\n      dup2\n      add\n      swap1\n      tag_188\n      swap2\n      swap1\n      tag_176\n      jump\t// in\n    tag_188:\n        /* \"upgradeSolidityRemix/mvp-sol/solidity/erc1155_proxy.sol\":2254:2309  (to,signCount) = abi.decode(data, (address[], uint256)) */\n      dup1\n      swap3\n      pop\n      dup2\n      swap4\n      pop\n      pop\n      pop\n        /* \"upgradeSolidityRemix/mvp-sol/solidity/erc1155_proxy.sol\":2316:2392  _onERC1155Received(_isERC1155(_msgSender()), from, to, id, value, signCount) */\n      tag_189\n        /* \"upgradeSolidityRemix/mvp-sol/solidity/erc1155_proxy.sol\":2335:2359  _isERC1155(_msgSender()) */\n      tag_190\n        /* \"upgradeSolidityRemix/mvp-sol/solidity/erc1155_proxy.sol\":2346:2358  _msgSender() */\n      tag_191\n        /* \"upgradeSolidityRemix/mvp-sol/solidity/erc1155_proxy.sol\":2346:2356  _msgSender */\n      tag_90\n        /* \"upgradeSolidityRemix/mvp-sol/solidity/erc1155_proxy.sol\":2346:2358  _msgSender() */\n      jump\t// in\n    tag_191:\n        /* \"upgradeSolidityRemix/mvp-sol/solidity/erc1155_proxy.sol\":2335:2345  _isERC1155 */\n      tag_179\n        /* \"upgradeSolidityRemix/mvp-sol/solidity/erc1155_proxy.sol\":2335:2359  _isERC1155(_msgSender()) */\n      jump\t// in\n    tag_190:\n        /* \"upgradeSolidityRemix/mvp-sol/solidity/erc1155_proxy.sol\":2361:2365  from */\n      dup10\n        /* \"upgradeSolidityRemix/mvp-sol/solidity/erc1155_proxy.sol\":2367:2369  to */\n      dup5\n        /* \"upgradeSolidityRemix/mvp-sol/solidity/erc1155_proxy.sol\":2371:2373  id */\n      dup11\n        /* \"upgradeSolidityRemix/mvp-sol/solidity/erc1155_proxy.sol\":2375:2380  value */\n      dup11\n        /* \"upgradeSolidityRemix/mvp-sol/solidity/erc1155_proxy.sol\":2382:2391  signCount */\n      dup7\n        /* \"upgradeSolidityRemix/mvp-sol/solidity/erc1155_proxy.sol\":2316:2334  _onERC1155Received */\n      tag_186\n        /* \"upgradeSolidityRemix/mvp-sol/solidity/erc1155_proxy.sol\":2316:2392  _onERC1155Received(_isERC1155(_msgSender()), from, to, id, value, signCount) */\n      jump\t// in\n    tag_189:\n        /* \"upgradeSolidityRemix/mvp-sol/solidity/erc1155_proxy.sol\":462:472  0xf23a6e61 */\n      0xf23a6e61\n        /* \"upgradeSolidityRemix/mvp-sol/solidity/erc1155_proxy.sol\":2406:2423  _ERC1155_RECEIVED */\n      0xe0\n      shl\n        /* \"upgradeSolidityRemix/mvp-sol/solidity/erc1155_proxy.sol\":2399:2423  return _ERC1155_RECEIVED */\n      swap3\n      pop\n      pop\n      pop\n        /* \"upgradeSolidityRemix/mvp-sol/solidity/erc1155_proxy.sol\":2046:2428  function onERC1155Received(\r... */\n      swap7\n      swap6\n      pop\n      pop\n      pop\n      pop\n      pop\n      pop\n      jump\t// out\n        /* \"upgradeSolidityRemix/mvp-sol/solidity/base.sol\":4027:4250  function transferOwnership(address newOwner) public virtual onlyOwner {\r... */\n    tag_80:\n        /* \"upgradeSolidityRemix/mvp-sol/solidity/base.sol\":3228:3240  _msgSender() */\n      tag_193\n        /* \"upgradeSolidityRemix/mvp-sol/solidity/base.sol\":3228:3238  _msgSender */\n      tag_90\n        /* \"upgradeSolidityRemix/mvp-sol/solidity/base.sol\":3228:3240  _msgSender() */\n      jump\t// in\n    tag_193:\n        /* \"upgradeSolidityRemix/mvp-sol/solidity/base.sol\":3218:3240  _owner == _msgSender() */\n      0xffffffffffffffffffffffffffffffffffffffff\n      and\n        /* \"upgradeSolidityRemix/mvp-sol/solidity/base.sol\":3218:3224  _owner */\n      0x00\n      dup1\n      sload\n      swap1\n      0x0100\n      exp\n      swap1\n      div\n      0xffffffffffffffffffffffffffffffffffffffff\n      and\n        /* \"upgradeSolidityRemix/mvp-sol/solidity/base.sol\":3218:3240  _owner == _msgSender() */\n      0xffffffffffffffffffffffffffffffffffffffff\n      and\n      eq\n        /* \"upgradeSolidityRemix/mvp-sol/solidity/base.sol\":3210:3277  require(_owner == _msgSender(), \"Ownable: caller is not the owner\") */\n      tag_194\n      jumpi\n      mload(0x40)\n      0x08c379a000000000000000000000000000000000000000000000000000000000\n      dup2\n      mstore\n      0x04\n      add\n      tag_195\n      swap1\n      tag_123\n      jump\t// in\n    tag_195:\n      mload(0x40)\n      dup1\n      swap2\n      sub\n      swap1\n      revert\n    tag_194:\n        /* \"upgradeSolidityRemix/mvp-sol/solidity/base.sol\":4130:4131  0 */\n      0x00\n        /* \"upgradeSolidityRemix/mvp-sol/solidity/base.sol\":4110:4132  newOwner != address(0) */\n      0xffffffffffffffffffffffffffffffffffffffff\n      and\n        /* \"upgradeSolidityRemix/mvp-sol/solidity/base.sol\":4110:4118  newOwner */\n      dup2\n        /* \"upgradeSolidityRemix/mvp-sol/solidity/base.sol\":4110:4132  newOwner != address(0) */\n      0xffffffffffffffffffffffffffffffffffffffff\n      and\n      eq\n      iszero\n        /* \"upgradeSolidityRemix/mvp-sol/solidity/base.sol\":4102:4175  require(newOwner != address(0), \"Ownable: new owner is the zero address\") */\n      tag_197\n      jumpi\n      mload(0x40)\n      0x08c379a000000000000000000000000000000000000000000000000000000000\n      dup2\n      mstore\n      0x04\n      add\n      tag_198\n      swap1\n      tag_199\n      jump\t// in\n    tag_198:\n      mload(0x40)\n      dup1\n      swap2\n      sub\n      swap1\n      revert\n    tag_197:\n        /* \"upgradeSolidityRemix/mvp-sol/solidity/base.sol\":4214:4222  newOwner */\n      dup1\n        /* \"upgradeSolidityRemix/mvp-sol/solidity/base.sol\":4185:4223  OwnershipTransferred(_owner, newOwner) */\n      0xffffffffffffffffffffffffffffffffffffffff\n      and\n        /* \"upgradeSolidityRemix/mvp-sol/solidity/base.sol\":4206:4212  _owner */\n      0x00\n      dup1\n      sload\n      swap1\n      0x0100\n      exp\n      swap1\n      div\n      0xffffffffffffffffffffffffffffffffffffffff\n      and\n        /* \"upgradeSolidityRemix/mvp-sol/solidity/base.sol\":4185:4223  OwnershipTransferred(_owner, newOwner) */\n      0xffffffffffffffffffffffffffffffffffffffff\n      and\n      0x8be0079c531659141344cd1fd0a4f28419497f9722a3daafe3b4186f6b6457e0\n      mload(0x40)\n      mload(0x40)\n      dup1\n      swap2\n      sub\n      swap1\n      log3\n        /* \"upgradeSolidityRemix/mvp-sol/solidity/base.sol\":4237:4245  newOwner */\n      dup1\n        /* \"upgradeSolidityRemix/mvp-sol/solidity/base.sol\":4228:4234  _owner */\n      0x00\n      dup1\n        /* \"upgradeSolidityRemix/mvp-sol/solidity/base.sol\":4228:4245  _owner = newOwner */\n      0x0100\n      exp\n      dup2\n      sload\n      dup2\n      0xffffffffffffffffffffffffffffffffffffffff\n      mul\n      not\n      and\n      swap1\n      dup4\n      0xffffffffffffffffffffffffffffffffffffffff\n      and\n      mul\n      or\n      swap1\n      sstore\n      pop\n        /* \"upgradeSolidityRemix/mvp-sol/solidity/base.sol\":4027:4250  function transferOwnership(address newOwner) public virtual onlyOwner {\r... */\n      pop\n      jump\t// out\n        /* \"upgradeSolidityRemix/mvp-sol/solidity/base.sol\":4255:4352  function _msgSender() internal view virtual returns (address payable) {\r... */\n    tag_90:\n        /* \"upgradeSolidityRemix/mvp-sol/solidity/base.sol\":4308:4323  address payable */\n      0x00\n        /* \"upgradeSolidityRemix/mvp-sol/solidity/base.sol\":4337:4347  msg.sender */\n      caller\n        /* \"upgradeSolidityRemix/mvp-sol/solidity/base.sol\":4330:4347  return msg.sender */\n      swap1\n      pop\n        /* \"upgradeSolidityRemix/mvp-sol/solidity/base.sol\":4255:4352  function _msgSender() internal view virtual returns (address payable) {\r... */\n      swap1\n      jump\t// out\n        /* \"upgradeSolidityRemix/mvp-sol/solidity/erc1155_proxy.sol\":2940:3730  function _withdraw(\r... */\n    tag_96:\n        /* \"upgradeSolidityRemix/mvp-sol/solidity/erc1155_proxy.sol\":3083:3102  Balances storage ba */\n      0x00\n        /* \"upgradeSolidityRemix/mvp-sol/solidity/erc1155_proxy.sol\":3105:3112  _assets */\n      0x02\n        /* \"upgradeSolidityRemix/mvp-sol/solidity/erc1155_proxy.sol\":3105:3119  _assets[token] */\n      0x00\n        /* \"upgradeSolidityRemix/mvp-sol/solidity/erc1155_proxy.sol\":3113:3118  token */\n      dup7\n        /* \"upgradeSolidityRemix/mvp-sol/solidity/erc1155_proxy.sol\":3105:3119  _assets[token] */\n      0xffffffffffffffffffffffffffffffffffffffff\n      and\n      0xffffffffffffffffffffffffffffffffffffffff\n      and\n      dup2\n      mstore\n      0x20\n      add\n      swap1\n      dup2\n      mstore\n      0x20\n      add\n      0x00\n      keccak256\n        /* \"upgradeSolidityRemix/mvp-sol/solidity/erc1155_proxy.sol\":3105:3128  _assets[token][tokenId] */\n      0x00\n        /* \"upgradeSolidityRemix/mvp-sol/solidity/erc1155_proxy.sol\":3120:3127  tokenId */\n      dup6\n        /* \"upgradeSolidityRemix/mvp-sol/solidity/erc1155_proxy.sol\":3105:3128  _assets[token][tokenId] */\n      dup2\n      mstore\n      0x20\n      add\n      swap1\n      dup2\n      mstore\n      0x20\n      add\n      0x00\n      keccak256\n        /* \"upgradeSolidityRemix/mvp-sol/solidity/erc1155_proxy.sol\":3083:3128  Balances storage ba = _assets[token][tokenId] */\n      swap1\n      pop\n        /* \"upgradeSolidityRemix/mvp-sol/solidity/erc1155_proxy.sol\":3133:3154  Owners storage owners */\n      0x00\n        /* \"upgradeSolidityRemix/mvp-sol/solidity/erc1155_proxy.sol\":3157:3159  ba */\n      dup2\n        /* \"upgradeSolidityRemix/mvp-sol/solidity/erc1155_proxy.sol\":3157:3166  ba.values */\n      0x01\n      add\n        /* \"upgradeSolidityRemix/mvp-sol/solidity/erc1155_proxy.sol\":3157:3172  ba.values[from] */\n      0x00\n        /* \"upgradeSolidityRemix/mvp-sol/solidity/erc1155_proxy.sol\":3167:3171  from */\n      dup10\n        /* \"upgradeSolidityRemix/mvp-sol/solidity/erc1155_proxy.sol\":3157:3172  ba.values[from] */\n      0xffffffffffffffffffffffffffffffffffffffff\n      and\n      0xffffffffffffffffffffffffffffffffffffffff\n      and\n      dup2\n      mstore\n      0x20\n      add\n      swap1\n      dup2\n      mstore\n      0x20\n      add\n      0x00\n      keccak256\n        /* \"upgradeSolidityRemix/mvp-sol/solidity/erc1155_proxy.sol\":3133:3172  Owners storage owners = ba.values[from] */\n      swap1\n      pop\n        /* \"upgradeSolidityRemix/mvp-sol/solidity/erc1155_proxy.sol\":3197:3203  owners */\n      dup1\n        /* \"upgradeSolidityRemix/mvp-sol/solidity/erc1155_proxy.sol\":3197:3212  owners.balances */\n      0x00\n      add\n      sload\n        /* \"upgradeSolidityRemix/mvp-sol/solidity/erc1155_proxy.sol\":3187:3193  amount */\n      dup5\n        /* \"upgradeSolidityRemix/mvp-sol/solidity/erc1155_proxy.sol\":3187:3212  amount <= owners.balances */\n      gt\n      iszero\n        /* \"upgradeSolidityRemix/mvp-sol/solidity/erc1155_proxy.sol\":3179:3263  require(amount <= owners.balances, \"#ERC1155Proxy#_withdraw: INSUFFICIENT_BALANCES\") */\n      tag_202\n      jumpi\n      mload(0x40)\n      0x08c379a000000000000000000000000000000000000000000000000000000000\n      dup2\n      mstore\n      0x04\n      add\n      tag_203\n      swap1\n      tag_204\n      jump\t// in\n    tag_203:\n      mload(0x40)\n      dup1\n      swap2\n      sub\n      swap1\n      revert\n    tag_202:\n        /* \"upgradeSolidityRemix/mvp-sol/solidity/erc1155_proxy.sol\":3285:3286  0 */\n      0x00\n        /* \"upgradeSolidityRemix/mvp-sol/solidity/erc1155_proxy.sol\":3276:3282  amount */\n      dup5\n        /* \"upgradeSolidityRemix/mvp-sol/solidity/erc1155_proxy.sol\":3276:3286  amount > 0 */\n      gt\n        /* \"upgradeSolidityRemix/mvp-sol/solidity/erc1155_proxy.sol\":3268:3330  require(amount > 0, \"#ERC1155Proxy#_withdraw: INVALID_AMOUNT\") */\n      tag_205\n      jumpi\n      mload(0x40)\n      0x08c379a000000000000000000000000000000000000000000000000000000000\n      dup2\n      mstore\n      0x04\n      add\n      tag_206\n      swap1\n      tag_207\n      jump\t// in\n    tag_206:\n      mload(0x40)\n      dup1\n      swap2\n      sub\n      swap1\n      revert\n    tag_205:\n        /* \"upgradeSolidityRemix/mvp-sol/solidity/erc1155_proxy.sol\":3337:3357  uint256 formBalances */\n      0x00\n        /* \"upgradeSolidityRemix/mvp-sol/solidity/erc1155_proxy.sol\":3378:3384  amount */\n      dup5\n        /* \"upgradeSolidityRemix/mvp-sol/solidity/erc1155_proxy.sol\":3360:3366  owners */\n      dup3\n        /* \"upgradeSolidityRemix/mvp-sol/solidity/erc1155_proxy.sol\":3360:3375  owners.balances */\n      0x00\n      add\n      sload\n        /* \"upgradeSolidityRemix/mvp-sol/solidity/erc1155_proxy.sol\":3360:3384  owners.balances - amount */\n      sub\n        /* \"upgradeSolidityRemix/mvp-sol/solidity/erc1155_proxy.sol\":3337:3384  uint256 formBalances = owners.balances - amount */\n      swap1\n      pop\n        /* \"upgradeSolidityRemix/mvp-sol/solidity/erc1155_proxy.sol\":3409:3421  formBalances */\n      dup1\n        /* \"upgradeSolidityRemix/mvp-sol/solidity/erc1155_proxy.sol\":3391:3397  owners */\n      dup3\n        /* \"upgradeSolidityRemix/mvp-sol/solidity/erc1155_proxy.sol\":3391:3406  owners.balances */\n      0x00\n      add\n        /* \"upgradeSolidityRemix/mvp-sol/solidity/erc1155_proxy.sol\":3391:3421  owners.balances = formBalances */\n      dup2\n      swap1\n      sstore\n      pop\n        /* \"upgradeSolidityRemix/mvp-sol/solidity/erc1155_proxy.sol\":3438:3444  amount */\n      dup5\n        /* \"upgradeSolidityRemix/mvp-sol/solidity/erc1155_proxy.sol\":3426:3428  ba */\n      dup4\n        /* \"upgradeSolidityRemix/mvp-sol/solidity/erc1155_proxy.sol\":3426:3434  ba.total */\n      0x00\n      add\n      0x00\n        /* \"upgradeSolidityRemix/mvp-sol/solidity/erc1155_proxy.sol\":3426:3444  ba.total -= amount */\n      dup3\n      dup3\n      sload\n      sub\n      swap3\n      pop\n      pop\n      dup2\n      swap1\n      sstore\n      pop\n        /* \"upgradeSolidityRemix/mvp-sol/solidity/erc1155_proxy.sol\":3460:3465  token */\n      dup7\n        /* \"upgradeSolidityRemix/mvp-sol/solidity/erc1155_proxy.sol\":3451:3483  IERC1155(token).safeTransferFrom */\n      0xffffffffffffffffffffffffffffffffffffffff\n      and\n      0xf242432a\n        /* \"upgradeSolidityRemix/mvp-sol/solidity/erc1155_proxy.sol\":3492:3496  this */\n      address\n        /* \"upgradeSolidityRemix/mvp-sol/solidity/erc1155_proxy.sol\":3499:3501  to */\n      dup11\n        /* \"upgradeSolidityRemix/mvp-sol/solidity/erc1155_proxy.sol\":3503:3510  tokenId */\n      dup10\n        /* \"upgradeSolidityRemix/mvp-sol/solidity/erc1155_proxy.sol\":3512:3518  amount */\n      dup10\n        /* \"upgradeSolidityRemix/mvp-sol/solidity/erc1155_proxy.sol\":3520:3525  _data */\n      dup10\n        /* \"upgradeSolidityRemix/mvp-sol/solidity/erc1155_proxy.sol\":3451:3526  IERC1155(token).safeTransferFrom(address(this), to, tokenId, amount, _data) */\n      mload(0x40)\n      dup7\n      0xffffffff\n      and\n      0xe0\n      shl\n      dup2\n      mstore\n      0x04\n      add\n      tag_208\n      swap6\n      swap5\n      swap4\n      swap3\n      swap2\n      swap1\n      tag_209\n      jump\t// in\n    tag_208:\n      0x00\n      mload(0x40)\n      dup1\n      dup4\n      sub\n      dup2\n      0x00\n      dup8\n      dup1\n      extcodesize\n      iszero\n      dup1\n      iszero\n      tag_210\n      jumpi\n      0x00\n      dup1\n      revert\n    tag_210:\n      pop\n      gas\n      call\n      iszero\n      dup1\n      iszero\n      tag_212\n      jumpi\n      returndatasize\n      0x00\n      dup1\n      returndatacopy\n      revert(0x00, returndatasize)\n    tag_212:\n      pop\n      pop\n      pop\n      pop\n        /* \"upgradeSolidityRemix/mvp-sol/solidity/erc1155_proxy.sol\":3553:3554  0 */\n      0x00\n        /* \"upgradeSolidityRemix/mvp-sol/solidity/erc1155_proxy.sol\":3537:3549  formBalances */\n      dup2\n        /* \"upgradeSolidityRemix/mvp-sol/solidity/erc1155_proxy.sol\":3537:3554  formBalances == 0 */\n      eq\n        /* \"upgradeSolidityRemix/mvp-sol/solidity/erc1155_proxy.sol\":3533:3590  if (formBalances == 0) {\r... */\n      iszero\n      tag_213\n      jumpi\n        /* \"upgradeSolidityRemix/mvp-sol/solidity/erc1155_proxy.sol\":3569:3571  ba */\n      dup3\n        /* \"upgradeSolidityRemix/mvp-sol/solidity/erc1155_proxy.sol\":3569:3578  ba.values */\n      0x01\n      add\n        /* \"upgradeSolidityRemix/mvp-sol/solidity/erc1155_proxy.sol\":3569:3584  ba.values[from] */\n      0x00\n        /* \"upgradeSolidityRemix/mvp-sol/solidity/erc1155_proxy.sol\":3579:3583  from */\n      dup11\n        /* \"upgradeSolidityRemix/mvp-sol/solidity/erc1155_proxy.sol\":3569:3584  ba.values[from] */\n      0xffffffffffffffffffffffffffffffffffffffff\n      and\n      0xffffffffffffffffffffffffffffffffffffffff\n      and\n      dup2\n      mstore\n      0x20\n      add\n      swap1\n      dup2\n      mstore\n      0x20\n      add\n      0x00\n      keccak256\n      0x00\n        /* \"upgradeSolidityRemix/mvp-sol/solidity/erc1155_proxy.sol\":3562:3584  delete ba.values[from] */\n      dup1\n      dup3\n      add\n      0x00\n      swap1\n      sstore\n      0x01\n      dup3\n      add\n      0x00\n      swap1\n      sstore\n      0x02\n      dup3\n      add\n      0x00\n      tag_214\n      swap2\n      swap1\n      tag_215\n      jump\t// in\n    tag_214:\n      pop\n      pop\n        /* \"upgradeSolidityRemix/mvp-sol/solidity/erc1155_proxy.sol\":3533:3590  if (formBalances == 0) {\r... */\n    tag_213:\n        /* \"upgradeSolidityRemix/mvp-sol/solidity/erc1155_proxy.sol\":3610:3611  0 */\n      0x00\n        /* \"upgradeSolidityRemix/mvp-sol/solidity/erc1155_proxy.sol\":3598:3600  ba */\n      dup4\n        /* \"upgradeSolidityRemix/mvp-sol/solidity/erc1155_proxy.sol\":3598:3606  ba.total */\n      0x00\n      add\n      sload\n        /* \"upgradeSolidityRemix/mvp-sol/solidity/erc1155_proxy.sol\":3598:3611  ba.total == 0 */\n      eq\n        /* \"upgradeSolidityRemix/mvp-sol/solidity/erc1155_proxy.sol\":3594:3655  if (ba.total == 0) {\r... */\n      iszero\n      tag_216\n      jumpi\n        /* \"upgradeSolidityRemix/mvp-sol/solidity/erc1155_proxy.sol\":3626:3633  _assets */\n      0x02\n        /* \"upgradeSolidityRemix/mvp-sol/solidity/erc1155_proxy.sol\":3626:3640  _assets[token] */\n      0x00\n        /* \"upgradeSolidityRemix/mvp-sol/solidity/erc1155_proxy.sol\":3634:3639  token */\n      dup9\n        /* \"upgradeSolidityRemix/mvp-sol/solidity/erc1155_proxy.sol\":3626:3640  _assets[token] */\n      0xffffffffffffffffffffffffffffffffffffffff\n      and\n      0xffffffffffffffffffffffffffffffffffffffff\n      and\n      dup2\n      mstore\n      0x20\n      add\n      swap1\n      dup2\n      mstore\n      0x20\n      add\n      0x00\n      keccak256\n        /* \"upgradeSolidityRemix/mvp-sol/solidity/erc1155_proxy.sol\":3626:3649  _assets[token][tokenId] */\n      0x00\n        /* \"upgradeSolidityRemix/mvp-sol/solidity/erc1155_proxy.sol\":3641:3648  tokenId */\n      dup8\n        /* \"upgradeSolidityRemix/mvp-sol/solidity/erc1155_proxy.sol\":3626:3649  _assets[token][tokenId] */\n      dup2\n      mstore\n      0x20\n      add\n      swap1\n      dup2\n      mstore\n      0x20\n      add\n      0x00\n      keccak256\n      0x00\n        /* \"upgradeSolidityRemix/mvp-sol/solidity/erc1155_proxy.sol\":3619:3649  delete _assets[token][tokenId] */\n      dup1\n      dup3\n      add\n      0x00\n      swap1\n      sstore\n      pop\n      pop\n        /* \"upgradeSolidityRemix/mvp-sol/solidity/erc1155_proxy.sol\":3594:3655  if (ba.total == 0) {\r... */\n    tag_216:\n        /* \"upgradeSolidityRemix/mvp-sol/solidity/erc1155_proxy.sol\":3700:3707  tokenId */\n      dup6\n        /* \"upgradeSolidityRemix/mvp-sol/solidity/erc1155_proxy.sol\":3689:3690  0 */\n      0x00\n        /* \"upgradeSolidityRemix/mvp-sol/solidity/erc1155_proxy.sol\":3666:3725  Transfer(from, address(0), token, tokenId, formBalances, 0) */\n      0xffffffffffffffffffffffffffffffffffffffff\n      and\n        /* \"upgradeSolidityRemix/mvp-sol/solidity/erc1155_proxy.sol\":3675:3679  from */\n      dup11\n        /* \"upgradeSolidityRemix/mvp-sol/solidity/erc1155_proxy.sol\":3666:3725  Transfer(from, address(0), token, tokenId, formBalances, 0) */\n      0xffffffffffffffffffffffffffffffffffffffff\n      and\n      0x737ab30b9cd3ddae02069f3057591007faf2305652d04c2582f7f1f6185d9711\n        /* \"upgradeSolidityRemix/mvp-sol/solidity/erc1155_proxy.sol\":3693:3698  token */\n      dup11\n        /* \"upgradeSolidityRemix/mvp-sol/solidity/erc1155_proxy.sol\":3709:3721  formBalances */\n      dup6\n        /* \"upgradeSolidityRemix/mvp-sol/solidity/erc1155_proxy.sol\":3723:3724  0 */\n      0x00\n        /* \"upgradeSolidityRemix/mvp-sol/solidity/erc1155_proxy.sol\":3666:3725  Transfer(from, address(0), token, tokenId, formBalances, 0) */\n      mload(0x40)\n      tag_217\n      swap4\n      swap3\n      swap2\n      swap1\n      tag_218\n      jump\t// in\n    tag_217:\n      mload(0x40)\n      dup1\n      swap2\n      sub\n      swap1\n      log4\n        /* \"upgradeSolidityRemix/mvp-sol/solidity/erc1155_proxy.sol\":2940:3730  function _withdraw(\r... */\n      pop\n      pop\n      pop\n      pop\n      pop\n      pop\n      pop\n      pop\n      pop\n      jump\t// out\n        /* \"upgradeSolidityRemix/mvp-sol/solidity/nft_proxy.sol\":2393:2872  function checkOwners(address token, uint256 tokenId, address[] memory owners, uint256 signCount) view internal returns (Owners memory) {\r... */\n    tag_101:\n        /* \"upgradeSolidityRemix/mvp-sol/solidity/nft_proxy.sol\":2513:2526  Owners memory */\n      tag_219\n      tag_87\n      jump\t// in\n    tag_219:\n        /* \"upgradeSolidityRemix/mvp-sol/solidity/nft_proxy.sol\":2533:2546  address owner */\n      0x00\n        /* \"upgradeSolidityRemix/mvp-sol/solidity/nft_proxy.sol\":2549:2574  checkEmptyAddress(owners) */\n      tag_221\n        /* \"upgradeSolidityRemix/mvp-sol/solidity/nft_proxy.sol\":2567:2573  owners */\n      dup5\n        /* \"upgradeSolidityRemix/mvp-sol/solidity/nft_proxy.sol\":2549:2566  checkEmptyAddress */\n      tag_222\n        /* \"upgradeSolidityRemix/mvp-sol/solidity/nft_proxy.sol\":2549:2574  checkEmptyAddress(owners) */\n      jump\t// in\n    tag_221:\n        /* \"upgradeSolidityRemix/mvp-sol/solidity/nft_proxy.sol\":2533:2574  address owner = checkEmptyAddress(owners) */\n      swap1\n      pop\n        /* \"upgradeSolidityRemix/mvp-sol/solidity/nft_proxy.sol\":2579:2600  Owners memory owners_ */\n      tag_223\n      tag_87\n      jump\t// in\n    tag_223:\n        /* \"upgradeSolidityRemix/mvp-sol/solidity/nft_proxy.sol\":2603:2634  ownersOf(token, tokenId, owner) */\n      tag_224\n        /* \"upgradeSolidityRemix/mvp-sol/solidity/nft_proxy.sol\":2612:2617  token */\n      dup8\n        /* \"upgradeSolidityRemix/mvp-sol/solidity/nft_proxy.sol\":2619:2626  tokenId */\n      dup8\n        /* \"upgradeSolidityRemix/mvp-sol/solidity/nft_proxy.sol\":2628:2633  owner */\n      dup5\n        /* \"upgradeSolidityRemix/mvp-sol/solidity/nft_proxy.sol\":2603:2611  ownersOf */\n      tag_56\n        /* \"upgradeSolidityRemix/mvp-sol/solidity/nft_proxy.sol\":2603:2634  ownersOf(token, tokenId, owner) */\n      jump\t// in\n    tag_224:\n        /* \"upgradeSolidityRemix/mvp-sol/solidity/nft_proxy.sol\":2579:2634  Owners memory owners_ = ownersOf(token, tokenId, owner) */\n      swap1\n      pop\n        /* \"upgradeSolidityRemix/mvp-sol/solidity/nft_proxy.sol\":2668:2669  0 */\n      0x00\n        /* \"upgradeSolidityRemix/mvp-sol/solidity/nft_proxy.sol\":2643:2650  owners_ */\n      dup2\n        /* \"upgradeSolidityRemix/mvp-sol/solidity/nft_proxy.sol\":2643:2657  owners_.owners */\n      0x40\n      add\n      mload\n        /* \"upgradeSolidityRemix/mvp-sol/solidity/nft_proxy.sol\":2643:2664  owners_.owners.length */\n      mload\n        /* \"upgradeSolidityRemix/mvp-sol/solidity/nft_proxy.sol\":2643:2669  owners_.owners.length == 0 */\n      eq\n        /* \"upgradeSolidityRemix/mvp-sol/solidity/nft_proxy.sol\":2639:2849  if (owners_.owners.length == 0) {\r... */\n      iszero\n      tag_225\n      jumpi\n        /* \"upgradeSolidityRemix/mvp-sol/solidity/nft_proxy.sol\":2698:2704  owners */\n      dup5\n        /* \"upgradeSolidityRemix/mvp-sol/solidity/nft_proxy.sol\":2698:2711  owners.length */\n      mload\n        /* \"upgradeSolidityRemix/mvp-sol/solidity/nft_proxy.sol\":2685:2694  signCount */\n      dup5\n        /* \"upgradeSolidityRemix/mvp-sol/solidity/nft_proxy.sol\":2685:2711  signCount <= owners.length */\n      gt\n      iszero\n        /* \"upgradeSolidityRemix/mvp-sol/solidity/nft_proxy.sol\":2677:2753  require(signCount <= owners.length, \"#NFTProxy#checkOwners: BAD_SIGN_COUNT\") */\n      tag_226\n      jumpi\n      mload(0x40)\n      0x08c379a000000000000000000000000000000000000000000000000000000000\n      dup2\n      mstore\n      0x04\n      add\n      tag_227\n      swap1\n      tag_228\n      jump\t// in\n    tag_227:\n      mload(0x40)\n      dup1\n      swap2\n      sub\n      swap1\n      revert\n    tag_226:\n        /* \"upgradeSolidityRemix/mvp-sol/solidity/nft_proxy.sol\":2778:2779  1 */\n      0x01\n        /* \"upgradeSolidityRemix/mvp-sol/solidity/nft_proxy.sol\":2759:2766  owners_ */\n      dup2\n        /* \"upgradeSolidityRemix/mvp-sol/solidity/nft_proxy.sol\":2759:2775  owners_.balances */\n      0x00\n      add\n        /* \"upgradeSolidityRemix/mvp-sol/solidity/nft_proxy.sol\":2759:2779  owners_.balances = 1 */\n      dup2\n      dup2\n      mstore\n      pop\n      pop\n        /* \"upgradeSolidityRemix/mvp-sol/solidity/nft_proxy.sol\":2802:2808  owners */\n      dup5\n        /* \"upgradeSolidityRemix/mvp-sol/solidity/nft_proxy.sol\":2785:2792  owners_ */\n      dup2\n        /* \"upgradeSolidityRemix/mvp-sol/solidity/nft_proxy.sol\":2785:2799  owners_.owners */\n      0x40\n      add\n        /* \"upgradeSolidityRemix/mvp-sol/solidity/nft_proxy.sol\":2785:2808  owners_.owners = owners */\n      dup2\n      swap1\n      mstore\n      pop\n        /* \"upgradeSolidityRemix/mvp-sol/solidity/nft_proxy.sol\":2834:2843  signCount */\n      dup4\n        /* \"upgradeSolidityRemix/mvp-sol/solidity/nft_proxy.sol\":2814:2821  owners_ */\n      dup2\n        /* \"upgradeSolidityRemix/mvp-sol/solidity/nft_proxy.sol\":2814:2831  owners_.signCount */\n      0x20\n      add\n        /* \"upgradeSolidityRemix/mvp-sol/solidity/nft_proxy.sol\":2814:2843  owners_.signCount = signCount */\n      dup2\n      dup2\n      mstore\n      pop\n      pop\n        /* \"upgradeSolidityRemix/mvp-sol/solidity/nft_proxy.sol\":2639:2849  if (owners_.owners.length == 0) {\r... */\n    tag_225:\n        /* \"upgradeSolidityRemix/mvp-sol/solidity/nft_proxy.sol\":2860:2867  owners_ */\n      dup1\n        /* \"upgradeSolidityRemix/mvp-sol/solidity/nft_proxy.sol\":2853:2867  return owners_ */\n      swap3\n      pop\n      pop\n      pop\n        /* \"upgradeSolidityRemix/mvp-sol/solidity/nft_proxy.sol\":2393:2872  function checkOwners(address token, uint256 tokenId, address[] memory owners, uint256 signCount) view internal returns (Owners memory) {\r... */\n      swap5\n      swap4\n      pop\n      pop\n      pop\n      pop\n      jump\t// out\n        /* \"upgradeSolidityRemix/mvp-sol/solidity/erc1155_proxy.sol\":3735:4486  function _transfer(address from, Owners memory toOwners, address token, uint256 tokenId, uint256 amount) internal override {\r... */\n    tag_103:\n        /* \"upgradeSolidityRemix/mvp-sol/solidity/erc1155_proxy.sol\":3863:3882  Balances storage ba */\n      0x00\n        /* \"upgradeSolidityRemix/mvp-sol/solidity/erc1155_proxy.sol\":3885:3892  _assets */\n      0x02\n        /* \"upgradeSolidityRemix/mvp-sol/solidity/erc1155_proxy.sol\":3885:3899  _assets[token] */\n      0x00\n        /* \"upgradeSolidityRemix/mvp-sol/solidity/erc1155_proxy.sol\":3893:3898  token */\n      dup6\n        /* \"upgradeSolidityRemix/mvp-sol/solidity/erc1155_proxy.sol\":3885:3899  _assets[token] */\n      0xffffffffffffffffffffffffffffffffffffffff\n      and\n      0xffffffffffffffffffffffffffffffffffffffff\n      and\n      dup2\n      mstore\n      0x20\n      add\n      swap1\n      dup2\n      mstore\n      0x20\n      add\n      0x00\n      keccak256\n        /* \"upgradeSolidityRemix/mvp-sol/solidity/erc1155_proxy.sol\":3885:3908  _assets[token][tokenId] */\n      0x00\n        /* \"upgradeSolidityRemix/mvp-sol/solidity/erc1155_proxy.sol\":3900:3907  tokenId */\n      dup5\n        /* \"upgradeSolidityRemix/mvp-sol/solidity/erc1155_proxy.sol\":3885:3908  _assets[token][tokenId] */\n      dup2\n      mstore\n      0x20\n      add\n      swap1\n      dup2\n      mstore\n      0x20\n      add\n      0x00\n      keccak256\n        /* \"upgradeSolidityRemix/mvp-sol/solidity/erc1155_proxy.sol\":3863:3908  Balances storage ba = _assets[token][tokenId] */\n      swap1\n      pop\n        /* \"upgradeSolidityRemix/mvp-sol/solidity/erc1155_proxy.sol\":3933:3935  ba */\n      dup1\n        /* \"upgradeSolidityRemix/mvp-sol/solidity/erc1155_proxy.sol\":3933:3942  ba.values */\n      0x01\n      add\n        /* \"upgradeSolidityRemix/mvp-sol/solidity/erc1155_proxy.sol\":3933:3948  ba.values[from] */\n      0x00\n        /* \"upgradeSolidityRemix/mvp-sol/solidity/erc1155_proxy.sol\":3943:3947  from */\n      dup8\n        /* \"upgradeSolidityRemix/mvp-sol/solidity/erc1155_proxy.sol\":3933:3948  ba.values[from] */\n      0xffffffffffffffffffffffffffffffffffffffff\n      and\n      0xffffffffffffffffffffffffffffffffffffffff\n      and\n      dup2\n      mstore\n      0x20\n      add\n      swap1\n      dup2\n      mstore\n      0x20\n      add\n      0x00\n      keccak256\n        /* \"upgradeSolidityRemix/mvp-sol/solidity/erc1155_proxy.sol\":3933:3957  ba.values[from].balances */\n      0x00\n      add\n      sload\n        /* \"upgradeSolidityRemix/mvp-sol/solidity/erc1155_proxy.sol\":3923:3929  amount */\n      dup3\n        /* \"upgradeSolidityRemix/mvp-sol/solidity/erc1155_proxy.sol\":3923:3957  amount <= ba.values[from].balances */\n      gt\n      iszero\n        /* \"upgradeSolidityRemix/mvp-sol/solidity/erc1155_proxy.sol\":3915:4008  require(amount <= ba.values[from].balances, \"#ERC1155Proxy#_transfer: INSUFFICIENT_BALANCES\") */\n      tag_230\n      jumpi\n      mload(0x40)\n      0x08c379a000000000000000000000000000000000000000000000000000000000\n      dup2\n      mstore\n      0x04\n      add\n      tag_231\n      swap1\n      tag_232\n      jump\t// in\n    tag_231:\n      mload(0x40)\n      dup1\n      swap2\n      sub\n      swap1\n      revert\n    tag_230:\n        /* \"upgradeSolidityRemix/mvp-sol/solidity/erc1155_proxy.sol\":4030:4031  0 */\n      0x00\n        /* \"upgradeSolidityRemix/mvp-sol/solidity/erc1155_proxy.sol\":4021:4027  amount */\n      dup3\n        /* \"upgradeSolidityRemix/mvp-sol/solidity/erc1155_proxy.sol\":4021:4031  amount > 0 */\n      gt\n        /* \"upgradeSolidityRemix/mvp-sol/solidity/erc1155_proxy.sol\":4013:4075  require(amount > 0, \"#ERC1155Proxy#_transfer: INVALID_AMOUNT\") */\n      tag_233\n      jumpi\n      mload(0x40)\n      0x08c379a000000000000000000000000000000000000000000000000000000000\n      dup2\n      mstore\n      0x04\n      add\n      tag_234\n      swap1\n      tag_235\n      jump\t// in\n    tag_234:\n      mload(0x40)\n      dup1\n      swap2\n      sub\n      swap1\n      revert\n    tag_233:\n        /* \"upgradeSolidityRemix/mvp-sol/solidity/erc1155_proxy.sol\":4082:4092  address to */\n      0x00\n        /* \"upgradeSolidityRemix/mvp-sol/solidity/erc1155_proxy.sol\":4095:4103  toOwners */\n      dup6\n        /* \"upgradeSolidityRemix/mvp-sol/solidity/erc1155_proxy.sol\":4095:4110  toOwners.owners */\n      0x40\n      add\n      mload\n        /* \"upgradeSolidityRemix/mvp-sol/solidity/erc1155_proxy.sol\":4111:4112  0 */\n      0x00\n        /* \"upgradeSolidityRemix/mvp-sol/solidity/erc1155_proxy.sol\":4095:4113  toOwners.owners[0] */\n      dup2\n      mload\n      dup2\n      lt\n      tag_236\n      jumpi\n      invalid\n    tag_236:\n      0x20\n      mul\n      0x20\n      add\n      add\n      mload\n        /* \"upgradeSolidityRemix/mvp-sol/solidity/erc1155_proxy.sol\":4082:4113  address to = toOwners.owners[0] */\n      swap1\n      pop\n        /* \"upgradeSolidityRemix/mvp-sol/solidity/erc1155_proxy.sol\":4118:4138  uint256 formBalances */\n      0x00\n        /* \"upgradeSolidityRemix/mvp-sol/solidity/erc1155_proxy.sol\":4168:4174  amount */\n      dup4\n        /* \"upgradeSolidityRemix/mvp-sol/solidity/erc1155_proxy.sol\":4141:4143  ba */\n      dup4\n        /* \"upgradeSolidityRemix/mvp-sol/solidity/erc1155_proxy.sol\":4141:4150  ba.values */\n      0x01\n      add\n        /* \"upgradeSolidityRemix/mvp-sol/solidity/erc1155_proxy.sol\":4141:4156  ba.values[from] */\n      0x00\n        /* \"upgradeSolidityRemix/mvp-sol/solidity/erc1155_proxy.sol\":4151:4155  from */\n      dup11\n        /* \"upgradeSolidityRemix/mvp-sol/solidity/erc1155_proxy.sol\":4141:4156  ba.values[from] */\n      0xffffffffffffffffffffffffffffffffffffffff\n      and\n      0xffffffffffffffffffffffffffffffffffffffff\n      and\n      dup2\n      mstore\n      0x20\n      add\n      swap1\n      dup2\n      mstore\n      0x20\n      add\n      0x00\n      keccak256\n        /* \"upgradeSolidityRemix/mvp-sol/solidity/erc1155_proxy.sol\":4141:4165  ba.values[from].balances */\n      0x00\n      add\n      sload\n        /* \"upgradeSolidityRemix/mvp-sol/solidity/erc1155_proxy.sol\":4141:4174  ba.values[from].balances - amount */\n      sub\n        /* \"upgradeSolidityRemix/mvp-sol/solidity/erc1155_proxy.sol\":4118:4174  uint256 formBalances = ba.values[from].balances - amount */\n      swap1\n      pop\n        /* \"upgradeSolidityRemix/mvp-sol/solidity/erc1155_proxy.sol\":4179:4197  uint256 toBalances */\n      0x00\n        /* \"upgradeSolidityRemix/mvp-sol/solidity/erc1155_proxy.sol\":4225:4231  amount */\n      dup5\n        /* \"upgradeSolidityRemix/mvp-sol/solidity/erc1155_proxy.sol\":4200:4202  ba */\n      dup5\n        /* \"upgradeSolidityRemix/mvp-sol/solidity/erc1155_proxy.sol\":4200:4209  ba.values */\n      0x01\n      add\n        /* \"upgradeSolidityRemix/mvp-sol/solidity/erc1155_proxy.sol\":4200:4213  ba.values[to] */\n      0x00\n        /* \"upgradeSolidityRemix/mvp-sol/solidity/erc1155_proxy.sol\":4210:4212  to */\n      dup6\n        /* \"upgradeSolidityRemix/mvp-sol/solidity/erc1155_proxy.sol\":4200:4213  ba.values[to] */\n      0xffffffffffffffffffffffffffffffffffffffff\n      and\n      0xffffffffffffffffffffffffffffffffffffffff\n      and\n      dup2\n      mstore\n      0x20\n      add\n      swap1\n      dup2\n      mstore\n      0x20\n      add\n      0x00\n      keccak256\n        /* \"upgradeSolidityRemix/mvp-sol/solidity/erc1155_proxy.sol\":4200:4222  ba.values[to].balances */\n      0x00\n      add\n      sload\n        /* \"upgradeSolidityRemix/mvp-sol/solidity/erc1155_proxy.sol\":4200:4231  ba.values[to].balances + amount */\n      add\n        /* \"upgradeSolidityRemix/mvp-sol/solidity/erc1155_proxy.sol\":4179:4231  uint256 toBalances = ba.values[to].balances + amount */\n      swap1\n      pop\n        /* \"upgradeSolidityRemix/mvp-sol/solidity/erc1155_proxy.sol\":4265:4277  formBalances */\n      dup2\n        /* \"upgradeSolidityRemix/mvp-sol/solidity/erc1155_proxy.sol\":4238:4240  ba */\n      dup5\n        /* \"upgradeSolidityRemix/mvp-sol/solidity/erc1155_proxy.sol\":4238:4247  ba.values */\n      0x01\n      add\n        /* \"upgradeSolidityRemix/mvp-sol/solidity/erc1155_proxy.sol\":4238:4253  ba.values[from] */\n      0x00\n        /* \"upgradeSolidityRemix/mvp-sol/solidity/erc1155_proxy.sol\":4248:4252  from */\n      dup12\n        /* \"upgradeSolidityRemix/mvp-sol/solidity/erc1155_proxy.sol\":4238:4253  ba.values[from] */\n      0xffffffffffffffffffffffffffffffffffffffff\n      and\n      0xffffffffffffffffffffffffffffffffffffffff\n      and\n      dup2\n      mstore\n      0x20\n      add\n      swap1\n      dup2\n      mstore\n      0x20\n      add\n      0x00\n      keccak256\n        /* \"upgradeSolidityRemix/mvp-sol/solidity/erc1155_proxy.sol\":4238:4262  ba.values[from].balances */\n      0x00\n      add\n        /* \"upgradeSolidityRemix/mvp-sol/solidity/erc1155_proxy.sol\":4238:4277  ba.values[from].balances = formBalances */\n      dup2\n      swap1\n      sstore\n      pop\n        /* \"upgradeSolidityRemix/mvp-sol/solidity/erc1155_proxy.sol\":4298:4306  toOwners */\n      dup8\n        /* \"upgradeSolidityRemix/mvp-sol/solidity/erc1155_proxy.sol\":4282:4284  ba */\n      dup5\n        /* \"upgradeSolidityRemix/mvp-sol/solidity/erc1155_proxy.sol\":4282:4291  ba.values */\n      0x01\n      add\n        /* \"upgradeSolidityRemix/mvp-sol/solidity/erc1155_proxy.sol\":4282:4295  ba.values[to] */\n      0x00\n        /* \"upgradeSolidityRemix/mvp-sol/solidity/erc1155_proxy.sol\":4292:4294  to */\n      dup6\n        /* \"upgradeSolidityRemix/mvp-sol/solidity/erc1155_proxy.sol\":4282:4295  ba.values[to] */\n      0xffffffffffffffffffffffffffffffffffffffff\n      and\n      0xffffffffffffffffffffffffffffffffffffffff\n      and\n      dup2\n      mstore\n      0x20\n      add\n      swap1\n      dup2\n      mstore\n      0x20\n      add\n      0x00\n      keccak256\n        /* \"upgradeSolidityRemix/mvp-sol/solidity/erc1155_proxy.sol\":4282:4306  ba.values[to] = toOwners */\n      0x00\n      dup3\n      add\n      mload\n      dup2\n      0x00\n      add\n      sstore\n      0x20\n      dup3\n      add\n      mload\n      dup2\n      0x01\n      add\n      sstore\n      0x40\n      dup3\n      add\n      mload\n      dup2\n      0x02\n      add\n      swap1\n      dup1\n      mload\n      swap1\n      0x20\n      add\n      swap1\n      tag_237\n      swap3\n      swap2\n      swap1\n      tag_238\n      jump\t// in\n    tag_237:\n      pop\n      swap1\n      pop\n      pop\n        /* \"upgradeSolidityRemix/mvp-sol/solidity/erc1155_proxy.sol\":4336:4346  toBalances */\n      dup1\n        /* \"upgradeSolidityRemix/mvp-sol/solidity/erc1155_proxy.sol\":4311:4313  ba */\n      dup5\n        /* \"upgradeSolidityRemix/mvp-sol/solidity/erc1155_proxy.sol\":4311:4320  ba.values */\n      0x01\n      add\n        /* \"upgradeSolidityRemix/mvp-sol/solidity/erc1155_proxy.sol\":4311:4324  ba.values[to] */\n      0x00\n        /* \"upgradeSolidityRemix/mvp-sol/solidity/erc1155_proxy.sol\":4321:4323  to */\n      dup6\n        /* \"upgradeSolidityRemix/mvp-sol/solidity/erc1155_proxy.sol\":4311:4324  ba.values[to] */\n      0xffffffffffffffffffffffffffffffffffffffff\n      and\n      0xffffffffffffffffffffffffffffffffffffffff\n      and\n      dup2\n      mstore\n      0x20\n      add\n      swap1\n      dup2\n      mstore\n      0x20\n      add\n      0x00\n      keccak256\n        /* \"upgradeSolidityRemix/mvp-sol/solidity/erc1155_proxy.sol\":4311:4333  ba.values[to].balances */\n      0x00\n      add\n        /* \"upgradeSolidityRemix/mvp-sol/solidity/erc1155_proxy.sol\":4311:4346  ba.values[to].balances = toBalances */\n      dup2\n      swap1\n      sstore\n      pop\n        /* \"upgradeSolidityRemix/mvp-sol/solidity/erc1155_proxy.sol\":4373:4374  0 */\n      0x00\n        /* \"upgradeSolidityRemix/mvp-sol/solidity/erc1155_proxy.sol\":4357:4369  formBalances */\n      dup3\n        /* \"upgradeSolidityRemix/mvp-sol/solidity/erc1155_proxy.sol\":4357:4374  formBalances == 0 */\n      eq\n        /* \"upgradeSolidityRemix/mvp-sol/solidity/erc1155_proxy.sol\":4353:4410  if (formBalances == 0) {\r... */\n      iszero\n      tag_239\n      jumpi\n        /* \"upgradeSolidityRemix/mvp-sol/solidity/erc1155_proxy.sol\":4389:4391  ba */\n      dup4\n        /* \"upgradeSolidityRemix/mvp-sol/solidity/erc1155_proxy.sol\":4389:4398  ba.values */\n      0x01\n      add\n        /* \"upgradeSolidityRemix/mvp-sol/solidity/erc1155_proxy.sol\":4389:4404  ba.values[from] */\n      0x00\n        /* \"upgradeSolidityRemix/mvp-sol/solidity/erc1155_proxy.sol\":4399:4403  from */\n      dup11\n        /* \"upgradeSolidityRemix/mvp-sol/solidity/erc1155_proxy.sol\":4389:4404  ba.values[from] */\n      0xffffffffffffffffffffffffffffffffffffffff\n      and\n      0xffffffffffffffffffffffffffffffffffffffff\n      and\n      dup2\n      mstore\n      0x20\n      add\n      swap1\n      dup2\n      mstore\n      0x20\n      add\n      0x00\n      keccak256\n      0x00\n        /* \"upgradeSolidityRemix/mvp-sol/solidity/erc1155_proxy.sol\":4382:4404  delete ba.values[from] */\n      dup1\n      dup3\n      add\n      0x00\n      swap1\n      sstore\n      0x01\n      dup3\n      add\n      0x00\n      swap1\n      sstore\n      0x02\n      dup3\n      add\n      0x00\n      tag_240\n      swap2\n      swap1\n      tag_215\n      jump\t// in\n    tag_240:\n      pop\n      pop\n        /* \"upgradeSolidityRemix/mvp-sol/solidity/erc1155_proxy.sol\":4353:4410  if (formBalances == 0) {\r... */\n    tag_239:\n        /* \"upgradeSolidityRemix/mvp-sol/solidity/erc1155_proxy.sol\":4447:4454  tokenId */\n      dup6\n        /* \"upgradeSolidityRemix/mvp-sol/solidity/erc1155_proxy.sol\":4436:4438  to */\n      dup4\n        /* \"upgradeSolidityRemix/mvp-sol/solidity/erc1155_proxy.sol\":4421:4481  Transfer(from, to, token, tokenId, formBalances, toBalances) */\n      0xffffffffffffffffffffffffffffffffffffffff\n      and\n        /* \"upgradeSolidityRemix/mvp-sol/solidity/erc1155_proxy.sol\":4430:4434  from */\n      dup11\n        /* \"upgradeSolidityRemix/mvp-sol/solidity/erc1155_proxy.sol\":4421:4481  Transfer(from, to, token, tokenId, formBalances, toBalances) */\n      0xffffffffffffffffffffffffffffffffffffffff\n      and\n      0x737ab30b9cd3ddae02069f3057591007faf2305652d04c2582f7f1f6185d9711\n        /* \"upgradeSolidityRemix/mvp-sol/solidity/erc1155_proxy.sol\":4440:4445  token */\n      dup11\n        /* \"upgradeSolidityRemix/mvp-sol/solidity/erc1155_proxy.sol\":4456:4468  formBalances */\n      dup7\n        /* \"upgradeSolidityRemix/mvp-sol/solidity/erc1155_proxy.sol\":4470:4480  toBalances */\n      dup7\n        /* \"upgradeSolidityRemix/mvp-sol/solidity/erc1155_proxy.sol\":4421:4481  Transfer(from, to, token, tokenId, formBalances, toBalances) */\n      mload(0x40)\n      tag_241\n      swap4\n      swap3\n      swap2\n      swap1\n      tag_242\n      jump\t// in\n    tag_241:\n      mload(0x40)\n      dup1\n      swap2\n      sub\n      swap1\n      log4\n        /* \"upgradeSolidityRemix/mvp-sol/solidity/erc1155_proxy.sol\":3735:4486  function _transfer(address from, Owners memory toOwners, address token, uint256 tokenId, uint256 amount) internal override {\r... */\n      pop\n      pop\n      pop\n      pop\n      pop\n      pop\n      pop\n      pop\n      pop\n      jump\t// out\n        /* \"upgradeSolidityRemix/mvp-sol/solidity/nft_proxy.sol\":2877:3091  function indexOf(address[] memory addrs, address addr) internal pure returns(int256) {\r... */\n    tag_157:\n        /* \"upgradeSolidityRemix/mvp-sol/solidity/nft_proxy.sol\":2954:2960  int256 */\n      0x00\n        /* \"upgradeSolidityRemix/mvp-sol/solidity/nft_proxy.sol\":2972:2981  uint256 i */\n      dup1\n        /* \"upgradeSolidityRemix/mvp-sol/solidity/nft_proxy.sol\":2984:2985  0 */\n      0x00\n        /* \"upgradeSolidityRemix/mvp-sol/solidity/nft_proxy.sol\":2972:2985  uint256 i = 0 */\n      swap1\n      pop\n        /* \"upgradeSolidityRemix/mvp-sol/solidity/nft_proxy.sol\":2967:3073  for (uint256 i = 0; i < addrs.length; i++) {\r... */\n    tag_244:\n        /* \"upgradeSolidityRemix/mvp-sol/solidity/nft_proxy.sol\":2991:2996  addrs */\n      dup4\n        /* \"upgradeSolidityRemix/mvp-sol/solidity/nft_proxy.sol\":2991:3003  addrs.length */\n      mload\n        /* \"upgradeSolidityRemix/mvp-sol/solidity/nft_proxy.sol\":2987:2988  i */\n      dup2\n        /* \"upgradeSolidityRemix/mvp-sol/solidity/nft_proxy.sol\":2987:3003  i < addrs.length */\n      lt\n        /* \"upgradeSolidityRemix/mvp-sol/solidity/nft_proxy.sol\":2967:3073  for (uint256 i = 0; i < addrs.length; i++) {\r... */\n      iszero\n      tag_245\n      jumpi\n        /* \"upgradeSolidityRemix/mvp-sol/solidity/nft_proxy.sol\":3032:3036  addr */\n      dup3\n        /* \"upgradeSolidityRemix/mvp-sol/solidity/nft_proxy.sol\":3020:3036  addrs[i] == addr */\n      0xffffffffffffffffffffffffffffffffffffffff\n      and\n        /* \"upgradeSolidityRemix/mvp-sol/solidity/nft_proxy.sol\":3020:3025  addrs */\n      dup5\n        /* \"upgradeSolidityRemix/mvp-sol/solidity/nft_proxy.sol\":3026:3027  i */\n      dup3\n        /* \"upgradeSolidityRemix/mvp-sol/solidity/nft_proxy.sol\":3020:3028  addrs[i] */\n      dup2\n      mload\n      dup2\n      lt\n      tag_247\n      jumpi\n      invalid\n    tag_247:\n      0x20\n      mul\n      0x20\n      add\n      add\n      mload\n        /* \"upgradeSolidityRemix/mvp-sol/solidity/nft_proxy.sol\":3020:3036  addrs[i] == addr */\n      0xffffffffffffffffffffffffffffffffffffffff\n      and\n      eq\n        /* \"upgradeSolidityRemix/mvp-sol/solidity/nft_proxy.sol\":3016:3068  if (addrs[i] == addr) {\r... */\n      iszero\n      tag_248\n      jumpi\n        /* \"upgradeSolidityRemix/mvp-sol/solidity/nft_proxy.sol\":3059:3060  i */\n      dup1\n        /* \"upgradeSolidityRemix/mvp-sol/solidity/nft_proxy.sol\":3045:3061  return int256(i) */\n      swap2\n      pop\n      pop\n      jump(tag_243)\n        /* \"upgradeSolidityRemix/mvp-sol/solidity/nft_proxy.sol\":3016:3068  if (addrs[i] == addr) {\r... */\n    tag_248:\n        /* \"upgradeSolidityRemix/mvp-sol/solidity/nft_proxy.sol\":3005:3008  i++ */\n      dup1\n      dup1\n      0x01\n      add\n      swap2\n      pop\n      pop\n        /* \"upgradeSolidityRemix/mvp-sol/solidity/nft_proxy.sol\":2967:3073  for (uint256 i = 0; i < addrs.length; i++) {\r... */\n      jump(tag_244)\n    tag_245:\n      pop\n        /* \"upgradeSolidityRemix/mvp-sol/solidity/nft_proxy.sol\":3084:3086  -1 */\n      0xffffffffffffffffffffffffffffffffffffffffffffffffffffffffffffffff\n        /* \"upgradeSolidityRemix/mvp-sol/solidity/nft_proxy.sol\":3077:3086  return -1 */\n      swap1\n      pop\n        /* \"upgradeSolidityRemix/mvp-sol/solidity/nft_proxy.sol\":2877:3091  function indexOf(address[] memory addrs, address addr) internal pure returns(int256) {\r... */\n    tag_243:\n      swap3\n      swap2\n      pop\n      pop\n      jump\t// out\n        /* \"upgradeSolidityRemix/mvp-sol/solidity/erc1155_proxy.sol\":955:1291  function _isERC1155(address addr) internal view returns (IERC1155) {\r... */\n    tag_179:\n        /* \"upgradeSolidityRemix/mvp-sol/solidity/erc1155_proxy.sol\":1012:1020  IERC1155 */\n      0x00\n        /* \"upgradeSolidityRemix/mvp-sol/solidity/erc1155_proxy.sol\":1040:1057  addr.isContract() */\n      tag_250\n        /* \"upgradeSolidityRemix/mvp-sol/solidity/erc1155_proxy.sol\":1040:1044  addr */\n      dup3\n        /* \"upgradeSolidityRemix/mvp-sol/solidity/erc1155_proxy.sol\":1040:1055  addr.isContract */\n      0xffffffffffffffffffffffffffffffffffffffff\n      and\n      tag_251\n        /* \"upgradeSolidityRemix/mvp-sol/solidity/erc1155_proxy.sol\":1040:1057  addr.isContract() */\n      jump\t// in\n    tag_250:\n        /* \"upgradeSolidityRemix/mvp-sol/solidity/erc1155_proxy.sol\":1027:1120  require(\r... */\n      tag_252\n      jumpi\n      mload(0x40)\n      0x08c379a000000000000000000000000000000000000000000000000000000000\n      dup2\n      mstore\n      0x04\n      add\n      tag_253\n      swap1\n      tag_254\n      jump\t// in\n    tag_253:\n      mload(0x40)\n      dup1\n      swap2\n      sub\n      swap1\n      revert\n    tag_252:\n        /* \"upgradeSolidityRemix/mvp-sol/solidity/erc1155_proxy.sol\":1147:1151  addr */\n      dup2\n        /* \"upgradeSolidityRemix/mvp-sol/solidity/erc1155_proxy.sol\":1138:1170  IERC1155(addr).supportsInterface */\n      0xffffffffffffffffffffffffffffffffffffffff\n      and\n      0x01ffc9a7\n        /* \"upgradeSolidityRemix/mvp-sol/solidity/erc1155_proxy.sol\":588:598  0xd9b67a26 */\n      0xd9b67a26\n        /* \"upgradeSolidityRemix/mvp-sol/solidity/erc1155_proxy.sol\":1171:1192  _INTERFACE_ID_ERC1155 */\n      0xe0\n      shl\n        /* \"upgradeSolidityRemix/mvp-sol/solidity/erc1155_proxy.sol\":1138:1193  IERC1155(addr).supportsInterface(_INTERFACE_ID_ERC1155) */\n      mload(0x40)\n      dup3\n      0xffffffff\n      and\n      0xe0\n      shl\n      dup2\n      mstore\n      0x04\n      add\n      tag_255\n      swap2\n      swap1\n      tag_71\n      jump\t// in\n    tag_255:\n      0x20\n      mload(0x40)\n      dup1\n      dup4\n      sub\n      dup2\n      dup7\n      dup1\n      extcodesize\n      iszero\n      dup1\n      iszero\n      tag_256\n      jumpi\n      0x00\n      dup1\n      revert\n    tag_256:\n      pop\n      gas\n      staticcall\n      iszero\n      dup1\n      iszero\n      tag_258\n      jumpi\n      returndatasize\n      0x00\n      dup1\n      returndatacopy\n      revert(0x00, returndatasize)\n    tag_258:\n      pop\n      pop\n      pop\n      pop\n      mload(0x40)\n      returndatasize\n      not(0x1f)\n      0x1f\n      dup3\n      add\n      and\n      dup3\n      add\n      dup1\n      0x40\n      mstore\n      pop\n      dup2\n      add\n      swap1\n      tag_259\n      swap2\n      swap1\n      tag_260\n      jump\t// in\n    tag_259:\n        /* \"upgradeSolidityRemix/mvp-sol/solidity/erc1155_proxy.sol\":1125:1260  require(\r... */\n      tag_261\n      jumpi\n      mload(0x40)\n      0x08c379a000000000000000000000000000000000000000000000000000000000\n      dup2\n      mstore\n      0x04\n      add\n      tag_262\n      swap1\n      tag_263\n      jump\t// in\n    tag_262:\n      mload(0x40)\n      dup1\n      swap2\n      sub\n      swap1\n      revert\n    tag_261:\n        /* \"upgradeSolidityRemix/mvp-sol/solidity/erc1155_proxy.sol\":1281:1285  addr */\n      dup2\n        /* \"upgradeSolidityRemix/mvp-sol/solidity/erc1155_proxy.sol\":1265:1286  return IERC1155(addr) */\n      swap1\n      pop\n        /* \"upgradeSolidityRemix/mvp-sol/solidity/erc1155_proxy.sol\":955:1291  function _isERC1155(address addr) internal view returns (IERC1155) {\r... */\n      swap2\n      swap1\n      pop\n      jump\t// out\n        /* \"upgradeSolidityRemix/mvp-sol/solidity/erc1155_proxy.sol\":1296:2041  function _onERC1155Received(\r... */\n    tag_186:\n        /* \"upgradeSolidityRemix/mvp-sol/solidity/erc1155_proxy.sol\":1447:1466  Balances storage ba */\n      0x00\n        /* \"upgradeSolidityRemix/mvp-sol/solidity/erc1155_proxy.sol\":1469:1476  _assets */\n      0x02\n        /* \"upgradeSolidityRemix/mvp-sol/solidity/erc1155_proxy.sol\":1469:1492  _assets[address(token)] */\n      0x00\n        /* \"upgradeSolidityRemix/mvp-sol/solidity/erc1155_proxy.sol\":1485:1490  token */\n      dup9\n        /* \"upgradeSolidityRemix/mvp-sol/solidity/erc1155_proxy.sol\":1469:1492  _assets[address(token)] */\n      0xffffffffffffffffffffffffffffffffffffffff\n      and\n      0xffffffffffffffffffffffffffffffffffffffff\n      and\n      dup2\n      mstore\n      0x20\n      add\n      swap1\n      dup2\n      mstore\n      0x20\n      add\n      0x00\n      keccak256\n        /* \"upgradeSolidityRemix/mvp-sol/solidity/erc1155_proxy.sol\":1469:1496  _assets[address(token)][id] */\n      0x00\n        /* \"upgradeSolidityRemix/mvp-sol/solidity/erc1155_proxy.sol\":1493:1495  id */\n      dup6\n        /* \"upgradeSolidityRemix/mvp-sol/solidity/erc1155_proxy.sol\":1469:1496  _assets[address(token)][id] */\n      dup2\n      mstore\n      0x20\n      add\n      swap1\n      dup2\n      mstore\n      0x20\n      add\n      0x00\n      keccak256\n        /* \"upgradeSolidityRemix/mvp-sol/solidity/erc1155_proxy.sol\":1447:1496  Balances storage ba = _assets[address(token)][id] */\n      swap1\n      pop\n        /* \"upgradeSolidityRemix/mvp-sol/solidity/erc1155_proxy.sol\":1563:1568  value */\n      dup3\n        /* \"upgradeSolidityRemix/mvp-sol/solidity/erc1155_proxy.sol\":1552:1554  ba */\n      dup2\n        /* \"upgradeSolidityRemix/mvp-sol/solidity/erc1155_proxy.sol\":1552:1560  ba.total */\n      0x00\n      add\n      sload\n        /* \"upgradeSolidityRemix/mvp-sol/solidity/erc1155_proxy.sol\":1552:1568  ba.total + value */\n      add\n        /* \"upgradeSolidityRemix/mvp-sol/solidity/erc1155_proxy.sol\":1514:1519  token */\n      dup8\n        /* \"upgradeSolidityRemix/mvp-sol/solidity/erc1155_proxy.sol\":1514:1529  token.balanceOf */\n      0xffffffffffffffffffffffffffffffffffffffff\n      and\n      0xfdd58e\n        /* \"upgradeSolidityRemix/mvp-sol/solidity/erc1155_proxy.sol\":1538:1542  this */\n      address\n        /* \"upgradeSolidityRemix/mvp-sol/solidity/erc1155_proxy.sol\":1545:1547  id */\n      dup8\n        /* \"upgradeSolidityRemix/mvp-sol/solidity/erc1155_proxy.sol\":1514:1548  token.balanceOf(address(this), id) */\n      mload(0x40)\n      dup4\n      0xffffffff\n      and\n      0xe0\n      shl\n      dup2\n      mstore\n      0x04\n      add\n      tag_265\n      swap3\n      swap2\n      swap1\n      tag_266\n      jump\t// in\n    tag_265:\n      0x20\n      mload(0x40)\n      dup1\n      dup4\n      sub\n      dup2\n      dup7\n      dup1\n      extcodesize\n      iszero\n      dup1\n      iszero\n      tag_267\n      jumpi\n      0x00\n      dup1\n      revert\n    tag_267:\n      pop\n      gas\n      staticcall\n      iszero\n      dup1\n      iszero\n      tag_269\n      jumpi\n      returndatasize\n      0x00\n      dup1\n      returndatacopy\n      revert(0x00, returndatasize)\n    tag_269:\n      pop\n      pop\n      pop\n      pop\n      mload(0x40)\n      returndatasize\n      not(0x1f)\n      0x1f\n      dup3\n      add\n      and\n      dup3\n      add\n      dup1\n      0x40\n      mstore\n      pop\n      dup2\n      add\n      swap1\n      tag_270\n      swap2\n      swap1\n      tag_271\n      jump\t// in\n    tag_270:\n        /* \"upgradeSolidityRemix/mvp-sol/solidity/erc1155_proxy.sol\":1514:1568  token.balanceOf(address(this), id) >= ba.total + value */\n      lt\n      iszero\n        /* \"upgradeSolidityRemix/mvp-sol/solidity/erc1155_proxy.sol\":1501:1629  require(\r... */\n      tag_272\n      jumpi\n      mload(0x40)\n      0x08c379a000000000000000000000000000000000000000000000000000000000\n      dup2\n      mstore\n      0x04\n      add\n      tag_273\n      swap1\n      tag_274\n      jump\t// in\n    tag_273:\n      mload(0x40)\n      dup1\n      swap2\n      sub\n      swap1\n      revert\n    tag_272:\n        /* \"upgradeSolidityRemix/mvp-sol/solidity/erc1155_proxy.sol\":1634:1655  Owners memory owners_ */\n      tag_275\n      tag_87\n      jump\t// in\n    tag_275:\n        /* \"upgradeSolidityRemix/mvp-sol/solidity/erc1155_proxy.sol\":1658:1710  checkOwners(address(token), id, toOwners, signCount) */\n      tag_276\n        /* \"upgradeSolidityRemix/mvp-sol/solidity/erc1155_proxy.sol\":1678:1683  token */\n      dup9\n        /* \"upgradeSolidityRemix/mvp-sol/solidity/erc1155_proxy.sol\":1686:1688  id */\n      dup7\n        /* \"upgradeSolidityRemix/mvp-sol/solidity/erc1155_proxy.sol\":1690:1698  toOwners */\n      dup9\n        /* \"upgradeSolidityRemix/mvp-sol/solidity/erc1155_proxy.sol\":1700:1709  signCount */\n      dup7\n        /* \"upgradeSolidityRemix/mvp-sol/solidity/erc1155_proxy.sol\":1658:1669  checkOwners */\n      tag_101\n        /* \"upgradeSolidityRemix/mvp-sol/solidity/erc1155_proxy.sol\":1658:1710  checkOwners(address(token), id, toOwners, signCount) */\n      jump\t// in\n    tag_276:\n        /* \"upgradeSolidityRemix/mvp-sol/solidity/erc1155_proxy.sol\":1634:1710  Owners memory owners_ = checkOwners(address(token), id, toOwners, signCount) */\n      swap1\n      pop\n        /* \"upgradeSolidityRemix/mvp-sol/solidity/erc1155_proxy.sol\":1717:1727  address to */\n      0x00\n        /* \"upgradeSolidityRemix/mvp-sol/solidity/erc1155_proxy.sol\":1730:1738  toOwners */\n      dup7\n        /* \"upgradeSolidityRemix/mvp-sol/solidity/erc1155_proxy.sol\":1739:1740  0 */\n      0x00\n        /* \"upgradeSolidityRemix/mvp-sol/solidity/erc1155_proxy.sol\":1730:1741  toOwners[0] */\n      dup2\n      mload\n      dup2\n      lt\n      tag_277\n      jumpi\n      invalid\n    tag_277:\n      0x20\n      mul\n      0x20\n      add\n      add\n      mload\n        /* \"upgradeSolidityRemix/mvp-sol/solidity/erc1155_proxy.sol\":1717:1741  address to = toOwners[0] */\n      swap1\n      pop\n        /* \"upgradeSolidityRemix/mvp-sol/solidity/erc1155_proxy.sol\":1746:1767  Owners storage owners */\n      0x00\n        /* \"upgradeSolidityRemix/mvp-sol/solidity/erc1155_proxy.sol\":1770:1772  ba */\n      dup4\n        /* \"upgradeSolidityRemix/mvp-sol/solidity/erc1155_proxy.sol\":1770:1779  ba.values */\n      0x01\n      add\n        /* \"upgradeSolidityRemix/mvp-sol/solidity/erc1155_proxy.sol\":1770:1783  ba.values[to] */\n      0x00\n        /* \"upgradeSolidityRemix/mvp-sol/solidity/erc1155_proxy.sol\":1780:1782  to */\n      dup4\n        /* \"upgradeSolidityRemix/mvp-sol/solidity/erc1155_proxy.sol\":1770:1783  ba.values[to] */\n      0xffffffffffffffffffffffffffffffffffffffff\n      and\n      0xffffffffffffffffffffffffffffffffffffffff\n      and\n      dup2\n      mstore\n      0x20\n      add\n      swap1\n      dup2\n      mstore\n      0x20\n      add\n      0x00\n      keccak256\n        /* \"upgradeSolidityRemix/mvp-sol/solidity/erc1155_proxy.sol\":1746:1783  Owners storage owners = ba.values[to] */\n      swap1\n      pop\n        /* \"upgradeSolidityRemix/mvp-sol/solidity/erc1155_proxy.sol\":1788:1806  uint256 toBalances */\n      0x00\n        /* \"upgradeSolidityRemix/mvp-sol/solidity/erc1155_proxy.sol\":1827:1832  value */\n      dup7\n        /* \"upgradeSolidityRemix/mvp-sol/solidity/erc1155_proxy.sol\":1809:1815  owners */\n      dup3\n        /* \"upgradeSolidityRemix/mvp-sol/solidity/erc1155_proxy.sol\":1809:1824  owners.balances */\n      0x00\n      add\n      sload\n        /* \"upgradeSolidityRemix/mvp-sol/solidity/erc1155_proxy.sol\":1809:1832  owners.balances + value */\n      add\n        /* \"upgradeSolidityRemix/mvp-sol/solidity/erc1155_proxy.sol\":1788:1832  uint256 toBalances = owners.balances + value */\n      swap1\n      pop\n        /* \"upgradeSolidityRemix/mvp-sol/solidity/erc1155_proxy.sol\":1857:1867  toBalances */\n      dup1\n        /* \"upgradeSolidityRemix/mvp-sol/solidity/erc1155_proxy.sol\":1839:1845  owners */\n      dup3\n        /* \"upgradeSolidityRemix/mvp-sol/solidity/erc1155_proxy.sol\":1839:1854  owners.balances */\n      0x00\n      add\n        /* \"upgradeSolidityRemix/mvp-sol/solidity/erc1155_proxy.sol\":1839:1867  owners.balances = toBalances */\n      dup2\n      swap1\n      sstore\n      pop\n        /* \"upgradeSolidityRemix/mvp-sol/solidity/erc1155_proxy.sol\":1888:1895  owners_ */\n      dup4\n        /* \"upgradeSolidityRemix/mvp-sol/solidity/erc1155_proxy.sol\":1888:1902  owners_.owners */\n      0x40\n      add\n      mload\n        /* \"upgradeSolidityRemix/mvp-sol/solidity/erc1155_proxy.sol\":1872:1878  owners */\n      dup3\n        /* \"upgradeSolidityRemix/mvp-sol/solidity/erc1155_proxy.sol\":1872:1885  owners.owners */\n      0x02\n      add\n        /* \"upgradeSolidityRemix/mvp-sol/solidity/erc1155_proxy.sol\":1872:1902  owners.owners = owners_.owners */\n      swap1\n      dup1\n      mload\n      swap1\n      0x20\n      add\n      swap1\n      tag_278\n      swap3\n      swap2\n      swap1\n      tag_238\n      jump\t// in\n    tag_278:\n      pop\n        /* \"upgradeSolidityRemix/mvp-sol/solidity/erc1155_proxy.sol\":1926:1933  owners_ */\n      dup4\n        /* \"upgradeSolidityRemix/mvp-sol/solidity/erc1155_proxy.sol\":1926:1943  owners_.signCount */\n      0x20\n      add\n      mload\n        /* \"upgradeSolidityRemix/mvp-sol/solidity/erc1155_proxy.sol\":1907:1913  owners */\n      dup3\n        /* \"upgradeSolidityRemix/mvp-sol/solidity/erc1155_proxy.sol\":1907:1923  owners.signCount */\n      0x01\n      add\n        /* \"upgradeSolidityRemix/mvp-sol/solidity/erc1155_proxy.sol\":1907:1943  owners.signCount = owners_.signCount */\n      dup2\n      swap1\n      sstore\n      pop\n        /* \"upgradeSolidityRemix/mvp-sol/solidity/erc1155_proxy.sol\":1960:1965  value */\n      dup7\n        /* \"upgradeSolidityRemix/mvp-sol/solidity/erc1155_proxy.sol\":1948:1950  ba */\n      dup6\n        /* \"upgradeSolidityRemix/mvp-sol/solidity/erc1155_proxy.sol\":1948:1956  ba.total */\n      0x00\n      add\n      0x00\n        /* \"upgradeSolidityRemix/mvp-sol/solidity/erc1155_proxy.sol\":1948:1965  ba.total += value */\n      dup3\n      dup3\n      sload\n      add\n      swap3\n      pop\n      pop\n      dup2\n      swap1\n      sstore\n      pop\n        /* \"upgradeSolidityRemix/mvp-sol/solidity/erc1155_proxy.sol\":2018:2020  id */\n      dup8\n        /* \"upgradeSolidityRemix/mvp-sol/solidity/erc1155_proxy.sol\":1998:2000  to */\n      dup4\n        /* \"upgradeSolidityRemix/mvp-sol/solidity/erc1155_proxy.sol\":1977:2036  Transfer(address(0), to, address(token), id, 0, toBalances) */\n      0xffffffffffffffffffffffffffffffffffffffff\n      and\n        /* \"upgradeSolidityRemix/mvp-sol/solidity/erc1155_proxy.sol\":1994:1995  0 */\n      0x00\n        /* \"upgradeSolidityRemix/mvp-sol/solidity/erc1155_proxy.sol\":1977:2036  Transfer(address(0), to, address(token), id, 0, toBalances) */\n      0xffffffffffffffffffffffffffffffffffffffff\n      and\n      0x737ab30b9cd3ddae02069f3057591007faf2305652d04c2582f7f1f6185d9711\n        /* \"upgradeSolidityRemix/mvp-sol/solidity/erc1155_proxy.sol\":2010:2015  token */\n      dup15\n        /* \"upgradeSolidityRemix/mvp-sol/solidity/erc1155_proxy.sol\":2022:2023  0 */\n      0x00\n        /* \"upgradeSolidityRemix/mvp-sol/solidity/erc1155_proxy.sol\":2025:2035  toBalances */\n      dup7\n        /* \"upgradeSolidityRemix/mvp-sol/solidity/erc1155_proxy.sol\":1977:2036  Transfer(address(0), to, address(token), id, 0, toBalances) */\n      mload(0x40)\n      tag_279\n      swap4\n      swap3\n      swap2\n      swap1\n      tag_280\n      jump\t// in\n    tag_279:\n      mload(0x40)\n      dup1\n      swap2\n      sub\n      swap1\n      log4\n        /* \"upgradeSolidityRemix/mvp-sol/solidity/erc1155_proxy.sol\":1296:2041  function _onERC1155Received(\r... */\n      pop\n      pop\n      pop\n      pop\n      pop\n      pop\n      pop\n      pop\n      pop\n      pop\n      pop\n      jump\t// out\n        /* \"upgradeSolidityRemix/mvp-sol/solidity/nft_proxy.sol\":2193:2388  function checkEmptyAddress(address[] memory addrs) internal pure returns(address) {\r... */\n    tag_222:\n        /* \"upgradeSolidityRemix/mvp-sol/solidity/nft_proxy.sol\":2266:2273  address */\n      0x00\n        /* \"upgradeSolidityRemix/mvp-sol/solidity/nft_proxy.sol\":2304:2305  0 */\n      dup1\n        /* \"upgradeSolidityRemix/mvp-sol/solidity/nft_proxy.sol\":2288:2293  addrs */\n      dup3\n        /* \"upgradeSolidityRemix/mvp-sol/solidity/nft_proxy.sol\":2288:2300  addrs.length */\n      mload\n        /* \"upgradeSolidityRemix/mvp-sol/solidity/nft_proxy.sol\":2288:2305  addrs.length != 0 */\n      eq\n      iszero\n        /* \"upgradeSolidityRemix/mvp-sol/solidity/nft_proxy.sol\":2280:2363  require(addrs.length != 0, \"#NFTProxy#checkAddressEmpty: ADDRESS_LIST_LENGTH_ZERO\") */\n      tag_282\n      jumpi\n      mload(0x40)\n      0x08c379a000000000000000000000000000000000000000000000000000000000\n      dup2\n      mstore\n      0x04\n      add\n      tag_283\n      swap1\n      tag_284\n      jump\t// in\n    tag_283:\n      mload(0x40)\n      dup1\n      swap2\n      sub\n      swap1\n      revert\n    tag_282:\n        /* \"upgradeSolidityRemix/mvp-sol/solidity/nft_proxy.sol\":2375:2380  addrs */\n      dup2\n        /* \"upgradeSolidityRemix/mvp-sol/solidity/nft_proxy.sol\":2381:2382  0 */\n      0x00\n        /* \"upgradeSolidityRemix/mvp-sol/solidity/nft_proxy.sol\":2375:2383  addrs[0] */\n      dup2\n      mload\n      dup2\n      lt\n      tag_285\n      jumpi\n      invalid\n    tag_285:\n      0x20\n      mul\n      0x20\n      add\n      add\n      mload\n        /* \"upgradeSolidityRemix/mvp-sol/solidity/nft_proxy.sol\":2368:2383  return addrs[0] */\n      swap1\n      pop\n        /* \"upgradeSolidityRemix/mvp-sol/solidity/nft_proxy.sol\":2193:2388  function checkEmptyAddress(address[] memory addrs) internal pure returns(address) {\r... */\n      swap2\n      swap1\n      pop\n      jump\t// out\n        /* \"@openzeppelin/contracts-ethereum-package/contracts/utils/Address.sol\":685:1295  function isContract(address account) internal view returns (bool) {... */\n    tag_251:\n        /* \"@openzeppelin/contracts-ethereum-package/contracts/utils/Address.sol\":745:749  bool */\n      0x00\n        /* \"@openzeppelin/contracts-ethereum-package/contracts/utils/Address.sol\":1003:1019  bytes32 codehash */\n      dup1\n        /* \"@openzeppelin/contracts-ethereum-package/contracts/utils/Address.sol\":1029:1048  bytes32 accountHash */\n      0x00\n        /* \"@openzeppelin/contracts-ethereum-package/contracts/utils/Address.sol\":1051:1117  0xc5d2460186f7233c927e7db2dcc703c0e500b653ca82273b7bfad8045d85a470 */\n      0xc5d2460186f7233c927e7db2dcc703c0e500b653ca82273b7bfad8045d85a470\n        /* \"@openzeppelin/contracts-ethereum-package/contracts/utils/Address.sol\":1029:1117  bytes32 accountHash = 0xc5d2460186f7233c927e7db2dcc703c0e500b653ca82273b7bfad8045d85a470 */\n      0x00\n      shl\n      swap1\n      pop\n        /* \"@openzeppelin/contracts-ethereum-package/contracts/utils/Address.sol\":1218:1225  account */\n      dup4\n        /* \"@openzeppelin/contracts-ethereum-package/contracts/utils/Address.sol\":1206:1226  extcodehash(account) */\n      extcodehash\n        /* \"@openzeppelin/contracts-ethereum-package/contracts/utils/Address.sol\":1194:1226  codehash := extcodehash(account) */\n      swap2\n      pop\n        /* \"@openzeppelin/contracts-ethereum-package/contracts/utils/Address.sol\":1257:1268  accountHash */\n      dup1\n        /* \"@openzeppelin/contracts-ethereum-package/contracts/utils/Address.sol\":1245:1253  codehash */\n      dup3\n        /* \"@openzeppelin/contracts-ethereum-package/contracts/utils/Address.sol\":1245:1268  codehash != accountHash */\n      eq\n      iszero\n        /* \"@openzeppelin/contracts-ethereum-package/contracts/utils/Address.sol\":1245:1287  codehash != accountHash && codehash != 0x0 */\n      dup1\n      iszero\n      tag_287\n      jumpi\n      pop\n        /* \"@openzeppelin/contracts-ethereum-package/contracts/utils/Address.sol\":1284:1287  0x0 */\n      0x00\n        /* \"@openzeppelin/contracts-ethereum-package/contracts/utils/Address.sol\":1272:1287  codehash != 0x0 */\n      dup1\n      shl\n        /* \"@openzeppelin/contracts-ethereum-package/contracts/utils/Address.sol\":1272:1280  codehash */\n      dup3\n        /* \"@openzeppelin/contracts-ethereum-package/contracts/utils/Address.sol\":1272:1287  codehash != 0x0 */\n      eq\n      iszero\n        /* \"@openzeppelin/contracts-ethereum-package/contracts/utils/Address.sol\":1245:1287  codehash != accountHash && codehash != 0x0 */\n    tag_287:\n        /* \"@openzeppelin/contracts-ethereum-package/contracts/utils/Address.sol\":1237:1288  return (codehash != accountHash && codehash != 0x0) */\n      swap3\n      pop\n      pop\n      pop\n        /* \"@openzeppelin/contracts-ethereum-package/contracts/utils/Address.sol\":685:1295  function isContract(address account) internal view returns (bool) {... */\n      swap2\n      swap1\n      pop\n      jump\t// out\n    tag_87:\n      mload(0x40)\n      dup1\n      0x60\n      add\n      0x40\n      mstore\n      dup1\n      0x00\n      dup2\n      mstore\n      0x20\n      add\n      0x00\n      dup2\n      mstore\n      0x20\n      add\n      0x60\n      dup2\n      mstore\n      pop\n      swap1\n      jump\t// out\n    tag_162:\n      mload(0x40)\n      dup1\n      0x60\n      add\n      0x40\n      mstore\n      dup1\n      0x00\n      dup1\n      not\n      and\n      dup2\n      mstore\n      0x20\n      add\n      0x00\n      dup1\n      not\n      and\n      dup2\n      mstore\n      0x20\n      add\n      and(0xff, 0x00)\n      dup2\n      mstore\n      pop\n      swap1\n      jump\t// out\n    tag_215:\n      pop\n      dup1\n      sload\n      0x00\n      dup3\n      sstore\n      swap1\n      0x00\n      mstore\n      keccak256(0x00, 0x20)\n      swap1\n      dup2\n      add\n      swap1\n      tag_289\n      swap2\n      swap1\n      tag_290\n      jump\t// in\n    tag_289:\n      pop\n      jump\t// out\n    tag_238:\n      dup3\n      dup1\n      sload\n      dup3\n      dup3\n      sstore\n      swap1\n      0x00\n      mstore\n      keccak256(0x00, 0x20)\n      swap1\n      dup2\n      add\n      swap3\n      dup3\n      iszero\n      tag_291\n      jumpi\n      swap2\n      0x20\n      mul\n      dup3\n      add\n    tag_292:\n      dup3\n      dup2\n      gt\n      iszero\n      tag_293\n      jumpi\n      dup3\n      mload\n      dup3\n      exp(0x0100, 0x00)\n      dup2\n      sload\n      dup2\n      0xffffffffffffffffffffffffffffffffffffffff\n      mul\n      not\n      and\n      swap1\n      dup4\n      0xffffffffffffffffffffffffffffffffffffffff\n      and\n      mul\n      or\n      swap1\n      sstore\n      pop\n      swap2\n      0x20\n      add\n      swap2\n      swap1\n      0x01\n      add\n      swap1\n      jump(tag_292)\n    tag_293:\n    tag_291:\n      pop\n      swap1\n      pop\n      tag_294\n      swap2\n      swap1\n      tag_295\n      jump\t// in\n    tag_294:\n      pop\n      swap1\n      jump\t// out\n    tag_290:\n    tag_296:\n      dup1\n      dup3\n      gt\n      iszero\n      tag_297\n      jumpi\n      0x00\n      dup2\n      0x00\n      swap1\n      sstore\n      pop\n      0x01\n      add\n      jump(tag_296)\n    tag_297:\n      pop\n      swap1\n      jump\t// out\n    tag_295:\n    tag_298:\n      dup1\n      dup3\n      gt\n      iszero\n      tag_299\n      jumpi\n      0x00\n      dup2\n      dup2\n      0x0100\n      exp\n      dup2\n      sload\n      swap1\n      0xffffffffffffffffffffffffffffffffffffffff\n      mul\n      not\n      and\n      swap1\n      sstore\n      pop\n      0x01\n      add\n      jump(tag_298)\n    tag_299:\n      pop\n      swap1\n      jump\t// out\n        /* \"--CODEGEN--\":5:135   */\n    tag_301:\n      0x00\n        /* \"--CODEGEN--\":85:91   */\n      dup2\n        /* \"--CODEGEN--\":72:92   */\n      calldataload\n        /* \"--CODEGEN--\":63:92   */\n      swap1\n      pop\n        /* \"--CODEGEN--\":97:130   */\n      tag_303\n        /* \"--CODEGEN--\":124:129   */\n      dup2\n        /* \"--CODEGEN--\":97:130   */\n      tag_304\n      jump\t// in\n    tag_303:\n        /* \"--CODEGEN--\":57:135   */\n      swap3\n      swap2\n      pop\n      pop\n      jump\t// out\n        /* \"--CODEGEN--\":160:867   */\n    tag_305:\n      0x00\n        /* \"--CODEGEN--\":277:280   */\n      dup3\n        /* \"--CODEGEN--\":270:274   */\n      0x1f\n        /* \"--CODEGEN--\":262:268   */\n      dup4\n        /* \"--CODEGEN--\":258:275   */\n      add\n        /* \"--CODEGEN--\":254:281   */\n      slt\n        /* \"--CODEGEN--\":244:246   */\n      tag_307\n      jumpi\n        /* \"--CODEGEN--\":295:296   */\n      0x00\n        /* \"--CODEGEN--\":292:293   */\n      dup1\n        /* \"--CODEGEN--\":285:297   */\n      revert\n        /* \"--CODEGEN--\":244:246   */\n    tag_307:\n        /* \"--CODEGEN--\":332:338   */\n      dup2\n        /* \"--CODEGEN--\":319:339   */\n      calldataload\n        /* \"--CODEGEN--\":354:434   */\n      tag_308\n        /* \"--CODEGEN--\":369:433   */\n      tag_309\n        /* \"--CODEGEN--\":426:432   */\n      dup3\n        /* \"--CODEGEN--\":369:433   */\n      tag_310\n      jump\t// in\n    tag_309:\n        /* \"--CODEGEN--\":354:434   */\n      tag_311\n      jump\t// in\n    tag_308:\n        /* \"--CODEGEN--\":345:434   */\n      swap2\n      pop\n        /* \"--CODEGEN--\":451:456   */\n      dup2\n        /* \"--CODEGEN--\":476:482   */\n      dup2\n        /* \"--CODEGEN--\":469:474   */\n      dup4\n        /* \"--CODEGEN--\":462:483   */\n      mstore\n        /* \"--CODEGEN--\":506:510   */\n      0x20\n        /* \"--CODEGEN--\":498:504   */\n      dup5\n        /* \"--CODEGEN--\":494:511   */\n      add\n        /* \"--CODEGEN--\":484:511   */\n      swap4\n      pop\n        /* \"--CODEGEN--\":528:532   */\n      0x20\n        /* \"--CODEGEN--\":523:526   */\n      dup2\n        /* \"--CODEGEN--\":519:533   */\n      add\n        /* \"--CODEGEN--\":512:533   */\n      swap1\n      pop\n        /* \"--CODEGEN--\":581:587   */\n      dup4\n        /* \"--CODEGEN--\":628:631   */\n      dup6\n        /* \"--CODEGEN--\":620:624   */\n      0x20\n        /* \"--CODEGEN--\":612:618   */\n      dup5\n        /* \"--CODEGEN--\":608:625   */\n      mul\n        /* \"--CODEGEN--\":603:606   */\n      dup3\n        /* \"--CODEGEN--\":599:626   */\n      add\n        /* \"--CODEGEN--\":596:632   */\n      gt\n        /* \"--CODEGEN--\":593:595   */\n      iszero\n      tag_312\n      jumpi\n        /* \"--CODEGEN--\":645:646   */\n      0x00\n        /* \"--CODEGEN--\":642:643   */\n      dup1\n        /* \"--CODEGEN--\":635:647   */\n      revert\n        /* \"--CODEGEN--\":593:595   */\n    tag_312:\n        /* \"--CODEGEN--\":670:671   */\n      0x00\n        /* \"--CODEGEN--\":655:861   */\n    tag_313:\n        /* \"--CODEGEN--\":680:686   */\n      dup4\n        /* \"--CODEGEN--\":677:678   */\n      dup2\n        /* \"--CODEGEN--\":674:687   */\n      lt\n        /* \"--CODEGEN--\":655:861   */\n      iszero\n      tag_315\n      jumpi\n        /* \"--CODEGEN--\":738:741   */\n      dup2\n        /* \"--CODEGEN--\":760:797   */\n      tag_316\n        /* \"--CODEGEN--\":793:796   */\n      dup9\n        /* \"--CODEGEN--\":781:791   */\n      dup3\n        /* \"--CODEGEN--\":760:797   */\n      tag_301\n      jump\t// in\n    tag_316:\n        /* \"--CODEGEN--\":755:758   */\n      dup5\n        /* \"--CODEGEN--\":748:798   */\n      mstore\n        /* \"--CODEGEN--\":821:825   */\n      0x20\n        /* \"--CODEGEN--\":816:819   */\n      dup5\n        /* \"--CODEGEN--\":812:826   */\n      add\n        /* \"--CODEGEN--\":805:826   */\n      swap4\n      pop\n        /* \"--CODEGEN--\":849:853   */\n      0x20\n        /* \"--CODEGEN--\":844:847   */\n      dup4\n        /* \"--CODEGEN--\":840:854   */\n      add\n        /* \"--CODEGEN--\":833:854   */\n      swap3\n      pop\n        /* \"--CODEGEN--\":712:861   */\n      pop\n        /* \"--CODEGEN--\":702:703   */\n      0x01\n        /* \"--CODEGEN--\":699:700   */\n      dup2\n        /* \"--CODEGEN--\":695:704   */\n      add\n        /* \"--CODEGEN--\":690:704   */\n      swap1\n      pop\n        /* \"--CODEGEN--\":655:861   */\n      jump(tag_313)\n    tag_315:\n        /* \"--CODEGEN--\":659:673   */\n      pop\n        /* \"--CODEGEN--\":237:867   */\n      pop\n      pop\n      pop\n      swap3\n      swap2\n      pop\n      pop\n      jump\t// out\n        /* \"--CODEGEN--\":911:1699   */\n    tag_317:\n      0x00\n        /* \"--CODEGEN--\":1055:1058   */\n      dup3\n        /* \"--CODEGEN--\":1048:1052   */\n      0x1f\n        /* \"--CODEGEN--\":1040:1046   */\n      dup4\n        /* \"--CODEGEN--\":1036:1053   */\n      add\n        /* \"--CODEGEN--\":1032:1059   */\n      slt\n        /* \"--CODEGEN--\":1022:1024   */\n      tag_319\n      jumpi\n        /* \"--CODEGEN--\":1073:1074   */\n      0x00\n        /* \"--CODEGEN--\":1070:1071   */\n      dup1\n        /* \"--CODEGEN--\":1063:1075   */\n      revert\n        /* \"--CODEGEN--\":1022:1024   */\n    tag_319:\n        /* \"--CODEGEN--\":1110:1116   */\n      dup2\n        /* \"--CODEGEN--\":1097:1117   */\n      calldataload\n        /* \"--CODEGEN--\":1132:1239   */\n      tag_320\n        /* \"--CODEGEN--\":1147:1238   */\n      tag_321\n        /* \"--CODEGEN--\":1231:1237   */\n      dup3\n        /* \"--CODEGEN--\":1147:1238   */\n      tag_322\n      jump\t// in\n    tag_321:\n        /* \"--CODEGEN--\":1132:1239   */\n      tag_311\n      jump\t// in\n    tag_320:\n        /* \"--CODEGEN--\":1123:1239   */\n      swap2\n      pop\n        /* \"--CODEGEN--\":1256:1261   */\n      dup2\n        /* \"--CODEGEN--\":1281:1287   */\n      dup2\n        /* \"--CODEGEN--\":1274:1279   */\n      dup4\n        /* \"--CODEGEN--\":1267:1288   */\n      mstore\n        /* \"--CODEGEN--\":1311:1315   */\n      0x20\n        /* \"--CODEGEN--\":1303:1309   */\n      dup5\n        /* \"--CODEGEN--\":1299:1316   */\n      add\n        /* \"--CODEGEN--\":1289:1316   */\n      swap4\n      pop\n        /* \"--CODEGEN--\":1333:1337   */\n      0x20\n        /* \"--CODEGEN--\":1328:1331   */\n      dup2\n        /* \"--CODEGEN--\":1324:1338   */\n      add\n        /* \"--CODEGEN--\":1317:1338   */\n      swap1\n      pop\n        /* \"--CODEGEN--\":1386:1392   */\n      dup4\n        /* \"--CODEGEN--\":1433:1436   */\n      dup6\n        /* \"--CODEGEN--\":1425:1429   */\n      0x60\n        /* \"--CODEGEN--\":1417:1423   */\n      dup5\n        /* \"--CODEGEN--\":1413:1430   */\n      mul\n        /* \"--CODEGEN--\":1408:1411   */\n      dup3\n        /* \"--CODEGEN--\":1404:1431   */\n      add\n        /* \"--CODEGEN--\":1401:1437   */\n      gt\n        /* \"--CODEGEN--\":1398:1400   */\n      iszero\n      tag_323\n      jumpi\n        /* \"--CODEGEN--\":1450:1451   */\n      0x00\n        /* \"--CODEGEN--\":1447:1448   */\n      dup1\n        /* \"--CODEGEN--\":1440:1452   */\n      revert\n        /* \"--CODEGEN--\":1398:1400   */\n    tag_323:\n        /* \"--CODEGEN--\":1475:1476   */\n      0x00\n        /* \"--CODEGEN--\":1460:1693   */\n    tag_324:\n        /* \"--CODEGEN--\":1485:1491   */\n      dup4\n        /* \"--CODEGEN--\":1482:1483   */\n      dup2\n        /* \"--CODEGEN--\":1479:1492   */\n      lt\n        /* \"--CODEGEN--\":1460:1693   */\n      iszero\n      tag_326\n      jumpi\n        /* \"--CODEGEN--\":1543:1546   */\n      dup2\n        /* \"--CODEGEN--\":1565:1629   */\n      tag_327\n        /* \"--CODEGEN--\":1625:1628   */\n      dup9\n        /* \"--CODEGEN--\":1613:1623   */\n      dup3\n        /* \"--CODEGEN--\":1565:1629   */\n      tag_328\n      jump\t// in\n    tag_327:\n        /* \"--CODEGEN--\":1560:1563   */\n      dup5\n        /* \"--CODEGEN--\":1553:1630   */\n      mstore\n        /* \"--CODEGEN--\":1653:1657   */\n      0x20\n        /* \"--CODEGEN--\":1648:1651   */\n      dup5\n        /* \"--CODEGEN--\":1644:1658   */\n      add\n        /* \"--CODEGEN--\":1637:1658   */\n      swap4\n      pop\n        /* \"--CODEGEN--\":1681:1685   */\n      0x60\n        /* \"--CODEGEN--\":1676:1679   */\n      dup4\n        /* \"--CODEGEN--\":1672:1686   */\n      add\n        /* \"--CODEGEN--\":1665:1686   */\n      swap3\n      pop\n        /* \"--CODEGEN--\":1517:1693   */\n      pop\n        /* \"--CODEGEN--\":1507:1508   */\n      0x01\n        /* \"--CODEGEN--\":1504:1505   */\n      dup2\n        /* \"--CODEGEN--\":1500:1509   */\n      add\n        /* \"--CODEGEN--\":1495:1509   */\n      swap1\n      pop\n        /* \"--CODEGEN--\":1460:1693   */\n      jump(tag_324)\n    tag_326:\n        /* \"--CODEGEN--\":1464:1478   */\n      pop\n        /* \"--CODEGEN--\":1015:1699   */\n      pop\n      pop\n      pop\n      swap3\n      swap2\n      pop\n      pop\n      jump\t// out\n        /* \"--CODEGEN--\":1725:2077   */\n    tag_329:\n      0x00\n      dup1\n        /* \"--CODEGEN--\":1855:1858   */\n      dup4\n        /* \"--CODEGEN--\":1848:1852   */\n      0x1f\n        /* \"--CODEGEN--\":1840:1846   */\n      dup5\n        /* \"--CODEGEN--\":1836:1853   */\n      add\n        /* \"--CODEGEN--\":1832:1859   */\n      slt\n        /* \"--CODEGEN--\":1822:1824   */\n      tag_331\n      jumpi\n        /* \"--CODEGEN--\":1873:1874   */\n      0x00\n        /* \"--CODEGEN--\":1870:1871   */\n      dup1\n        /* \"--CODEGEN--\":1863:1875   */\n      revert\n        /* \"--CODEGEN--\":1822:1824   */\n    tag_331:\n        /* \"--CODEGEN--\":1906:1912   */\n      dup3\n        /* \"--CODEGEN--\":1893:1913   */\n      calldataload\n        /* \"--CODEGEN--\":1883:1913   */\n      swap1\n      pop\n        /* \"--CODEGEN--\":1933:1951   */\n      0xffffffffffffffff\n        /* \"--CODEGEN--\":1925:1931   */\n      dup2\n        /* \"--CODEGEN--\":1922:1952   */\n      gt\n        /* \"--CODEGEN--\":1919:1921   */\n      iszero\n      tag_332\n      jumpi\n        /* \"--CODEGEN--\":1965:1966   */\n      0x00\n        /* \"--CODEGEN--\":1962:1963   */\n      dup1\n        /* \"--CODEGEN--\":1955:1967   */\n      revert\n        /* \"--CODEGEN--\":1919:1921   */\n    tag_332:\n        /* \"--CODEGEN--\":1999:2003   */\n      0x20\n        /* \"--CODEGEN--\":1991:1997   */\n      dup4\n        /* \"--CODEGEN--\":1987:2004   */\n      add\n        /* \"--CODEGEN--\":1975:2004   */\n      swap2\n      pop\n        /* \"--CODEGEN--\":2050:2053   */\n      dup4\n        /* \"--CODEGEN--\":2042:2046   */\n      0x20\n        /* \"--CODEGEN--\":2034:2040   */\n      dup3\n        /* \"--CODEGEN--\":2030:2047   */\n      mul\n        /* \"--CODEGEN--\":2020:2028   */\n      dup4\n        /* \"--CODEGEN--\":2016:2048   */\n      add\n        /* \"--CODEGEN--\":2013:2054   */\n      gt\n        /* \"--CODEGEN--\":2010:2012   */\n      iszero\n      tag_333\n      jumpi\n        /* \"--CODEGEN--\":2067:2068   */\n      0x00\n        /* \"--CODEGEN--\":2064:2065   */\n      dup1\n        /* \"--CODEGEN--\":2057:2069   */\n      revert\n        /* \"--CODEGEN--\":2010:2012   */\n    tag_333:\n        /* \"--CODEGEN--\":1815:2077   */\n      swap3\n      pop\n      swap3\n      swap1\n      pop\n      jump\t// out\n        /* \"--CODEGEN--\":2085:2213   */\n    tag_334:\n      0x00\n        /* \"--CODEGEN--\":2166:2172   */\n      dup2\n        /* \"--CODEGEN--\":2160:2173   */\n      mload\n        /* \"--CODEGEN--\":2151:2173   */\n      swap1\n      pop\n        /* \"--CODEGEN--\":2178:2208   */\n      tag_336\n        /* \"--CODEGEN--\":2202:2207   */\n      dup2\n        /* \"--CODEGEN--\":2178:2208   */\n      tag_337\n      jump\t// in\n    tag_336:\n        /* \"--CODEGEN--\":2145:2213   */\n      swap3\n      swap2\n      pop\n      pop\n      jump\t// out\n        /* \"--CODEGEN--\":2220:2350   */\n    tag_338:\n      0x00\n        /* \"--CODEGEN--\":2300:2306   */\n      dup2\n        /* \"--CODEGEN--\":2287:2307   */\n      calldataload\n        /* \"--CODEGEN--\":2278:2307   */\n      swap1\n      pop\n        /* \"--CODEGEN--\":2312:2345   */\n      tag_340\n        /* \"--CODEGEN--\":2339:2344   */\n      dup2\n        /* \"--CODEGEN--\":2312:2345   */\n      tag_341\n      jump\t// in\n    tag_340:\n        /* \"--CODEGEN--\":2272:2350   */\n      swap3\n      swap2\n      pop\n      pop\n      jump\t// out\n        /* \"--CODEGEN--\":2357:2485   */\n    tag_342:\n      0x00\n        /* \"--CODEGEN--\":2436:2442   */\n      dup2\n        /* \"--CODEGEN--\":2423:2443   */\n      calldataload\n        /* \"--CODEGEN--\":2414:2443   */\n      swap1\n      pop\n        /* \"--CODEGEN--\":2448:2480   */\n      tag_344\n        /* \"--CODEGEN--\":2474:2479   */\n      dup2\n        /* \"--CODEGEN--\":2448:2480   */\n      tag_345\n      jump\t// in\n    tag_344:\n        /* \"--CODEGEN--\":2408:2485   */\n      swap3\n      swap2\n      pop\n      pop\n      jump\t// out\n        /* \"--CODEGEN--\":2506:2842   */\n    tag_346:\n      0x00\n      dup1\n        /* \"--CODEGEN--\":2620:2623   */\n      dup4\n        /* \"--CODEGEN--\":2613:2617   */\n      0x1f\n        /* \"--CODEGEN--\":2605:2611   */\n      dup5\n        /* \"--CODEGEN--\":2601:2618   */\n      add\n        /* \"--CODEGEN--\":2597:2624   */\n      slt\n        /* \"--CODEGEN--\":2587:2589   */\n      tag_348\n      jumpi\n        /* \"--CODEGEN--\":2638:2639   */\n      0x00\n        /* \"--CODEGEN--\":2635:2636   */\n      dup1\n        /* \"--CODEGEN--\":2628:2640   */\n      revert\n        /* \"--CODEGEN--\":2587:2589   */\n    tag_348:\n        /* \"--CODEGEN--\":2671:2677   */\n      dup3\n        /* \"--CODEGEN--\":2658:2678   */\n      calldataload\n        /* \"--CODEGEN--\":2648:2678   */\n      swap1\n      pop\n        /* \"--CODEGEN--\":2698:2716   */\n      0xffffffffffffffff\n        /* \"--CODEGEN--\":2690:2696   */\n      dup2\n        /* \"--CODEGEN--\":2687:2717   */\n      gt\n        /* \"--CODEGEN--\":2684:2686   */\n      iszero\n      tag_349\n      jumpi\n        /* \"--CODEGEN--\":2730:2731   */\n      0x00\n        /* \"--CODEGEN--\":2727:2728   */\n      dup1\n        /* \"--CODEGEN--\":2720:2732   */\n      revert\n        /* \"--CODEGEN--\":2684:2686   */\n    tag_349:\n        /* \"--CODEGEN--\":2764:2768   */\n      0x20\n        /* \"--CODEGEN--\":2756:2762   */\n      dup4\n        /* \"--CODEGEN--\":2752:2769   */\n      add\n        /* \"--CODEGEN--\":2740:2769   */\n      swap2\n      pop\n        /* \"--CODEGEN--\":2815:2818   */\n      dup4\n        /* \"--CODEGEN--\":2807:2811   */\n      0x01\n        /* \"--CODEGEN--\":2799:2805   */\n      dup3\n        /* \"--CODEGEN--\":2795:2812   */\n      mul\n        /* \"--CODEGEN--\":2785:2793   */\n      dup4\n        /* \"--CODEGEN--\":2781:2813   */\n      add\n        /* \"--CODEGEN--\":2778:2819   */\n      gt\n        /* \"--CODEGEN--\":2775:2777   */\n      iszero\n      tag_350\n      jumpi\n        /* \"--CODEGEN--\":2832:2833   */\n      0x00\n        /* \"--CODEGEN--\":2829:2830   */\n      dup1\n        /* \"--CODEGEN--\":2822:2834   */\n      revert\n        /* \"--CODEGEN--\":2775:2777   */\n    tag_350:\n        /* \"--CODEGEN--\":2580:2842   */\n      swap3\n      pop\n      swap3\n      swap1\n      pop\n      jump\t// out\n        /* \"--CODEGEN--\":2851:3291   */\n    tag_351:\n      0x00\n        /* \"--CODEGEN--\":2952:2955   */\n      dup3\n        /* \"--CODEGEN--\":2945:2949   */\n      0x1f\n        /* \"--CODEGEN--\":2937:2943   */\n      dup4\n        /* \"--CODEGEN--\":2933:2950   */\n      add\n        /* \"--CODEGEN--\":2929:2956   */\n      slt\n        /* \"--CODEGEN--\":2919:2921   */\n      tag_353\n      jumpi\n        /* \"--CODEGEN--\":2970:2971   */\n      0x00\n        /* \"--CODEGEN--\":2967:2968   */\n      dup1\n        /* \"--CODEGEN--\":2960:2972   */\n      revert\n        /* \"--CODEGEN--\":2919:2921   */\n    tag_353:\n        /* \"--CODEGEN--\":3007:3013   */\n      dup2\n        /* \"--CODEGEN--\":2994:3014   */\n      calldataload\n        /* \"--CODEGEN--\":3029:3093   */\n      tag_354\n        /* \"--CODEGEN--\":3044:3092   */\n      tag_355\n        /* \"--CODEGEN--\":3085:3091   */\n      dup3\n        /* \"--CODEGEN--\":3044:3092   */\n      tag_356\n      jump\t// in\n    tag_355:\n        /* \"--CODEGEN--\":3029:3093   */\n      tag_311\n      jump\t// in\n    tag_354:\n        /* \"--CODEGEN--\":3020:3093   */\n      swap2\n      pop\n        /* \"--CODEGEN--\":3113:3119   */\n      dup1\n        /* \"--CODEGEN--\":3106:3111   */\n      dup3\n        /* \"--CODEGEN--\":3099:3120   */\n      mstore\n        /* \"--CODEGEN--\":3149:3153   */\n      0x20\n        /* \"--CODEGEN--\":3141:3147   */\n      dup4\n        /* \"--CODEGEN--\":3137:3154   */\n      add\n        /* \"--CODEGEN--\":3182:3186   */\n      0x20\n        /* \"--CODEGEN--\":3175:3180   */\n      dup4\n        /* \"--CODEGEN--\":3171:3187   */\n      add\n        /* \"--CODEGEN--\":3217:3220   */\n      dup6\n        /* \"--CODEGEN--\":3208:3214   */\n      dup4\n        /* \"--CODEGEN--\":3203:3206   */\n      dup4\n        /* \"--CODEGEN--\":3199:3215   */\n      add\n        /* \"--CODEGEN--\":3196:3221   */\n      gt\n        /* \"--CODEGEN--\":3193:3195   */\n      iszero\n      tag_357\n      jumpi\n        /* \"--CODEGEN--\":3234:3235   */\n      0x00\n        /* \"--CODEGEN--\":3231:3232   */\n      dup1\n        /* \"--CODEGEN--\":3224:3236   */\n      revert\n        /* \"--CODEGEN--\":3193:3195   */\n    tag_357:\n        /* \"--CODEGEN--\":3244:3285   */\n      tag_358\n        /* \"--CODEGEN--\":3278:3284   */\n      dup4\n        /* \"--CODEGEN--\":3273:3276   */\n      dup3\n        /* \"--CODEGEN--\":3268:3271   */\n      dup5\n        /* \"--CODEGEN--\":3244:3285   */\n      tag_359\n      jump\t// in\n    tag_358:\n        /* \"--CODEGEN--\":2912:3291   */\n      pop\n      pop\n      pop\n      swap3\n      swap2\n      pop\n      pop\n      jump\t// out\n        /* \"--CODEGEN--\":3331:3933   */\n    tag_328:\n      0x00\n        /* \"--CODEGEN--\":3447:3451   */\n      0x60\n        /* \"--CODEGEN--\":3435:3444   */\n      dup3\n        /* \"--CODEGEN--\":3430:3433   */\n      dup5\n        /* \"--CODEGEN--\":3426:3445   */\n      sub\n        /* \"--CODEGEN--\":3422:3452   */\n      slt\n        /* \"--CODEGEN--\":3419:3421   */\n      iszero\n      tag_361\n      jumpi\n        /* \"--CODEGEN--\":3465:3466   */\n      0x00\n        /* \"--CODEGEN--\":3462:3463   */\n      dup1\n        /* \"--CODEGEN--\":3455:3467   */\n      revert\n        /* \"--CODEGEN--\":3419:3421   */\n    tag_361:\n        /* \"--CODEGEN--\":3483:3503   */\n      tag_362\n        /* \"--CODEGEN--\":3498:3502   */\n      0x60\n        /* \"--CODEGEN--\":3483:3503   */\n      tag_311\n      jump\t// in\n    tag_362:\n        /* \"--CODEGEN--\":3474:3503   */\n      swap1\n      pop\n        /* \"--CODEGEN--\":3550:3551   */\n      0x00\n        /* \"--CODEGEN--\":3582:3631   */\n      tag_363\n        /* \"--CODEGEN--\":3627:3630   */\n      dup5\n        /* \"--CODEGEN--\":3618:3624   */\n      dup3\n        /* \"--CODEGEN--\":3607:3616   */\n      dup6\n        /* \"--CODEGEN--\":3603:3625   */\n      add\n        /* \"--CODEGEN--\":3582:3631   */\n      tag_338\n      jump\t// in\n    tag_363:\n        /* \"--CODEGEN--\":3575:3579   */\n      0x00\n        /* \"--CODEGEN--\":3568:3573   */\n      dup4\n        /* \"--CODEGEN--\":3564:3580   */\n      add\n        /* \"--CODEGEN--\":3557:3632   */\n      mstore\n        /* \"--CODEGEN--\":3513:3643   */\n      pop\n        /* \"--CODEGEN--\":3690:3692   */\n      0x20\n        /* \"--CODEGEN--\":3723:3772   */\n      tag_364\n        /* \"--CODEGEN--\":3768:3771   */\n      dup5\n        /* \"--CODEGEN--\":3759:3765   */\n      dup3\n        /* \"--CODEGEN--\":3748:3757   */\n      dup6\n        /* \"--CODEGEN--\":3744:3766   */\n      add\n        /* \"--CODEGEN--\":3723:3772   */\n      tag_338\n      jump\t// in\n    tag_364:\n        /* \"--CODEGEN--\":3716:3720   */\n      0x20\n        /* \"--CODEGEN--\":3709:3714   */\n      dup4\n        /* \"--CODEGEN--\":3705:3721   */\n      add\n        /* \"--CODEGEN--\":3698:3773   */\n      mstore\n        /* \"--CODEGEN--\":3653:3784   */\n      pop\n        /* \"--CODEGEN--\":3831:3833   */\n      0x40\n        /* \"--CODEGEN--\":3864:3911   */\n      tag_365\n        /* \"--CODEGEN--\":3907:3910   */\n      dup5\n        /* \"--CODEGEN--\":3898:3904   */\n      dup3\n        /* \"--CODEGEN--\":3887:3896   */\n      dup6\n        /* \"--CODEGEN--\":3883:3905   */\n      add\n        /* \"--CODEGEN--\":3864:3911   */\n      tag_366\n      jump\t// in\n    tag_365:\n        /* \"--CODEGEN--\":3857:3861   */\n      0x40\n        /* \"--CODEGEN--\":3850:3855   */\n      dup4\n        /* \"--CODEGEN--\":3846:3862   */\n      add\n        /* \"--CODEGEN--\":3839:3912   */\n      mstore\n        /* \"--CODEGEN--\":3794:3923   */\n      pop\n        /* \"--CODEGEN--\":3413:3933   */\n      swap3\n      swap2\n      pop\n      pop\n      jump\t// out\n        /* \"--CODEGEN--\":3973:6076   */\n    tag_367:\n      0x00\n        /* \"--CODEGEN--\":4090:4096   */\n      0x0140\n        /* \"--CODEGEN--\":4078:4087   */\n      dup3\n        /* \"--CODEGEN--\":4073:4076   */\n      dup5\n        /* \"--CODEGEN--\":4069:4088   */\n      sub\n        /* \"--CODEGEN--\":4065:4097   */\n      slt\n        /* \"--CODEGEN--\":4062:4064   */\n      iszero\n      tag_369\n      jumpi\n        /* \"--CODEGEN--\":4110:4111   */\n      0x00\n        /* \"--CODEGEN--\":4107:4108   */\n      dup1\n        /* \"--CODEGEN--\":4100:4112   */\n      revert\n        /* \"--CODEGEN--\":4062:4064   */\n    tag_369:\n        /* \"--CODEGEN--\":4128:4150   */\n      tag_370\n        /* \"--CODEGEN--\":4143:4149   */\n      0x0140\n        /* \"--CODEGEN--\":4128:4150   */\n      tag_311\n      jump\t// in\n    tag_370:\n        /* \"--CODEGEN--\":4119:4150   */\n      swap1\n      pop\n        /* \"--CODEGEN--\":4201:4202   */\n      0x00\n        /* \"--CODEGEN--\":4233:4282   */\n      tag_371\n        /* \"--CODEGEN--\":4278:4281   */\n      dup5\n        /* \"--CODEGEN--\":4269:4275   */\n      dup3\n        /* \"--CODEGEN--\":4258:4267   */\n      dup6\n        /* \"--CODEGEN--\":4254:4276   */\n      add\n        /* \"--CODEGEN--\":4233:4282   */\n      tag_301\n      jump\t// in\n    tag_371:\n        /* \"--CODEGEN--\":4226:4230   */\n      0x00\n        /* \"--CODEGEN--\":4219:4224   */\n      dup4\n        /* \"--CODEGEN--\":4215:4231   */\n      add\n        /* \"--CODEGEN--\":4208:4283   */\n      mstore\n        /* \"--CODEGEN--\":4160:4294   */\n      pop\n        /* \"--CODEGEN--\":4347:4349   */\n      0x20\n        /* \"--CODEGEN--\":4380:4429   */\n      tag_372\n        /* \"--CODEGEN--\":4425:4428   */\n      dup5\n        /* \"--CODEGEN--\":4416:4422   */\n      dup3\n        /* \"--CODEGEN--\":4405:4414   */\n      dup6\n        /* \"--CODEGEN--\":4401:4423   */\n      add\n        /* \"--CODEGEN--\":4380:4429   */\n      tag_373\n      jump\t// in\n    tag_372:\n        /* \"--CODEGEN--\":4373:4377   */\n      0x20\n        /* \"--CODEGEN--\":4366:4371   */\n      dup4\n        /* \"--CODEGEN--\":4362:4378   */\n      add\n        /* \"--CODEGEN--\":4355:4430   */\n      mstore\n        /* \"--CODEGEN--\":4304:4441   */\n      pop\n        /* \"--CODEGEN--\":4491:4493   */\n      0x40\n        /* \"--CODEGEN--\":4524:4573   */\n      tag_374\n        /* \"--CODEGEN--\":4569:4572   */\n      dup5\n        /* \"--CODEGEN--\":4560:4566   */\n      dup3\n        /* \"--CODEGEN--\":4549:4558   */\n      dup6\n        /* \"--CODEGEN--\":4545:4567   */\n      add\n        /* \"--CODEGEN--\":4524:4573   */\n      tag_301\n      jump\t// in\n    tag_374:\n        /* \"--CODEGEN--\":4517:4521   */\n      0x40\n        /* \"--CODEGEN--\":4510:4515   */\n      dup4\n        /* \"--CODEGEN--\":4506:4522   */\n      add\n        /* \"--CODEGEN--\":4499:4574   */\n      mstore\n        /* \"--CODEGEN--\":4451:4585   */\n      pop\n        /* \"--CODEGEN--\":4661:4663   */\n      0x60\n        /* \"--CODEGEN--\":4650:4659   */\n      dup3\n        /* \"--CODEGEN--\":4646:4664   */\n      add\n        /* \"--CODEGEN--\":4633:4665   */\n      calldataload\n        /* \"--CODEGEN--\":4685:4703   */\n      0xffffffffffffffff\n        /* \"--CODEGEN--\":4677:4683   */\n      dup2\n        /* \"--CODEGEN--\":4674:4704   */\n      gt\n        /* \"--CODEGEN--\":4671:4673   */\n      iszero\n      tag_375\n      jumpi\n        /* \"--CODEGEN--\":4717:4718   */\n      0x00\n        /* \"--CODEGEN--\":4714:4715   */\n      dup1\n        /* \"--CODEGEN--\":4707:4719   */\n      revert\n        /* \"--CODEGEN--\":4671:4673   */\n    tag_375:\n        /* \"--CODEGEN--\":4752:4826   */\n      tag_376\n        /* \"--CODEGEN--\":4822:4825   */\n      dup5\n        /* \"--CODEGEN--\":4813:4819   */\n      dup3\n        /* \"--CODEGEN--\":4802:4811   */\n      dup6\n        /* \"--CODEGEN--\":4798:4820   */\n      add\n        /* \"--CODEGEN--\":4752:4826   */\n      tag_305\n      jump\t// in\n    tag_376:\n        /* \"--CODEGEN--\":4745:4749   */\n      0x60\n        /* \"--CODEGEN--\":4738:4743   */\n      dup4\n        /* \"--CODEGEN--\":4734:4750   */\n      add\n        /* \"--CODEGEN--\":4727:4827   */\n      mstore\n        /* \"--CODEGEN--\":4595:4838   */\n      pop\n        /* \"--CODEGEN--\":4890:4893   */\n      0x80\n        /* \"--CODEGEN--\":4924:4973   */\n      tag_377\n        /* \"--CODEGEN--\":4969:4972   */\n      dup5\n        /* \"--CODEGEN--\":4960:4966   */\n      dup3\n        /* \"--CODEGEN--\":4949:4958   */\n      dup6\n        /* \"--CODEGEN--\":4945:4967   */\n      add\n        /* \"--CODEGEN--\":4924:4973   */\n      tag_373\n      jump\t// in\n    tag_377:\n        /* \"--CODEGEN--\":4917:4921   */\n      0x80\n        /* \"--CODEGEN--\":4910:4915   */\n      dup4\n        /* \"--CODEGEN--\":4906:4922   */\n      add\n        /* \"--CODEGEN--\":4899:4974   */\n      mstore\n        /* \"--CODEGEN--\":4848:4985   */\n      pop\n        /* \"--CODEGEN--\":5063:5066   */\n      0xa0\n        /* \"--CODEGEN--\":5052:5061   */\n      dup3\n        /* \"--CODEGEN--\":5048:5067   */\n      add\n        /* \"--CODEGEN--\":5035:5068   */\n      calldataload\n        /* \"--CODEGEN--\":5088:5106   */\n      0xffffffffffffffff\n        /* \"--CODEGEN--\":5080:5086   */\n      dup2\n        /* \"--CODEGEN--\":5077:5107   */\n      gt\n        /* \"--CODEGEN--\":5074:5076   */\n      iszero\n      tag_378\n      jumpi\n        /* \"--CODEGEN--\":5120:5121   */\n      0x00\n        /* \"--CODEGEN--\":5117:5118   */\n      dup1\n        /* \"--CODEGEN--\":5110:5122   */\n      revert\n        /* \"--CODEGEN--\":5074:5076   */\n    tag_378:\n        /* \"--CODEGEN--\":5155:5213   */\n      tag_379\n        /* \"--CODEGEN--\":5209:5212   */\n      dup5\n        /* \"--CODEGEN--\":5200:5206   */\n      dup3\n        /* \"--CODEGEN--\":5189:5198   */\n      dup6\n        /* \"--CODEGEN--\":5185:5207   */\n      add\n        /* \"--CODEGEN--\":5155:5213   */\n      tag_351\n      jump\t// in\n    tag_379:\n        /* \"--CODEGEN--\":5148:5152   */\n      0xa0\n        /* \"--CODEGEN--\":5141:5146   */\n      dup4\n        /* \"--CODEGEN--\":5137:5153   */\n      add\n        /* \"--CODEGEN--\":5130:5214   */\n      mstore\n        /* \"--CODEGEN--\":4995:5225   */\n      pop\n        /* \"--CODEGEN--\":5277:5280   */\n      0xc0\n        /* \"--CODEGEN--\":5311:5360   */\n      tag_380\n        /* \"--CODEGEN--\":5356:5359   */\n      dup5\n        /* \"--CODEGEN--\":5347:5353   */\n      dup3\n        /* \"--CODEGEN--\":5336:5345   */\n      dup6\n        /* \"--CODEGEN--\":5332:5354   */\n      add\n        /* \"--CODEGEN--\":5311:5360   */\n      tag_373\n      jump\t// in\n    tag_380:\n        /* \"--CODEGEN--\":5304:5308   */\n      0xc0\n        /* \"--CODEGEN--\":5297:5302   */\n      dup4\n        /* \"--CODEGEN--\":5293:5309   */\n      add\n        /* \"--CODEGEN--\":5286:5361   */\n      mstore\n        /* \"--CODEGEN--\":5235:5372   */\n      pop\n        /* \"--CODEGEN--\":5427:5430   */\n      0xe0\n        /* \"--CODEGEN--\":5461:5510   */\n      tag_381\n        /* \"--CODEGEN--\":5506:5509   */\n      dup5\n        /* \"--CODEGEN--\":5497:5503   */\n      dup3\n        /* \"--CODEGEN--\":5486:5495   */\n      dup6\n        /* \"--CODEGEN--\":5482:5504   */\n      add\n        /* \"--CODEGEN--\":5461:5510   */\n      tag_373\n      jump\t// in\n    tag_381:\n        /* \"--CODEGEN--\":5454:5458   */\n      0xe0\n        /* \"--CODEGEN--\":5447:5452   */\n      dup4\n        /* \"--CODEGEN--\":5443:5459   */\n      add\n        /* \"--CODEGEN--\":5436:5511   */\n      mstore\n        /* \"--CODEGEN--\":5382:5522   */\n      pop\n        /* \"--CODEGEN--\":5602:5605   */\n      0x0100\n        /* \"--CODEGEN--\":5591:5600   */\n      dup3\n        /* \"--CODEGEN--\":5587:5606   */\n      add\n        /* \"--CODEGEN--\":5574:5607   */\n      calldataload\n        /* \"--CODEGEN--\":5627:5645   */\n      0xffffffffffffffff\n        /* \"--CODEGEN--\":5619:5625   */\n      dup2\n        /* \"--CODEGEN--\":5616:5646   */\n      gt\n        /* \"--CODEGEN--\":5613:5615   */\n      iszero\n      tag_382\n      jumpi\n        /* \"--CODEGEN--\":5659:5660   */\n      0x00\n        /* \"--CODEGEN--\":5656:5657   */\n      dup1\n        /* \"--CODEGEN--\":5649:5661   */\n      revert\n        /* \"--CODEGEN--\":5613:5615   */\n    tag_382:\n        /* \"--CODEGEN--\":5696:5770   */\n      tag_383\n        /* \"--CODEGEN--\":5766:5769   */\n      dup5\n        /* \"--CODEGEN--\":5757:5763   */\n      dup3\n        /* \"--CODEGEN--\":5746:5755   */\n      dup6\n        /* \"--CODEGEN--\":5742:5764   */\n      add\n        /* \"--CODEGEN--\":5696:5770   */\n      tag_305\n      jump\t// in\n    tag_383:\n        /* \"--CODEGEN--\":5687:5693   */\n      0x0100\n        /* \"--CODEGEN--\":5680:5685   */\n      dup4\n        /* \"--CODEGEN--\":5676:5694   */\n      add\n        /* \"--CODEGEN--\":5669:5771   */\n      mstore\n        /* \"--CODEGEN--\":5532:5782   */\n      pop\n        /* \"--CODEGEN--\":5859:5862   */\n      0x0120\n        /* \"--CODEGEN--\":5848:5857   */\n      dup3\n        /* \"--CODEGEN--\":5844:5863   */\n      add\n        /* \"--CODEGEN--\":5831:5864   */\n      calldataload\n        /* \"--CODEGEN--\":5884:5902   */\n      0xffffffffffffffff\n        /* \"--CODEGEN--\":5876:5882   */\n      dup2\n        /* \"--CODEGEN--\":5873:5903   */\n      gt\n        /* \"--CODEGEN--\":5870:5872   */\n      iszero\n      tag_384\n      jumpi\n        /* \"--CODEGEN--\":5916:5917   */\n      0x00\n        /* \"--CODEGEN--\":5913:5914   */\n      dup1\n        /* \"--CODEGEN--\":5906:5918   */\n      revert\n        /* \"--CODEGEN--\":5870:5872   */\n    tag_384:\n        /* \"--CODEGEN--\":5953:6054   */\n      tag_385\n        /* \"--CODEGEN--\":6050:6053   */\n      dup5\n        /* \"--CODEGEN--\":6041:6047   */\n      dup3\n        /* \"--CODEGEN--\":6030:6039   */\n      dup6\n        /* \"--CODEGEN--\":6026:6048   */\n      add\n        /* \"--CODEGEN--\":5953:6054   */\n      tag_317\n      jump\t// in\n    tag_385:\n        /* \"--CODEGEN--\":5944:5950   */\n      0x0120\n        /* \"--CODEGEN--\":5937:5942   */\n      dup4\n        /* \"--CODEGEN--\":5933:5951   */\n      add\n        /* \"--CODEGEN--\":5926:6055   */\n      mstore\n        /* \"--CODEGEN--\":5792:6066   */\n      pop\n        /* \"--CODEGEN--\":4056:6076   */\n      swap3\n      swap2\n      pop\n      pop\n      jump\t// out\n        /* \"--CODEGEN--\":6083:6213   */\n    tag_373:\n      0x00\n        /* \"--CODEGEN--\":6163:6169   */\n      dup2\n        /* \"--CODEGEN--\":6150:6170   */\n      calldataload\n        /* \"--CODEGEN--\":6141:6170   */\n      swap1\n      pop\n        /* \"--CODEGEN--\":6175:6208   */\n      tag_387\n        /* \"--CODEGEN--\":6202:6207   */\n      dup2\n        /* \"--CODEGEN--\":6175:6208   */\n      tag_388\n      jump\t// in\n    tag_387:\n        /* \"--CODEGEN--\":6135:6213   */\n      swap3\n      swap2\n      pop\n      pop\n      jump\t// out\n        /* \"--CODEGEN--\":6220:6354   */\n    tag_389:\n      0x00\n        /* \"--CODEGEN--\":6304:6310   */\n      dup2\n        /* \"--CODEGEN--\":6298:6311   */\n      mload\n        /* \"--CODEGEN--\":6289:6311   */\n      swap1\n      pop\n        /* \"--CODEGEN--\":6316:6349   */\n      tag_391\n        /* \"--CODEGEN--\":6343:6348   */\n      dup2\n        /* \"--CODEGEN--\":6316:6349   */\n      tag_388\n      jump\t// in\n    tag_391:\n        /* \"--CODEGEN--\":6283:6354   */\n      swap3\n      swap2\n      pop\n      pop\n      jump\t// out\n        /* \"--CODEGEN--\":6361:6487   */\n    tag_366:\n      0x00\n        /* \"--CODEGEN--\":6439:6445   */\n      dup2\n        /* \"--CODEGEN--\":6426:6446   */\n      calldataload\n        /* \"--CODEGEN--\":6417:6446   */\n      swap1\n      pop\n        /* \"--CODEGEN--\":6451:6482   */\n      tag_393\n        /* \"--CODEGEN--\":6476:6481   */\n      dup2\n        /* \"--CODEGEN--\":6451:6482   */\n      tag_394\n      jump\t// in\n    tag_393:\n        /* \"--CODEGEN--\":6411:6487   */\n      swap3\n      swap2\n      pop\n      pop\n      jump\t// out\n        /* \"--CODEGEN--\":6494:6735   */\n    tag_79:\n      0x00\n        /* \"--CODEGEN--\":6598:6600   */\n      0x20\n        /* \"--CODEGEN--\":6586:6595   */\n      dup3\n        /* \"--CODEGEN--\":6577:6584   */\n      dup5\n        /* \"--CODEGEN--\":6573:6596   */\n      sub\n        /* \"--CODEGEN--\":6569:6601   */\n      slt\n        /* \"--CODEGEN--\":6566:6568   */\n      iszero\n      tag_396\n      jumpi\n        /* \"--CODEGEN--\":6614:6615   */\n      0x00\n        /* \"--CODEGEN--\":6611:6612   */\n      dup1\n        /* \"--CODEGEN--\":6604:6616   */\n      revert\n        /* \"--CODEGEN--\":6566:6568   */\n    tag_396:\n        /* \"--CODEGEN--\":6649:6650   */\n      0x00\n        /* \"--CODEGEN--\":6666:6719   */\n      tag_397\n        /* \"--CODEGEN--\":6711:6718   */\n      dup5\n        /* \"--CODEGEN--\":6702:6708   */\n      dup3\n        /* \"--CODEGEN--\":6691:6700   */\n      dup6\n        /* \"--CODEGEN--\":6687:6709   */\n      add\n        /* \"--CODEGEN--\":6666:6719   */\n      tag_301\n      jump\t// in\n    tag_397:\n        /* \"--CODEGEN--\":6656:6719   */\n      swap2\n      pop\n        /* \"--CODEGEN--\":6628:6725   */\n      pop\n        /* \"--CODEGEN--\":6560:6735   */\n      swap3\n      swap2\n      pop\n      pop\n      jump\t// out\n        /* \"--CODEGEN--\":6742:7921   */\n    tag_68:\n      0x00\n      dup1\n      0x00\n      dup1\n      0x00\n      dup1\n      0x00\n      dup1\n        /* \"--CODEGEN--\":7003:7006   */\n      0xa0\n        /* \"--CODEGEN--\":6991:7000   */\n      dup10\n        /* \"--CODEGEN--\":6982:6989   */\n      dup12\n        /* \"--CODEGEN--\":6978:7001   */\n      sub\n        /* \"--CODEGEN--\":6974:7007   */\n      slt\n        /* \"--CODEGEN--\":6971:6973   */\n      iszero\n      tag_399\n      jumpi\n        /* \"--CODEGEN--\":7020:7021   */\n      0x00\n        /* \"--CODEGEN--\":7017:7018   */\n      dup1\n        /* \"--CODEGEN--\":7010:7022   */\n      revert\n        /* \"--CODEGEN--\":6971:6973   */\n    tag_399:\n        /* \"--CODEGEN--\":7055:7056   */\n      0x00\n        /* \"--CODEGEN--\":7072:7125   */\n      tag_400\n        /* \"--CODEGEN--\":7117:7124   */\n      dup12\n        /* \"--CODEGEN--\":7108:7114   */\n      dup3\n        /* \"--CODEGEN--\":7097:7106   */\n      dup13\n        /* \"--CODEGEN--\":7093:7115   */\n      add\n        /* \"--CODEGEN--\":7072:7125   */\n      tag_301\n      jump\t// in\n    tag_400:\n        /* \"--CODEGEN--\":7062:7125   */\n      swap9\n      pop\n        /* \"--CODEGEN--\":7034:7131   */\n      pop\n        /* \"--CODEGEN--\":7162:7164   */\n      0x20\n        /* \"--CODEGEN--\":7180:7233   */\n      tag_401\n        /* \"--CODEGEN--\":7225:7232   */\n      dup12\n        /* \"--CODEGEN--\":7216:7222   */\n      dup3\n        /* \"--CODEGEN--\":7205:7214   */\n      dup13\n        /* \"--CODEGEN--\":7201:7223   */\n      add\n        /* \"--CODEGEN--\":7180:7233   */\n      tag_301\n      jump\t// in\n    tag_401:\n        /* \"--CODEGEN--\":7170:7233   */\n      swap8\n      pop\n        /* \"--CODEGEN--\":7141:7239   */\n      pop\n        /* \"--CODEGEN--\":7298:7300   */\n      0x40\n        /* \"--CODEGEN--\":7287:7296   */\n      dup10\n        /* \"--CODEGEN--\":7283:7301   */\n      add\n        /* \"--CODEGEN--\":7270:7302   */\n      calldataload\n        /* \"--CODEGEN--\":7322:7340   */\n      0xffffffffffffffff\n        /* \"--CODEGEN--\":7314:7320   */\n      dup2\n        /* \"--CODEGEN--\":7311:7341   */\n      gt\n        /* \"--CODEGEN--\":7308:7310   */\n      iszero\n      tag_402\n      jumpi\n        /* \"--CODEGEN--\":7354:7355   */\n      0x00\n        /* \"--CODEGEN--\":7351:7352   */\n      dup1\n        /* \"--CODEGEN--\":7344:7356   */\n      revert\n        /* \"--CODEGEN--\":7308:7310   */\n    tag_402:\n        /* \"--CODEGEN--\":7382:7462   */\n      tag_403\n        /* \"--CODEGEN--\":7454:7461   */\n      dup12\n        /* \"--CODEGEN--\":7445:7451   */\n      dup3\n        /* \"--CODEGEN--\":7434:7443   */\n      dup13\n        /* \"--CODEGEN--\":7430:7452   */\n      add\n        /* \"--CODEGEN--\":7382:7462   */\n      tag_329\n      jump\t// in\n    tag_403:\n        /* \"--CODEGEN--\":7364:7462   */\n      swap7\n      pop\n      swap7\n      pop\n        /* \"--CODEGEN--\":7249:7468   */\n      pop\n        /* \"--CODEGEN--\":7527:7529   */\n      0x60\n        /* \"--CODEGEN--\":7516:7525   */\n      dup10\n        /* \"--CODEGEN--\":7512:7530   */\n      add\n        /* \"--CODEGEN--\":7499:7531   */\n      calldataload\n        /* \"--CODEGEN--\":7551:7569   */\n      0xffffffffffffffff\n        /* \"--CODEGEN--\":7543:7549   */\n      dup2\n        /* \"--CODEGEN--\":7540:7570   */\n      gt\n        /* \"--CODEGEN--\":7537:7539   */\n      iszero\n      tag_404\n      jumpi\n        /* \"--CODEGEN--\":7583:7584   */\n      0x00\n        /* \"--CODEGEN--\":7580:7581   */\n      dup1\n        /* \"--CODEGEN--\":7573:7585   */\n      revert\n        /* \"--CODEGEN--\":7537:7539   */\n    tag_404:\n        /* \"--CODEGEN--\":7611:7691   */\n      tag_405\n        /* \"--CODEGEN--\":7683:7690   */\n      dup12\n        /* \"--CODEGEN--\":7674:7680   */\n      dup3\n        /* \"--CODEGEN--\":7663:7672   */\n      dup13\n        /* \"--CODEGEN--\":7659:7681   */\n      add\n        /* \"--CODEGEN--\":7611:7691   */\n      tag_329\n      jump\t// in\n    tag_405:\n        /* \"--CODEGEN--\":7593:7691   */\n      swap5\n      pop\n      swap5\n      pop\n        /* \"--CODEGEN--\":7478:7697   */\n      pop\n        /* \"--CODEGEN--\":7756:7759   */\n      0x80\n        /* \"--CODEGEN--\":7745:7754   */\n      dup10\n        /* \"--CODEGEN--\":7741:7760   */\n      add\n        /* \"--CODEGEN--\":7728:7761   */\n      calldataload\n        /* \"--CODEGEN--\":7781:7799   */\n      0xffffffffffffffff\n        /* \"--CODEGEN--\":7773:7779   */\n      dup2\n        /* \"--CODEGEN--\":7770:7800   */\n      gt\n        /* \"--CODEGEN--\":7767:7769   */\n      iszero\n      tag_406\n      jumpi\n        /* \"--CODEGEN--\":7813:7814   */\n      0x00\n        /* \"--CODEGEN--\":7810:7811   */\n      dup1\n        /* \"--CODEGEN--\":7803:7815   */\n      revert\n        /* \"--CODEGEN--\":7767:7769   */\n    tag_406:\n        /* \"--CODEGEN--\":7841:7905   */\n      tag_407\n        /* \"--CODEGEN--\":7897:7904   */\n      dup12\n        /* \"--CODEGEN--\":7888:7894   */\n      dup3\n        /* \"--CODEGEN--\":7877:7886   */\n      dup13\n        /* \"--CODEGEN--\":7873:7895   */\n      add\n        /* \"--CODEGEN--\":7841:7905   */\n      tag_346\n      jump\t// in\n    tag_407:\n        /* \"--CODEGEN--\":7823:7905   */\n      swap3\n      pop\n      swap3\n      pop\n        /* \"--CODEGEN--\":7707:7911   */\n      pop\n        /* \"--CODEGEN--\":6965:7921   */\n      swap3\n      swap6\n      swap9\n      pop\n      swap3\n      swap6\n      swap9\n      swap1\n      swap4\n      swap7\n      pop\n      jump\t// out\n        /* \"--CODEGEN--\":7928:8795   */\n    tag_74:\n      0x00\n      dup1\n      0x00\n      dup1\n      0x00\n      dup1\n        /* \"--CODEGEN--\":8119:8122   */\n      0xa0\n        /* \"--CODEGEN--\":8107:8116   */\n      dup8\n        /* \"--CODEGEN--\":8098:8105   */\n      dup10\n        /* \"--CODEGEN--\":8094:8117   */\n      sub\n        /* \"--CODEGEN--\":8090:8123   */\n      slt\n        /* \"--CODEGEN--\":8087:8089   */\n      iszero\n      tag_409\n      jumpi\n        /* \"--CODEGEN--\":8136:8137   */\n      0x00\n        /* \"--CODEGEN--\":8133:8134   */\n      dup1\n        /* \"--CODEGEN--\":8126:8138   */\n      revert\n        /* \"--CODEGEN--\":8087:8089   */\n    tag_409:\n        /* \"--CODEGEN--\":8171:8172   */\n      0x00\n        /* \"--CODEGEN--\":8188:8241   */\n      tag_410\n        /* \"--CODEGEN--\":8233:8240   */\n      dup10\n        /* \"--CODEGEN--\":8224:8230   */\n      dup3\n        /* \"--CODEGEN--\":8213:8222   */\n      dup11\n        /* \"--CODEGEN--\":8209:8231   */\n      add\n        /* \"--CODEGEN--\":8188:8241   */\n      tag_301\n      jump\t// in\n    tag_410:\n        /* \"--CODEGEN--\":8178:8241   */\n      swap7\n      pop\n        /* \"--CODEGEN--\":8150:8247   */\n      pop\n        /* \"--CODEGEN--\":8278:8280   */\n      0x20\n        /* \"--CODEGEN--\":8296:8349   */\n      tag_411\n        /* \"--CODEGEN--\":8341:8348   */\n      dup10\n        /* \"--CODEGEN--\":8332:8338   */\n      dup3\n        /* \"--CODEGEN--\":8321:8330   */\n      dup11\n        /* \"--CODEGEN--\":8317:8339   */\n      add\n        /* \"--CODEGEN--\":8296:8349   */\n      tag_301\n      jump\t// in\n    tag_411:\n        /* \"--CODEGEN--\":8286:8349   */\n      swap6\n      pop\n        /* \"--CODEGEN--\":8257:8355   */\n      pop\n        /* \"--CODEGEN--\":8386:8388   */\n      0x40\n        /* \"--CODEGEN--\":8404:8457   */\n      tag_412\n        /* \"--CODEGEN--\":8449:8456   */\n      dup10\n        /* \"--CODEGEN--\":8440:8446   */\n      dup3\n        /* \"--CODEGEN--\":8429:8438   */\n      dup11\n        /* \"--CODEGEN--\":8425:8447   */\n      add\n        /* \"--CODEGEN--\":8404:8457   */\n      tag_373\n      jump\t// in\n    tag_412:\n        /* \"--CODEGEN--\":8394:8457   */\n      swap5\n      pop\n        /* \"--CODEGEN--\":8365:8463   */\n      pop\n        /* \"--CODEGEN--\":8494:8496   */\n      0x60\n        /* \"--CODEGEN--\":8512:8565   */\n      tag_413\n        /* \"--CODEGEN--\":8557:8564   */\n      dup10\n        /* \"--CODEGEN--\":8548:8554   */\n      dup3\n        /* \"--CODEGEN--\":8537:8546   */\n      dup11\n        /* \"--CODEGEN--\":8533:8555   */\n      add\n        /* \"--CODEGEN--\":8512:8565   */\n      tag_373\n      jump\t// in\n    tag_413:\n        /* \"--CODEGEN--\":8502:8565   */\n      swap4\n      pop\n        /* \"--CODEGEN--\":8473:8571   */\n      pop\n        /* \"--CODEGEN--\":8630:8633   */\n      0x80\n        /* \"--CODEGEN--\":8619:8628   */\n      dup8\n        /* \"--CODEGEN--\":8615:8634   */\n      add\n        /* \"--CODEGEN--\":8602:8635   */\n      calldataload\n        /* \"--CODEGEN--\":8655:8673   */\n      0xffffffffffffffff\n        /* \"--CODEGEN--\":8647:8653   */\n      dup2\n        /* \"--CODEGEN--\":8644:8674   */\n      gt\n        /* \"--CODEGEN--\":8641:8643   */\n      iszero\n      tag_414\n      jumpi\n        /* \"--CODEGEN--\":8687:8688   */\n      0x00\n        /* \"--CODEGEN--\":8684:8685   */\n      dup1\n        /* \"--CODEGEN--\":8677:8689   */\n      revert\n        /* \"--CODEGEN--\":8641:8643   */\n    tag_414:\n        /* \"--CODEGEN--\":8715:8779   */\n      tag_415\n        /* \"--CODEGEN--\":8771:8778   */\n      dup10\n        /* \"--CODEGEN--\":8762:8768   */\n      dup3\n        /* \"--CODEGEN--\":8751:8760   */\n      dup11\n        /* \"--CODEGEN--\":8747:8769   */\n      add\n        /* \"--CODEGEN--\":8715:8779   */\n      tag_346\n      jump\t// in\n    tag_415:\n        /* \"--CODEGEN--\":8697:8779   */\n      swap3\n      pop\n      swap3\n      pop\n        /* \"--CODEGEN--\":8581:8785   */\n      pop\n        /* \"--CODEGEN--\":8081:8795   */\n      swap3\n      swap6\n      pop\n      swap3\n      swap6\n      pop\n      swap3\n      swap6\n      jump\t// out\n        /* \"--CODEGEN--\":8802:9649   */\n    tag_34:\n      0x00\n      dup1\n      0x00\n      dup1\n      0x00\n        /* \"--CODEGEN--\":8983:8986   */\n      0xa0\n        /* \"--CODEGEN--\":8971:8980   */\n      dup7\n        /* \"--CODEGEN--\":8962:8969   */\n      dup9\n        /* \"--CODEGEN--\":8958:8981   */\n      sub\n        /* \"--CODEGEN--\":8954:8987   */\n      slt\n        /* \"--CODEGEN--\":8951:8953   */\n      iszero\n      tag_417\n      jumpi\n        /* \"--CODEGEN--\":9000:9001   */\n      0x00\n        /* \"--CODEGEN--\":8997:8998   */\n      dup1\n        /* \"--CODEGEN--\":8990:9002   */\n      revert\n        /* \"--CODEGEN--\":8951:8953   */\n    tag_417:\n        /* \"--CODEGEN--\":9035:9036   */\n      0x00\n        /* \"--CODEGEN--\":9052:9105   */\n      tag_418\n        /* \"--CODEGEN--\":9097:9104   */\n      dup9\n        /* \"--CODEGEN--\":9088:9094   */\n      dup3\n        /* \"--CODEGEN--\":9077:9086   */\n      dup10\n        /* \"--CODEGEN--\":9073:9095   */\n      add\n        /* \"--CODEGEN--\":9052:9105   */\n      tag_301\n      jump\t// in\n    tag_418:\n        /* \"--CODEGEN--\":9042:9105   */\n      swap6\n      pop\n        /* \"--CODEGEN--\":9014:9111   */\n      pop\n        /* \"--CODEGEN--\":9142:9144   */\n      0x20\n        /* \"--CODEGEN--\":9160:9213   */\n      tag_419\n        /* \"--CODEGEN--\":9205:9212   */\n      dup9\n        /* \"--CODEGEN--\":9196:9202   */\n      dup3\n        /* \"--CODEGEN--\":9185:9194   */\n      dup10\n        /* \"--CODEGEN--\":9181:9203   */\n      add\n        /* \"--CODEGEN--\":9160:9213   */\n      tag_301\n      jump\t// in\n    tag_419:\n        /* \"--CODEGEN--\":9150:9213   */\n      swap5\n      pop\n        /* \"--CODEGEN--\":9121:9219   */\n      pop\n        /* \"--CODEGEN--\":9250:9252   */\n      0x40\n        /* \"--CODEGEN--\":9268:9321   */\n      tag_420\n        /* \"--CODEGEN--\":9313:9320   */\n      dup9\n        /* \"--CODEGEN--\":9304:9310   */\n      dup3\n        /* \"--CODEGEN--\":9293:9302   */\n      dup10\n        /* \"--CODEGEN--\":9289:9311   */\n      add\n        /* \"--CODEGEN--\":9268:9321   */\n      tag_373\n      jump\t// in\n    tag_420:\n        /* \"--CODEGEN--\":9258:9321   */\n      swap4\n      pop\n        /* \"--CODEGEN--\":9229:9327   */\n      pop\n        /* \"--CODEGEN--\":9358:9360   */\n      0x60\n        /* \"--CODEGEN--\":9376:9429   */\n      tag_421\n        /* \"--CODEGEN--\":9421:9428   */\n      dup9\n        /* \"--CODEGEN--\":9412:9418   */\n      dup3\n        /* \"--CODEGEN--\":9401:9410   */\n      dup10\n        /* \"--CODEGEN--\":9397:9419   */\n      add\n        /* \"--CODEGEN--\":9376:9429   */\n      tag_373\n      jump\t// in\n    tag_421:\n        /* \"--CODEGEN--\":9366:9429   */\n      swap3\n      pop\n        /* \"--CODEGEN--\":9337:9435   */\n      pop\n        /* \"--CODEGEN--\":9494:9497   */\n      0x80\n        /* \"--CODEGEN--\":9483:9492   */\n      dup7\n        /* \"--CODEGEN--\":9479:9498   */\n      add\n        /* \"--CODEGEN--\":9466:9499   */\n      calldataload\n        /* \"--CODEGEN--\":9519:9537   */\n      0xffffffffffffffff\n        /* \"--CODEGEN--\":9511:9517   */\n      dup2\n        /* \"--CODEGEN--\":9508:9538   */\n      gt\n        /* \"--CODEGEN--\":9505:9507   */\n      iszero\n      tag_422\n      jumpi\n        /* \"--CODEGEN--\":9551:9552   */\n      0x00\n        /* \"--CODEGEN--\":9548:9549   */\n      dup1\n        /* \"--CODEGEN--\":9541:9553   */\n      revert\n        /* \"--CODEGEN--\":9505:9507   */\n    tag_422:\n        /* \"--CODEGEN--\":9571:9633   */\n      tag_423\n        /* \"--CODEGEN--\":9625:9632   */\n      dup9\n        /* \"--CODEGEN--\":9616:9622   */\n      dup3\n        /* \"--CODEGEN--\":9605:9614   */\n      dup10\n        /* \"--CODEGEN--\":9601:9623   */\n      add\n        /* \"--CODEGEN--\":9571:9633   */\n      tag_351\n      jump\t// in\n    tag_423:\n        /* \"--CODEGEN--\":9561:9633   */\n      swap2\n      pop\n        /* \"--CODEGEN--\":9445:9639   */\n      pop\n        /* \"--CODEGEN--\":8945:9649   */\n      swap3\n      swap6\n      pop\n      swap3\n      swap6\n      swap1\n      swap4\n      pop\n      jump\t// out\n        /* \"--CODEGEN--\":9656:10147   */\n    tag_48:\n      0x00\n      dup1\n      0x00\n        /* \"--CODEGEN--\":9794:9796   */\n      0x60\n        /* \"--CODEGEN--\":9782:9791   */\n      dup5\n        /* \"--CODEGEN--\":9773:9780   */\n      dup7\n        /* \"--CODEGEN--\":9769:9792   */\n      sub\n        /* \"--CODEGEN--\":9765:9797   */\n      slt\n        /* \"--CODEGEN--\":9762:9764   */\n      iszero\n      tag_425\n      jumpi\n        /* \"--CODEGEN--\":9810:9811   */\n      0x00\n        /* \"--CODEGEN--\":9807:9808   */\n      dup1\n        /* \"--CODEGEN--\":9800:9812   */\n      revert\n        /* \"--CODEGEN--\":9762:9764   */\n    tag_425:\n        /* \"--CODEGEN--\":9845:9846   */\n      0x00\n        /* \"--CODEGEN--\":9862:9915   */\n      tag_426\n        /* \"--CODEGEN--\":9907:9914   */\n      dup7\n        /* \"--CODEGEN--\":9898:9904   */\n      dup3\n        /* \"--CODEGEN--\":9887:9896   */\n      dup8\n        /* \"--CODEGEN--\":9883:9905   */\n      add\n        /* \"--CODEGEN--\":9862:9915   */\n      tag_301\n      jump\t// in\n    tag_426:\n        /* \"--CODEGEN--\":9852:9915   */\n      swap4\n      pop\n        /* \"--CODEGEN--\":9824:9921   */\n      pop\n        /* \"--CODEGEN--\":9952:9954   */\n      0x20\n        /* \"--CODEGEN--\":9970:10023   */\n      tag_427\n        /* \"--CODEGEN--\":10015:10022   */\n      dup7\n        /* \"--CODEGEN--\":10006:10012   */\n      dup3\n        /* \"--CODEGEN--\":9995:10004   */\n      dup8\n        /* \"--CODEGEN--\":9991:10013   */\n      add\n        /* \"--CODEGEN--\":9970:10023   */\n      tag_373\n      jump\t// in\n    tag_427:\n        /* \"--CODEGEN--\":9960:10023   */\n      swap3\n      pop\n        /* \"--CODEGEN--\":9931:10029   */\n      pop\n        /* \"--CODEGEN--\":10060:10062   */\n      0x40\n        /* \"--CODEGEN--\":10078:10131   */\n      tag_428\n        /* \"--CODEGEN--\":10123:10130   */\n      dup7\n        /* \"--CODEGEN--\":10114:10120   */\n      dup3\n        /* \"--CODEGEN--\":10103:10112   */\n      dup8\n        /* \"--CODEGEN--\":10099:10121   */\n      add\n        /* \"--CODEGEN--\":10078:10131   */\n      tag_301\n      jump\t// in\n    tag_428:\n        /* \"--CODEGEN--\":10068:10131   */\n      swap2\n      pop\n        /* \"--CODEGEN--\":10039:10137   */\n      pop\n        /* \"--CODEGEN--\":9756:10147   */\n      swap3\n      pop\n      swap3\n      pop\n      swap3\n      jump\t// out\n        /* \"--CODEGEN--\":10154:11033   */\n    tag_41:\n      0x00\n      dup1\n      0x00\n      dup1\n      0x00\n        /* \"--CODEGEN--\":10351:10354   */\n      0xa0\n        /* \"--CODEGEN--\":10339:10348   */\n      dup7\n        /* \"--CODEGEN--\":10330:10337   */\n      dup9\n        /* \"--CODEGEN--\":10326:10349   */\n      sub\n        /* \"--CODEGEN--\":10322:10355   */\n      slt\n        /* \"--CODEGEN--\":10319:10321   */\n      iszero\n      tag_430\n      jumpi\n        /* \"--CODEGEN--\":10368:10369   */\n      0x00\n        /* \"--CODEGEN--\":10365:10366   */\n      dup1\n        /* \"--CODEGEN--\":10358:10370   */\n      revert\n        /* \"--CODEGEN--\":10319:10321   */\n    tag_430:\n        /* \"--CODEGEN--\":10431:10432   */\n      0x00\n        /* \"--CODEGEN--\":10420:10429   */\n      dup7\n        /* \"--CODEGEN--\":10416:10433   */\n      add\n        /* \"--CODEGEN--\":10403:10434   */\n      calldataload\n        /* \"--CODEGEN--\":10454:10472   */\n      0xffffffffffffffff\n        /* \"--CODEGEN--\":10446:10452   */\n      dup2\n        /* \"--CODEGEN--\":10443:10473   */\n      gt\n        /* \"--CODEGEN--\":10440:10442   */\n      iszero\n      tag_431\n      jumpi\n        /* \"--CODEGEN--\":10486:10487   */\n      0x00\n        /* \"--CODEGEN--\":10483:10484   */\n      dup1\n        /* \"--CODEGEN--\":10476:10488   */\n      revert\n        /* \"--CODEGEN--\":10440:10442   */\n    tag_431:\n        /* \"--CODEGEN--\":10506:10584   */\n      tag_432\n        /* \"--CODEGEN--\":10576:10583   */\n      dup9\n        /* \"--CODEGEN--\":10567:10573   */\n      dup3\n        /* \"--CODEGEN--\":10556:10565   */\n      dup10\n        /* \"--CODEGEN--\":10552:10574   */\n      add\n        /* \"--CODEGEN--\":10506:10584   */\n      tag_305\n      jump\t// in\n    tag_432:\n        /* \"--CODEGEN--\":10496:10584   */\n      swap6\n      pop\n        /* \"--CODEGEN--\":10382:10590   */\n      pop\n        /* \"--CODEGEN--\":10621:10623   */\n      0x20\n        /* \"--CODEGEN--\":10639:10692   */\n      tag_433\n        /* \"--CODEGEN--\":10684:10691   */\n      dup9\n        /* \"--CODEGEN--\":10675:10681   */\n      dup3\n        /* \"--CODEGEN--\":10664:10673   */\n      dup10\n        /* \"--CODEGEN--\":10660:10682   */\n      add\n        /* \"--CODEGEN--\":10639:10692   */\n      tag_301\n      jump\t// in\n    tag_433:\n        /* \"--CODEGEN--\":10629:10692   */\n      swap5\n      pop\n        /* \"--CODEGEN--\":10600:10698   */\n      pop\n        /* \"--CODEGEN--\":10729:10731   */\n      0x40\n        /* \"--CODEGEN--\":10747:10800   */\n      tag_434\n        /* \"--CODEGEN--\":10792:10799   */\n      dup9\n        /* \"--CODEGEN--\":10783:10789   */\n      dup3\n        /* \"--CODEGEN--\":10772:10781   */\n      dup10\n        /* \"--CODEGEN--\":10768:10790   */\n      add\n        /* \"--CODEGEN--\":10747:10800   */\n      tag_373\n      jump\t// in\n    tag_434:\n        /* \"--CODEGEN--\":10737:10800   */\n      swap4\n      pop\n        /* \"--CODEGEN--\":10708:10806   */\n      pop\n        /* \"--CODEGEN--\":10837:10839   */\n      0x60\n        /* \"--CODEGEN--\":10855:10908   */\n      tag_435\n        /* \"--CODEGEN--\":10900:10907   */\n      dup9\n        /* \"--CODEGEN--\":10891:10897   */\n      dup3\n        /* \"--CODEGEN--\":10880:10889   */\n      dup10\n        /* \"--CODEGEN--\":10876:10898   */\n      add\n        /* \"--CODEGEN--\":10855:10908   */\n      tag_373\n      jump\t// in\n    tag_435:\n        /* \"--CODEGEN--\":10845:10908   */\n      swap3\n      pop\n        /* \"--CODEGEN--\":10816:10914   */\n      pop\n        /* \"--CODEGEN--\":10945:10948   */\n      0x80\n        /* \"--CODEGEN--\":10964:11017   */\n      tag_436\n        /* \"--CODEGEN--\":11009:11016   */\n      dup9\n        /* \"--CODEGEN--\":11000:11006   */\n      dup3\n        /* \"--CODEGEN--\":10989:10998   */\n      dup10\n        /* \"--CODEGEN--\":10985:11007   */\n      add\n        /* \"--CODEGEN--\":10964:11017   */\n      tag_373\n      jump\t// in\n    tag_436:\n        /* \"--CODEGEN--\":10954:11017   */\n      swap2\n      pop\n        /* \"--CODEGEN--\":10924:11023   */\n      pop\n        /* \"--CODEGEN--\":10313:11033   */\n      swap3\n      swap6\n      pop\n      swap3\n      swap6\n      swap1\n      swap4\n      pop\n      jump\t// out\n        /* \"--CODEGEN--\":11040:11542   */\n    tag_176:\n      0x00\n      dup1\n        /* \"--CODEGEN--\":11186:11188   */\n      0x40\n        /* \"--CODEGEN--\":11174:11183   */\n      dup4\n        /* \"--CODEGEN--\":11165:11172   */\n      dup6\n        /* \"--CODEGEN--\":11161:11184   */\n      sub\n        /* \"--CODEGEN--\":11157:11189   */\n      slt\n        /* \"--CODEGEN--\":11154:11156   */\n      iszero\n      tag_438\n      jumpi\n        /* \"--CODEGEN--\":11202:11203   */\n      0x00\n        /* \"--CODEGEN--\":11199:11200   */\n      dup1\n        /* \"--CODEGEN--\":11192:11204   */\n      revert\n        /* \"--CODEGEN--\":11154:11156   */\n    tag_438:\n        /* \"--CODEGEN--\":11265:11266   */\n      0x00\n        /* \"--CODEGEN--\":11254:11263   */\n      dup4\n        /* \"--CODEGEN--\":11250:11267   */\n      add\n        /* \"--CODEGEN--\":11237:11268   */\n      calldataload\n        /* \"--CODEGEN--\":11288:11306   */\n      0xffffffffffffffff\n        /* \"--CODEGEN--\":11280:11286   */\n      dup2\n        /* \"--CODEGEN--\":11277:11307   */\n      gt\n        /* \"--CODEGEN--\":11274:11276   */\n      iszero\n      tag_439\n      jumpi\n        /* \"--CODEGEN--\":11320:11321   */\n      0x00\n        /* \"--CODEGEN--\":11317:11318   */\n      dup1\n        /* \"--CODEGEN--\":11310:11322   */\n      revert\n        /* \"--CODEGEN--\":11274:11276   */\n    tag_439:\n        /* \"--CODEGEN--\":11340:11418   */\n      tag_440\n        /* \"--CODEGEN--\":11410:11417   */\n      dup6\n        /* \"--CODEGEN--\":11401:11407   */\n      dup3\n        /* \"--CODEGEN--\":11390:11399   */\n      dup7\n        /* \"--CODEGEN--\":11386:11408   */\n      add\n        /* \"--CODEGEN--\":11340:11418   */\n      tag_305\n      jump\t// in\n    tag_440:\n        /* \"--CODEGEN--\":11330:11418   */\n      swap3\n      pop\n        /* \"--CODEGEN--\":11216:11424   */\n      pop\n        /* \"--CODEGEN--\":11455:11457   */\n      0x20\n        /* \"--CODEGEN--\":11473:11526   */\n      tag_441\n        /* \"--CODEGEN--\":11518:11525   */\n      dup6\n        /* \"--CODEGEN--\":11509:11515   */\n      dup3\n        /* \"--CODEGEN--\":11498:11507   */\n      dup7\n        /* \"--CODEGEN--\":11494:11516   */\n      add\n        /* \"--CODEGEN--\":11473:11526   */\n      tag_373\n      jump\t// in\n    tag_441:\n        /* \"--CODEGEN--\":11463:11526   */\n      swap2\n      pop\n        /* \"--CODEGEN--\":11434:11532   */\n      pop\n        /* \"--CODEGEN--\":11148:11542   */\n      swap3\n      pop\n      swap3\n      swap1\n      pop\n      jump\t// out\n        /* \"--CODEGEN--\":11549:11806   */\n    tag_260:\n      0x00\n        /* \"--CODEGEN--\":11661:11663   */\n      0x20\n        /* \"--CODEGEN--\":11649:11658   */\n      dup3\n        /* \"--CODEGEN--\":11640:11647   */\n      dup5\n        /* \"--CODEGEN--\":11636:11659   */\n      sub\n        /* \"--CODEGEN--\":11632:11664   */\n      slt\n        /* \"--CODEGEN--\":11629:11631   */\n      iszero\n      tag_443\n      jumpi\n        /* \"--CODEGEN--\":11677:11678   */\n      0x00\n        /* \"--CODEGEN--\":11674:11675   */\n      dup1\n        /* \"--CODEGEN--\":11667:11679   */\n      revert\n        /* \"--CODEGEN--\":11629:11631   */\n    tag_443:\n        /* \"--CODEGEN--\":11712:11713   */\n      0x00\n        /* \"--CODEGEN--\":11729:11790   */\n      tag_444\n        /* \"--CODEGEN--\":11782:11789   */\n      dup5\n        /* \"--CODEGEN--\":11773:11779   */\n      dup3\n        /* \"--CODEGEN--\":11762:11771   */\n      dup6\n        /* \"--CODEGEN--\":11758:11780   */\n      add\n        /* \"--CODEGEN--\":11729:11790   */\n      tag_334\n      jump\t// in\n    tag_444:\n        /* \"--CODEGEN--\":11719:11790   */\n      swap2\n      pop\n        /* \"--CODEGEN--\":11691:11796   */\n      pop\n        /* \"--CODEGEN--\":11623:11806   */\n      swap3\n      swap2\n      pop\n      pop\n      jump\t// out\n        /* \"--CODEGEN--\":11813:12052   */\n    tag_22:\n      0x00\n        /* \"--CODEGEN--\":11916:11918   */\n      0x20\n        /* \"--CODEGEN--\":11904:11913   */\n      dup3\n        /* \"--CODEGEN--\":11895:11902   */\n      dup5\n        /* \"--CODEGEN--\":11891:11914   */\n      sub\n        /* \"--CODEGEN--\":11887:11919   */\n      slt\n        /* \"--CODEGEN--\":11884:11886   */\n      iszero\n      tag_446\n      jumpi\n        /* \"--CODEGEN--\":11932:11933   */\n      0x00\n        /* \"--CODEGEN--\":11929:11930   */\n      dup1\n        /* \"--CODEGEN--\":11922:11934   */\n      revert\n        /* \"--CODEGEN--\":11884:11886   */\n    tag_446:\n        /* \"--CODEGEN--\":11967:11968   */\n      0x00\n        /* \"--CODEGEN--\":11984:12036   */\n      tag_447\n        /* \"--CODEGEN--\":12028:12035   */\n      dup5\n        /* \"--CODEGEN--\":12019:12025   */\n      dup3\n        /* \"--CODEGEN--\":12008:12017   */\n      dup6\n        /* \"--CODEGEN--\":12004:12026   */\n      add\n        /* \"--CODEGEN--\":11984:12036   */\n      tag_342\n      jump\t// in\n    tag_447:\n        /* \"--CODEGEN--\":11974:12036   */\n      swap2\n      pop\n        /* \"--CODEGEN--\":11946:12042   */\n      pop\n        /* \"--CODEGEN--\":11878:12052   */\n      swap3\n      swap2\n      pop\n      pop\n      jump\t// out\n        /* \"--CODEGEN--\":12059:12442   */\n    tag_28:\n      0x00\n        /* \"--CODEGEN--\":12191:12193   */\n      0x20\n        /* \"--CODEGEN--\":12179:12188   */\n      dup3\n        /* \"--CODEGEN--\":12170:12177   */\n      dup5\n        /* \"--CODEGEN--\":12166:12189   */\n      sub\n        /* \"--CODEGEN--\":12162:12194   */\n      slt\n        /* \"--CODEGEN--\":12159:12161   */\n      iszero\n      tag_449\n      jumpi\n        /* \"--CODEGEN--\":12207:12208   */\n      0x00\n        /* \"--CODEGEN--\":12204:12205   */\n      dup1\n        /* \"--CODEGEN--\":12197:12209   */\n      revert\n        /* \"--CODEGEN--\":12159:12161   */\n    tag_449:\n        /* \"--CODEGEN--\":12270:12271   */\n      0x00\n        /* \"--CODEGEN--\":12259:12268   */\n      dup3\n        /* \"--CODEGEN--\":12255:12272   */\n      add\n        /* \"--CODEGEN--\":12242:12273   */\n      calldataload\n        /* \"--CODEGEN--\":12293:12311   */\n      0xffffffffffffffff\n        /* \"--CODEGEN--\":12285:12291   */\n      dup2\n        /* \"--CODEGEN--\":12282:12312   */\n      gt\n        /* \"--CODEGEN--\":12279:12281   */\n      iszero\n      tag_450\n      jumpi\n        /* \"--CODEGEN--\":12325:12326   */\n      0x00\n        /* \"--CODEGEN--\":12322:12323   */\n      dup1\n        /* \"--CODEGEN--\":12315:12327   */\n      revert\n        /* \"--CODEGEN--\":12279:12281   */\n    tag_450:\n        /* \"--CODEGEN--\":12345:12426   */\n      tag_451\n        /* \"--CODEGEN--\":12418:12425   */\n      dup5\n        /* \"--CODEGEN--\":12409:12415   */\n      dup3\n        /* \"--CODEGEN--\":12398:12407   */\n      dup6\n        /* \"--CODEGEN--\":12394:12416   */\n      add\n        /* \"--CODEGEN--\":12345:12426   */\n      tag_367\n      jump\t// in\n    tag_451:\n        /* \"--CODEGEN--\":12335:12426   */\n      swap2\n      pop\n        /* \"--CODEGEN--\":12221:12432   */\n      pop\n        /* \"--CODEGEN--\":12153:12442   */\n      swap3\n      swap2\n      pop\n      pop\n      jump\t// out\n        /* \"--CODEGEN--\":12449:12712   */\n    tag_271:\n      0x00\n        /* \"--CODEGEN--\":12564:12566   */\n      0x20\n        /* \"--CODEGEN--\":12552:12561   */\n      dup3\n        /* \"--CODEGEN--\":12543:12550   */\n      dup5\n        /* \"--CODEGEN--\":12539:12562   */\n      sub\n        /* \"--CODEGEN--\":12535:12567   */\n      slt\n        /* \"--CODEGEN--\":12532:12534   */\n      iszero\n      tag_453\n      jumpi\n        /* \"--CODEGEN--\":12580:12581   */\n      0x00\n        /* \"--CODEGEN--\":12577:12578   */\n      dup1\n        /* \"--CODEGEN--\":12570:12582   */\n      revert\n        /* \"--CODEGEN--\":12532:12534   */\n    tag_453:\n        /* \"--CODEGEN--\":12615:12616   */\n      0x00\n        /* \"--CODEGEN--\":12632:12696   */\n      tag_454\n        /* \"--CODEGEN--\":12688:12695   */\n      dup5\n        /* \"--CODEGEN--\":12679:12685   */\n      dup3\n        /* \"--CODEGEN--\":12668:12677   */\n      dup6\n        /* \"--CODEGEN--\":12664:12686   */\n      add\n        /* \"--CODEGEN--\":12632:12696   */\n      tag_389\n      jump\t// in\n    tag_454:\n        /* \"--CODEGEN--\":12622:12696   */\n      swap2\n      pop\n        /* \"--CODEGEN--\":12594:12702   */\n      pop\n        /* \"--CODEGEN--\":12526:12712   */\n      swap3\n      swap2\n      pop\n      pop\n      jump\t// out\n        /* \"--CODEGEN--\":12720:12893   */\n    tag_455:\n      0x00\n        /* \"--CODEGEN--\":12807:12853   */\n      tag_457\n        /* \"--CODEGEN--\":12849:12852   */\n      dup4\n        /* \"--CODEGEN--\":12841:12847   */\n      dup4\n        /* \"--CODEGEN--\":12807:12853   */\n      tag_458\n      jump\t// in\n    tag_457:\n        /* \"--CODEGEN--\":12882:12886   */\n      0x20\n        /* \"--CODEGEN--\":12877:12880   */\n      dup4\n        /* \"--CODEGEN--\":12873:12887   */\n      add\n        /* \"--CODEGEN--\":12859:12887   */\n      swap1\n      pop\n        /* \"--CODEGEN--\":12800:12893   */\n      swap3\n      swap2\n      pop\n      pop\n      jump\t// out\n        /* \"--CODEGEN--\":12901:13004   */\n    tag_458:\n        /* \"--CODEGEN--\":12974:12998   */\n      tag_460\n        /* \"--CODEGEN--\":12992:12997   */\n      dup2\n        /* \"--CODEGEN--\":12974:12998   */\n      tag_461\n      jump\t// in\n    tag_460:\n        /* \"--CODEGEN--\":12969:12972   */\n      dup3\n        /* \"--CODEGEN--\":12962:12999   */\n      mstore\n        /* \"--CODEGEN--\":12956:13004   */\n      pop\n      pop\n      jump\t// out\n        /* \"--CODEGEN--\":13011:13124   */\n    tag_462:\n        /* \"--CODEGEN--\":13094:13118   */\n      tag_464\n        /* \"--CODEGEN--\":13112:13117   */\n      dup2\n        /* \"--CODEGEN--\":13094:13118   */\n      tag_461\n      jump\t// in\n    tag_464:\n        /* \"--CODEGEN--\":13089:13092   */\n      dup3\n        /* \"--CODEGEN--\":13082:13119   */\n      mstore\n        /* \"--CODEGEN--\":13076:13124   */\n      pop\n      pop\n      jump\t// out\n        /* \"--CODEGEN--\":13162:13832   */\n    tag_465:\n      0x00\n        /* \"--CODEGEN--\":13297:13351   */\n      tag_467\n        /* \"--CODEGEN--\":13345:13350   */\n      dup3\n        /* \"--CODEGEN--\":13297:13351   */\n      tag_468\n      jump\t// in\n    tag_467:\n        /* \"--CODEGEN--\":13364:13440   */\n      tag_469\n        /* \"--CODEGEN--\":13433:13439   */\n      dup2\n        /* \"--CODEGEN--\":13428:13431   */\n      dup6\n        /* \"--CODEGEN--\":13364:13440   */\n      tag_470\n      jump\t// in\n    tag_469:\n        /* \"--CODEGEN--\":13357:13440   */\n      swap4\n      pop\n        /* \"--CODEGEN--\":13461:13517   */\n      tag_471\n        /* \"--CODEGEN--\":13511:13516   */\n      dup4\n        /* \"--CODEGEN--\":13461:13517   */\n      tag_472\n      jump\t// in\n    tag_471:\n        /* \"--CODEGEN--\":13537:13544   */\n      dup1\n        /* \"--CODEGEN--\":13565:13566   */\n      0x00\n        /* \"--CODEGEN--\":13550:13810   */\n    tag_473:\n        /* \"--CODEGEN--\":13575:13581   */\n      dup4\n        /* \"--CODEGEN--\":13572:13573   */\n      dup2\n        /* \"--CODEGEN--\":13569:13582   */\n      lt\n        /* \"--CODEGEN--\":13550:13810   */\n      iszero\n      tag_475\n      jumpi\n        /* \"--CODEGEN--\":13642:13648   */\n      dup2\n        /* \"--CODEGEN--\":13636:13649   */\n      mload\n        /* \"--CODEGEN--\":13663:13726   */\n      tag_476\n        /* \"--CODEGEN--\":13722:13725   */\n      dup9\n        /* \"--CODEGEN--\":13707:13720   */\n      dup3\n        /* \"--CODEGEN--\":13663:13726   */\n      tag_455\n      jump\t// in\n    tag_476:\n        /* \"--CODEGEN--\":13656:13726   */\n      swap8\n      pop\n        /* \"--CODEGEN--\":13743:13803   */\n      tag_477\n        /* \"--CODEGEN--\":13796:13802   */\n      dup4\n        /* \"--CODEGEN--\":13743:13803   */\n      tag_478\n      jump\t// in\n    tag_477:\n        /* \"--CODEGEN--\":13733:13803   */\n      swap3\n      pop\n        /* \"--CODEGEN--\":13607:13810   */\n      pop\n        /* \"--CODEGEN--\":13597:13598   */\n      0x01\n        /* \"--CODEGEN--\":13594:13595   */\n      dup2\n        /* \"--CODEGEN--\":13590:13599   */\n      add\n        /* \"--CODEGEN--\":13585:13599   */\n      swap1\n      pop\n        /* \"--CODEGEN--\":13550:13810   */\n      jump(tag_473)\n    tag_475:\n        /* \"--CODEGEN--\":13554:13568   */\n      pop\n        /* \"--CODEGEN--\":13823:13826   */\n      dup6\n        /* \"--CODEGEN--\":13816:13826   */\n      swap4\n      pop\n        /* \"--CODEGEN--\":13276:13832   */\n      pop\n      pop\n      pop\n      swap3\n      swap2\n      pop\n      pop\n      jump\t// out\n        /* \"--CODEGEN--\":13871:14561   */\n    tag_479:\n      0x00\n        /* \"--CODEGEN--\":14016:14070   */\n      tag_481\n        /* \"--CODEGEN--\":14064:14069   */\n      dup3\n        /* \"--CODEGEN--\":14016:14070   */\n      tag_468\n      jump\t// in\n    tag_481:\n        /* \"--CODEGEN--\":14083:14169   */\n      tag_482\n        /* \"--CODEGEN--\":14162:14168   */\n      dup2\n        /* \"--CODEGEN--\":14157:14160   */\n      dup6\n        /* \"--CODEGEN--\":14083:14169   */\n      tag_483\n      jump\t// in\n    tag_482:\n        /* \"--CODEGEN--\":14076:14169   */\n      swap4\n      pop\n        /* \"--CODEGEN--\":14190:14246   */\n      tag_484\n        /* \"--CODEGEN--\":14240:14245   */\n      dup4\n        /* \"--CODEGEN--\":14190:14246   */\n      tag_472\n      jump\t// in\n    tag_484:\n        /* \"--CODEGEN--\":14266:14273   */\n      dup1\n        /* \"--CODEGEN--\":14294:14295   */\n      0x00\n        /* \"--CODEGEN--\":14279:14539   */\n    tag_485:\n        /* \"--CODEGEN--\":14304:14310   */\n      dup4\n        /* \"--CODEGEN--\":14301:14302   */\n      dup2\n        /* \"--CODEGEN--\":14298:14311   */\n      lt\n        /* \"--CODEGEN--\":14279:14539   */\n      iszero\n      tag_487\n      jumpi\n        /* \"--CODEGEN--\":14371:14377   */\n      dup2\n        /* \"--CODEGEN--\":14365:14378   */\n      mload\n        /* \"--CODEGEN--\":14392:14455   */\n      tag_488\n        /* \"--CODEGEN--\":14451:14454   */\n      dup9\n        /* \"--CODEGEN--\":14436:14449   */\n      dup3\n        /* \"--CODEGEN--\":14392:14455   */\n      tag_455\n      jump\t// in\n    tag_488:\n        /* \"--CODEGEN--\":14385:14455   */\n      swap8\n      pop\n        /* \"--CODEGEN--\":14472:14532   */\n      tag_489\n        /* \"--CODEGEN--\":14525:14531   */\n      dup4\n        /* \"--CODEGEN--\":14472:14532   */\n      tag_478\n      jump\t// in\n    tag_489:\n        /* \"--CODEGEN--\":14462:14532   */\n      swap3\n      pop\n        /* \"--CODEGEN--\":14336:14539   */\n      pop\n        /* \"--CODEGEN--\":14326:14327   */\n      0x01\n        /* \"--CODEGEN--\":14323:14324   */\n      dup2\n        /* \"--CODEGEN--\":14319:14328   */\n      add\n        /* \"--CODEGEN--\":14314:14328   */\n      swap1\n      pop\n        /* \"--CODEGEN--\":14279:14539   */\n      jump(tag_485)\n    tag_487:\n        /* \"--CODEGEN--\":14283:14297   */\n      pop\n        /* \"--CODEGEN--\":14552:14555   */\n      dup6\n        /* \"--CODEGEN--\":14545:14555   */\n      swap4\n      pop\n        /* \"--CODEGEN--\":13995:14561   */\n      pop\n      pop\n      pop\n      swap3\n      swap2\n      pop\n      pop\n      jump\t// out\n        /* \"--CODEGEN--\":14569:14673   */\n    tag_490:\n        /* \"--CODEGEN--\":14646:14667   */\n      tag_492\n        /* \"--CODEGEN--\":14661:14666   */\n      dup2\n        /* \"--CODEGEN--\":14646:14667   */\n      tag_493\n      jump\t// in\n    tag_492:\n        /* \"--CODEGEN--\":14641:14644   */\n      dup3\n        /* \"--CODEGEN--\":14634:14668   */\n      mstore\n        /* \"--CODEGEN--\":14628:14673   */\n      pop\n      pop\n      jump\t// out\n        /* \"--CODEGEN--\":14680:14793   */\n    tag_494:\n        /* \"--CODEGEN--\":14763:14787   */\n      tag_496\n        /* \"--CODEGEN--\":14781:14786   */\n      dup2\n        /* \"--CODEGEN--\":14763:14787   */\n      tag_497\n      jump\t// in\n    tag_496:\n        /* \"--CODEGEN--\":14758:14761   */\n      dup3\n        /* \"--CODEGEN--\":14751:14788   */\n      mstore\n        /* \"--CODEGEN--\":14745:14793   */\n      pop\n      pop\n      jump\t// out\n        /* \"--CODEGEN--\":14800:14910   */\n    tag_498:\n        /* \"--CODEGEN--\":14881:14904   */\n      tag_500\n        /* \"--CODEGEN--\":14898:14903   */\n      dup2\n        /* \"--CODEGEN--\":14881:14904   */\n      tag_501\n      jump\t// in\n    tag_500:\n        /* \"--CODEGEN--\":14876:14879   */\n      dup3\n        /* \"--CODEGEN--\":14869:14905   */\n      mstore\n        /* \"--CODEGEN--\":14863:14910   */\n      pop\n      pop\n      jump\t// out\n        /* \"--CODEGEN--\":14917:15260   */\n    tag_502:\n      0x00\n        /* \"--CODEGEN--\":15027:15065   */\n      tag_504\n        /* \"--CODEGEN--\":15059:15064   */\n      dup3\n        /* \"--CODEGEN--\":15027:15065   */\n      tag_505\n      jump\t// in\n    tag_504:\n        /* \"--CODEGEN--\":15077:15147   */\n      tag_506\n        /* \"--CODEGEN--\":15140:15146   */\n      dup2\n        /* \"--CODEGEN--\":15135:15138   */\n      dup6\n        /* \"--CODEGEN--\":15077:15147   */\n      tag_507\n      jump\t// in\n    tag_506:\n        /* \"--CODEGEN--\":15070:15147   */\n      swap4\n      pop\n        /* \"--CODEGEN--\":15152:15204   */\n      tag_508\n        /* \"--CODEGEN--\":15197:15203   */\n      dup2\n        /* \"--CODEGEN--\":15192:15195   */\n      dup6\n        /* \"--CODEGEN--\":15185:15189   */\n      0x20\n        /* \"--CODEGEN--\":15178:15183   */\n      dup7\n        /* \"--CODEGEN--\":15174:15190   */\n      add\n        /* \"--CODEGEN--\":15152:15204   */\n      tag_509\n      jump\t// in\n    tag_508:\n        /* \"--CODEGEN--\":15225:15254   */\n      tag_510\n        /* \"--CODEGEN--\":15247:15253   */\n      dup2\n        /* \"--CODEGEN--\":15225:15254   */\n      tag_511\n      jump\t// in\n    tag_510:\n        /* \"--CODEGEN--\":15220:15223   */\n      dup5\n        /* \"--CODEGEN--\":15216:15255   */\n      add\n        /* \"--CODEGEN--\":15209:15255   */\n      swap2\n      pop\n        /* \"--CODEGEN--\":15007:15260   */\n      pop\n      swap3\n      swap2\n      pop\n      pop\n      jump\t// out\n        /* \"--CODEGEN--\":15267:15409   */\n    tag_512:\n        /* \"--CODEGEN--\":15358:15403   */\n      tag_514\n        /* \"--CODEGEN--\":15397:15402   */\n      dup2\n        /* \"--CODEGEN--\":15358:15403   */\n      tag_515\n      jump\t// in\n    tag_514:\n        /* \"--CODEGEN--\":15353:15356   */\n      dup3\n        /* \"--CODEGEN--\":15346:15404   */\n      mstore\n        /* \"--CODEGEN--\":15340:15409   */\n      pop\n      pop\n      jump\t// out\n        /* \"--CODEGEN--\":15417:15787   */\n    tag_516:\n      0x00\n        /* \"--CODEGEN--\":15577:15644   */\n      tag_518\n        /* \"--CODEGEN--\":15641:15643   */\n      0x21\n        /* \"--CODEGEN--\":15636:15639   */\n      dup4\n        /* \"--CODEGEN--\":15577:15644   */\n      tag_519\n      jump\t// in\n    tag_518:\n        /* \"--CODEGEN--\":15570:15644   */\n      swap2\n      pop\n        /* \"--CODEGEN--\":15677:15711   */\n      0x234e465450726f7879237665726966793a205452414e534645525f4558504952\n        /* \"--CODEGEN--\":15673:15674   */\n      0x00\n        /* \"--CODEGEN--\":15668:15671   */\n      dup4\n        /* \"--CODEGEN--\":15664:15675   */\n      add\n        /* \"--CODEGEN--\":15657:15712   */\n      mstore\n        /* \"--CODEGEN--\":15746:15749   */\n      0x5900000000000000000000000000000000000000000000000000000000000000\n        /* \"--CODEGEN--\":15741:15743   */\n      0x20\n        /* \"--CODEGEN--\":15736:15739   */\n      dup4\n        /* \"--CODEGEN--\":15732:15744   */\n      add\n        /* \"--CODEGEN--\":15725:15750   */\n      mstore\n        /* \"--CODEGEN--\":15778:15780   */\n      0x40\n        /* \"--CODEGEN--\":15773:15776   */\n      dup3\n        /* \"--CODEGEN--\":15769:15781   */\n      add\n        /* \"--CODEGEN--\":15762:15781   */\n      swap1\n      pop\n        /* \"--CODEGEN--\":15563:15787   */\n      swap2\n      swap1\n      pop\n      jump\t// out\n        /* \"--CODEGEN--\":15796:16170   */\n    tag_520:\n      0x00\n        /* \"--CODEGEN--\":15956:16023   */\n      tag_522\n        /* \"--CODEGEN--\":16020:16022   */\n      0x25\n        /* \"--CODEGEN--\":16015:16018   */\n      dup4\n        /* \"--CODEGEN--\":15956:16023   */\n      tag_519\n      jump\t// in\n    tag_522:\n        /* \"--CODEGEN--\":15949:16023   */\n      swap2\n      pop\n        /* \"--CODEGEN--\":16056:16090   */\n      0x234e465450726f787923766572696669636174696f6e3a204241445f5349474e\n        /* \"--CODEGEN--\":16052:16053   */\n      0x00\n        /* \"--CODEGEN--\":16047:16050   */\n      dup4\n        /* \"--CODEGEN--\":16043:16054   */\n      add\n        /* \"--CODEGEN--\":16036:16091   */\n      mstore\n        /* \"--CODEGEN--\":16125:16132   */\n      0x4154555245000000000000000000000000000000000000000000000000000000\n        /* \"--CODEGEN--\":16120:16122   */\n      0x20\n        /* \"--CODEGEN--\":16115:16118   */\n      dup4\n        /* \"--CODEGEN--\":16111:16123   */\n      add\n        /* \"--CODEGEN--\":16104:16133   */\n      mstore\n        /* \"--CODEGEN--\":16161:16163   */\n      0x40\n        /* \"--CODEGEN--\":16156:16159   */\n      dup3\n        /* \"--CODEGEN--\":16152:16164   */\n      add\n        /* \"--CODEGEN--\":16145:16164   */\n      swap1\n      pop\n        /* \"--CODEGEN--\":15942:16170   */\n      swap2\n      swap1\n      pop\n      jump\t// out\n        /* \"--CODEGEN--\":16179:16555   */\n    tag_523:\n      0x00\n        /* \"--CODEGEN--\":16339:16406   */\n      tag_525\n        /* \"--CODEGEN--\":16403:16405   */\n      0x27\n        /* \"--CODEGEN--\":16398:16401   */\n      dup4\n        /* \"--CODEGEN--\":16339:16406   */\n      tag_519\n      jump\t// in\n    tag_525:\n        /* \"--CODEGEN--\":16332:16406   */\n      swap2\n      pop\n        /* \"--CODEGEN--\":16439:16473   */\n      0x234552433131353550726f7879235f7472616e736665723a20494e56414c4944\n        /* \"--CODEGEN--\":16435:16436   */\n      0x00\n        /* \"--CODEGEN--\":16430:16433   */\n      dup4\n        /* \"--CODEGEN--\":16426:16437   */\n      add\n        /* \"--CODEGEN--\":16419:16474   */\n      mstore\n        /* \"--CODEGEN--\":16508:16517   */\n      0x5f414d4f554e5400000000000000000000000000000000000000000000000000\n        /* \"--CODEGEN--\":16503:16505   */\n      0x20\n        /* \"--CODEGEN--\":16498:16501   */\n      dup4\n        /* \"--CODEGEN--\":16494:16506   */\n      add\n        /* \"--CODEGEN--\":16487:16518   */\n      mstore\n        /* \"--CODEGEN--\":16546:16548   */\n      0x40\n        /* \"--CODEGEN--\":16541:16544   */\n      dup3\n        /* \"--CODEGEN--\":16537:16549   */\n      add\n        /* \"--CODEGEN--\":16530:16549   */\n      swap1\n      pop\n        /* \"--CODEGEN--\":16325:16555   */\n      swap2\n      swap1\n      pop\n      jump\t// out\n        /* \"--CODEGEN--\":16564:16939   */\n    tag_526:\n      0x00\n        /* \"--CODEGEN--\":16724:16791   */\n      tag_528\n        /* \"--CODEGEN--\":16788:16790   */\n      0x26\n        /* \"--CODEGEN--\":16783:16786   */\n      dup4\n        /* \"--CODEGEN--\":16724:16791   */\n      tag_519\n      jump\t// in\n    tag_528:\n        /* \"--CODEGEN--\":16717:16791   */\n      swap2\n      pop\n        /* \"--CODEGEN--\":16824:16858   */\n      0x4f776e61626c653a206e6577206f776e657220697320746865207a65726f2061\n        /* \"--CODEGEN--\":16820:16821   */\n      0x00\n        /* \"--CODEGEN--\":16815:16818   */\n      dup4\n        /* \"--CODEGEN--\":16811:16822   */\n      add\n        /* \"--CODEGEN--\":16804:16859   */\n      mstore\n        /* \"--CODEGEN--\":16893:16901   */\n      0x6464726573730000000000000000000000000000000000000000000000000000\n        /* \"--CODEGEN--\":16888:16890   */\n      0x20\n        /* \"--CODEGEN--\":16883:16886   */\n      dup4\n        /* \"--CODEGEN--\":16879:16891   */\n      add\n        /* \"--CODEGEN--\":16872:16902   */\n      mstore\n        /* \"--CODEGEN--\":16930:16932   */\n      0x40\n        /* \"--CODEGEN--\":16925:16928   */\n      dup3\n        /* \"--CODEGEN--\":16921:16933   */\n      add\n        /* \"--CODEGEN--\":16914:16933   */\n      swap1\n      pop\n        /* \"--CODEGEN--\":16710:16939   */\n      swap2\n      swap1\n      pop\n      jump\t// out\n        /* \"--CODEGEN--\":16948:17324   */\n    tag_529:\n      0x00\n        /* \"--CODEGEN--\":17108:17175   */\n      tag_531\n        /* \"--CODEGEN--\":17172:17174   */\n      0x27\n        /* \"--CODEGEN--\":17167:17170   */\n      dup4\n        /* \"--CODEGEN--\":17108:17175   */\n      tag_519\n      jump\t// in\n    tag_531:\n        /* \"--CODEGEN--\":17101:17175   */\n      swap2\n      pop\n        /* \"--CODEGEN--\":17208:17242   */\n      0x234552433131353550726f7879235f77697468647261773a20494e56414c4944\n        /* \"--CODEGEN--\":17204:17205   */\n      0x00\n        /* \"--CODEGEN--\":17199:17202   */\n      dup4\n        /* \"--CODEGEN--\":17195:17206   */\n      add\n        /* \"--CODEGEN--\":17188:17243   */\n      mstore\n        /* \"--CODEGEN--\":17277:17286   */\n      0x5f414d4f554e5400000000000000000000000000000000000000000000000000\n        /* \"--CODEGEN--\":17272:17274   */\n      0x20\n        /* \"--CODEGEN--\":17267:17270   */\n      dup4\n        /* \"--CODEGEN--\":17263:17275   */\n      add\n        /* \"--CODEGEN--\":17256:17287   */\n      mstore\n        /* \"--CODEGEN--\":17315:17317   */\n      0x40\n        /* \"--CODEGEN--\":17310:17313   */\n      dup3\n        /* \"--CODEGEN--\":17306:17318   */\n      add\n        /* \"--CODEGEN--\":17299:17318   */\n      swap1\n      pop\n        /* \"--CODEGEN--\":17094:17324   */\n      swap2\n      swap1\n      pop\n      jump\t// out\n        /* \"--CODEGEN--\":17333:17707   */\n    tag_532:\n      0x00\n        /* \"--CODEGEN--\":17493:17560   */\n      tag_534\n        /* \"--CODEGEN--\":17557:17559   */\n      0x25\n        /* \"--CODEGEN--\":17552:17555   */\n      dup4\n        /* \"--CODEGEN--\":17493:17560   */\n      tag_519\n      jump\t// in\n    tag_534:\n        /* \"--CODEGEN--\":17486:17560   */\n      swap2\n      pop\n        /* \"--CODEGEN--\":17593:17627   */\n      0x234e465450726f7879237665726966793a204241445f5253565f4c4953545f4c\n        /* \"--CODEGEN--\":17589:17590   */\n      0x00\n        /* \"--CODEGEN--\":17584:17587   */\n      dup4\n        /* \"--CODEGEN--\":17580:17591   */\n      add\n        /* \"--CODEGEN--\":17573:17628   */\n      mstore\n        /* \"--CODEGEN--\":17662:17669   */\n      0x454e475448000000000000000000000000000000000000000000000000000000\n        /* \"--CODEGEN--\":17657:17659   */\n      0x20\n        /* \"--CODEGEN--\":17652:17655   */\n      dup4\n        /* \"--CODEGEN--\":17648:17660   */\n      add\n        /* \"--CODEGEN--\":17641:17670   */\n      mstore\n        /* \"--CODEGEN--\":17698:17700   */\n      0x40\n        /* \"--CODEGEN--\":17693:17696   */\n      dup3\n        /* \"--CODEGEN--\":17689:17701   */\n      add\n        /* \"--CODEGEN--\":17682:17701   */\n      swap1\n      pop\n        /* \"--CODEGEN--\":17479:17707   */\n      swap2\n      swap1\n      pop\n      jump\t// out\n        /* \"--CODEGEN--\":17716:18099   */\n    tag_535:\n      0x00\n        /* \"--CODEGEN--\":17876:17943   */\n      tag_537\n        /* \"--CODEGEN--\":17940:17942   */\n      0x2e\n        /* \"--CODEGEN--\":17935:17938   */\n      dup4\n        /* \"--CODEGEN--\":17876:17943   */\n      tag_519\n      jump\t// in\n    tag_537:\n        /* \"--CODEGEN--\":17869:17943   */\n      swap2\n      pop\n        /* \"--CODEGEN--\":17976:18010   */\n      0x234552433131353550726f7879235f7472616e736665723a20494e5355464649\n        /* \"--CODEGEN--\":17972:17973   */\n      0x00\n        /* \"--CODEGEN--\":17967:17970   */\n      dup4\n        /* \"--CODEGEN--\":17963:17974   */\n      add\n        /* \"--CODEGEN--\":17956:18011   */\n      mstore\n        /* \"--CODEGEN--\":18045:18061   */\n      0x4349454e545f42414c414e434553000000000000000000000000000000000000\n        /* \"--CODEGEN--\":18040:18042   */\n      0x20\n        /* \"--CODEGEN--\":18035:18038   */\n      dup4\n        /* \"--CODEGEN--\":18031:18043   */\n      add\n        /* \"--CODEGEN--\":18024:18062   */\n      mstore\n        /* \"--CODEGEN--\":18090:18092   */\n      0x40\n        /* \"--CODEGEN--\":18085:18088   */\n      dup3\n        /* \"--CODEGEN--\":18081:18093   */\n      add\n        /* \"--CODEGEN--\":18074:18093   */\n      swap1\n      pop\n        /* \"--CODEGEN--\":17862:18099   */\n      swap2\n      swap1\n      pop\n      jump\t// out\n        /* \"--CODEGEN--\":18108:18440   */\n    tag_538:\n      0x00\n        /* \"--CODEGEN--\":18268:18335   */\n      tag_540\n        /* \"--CODEGEN--\":18332:18334   */\n      0x20\n        /* \"--CODEGEN--\":18327:18330   */\n      dup4\n        /* \"--CODEGEN--\":18268:18335   */\n      tag_519\n      jump\t// in\n    tag_540:\n        /* \"--CODEGEN--\":18261:18335   */\n      swap2\n      pop\n        /* \"--CODEGEN--\":18368:18402   */\n      0x234e465450726f7879237665726966793a204f574e45525f4e4f5f4d41544348\n        /* \"--CODEGEN--\":18364:18365   */\n      0x00\n        /* \"--CODEGEN--\":18359:18362   */\n      dup4\n        /* \"--CODEGEN--\":18355:18366   */\n      add\n        /* \"--CODEGEN--\":18348:18403   */\n      mstore\n        /* \"--CODEGEN--\":18431:18433   */\n      0x20\n        /* \"--CODEGEN--\":18426:18429   */\n      dup3\n        /* \"--CODEGEN--\":18422:18434   */\n      add\n        /* \"--CODEGEN--\":18415:18434   */\n      swap1\n      pop\n        /* \"--CODEGEN--\":18254:18440   */\n      swap2\n      swap1\n      pop\n      jump\t// out\n        /* \"--CODEGEN--\":18449:18839   */\n    tag_541:\n      0x00\n        /* \"--CODEGEN--\":18609:18676   */\n      tag_543\n        /* \"--CODEGEN--\":18673:18675   */\n      0x35\n        /* \"--CODEGEN--\":18668:18671   */\n      dup4\n        /* \"--CODEGEN--\":18609:18676   */\n      tag_519\n      jump\t// in\n    tag_543:\n        /* \"--CODEGEN--\":18602:18676   */\n      swap2\n      pop\n        /* \"--CODEGEN--\":18709:18743   */\n      0x234e465450726f787923636865636b41646472657373456d7074793a20414444\n        /* \"--CODEGEN--\":18705:18706   */\n      0x00\n        /* \"--CODEGEN--\":18700:18703   */\n      dup4\n        /* \"--CODEGEN--\":18696:18707   */\n      add\n        /* \"--CODEGEN--\":18689:18744   */\n      mstore\n        /* \"--CODEGEN--\":18778:18801   */\n      0x524553535f4c4953545f4c454e4754485f5a45524f0000000000000000000000\n        /* \"--CODEGEN--\":18773:18775   */\n      0x20\n        /* \"--CODEGEN--\":18768:18771   */\n      dup4\n        /* \"--CODEGEN--\":18764:18776   */\n      add\n        /* \"--CODEGEN--\":18757:18802   */\n      mstore\n        /* \"--CODEGEN--\":18830:18832   */\n      0x40\n        /* \"--CODEGEN--\":18825:18828   */\n      dup3\n        /* \"--CODEGEN--\":18821:18833   */\n      add\n        /* \"--CODEGEN--\":18814:18833   */\n      swap1\n      pop\n        /* \"--CODEGEN--\":18595:18839   */\n      swap2\n      swap1\n      pop\n      jump\t// out\n        /* \"--CODEGEN--\":18848:19239   */\n    tag_544:\n      0x00\n        /* \"--CODEGEN--\":19008:19075   */\n      tag_546\n        /* \"--CODEGEN--\":19072:19074   */\n      0x36\n        /* \"--CODEGEN--\":19067:19070   */\n      dup4\n        /* \"--CODEGEN--\":19008:19075   */\n      tag_519\n      jump\t// in\n    tag_546:\n        /* \"--CODEGEN--\":19001:19075   */\n      swap2\n      pop\n        /* \"--CODEGEN--\":19108:19142   */\n      0x546865204e465420636f6e74726163742068617320616e20696e76616c696420\n        /* \"--CODEGEN--\":19104:19105   */\n      0x00\n        /* \"--CODEGEN--\":19099:19102   */\n      dup4\n        /* \"--CODEGEN--\":19095:19106   */\n      add\n        /* \"--CODEGEN--\":19088:19143   */\n      mstore\n        /* \"--CODEGEN--\":19177:19201   */\n      0x4552433131353520696d706c656d656e746174696f6e00000000000000000000\n        /* \"--CODEGEN--\":19172:19174   */\n      0x20\n        /* \"--CODEGEN--\":19167:19170   */\n      dup4\n        /* \"--CODEGEN--\":19163:19175   */\n      add\n        /* \"--CODEGEN--\":19156:19202   */\n      mstore\n        /* \"--CODEGEN--\":19230:19232   */\n      0x40\n        /* \"--CODEGEN--\":19225:19228   */\n      dup3\n        /* \"--CODEGEN--\":19221:19233   */\n      add\n        /* \"--CODEGEN--\":19214:19233   */\n      swap1\n      pop\n        /* \"--CODEGEN--\":18994:19239   */\n      swap2\n      swap1\n      pop\n      jump\t// out\n        /* \"--CODEGEN--\":19248:19578   */\n    tag_547:\n      0x00\n        /* \"--CODEGEN--\":19408:19475   */\n      tag_549\n        /* \"--CODEGEN--\":19472:19474   */\n      0x1e\n        /* \"--CODEGEN--\":19467:19470   */\n      dup4\n        /* \"--CODEGEN--\":19408:19475   */\n      tag_519\n      jump\t// in\n    tag_549:\n        /* \"--CODEGEN--\":19401:19475   */\n      swap2\n      pop\n        /* \"--CODEGEN--\":19508:19540   */\n      0x234e465450726f7879237665726966793a20414444524553535f5a45524f0000\n        /* \"--CODEGEN--\":19504:19505   */\n      0x00\n        /* \"--CODEGEN--\":19499:19502   */\n      dup4\n        /* \"--CODEGEN--\":19495:19506   */\n      add\n        /* \"--CODEGEN--\":19488:19541   */\n      mstore\n        /* \"--CODEGEN--\":19569:19571   */\n      0x20\n        /* \"--CODEGEN--\":19564:19567   */\n      dup3\n        /* \"--CODEGEN--\":19560:19572   */\n      add\n        /* \"--CODEGEN--\":19553:19572   */\n      swap1\n      pop\n        /* \"--CODEGEN--\":19394:19578   */\n      swap2\n      swap1\n      pop\n      jump\t// out\n        /* \"--CODEGEN--\":19587:19919   */\n    tag_550:\n      0x00\n        /* \"--CODEGEN--\":19747:19814   */\n      tag_552\n        /* \"--CODEGEN--\":19811:19813   */\n      0x20\n        /* \"--CODEGEN--\":19806:19809   */\n      dup4\n        /* \"--CODEGEN--\":19747:19814   */\n      tag_519\n      jump\t// in\n    tag_552:\n        /* \"--CODEGEN--\":19740:19814   */\n      swap2\n      pop\n        /* \"--CODEGEN--\":19847:19881   */\n      0x4f776e61626c653a2063616c6c6572206973206e6f7420746865206f776e6572\n        /* \"--CODEGEN--\":19843:19844   */\n      0x00\n        /* \"--CODEGEN--\":19838:19841   */\n      dup4\n        /* \"--CODEGEN--\":19834:19845   */\n      add\n        /* \"--CODEGEN--\":19827:19882   */\n      mstore\n        /* \"--CODEGEN--\":19910:19912   */\n      0x20\n        /* \"--CODEGEN--\":19905:19908   */\n      dup3\n        /* \"--CODEGEN--\":19901:19913   */\n      add\n        /* \"--CODEGEN--\":19894:19913   */\n      swap1\n      pop\n        /* \"--CODEGEN--\":19733:19919   */\n      swap2\n      swap1\n      pop\n      jump\t// out\n        /* \"--CODEGEN--\":19928:20305   */\n    tag_553:\n      0x00\n        /* \"--CODEGEN--\":20088:20155   */\n      tag_555\n        /* \"--CODEGEN--\":20152:20154   */\n      0x28\n        /* \"--CODEGEN--\":20147:20150   */\n      dup4\n        /* \"--CODEGEN--\":20088:20155   */\n      tag_519\n      jump\t// in\n    tag_555:\n        /* \"--CODEGEN--\":20081:20155   */\n      swap2\n      pop\n        /* \"--CODEGEN--\":20188:20222   */\n      0x234e465450726f7879237472616e736665723a204e4f5f5452414e534645525f\n        /* \"--CODEGEN--\":20184:20185   */\n      0x00\n        /* \"--CODEGEN--\":20179:20182   */\n      dup4\n        /* \"--CODEGEN--\":20175:20186   */\n      add\n        /* \"--CODEGEN--\":20168:20223   */\n      mstore\n        /* \"--CODEGEN--\":20257:20267   */\n      0x5349474e5f455252000000000000000000000000000000000000000000000000\n        /* \"--CODEGEN--\":20252:20254   */\n      0x20\n        /* \"--CODEGEN--\":20247:20250   */\n      dup4\n        /* \"--CODEGEN--\":20243:20255   */\n      add\n        /* \"--CODEGEN--\":20236:20268   */\n      mstore\n        /* \"--CODEGEN--\":20296:20298   */\n      0x40\n        /* \"--CODEGEN--\":20291:20294   */\n      dup3\n        /* \"--CODEGEN--\":20287:20299   */\n      add\n        /* \"--CODEGEN--\":20280:20299   */\n      swap1\n      pop\n        /* \"--CODEGEN--\":20074:20305   */\n      swap2\n      swap1\n      pop\n      jump\t// out\n        /* \"--CODEGEN--\":20314:20699   */\n    tag_556:\n      0x00\n        /* \"--CODEGEN--\":20474:20541   */\n      tag_558\n        /* \"--CODEGEN--\":20538:20540   */\n      0x30\n        /* \"--CODEGEN--\":20533:20536   */\n      dup4\n        /* \"--CODEGEN--\":20474:20541   */\n      tag_519\n      jump\t// in\n    tag_558:\n        /* \"--CODEGEN--\":20467:20541   */\n      swap2\n      pop\n        /* \"--CODEGEN--\":20574:20608   */\n      0x234552433131353550726f7879235f6f6e455243313135355265636569766564\n        /* \"--CODEGEN--\":20570:20571   */\n      0x00\n        /* \"--CODEGEN--\":20565:20568   */\n      dup4\n        /* \"--CODEGEN--\":20561:20572   */\n      add\n        /* \"--CODEGEN--\":20554:20609   */\n      mstore\n        /* \"--CODEGEN--\":20643:20661   */\n      0x3a20494e56414c49445f414d4f554e5400000000000000000000000000000000\n        /* \"--CODEGEN--\":20638:20640   */\n      0x20\n        /* \"--CODEGEN--\":20633:20636   */\n      dup4\n        /* \"--CODEGEN--\":20629:20641   */\n      add\n        /* \"--CODEGEN--\":20622:20662   */\n      mstore\n        /* \"--CODEGEN--\":20690:20692   */\n      0x40\n        /* \"--CODEGEN--\":20685:20688   */\n      dup3\n        /* \"--CODEGEN--\":20681:20693   */\n      add\n        /* \"--CODEGEN--\":20674:20693   */\n      swap1\n      pop\n        /* \"--CODEGEN--\":20460:20699   */\n      swap2\n      swap1\n      pop\n      jump\t// out\n        /* \"--CODEGEN--\":20708:21091   */\n    tag_559:\n      0x00\n        /* \"--CODEGEN--\":20868:20935   */\n      tag_561\n        /* \"--CODEGEN--\":20932:20934   */\n      0x2e\n        /* \"--CODEGEN--\":20927:20930   */\n      dup4\n        /* \"--CODEGEN--\":20868:20935   */\n      tag_519\n      jump\t// in\n    tag_561:\n        /* \"--CODEGEN--\":20861:20935   */\n      swap2\n      pop\n        /* \"--CODEGEN--\":20968:21002   */\n      0x234552433131353550726f7879235f77697468647261773a20494e5355464649\n        /* \"--CODEGEN--\":20964:20965   */\n      0x00\n        /* \"--CODEGEN--\":20959:20962   */\n      dup4\n        /* \"--CODEGEN--\":20955:20966   */\n      add\n        /* \"--CODEGEN--\":20948:21003   */\n      mstore\n        /* \"--CODEGEN--\":21037:21053   */\n      0x4349454e545f42414c414e434553000000000000000000000000000000000000\n        /* \"--CODEGEN--\":21032:21034   */\n      0x20\n        /* \"--CODEGEN--\":21027:21030   */\n      dup4\n        /* \"--CODEGEN--\":21023:21035   */\n      add\n        /* \"--CODEGEN--\":21016:21054   */\n      mstore\n        /* \"--CODEGEN--\":21082:21084   */\n      0x40\n        /* \"--CODEGEN--\":21077:21080   */\n      dup3\n        /* \"--CODEGEN--\":21073:21085   */\n      add\n        /* \"--CODEGEN--\":21066:21085   */\n      swap1\n      pop\n        /* \"--CODEGEN--\":20854:21091   */\n      swap2\n      swap1\n      pop\n      jump\t// out\n        /* \"--CODEGEN--\":21100:21487   */\n    tag_562:\n      0x00\n        /* \"--CODEGEN--\":21260:21327   */\n      tag_564\n        /* \"--CODEGEN--\":21324:21326   */\n      0x32\n        /* \"--CODEGEN--\":21319:21322   */\n      dup4\n        /* \"--CODEGEN--\":21260:21327   */\n      tag_519\n      jump\t// in\n    tag_564:\n        /* \"--CODEGEN--\":21253:21327   */\n      swap2\n      pop\n        /* \"--CODEGEN--\":21360:21394   */\n      0x234552433131353550726f7879235f6973455243313135353a20494e564c4941\n        /* \"--CODEGEN--\":21356:21357   */\n      0x00\n        /* \"--CODEGEN--\":21351:21354   */\n      dup4\n        /* \"--CODEGEN--\":21347:21358   */\n      add\n        /* \"--CODEGEN--\":21340:21395   */\n      mstore\n        /* \"--CODEGEN--\":21429:21449   */\n      0x445f434f4e54524143545f414444524553530000000000000000000000000000\n        /* \"--CODEGEN--\":21424:21426   */\n      0x20\n        /* \"--CODEGEN--\":21419:21422   */\n      dup4\n        /* \"--CODEGEN--\":21415:21427   */\n      add\n        /* \"--CODEGEN--\":21408:21450   */\n      mstore\n        /* \"--CODEGEN--\":21478:21480   */\n      0x40\n        /* \"--CODEGEN--\":21473:21476   */\n      dup3\n        /* \"--CODEGEN--\":21469:21481   */\n      add\n        /* \"--CODEGEN--\":21462:21481   */\n      swap1\n      pop\n        /* \"--CODEGEN--\":21246:21487   */\n      swap2\n      swap1\n      pop\n      jump\t// out\n        /* \"--CODEGEN--\":21496:21872   */\n    tag_565:\n      0x00\n        /* \"--CODEGEN--\":21656:21723   */\n      tag_567\n        /* \"--CODEGEN--\":21720:21722   */\n      0x27\n        /* \"--CODEGEN--\":21715:21718   */\n      dup4\n        /* \"--CODEGEN--\":21656:21723   */\n      tag_519\n      jump\t// in\n    tag_567:\n        /* \"--CODEGEN--\":21649:21723   */\n      swap2\n      pop\n        /* \"--CODEGEN--\":21756:21790   */\n      0x234e465450726f7879237665726966793a205349474e5f434f554e545f544f4f\n        /* \"--CODEGEN--\":21752:21753   */\n      0x00\n        /* \"--CODEGEN--\":21747:21750   */\n      dup4\n        /* \"--CODEGEN--\":21743:21754   */\n      add\n        /* \"--CODEGEN--\":21736:21791   */\n      mstore\n        /* \"--CODEGEN--\":21825:21834   */\n      0x5f4c4954544c4500000000000000000000000000000000000000000000000000\n        /* \"--CODEGEN--\":21820:21822   */\n      0x20\n        /* \"--CODEGEN--\":21815:21818   */\n      dup4\n        /* \"--CODEGEN--\":21811:21823   */\n      add\n        /* \"--CODEGEN--\":21804:21835   */\n      mstore\n        /* \"--CODEGEN--\":21863:21865   */\n      0x40\n        /* \"--CODEGEN--\":21858:21861   */\n      dup3\n        /* \"--CODEGEN--\":21854:21866   */\n      add\n        /* \"--CODEGEN--\":21847:21866   */\n      swap1\n      pop\n        /* \"--CODEGEN--\":21642:21872   */\n      swap2\n      swap1\n      pop\n      jump\t// out\n        /* \"--CODEGEN--\":21881:22255   */\n    tag_568:\n      0x00\n        /* \"--CODEGEN--\":22041:22108   */\n      tag_570\n        /* \"--CODEGEN--\":22105:22107   */\n      0x25\n        /* \"--CODEGEN--\":22100:22103   */\n      dup4\n        /* \"--CODEGEN--\":22041:22108   */\n      tag_519\n      jump\t// in\n    tag_570:\n        /* \"--CODEGEN--\":22034:22108   */\n      swap2\n      pop\n        /* \"--CODEGEN--\":22141:22175   */\n      0x234e465450726f787923636865636b4f776e6572733a204241445f5349474e5f\n        /* \"--CODEGEN--\":22137:22138   */\n      0x00\n        /* \"--CODEGEN--\":22132:22135   */\n      dup4\n        /* \"--CODEGEN--\":22128:22139   */\n      add\n        /* \"--CODEGEN--\":22121:22176   */\n      mstore\n        /* \"--CODEGEN--\":22210:22217   */\n      0x434f554e54000000000000000000000000000000000000000000000000000000\n        /* \"--CODEGEN--\":22205:22207   */\n      0x20\n        /* \"--CODEGEN--\":22200:22203   */\n      dup4\n        /* \"--CODEGEN--\":22196:22208   */\n      add\n        /* \"--CODEGEN--\":22189:22218   */\n      mstore\n        /* \"--CODEGEN--\":22246:22248   */\n      0x40\n        /* \"--CODEGEN--\":22241:22244   */\n      dup3\n        /* \"--CODEGEN--\":22237:22249   */\n      add\n        /* \"--CODEGEN--\":22230:22249   */\n      swap1\n      pop\n        /* \"--CODEGEN--\":22027:22255   */\n      swap2\n      swap1\n      pop\n      jump\t// out\n        /* \"--CODEGEN--\":22318:23082   */\n    tag_571:\n      0x00\n        /* \"--CODEGEN--\":22467:22471   */\n      0x60\n        /* \"--CODEGEN--\":22462:22465   */\n      dup4\n        /* \"--CODEGEN--\":22458:22472   */\n      add\n        /* \"--CODEGEN--\":22554:22558   */\n      0x00\n        /* \"--CODEGEN--\":22547:22552   */\n      dup4\n        /* \"--CODEGEN--\":22543:22559   */\n      add\n        /* \"--CODEGEN--\":22537:22560   */\n      mload\n        /* \"--CODEGEN--\":22566:22629   */\n      tag_573\n        /* \"--CODEGEN--\":22623:22627   */\n      0x00\n        /* \"--CODEGEN--\":22618:22621   */\n      dup7\n        /* \"--CODEGEN--\":22614:22628   */\n      add\n        /* \"--CODEGEN--\":22600:22612   */\n      dup3\n        /* \"--CODEGEN--\":22566:22629   */\n      tag_574\n      jump\t// in\n    tag_573:\n        /* \"--CODEGEN--\":22487:22635   */\n      pop\n        /* \"--CODEGEN--\":22713:22717   */\n      0x20\n        /* \"--CODEGEN--\":22706:22711   */\n      dup4\n        /* \"--CODEGEN--\":22702:22718   */\n      add\n        /* \"--CODEGEN--\":22696:22719   */\n      mload\n        /* \"--CODEGEN--\":22725:22788   */\n      tag_575\n        /* \"--CODEGEN--\":22782:22786   */\n      0x20\n        /* \"--CODEGEN--\":22777:22780   */\n      dup7\n        /* \"--CODEGEN--\":22773:22787   */\n      add\n        /* \"--CODEGEN--\":22759:22771   */\n      dup3\n        /* \"--CODEGEN--\":22725:22788   */\n      tag_574\n      jump\t// in\n    tag_575:\n        /* \"--CODEGEN--\":22645:22794   */\n      pop\n        /* \"--CODEGEN--\":22869:22873   */\n      0x40\n        /* \"--CODEGEN--\":22862:22867   */\n      dup4\n        /* \"--CODEGEN--\":22858:22874   */\n      add\n        /* \"--CODEGEN--\":22852:22875   */\n      mload\n        /* \"--CODEGEN--\":22921:22924   */\n      dup5\n        /* \"--CODEGEN--\":22915:22919   */\n      dup3\n        /* \"--CODEGEN--\":22911:22925   */\n      sub\n        /* \"--CODEGEN--\":22904:22908   */\n      0x40\n        /* \"--CODEGEN--\":22899:22902   */\n      dup7\n        /* \"--CODEGEN--\":22895:22909   */\n      add\n        /* \"--CODEGEN--\":22888:22926   */\n      mstore\n        /* \"--CODEGEN--\":22941:23044   */\n      tag_576\n        /* \"--CODEGEN--\":23039:23043   */\n      dup3\n        /* \"--CODEGEN--\":23025:23037   */\n      dup3\n        /* \"--CODEGEN--\":22941:23044   */\n      tag_465\n      jump\t// in\n    tag_576:\n        /* \"--CODEGEN--\":22933:23044   */\n      swap2\n      pop\n        /* \"--CODEGEN--\":22804:23056   */\n      pop\n        /* \"--CODEGEN--\":23073:23077   */\n      dup1\n        /* \"--CODEGEN--\":23066:23077   */\n      swap2\n      pop\n        /* \"--CODEGEN--\":22440:23082   */\n      pop\n      swap3\n      swap2\n      pop\n      pop\n      jump\t// out\n        /* \"--CODEGEN--\":23089:23192   */\n    tag_574:\n        /* \"--CODEGEN--\":23162:23186   */\n      tag_578\n        /* \"--CODEGEN--\":23180:23185   */\n      dup2\n        /* \"--CODEGEN--\":23162:23186   */\n      tag_579\n      jump\t// in\n    tag_578:\n        /* \"--CODEGEN--\":23157:23160   */\n      dup3\n        /* \"--CODEGEN--\":23150:23187   */\n      mstore\n        /* \"--CODEGEN--\":23144:23192   */\n      pop\n      pop\n      jump\t// out\n        /* \"--CODEGEN--\":23199:23312   */\n    tag_580:\n        /* \"--CODEGEN--\":23282:23306   */\n      tag_582\n        /* \"--CODEGEN--\":23300:23305   */\n      dup2\n        /* \"--CODEGEN--\":23282:23306   */\n      tag_579\n      jump\t// in\n    tag_582:\n        /* \"--CODEGEN--\":23277:23280   */\n      dup3\n        /* \"--CODEGEN--\":23270:23307   */\n      mstore\n        /* \"--CODEGEN--\":23264:23312   */\n      pop\n      pop\n      jump\t// out\n        /* \"--CODEGEN--\":23319:23426   */\n    tag_583:\n        /* \"--CODEGEN--\":23398:23420   */\n      tag_585\n        /* \"--CODEGEN--\":23414:23419   */\n      dup2\n        /* \"--CODEGEN--\":23398:23420   */\n      tag_586\n      jump\t// in\n    tag_585:\n        /* \"--CODEGEN--\":23393:23396   */\n      dup3\n        /* \"--CODEGEN--\":23386:23421   */\n      mstore\n        /* \"--CODEGEN--\":23380:23426   */\n      pop\n      pop\n      jump\t// out\n        /* \"--CODEGEN--\":23433:23655   */\n    tag_62:\n      0x00\n        /* \"--CODEGEN--\":23560:23562   */\n      0x20\n        /* \"--CODEGEN--\":23549:23558   */\n      dup3\n        /* \"--CODEGEN--\":23545:23563   */\n      add\n        /* \"--CODEGEN--\":23537:23563   */\n      swap1\n      pop\n        /* \"--CODEGEN--\":23574:23645   */\n      tag_588\n        /* \"--CODEGEN--\":23642:23643   */\n      0x00\n        /* \"--CODEGEN--\":23631:23640   */\n      dup4\n        /* \"--CODEGEN--\":23627:23644   */\n      add\n        /* \"--CODEGEN--\":23618:23624   */\n      dup5\n        /* \"--CODEGEN--\":23574:23645   */\n      tag_462\n      jump\t// in\n    tag_588:\n        /* \"--CODEGEN--\":23531:23655   */\n      swap3\n      swap2\n      pop\n      pop\n      jump\t// out\n        /* \"--CODEGEN--\":23662:24414   */\n    tag_209:\n      0x00\n        /* \"--CODEGEN--\":23919:23922   */\n      0xa0\n        /* \"--CODEGEN--\":23908:23917   */\n      dup3\n        /* \"--CODEGEN--\":23904:23923   */\n      add\n        /* \"--CODEGEN--\":23896:23923   */\n      swap1\n      pop\n        /* \"--CODEGEN--\":23934:24005   */\n      tag_590\n        /* \"--CODEGEN--\":24002:24003   */\n      0x00\n        /* \"--CODEGEN--\":23991:24000   */\n      dup4\n        /* \"--CODEGEN--\":23987:24004   */\n      add\n        /* \"--CODEGEN--\":23978:23984   */\n      dup9\n        /* \"--CODEGEN--\":23934:24005   */\n      tag_462\n      jump\t// in\n    tag_590:\n        /* \"--CODEGEN--\":24016:24088   */\n      tag_591\n        /* \"--CODEGEN--\":24084:24086   */\n      0x20\n        /* \"--CODEGEN--\":24073:24082   */\n      dup4\n        /* \"--CODEGEN--\":24069:24087   */\n      add\n        /* \"--CODEGEN--\":24060:24066   */\n      dup8\n        /* \"--CODEGEN--\":24016:24088   */\n      tag_462\n      jump\t// in\n    tag_591:\n        /* \"--CODEGEN--\":24099:24171   */\n      tag_592\n        /* \"--CODEGEN--\":24167:24169   */\n      0x40\n        /* \"--CODEGEN--\":24156:24165   */\n      dup4\n        /* \"--CODEGEN--\":24152:24170   */\n      add\n        /* \"--CODEGEN--\":24143:24149   */\n      dup7\n        /* \"--CODEGEN--\":24099:24171   */\n      tag_580\n      jump\t// in\n    tag_592:\n        /* \"--CODEGEN--\":24182:24254   */\n      tag_593\n        /* \"--CODEGEN--\":24250:24252   */\n      0x60\n        /* \"--CODEGEN--\":24239:24248   */\n      dup4\n        /* \"--CODEGEN--\":24235:24253   */\n      add\n        /* \"--CODEGEN--\":24226:24232   */\n      dup6\n        /* \"--CODEGEN--\":24182:24254   */\n      tag_580\n      jump\t// in\n    tag_593:\n        /* \"--CODEGEN--\":24303:24312   */\n      dup2\n        /* \"--CODEGEN--\":24297:24301   */\n      dup2\n        /* \"--CODEGEN--\":24293:24313   */\n      sub\n        /* \"--CODEGEN--\":24287:24290   */\n      0x80\n        /* \"--CODEGEN--\":24276:24285   */\n      dup4\n        /* \"--CODEGEN--\":24272:24291   */\n      add\n        /* \"--CODEGEN--\":24265:24314   */\n      mstore\n        /* \"--CODEGEN--\":24328:24404   */\n      tag_594\n        /* \"--CODEGEN--\":24399:24403   */\n      dup2\n        /* \"--CODEGEN--\":24390:24396   */\n      dup5\n        /* \"--CODEGEN--\":24328:24404   */\n      tag_502\n      jump\t// in\n    tag_594:\n        /* \"--CODEGEN--\":24320:24404   */\n      swap1\n      pop\n        /* \"--CODEGEN--\":23890:24414   */\n      swap7\n      swap6\n      pop\n      pop\n      pop\n      pop\n      pop\n      pop\n      jump\t// out\n        /* \"--CODEGEN--\":24421:24881   */\n    tag_280:\n      0x00\n        /* \"--CODEGEN--\":24612:24614   */\n      0x60\n        /* \"--CODEGEN--\":24601:24610   */\n      dup3\n        /* \"--CODEGEN--\":24597:24615   */\n      add\n        /* \"--CODEGEN--\":24589:24615   */\n      swap1\n      pop\n        /* \"--CODEGEN--\":24626:24697   */\n      tag_596\n        /* \"--CODEGEN--\":24694:24695   */\n      0x00\n        /* \"--CODEGEN--\":24683:24692   */\n      dup4\n        /* \"--CODEGEN--\":24679:24696   */\n      add\n        /* \"--CODEGEN--\":24670:24676   */\n      dup7\n        /* \"--CODEGEN--\":24626:24697   */\n      tag_462\n      jump\t// in\n    tag_596:\n        /* \"--CODEGEN--\":24708:24788   */\n      tag_597\n        /* \"--CODEGEN--\":24784:24786   */\n      0x20\n        /* \"--CODEGEN--\":24773:24782   */\n      dup4\n        /* \"--CODEGEN--\":24769:24787   */\n      add\n        /* \"--CODEGEN--\":24760:24766   */\n      dup6\n        /* \"--CODEGEN--\":24708:24788   */\n      tag_512\n      jump\t// in\n    tag_597:\n        /* \"--CODEGEN--\":24799:24871   */\n      tag_598\n        /* \"--CODEGEN--\":24867:24869   */\n      0x40\n        /* \"--CODEGEN--\":24856:24865   */\n      dup4\n        /* \"--CODEGEN--\":24852:24870   */\n      add\n        /* \"--CODEGEN--\":24843:24849   */\n      dup5\n        /* \"--CODEGEN--\":24799:24871   */\n      tag_580\n      jump\t// in\n    tag_598:\n        /* \"--CODEGEN--\":24583:24881   */\n      swap5\n      swap4\n      pop\n      pop\n      pop\n      pop\n      jump\t// out\n        /* \"--CODEGEN--\":24888:25221   */\n    tag_266:\n      0x00\n        /* \"--CODEGEN--\":25043:25045   */\n      0x40\n        /* \"--CODEGEN--\":25032:25041   */\n      dup3\n        /* \"--CODEGEN--\":25028:25046   */\n      add\n        /* \"--CODEGEN--\":25020:25046   */\n      swap1\n      pop\n        /* \"--CODEGEN--\":25057:25128   */\n      tag_600\n        /* \"--CODEGEN--\":25125:25126   */\n      0x00\n        /* \"--CODEGEN--\":25114:25123   */\n      dup4\n        /* \"--CODEGEN--\":25110:25127   */\n      add\n        /* \"--CODEGEN--\":25101:25107   */\n      dup6\n        /* \"--CODEGEN--\":25057:25128   */\n      tag_462\n      jump\t// in\n    tag_600:\n        /* \"--CODEGEN--\":25139:25211   */\n      tag_601\n        /* \"--CODEGEN--\":25207:25209   */\n      0x20\n        /* \"--CODEGEN--\":25196:25205   */\n      dup4\n        /* \"--CODEGEN--\":25192:25210   */\n      add\n        /* \"--CODEGEN--\":25183:25189   */\n      dup5\n        /* \"--CODEGEN--\":25139:25211   */\n      tag_580\n      jump\t// in\n    tag_601:\n        /* \"--CODEGEN--\":25014:25221   */\n      swap4\n      swap3\n      pop\n      pop\n      pop\n      jump\t// out\n        /* \"--CODEGEN--\":25228:26464   */\n    tag_84:\n      0x00\n        /* \"--CODEGEN--\":25619:25622   */\n      0x0100\n        /* \"--CODEGEN--\":25608:25617   */\n      dup3\n        /* \"--CODEGEN--\":25604:25623   */\n      add\n        /* \"--CODEGEN--\":25596:25623   */\n      swap1\n      pop\n        /* \"--CODEGEN--\":25634:25705   */\n      tag_603\n        /* \"--CODEGEN--\":25702:25703   */\n      0x00\n        /* \"--CODEGEN--\":25691:25700   */\n      dup4\n        /* \"--CODEGEN--\":25687:25704   */\n      add\n        /* \"--CODEGEN--\":25678:25684   */\n      dup12\n        /* \"--CODEGEN--\":25634:25705   */\n      tag_462\n      jump\t// in\n    tag_603:\n        /* \"--CODEGEN--\":25716:25788   */\n      tag_604\n        /* \"--CODEGEN--\":25784:25786   */\n      0x20\n        /* \"--CODEGEN--\":25773:25782   */\n      dup4\n        /* \"--CODEGEN--\":25769:25787   */\n      add\n        /* \"--CODEGEN--\":25760:25766   */\n      dup11\n        /* \"--CODEGEN--\":25716:25788   */\n      tag_580\n      jump\t// in\n    tag_604:\n        /* \"--CODEGEN--\":25799:25871   */\n      tag_605\n        /* \"--CODEGEN--\":25867:25869   */\n      0x40\n        /* \"--CODEGEN--\":25856:25865   */\n      dup4\n        /* \"--CODEGEN--\":25852:25870   */\n      add\n        /* \"--CODEGEN--\":25843:25849   */\n      dup10\n        /* \"--CODEGEN--\":25799:25871   */\n      tag_462\n      jump\t// in\n    tag_605:\n        /* \"--CODEGEN--\":25919:25928   */\n      dup2\n        /* \"--CODEGEN--\":25913:25917   */\n      dup2\n        /* \"--CODEGEN--\":25909:25929   */\n      sub\n        /* \"--CODEGEN--\":25904:25906   */\n      0x60\n        /* \"--CODEGEN--\":25893:25902   */\n      dup4\n        /* \"--CODEGEN--\":25889:25907   */\n      add\n        /* \"--CODEGEN--\":25882:25930   */\n      mstore\n        /* \"--CODEGEN--\":25944:26052   */\n      tag_606\n        /* \"--CODEGEN--\":26047:26051   */\n      dup2\n        /* \"--CODEGEN--\":26038:26044   */\n      dup9\n        /* \"--CODEGEN--\":25944:26052   */\n      tag_479\n      jump\t// in\n    tag_606:\n        /* \"--CODEGEN--\":25936:26052   */\n      swap1\n      pop\n        /* \"--CODEGEN--\":26063:26136   */\n      tag_607\n        /* \"--CODEGEN--\":26131:26134   */\n      0x80\n        /* \"--CODEGEN--\":26120:26129   */\n      dup4\n        /* \"--CODEGEN--\":26116:26135   */\n      add\n        /* \"--CODEGEN--\":26107:26113   */\n      dup8\n        /* \"--CODEGEN--\":26063:26136   */\n      tag_580\n      jump\t// in\n    tag_607:\n        /* \"--CODEGEN--\":26185:26194   */\n      dup2\n        /* \"--CODEGEN--\":26179:26183   */\n      dup2\n        /* \"--CODEGEN--\":26175:26195   */\n      sub\n        /* \"--CODEGEN--\":26169:26172   */\n      0xa0\n        /* \"--CODEGEN--\":26158:26167   */\n      dup4\n        /* \"--CODEGEN--\":26154:26173   */\n      add\n        /* \"--CODEGEN--\":26147:26196   */\n      mstore\n        /* \"--CODEGEN--\":26210:26286   */\n      tag_608\n        /* \"--CODEGEN--\":26281:26285   */\n      dup2\n        /* \"--CODEGEN--\":26272:26278   */\n      dup7\n        /* \"--CODEGEN--\":26210:26286   */\n      tag_502\n      jump\t// in\n    tag_608:\n        /* \"--CODEGEN--\":26202:26286   */\n      swap1\n      pop\n        /* \"--CODEGEN--\":26297:26370   */\n      tag_609\n        /* \"--CODEGEN--\":26365:26368   */\n      0xc0\n        /* \"--CODEGEN--\":26354:26363   */\n      dup4\n        /* \"--CODEGEN--\":26350:26369   */\n      add\n        /* \"--CODEGEN--\":26341:26347   */\n      dup6\n        /* \"--CODEGEN--\":26297:26370   */\n      tag_580\n      jump\t// in\n    tag_609:\n        /* \"--CODEGEN--\":26381:26454   */\n      tag_610\n        /* \"--CODEGEN--\":26449:26452   */\n      0xe0\n        /* \"--CODEGEN--\":26438:26447   */\n      dup4\n        /* \"--CODEGEN--\":26434:26453   */\n      add\n        /* \"--CODEGEN--\":26425:26431   */\n      dup5\n        /* \"--CODEGEN--\":26381:26454   */\n      tag_580\n      jump\t// in\n    tag_610:\n        /* \"--CODEGEN--\":25590:26464   */\n      swap10\n      swap9\n      pop\n      pop\n      pop\n      pop\n      pop\n      pop\n      pop\n      pop\n      pop\n      jump\t// out\n        /* \"--CODEGEN--\":26471:26931   */\n    tag_218:\n      0x00\n        /* \"--CODEGEN--\":26662:26664   */\n      0x60\n        /* \"--CODEGEN--\":26651:26660   */\n      dup3\n        /* \"--CODEGEN--\":26647:26665   */\n      add\n        /* \"--CODEGEN--\":26639:26665   */\n      swap1\n      pop\n        /* \"--CODEGEN--\":26676:26747   */\n      tag_612\n        /* \"--CODEGEN--\":26744:26745   */\n      0x00\n        /* \"--CODEGEN--\":26733:26742   */\n      dup4\n        /* \"--CODEGEN--\":26729:26746   */\n      add\n        /* \"--CODEGEN--\":26720:26726   */\n      dup7\n        /* \"--CODEGEN--\":26676:26747   */\n      tag_462\n      jump\t// in\n    tag_612:\n        /* \"--CODEGEN--\":26758:26830   */\n      tag_613\n        /* \"--CODEGEN--\":26826:26828   */\n      0x20\n        /* \"--CODEGEN--\":26815:26824   */\n      dup4\n        /* \"--CODEGEN--\":26811:26829   */\n      add\n        /* \"--CODEGEN--\":26802:26808   */\n      dup6\n        /* \"--CODEGEN--\":26758:26830   */\n      tag_580\n      jump\t// in\n    tag_613:\n        /* \"--CODEGEN--\":26841:26921   */\n      tag_614\n        /* \"--CODEGEN--\":26917:26919   */\n      0x40\n        /* \"--CODEGEN--\":26906:26915   */\n      dup4\n        /* \"--CODEGEN--\":26902:26920   */\n      add\n        /* \"--CODEGEN--\":26893:26899   */\n      dup5\n        /* \"--CODEGEN--\":26841:26921   */\n      tag_512\n      jump\t// in\n    tag_614:\n        /* \"--CODEGEN--\":26633:26931   */\n      swap5\n      swap4\n      pop\n      pop\n      pop\n      pop\n      jump\t// out\n        /* \"--CODEGEN--\":26938:27382   */\n    tag_242:\n      0x00\n        /* \"--CODEGEN--\":27121:27123   */\n      0x60\n        /* \"--CODEGEN--\":27110:27119   */\n      dup3\n        /* \"--CODEGEN--\":27106:27124   */\n      add\n        /* \"--CODEGEN--\":27098:27124   */\n      swap1\n      pop\n        /* \"--CODEGEN--\":27135:27206   */\n      tag_616\n        /* \"--CODEGEN--\":27203:27204   */\n      0x00\n        /* \"--CODEGEN--\":27192:27201   */\n      dup4\n        /* \"--CODEGEN--\":27188:27205   */\n      add\n        /* \"--CODEGEN--\":27179:27185   */\n      dup7\n        /* \"--CODEGEN--\":27135:27206   */\n      tag_462\n      jump\t// in\n    tag_616:\n        /* \"--CODEGEN--\":27217:27289   */\n      tag_617\n        /* \"--CODEGEN--\":27285:27287   */\n      0x20\n        /* \"--CODEGEN--\":27274:27283   */\n      dup4\n        /* \"--CODEGEN--\":27270:27288   */\n      add\n        /* \"--CODEGEN--\":27261:27267   */\n      dup6\n        /* \"--CODEGEN--\":27217:27289   */\n      tag_580\n      jump\t// in\n    tag_617:\n        /* \"--CODEGEN--\":27300:27372   */\n      tag_618\n        /* \"--CODEGEN--\":27368:27370   */\n      0x40\n        /* \"--CODEGEN--\":27357:27366   */\n      dup4\n        /* \"--CODEGEN--\":27353:27371   */\n      add\n        /* \"--CODEGEN--\":27344:27350   */\n      dup5\n        /* \"--CODEGEN--\":27300:27372   */\n      tag_580\n      jump\t// in\n    tag_618:\n        /* \"--CODEGEN--\":27092:27382   */\n      swap5\n      swap4\n      pop\n      pop\n      pop\n      pop\n      jump\t// out\n        /* \"--CODEGEN--\":27389:27599   */\n    tag_25:\n      0x00\n        /* \"--CODEGEN--\":27510:27512   */\n      0x20\n        /* \"--CODEGEN--\":27499:27508   */\n      dup3\n        /* \"--CODEGEN--\":27495:27513   */\n      add\n        /* \"--CODEGEN--\":27487:27513   */\n      swap1\n      pop\n        /* \"--CODEGEN--\":27524:27589   */\n      tag_620\n        /* \"--CODEGEN--\":27586:27587   */\n      0x00\n        /* \"--CODEGEN--\":27575:27584   */\n      dup4\n        /* \"--CODEGEN--\":27571:27588   */\n      add\n        /* \"--CODEGEN--\":27562:27568   */\n      dup5\n        /* \"--CODEGEN--\":27524:27589   */\n      tag_490\n      jump\t// in\n    tag_620:\n        /* \"--CODEGEN--\":27481:27599   */\n      swap3\n      swap2\n      pop\n      pop\n      jump\t// out\n        /* \"--CODEGEN--\":27606:28154   */\n    tag_165:\n      0x00\n        /* \"--CODEGEN--\":27813:27816   */\n      0x80\n        /* \"--CODEGEN--\":27802:27811   */\n      dup3\n        /* \"--CODEGEN--\":27798:27817   */\n      add\n        /* \"--CODEGEN--\":27790:27817   */\n      swap1\n      pop\n        /* \"--CODEGEN--\":27828:27899   */\n      tag_622\n        /* \"--CODEGEN--\":27896:27897   */\n      0x00\n        /* \"--CODEGEN--\":27885:27894   */\n      dup4\n        /* \"--CODEGEN--\":27881:27898   */\n      add\n        /* \"--CODEGEN--\":27872:27878   */\n      dup8\n        /* \"--CODEGEN--\":27828:27899   */\n      tag_494\n      jump\t// in\n    tag_622:\n        /* \"--CODEGEN--\":27910:27978   */\n      tag_623\n        /* \"--CODEGEN--\":27974:27976   */\n      0x20\n        /* \"--CODEGEN--\":27963:27972   */\n      dup4\n        /* \"--CODEGEN--\":27959:27977   */\n      add\n        /* \"--CODEGEN--\":27950:27956   */\n      dup7\n        /* \"--CODEGEN--\":27910:27978   */\n      tag_583\n      jump\t// in\n    tag_623:\n        /* \"--CODEGEN--\":27989:28061   */\n      tag_624\n        /* \"--CODEGEN--\":28057:28059   */\n      0x40\n        /* \"--CODEGEN--\":28046:28055   */\n      dup4\n        /* \"--CODEGEN--\":28042:28060   */\n      add\n        /* \"--CODEGEN--\":28033:28039   */\n      dup6\n        /* \"--CODEGEN--\":27989:28061   */\n      tag_494\n      jump\t// in\n    tag_624:\n        /* \"--CODEGEN--\":28072:28144   */\n      tag_625\n        /* \"--CODEGEN--\":28140:28142   */\n      0x60\n        /* \"--CODEGEN--\":28129:28138   */\n      dup4\n        /* \"--CODEGEN--\":28125:28143   */\n      add\n        /* \"--CODEGEN--\":28116:28122   */\n      dup5\n        /* \"--CODEGEN--\":28072:28144   */\n      tag_494\n      jump\t// in\n    tag_625:\n        /* \"--CODEGEN--\":27784:28154   */\n      swap6\n      swap5\n      pop\n      pop\n      pop\n      pop\n      pop\n      jump\t// out\n        /* \"--CODEGEN--\":28161:28379   */\n    tag_71:\n      0x00\n        /* \"--CODEGEN--\":28286:28288   */\n      0x20\n        /* \"--CODEGEN--\":28275:28284   */\n      dup3\n        /* \"--CODEGEN--\":28271:28289   */\n      add\n        /* \"--CODEGEN--\":28263:28289   */\n      swap1\n      pop\n        /* \"--CODEGEN--\":28300:28369   */\n      tag_627\n        /* \"--CODEGEN--\":28366:28367   */\n      0x00\n        /* \"--CODEGEN--\":28355:28364   */\n      dup4\n        /* \"--CODEGEN--\":28351:28368   */\n      add\n        /* \"--CODEGEN--\":28342:28348   */\n      dup5\n        /* \"--CODEGEN--\":28300:28369   */\n      tag_498\n      jump\t// in\n    tag_627:\n        /* \"--CODEGEN--\":28257:28379   */\n      swap3\n      swap2\n      pop\n      pop\n      jump\t// out\n        /* \"--CODEGEN--\":28386:28692   */\n    tag_31:\n      0x00\n        /* \"--CODEGEN--\":28531:28533   */\n      0x20\n        /* \"--CODEGEN--\":28520:28529   */\n      dup3\n        /* \"--CODEGEN--\":28516:28534   */\n      add\n        /* \"--CODEGEN--\":28508:28534   */\n      swap1\n      pop\n        /* \"--CODEGEN--\":28581:28590   */\n      dup2\n        /* \"--CODEGEN--\":28575:28579   */\n      dup2\n        /* \"--CODEGEN--\":28571:28591   */\n      sub\n        /* \"--CODEGEN--\":28567:28568   */\n      0x00\n        /* \"--CODEGEN--\":28556:28565   */\n      dup4\n        /* \"--CODEGEN--\":28552:28569   */\n      add\n        /* \"--CODEGEN--\":28545:28592   */\n      mstore\n        /* \"--CODEGEN--\":28606:28682   */\n      tag_629\n        /* \"--CODEGEN--\":28677:28681   */\n      dup2\n        /* \"--CODEGEN--\":28668:28674   */\n      dup5\n        /* \"--CODEGEN--\":28606:28682   */\n      tag_502\n      jump\t// in\n    tag_629:\n        /* \"--CODEGEN--\":28598:28682   */\n      swap1\n      pop\n        /* \"--CODEGEN--\":28502:28692   */\n      swap3\n      swap2\n      pop\n      pop\n      jump\t// out\n        /* \"--CODEGEN--\":28699:29115   */\n    tag_133:\n      0x00\n        /* \"--CODEGEN--\":28899:28901   */\n      0x20\n        /* \"--CODEGEN--\":28888:28897   */\n      dup3\n        /* \"--CODEGEN--\":28884:28902   */\n      add\n        /* \"--CODEGEN--\":28876:28902   */\n      swap1\n      pop\n        /* \"--CODEGEN--\":28949:28958   */\n      dup2\n        /* \"--CODEGEN--\":28943:28947   */\n      dup2\n        /* \"--CODEGEN--\":28939:28959   */\n      sub\n        /* \"--CODEGEN--\":28935:28936   */\n      0x00\n        /* \"--CODEGEN--\":28924:28933   */\n      dup4\n        /* \"--CODEGEN--\":28920:28937   */\n      add\n        /* \"--CODEGEN--\":28913:28960   */\n      mstore\n        /* \"--CODEGEN--\":28974:29105   */\n      tag_631\n        /* \"--CODEGEN--\":29100:29104   */\n      dup2\n        /* \"--CODEGEN--\":28974:29105   */\n      tag_516\n      jump\t// in\n    tag_631:\n        /* \"--CODEGEN--\":28966:29105   */\n      swap1\n      pop\n        /* \"--CODEGEN--\":28870:29115   */\n      swap2\n      swap1\n      pop\n      jump\t// out\n        /* \"--CODEGEN--\":29122:29538   */\n    tag_173:\n      0x00\n        /* \"--CODEGEN--\":29322:29324   */\n      0x20\n        /* \"--CODEGEN--\":29311:29320   */\n      dup3\n        /* \"--CODEGEN--\":29307:29325   */\n      add\n        /* \"--CODEGEN--\":29299:29325   */\n      swap1\n      pop\n        /* \"--CODEGEN--\":29372:29381   */\n      dup2\n        /* \"--CODEGEN--\":29366:29370   */\n      dup2\n        /* \"--CODEGEN--\":29362:29382   */\n      sub\n        /* \"--CODEGEN--\":29358:29359   */\n      0x00\n        /* \"--CODEGEN--\":29347:29356   */\n      dup4\n        /* \"--CODEGEN--\":29343:29360   */\n      add\n        /* \"--CODEGEN--\":29336:29383   */\n      mstore\n        /* \"--CODEGEN--\":29397:29528   */\n      tag_633\n        /* \"--CODEGEN--\":29523:29527   */\n      dup2\n        /* \"--CODEGEN--\":29397:29528   */\n      tag_520\n      jump\t// in\n    tag_633:\n        /* \"--CODEGEN--\":29389:29528   */\n      swap1\n      pop\n        /* \"--CODEGEN--\":29293:29538   */\n      swap2\n      swap1\n      pop\n      jump\t// out\n        /* \"--CODEGEN--\":29545:29961   */\n    tag_235:\n      0x00\n        /* \"--CODEGEN--\":29745:29747   */\n      0x20\n        /* \"--CODEGEN--\":29734:29743   */\n      dup3\n        /* \"--CODEGEN--\":29730:29748   */\n      add\n        /* \"--CODEGEN--\":29722:29748   */\n      swap1\n      pop\n        /* \"--CODEGEN--\":29795:29804   */\n      dup2\n        /* \"--CODEGEN--\":29789:29793   */\n      dup2\n        /* \"--CODEGEN--\":29785:29805   */\n      sub\n        /* \"--CODEGEN--\":29781:29782   */\n      0x00\n        /* \"--CODEGEN--\":29770:29779   */\n      dup4\n        /* \"--CODEGEN--\":29766:29783   */\n      add\n        /* \"--CODEGEN--\":29759:29806   */\n      mstore\n        /* \"--CODEGEN--\":29820:29951   */\n      tag_635\n        /* \"--CODEGEN--\":29946:29950   */\n      dup2\n        /* \"--CODEGEN--\":29820:29951   */\n      tag_523\n      jump\t// in\n    tag_635:\n        /* \"--CODEGEN--\":29812:29951   */\n      swap1\n      pop\n        /* \"--CODEGEN--\":29716:29961   */\n      swap2\n      swap1\n      pop\n      jump\t// out\n        /* \"--CODEGEN--\":29968:30384   */\n    tag_199:\n      0x00\n        /* \"--CODEGEN--\":30168:30170   */\n      0x20\n        /* \"--CODEGEN--\":30157:30166   */\n      dup3\n        /* \"--CODEGEN--\":30153:30171   */\n      add\n        /* \"--CODEGEN--\":30145:30171   */\n      swap1\n      pop\n        /* \"--CODEGEN--\":30218:30227   */\n      dup2\n        /* \"--CODEGEN--\":30212:30216   */\n      dup2\n        /* \"--CODEGEN--\":30208:30228   */\n      sub\n        /* \"--CODEGEN--\":30204:30205   */\n      0x00\n        /* \"--CODEGEN--\":30193:30202   */\n      dup4\n        /* \"--CODEGEN--\":30189:30206   */\n      add\n        /* \"--CODEGEN--\":30182:30229   */\n      mstore\n        /* \"--CODEGEN--\":30243:30374   */\n      tag_637\n        /* \"--CODEGEN--\":30369:30373   */\n      dup2\n        /* \"--CODEGEN--\":30243:30374   */\n      tag_526\n      jump\t// in\n    tag_637:\n        /* \"--CODEGEN--\":30235:30374   */\n      swap1\n      pop\n        /* \"--CODEGEN--\":30139:30384   */\n      swap2\n      swap1\n      pop\n      jump\t// out\n        /* \"--CODEGEN--\":30391:30807   */\n    tag_207:\n      0x00\n        /* \"--CODEGEN--\":30591:30593   */\n      0x20\n        /* \"--CODEGEN--\":30580:30589   */\n      dup3\n        /* \"--CODEGEN--\":30576:30594   */\n      add\n        /* \"--CODEGEN--\":30568:30594   */\n      swap1\n      pop\n        /* \"--CODEGEN--\":30641:30650   */\n      dup2\n        /* \"--CODEGEN--\":30635:30639   */\n      dup2\n        /* \"--CODEGEN--\":30631:30651   */\n      sub\n        /* \"--CODEGEN--\":30627:30628   */\n      0x00\n        /* \"--CODEGEN--\":30616:30625   */\n      dup4\n        /* \"--CODEGEN--\":30612:30629   */\n      add\n        /* \"--CODEGEN--\":30605:30652   */\n      mstore\n        /* \"--CODEGEN--\":30666:30797   */\n      tag_639\n        /* \"--CODEGEN--\":30792:30796   */\n      dup2\n        /* \"--CODEGEN--\":30666:30797   */\n      tag_529\n      jump\t// in\n    tag_639:\n        /* \"--CODEGEN--\":30658:30797   */\n      swap1\n      pop\n        /* \"--CODEGEN--\":30562:30807   */\n      swap2\n      swap1\n      pop\n      jump\t// out\n        /* \"--CODEGEN--\":30814:31230   */\n    tag_149:\n      0x00\n        /* \"--CODEGEN--\":31014:31016   */\n      0x20\n        /* \"--CODEGEN--\":31003:31012   */\n      dup3\n        /* \"--CODEGEN--\":30999:31017   */\n      add\n        /* \"--CODEGEN--\":30991:31017   */\n      swap1\n      pop\n        /* \"--CODEGEN--\":31064:31073   */\n      dup2\n        /* \"--CODEGEN--\":31058:31062   */\n      dup2\n        /* \"--CODEGEN--\":31054:31074   */\n      sub\n        /* \"--CODEGEN--\":31050:31051   */\n      0x00\n        /* \"--CODEGEN--\":31039:31048   */\n      dup4\n        /* \"--CODEGEN--\":31035:31052   */\n      add\n        /* \"--CODEGEN--\":31028:31075   */\n      mstore\n        /* \"--CODEGEN--\":31089:31220   */\n      tag_641\n        /* \"--CODEGEN--\":31215:31219   */\n      dup2\n        /* \"--CODEGEN--\":31089:31220   */\n      tag_532\n      jump\t// in\n    tag_641:\n        /* \"--CODEGEN--\":31081:31220   */\n      swap1\n      pop\n        /* \"--CODEGEN--\":30985:31230   */\n      swap2\n      swap1\n      pop\n      jump\t// out\n        /* \"--CODEGEN--\":31237:31653   */\n    tag_232:\n      0x00\n        /* \"--CODEGEN--\":31437:31439   */\n      0x20\n        /* \"--CODEGEN--\":31426:31435   */\n      dup3\n        /* \"--CODEGEN--\":31422:31440   */\n      add\n        /* \"--CODEGEN--\":31414:31440   */\n      swap1\n      pop\n        /* \"--CODEGEN--\":31487:31496   */\n      dup2\n        /* \"--CODEGEN--\":31481:31485   */\n      dup2\n        /* \"--CODEGEN--\":31477:31497   */\n      sub\n        /* \"--CODEGEN--\":31473:31474   */\n      0x00\n        /* \"--CODEGEN--\":31462:31471   */\n      dup4\n        /* \"--CODEGEN--\":31458:31475   */\n      add\n        /* \"--CODEGEN--\":31451:31498   */\n      mstore\n        /* \"--CODEGEN--\":31512:31643   */\n      tag_643\n        /* \"--CODEGEN--\":31638:31642   */\n      dup2\n        /* \"--CODEGEN--\":31512:31643   */\n      tag_535\n      jump\t// in\n    tag_643:\n        /* \"--CODEGEN--\":31504:31643   */\n      swap1\n      pop\n        /* \"--CODEGEN--\":31408:31653   */\n      swap2\n      swap1\n      pop\n      jump\t// out\n        /* \"--CODEGEN--\":31660:32076   */\n    tag_143:\n      0x00\n        /* \"--CODEGEN--\":31860:31862   */\n      0x20\n        /* \"--CODEGEN--\":31849:31858   */\n      dup3\n        /* \"--CODEGEN--\":31845:31863   */\n      add\n        /* \"--CODEGEN--\":31837:31863   */\n      swap1\n      pop\n        /* \"--CODEGEN--\":31910:31919   */\n      dup2\n        /* \"--CODEGEN--\":31904:31908   */\n      dup2\n        /* \"--CODEGEN--\":31900:31920   */\n      sub\n        /* \"--CODEGEN--\":31896:31897   */\n      0x00\n        /* \"--CODEGEN--\":31885:31894   */\n      dup4\n        /* \"--CODEGEN--\":31881:31898   */\n      add\n        /* \"--CODEGEN--\":31874:31921   */\n      mstore\n        /* \"--CODEGEN--\":31935:32066   */\n      tag_645\n        /* \"--CODEGEN--\":32061:32065   */\n      dup2\n        /* \"--CODEGEN--\":31935:32066   */\n      tag_538\n      jump\t// in\n    tag_645:\n        /* \"--CODEGEN--\":31927:32066   */\n      swap1\n      pop\n        /* \"--CODEGEN--\":31831:32076   */\n      swap2\n      swap1\n      pop\n      jump\t// out\n        /* \"--CODEGEN--\":32083:32499   */\n    tag_284:\n      0x00\n        /* \"--CODEGEN--\":32283:32285   */\n      0x20\n        /* \"--CODEGEN--\":32272:32281   */\n      dup3\n        /* \"--CODEGEN--\":32268:32286   */\n      add\n        /* \"--CODEGEN--\":32260:32286   */\n      swap1\n      pop\n        /* \"--CODEGEN--\":32333:32342   */\n      dup2\n        /* \"--CODEGEN--\":32327:32331   */\n      dup2\n        /* \"--CODEGEN--\":32323:32343   */\n      sub\n        /* \"--CODEGEN--\":32319:32320   */\n      0x00\n        /* \"--CODEGEN--\":32308:32317   */\n      dup4\n        /* \"--CODEGEN--\":32304:32321   */\n      add\n        /* \"--CODEGEN--\":32297:32344   */\n      mstore\n        /* \"--CODEGEN--\":32358:32489   */\n      tag_647\n        /* \"--CODEGEN--\":32484:32488   */\n      dup2\n        /* \"--CODEGEN--\":32358:32489   */\n      tag_541\n      jump\t// in\n    tag_647:\n        /* \"--CODEGEN--\":32350:32489   */\n      swap1\n      pop\n        /* \"--CODEGEN--\":32254:32499   */\n      swap2\n      swap1\n      pop\n      jump\t// out\n        /* \"--CODEGEN--\":32506:32922   */\n    tag_263:\n      0x00\n        /* \"--CODEGEN--\":32706:32708   */\n      0x20\n        /* \"--CODEGEN--\":32695:32704   */\n      dup3\n        /* \"--CODEGEN--\":32691:32709   */\n      add\n        /* \"--CODEGEN--\":32683:32709   */\n      swap1\n      pop\n        /* \"--CODEGEN--\":32756:32765   */\n      dup2\n        /* \"--CODEGEN--\":32750:32754   */\n      dup2\n        /* \"--CODEGEN--\":32746:32766   */\n      sub\n        /* \"--CODEGEN--\":32742:32743   */\n      0x00\n        /* \"--CODEGEN--\":32731:32740   */\n      dup4\n        /* \"--CODEGEN--\":32727:32744   */\n      add\n        /* \"--CODEGEN--\":32720:32767   */\n      mstore\n        /* \"--CODEGEN--\":32781:32912   */\n      tag_649\n        /* \"--CODEGEN--\":32907:32911   */\n      dup2\n        /* \"--CODEGEN--\":32781:32912   */\n      tag_544\n      jump\t// in\n    tag_649:\n        /* \"--CODEGEN--\":32773:32912   */\n      swap1\n      pop\n        /* \"--CODEGEN--\":32677:32922   */\n      swap2\n      swap1\n      pop\n      jump\t// out\n        /* \"--CODEGEN--\":32929:33345   */\n    tag_139:\n      0x00\n        /* \"--CODEGEN--\":33129:33131   */\n      0x20\n        /* \"--CODEGEN--\":33118:33127   */\n      dup3\n        /* \"--CODEGEN--\":33114:33132   */\n      add\n        /* \"--CODEGEN--\":33106:33132   */\n      swap1\n      pop\n        /* \"--CODEGEN--\":33179:33188   */\n      dup2\n        /* \"--CODEGEN--\":33173:33177   */\n      dup2\n        /* \"--CODEGEN--\":33169:33189   */\n      sub\n        /* \"--CODEGEN--\":33165:33166   */\n      0x00\n        /* \"--CODEGEN--\":33154:33163   */\n      dup4\n        /* \"--CODEGEN--\":33150:33167   */\n      add\n        /* \"--CODEGEN--\":33143:33190   */\n      mstore\n        /* \"--CODEGEN--\":33204:33335   */\n      tag_651\n        /* \"--CODEGEN--\":33330:33334   */\n      dup2\n        /* \"--CODEGEN--\":33204:33335   */\n      tag_547\n      jump\t// in\n    tag_651:\n        /* \"--CODEGEN--\":33196:33335   */\n      swap1\n      pop\n        /* \"--CODEGEN--\":33100:33345   */\n      swap2\n      swap1\n      pop\n      jump\t// out\n        /* \"--CODEGEN--\":33352:33768   */\n    tag_123:\n      0x00\n        /* \"--CODEGEN--\":33552:33554   */\n      0x20\n        /* \"--CODEGEN--\":33541:33550   */\n      dup3\n        /* \"--CODEGEN--\":33537:33555   */\n      add\n        /* \"--CODEGEN--\":33529:33555   */\n      swap1\n      pop\n        /* \"--CODEGEN--\":33602:33611   */\n      dup2\n        /* \"--CODEGEN--\":33596:33600   */\n      dup2\n        /* \"--CODEGEN--\":33592:33612   */\n      sub\n        /* \"--CODEGEN--\":33588:33589   */\n      0x00\n        /* \"--CODEGEN--\":33577:33586   */\n      dup4\n        /* \"--CODEGEN--\":33573:33590   */\n      add\n        /* \"--CODEGEN--\":33566:33613   */\n      mstore\n        /* \"--CODEGEN--\":33627:33758   */\n      tag_653\n        /* \"--CODEGEN--\":33753:33757   */\n      dup2\n        /* \"--CODEGEN--\":33627:33758   */\n      tag_550\n      jump\t// in\n    tag_653:\n        /* \"--CODEGEN--\":33619:33758   */\n      swap1\n      pop\n        /* \"--CODEGEN--\":33523:33768   */\n      swap2\n      swap1\n      pop\n      jump\t// out\n        /* \"--CODEGEN--\":33775:34191   */\n    tag_93:\n      0x00\n        /* \"--CODEGEN--\":33975:33977   */\n      0x20\n        /* \"--CODEGEN--\":33964:33973   */\n      dup3\n        /* \"--CODEGEN--\":33960:33978   */\n      add\n        /* \"--CODEGEN--\":33952:33978   */\n      swap1\n      pop\n        /* \"--CODEGEN--\":34025:34034   */\n      dup2\n        /* \"--CODEGEN--\":34019:34023   */\n      dup2\n        /* \"--CODEGEN--\":34015:34035   */\n      sub\n        /* \"--CODEGEN--\":34011:34012   */\n      0x00\n        /* \"--CODEGEN--\":34000:34009   */\n      dup4\n        /* \"--CODEGEN--\":33996:34013   */\n      add\n        /* \"--CODEGEN--\":33989:34036   */\n      mstore\n        /* \"--CODEGEN--\":34050:34181   */\n      tag_655\n        /* \"--CODEGEN--\":34176:34180   */\n      dup2\n        /* \"--CODEGEN--\":34050:34181   */\n      tag_553\n      jump\t// in\n    tag_655:\n        /* \"--CODEGEN--\":34042:34181   */\n      swap1\n      pop\n        /* \"--CODEGEN--\":33946:34191   */\n      swap2\n      swap1\n      pop\n      jump\t// out\n        /* \"--CODEGEN--\":34198:34614   */\n    tag_274:\n      0x00\n        /* \"--CODEGEN--\":34398:34400   */\n      0x20\n        /* \"--CODEGEN--\":34387:34396   */\n      dup3\n        /* \"--CODEGEN--\":34383:34401   */\n      add\n        /* \"--CODEGEN--\":34375:34401   */\n      swap1\n      pop\n        /* \"--CODEGEN--\":34448:34457   */\n      dup2\n        /* \"--CODEGEN--\":34442:34446   */\n      dup2\n        /* \"--CODEGEN--\":34438:34458   */\n      sub\n        /* \"--CODEGEN--\":34434:34435   */\n      0x00\n        /* \"--CODEGEN--\":34423:34432   */\n      dup4\n        /* \"--CODEGEN--\":34419:34436   */\n      add\n        /* \"--CODEGEN--\":34412:34459   */\n      mstore\n        /* \"--CODEGEN--\":34473:34604   */\n      tag_657\n        /* \"--CODEGEN--\":34599:34603   */\n      dup2\n        /* \"--CODEGEN--\":34473:34604   */\n      tag_556\n      jump\t// in\n    tag_657:\n        /* \"--CODEGEN--\":34465:34604   */\n      swap1\n      pop\n        /* \"--CODEGEN--\":34369:34614   */\n      swap2\n      swap1\n      pop\n      jump\t// out\n        /* \"--CODEGEN--\":34621:35037   */\n    tag_204:\n      0x00\n        /* \"--CODEGEN--\":34821:34823   */\n      0x20\n        /* \"--CODEGEN--\":34810:34819   */\n      dup3\n        /* \"--CODEGEN--\":34806:34824   */\n      add\n        /* \"--CODEGEN--\":34798:34824   */\n      swap1\n      pop\n        /* \"--CODEGEN--\":34871:34880   */\n      dup2\n        /* \"--CODEGEN--\":34865:34869   */\n      dup2\n        /* \"--CODEGEN--\":34861:34881   */\n      sub\n        /* \"--CODEGEN--\":34857:34858   */\n      0x00\n        /* \"--CODEGEN--\":34846:34855   */\n      dup4\n        /* \"--CODEGEN--\":34842:34859   */\n      add\n        /* \"--CODEGEN--\":34835:34882   */\n      mstore\n        /* \"--CODEGEN--\":34896:35027   */\n      tag_659\n        /* \"--CODEGEN--\":35022:35026   */\n      dup2\n        /* \"--CODEGEN--\":34896:35027   */\n      tag_559\n      jump\t// in\n    tag_659:\n        /* \"--CODEGEN--\":34888:35027   */\n      swap1\n      pop\n        /* \"--CODEGEN--\":34792:35037   */\n      swap2\n      swap1\n      pop\n      jump\t// out\n        /* \"--CODEGEN--\":35044:35460   */\n    tag_254:\n      0x00\n        /* \"--CODEGEN--\":35244:35246   */\n      0x20\n        /* \"--CODEGEN--\":35233:35242   */\n      dup3\n        /* \"--CODEGEN--\":35229:35247   */\n      add\n        /* \"--CODEGEN--\":35221:35247   */\n      swap1\n      pop\n        /* \"--CODEGEN--\":35294:35303   */\n      dup2\n        /* \"--CODEGEN--\":35288:35292   */\n      dup2\n        /* \"--CODEGEN--\":35284:35304   */\n      sub\n        /* \"--CODEGEN--\":35280:35281   */\n      0x00\n        /* \"--CODEGEN--\":35269:35278   */\n      dup4\n        /* \"--CODEGEN--\":35265:35282   */\n      add\n        /* \"--CODEGEN--\":35258:35305   */\n      mstore\n        /* \"--CODEGEN--\":35319:35450   */\n      tag_661\n        /* \"--CODEGEN--\":35445:35449   */\n      dup2\n        /* \"--CODEGEN--\":35319:35450   */\n      tag_562\n      jump\t// in\n    tag_661:\n        /* \"--CODEGEN--\":35311:35450   */\n      swap1\n      pop\n        /* \"--CODEGEN--\":35215:35460   */\n      swap2\n      swap1\n      pop\n      jump\t// out\n        /* \"--CODEGEN--\":35467:35883   */\n    tag_146:\n      0x00\n        /* \"--CODEGEN--\":35667:35669   */\n      0x20\n        /* \"--CODEGEN--\":35656:35665   */\n      dup3\n        /* \"--CODEGEN--\":35652:35670   */\n      add\n        /* \"--CODEGEN--\":35644:35670   */\n      swap1\n      pop\n        /* \"--CODEGEN--\":35717:35726   */\n      dup2\n        /* \"--CODEGEN--\":35711:35715   */\n      dup2\n        /* \"--CODEGEN--\":35707:35727   */\n      sub\n        /* \"--CODEGEN--\":35703:35704   */\n      0x00\n        /* \"--CODEGEN--\":35692:35701   */\n      dup4\n        /* \"--CODEGEN--\":35688:35705   */\n      add\n        /* \"--CODEGEN--\":35681:35728   */\n      mstore\n        /* \"--CODEGEN--\":35742:35873   */\n      tag_663\n        /* \"--CODEGEN--\":35868:35872   */\n      dup2\n        /* \"--CODEGEN--\":35742:35873   */\n      tag_565\n      jump\t// in\n    tag_663:\n        /* \"--CODEGEN--\":35734:35873   */\n      swap1\n      pop\n        /* \"--CODEGEN--\":35638:35883   */\n      swap2\n      swap1\n      pop\n      jump\t// out\n        /* \"--CODEGEN--\":35890:36306   */\n    tag_228:\n      0x00\n        /* \"--CODEGEN--\":36090:36092   */\n      0x20\n        /* \"--CODEGEN--\":36079:36088   */\n      dup3\n        /* \"--CODEGEN--\":36075:36093   */\n      add\n        /* \"--CODEGEN--\":36067:36093   */\n      swap1\n      pop\n        /* \"--CODEGEN--\":36140:36149   */\n      dup2\n        /* \"--CODEGEN--\":36134:36138   */\n      dup2\n        /* \"--CODEGEN--\":36130:36150   */\n      sub\n        /* \"--CODEGEN--\":36126:36127   */\n      0x00\n        /* \"--CODEGEN--\":36115:36124   */\n      dup4\n        /* \"--CODEGEN--\":36111:36128   */\n      add\n        /* \"--CODEGEN--\":36104:36151   */\n      mstore\n        /* \"--CODEGEN--\":36165:36296   */\n      tag_665\n        /* \"--CODEGEN--\":36291:36295   */\n      dup2\n        /* \"--CODEGEN--\":36165:36296   */\n      tag_568\n      jump\t// in\n    tag_665:\n        /* \"--CODEGEN--\":36157:36296   */\n      swap1\n      pop\n        /* \"--CODEGEN--\":36061:36306   */\n      swap2\n      swap1\n      pop\n      jump\t// out\n        /* \"--CODEGEN--\":36313:36679   */\n    tag_58:\n      0x00\n        /* \"--CODEGEN--\":36488:36490   */\n      0x20\n        /* \"--CODEGEN--\":36477:36486   */\n      dup3\n        /* \"--CODEGEN--\":36473:36491   */\n      add\n        /* \"--CODEGEN--\":36465:36491   */\n      swap1\n      pop\n        /* \"--CODEGEN--\":36538:36547   */\n      dup2\n        /* \"--CODEGEN--\":36532:36536   */\n      dup2\n        /* \"--CODEGEN--\":36528:36548   */\n      sub\n        /* \"--CODEGEN--\":36524:36525   */\n      0x00\n        /* \"--CODEGEN--\":36513:36522   */\n      dup4\n        /* \"--CODEGEN--\":36509:36526   */\n      add\n        /* \"--CODEGEN--\":36502:36549   */\n      mstore\n        /* \"--CODEGEN--\":36563:36669   */\n      tag_667\n        /* \"--CODEGEN--\":36664:36668   */\n      dup2\n        /* \"--CODEGEN--\":36655:36661   */\n      dup5\n        /* \"--CODEGEN--\":36563:36669   */\n      tag_571\n      jump\t// in\n    tag_667:\n        /* \"--CODEGEN--\":36555:36669   */\n      swap1\n      pop\n        /* \"--CODEGEN--\":36459:36679   */\n      swap3\n      swap2\n      pop\n      pop\n      jump\t// out\n        /* \"--CODEGEN--\":36686:36908   */\n    tag_51:\n      0x00\n        /* \"--CODEGEN--\":36813:36815   */\n      0x20\n        /* \"--CODEGEN--\":36802:36811   */\n      dup3\n        /* \"--CODEGEN--\":36798:36816   */\n      add\n        /* \"--CODEGEN--\":36790:36816   */\n      swap1\n      pop\n        /* \"--CODEGEN--\":36827:36898   */\n      tag_669\n        /* \"--CODEGEN--\":36895:36896   */\n      0x00\n        /* \"--CODEGEN--\":36884:36893   */\n      dup4\n        /* \"--CODEGEN--\":36880:36897   */\n      add\n        /* \"--CODEGEN--\":36871:36877   */\n      dup5\n        /* \"--CODEGEN--\":36827:36898   */\n      tag_580\n      jump\t// in\n    tag_669:\n        /* \"--CODEGEN--\":36784:36908   */\n      swap3\n      swap2\n      pop\n      pop\n      jump\t// out\n        /* \"--CODEGEN--\":36915:37171   */\n    tag_311:\n      0x00\n        /* \"--CODEGEN--\":36977:36979   */\n      0x40\n        /* \"--CODEGEN--\":36971:36980   */\n      mload\n        /* \"--CODEGEN--\":36961:36980   */\n      swap1\n      pop\n        /* \"--CODEGEN--\":37015:37019   */\n      dup2\n        /* \"--CODEGEN--\":37007:37013   */\n      dup2\n        /* \"--CODEGEN--\":37003:37020   */\n      add\n        /* \"--CODEGEN--\":37114:37120   */\n      dup2\n        /* \"--CODEGEN--\":37102:37112   */\n      dup2\n        /* \"--CODEGEN--\":37099:37121   */\n      lt\n        /* \"--CODEGEN--\":37078:37096   */\n      0xffffffffffffffff\n        /* \"--CODEGEN--\":37066:37076   */\n      dup3\n        /* \"--CODEGEN--\":37063:37097   */\n      gt\n        /* \"--CODEGEN--\":37060:37122   */\n      or\n        /* \"--CODEGEN--\":37057:37059   */\n      iszero\n      tag_671\n      jumpi\n        /* \"--CODEGEN--\":37135:37136   */\n      0x00\n        /* \"--CODEGEN--\":37132:37133   */\n      dup1\n        /* \"--CODEGEN--\":37125:37137   */\n      revert\n        /* \"--CODEGEN--\":37057:37059   */\n    tag_671:\n        /* \"--CODEGEN--\":37155:37165   */\n      dup1\n        /* \"--CODEGEN--\":37151:37153   */\n      0x40\n        /* \"--CODEGEN--\":37144:37166   */\n      mstore\n        /* \"--CODEGEN--\":36955:37171   */\n      pop\n      swap2\n      swap1\n      pop\n      jump\t// out\n        /* \"--CODEGEN--\":37178:37482   */\n    tag_310:\n      0x00\n        /* \"--CODEGEN--\":37337:37355   */\n      0xffffffffffffffff\n        /* \"--CODEGEN--\":37329:37335   */\n      dup3\n        /* \"--CODEGEN--\":37326:37356   */\n      gt\n        /* \"--CODEGEN--\":37323:37325   */\n      iszero\n      tag_673\n      jumpi\n        /* \"--CODEGEN--\":37369:37370   */\n      0x00\n        /* \"--CODEGEN--\":37366:37367   */\n      dup1\n        /* \"--CODEGEN--\":37359:37371   */\n      revert\n        /* \"--CODEGEN--\":37323:37325   */\n    tag_673:\n        /* \"--CODEGEN--\":37404:37408   */\n      0x20\n        /* \"--CODEGEN--\":37396:37402   */\n      dup3\n        /* \"--CODEGEN--\":37392:37409   */\n      mul\n        /* \"--CODEGEN--\":37384:37409   */\n      swap1\n      pop\n        /* \"--CODEGEN--\":37467:37471   */\n      0x20\n        /* \"--CODEGEN--\":37461:37465   */\n      dup2\n        /* \"--CODEGEN--\":37457:37472   */\n      add\n        /* \"--CODEGEN--\":37449:37472   */\n      swap1\n      pop\n        /* \"--CODEGEN--\":37260:37482   */\n      swap2\n      swap1\n      pop\n      jump\t// out\n        /* \"--CODEGEN--\":37489:37820   */\n    tag_322:\n      0x00\n        /* \"--CODEGEN--\":37675:37693   */\n      0xffffffffffffffff\n        /* \"--CODEGEN--\":37667:37673   */\n      dup3\n        /* \"--CODEGEN--\":37664:37694   */\n      gt\n        /* \"--CODEGEN--\":37661:37663   */\n      iszero\n      tag_675\n      jumpi\n        /* \"--CODEGEN--\":37707:37708   */\n      0x00\n        /* \"--CODEGEN--\":37704:37705   */\n      dup1\n        /* \"--CODEGEN--\":37697:37709   */\n      revert\n        /* \"--CODEGEN--\":37661:37663   */\n    tag_675:\n        /* \"--CODEGEN--\":37742:37746   */\n      0x20\n        /* \"--CODEGEN--\":37734:37740   */\n      dup3\n        /* \"--CODEGEN--\":37730:37747   */\n      mul\n        /* \"--CODEGEN--\":37722:37747   */\n      swap1\n      pop\n        /* \"--CODEGEN--\":37805:37809   */\n      0x20\n        /* \"--CODEGEN--\":37799:37803   */\n      dup2\n        /* \"--CODEGEN--\":37795:37810   */\n      add\n        /* \"--CODEGEN--\":37787:37810   */\n      swap1\n      pop\n        /* \"--CODEGEN--\":37598:37820   */\n      swap2\n      swap1\n      pop\n      jump\t// out\n        /* \"--CODEGEN--\":37827:38148   */\n    tag_356:\n      0x00\n        /* \"--CODEGEN--\":37970:37988   */\n      0xffffffffffffffff\n        /* \"--CODEGEN--\":37962:37968   */\n      dup3\n        /* \"--CODEGEN--\":37959:37989   */\n      gt\n        /* \"--CODEGEN--\":37956:37958   */\n      iszero\n      tag_677\n      jumpi\n        /* \"--CODEGEN--\":38002:38003   */\n      0x00\n        /* \"--CODEGEN--\":37999:38000   */\n      dup1\n        /* \"--CODEGEN--\":37992:38004   */\n      revert\n        /* \"--CODEGEN--\":37956:37958   */\n    tag_677:\n        /* \"--CODEGEN--\":38069:38073   */\n      0x1f\n        /* \"--CODEGEN--\":38065:38074   */\n      not\n        /* \"--CODEGEN--\":38058:38062   */\n      0x1f\n        /* \"--CODEGEN--\":38050:38056   */\n      dup4\n        /* \"--CODEGEN--\":38046:38063   */\n      add\n        /* \"--CODEGEN--\":38042:38075   */\n      and\n        /* \"--CODEGEN--\":38034:38075   */\n      swap1\n      pop\n        /* \"--CODEGEN--\":38133:38137   */\n      0x20\n        /* \"--CODEGEN--\":38127:38131   */\n      dup2\n        /* \"--CODEGEN--\":38123:38138   */\n      add\n        /* \"--CODEGEN--\":38115:38138   */\n      swap1\n      pop\n        /* \"--CODEGEN--\":37893:38148   */\n      swap2\n      swap1\n      pop\n      jump\t// out\n        /* \"--CODEGEN--\":38155:38306   */\n    tag_472:\n      0x00\n        /* \"--CODEGEN--\":38241:38244   */\n      dup2\n        /* \"--CODEGEN--\":38233:38244   */\n      swap1\n      pop\n        /* \"--CODEGEN--\":38279:38283   */\n      0x20\n        /* \"--CODEGEN--\":38274:38277   */\n      dup3\n        /* \"--CODEGEN--\":38270:38284   */\n      add\n        /* \"--CODEGEN--\":38262:38284   */\n      swap1\n      pop\n        /* \"--CODEGEN--\":38227:38306   */\n      swap2\n      swap1\n      pop\n      jump\t// out\n        /* \"--CODEGEN--\":38313:38450   */\n    tag_468:\n      0x00\n        /* \"--CODEGEN--\":38422:38427   */\n      dup2\n        /* \"--CODEGEN--\":38416:38428   */\n      mload\n        /* \"--CODEGEN--\":38406:38428   */\n      swap1\n      pop\n        /* \"--CODEGEN--\":38387:38450   */\n      swap2\n      swap1\n      pop\n      jump\t// out\n        /* \"--CODEGEN--\":38457:38578   */\n    tag_505:\n      0x00\n        /* \"--CODEGEN--\":38550:38555   */\n      dup2\n        /* \"--CODEGEN--\":38544:38556   */\n      mload\n        /* \"--CODEGEN--\":38534:38556   */\n      swap1\n      pop\n        /* \"--CODEGEN--\":38515:38578   */\n      swap2\n      swap1\n      pop\n      jump\t// out\n        /* \"--CODEGEN--\":38585:38693   */\n    tag_478:\n      0x00\n        /* \"--CODEGEN--\":38683:38687   */\n      0x20\n        /* \"--CODEGEN--\":38678:38681   */\n      dup3\n        /* \"--CODEGEN--\":38674:38688   */\n      add\n        /* \"--CODEGEN--\":38666:38688   */\n      swap1\n      pop\n        /* \"--CODEGEN--\":38660:38693   */\n      swap2\n      swap1\n      pop\n      jump\t// out\n        /* \"--CODEGEN--\":38701:38869   */\n    tag_470:\n      0x00\n        /* \"--CODEGEN--\":38821:38827   */\n      dup3\n        /* \"--CODEGEN--\":38816:38819   */\n      dup3\n        /* \"--CODEGEN--\":38809:38828   */\n      mstore\n        /* \"--CODEGEN--\":38858:38862   */\n      0x20\n        /* \"--CODEGEN--\":38853:38856   */\n      dup3\n        /* \"--CODEGEN--\":38849:38863   */\n      add\n        /* \"--CODEGEN--\":38834:38863   */\n      swap1\n      pop\n        /* \"--CODEGEN--\":38802:38869   */\n      swap3\n      swap2\n      pop\n      pop\n      jump\t// out\n        /* \"--CODEGEN--\":38878:39056   */\n    tag_483:\n      0x00\n        /* \"--CODEGEN--\":39008:39014   */\n      dup3\n        /* \"--CODEGEN--\":39003:39006   */\n      dup3\n        /* \"--CODEGEN--\":38996:39015   */\n      mstore\n        /* \"--CODEGEN--\":39045:39049   */\n      0x20\n        /* \"--CODEGEN--\":39040:39043   */\n      dup3\n        /* \"--CODEGEN--\":39036:39050   */\n      add\n        /* \"--CODEGEN--\":39021:39050   */\n      swap1\n      pop\n        /* \"--CODEGEN--\":38989:39056   */\n      swap3\n      swap2\n      pop\n      pop\n      jump\t// out\n        /* \"--CODEGEN--\":39065:39227   */\n    tag_507:\n      0x00\n        /* \"--CODEGEN--\":39179:39185   */\n      dup3\n        /* \"--CODEGEN--\":39174:39177   */\n      dup3\n        /* \"--CODEGEN--\":39167:39186   */\n      mstore\n        /* \"--CODEGEN--\":39216:39220   */\n      0x20\n        /* \"--CODEGEN--\":39211:39214   */\n      dup3\n        /* \"--CODEGEN--\":39207:39221   */\n      add\n        /* \"--CODEGEN--\":39192:39221   */\n      swap1\n      pop\n        /* \"--CODEGEN--\":39160:39227   */\n      swap3\n      swap2\n      pop\n      pop\n      jump\t// out\n        /* \"--CODEGEN--\":39236:39399   */\n    tag_519:\n      0x00\n        /* \"--CODEGEN--\":39351:39357   */\n      dup3\n        /* \"--CODEGEN--\":39346:39349   */\n      dup3\n        /* \"--CODEGEN--\":39339:39358   */\n      mstore\n        /* \"--CODEGEN--\":39388:39392   */\n      0x20\n        /* \"--CODEGEN--\":39383:39386   */\n      dup3\n        /* \"--CODEGEN--\":39379:39393   */\n      add\n        /* \"--CODEGEN--\":39364:39393   */\n      swap1\n      pop\n        /* \"--CODEGEN--\":39332:39399   */\n      swap3\n      swap2\n      pop\n      pop\n      jump\t// out\n        /* \"--CODEGEN--\":39407:39498   */\n    tag_461:\n      0x00\n        /* \"--CODEGEN--\":39469:39493   */\n      tag_687\n        /* \"--CODEGEN--\":39487:39492   */\n      dup3\n        /* \"--CODEGEN--\":39469:39493   */\n      tag_688\n      jump\t// in\n    tag_687:\n        /* \"--CODEGEN--\":39458:39493   */\n      swap1\n      pop\n        /* \"--CODEGEN--\":39452:39498   */\n      swap2\n      swap1\n      pop\n      jump\t// out\n        /* \"--CODEGEN--\":39505:39590   */\n    tag_493:\n      0x00\n        /* \"--CODEGEN--\":39578:39583   */\n      dup2\n        /* \"--CODEGEN--\":39571:39584   */\n      iszero\n        /* \"--CODEGEN--\":39564:39585   */\n      iszero\n        /* \"--CODEGEN--\":39553:39585   */\n      swap1\n      pop\n        /* \"--CODEGEN--\":39547:39590   */\n      swap2\n      swap1\n      pop\n      jump\t// out\n        /* \"--CODEGEN--\":39597:39669   */\n    tag_497:\n      0x00\n        /* \"--CODEGEN--\":39659:39664   */\n      dup2\n        /* \"--CODEGEN--\":39648:39664   */\n      swap1\n      pop\n        /* \"--CODEGEN--\":39642:39669   */\n      swap2\n      swap1\n      pop\n      jump\t// out\n        /* \"--CODEGEN--\":39676:39820   */\n    tag_501:\n      0x00\n        /* \"--CODEGEN--\":39748:39814   */\n      0xffffffff00000000000000000000000000000000000000000000000000000000\n        /* \"--CODEGEN--\":39741:39746   */\n      dup3\n        /* \"--CODEGEN--\":39737:39815   */\n      and\n        /* \"--CODEGEN--\":39726:39815   */\n      swap1\n      pop\n        /* \"--CODEGEN--\":39720:39820   */\n      swap2\n      swap1\n      pop\n      jump\t// out\n        /* \"--CODEGEN--\":39827:39948   */\n    tag_688:\n      0x00\n        /* \"--CODEGEN--\":39900:39942   */\n      0xffffffffffffffffffffffffffffffffffffffff\n        /* \"--CODEGEN--\":39893:39898   */\n      dup3\n        /* \"--CODEGEN--\":39889:39943   */\n      and\n        /* \"--CODEGEN--\":39878:39943   */\n      swap1\n      pop\n        /* \"--CODEGEN--\":39872:39948   */\n      swap2\n      swap1\n      pop\n      jump\t// out\n        /* \"--CODEGEN--\":39955:40027   */\n    tag_579:\n      0x00\n        /* \"--CODEGEN--\":40017:40022   */\n      dup2\n        /* \"--CODEGEN--\":40006:40022   */\n      swap1\n      pop\n        /* \"--CODEGEN--\":40000:40027   */\n      swap2\n      swap1\n      pop\n      jump\t// out\n        /* \"--CODEGEN--\":40034:40115   */\n    tag_586:\n      0x00\n        /* \"--CODEGEN--\":40105:40109   */\n      0xff\n        /* \"--CODEGEN--\":40098:40103   */\n      dup3\n        /* \"--CODEGEN--\":40094:40110   */\n      and\n        /* \"--CODEGEN--\":40083:40110   */\n      swap1\n      pop\n        /* \"--CODEGEN--\":40077:40115   */\n      swap2\n      swap1\n      pop\n      jump\t// out\n        /* \"--CODEGEN--\":40122:40238   */\n    tag_515:\n      0x00\n        /* \"--CODEGEN--\":40209:40233   */\n      tag_696\n        /* \"--CODEGEN--\":40227:40232   */\n      dup3\n        /* \"--CODEGEN--\":40209:40233   */\n      tag_579\n      jump\t// in\n    tag_696:\n        /* \"--CODEGEN--\":40196:40233   */\n      swap1\n      pop\n        /* \"--CODEGEN--\":40190:40238   */\n      swap2\n      swap1\n      pop\n      jump\t// out\n        /* \"--CODEGEN--\":40246:40391   */\n    tag_359:\n        /* \"--CODEGEN--\":40327:40333   */\n      dup3\n        /* \"--CODEGEN--\":40322:40325   */\n      dup2\n        /* \"--CODEGEN--\":40317:40320   */\n      dup4\n        /* \"--CODEGEN--\":40304:40334   */\n      calldatacopy\n        /* \"--CODEGEN--\":40383:40384   */\n      0x00\n        /* \"--CODEGEN--\":40374:40380   */\n      dup4\n        /* \"--CODEGEN--\":40369:40372   */\n      dup4\n        /* \"--CODEGEN--\":40365:40381   */\n      add\n        /* \"--CODEGEN--\":40358:40385   */\n      mstore\n        /* \"--CODEGEN--\":40297:40391   */\n      pop\n      pop\n      pop\n      jump\t// out\n        /* \"--CODEGEN--\":40400:40668   */\n    tag_509:\n        /* \"--CODEGEN--\":40465:40466   */\n      0x00\n        /* \"--CODEGEN--\":40472:40573   */\n    tag_699:\n        /* \"--CODEGEN--\":40486:40492   */\n      dup4\n        /* \"--CODEGEN--\":40483:40484   */\n      dup2\n        /* \"--CODEGEN--\":40480:40493   */\n      lt\n        /* \"--CODEGEN--\":40472:40573   */\n      iszero\n      tag_701\n      jumpi\n        /* \"--CODEGEN--\":40562:40563   */\n      dup1\n        /* \"--CODEGEN--\":40557:40560   */\n      dup3\n        /* \"--CODEGEN--\":40553:40564   */\n      add\n        /* \"--CODEGEN--\":40547:40565   */\n      mload\n        /* \"--CODEGEN--\":40543:40544   */\n      dup2\n        /* \"--CODEGEN--\":40538:40541   */\n      dup5\n        /* \"--CODEGEN--\":40534:40545   */\n      add\n        /* \"--CODEGEN--\":40527:40566   */\n      mstore\n        /* \"--CODEGEN--\":40508:40510   */\n      0x20\n        /* \"--CODEGEN--\":40505:40506   */\n      dup2\n        /* \"--CODEGEN--\":40501:40511   */\n      add\n        /* \"--CODEGEN--\":40496:40511   */\n      swap1\n      pop\n        /* \"--CODEGEN--\":40472:40573   */\n      jump(tag_699)\n    tag_701:\n        /* \"--CODEGEN--\":40588:40594   */\n      dup4\n        /* \"--CODEGEN--\":40585:40586   */\n      dup2\n        /* \"--CODEGEN--\":40582:40595   */\n      gt\n        /* \"--CODEGEN--\":40579:40581   */\n      iszero\n      tag_702\n      jumpi\n        /* \"--CODEGEN--\":40653:40654   */\n      0x00\n        /* \"--CODEGEN--\":40644:40650   */\n      dup5\n        /* \"--CODEGEN--\":40639:40642   */\n      dup5\n        /* \"--CODEGEN--\":40635:40651   */\n      add\n        /* \"--CODEGEN--\":40628:40655   */\n      mstore\n        /* \"--CODEGEN--\":40579:40581   */\n    tag_702:\n        /* \"--CODEGEN--\":40449:40668   */\n      pop\n      pop\n      pop\n      pop\n      jump\t// out\n        /* \"--CODEGEN--\":40676:40773   */\n    tag_511:\n      0x00\n        /* \"--CODEGEN--\":40764:40766   */\n      0x1f\n        /* \"--CODEGEN--\":40760:40767   */\n      not\n        /* \"--CODEGEN--\":40755:40757   */\n      0x1f\n        /* \"--CODEGEN--\":40748:40753   */\n      dup4\n        /* \"--CODEGEN--\":40744:40758   */\n      add\n        /* \"--CODEGEN--\":40740:40768   */\n      and\n        /* \"--CODEGEN--\":40730:40768   */\n      swap1\n      pop\n        /* \"--CODEGEN--\":40724:40773   */\n      swap2\n      swap1\n      pop\n      jump\t// out\n        /* \"--CODEGEN--\":40781:40898   */\n    tag_304:\n        /* \"--CODEGEN--\":40850:40874   */\n      tag_705\n        /* \"--CODEGEN--\":40868:40873   */\n      dup2\n        /* \"--CODEGEN--\":40850:40874   */\n      tag_461\n      jump\t// in\n    tag_705:\n        /* \"--CODEGEN--\":40843:40848   */\n      dup2\n        /* \"--CODEGEN--\":40840:40875   */\n      eq\n        /* \"--CODEGEN--\":40830:40832   */\n      tag_706\n      jumpi\n        /* \"--CODEGEN--\":40889:40890   */\n      0x00\n        /* \"--CODEGEN--\":40886:40887   */\n      dup1\n        /* \"--CODEGEN--\":40879:40891   */\n      revert\n        /* \"--CODEGEN--\":40830:40832   */\n    tag_706:\n        /* \"--CODEGEN--\":40824:40898   */\n      pop\n      jump\t// out\n        /* \"--CODEGEN--\":40905:41016   */\n    tag_337:\n        /* \"--CODEGEN--\":40971:40992   */\n      tag_708\n        /* \"--CODEGEN--\":40986:40991   */\n      dup2\n        /* \"--CODEGEN--\":40971:40992   */\n      tag_493\n      jump\t// in\n    tag_708:\n        /* \"--CODEGEN--\":40964:40969   */\n      dup2\n        /* \"--CODEGEN--\":40961:40993   */\n      eq\n        /* \"--CODEGEN--\":40951:40953   */\n      tag_709\n      jumpi\n        /* \"--CODEGEN--\":41007:41008   */\n      0x00\n        /* \"--CODEGEN--\":41004:41005   */\n      dup1\n        /* \"--CODEGEN--\":40997:41009   */\n      revert\n        /* \"--CODEGEN--\":40951:40953   */\n    tag_709:\n        /* \"--CODEGEN--\":40945:41016   */\n      pop\n      jump\t// out\n        /* \"--CODEGEN--\":41023:41140   */\n    tag_341:\n        /* \"--CODEGEN--\":41092:41116   */\n      tag_711\n        /* \"--CODEGEN--\":41110:41115   */\n      dup2\n        /* \"--CODEGEN--\":41092:41116   */\n      tag_497\n      jump\t// in\n    tag_711:\n        /* \"--CODEGEN--\":41085:41090   */\n      dup2\n        /* \"--CODEGEN--\":41082:41117   */\n      eq\n        /* \"--CODEGEN--\":41072:41074   */\n      tag_712\n      jumpi\n        /* \"--CODEGEN--\":41131:41132   */\n      0x00\n        /* \"--CODEGEN--\":41128:41129   */\n      dup1\n        /* \"--CODEGEN--\":41121:41133   */\n      revert\n        /* \"--CODEGEN--\":41072:41074   */\n    tag_712:\n        /* \"--CODEGEN--\":41066:41140   */\n      pop\n      jump\t// out\n        /* \"--CODEGEN--\":41147:41262   */\n    tag_345:\n        /* \"--CODEGEN--\":41215:41238   */\n      tag_714\n        /* \"--CODEGEN--\":41232:41237   */\n      dup2\n        /* \"--CODEGEN--\":41215:41238   */\n      tag_501\n      jump\t// in\n    tag_714:\n        /* \"--CODEGEN--\":41208:41213   */\n      dup2\n        /* \"--CODEGEN--\":41205:41239   */\n      eq\n        /* \"--CODEGEN--\":41195:41197   */\n      tag_715\n      jumpi\n        /* \"--CODEGEN--\":41253:41254   */\n      0x00\n        /* \"--CODEGEN--\":41250:41251   */\n      dup1\n        /* \"--CODEGEN--\":41243:41255   */\n      revert\n        /* \"--CODEGEN--\":41195:41197   */\n    tag_715:\n        /* \"--CODEGEN--\":41189:41262   */\n      pop\n      jump\t// out\n        /* \"--CODEGEN--\":41269:41386   */\n    tag_388:\n        /* \"--CODEGEN--\":41338:41362   */\n      tag_717\n        /* \"--CODEGEN--\":41356:41361   */\n      dup2\n        /* \"--CODEGEN--\":41338:41362   */\n      tag_579\n      jump\t// in\n    tag_717:\n        /* \"--CODEGEN--\":41331:41336   */\n      dup2\n        /* \"--CODEGEN--\":41328:41363   */\n      eq\n        /* \"--CODEGEN--\":41318:41320   */\n      tag_718\n      jumpi\n        /* \"--CODEGEN--\":41377:41378   */\n      0x00\n        /* \"--CODEGEN--\":41374:41375   */\n      dup1\n        /* \"--CODEGEN--\":41367:41379   */\n      revert\n        /* \"--CODEGEN--\":41318:41320   */\n    tag_718:\n        /* \"--CODEGEN--\":41312:41386   */\n      pop\n      jump\t// out\n        /* \"--CODEGEN--\":41393:41506   */\n    tag_394:\n        /* \"--CODEGEN--\":41460:41482   */\n      tag_720\n        /* \"--CODEGEN--\":41476:41481   */\n      dup2\n        /* \"--CODEGEN--\":41460:41482   */\n      tag_586\n      jump\t// in\n    tag_720:\n        /* \"--CODEGEN--\":41453:41458   */\n      dup2\n        /* \"--CODEGEN--\":41450:41483   */\n      eq\n        /* \"--CODEGEN--\":41440:41442   */\n      tag_721\n      jumpi\n        /* \"--CODEGEN--\":41497:41498   */\n      0x00\n        /* \"--CODEGEN--\":41494:41495   */\n      dup1\n        /* \"--CODEGEN--\":41487:41499   */\n      revert\n        /* \"--CODEGEN--\":41440:41442   */\n    tag_721:\n        /* \"--CODEGEN--\":41434:41506   */\n      pop\n      jump\t// out\n\n    auxdata: 0xa26469706673582212200262ee0887347edb691b9e471760ad74117ec829d8871b5c473b207fa84f049464736f6c634300060c0033\n}\n",
				"bytecode": {
					"linkReferences": {},
					"object": "60806040523480156200001157600080fd5b5062000022620000a060201b60201c565b6000806101000a81548173ffffffffffffffffffffffffffffffffffffffff021916908373ffffffffffffffffffffffffffffffffffffffff160217905550620000796301ffc9a760e01b620000a860201b60201c565b6200009a63bc197c8160e01b63f23a6e6160e01b18620000a860201b60201c565b620001f5565b600033905090565b63ffffffff60e01b817bffffffffffffffffffffffffffffffffffffffffffffffffffffffff1916141562000114576040517f08c379a00000000000000000000000000000000000000000000000000000000081526004016200010b90620001c2565b60405180910390fd5b6001806000837bffffffffffffffffffffffffffffffffffffffffffffffffffffffff19167bffffffffffffffffffffffffffffffffffffffffffffffffffffffff1916815260200190815260200160002060006101000a81548160ff02191690831515021790555050565b60006200018f601c83620001e4565b91507f4552433136353a20696e76616c696420696e74657266616365206964000000006000830152602082019050919050565b60006020820190508181036000830152620001dd8162000180565b9050919050565b600082825260208201905092915050565b61361d80620002056000396000f3fe608060405234801561001057600080fd5b50600436106100ea5760003560e01c8063715018a61161008c578063a24d22fe11610066578063a24d22fe14610247578063bc197c8114610263578063f23a6e6114610293578063f2fde38b146102c3576100ea565b8063715018a6146101ef5780637c4d7f44146101f95780638da5cb5b14610229576100ea565b80632a3b3836116100c85780632a3b38361461016b5780632a6c7d0c146101875780633291bf99146101a3578063467f4cb9146101bf576100ea565b806301ffc9a7146100ef5780630525bdcf1461011f578063074540da1461014f575b600080fd5b61010960048036038101906101049190612533565b6102df565b6040516101169190613033565b60405180910390f35b6101396004803603810190610134919061255c565b610347565b60405161014691906130ae565b60405180910390f35b61016960048036038101906101649190612349565b6103a3565b005b6101856004803603810190610180919061255c565b610423565b005b6101a1600480360381019061019c9190612427565b610473565b005b6101bd60048036038101906101b8919061255c565b610509565b005b6101d960048036038101906101d491906123d8565b61054f565b6040516101e69190613332565b60405180910390f35b6101f76105ee565b005b610213600480360381019061020e91906123d8565b610741565b6040516102209190613310565b60405180910390f35b61023161088f565b60405161023e9190612e64565b60405180910390f35b610261600480360381019061025c919061255c565b6108b8565b005b61027d600480360381019061027891906121eb565b610d41565b60405161028a9190613093565b60405180910390f35b6102ad60048036038101906102a891906122b7565b610dd9565b6040516102ba9190613093565b60405180910390f35b6102dd60048036038101906102d891906121c2565b610e29565b005b600060016000837bffffffffffffffffffffffffffffffffffffffffffffffffffffffff19167bffffffffffffffffffffffffffffffffffffffffffffffffffffffff1916815260200190815260200160002060009054906101000a900460ff169050919050565b606080826000015183602001518460400151856060015186608001518760a001518860c001518960e00151604051602001610389989796959493929190612f39565b604051602081830303815290604052905080915050919050565b6103ab611c41565b6103bd85856103b8610feb565b610741565b90506001816020015114610406576040517f08c379a00000000000000000000000000000000000000000000000000000000081526004016103fd90613250565b60405180910390fd5b61041b610411610feb565b8787878787610ff3565b505050505050565b61042c816108b8565b610434611c41565b6104508260000151836020015184606001518560e001516112fd565b905061046f8260400151828460000151856020015186608001516113a5565b5050565b61047b611c41565b61048d8585610488610feb565b610741565b905060018160200151146104d6576040517f08c379a00000000000000000000000000000000000000000000000000000000081526004016104cd90613250565b60405180910390fd5b6104de611c41565b6104ea868689866112fd565b90506105006104f7610feb565b828888886113a5565b50505050505050565b610512816108b8565b61054c8160400151826060015160008151811061052b57fe5b60200260200101518360000151846020015185608001518660a00151610ff3565b50565b6000600260008573ffffffffffffffffffffffffffffffffffffffff1673ffffffffffffffffffffffffffffffffffffffff168152602001908152602001600020600084815260200190815260200160002060010160008373ffffffffffffffffffffffffffffffffffffffff1673ffffffffffffffffffffffffffffffffffffffff1681526020019081526020016000206000015490509392505050565b6105f6610feb565b73ffffffffffffffffffffffffffffffffffffffff1660008054906101000a900473ffffffffffffffffffffffffffffffffffffffff1673ffffffffffffffffffffffffffffffffffffffff1614610683576040517f08c379a000000000000000000000000000000000000000000000000000000000815260040161067a90613230565b60405180910390fd5b600073ffffffffffffffffffffffffffffffffffffffff1660008054906101000a900473ffffffffffffffffffffffffffffffffffffffff1673ffffffffffffffffffffffffffffffffffffffff167f8be0079c531659141344cd1fd0a4f28419497f9722a3daafe3b4186f6b6457e060405160405180910390a360008060006101000a81548173ffffffffffffffffffffffffffffffffffffffff021916908373ffffffffffffffffffffffffffffffffffffffff160217905550565b610749611c41565b600260008573ffffffffffffffffffffffffffffffffffffffff1673ffffffffffffffffffffffffffffffffffffffff168152602001908152602001600020600084815260200190815260200160002060010160008373ffffffffffffffffffffffffffffffffffffffff1673ffffffffffffffffffffffffffffffffffffffff16815260200190815260200160002060405180606001604052908160008201548152602001600182015481526020016002820180548060200260200160405190810160405280929190818152602001828054801561087d57602002820191906000526020600020905b8160009054906101000a900473ffffffffffffffffffffffffffffffffffffffff1673ffffffffffffffffffffffffffffffffffffffff1681526020019060010190808311610833575b50505050508152505090509392505050565b60008060009054906101000a900473ffffffffffffffffffffffffffffffffffffffff16905090565b428160c00151116108fe576040517f08c379a00000000000000000000000000000000000000000000000000000000081526004016108f5906130d0565b60405180910390fd5b6000816000015190506000826020015190506000836040015190506060846101000151905060608561012001519050606061093887610347565b905060008180519060200120905061094e611c41565b610959888888610741565b9050600073ffffffffffffffffffffffffffffffffffffffff168673ffffffffffffffffffffffffffffffffffffffff1614156109cb576040517f08c379a00000000000000000000000000000000000000000000000000000000081526004016109c290613210565b60405180910390fd5b80604001516000815181106109dc57fe5b602002602001015173ffffffffffffffffffffffffffffffffffffffff168673ffffffffffffffffffffffffffffffffffffffff1614610a51576040517f08c379a0000000000000000000000000000000000000000000000000000000008152600401610a48906131b0565b60405180910390fd5b806020015185511015610a99576040517f08c379a0000000000000000000000000000000000000000000000000000000008152600401610a90906132d0565b60405180910390fd5b8351855114610add576040517f08c379a0000000000000000000000000000000000000000000000000000000008152600401610ad490613170565b60405180910390fd5b6060816020015167ffffffffffffffff81118015610afa57600080fd5b50604051908082528060200260200182016040528015610b295781602001602082028036833780820191505090505b5090506000805b8751811015610cec576000888281518110610b4757fe5b602002602001015190507fffffffffffffffffffffffffffffffffffffffffffffffffffffffffffffffff610b7c8583611761565b148015610bb657507fffffffffffffffffffffffffffffffffffffffffffffffffffffffffffffffff610bb3866040015183611761565b14155b15610cde57610bc3611c62565b888381518110610bcf57fe5b60200260200101519050600060018883604001518460000151856020015160405160008152602001604052604051610c0a949392919061304e565b6020604051602081039080840390855afa158015610c2c573d6000803e3d6000fd5b5050506020604051035190508273ffffffffffffffffffffffffffffffffffffffff168173ffffffffffffffffffffffffffffffffffffffff161415610cdb5782868681518110610c7957fe5b602002602001019073ffffffffffffffffffffffffffffffffffffffff16908173ffffffffffffffffffffffffffffffffffffffff168152505084806001019550508660200151851415610cda575050505050505050505050505050610d3e565b5b50505b508080600101915050610b30565b5082602001518114610d33576040517f08c379a0000000000000000000000000000000000000000000000000000000008152600401610d2a906130f0565b60405180910390fd5b505050505050505050505b50565b6000606060008484810190610d5691906124b6565b80925081935050506000610d70610d6b610feb565b6117fa565b905060005b8a8a9050811015610dbf57610db2828d868e8e86818110610d9257fe5b905060200201358d8d87818110610da557fe5b9050602002013588611931565b8080600101915050610d75565b5063bc197c8160e01b935050505098975050505050505050565b6000606060008484810190610dee91906124b6565b8092508193505050610e13610e09610e04610feb565b6117fa565b89848a8a86611931565b63f23a6e6160e01b925050509695505050505050565b610e31610feb565b73ffffffffffffffffffffffffffffffffffffffff1660008054906101000a900473ffffffffffffffffffffffffffffffffffffffff1673ffffffffffffffffffffffffffffffffffffffff1614610ebe576040517f08c379a0000000000000000000000000000000000000000000000000000000008152600401610eb590613230565b60405180910390fd5b600073ffffffffffffffffffffffffffffffffffffffff168173ffffffffffffffffffffffffffffffffffffffff161415610f2e576040517f08c379a0000000000000000000000000000000000000000000000000000000008152600401610f2590613130565b60405180910390fd5b8073ffffffffffffffffffffffffffffffffffffffff1660008054906101000a900473ffffffffffffffffffffffffffffffffffffffff1673ffffffffffffffffffffffffffffffffffffffff167f8be0079c531659141344cd1fd0a4f28419497f9722a3daafe3b4186f6b6457e060405160405180910390a3806000806101000a81548173ffffffffffffffffffffffffffffffffffffffff021916908373ffffffffffffffffffffffffffffffffffffffff16021790555050565b600033905090565b6000600260008673ffffffffffffffffffffffffffffffffffffffff1673ffffffffffffffffffffffffffffffffffffffff1681526020019081526020016000206000858152602001908152602001600020905060008160010160008973ffffffffffffffffffffffffffffffffffffffff1673ffffffffffffffffffffffffffffffffffffffff168152602001908152602001600020905080600001548411156110d3576040517f08c379a00000000000000000000000000000000000000000000000000000000081526004016110ca90613290565b60405180910390fd5b60008411611116576040517f08c379a000000000000000000000000000000000000000000000000000000000815260040161110d90613150565b60405180910390fd5b60008482600001540390508082600001819055508483600001600082825403925050819055508673ffffffffffffffffffffffffffffffffffffffff1663f242432a308a8989896040518663ffffffff1660e01b815260040161117d959493929190612e7f565b600060405180830381600087803b15801561119757600080fd5b505af11580156111ab573d6000803e3d6000fd5b50505050600081141561121d578260010160008a73ffffffffffffffffffffffffffffffffffffffff1673ffffffffffffffffffffffffffffffffffffffff168152602001908152602001600020600080820160009055600182016000905560028201600061121a9190611c8c565b50505b60008360000154141561128657600260008873ffffffffffffffffffffffffffffffffffffffff1673ffffffffffffffffffffffffffffffffffffffff168152602001908152602001600020600087815260200190815260200160002060008082016000905550505b85600073ffffffffffffffffffffffffffffffffffffffff168a73ffffffffffffffffffffffffffffffffffffffff167f737ab30b9cd3ddae02069f3057591007faf2305652d04c2582f7f1f6185d97118a8560006040516112ea93929190612fc5565b60405180910390a4505050505050505050565b611305611c41565b600061131084611b94565b905061131a611c41565b611325878784610741565b905060008160400151511415611398578451841115611379576040517f08c379a0000000000000000000000000000000000000000000000000000000008152600401611370906132f0565b60405180910390fd5b6001816000018181525050848160400181905250838160200181815250505b8092505050949350505050565b6000600260008573ffffffffffffffffffffffffffffffffffffffff1673ffffffffffffffffffffffffffffffffffffffff168152602001908152602001600020600084815260200190815260200160002090508060010160008773ffffffffffffffffffffffffffffffffffffffff1673ffffffffffffffffffffffffffffffffffffffff16815260200190815260200160002060000154821115611480576040517f08c379a000000000000000000000000000000000000000000000000000000000815260040161147790613190565b60405180910390fd5b600082116114c3576040517f08c379a00000000000000000000000000000000000000000000000000000000081526004016114ba90613110565b60405180910390fd5b600085604001516000815181106114d657fe5b602002602001015190506000838360010160008a73ffffffffffffffffffffffffffffffffffffffff1673ffffffffffffffffffffffffffffffffffffffff168152602001908152602001600020600001540390506000848460010160008573ffffffffffffffffffffffffffffffffffffffff1673ffffffffffffffffffffffffffffffffffffffff16815260200190815260200160002060000154019050818460010160008b73ffffffffffffffffffffffffffffffffffffffff1673ffffffffffffffffffffffffffffffffffffffff16815260200190815260200160002060000181905550878460010160008573ffffffffffffffffffffffffffffffffffffffff1673ffffffffffffffffffffffffffffffffffffffff16815260200190815260200160002060008201518160000155602082015181600101556040820151816002019080519060200190611631929190611cad565b50905050808460010160008573ffffffffffffffffffffffffffffffffffffffff1673ffffffffffffffffffffffffffffffffffffffff1681526020019081526020016000206000018190555060008214156116ec578360010160008a73ffffffffffffffffffffffffffffffffffffffff1673ffffffffffffffffffffffffffffffffffffffff16815260200190815260200160002060008082016000905560018201600090556002820160006116e99190611c8c565b50505b858373ffffffffffffffffffffffffffffffffffffffff168a73ffffffffffffffffffffffffffffffffffffffff167f737ab30b9cd3ddae02069f3057591007faf2305652d04c2582f7f1f6185d97118a868660405161174e93929190612ffc565b60405180910390a4505050505050505050565b600080600090505b83518110156117cf578273ffffffffffffffffffffffffffffffffffffffff1684828151811061179557fe5b602002602001015173ffffffffffffffffffffffffffffffffffffffff1614156117c257809150506117f4565b8080600101915050611769565b507fffffffffffffffffffffffffffffffffffffffffffffffffffffffffffffffff90505b92915050565b600061181b8273ffffffffffffffffffffffffffffffffffffffff16611bf6565b61185a576040517f08c379a0000000000000000000000000000000000000000000000000000000008152600401611851906132b0565b60405180910390fd5b8173ffffffffffffffffffffffffffffffffffffffff166301ffc9a763d9b67a2660e01b6040518263ffffffff1660e01b815260040161189a9190613093565b60206040518083038186803b1580156118b257600080fd5b505afa1580156118c6573d6000803e3d6000fd5b505050506040513d601f19601f820116820180604052508101906118ea919061250a565b611929576040517f08c379a0000000000000000000000000000000000000000000000000000000008152600401611920906131f0565b60405180910390fd5b819050919050565b6000600260008873ffffffffffffffffffffffffffffffffffffffff1673ffffffffffffffffffffffffffffffffffffffff16815260200190815260200160002060008581526020019081526020016000209050828160000154018773ffffffffffffffffffffffffffffffffffffffff1662fdd58e30876040518363ffffffff1660e01b81526004016119c6929190612f10565b60206040518083038186803b1580156119de57600080fd5b505afa1580156119f2573d6000803e3d6000fd5b505050506040513d601f19601f82011682018060405250810190611a16919061259d565b1015611a57576040517f08c379a0000000000000000000000000000000000000000000000000000000008152600401611a4e90613270565b60405180910390fd5b611a5f611c41565b611a6b888688866112fd565b9050600086600081518110611a7c57fe5b6020026020010151905060008360010160008373ffffffffffffffffffffffffffffffffffffffff1673ffffffffffffffffffffffffffffffffffffffff168152602001908152602001600020905060008682600001540190508082600001819055508360400151826002019080519060200190611afb929190611cad565b5083602001518260010181905550868560000160008282540192505081905550878373ffffffffffffffffffffffffffffffffffffffff16600073ffffffffffffffffffffffffffffffffffffffff167f737ab30b9cd3ddae02069f3057591007faf2305652d04c2582f7f1f6185d97118e600086604051611b7f93929190612ed9565b60405180910390a45050505050505050505050565b60008082511415611bda576040517f08c379a0000000000000000000000000000000000000000000000000000000008152600401611bd1906131d0565b60405180910390fd5b81600081518110611be757fe5b60200260200101519050919050565b60008060007fc5d2460186f7233c927e7db2dcc703c0e500b653ca82273b7bfad8045d85a47060001b9050833f9150808214158015611c3857506000801b8214155b92505050919050565b60405180606001604052806000815260200160008152602001606081525090565b60405180606001604052806000801916815260200160008019168152602001600060ff1681525090565b5080546000825590600052602060002090810190611caa9190611d37565b50565b828054828255906000526020600020908101928215611d26579160200282015b82811115611d255782518260006101000a81548173ffffffffffffffffffffffffffffffffffffffff021916908373ffffffffffffffffffffffffffffffffffffffff16021790555091602001919060010190611ccd565b5b509050611d339190611d54565b5090565b5b80821115611d50576000816000905550600101611d38565b5090565b5b80821115611d8b57600081816101000a81549073ffffffffffffffffffffffffffffffffffffffff021916905550600101611d55565b5090565b600081359050611d9e8161355d565b92915050565b600082601f830112611db557600080fd5b8135611dc8611dc38261337a565b61334d565b91508181835260208401935060208101905083856020840282011115611ded57600080fd5b60005b83811015611e1d5781611e038882611d8f565b845260208401935060208301925050600181019050611df0565b5050505092915050565b600082601f830112611e3857600080fd5b8135611e4b611e46826133a2565b61334d565b91508181835260208401935060208101905083856060840282011115611e7057600080fd5b60005b83811015611ea05781611e868882611fd1565b845260208401935060608301925050600181019050611e73565b5050505092915050565b60008083601f840112611ebc57600080fd5b8235905067ffffffffffffffff811115611ed557600080fd5b602083019150836020820283011115611eed57600080fd5b9250929050565b600081519050611f0381613574565b92915050565b600081359050611f188161358b565b92915050565b600081359050611f2d816135a2565b92915050565b60008083601f840112611f4557600080fd5b8235905067ffffffffffffffff811115611f5e57600080fd5b602083019150836001820283011115611f7657600080fd5b9250929050565b600082601f830112611f8e57600080fd5b8135611fa1611f9c826133ca565b61334d565b91508082526020830160208301858383011115611fbd57600080fd5b611fc883828461350a565b50505092915050565b600060608284031215611fe357600080fd5b611fed606061334d565b90506000611ffd84828501611f09565b600083015250602061201184828501611f09565b6020830152506040612025848285016121ad565b60408301525092915050565b6000610140828403121561204457600080fd5b61204f61014061334d565b9050600061205f84828501611d8f565b600083015250602061207384828501612183565b602083015250604061208784828501611d8f565b604083015250606082013567ffffffffffffffff8111156120a757600080fd5b6120b384828501611da4565b60608301525060806120c784828501612183565b60808301525060a082013567ffffffffffffffff8111156120e757600080fd5b6120f384828501611f7d565b60a08301525060c061210784828501612183565b60c08301525060e061211b84828501612183565b60e08301525061010082013567ffffffffffffffff81111561213c57600080fd5b61214884828501611da4565b6101008301525061012082013567ffffffffffffffff81111561216a57600080fd5b61217684828501611e27565b6101208301525092915050565b600081359050612192816135b9565b92915050565b6000815190506121a7816135b9565b92915050565b6000813590506121bc816135d0565b92915050565b6000602082840312156121d457600080fd5b60006121e284828501611d8f565b91505092915050565b60008060008060008060008060a0898b03121561220757600080fd5b60006122158b828c01611d8f565b98505060206122268b828c01611d8f565b975050604089013567ffffffffffffffff81111561224357600080fd5b61224f8b828c01611eaa565b9650965050606089013567ffffffffffffffff81111561226e57600080fd5b61227a8b828c01611eaa565b9450945050608089013567ffffffffffffffff81111561229957600080fd5b6122a58b828c01611f33565b92509250509295985092959890939650565b60008060008060008060a087890312156122d057600080fd5b60006122de89828a01611d8f565b96505060206122ef89828a01611d8f565b955050604061230089828a01612183565b945050606061231189828a01612183565b935050608087013567ffffffffffffffff81111561232e57600080fd5b61233a89828a01611f33565b92509250509295509295509295565b600080600080600060a0868803121561236157600080fd5b600061236f88828901611d8f565b955050602061238088828901611d8f565b945050604061239188828901612183565b93505060606123a288828901612183565b925050608086013567ffffffffffffffff8111156123bf57600080fd5b6123cb88828901611f7d565b9150509295509295909350565b6000806000606084860312156123ed57600080fd5b60006123fb86828701611d8f565b935050602061240c86828701612183565b925050604061241d86828701611d8f565b9150509250925092565b600080600080600060a0868803121561243f57600080fd5b600086013567ffffffffffffffff81111561245957600080fd5b61246588828901611da4565b955050602061247688828901611d8f565b945050604061248788828901612183565b935050606061249888828901612183565b92505060806124a988828901612183565b9150509295509295909350565b600080604083850312156124c957600080fd5b600083013567ffffffffffffffff8111156124e357600080fd5b6124ef85828601611da4565b925050602061250085828601612183565b9150509250929050565b60006020828403121561251c57600080fd5b600061252a84828501611ef4565b91505092915050565b60006020828403121561254557600080fd5b600061255384828501611f1e565b91505092915050565b60006020828403121561256e57600080fd5b600082013567ffffffffffffffff81111561258857600080fd5b61259484828501612031565b91505092915050565b6000602082840312156125af57600080fd5b60006125bd84828501612198565b91505092915050565b60006125d283836125de565b60208301905092915050565b6125e78161346d565b82525050565b6125f68161346d565b82525050565b600061260782613406565b6126118185613429565b935061261c836133f6565b8060005b8381101561264d57815161263488826125c6565b975061263f8361341c565b925050600181019050612620565b5085935050505092915050565b600061266582613406565b61266f818561343a565b935061267a836133f6565b8060005b838110156126ab57815161269288826125c6565b975061269d8361341c565b92505060018101905061267e565b5085935050505092915050565b6126c18161347f565b82525050565b6126d08161348b565b82525050565b6126df81613495565b82525050565b60006126f082613411565b6126fa818561344b565b935061270a818560208601613519565b6127138161354c565b840191505092915050565b612727816134f8565b82525050565b600061273a60218361345c565b91507f234e465450726f7879237665726966793a205452414e534645525f455850495260008301527f59000000000000000000000000000000000000000000000000000000000000006020830152604082019050919050565b60006127a060258361345c565b91507f234e465450726f787923766572696669636174696f6e3a204241445f5349474e60008301527f41545552450000000000000000000000000000000000000000000000000000006020830152604082019050919050565b600061280660278361345c565b91507f234552433131353550726f7879235f7472616e736665723a20494e56414c494460008301527f5f414d4f554e54000000000000000000000000000000000000000000000000006020830152604082019050919050565b600061286c60268361345c565b91507f4f776e61626c653a206e6577206f776e657220697320746865207a65726f206160008301527f64647265737300000000000000000000000000000000000000000000000000006020830152604082019050919050565b60006128d260278361345c565b91507f234552433131353550726f7879235f77697468647261773a20494e56414c494460008301527f5f414d4f554e54000000000000000000000000000000000000000000000000006020830152604082019050919050565b600061293860258361345c565b91507f234e465450726f7879237665726966793a204241445f5253565f4c4953545f4c60008301527f454e4754480000000000000000000000000000000000000000000000000000006020830152604082019050919050565b600061299e602e8361345c565b91507f234552433131353550726f7879235f7472616e736665723a20494e535546464960008301527f4349454e545f42414c414e4345530000000000000000000000000000000000006020830152604082019050919050565b6000612a0460208361345c565b91507f234e465450726f7879237665726966793a204f574e45525f4e4f5f4d415443486000830152602082019050919050565b6000612a4460358361345c565b91507f234e465450726f787923636865636b41646472657373456d7074793a2041444460008301527f524553535f4c4953545f4c454e4754485f5a45524f00000000000000000000006020830152604082019050919050565b6000612aaa60368361345c565b91507f546865204e465420636f6e74726163742068617320616e20696e76616c69642060008301527f4552433131353520696d706c656d656e746174696f6e000000000000000000006020830152604082019050919050565b6000612b10601e8361345c565b91507f234e465450726f7879237665726966793a20414444524553535f5a45524f00006000830152602082019050919050565b6000612b5060208361345c565b91507f4f776e61626c653a2063616c6c6572206973206e6f7420746865206f776e65726000830152602082019050919050565b6000612b9060288361345c565b91507f234e465450726f7879237472616e736665723a204e4f5f5452414e534645525f60008301527f5349474e5f4552520000000000000000000000000000000000000000000000006020830152604082019050919050565b6000612bf660308361345c565b91507f234552433131353550726f7879235f6f6e45524331313535526563656976656460008301527f3a20494e56414c49445f414d4f554e54000000000000000000000000000000006020830152604082019050919050565b6000612c5c602e8361345c565b91507f234552433131353550726f7879235f77697468647261773a20494e535546464960008301527f4349454e545f42414c414e4345530000000000000000000000000000000000006020830152604082019050919050565b6000612cc260328361345c565b91507f234552433131353550726f7879235f6973455243313135353a20494e564c494160008301527f445f434f4e54524143545f4144445245535300000000000000000000000000006020830152604082019050919050565b6000612d2860278361345c565b91507f234e465450726f7879237665726966793a205349474e5f434f554e545f544f4f60008301527f5f4c4954544c45000000000000000000000000000000000000000000000000006020830152604082019050919050565b6000612d8e60258361345c565b91507f234e465450726f787923636865636b4f776e6572733a204241445f5349474e5f60008301527f434f554e540000000000000000000000000000000000000000000000000000006020830152604082019050919050565b6000606083016000830151612dff6000860182612e37565b506020830151612e126020860182612e37565b5060408301518482036040860152612e2a82826125fc565b9150508091505092915050565b612e40816134e1565b82525050565b612e4f816134e1565b82525050565b612e5e816134eb565b82525050565b6000602082019050612e7960008301846125ed565b92915050565b600060a082019050612e9460008301886125ed565b612ea160208301876125ed565b612eae6040830186612e46565b612ebb6060830185612e46565b8181036080830152612ecd81846126e5565b90509695505050505050565b6000606082019050612eee60008301866125ed565b612efb602083018561271e565b612f086040830184612e46565b949350505050565b6000604082019050612f2560008301856125ed565b612f326020830184612e46565b9392505050565b600061010082019050612f4f600083018b6125ed565b612f5c602083018a612e46565b612f6960408301896125ed565b8181036060830152612f7b818861265a565b9050612f8a6080830187612e46565b81810360a0830152612f9c81866126e5565b9050612fab60c0830185612e46565b612fb860e0830184612e46565b9998505050505050505050565b6000606082019050612fda60008301866125ed565b612fe76020830185612e46565b612ff4604083018461271e565b949350505050565b600060608201905061301160008301866125ed565b61301e6020830185612e46565b61302b6040830184612e46565b949350505050565b600060208201905061304860008301846126b8565b92915050565b600060808201905061306360008301876126c7565b6130706020830186612e55565b61307d60408301856126c7565b61308a60608301846126c7565b95945050505050565b60006020820190506130a860008301846126d6565b92915050565b600060208201905081810360008301526130c881846126e5565b905092915050565b600060208201905081810360008301526130e98161272d565b9050919050565b6000602082019050818103600083015261310981612793565b9050919050565b60006020820190508181036000830152613129816127f9565b9050919050565b600060208201905081810360008301526131498161285f565b9050919050565b60006020820190508181036000830152613169816128c5565b9050919050565b600060208201905081810360008301526131898161292b565b9050919050565b600060208201905081810360008301526131a981612991565b9050919050565b600060208201905081810360008301526131c9816129f7565b9050919050565b600060208201905081810360008301526131e981612a37565b9050919050565b6000602082019050818103600083015261320981612a9d565b9050919050565b6000602082019050818103600083015261322981612b03565b9050919050565b6000602082019050818103600083015261324981612b43565b9050919050565b6000602082019050818103600083015261326981612b83565b9050919050565b6000602082019050818103600083015261328981612be9565b9050919050565b600060208201905081810360008301526132a981612c4f565b9050919050565b600060208201905081810360008301526132c981612cb5565b9050919050565b600060208201905081810360008301526132e981612d1b565b9050919050565b6000602082019050818103600083015261330981612d81565b9050919050565b6000602082019050818103600083015261332a8184612de7565b905092915050565b60006020820190506133476000830184612e46565b92915050565b6000604051905081810181811067ffffffffffffffff8211171561337057600080fd5b8060405250919050565b600067ffffffffffffffff82111561339157600080fd5b602082029050602081019050919050565b600067ffffffffffffffff8211156133b957600080fd5b602082029050602081019050919050565b600067ffffffffffffffff8211156133e157600080fd5b601f19601f8301169050602081019050919050565b6000819050602082019050919050565b600081519050919050565b600081519050919050565b6000602082019050919050565b600082825260208201905092915050565b600082825260208201905092915050565b600082825260208201905092915050565b600082825260208201905092915050565b6000613478826134c1565b9050919050565b60008115159050919050565b6000819050919050565b60007fffffffff0000000000000000000000000000000000000000000000000000000082169050919050565b600073ffffffffffffffffffffffffffffffffffffffff82169050919050565b6000819050919050565b600060ff82169050919050565b6000613503826134e1565b9050919050565b82818337600083830152505050565b60005b8381101561353757808201518184015260208101905061351c565b83811115613546576000848401525b50505050565b6000601f19601f8301169050919050565b6135668161346d565b811461357157600080fd5b50565b61357d8161347f565b811461358857600080fd5b50565b6135948161348b565b811461359f57600080fd5b50565b6135ab81613495565b81146135b657600080fd5b50565b6135c2816134e1565b81146135cd57600080fd5b50565b6135d9816134eb565b81146135e457600080fd5b5056fea26469706673582212200262ee0887347edb691b9e471760ad74117ec829d8871b5c473b207fa84f049464736f6c634300060c0033",
					"opcodes": "PUSH1 0x80 PUSH1 0x40 MSTORE CALLVALUE DUP1 ISZERO PUSH3 0x11 JUMPI PUSH1 0x0 DUP1 REVERT JUMPDEST POP PUSH3 0x22 PUSH3 0xA0 PUSH1 0x20 SHL PUSH1 0x20 SHR JUMP JUMPDEST PUSH1 0x0 DUP1 PUSH2 0x100 EXP DUP2 SLOAD DUP2 PUSH20 0xFFFFFFFFFFFFFFFFFFFFFFFFFFFFFFFFFFFFFFFF MUL NOT AND SWAP1 DUP4 PUSH20 0xFFFFFFFFFFFFFFFFFFFFFFFFFFFFFFFFFFFFFFFF AND MUL OR SWAP1 SSTORE POP PUSH3 0x79 PUSH4 0x1FFC9A7 PUSH1 0xE0 SHL PUSH3 0xA8 PUSH1 0x20 SHL PUSH1 0x20 SHR JUMP JUMPDEST PUSH3 0x9A PUSH4 0xBC197C81 PUSH1 0xE0 SHL PUSH4 0xF23A6E61 PUSH1 0xE0 SHL XOR PUSH3 0xA8 PUSH1 0x20 SHL PUSH1 0x20 SHR JUMP JUMPDEST PUSH3 0x1F5 JUMP JUMPDEST PUSH1 0x0 CALLER SWAP1 POP SWAP1 JUMP JUMPDEST PUSH4 0xFFFFFFFF PUSH1 0xE0 SHL DUP2 PUSH28 0xFFFFFFFFFFFFFFFFFFFFFFFFFFFFFFFFFFFFFFFFFFFFFFFFFFFFFFFF NOT AND EQ ISZERO PUSH3 0x114 JUMPI PUSH1 0x40 MLOAD PUSH32 0x8C379A000000000000000000000000000000000000000000000000000000000 DUP2 MSTORE PUSH1 0x4 ADD PUSH3 0x10B SWAP1 PUSH3 0x1C2 JUMP JUMPDEST PUSH1 0x40 MLOAD DUP1 SWAP2 SUB SWAP1 REVERT JUMPDEST PUSH1 0x1 DUP1 PUSH1 0x0 DUP4 PUSH28 0xFFFFFFFFFFFFFFFFFFFFFFFFFFFFFFFFFFFFFFFFFFFFFFFFFFFFFFFF NOT AND PUSH28 0xFFFFFFFFFFFFFFFFFFFFFFFFFFFFFFFFFFFFFFFFFFFFFFFFFFFFFFFF NOT AND DUP2 MSTORE PUSH1 0x20 ADD SWAP1 DUP2 MSTORE PUSH1 0x20 ADD PUSH1 0x0 KECCAK256 PUSH1 0x0 PUSH2 0x100 EXP DUP2 SLOAD DUP2 PUSH1 0xFF MUL NOT AND SWAP1 DUP4 ISZERO ISZERO MUL OR SWAP1 SSTORE POP POP JUMP JUMPDEST PUSH1 0x0 PUSH3 0x18F PUSH1 0x1C DUP4 PUSH3 0x1E4 JUMP JUMPDEST SWAP2 POP PUSH32 0x4552433136353A20696E76616C696420696E7465726661636520696400000000 PUSH1 0x0 DUP4 ADD MSTORE PUSH1 0x20 DUP3 ADD SWAP1 POP SWAP2 SWAP1 POP JUMP JUMPDEST PUSH1 0x0 PUSH1 0x20 DUP3 ADD SWAP1 POP DUP2 DUP2 SUB PUSH1 0x0 DUP4 ADD MSTORE PUSH3 0x1DD DUP2 PUSH3 0x180 JUMP JUMPDEST SWAP1 POP SWAP2 SWAP1 POP JUMP JUMPDEST PUSH1 0x0 DUP3 DUP3 MSTORE PUSH1 0x20 DUP3 ADD SWAP1 POP SWAP3 SWAP2 POP POP JUMP JUMPDEST PUSH2 0x361D DUP1 PUSH3 0x205 PUSH1 0x0 CODECOPY PUSH1 0x0 RETURN INVALID PUSH1 0x80 PUSH1 0x40 MSTORE CALLVALUE DUP1 ISZERO PUSH2 0x10 JUMPI PUSH1 0x0 DUP1 REVERT JUMPDEST POP PUSH1 0x4 CALLDATASIZE LT PUSH2 0xEA JUMPI PUSH1 0x0 CALLDATALOAD PUSH1 0xE0 SHR DUP1 PUSH4 0x715018A6 GT PUSH2 0x8C JUMPI DUP1 PUSH4 0xA24D22FE GT PUSH2 0x66 JUMPI DUP1 PUSH4 0xA24D22FE EQ PUSH2 0x247 JUMPI DUP1 PUSH4 0xBC197C81 EQ PUSH2 0x263 JUMPI DUP1 PUSH4 0xF23A6E61 EQ PUSH2 0x293 JUMPI DUP1 PUSH4 0xF2FDE38B EQ PUSH2 0x2C3 JUMPI PUSH2 0xEA JUMP JUMPDEST DUP1 PUSH4 0x715018A6 EQ PUSH2 0x1EF JUMPI DUP1 PUSH4 0x7C4D7F44 EQ PUSH2 0x1F9 JUMPI DUP1 PUSH4 0x8DA5CB5B EQ PUSH2 0x229 JUMPI PUSH2 0xEA JUMP JUMPDEST DUP1 PUSH4 0x2A3B3836 GT PUSH2 0xC8 JUMPI DUP1 PUSH4 0x2A3B3836 EQ PUSH2 0x16B JUMPI DUP1 PUSH4 0x2A6C7D0C EQ PUSH2 0x187 JUMPI DUP1 PUSH4 0x3291BF99 EQ PUSH2 0x1A3 JUMPI DUP1 PUSH4 0x467F4CB9 EQ PUSH2 0x1BF JUMPI PUSH2 0xEA JUMP JUMPDEST DUP1 PUSH4 0x1FFC9A7 EQ PUSH2 0xEF JUMPI DUP1 PUSH4 0x525BDCF EQ PUSH2 0x11F JUMPI DUP1 PUSH4 0x74540DA EQ PUSH2 0x14F JUMPI JUMPDEST PUSH1 0x0 DUP1 REVERT JUMPDEST PUSH2 0x109 PUSH1 0x4 DUP1 CALLDATASIZE SUB DUP2 ADD SWAP1 PUSH2 0x104 SWAP2 SWAP1 PUSH2 0x2533 JUMP JUMPDEST PUSH2 0x2DF JUMP JUMPDEST PUSH1 0x40 MLOAD PUSH2 0x116 SWAP2 SWAP1 PUSH2 0x3033 JUMP JUMPDEST PUSH1 0x40 MLOAD DUP1 SWAP2 SUB SWAP1 RETURN JUMPDEST PUSH2 0x139 PUSH1 0x4 DUP1 CALLDATASIZE SUB DUP2 ADD SWAP1 PUSH2 0x134 SWAP2 SWAP1 PUSH2 0x255C JUMP JUMPDEST PUSH2 0x347 JUMP JUMPDEST PUSH1 0x40 MLOAD PUSH2 0x146 SWAP2 SWAP1 PUSH2 0x30AE JUMP JUMPDEST PUSH1 0x40 MLOAD DUP1 SWAP2 SUB SWAP1 RETURN JUMPDEST PUSH2 0x169 PUSH1 0x4 DUP1 CALLDATASIZE SUB DUP2 ADD SWAP1 PUSH2 0x164 SWAP2 SWAP1 PUSH2 0x2349 JUMP JUMPDEST PUSH2 0x3A3 JUMP JUMPDEST STOP JUMPDEST PUSH2 0x185 PUSH1 0x4 DUP1 CALLDATASIZE SUB DUP2 ADD SWAP1 PUSH2 0x180 SWAP2 SWAP1 PUSH2 0x255C JUMP JUMPDEST PUSH2 0x423 JUMP JUMPDEST STOP JUMPDEST PUSH2 0x1A1 PUSH1 0x4 DUP1 CALLDATASIZE SUB DUP2 ADD SWAP1 PUSH2 0x19C SWAP2 SWAP1 PUSH2 0x2427 JUMP JUMPDEST PUSH2 0x473 JUMP JUMPDEST STOP JUMPDEST PUSH2 0x1BD PUSH1 0x4 DUP1 CALLDATASIZE SUB DUP2 ADD SWAP1 PUSH2 0x1B8 SWAP2 SWAP1 PUSH2 0x255C JUMP JUMPDEST PUSH2 0x509 JUMP JUMPDEST STOP JUMPDEST PUSH2 0x1D9 PUSH1 0x4 DUP1 CALLDATASIZE SUB DUP2 ADD SWAP1 PUSH2 0x1D4 SWAP2 SWAP1 PUSH2 0x23D8 JUMP JUMPDEST PUSH2 0x54F JUMP JUMPDEST PUSH1 0x40 MLOAD PUSH2 0x1E6 SWAP2 SWAP1 PUSH2 0x3332 JUMP JUMPDEST PUSH1 0x40 MLOAD DUP1 SWAP2 SUB SWAP1 RETURN JUMPDEST PUSH2 0x1F7 PUSH2 0x5EE JUMP JUMPDEST STOP JUMPDEST PUSH2 0x213 PUSH1 0x4 DUP1 CALLDATASIZE SUB DUP2 ADD SWAP1 PUSH2 0x20E SWAP2 SWAP1 PUSH2 0x23D8 JUMP JUMPDEST PUSH2 0x741 JUMP JUMPDEST PUSH1 0x40 MLOAD PUSH2 0x220 SWAP2 SWAP1 PUSH2 0x3310 JUMP JUMPDEST PUSH1 0x40 MLOAD DUP1 SWAP2 SUB SWAP1 RETURN JUMPDEST PUSH2 0x231 PUSH2 0x88F JUMP JUMPDEST PUSH1 0x40 MLOAD PUSH2 0x23E SWAP2 SWAP1 PUSH2 0x2E64 JUMP JUMPDEST PUSH1 0x40 MLOAD DUP1 SWAP2 SUB SWAP1 RETURN JUMPDEST PUSH2 0x261 PUSH1 0x4 DUP1 CALLDATASIZE SUB DUP2 ADD SWAP1 PUSH2 0x25C SWAP2 SWAP1 PUSH2 0x255C JUMP JUMPDEST PUSH2 0x8B8 JUMP JUMPDEST STOP JUMPDEST PUSH2 0x27D PUSH1 0x4 DUP1 CALLDATASIZE SUB DUP2 ADD SWAP1 PUSH2 0x278 SWAP2 SWAP1 PUSH2 0x21EB JUMP JUMPDEST PUSH2 0xD41 JUMP JUMPDEST PUSH1 0x40 MLOAD PUSH2 0x28A SWAP2 SWAP1 PUSH2 0x3093 JUMP JUMPDEST PUSH1 0x40 MLOAD DUP1 SWAP2 SUB SWAP1 RETURN JUMPDEST PUSH2 0x2AD PUSH1 0x4 DUP1 CALLDATASIZE SUB DUP2 ADD SWAP1 PUSH2 0x2A8 SWAP2 SWAP1 PUSH2 0x22B7 JUMP JUMPDEST PUSH2 0xDD9 JUMP JUMPDEST PUSH1 0x40 MLOAD PUSH2 0x2BA SWAP2 SWAP1 PUSH2 0x3093 JUMP JUMPDEST PUSH1 0x40 MLOAD DUP1 SWAP2 SUB SWAP1 RETURN JUMPDEST PUSH2 0x2DD PUSH1 0x4 DUP1 CALLDATASIZE SUB DUP2 ADD SWAP1 PUSH2 0x2D8 SWAP2 SWAP1 PUSH2 0x21C2 JUMP JUMPDEST PUSH2 0xE29 JUMP JUMPDEST STOP JUMPDEST PUSH1 0x0 PUSH1 0x1 PUSH1 0x0 DUP4 PUSH28 0xFFFFFFFFFFFFFFFFFFFFFFFFFFFFFFFFFFFFFFFFFFFFFFFFFFFFFFFF NOT AND PUSH28 0xFFFFFFFFFFFFFFFFFFFFFFFFFFFFFFFFFFFFFFFFFFFFFFFFFFFFFFFF NOT AND DUP2 MSTORE PUSH1 0x20 ADD SWAP1 DUP2 MSTORE PUSH1 0x20 ADD PUSH1 0x0 KECCAK256 PUSH1 0x0 SWAP1 SLOAD SWAP1 PUSH2 0x100 EXP SWAP1 DIV PUSH1 0xFF AND SWAP1 POP SWAP2 SWAP1 POP JUMP JUMPDEST PUSH1 0x60 DUP1 DUP3 PUSH1 0x0 ADD MLOAD DUP4 PUSH1 0x20 ADD MLOAD DUP5 PUSH1 0x40 ADD MLOAD DUP6 PUSH1 0x60 ADD MLOAD DUP7 PUSH1 0x80 ADD MLOAD DUP8 PUSH1 0xA0 ADD MLOAD DUP9 PUSH1 0xC0 ADD MLOAD DUP10 PUSH1 0xE0 ADD MLOAD PUSH1 0x40 MLOAD PUSH1 0x20 ADD PUSH2 0x389 SWAP9 SWAP8 SWAP7 SWAP6 SWAP5 SWAP4 SWAP3 SWAP2 SWAP1 PUSH2 0x2F39 JUMP JUMPDEST PUSH1 0x40 MLOAD PUSH1 0x20 DUP2 DUP4 SUB SUB DUP2 MSTORE SWAP1 PUSH1 0x40 MSTORE SWAP1 POP DUP1 SWAP2 POP POP SWAP2 SWAP1 POP JUMP JUMPDEST PUSH2 0x3AB PUSH2 0x1C41 JUMP JUMPDEST PUSH2 0x3BD DUP6 DUP6 PUSH2 0x3B8 PUSH2 0xFEB JUMP JUMPDEST PUSH2 0x741 JUMP JUMPDEST SWAP1 POP PUSH1 0x1 DUP2 PUSH1 0x20 ADD MLOAD EQ PUSH2 0x406 JUMPI PUSH1 0x40 MLOAD PUSH32 0x8C379A000000000000000000000000000000000000000000000000000000000 DUP2 MSTORE PUSH1 0x4 ADD PUSH2 0x3FD SWAP1 PUSH2 0x3250 JUMP JUMPDEST PUSH1 0x40 MLOAD DUP1 SWAP2 SUB SWAP1 REVERT JUMPDEST PUSH2 0x41B PUSH2 0x411 PUSH2 0xFEB JUMP JUMPDEST DUP8 DUP8 DUP8 DUP8 DUP8 PUSH2 0xFF3 JUMP JUMPDEST POP POP POP POP POP POP JUMP JUMPDEST PUSH2 0x42C DUP2 PUSH2 0x8B8 JUMP JUMPDEST PUSH2 0x434 PUSH2 0x1C41 JUMP JUMPDEST PUSH2 0x450 DUP3 PUSH1 0x0 ADD MLOAD DUP4 PUSH1 0x20 ADD MLOAD DUP5 PUSH1 0x60 ADD MLOAD DUP6 PUSH1 0xE0 ADD MLOAD PUSH2 0x12FD JUMP JUMPDEST SWAP1 POP PUSH2 0x46F DUP3 PUSH1 0x40 ADD MLOAD DUP3 DUP5 PUSH1 0x0 ADD MLOAD DUP6 PUSH1 0x20 ADD MLOAD DUP7 PUSH1 0x80 ADD MLOAD PUSH2 0x13A5 JUMP JUMPDEST POP POP JUMP JUMPDEST PUSH2 0x47B PUSH2 0x1C41 JUMP JUMPDEST PUSH2 0x48D DUP6 DUP6 PUSH2 0x488 PUSH2 0xFEB JUMP JUMPDEST PUSH2 0x741 JUMP JUMPDEST SWAP1 POP PUSH1 0x1 DUP2 PUSH1 0x20 ADD MLOAD EQ PUSH2 0x4D6 JUMPI PUSH1 0x40 MLOAD PUSH32 0x8C379A000000000000000000000000000000000000000000000000000000000 DUP2 MSTORE PUSH1 0x4 ADD PUSH2 0x4CD SWAP1 PUSH2 0x3250 JUMP JUMPDEST PUSH1 0x40 MLOAD DUP1 SWAP2 SUB SWAP1 REVERT JUMPDEST PUSH2 0x4DE PUSH2 0x1C41 JUMP JUMPDEST PUSH2 0x4EA DUP7 DUP7 DUP10 DUP7 PUSH2 0x12FD JUMP JUMPDEST SWAP1 POP PUSH2 0x500 PUSH2 0x4F7 PUSH2 0xFEB JUMP JUMPDEST DUP3 DUP9 DUP9 DUP9 PUSH2 0x13A5 JUMP JUMPDEST POP POP POP POP POP POP POP JUMP JUMPDEST PUSH2 0x512 DUP2 PUSH2 0x8B8 JUMP JUMPDEST PUSH2 0x54C DUP2 PUSH1 0x40 ADD MLOAD DUP3 PUSH1 0x60 ADD MLOAD PUSH1 0x0 DUP2 MLOAD DUP2 LT PUSH2 0x52B JUMPI INVALID JUMPDEST PUSH1 0x20 MUL PUSH1 0x20 ADD ADD MLOAD DUP4 PUSH1 0x0 ADD MLOAD DUP5 PUSH1 0x20 ADD MLOAD DUP6 PUSH1 0x80 ADD MLOAD DUP7 PUSH1 0xA0 ADD MLOAD PUSH2 0xFF3 JUMP JUMPDEST POP JUMP JUMPDEST PUSH1 0x0 PUSH1 0x2 PUSH1 0x0 DUP6 PUSH20 0xFFFFFFFFFFFFFFFFFFFFFFFFFFFFFFFFFFFFFFFF AND PUSH20 0xFFFFFFFFFFFFFFFFFFFFFFFFFFFFFFFFFFFFFFFF AND DUP2 MSTORE PUSH1 0x20 ADD SWAP1 DUP2 MSTORE PUSH1 0x20 ADD PUSH1 0x0 KECCAK256 PUSH1 0x0 DUP5 DUP2 MSTORE PUSH1 0x20 ADD SWAP1 DUP2 MSTORE PUSH1 0x20 ADD PUSH1 0x0 KECCAK256 PUSH1 0x1 ADD PUSH1 0x0 DUP4 PUSH20 0xFFFFFFFFFFFFFFFFFFFFFFFFFFFFFFFFFFFFFFFF AND PUSH20 0xFFFFFFFFFFFFFFFFFFFFFFFFFFFFFFFFFFFFFFFF AND DUP2 MSTORE PUSH1 0x20 ADD SWAP1 DUP2 MSTORE PUSH1 0x20 ADD PUSH1 0x0 KECCAK256 PUSH1 0x0 ADD SLOAD SWAP1 POP SWAP4 SWAP3 POP POP POP JUMP JUMPDEST PUSH2 0x5F6 PUSH2 0xFEB JUMP JUMPDEST PUSH20 0xFFFFFFFFFFFFFFFFFFFFFFFFFFFFFFFFFFFFFFFF AND PUSH1 0x0 DUP1 SLOAD SWAP1 PUSH2 0x100 EXP SWAP1 DIV PUSH20 0xFFFFFFFFFFFFFFFFFFFFFFFFFFFFFFFFFFFFFFFF AND PUSH20 0xFFFFFFFFFFFFFFFFFFFFFFFFFFFFFFFFFFFFFFFF AND EQ PUSH2 0x683 JUMPI PUSH1 0x40 MLOAD PUSH32 0x8C379A000000000000000000000000000000000000000000000000000000000 DUP2 MSTORE PUSH1 0x4 ADD PUSH2 0x67A SWAP1 PUSH2 0x3230 JUMP JUMPDEST PUSH1 0x40 MLOAD DUP1 SWAP2 SUB SWAP1 REVERT JUMPDEST PUSH1 0x0 PUSH20 0xFFFFFFFFFFFFFFFFFFFFFFFFFFFFFFFFFFFFFFFF AND PUSH1 0x0 DUP1 SLOAD SWAP1 PUSH2 0x100 EXP SWAP1 DIV PUSH20 0xFFFFFFFFFFFFFFFFFFFFFFFFFFFFFFFFFFFFFFFF AND PUSH20 0xFFFFFFFFFFFFFFFFFFFFFFFFFFFFFFFFFFFFFFFF AND PUSH32 0x8BE0079C531659141344CD1FD0A4F28419497F9722A3DAAFE3B4186F6B6457E0 PUSH1 0x40 MLOAD PUSH1 0x40 MLOAD DUP1 SWAP2 SUB SWAP1 LOG3 PUSH1 0x0 DUP1 PUSH1 0x0 PUSH2 0x100 EXP DUP2 SLOAD DUP2 PUSH20 0xFFFFFFFFFFFFFFFFFFFFFFFFFFFFFFFFFFFFFFFF MUL NOT AND SWAP1 DUP4 PUSH20 0xFFFFFFFFFFFFFFFFFFFFFFFFFFFFFFFFFFFFFFFF AND MUL OR SWAP1 SSTORE POP JUMP JUMPDEST PUSH2 0x749 PUSH2 0x1C41 JUMP JUMPDEST PUSH1 0x2 PUSH1 0x0 DUP6 PUSH20 0xFFFFFFFFFFFFFFFFFFFFFFFFFFFFFFFFFFFFFFFF AND PUSH20 0xFFFFFFFFFFFFFFFFFFFFFFFFFFFFFFFFFFFFFFFF AND DUP2 MSTORE PUSH1 0x20 ADD SWAP1 DUP2 MSTORE PUSH1 0x20 ADD PUSH1 0x0 KECCAK256 PUSH1 0x0 DUP5 DUP2 MSTORE PUSH1 0x20 ADD SWAP1 DUP2 MSTORE PUSH1 0x20 ADD PUSH1 0x0 KECCAK256 PUSH1 0x1 ADD PUSH1 0x0 DUP4 PUSH20 0xFFFFFFFFFFFFFFFFFFFFFFFFFFFFFFFFFFFFFFFF AND PUSH20 0xFFFFFFFFFFFFFFFFFFFFFFFFFFFFFFFFFFFFFFFF AND DUP2 MSTORE PUSH1 0x20 ADD SWAP1 DUP2 MSTORE PUSH1 0x20 ADD PUSH1 0x0 KECCAK256 PUSH1 0x40 MLOAD DUP1 PUSH1 0x60 ADD PUSH1 0x40 MSTORE SWAP1 DUP2 PUSH1 0x0 DUP3 ADD SLOAD DUP2 MSTORE PUSH1 0x20 ADD PUSH1 0x1 DUP3 ADD SLOAD DUP2 MSTORE PUSH1 0x20 ADD PUSH1 0x2 DUP3 ADD DUP1 SLOAD DUP1 PUSH1 0x20 MUL PUSH1 0x20 ADD PUSH1 0x40 MLOAD SWAP1 DUP2 ADD PUSH1 0x40 MSTORE DUP1 SWAP3 SWAP2 SWAP1 DUP2 DUP2 MSTORE PUSH1 0x20 ADD DUP3 DUP1 SLOAD DUP1 ISZERO PUSH2 0x87D JUMPI PUSH1 0x20 MUL DUP3 ADD SWAP2 SWAP1 PUSH1 0x0 MSTORE PUSH1 0x20 PUSH1 0x0 KECCAK256 SWAP1 JUMPDEST DUP2 PUSH1 0x0 SWAP1 SLOAD SWAP1 PUSH2 0x100 EXP SWAP1 DIV PUSH20 0xFFFFFFFFFFFFFFFFFFFFFFFFFFFFFFFFFFFFFFFF AND PUSH20 0xFFFFFFFFFFFFFFFFFFFFFFFFFFFFFFFFFFFFFFFF AND DUP2 MSTORE PUSH1 0x20 ADD SWAP1 PUSH1 0x1 ADD SWAP1 DUP1 DUP4 GT PUSH2 0x833 JUMPI JUMPDEST POP POP POP POP POP DUP2 MSTORE POP POP SWAP1 POP SWAP4 SWAP3 POP POP POP JUMP JUMPDEST PUSH1 0x0 DUP1 PUSH1 0x0 SWAP1 SLOAD SWAP1 PUSH2 0x100 EXP SWAP1 DIV PUSH20 0xFFFFFFFFFFFFFFFFFFFFFFFFFFFFFFFFFFFFFFFF AND SWAP1 POP SWAP1 JUMP JUMPDEST TIMESTAMP DUP2 PUSH1 0xC0 ADD MLOAD GT PUSH2 0x8FE JUMPI PUSH1 0x40 MLOAD PUSH32 0x8C379A000000000000000000000000000000000000000000000000000000000 DUP2 MSTORE PUSH1 0x4 ADD PUSH2 0x8F5 SWAP1 PUSH2 0x30D0 JUMP JUMPDEST PUSH1 0x40 MLOAD DUP1 SWAP2 SUB SWAP1 REVERT JUMPDEST PUSH1 0x0 DUP2 PUSH1 0x0 ADD MLOAD SWAP1 POP PUSH1 0x0 DUP3 PUSH1 0x20 ADD MLOAD SWAP1 POP PUSH1 0x0 DUP4 PUSH1 0x40 ADD MLOAD SWAP1 POP PUSH1 0x60 DUP5 PUSH2 0x100 ADD MLOAD SWAP1 POP PUSH1 0x60 DUP6 PUSH2 0x120 ADD MLOAD SWAP1 POP PUSH1 0x60 PUSH2 0x938 DUP8 PUSH2 0x347 JUMP JUMPDEST SWAP1 POP PUSH1 0x0 DUP2 DUP1 MLOAD SWAP1 PUSH1 0x20 ADD KECCAK256 SWAP1 POP PUSH2 0x94E PUSH2 0x1C41 JUMP JUMPDEST PUSH2 0x959 DUP9 DUP9 DUP9 PUSH2 0x741 JUMP JUMPDEST SWAP1 POP PUSH1 0x0 PUSH20 0xFFFFFFFFFFFFFFFFFFFFFFFFFFFFFFFFFFFFFFFF AND DUP7 PUSH20 0xFFFFFFFFFFFFFFFFFFFFFFFFFFFFFFFFFFFFFFFF AND EQ ISZERO PUSH2 0x9CB JUMPI PUSH1 0x40 MLOAD PUSH32 0x8C379A000000000000000000000000000000000000000000000000000000000 DUP2 MSTORE PUSH1 0x4 ADD PUSH2 0x9C2 SWAP1 PUSH2 0x3210 JUMP JUMPDEST PUSH1 0x40 MLOAD DUP1 SWAP2 SUB SWAP1 REVERT JUMPDEST DUP1 PUSH1 0x40 ADD MLOAD PUSH1 0x0 DUP2 MLOAD DUP2 LT PUSH2 0x9DC JUMPI INVALID JUMPDEST PUSH1 0x20 MUL PUSH1 0x20 ADD ADD MLOAD PUSH20 0xFFFFFFFFFFFFFFFFFFFFFFFFFFFFFFFFFFFFFFFF AND DUP7 PUSH20 0xFFFFFFFFFFFFFFFFFFFFFFFFFFFFFFFFFFFFFFFF AND EQ PUSH2 0xA51 JUMPI PUSH1 0x40 MLOAD PUSH32 0x8C379A000000000000000000000000000000000000000000000000000000000 DUP2 MSTORE PUSH1 0x4 ADD PUSH2 0xA48 SWAP1 PUSH2 0x31B0 JUMP JUMPDEST PUSH1 0x40 MLOAD DUP1 SWAP2 SUB SWAP1 REVERT JUMPDEST DUP1 PUSH1 0x20 ADD MLOAD DUP6 MLOAD LT ISZERO PUSH2 0xA99 JUMPI PUSH1 0x40 MLOAD PUSH32 0x8C379A000000000000000000000000000000000000000000000000000000000 DUP2 MSTORE PUSH1 0x4 ADD PUSH2 0xA90 SWAP1 PUSH2 0x32D0 JUMP JUMPDEST PUSH1 0x40 MLOAD DUP1 SWAP2 SUB SWAP1 REVERT JUMPDEST DUP4 MLOAD DUP6 MLOAD EQ PUSH2 0xADD JUMPI PUSH1 0x40 MLOAD PUSH32 0x8C379A000000000000000000000000000000000000000000000000000000000 DUP2 MSTORE PUSH1 0x4 ADD PUSH2 0xAD4 SWAP1 PUSH2 0x3170 JUMP JUMPDEST PUSH1 0x40 MLOAD DUP1 SWAP2 SUB SWAP1 REVERT JUMPDEST PUSH1 0x60 DUP2 PUSH1 0x20 ADD MLOAD PUSH8 0xFFFFFFFFFFFFFFFF DUP2 GT DUP1 ISZERO PUSH2 0xAFA JUMPI PUSH1 0x0 DUP1 REVERT JUMPDEST POP PUSH1 0x40 MLOAD SWAP1 DUP1 DUP3 MSTORE DUP1 PUSH1 0x20 MUL PUSH1 0x20 ADD DUP3 ADD PUSH1 0x40 MSTORE DUP1 ISZERO PUSH2 0xB29 JUMPI DUP2 PUSH1 0x20 ADD PUSH1 0x20 DUP3 MUL DUP1 CALLDATASIZE DUP4 CALLDATACOPY DUP1 DUP3 ADD SWAP2 POP POP SWAP1 POP JUMPDEST POP SWAP1 POP PUSH1 0x0 DUP1 JUMPDEST DUP8 MLOAD DUP2 LT ISZERO PUSH2 0xCEC JUMPI PUSH1 0x0 DUP9 DUP3 DUP2 MLOAD DUP2 LT PUSH2 0xB47 JUMPI INVALID JUMPDEST PUSH1 0x20 MUL PUSH1 0x20 ADD ADD MLOAD SWAP1 POP PUSH32 0xFFFFFFFFFFFFFFFFFFFFFFFFFFFFFFFFFFFFFFFFFFFFFFFFFFFFFFFFFFFFFFFF PUSH2 0xB7C DUP6 DUP4 PUSH2 0x1761 JUMP JUMPDEST EQ DUP1 ISZERO PUSH2 0xBB6 JUMPI POP PUSH32 0xFFFFFFFFFFFFFFFFFFFFFFFFFFFFFFFFFFFFFFFFFFFFFFFFFFFFFFFFFFFFFFFF PUSH2 0xBB3 DUP7 PUSH1 0x40 ADD MLOAD DUP4 PUSH2 0x1761 JUMP JUMPDEST EQ ISZERO JUMPDEST ISZERO PUSH2 0xCDE JUMPI PUSH2 0xBC3 PUSH2 0x1C62 JUMP JUMPDEST DUP9 DUP4 DUP2 MLOAD DUP2 LT PUSH2 0xBCF JUMPI INVALID JUMPDEST PUSH1 0x20 MUL PUSH1 0x20 ADD ADD MLOAD SWAP1 POP PUSH1 0x0 PUSH1 0x1 DUP9 DUP4 PUSH1 0x40 ADD MLOAD DUP5 PUSH1 0x0 ADD MLOAD DUP6 PUSH1 0x20 ADD MLOAD PUSH1 0x40 MLOAD PUSH1 0x0 DUP2 MSTORE PUSH1 0x20 ADD PUSH1 0x40 MSTORE PUSH1 0x40 MLOAD PUSH2 0xC0A SWAP5 SWAP4 SWAP3 SWAP2 SWAP1 PUSH2 0x304E JUMP JUMPDEST PUSH1 0x20 PUSH1 0x40 MLOAD PUSH1 0x20 DUP2 SUB SWAP1 DUP1 DUP5 SUB SWAP1 DUP6 GAS STATICCALL ISZERO DUP1 ISZERO PUSH2 0xC2C JUMPI RETURNDATASIZE PUSH1 0x0 DUP1 RETURNDATACOPY RETURNDATASIZE PUSH1 0x0 REVERT JUMPDEST POP POP POP PUSH1 0x20 PUSH1 0x40 MLOAD SUB MLOAD SWAP1 POP DUP3 PUSH20 0xFFFFFFFFFFFFFFFFFFFFFFFFFFFFFFFFFFFFFFFF AND DUP2 PUSH20 0xFFFFFFFFFFFFFFFFFFFFFFFFFFFFFFFFFFFFFFFF AND EQ ISZERO PUSH2 0xCDB JUMPI DUP3 DUP7 DUP7 DUP2 MLOAD DUP2 LT PUSH2 0xC79 JUMPI INVALID JUMPDEST PUSH1 0x20 MUL PUSH1 0x20 ADD ADD SWAP1 PUSH20 0xFFFFFFFFFFFFFFFFFFFFFFFFFFFFFFFFFFFFFFFF AND SWAP1 DUP2 PUSH20 0xFFFFFFFFFFFFFFFFFFFFFFFFFFFFFFFFFFFFFFFF AND DUP2 MSTORE POP POP DUP5 DUP1 PUSH1 0x1 ADD SWAP6 POP POP DUP7 PUSH1 0x20 ADD MLOAD DUP6 EQ ISZERO PUSH2 0xCDA JUMPI POP POP POP POP POP POP POP POP POP POP POP POP POP POP PUSH2 0xD3E JUMP JUMPDEST JUMPDEST POP POP JUMPDEST POP DUP1 DUP1 PUSH1 0x1 ADD SWAP2 POP POP PUSH2 0xB30 JUMP JUMPDEST POP DUP3 PUSH1 0x20 ADD MLOAD DUP2 EQ PUSH2 0xD33 JUMPI PUSH1 0x40 MLOAD PUSH32 0x8C379A000000000000000000000000000000000000000000000000000000000 DUP2 MSTORE PUSH1 0x4 ADD PUSH2 0xD2A SWAP1 PUSH2 0x30F0 JUMP JUMPDEST PUSH1 0x40 MLOAD DUP1 SWAP2 SUB SWAP1 REVERT JUMPDEST POP POP POP POP POP POP POP POP POP POP JUMPDEST POP JUMP JUMPDEST PUSH1 0x0 PUSH1 0x60 PUSH1 0x0 DUP5 DUP5 DUP2 ADD SWAP1 PUSH2 0xD56 SWAP2 SWAP1 PUSH2 0x24B6 JUMP JUMPDEST DUP1 SWAP3 POP DUP2 SWAP4 POP POP POP PUSH1 0x0 PUSH2 0xD70 PUSH2 0xD6B PUSH2 0xFEB JUMP JUMPDEST PUSH2 0x17FA JUMP JUMPDEST SWAP1 POP PUSH1 0x0 JUMPDEST DUP11 DUP11 SWAP1 POP DUP2 LT ISZERO PUSH2 0xDBF JUMPI PUSH2 0xDB2 DUP3 DUP14 DUP7 DUP15 DUP15 DUP7 DUP2 DUP2 LT PUSH2 0xD92 JUMPI INVALID JUMPDEST SWAP1 POP PUSH1 0x20 MUL ADD CALLDATALOAD DUP14 DUP14 DUP8 DUP2 DUP2 LT PUSH2 0xDA5 JUMPI INVALID JUMPDEST SWAP1 POP PUSH1 0x20 MUL ADD CALLDATALOAD DUP9 PUSH2 0x1931 JUMP JUMPDEST DUP1 DUP1 PUSH1 0x1 ADD SWAP2 POP POP PUSH2 0xD75 JUMP JUMPDEST POP PUSH4 0xBC197C81 PUSH1 0xE0 SHL SWAP4 POP POP POP POP SWAP9 SWAP8 POP POP POP POP POP POP POP POP JUMP JUMPDEST PUSH1 0x0 PUSH1 0x60 PUSH1 0x0 DUP5 DUP5 DUP2 ADD SWAP1 PUSH2 0xDEE SWAP2 SWAP1 PUSH2 0x24B6 JUMP JUMPDEST DUP1 SWAP3 POP DUP2 SWAP4 POP POP POP PUSH2 0xE13 PUSH2 0xE09 PUSH2 0xE04 PUSH2 0xFEB JUMP JUMPDEST PUSH2 0x17FA JUMP JUMPDEST DUP10 DUP5 DUP11 DUP11 DUP7 PUSH2 0x1931 JUMP JUMPDEST PUSH4 0xF23A6E61 PUSH1 0xE0 SHL SWAP3 POP POP POP SWAP7 SWAP6 POP POP POP POP POP POP JUMP JUMPDEST PUSH2 0xE31 PUSH2 0xFEB JUMP JUMPDEST PUSH20 0xFFFFFFFFFFFFFFFFFFFFFFFFFFFFFFFFFFFFFFFF AND PUSH1 0x0 DUP1 SLOAD SWAP1 PUSH2 0x100 EXP SWAP1 DIV PUSH20 0xFFFFFFFFFFFFFFFFFFFFFFFFFFFFFFFFFFFFFFFF AND PUSH20 0xFFFFFFFFFFFFFFFFFFFFFFFFFFFFFFFFFFFFFFFF AND EQ PUSH2 0xEBE JUMPI PUSH1 0x40 MLOAD PUSH32 0x8C379A000000000000000000000000000000000000000000000000000000000 DUP2 MSTORE PUSH1 0x4 ADD PUSH2 0xEB5 SWAP1 PUSH2 0x3230 JUMP JUMPDEST PUSH1 0x40 MLOAD DUP1 SWAP2 SUB SWAP1 REVERT JUMPDEST PUSH1 0x0 PUSH20 0xFFFFFFFFFFFFFFFFFFFFFFFFFFFFFFFFFFFFFFFF AND DUP2 PUSH20 0xFFFFFFFFFFFFFFFFFFFFFFFFFFFFFFFFFFFFFFFF AND EQ ISZERO PUSH2 0xF2E JUMPI PUSH1 0x40 MLOAD PUSH32 0x8C379A000000000000000000000000000000000000000000000000000000000 DUP2 MSTORE PUSH1 0x4 ADD PUSH2 0xF25 SWAP1 PUSH2 0x3130 JUMP JUMPDEST PUSH1 0x40 MLOAD DUP1 SWAP2 SUB SWAP1 REVERT JUMPDEST DUP1 PUSH20 0xFFFFFFFFFFFFFFFFFFFFFFFFFFFFFFFFFFFFFFFF AND PUSH1 0x0 DUP1 SLOAD SWAP1 PUSH2 0x100 EXP SWAP1 DIV PUSH20 0xFFFFFFFFFFFFFFFFFFFFFFFFFFFFFFFFFFFFFFFF AND PUSH20 0xFFFFFFFFFFFFFFFFFFFFFFFFFFFFFFFFFFFFFFFF AND PUSH32 0x8BE0079C531659141344CD1FD0A4F28419497F9722A3DAAFE3B4186F6B6457E0 PUSH1 0x40 MLOAD PUSH1 0x40 MLOAD DUP1 SWAP2 SUB SWAP1 LOG3 DUP1 PUSH1 0x0 DUP1 PUSH2 0x100 EXP DUP2 SLOAD DUP2 PUSH20 0xFFFFFFFFFFFFFFFFFFFFFFFFFFFFFFFFFFFFFFFF MUL NOT AND SWAP1 DUP4 PUSH20 0xFFFFFFFFFFFFFFFFFFFFFFFFFFFFFFFFFFFFFFFF AND MUL OR SWAP1 SSTORE POP POP JUMP JUMPDEST PUSH1 0x0 CALLER SWAP1 POP SWAP1 JUMP JUMPDEST PUSH1 0x0 PUSH1 0x2 PUSH1 0x0 DUP7 PUSH20 0xFFFFFFFFFFFFFFFFFFFFFFFFFFFFFFFFFFFFFFFF AND PUSH20 0xFFFFFFFFFFFFFFFFFFFFFFFFFFFFFFFFFFFFFFFF AND DUP2 MSTORE PUSH1 0x20 ADD SWAP1 DUP2 MSTORE PUSH1 0x20 ADD PUSH1 0x0 KECCAK256 PUSH1 0x0 DUP6 DUP2 MSTORE PUSH1 0x20 ADD SWAP1 DUP2 MSTORE PUSH1 0x20 ADD PUSH1 0x0 KECCAK256 SWAP1 POP PUSH1 0x0 DUP2 PUSH1 0x1 ADD PUSH1 0x0 DUP10 PUSH20 0xFFFFFFFFFFFFFFFFFFFFFFFFFFFFFFFFFFFFFFFF AND PUSH20 0xFFFFFFFFFFFFFFFFFFFFFFFFFFFFFFFFFFFFFFFF AND DUP2 MSTORE PUSH1 0x20 ADD SWAP1 DUP2 MSTORE PUSH1 0x20 ADD PUSH1 0x0 KECCAK256 SWAP1 POP DUP1 PUSH1 0x0 ADD SLOAD DUP5 GT ISZERO PUSH2 0x10D3 JUMPI PUSH1 0x40 MLOAD PUSH32 0x8C379A000000000000000000000000000000000000000000000000000000000 DUP2 MSTORE PUSH1 0x4 ADD PUSH2 0x10CA SWAP1 PUSH2 0x3290 JUMP JUMPDEST PUSH1 0x40 MLOAD DUP1 SWAP2 SUB SWAP1 REVERT JUMPDEST PUSH1 0x0 DUP5 GT PUSH2 0x1116 JUMPI PUSH1 0x40 MLOAD PUSH32 0x8C379A000000000000000000000000000000000000000000000000000000000 DUP2 MSTORE PUSH1 0x4 ADD PUSH2 0x110D SWAP1 PUSH2 0x3150 JUMP JUMPDEST PUSH1 0x40 MLOAD DUP1 SWAP2 SUB SWAP1 REVERT JUMPDEST PUSH1 0x0 DUP5 DUP3 PUSH1 0x0 ADD SLOAD SUB SWAP1 POP DUP1 DUP3 PUSH1 0x0 ADD DUP2 SWAP1 SSTORE POP DUP5 DUP4 PUSH1 0x0 ADD PUSH1 0x0 DUP3 DUP3 SLOAD SUB SWAP3 POP POP DUP2 SWAP1 SSTORE POP DUP7 PUSH20 0xFFFFFFFFFFFFFFFFFFFFFFFFFFFFFFFFFFFFFFFF AND PUSH4 0xF242432A ADDRESS DUP11 DUP10 DUP10 DUP10 PUSH1 0x40 MLOAD DUP7 PUSH4 0xFFFFFFFF AND PUSH1 0xE0 SHL DUP2 MSTORE PUSH1 0x4 ADD PUSH2 0x117D SWAP6 SWAP5 SWAP4 SWAP3 SWAP2 SWAP1 PUSH2 0x2E7F JUMP JUMPDEST PUSH1 0x0 PUSH1 0x40 MLOAD DUP1 DUP4 SUB DUP2 PUSH1 0x0 DUP8 DUP1 EXTCODESIZE ISZERO DUP1 ISZERO PUSH2 0x1197 JUMPI PUSH1 0x0 DUP1 REVERT JUMPDEST POP GAS CALL ISZERO DUP1 ISZERO PUSH2 0x11AB JUMPI RETURNDATASIZE PUSH1 0x0 DUP1 RETURNDATACOPY RETURNDATASIZE PUSH1 0x0 REVERT JUMPDEST POP POP POP POP PUSH1 0x0 DUP2 EQ ISZERO PUSH2 0x121D JUMPI DUP3 PUSH1 0x1 ADD PUSH1 0x0 DUP11 PUSH20 0xFFFFFFFFFFFFFFFFFFFFFFFFFFFFFFFFFFFFFFFF AND PUSH20 0xFFFFFFFFFFFFFFFFFFFFFFFFFFFFFFFFFFFFFFFF AND DUP2 MSTORE PUSH1 0x20 ADD SWAP1 DUP2 MSTORE PUSH1 0x20 ADD PUSH1 0x0 KECCAK256 PUSH1 0x0 DUP1 DUP3 ADD PUSH1 0x0 SWAP1 SSTORE PUSH1 0x1 DUP3 ADD PUSH1 0x0 SWAP1 SSTORE PUSH1 0x2 DUP3 ADD PUSH1 0x0 PUSH2 0x121A SWAP2 SWAP1 PUSH2 0x1C8C JUMP JUMPDEST POP POP JUMPDEST PUSH1 0x0 DUP4 PUSH1 0x0 ADD SLOAD EQ ISZERO PUSH2 0x1286 JUMPI PUSH1 0x2 PUSH1 0x0 DUP9 PUSH20 0xFFFFFFFFFFFFFFFFFFFFFFFFFFFFFFFFFFFFFFFF AND PUSH20 0xFFFFFFFFFFFFFFFFFFFFFFFFFFFFFFFFFFFFFFFF AND DUP2 MSTORE PUSH1 0x20 ADD SWAP1 DUP2 MSTORE PUSH1 0x20 ADD PUSH1 0x0 KECCAK256 PUSH1 0x0 DUP8 DUP2 MSTORE PUSH1 0x20 ADD SWAP1 DUP2 MSTORE PUSH1 0x20 ADD PUSH1 0x0 KECCAK256 PUSH1 0x0 DUP1 DUP3 ADD PUSH1 0x0 SWAP1 SSTORE POP POP JUMPDEST DUP6 PUSH1 0x0 PUSH20 0xFFFFFFFFFFFFFFFFFFFFFFFFFFFFFFFFFFFFFFFF AND DUP11 PUSH20 0xFFFFFFFFFFFFFFFFFFFFFFFFFFFFFFFFFFFFFFFF AND PUSH32 0x737AB30B9CD3DDAE02069F3057591007FAF2305652D04C2582F7F1F6185D9711 DUP11 DUP6 PUSH1 0x0 PUSH1 0x40 MLOAD PUSH2 0x12EA SWAP4 SWAP3 SWAP2 SWAP1 PUSH2 0x2FC5 JUMP JUMPDEST PUSH1 0x40 MLOAD DUP1 SWAP2 SUB SWAP1 LOG4 POP POP POP POP POP POP POP POP POP JUMP JUMPDEST PUSH2 0x1305 PUSH2 0x1C41 JUMP JUMPDEST PUSH1 0x0 PUSH2 0x1310 DUP5 PUSH2 0x1B94 JUMP JUMPDEST SWAP1 POP PUSH2 0x131A PUSH2 0x1C41 JUMP JUMPDEST PUSH2 0x1325 DUP8 DUP8 DUP5 PUSH2 0x741 JUMP JUMPDEST SWAP1 POP PUSH1 0x0 DUP2 PUSH1 0x40 ADD MLOAD MLOAD EQ ISZERO PUSH2 0x1398 JUMPI DUP5 MLOAD DUP5 GT ISZERO PUSH2 0x1379 JUMPI PUSH1 0x40 MLOAD PUSH32 0x8C379A000000000000000000000000000000000000000000000000000000000 DUP2 MSTORE PUSH1 0x4 ADD PUSH2 0x1370 SWAP1 PUSH2 0x32F0 JUMP JUMPDEST PUSH1 0x40 MLOAD DUP1 SWAP2 SUB SWAP1 REVERT JUMPDEST PUSH1 0x1 DUP2 PUSH1 0x0 ADD DUP2 DUP2 MSTORE POP POP DUP5 DUP2 PUSH1 0x40 ADD DUP2 SWAP1 MSTORE POP DUP4 DUP2 PUSH1 0x20 ADD DUP2 DUP2 MSTORE POP POP JUMPDEST DUP1 SWAP3 POP POP POP SWAP5 SWAP4 POP POP POP POP JUMP JUMPDEST PUSH1 0x0 PUSH1 0x2 PUSH1 0x0 DUP6 PUSH20 0xFFFFFFFFFFFFFFFFFFFFFFFFFFFFFFFFFFFFFFFF AND PUSH20 0xFFFFFFFFFFFFFFFFFFFFFFFFFFFFFFFFFFFFFFFF AND DUP2 MSTORE PUSH1 0x20 ADD SWAP1 DUP2 MSTORE PUSH1 0x20 ADD PUSH1 0x0 KECCAK256 PUSH1 0x0 DUP5 DUP2 MSTORE PUSH1 0x20 ADD SWAP1 DUP2 MSTORE PUSH1 0x20 ADD PUSH1 0x0 KECCAK256 SWAP1 POP DUP1 PUSH1 0x1 ADD PUSH1 0x0 DUP8 PUSH20 0xFFFFFFFFFFFFFFFFFFFFFFFFFFFFFFFFFFFFFFFF AND PUSH20 0xFFFFFFFFFFFFFFFFFFFFFFFFFFFFFFFFFFFFFFFF AND DUP2 MSTORE PUSH1 0x20 ADD SWAP1 DUP2 MSTORE PUSH1 0x20 ADD PUSH1 0x0 KECCAK256 PUSH1 0x0 ADD SLOAD DUP3 GT ISZERO PUSH2 0x1480 JUMPI PUSH1 0x40 MLOAD PUSH32 0x8C379A000000000000000000000000000000000000000000000000000000000 DUP2 MSTORE PUSH1 0x4 ADD PUSH2 0x1477 SWAP1 PUSH2 0x3190 JUMP JUMPDEST PUSH1 0x40 MLOAD DUP1 SWAP2 SUB SWAP1 REVERT JUMPDEST PUSH1 0x0 DUP3 GT PUSH2 0x14C3 JUMPI PUSH1 0x40 MLOAD PUSH32 0x8C379A000000000000000000000000000000000000000000000000000000000 DUP2 MSTORE PUSH1 0x4 ADD PUSH2 0x14BA SWAP1 PUSH2 0x3110 JUMP JUMPDEST PUSH1 0x40 MLOAD DUP1 SWAP2 SUB SWAP1 REVERT JUMPDEST PUSH1 0x0 DUP6 PUSH1 0x40 ADD MLOAD PUSH1 0x0 DUP2 MLOAD DUP2 LT PUSH2 0x14D6 JUMPI INVALID JUMPDEST PUSH1 0x20 MUL PUSH1 0x20 ADD ADD MLOAD SWAP1 POP PUSH1 0x0 DUP4 DUP4 PUSH1 0x1 ADD PUSH1 0x0 DUP11 PUSH20 0xFFFFFFFFFFFFFFFFFFFFFFFFFFFFFFFFFFFFFFFF AND PUSH20 0xFFFFFFFFFFFFFFFFFFFFFFFFFFFFFFFFFFFFFFFF AND DUP2 MSTORE PUSH1 0x20 ADD SWAP1 DUP2 MSTORE PUSH1 0x20 ADD PUSH1 0x0 KECCAK256 PUSH1 0x0 ADD SLOAD SUB SWAP1 POP PUSH1 0x0 DUP5 DUP5 PUSH1 0x1 ADD PUSH1 0x0 DUP6 PUSH20 0xFFFFFFFFFFFFFFFFFFFFFFFFFFFFFFFFFFFFFFFF AND PUSH20 0xFFFFFFFFFFFFFFFFFFFFFFFFFFFFFFFFFFFFFFFF AND DUP2 MSTORE PUSH1 0x20 ADD SWAP1 DUP2 MSTORE PUSH1 0x20 ADD PUSH1 0x0 KECCAK256 PUSH1 0x0 ADD SLOAD ADD SWAP1 POP DUP2 DUP5 PUSH1 0x1 ADD PUSH1 0x0 DUP12 PUSH20 0xFFFFFFFFFFFFFFFFFFFFFFFFFFFFFFFFFFFFFFFF AND PUSH20 0xFFFFFFFFFFFFFFFFFFFFFFFFFFFFFFFFFFFFFFFF AND DUP2 MSTORE PUSH1 0x20 ADD SWAP1 DUP2 MSTORE PUSH1 0x20 ADD PUSH1 0x0 KECCAK256 PUSH1 0x0 ADD DUP2 SWAP1 SSTORE POP DUP8 DUP5 PUSH1 0x1 ADD PUSH1 0x0 DUP6 PUSH20 0xFFFFFFFFFFFFFFFFFFFFFFFFFFFFFFFFFFFFFFFF AND PUSH20 0xFFFFFFFFFFFFFFFFFFFFFFFFFFFFFFFFFFFFFFFF AND DUP2 MSTORE PUSH1 0x20 ADD SWAP1 DUP2 MSTORE PUSH1 0x20 ADD PUSH1 0x0 KECCAK256 PUSH1 0x0 DUP3 ADD MLOAD DUP2 PUSH1 0x0 ADD SSTORE PUSH1 0x20 DUP3 ADD MLOAD DUP2 PUSH1 0x1 ADD SSTORE PUSH1 0x40 DUP3 ADD MLOAD DUP2 PUSH1 0x2 ADD SWAP1 DUP1 MLOAD SWAP1 PUSH1 0x20 ADD SWAP1 PUSH2 0x1631 SWAP3 SWAP2 SWAP1 PUSH2 0x1CAD JUMP JUMPDEST POP SWAP1 POP POP DUP1 DUP5 PUSH1 0x1 ADD PUSH1 0x0 DUP6 PUSH20 0xFFFFFFFFFFFFFFFFFFFFFFFFFFFFFFFFFFFFFFFF AND PUSH20 0xFFFFFFFFFFFFFFFFFFFFFFFFFFFFFFFFFFFFFFFF AND DUP2 MSTORE PUSH1 0x20 ADD SWAP1 DUP2 MSTORE PUSH1 0x20 ADD PUSH1 0x0 KECCAK256 PUSH1 0x0 ADD DUP2 SWAP1 SSTORE POP PUSH1 0x0 DUP3 EQ ISZERO PUSH2 0x16EC JUMPI DUP4 PUSH1 0x1 ADD PUSH1 0x0 DUP11 PUSH20 0xFFFFFFFFFFFFFFFFFFFFFFFFFFFFFFFFFFFFFFFF AND PUSH20 0xFFFFFFFFFFFFFFFFFFFFFFFFFFFFFFFFFFFFFFFF AND DUP2 MSTORE PUSH1 0x20 ADD SWAP1 DUP2 MSTORE PUSH1 0x20 ADD PUSH1 0x0 KECCAK256 PUSH1 0x0 DUP1 DUP3 ADD PUSH1 0x0 SWAP1 SSTORE PUSH1 0x1 DUP3 ADD PUSH1 0x0 SWAP1 SSTORE PUSH1 0x2 DUP3 ADD PUSH1 0x0 PUSH2 0x16E9 SWAP2 SWAP1 PUSH2 0x1C8C JUMP JUMPDEST POP POP JUMPDEST DUP6 DUP4 PUSH20 0xFFFFFFFFFFFFFFFFFFFFFFFFFFFFFFFFFFFFFFFF AND DUP11 PUSH20 0xFFFFFFFFFFFFFFFFFFFFFFFFFFFFFFFFFFFFFFFF AND PUSH32 0x737AB30B9CD3DDAE02069F3057591007FAF2305652D04C2582F7F1F6185D9711 DUP11 DUP7 DUP7 PUSH1 0x40 MLOAD PUSH2 0x174E SWAP4 SWAP3 SWAP2 SWAP1 PUSH2 0x2FFC JUMP JUMPDEST PUSH1 0x40 MLOAD DUP1 SWAP2 SUB SWAP1 LOG4 POP POP POP POP POP POP POP POP POP JUMP JUMPDEST PUSH1 0x0 DUP1 PUSH1 0x0 SWAP1 POP JUMPDEST DUP4 MLOAD DUP2 LT ISZERO PUSH2 0x17CF JUMPI DUP3 PUSH20 0xFFFFFFFFFFFFFFFFFFFFFFFFFFFFFFFFFFFFFFFF AND DUP5 DUP3 DUP2 MLOAD DUP2 LT PUSH2 0x1795 JUMPI INVALID JUMPDEST PUSH1 0x20 MUL PUSH1 0x20 ADD ADD MLOAD PUSH20 0xFFFFFFFFFFFFFFFFFFFFFFFFFFFFFFFFFFFFFFFF AND EQ ISZERO PUSH2 0x17C2 JUMPI DUP1 SWAP2 POP POP PUSH2 0x17F4 JUMP JUMPDEST DUP1 DUP1 PUSH1 0x1 ADD SWAP2 POP POP PUSH2 0x1769 JUMP JUMPDEST POP PUSH32 0xFFFFFFFFFFFFFFFFFFFFFFFFFFFFFFFFFFFFFFFFFFFFFFFFFFFFFFFFFFFFFFFF SWAP1 POP JUMPDEST SWAP3 SWAP2 POP POP JUMP JUMPDEST PUSH1 0x0 PUSH2 0x181B DUP3 PUSH20 0xFFFFFFFFFFFFFFFFFFFFFFFFFFFFFFFFFFFFFFFF AND PUSH2 0x1BF6 JUMP JUMPDEST PUSH2 0x185A JUMPI PUSH1 0x40 MLOAD PUSH32 0x8C379A000000000000000000000000000000000000000000000000000000000 DUP2 MSTORE PUSH1 0x4 ADD PUSH2 0x1851 SWAP1 PUSH2 0x32B0 JUMP JUMPDEST PUSH1 0x40 MLOAD DUP1 SWAP2 SUB SWAP1 REVERT JUMPDEST DUP2 PUSH20 0xFFFFFFFFFFFFFFFFFFFFFFFFFFFFFFFFFFFFFFFF AND PUSH4 0x1FFC9A7 PUSH4 0xD9B67A26 PUSH1 0xE0 SHL PUSH1 0x40 MLOAD DUP3 PUSH4 0xFFFFFFFF AND PUSH1 0xE0 SHL DUP2 MSTORE PUSH1 0x4 ADD PUSH2 0x189A SWAP2 SWAP1 PUSH2 0x3093 JUMP JUMPDEST PUSH1 0x20 PUSH1 0x40 MLOAD DUP1 DUP4 SUB DUP2 DUP7 DUP1 EXTCODESIZE ISZERO DUP1 ISZERO PUSH2 0x18B2 JUMPI PUSH1 0x0 DUP1 REVERT JUMPDEST POP GAS STATICCALL ISZERO DUP1 ISZERO PUSH2 0x18C6 JUMPI RETURNDATASIZE PUSH1 0x0 DUP1 RETURNDATACOPY RETURNDATASIZE PUSH1 0x0 REVERT JUMPDEST POP POP POP POP PUSH1 0x40 MLOAD RETURNDATASIZE PUSH1 0x1F NOT PUSH1 0x1F DUP3 ADD AND DUP3 ADD DUP1 PUSH1 0x40 MSTORE POP DUP2 ADD SWAP1 PUSH2 0x18EA SWAP2 SWAP1 PUSH2 0x250A JUMP JUMPDEST PUSH2 0x1929 JUMPI PUSH1 0x40 MLOAD PUSH32 0x8C379A000000000000000000000000000000000000000000000000000000000 DUP2 MSTORE PUSH1 0x4 ADD PUSH2 0x1920 SWAP1 PUSH2 0x31F0 JUMP JUMPDEST PUSH1 0x40 MLOAD DUP1 SWAP2 SUB SWAP1 REVERT JUMPDEST DUP2 SWAP1 POP SWAP2 SWAP1 POP JUMP JUMPDEST PUSH1 0x0 PUSH1 0x2 PUSH1 0x0 DUP9 PUSH20 0xFFFFFFFFFFFFFFFFFFFFFFFFFFFFFFFFFFFFFFFF AND PUSH20 0xFFFFFFFFFFFFFFFFFFFFFFFFFFFFFFFFFFFFFFFF AND DUP2 MSTORE PUSH1 0x20 ADD SWAP1 DUP2 MSTORE PUSH1 0x20 ADD PUSH1 0x0 KECCAK256 PUSH1 0x0 DUP6 DUP2 MSTORE PUSH1 0x20 ADD SWAP1 DUP2 MSTORE PUSH1 0x20 ADD PUSH1 0x0 KECCAK256 SWAP1 POP DUP3 DUP2 PUSH1 0x0 ADD SLOAD ADD DUP8 PUSH20 0xFFFFFFFFFFFFFFFFFFFFFFFFFFFFFFFFFFFFFFFF AND PUSH3 0xFDD58E ADDRESS DUP8 PUSH1 0x40 MLOAD DUP4 PUSH4 0xFFFFFFFF AND PUSH1 0xE0 SHL DUP2 MSTORE PUSH1 0x4 ADD PUSH2 0x19C6 SWAP3 SWAP2 SWAP1 PUSH2 0x2F10 JUMP JUMPDEST PUSH1 0x20 PUSH1 0x40 MLOAD DUP1 DUP4 SUB DUP2 DUP7 DUP1 EXTCODESIZE ISZERO DUP1 ISZERO PUSH2 0x19DE JUMPI PUSH1 0x0 DUP1 REVERT JUMPDEST POP GAS STATICCALL ISZERO DUP1 ISZERO PUSH2 0x19F2 JUMPI RETURNDATASIZE PUSH1 0x0 DUP1 RETURNDATACOPY RETURNDATASIZE PUSH1 0x0 REVERT JUMPDEST POP POP POP POP PUSH1 0x40 MLOAD RETURNDATASIZE PUSH1 0x1F NOT PUSH1 0x1F DUP3 ADD AND DUP3 ADD DUP1 PUSH1 0x40 MSTORE POP DUP2 ADD SWAP1 PUSH2 0x1A16 SWAP2 SWAP1 PUSH2 0x259D JUMP JUMPDEST LT ISZERO PUSH2 0x1A57 JUMPI PUSH1 0x40 MLOAD PUSH32 0x8C379A000000000000000000000000000000000000000000000000000000000 DUP2 MSTORE PUSH1 0x4 ADD PUSH2 0x1A4E SWAP1 PUSH2 0x3270 JUMP JUMPDEST PUSH1 0x40 MLOAD DUP1 SWAP2 SUB SWAP1 REVERT JUMPDEST PUSH2 0x1A5F PUSH2 0x1C41 JUMP JUMPDEST PUSH2 0x1A6B DUP9 DUP7 DUP9 DUP7 PUSH2 0x12FD JUMP JUMPDEST SWAP1 POP PUSH1 0x0 DUP7 PUSH1 0x0 DUP2 MLOAD DUP2 LT PUSH2 0x1A7C JUMPI INVALID JUMPDEST PUSH1 0x20 MUL PUSH1 0x20 ADD ADD MLOAD SWAP1 POP PUSH1 0x0 DUP4 PUSH1 0x1 ADD PUSH1 0x0 DUP4 PUSH20 0xFFFFFFFFFFFFFFFFFFFFFFFFFFFFFFFFFFFFFFFF AND PUSH20 0xFFFFFFFFFFFFFFFFFFFFFFFFFFFFFFFFFFFFFFFF AND DUP2 MSTORE PUSH1 0x20 ADD SWAP1 DUP2 MSTORE PUSH1 0x20 ADD PUSH1 0x0 KECCAK256 SWAP1 POP PUSH1 0x0 DUP7 DUP3 PUSH1 0x0 ADD SLOAD ADD SWAP1 POP DUP1 DUP3 PUSH1 0x0 ADD DUP2 SWAP1 SSTORE POP DUP4 PUSH1 0x40 ADD MLOAD DUP3 PUSH1 0x2 ADD SWAP1 DUP1 MLOAD SWAP1 PUSH1 0x20 ADD SWAP1 PUSH2 0x1AFB SWAP3 SWAP2 SWAP1 PUSH2 0x1CAD JUMP JUMPDEST POP DUP4 PUSH1 0x20 ADD MLOAD DUP3 PUSH1 0x1 ADD DUP2 SWAP1 SSTORE POP DUP7 DUP6 PUSH1 0x0 ADD PUSH1 0x0 DUP3 DUP3 SLOAD ADD SWAP3 POP POP DUP2 SWAP1 SSTORE POP DUP8 DUP4 PUSH20 0xFFFFFFFFFFFFFFFFFFFFFFFFFFFFFFFFFFFFFFFF AND PUSH1 0x0 PUSH20 0xFFFFFFFFFFFFFFFFFFFFFFFFFFFFFFFFFFFFFFFF AND PUSH32 0x737AB30B9CD3DDAE02069F3057591007FAF2305652D04C2582F7F1F6185D9711 DUP15 PUSH1 0x0 DUP7 PUSH1 0x40 MLOAD PUSH2 0x1B7F SWAP4 SWAP3 SWAP2 SWAP1 PUSH2 0x2ED9 JUMP JUMPDEST PUSH1 0x40 MLOAD DUP1 SWAP2 SUB SWAP1 LOG4 POP POP POP POP POP POP POP POP POP POP POP JUMP JUMPDEST PUSH1 0x0 DUP1 DUP3 MLOAD EQ ISZERO PUSH2 0x1BDA JUMPI PUSH1 0x40 MLOAD PUSH32 0x8C379A000000000000000000000000000000000000000000000000000000000 DUP2 MSTORE PUSH1 0x4 ADD PUSH2 0x1BD1 SWAP1 PUSH2 0x31D0 JUMP JUMPDEST PUSH1 0x40 MLOAD DUP1 SWAP2 SUB SWAP1 REVERT JUMPDEST DUP2 PUSH1 0x0 DUP2 MLOAD DUP2 LT PUSH2 0x1BE7 JUMPI INVALID JUMPDEST PUSH1 0x20 MUL PUSH1 0x20 ADD ADD MLOAD SWAP1 POP SWAP2 SWAP1 POP JUMP JUMPDEST PUSH1 0x0 DUP1 PUSH1 0x0 PUSH32 0xC5D2460186F7233C927E7DB2DCC703C0E500B653CA82273B7BFAD8045D85A470 PUSH1 0x0 SHL SWAP1 POP DUP4 EXTCODEHASH SWAP2 POP DUP1 DUP3 EQ ISZERO DUP1 ISZERO PUSH2 0x1C38 JUMPI POP PUSH1 0x0 DUP1 SHL DUP3 EQ ISZERO JUMPDEST SWAP3 POP POP POP SWAP2 SWAP1 POP JUMP JUMPDEST PUSH1 0x40 MLOAD DUP1 PUSH1 0x60 ADD PUSH1 0x40 MSTORE DUP1 PUSH1 0x0 DUP2 MSTORE PUSH1 0x20 ADD PUSH1 0x0 DUP2 MSTORE PUSH1 0x20 ADD PUSH1 0x60 DUP2 MSTORE POP SWAP1 JUMP JUMPDEST PUSH1 0x40 MLOAD DUP1 PUSH1 0x60 ADD PUSH1 0x40 MSTORE DUP1 PUSH1 0x0 DUP1 NOT AND DUP2 MSTORE PUSH1 0x20 ADD PUSH1 0x0 DUP1 NOT AND DUP2 MSTORE PUSH1 0x20 ADD PUSH1 0x0 PUSH1 0xFF AND DUP2 MSTORE POP SWAP1 JUMP JUMPDEST POP DUP1 SLOAD PUSH1 0x0 DUP3 SSTORE SWAP1 PUSH1 0x0 MSTORE PUSH1 0x20 PUSH1 0x0 KECCAK256 SWAP1 DUP2 ADD SWAP1 PUSH2 0x1CAA SWAP2 SWAP1 PUSH2 0x1D37 JUMP JUMPDEST POP JUMP JUMPDEST DUP3 DUP1 SLOAD DUP3 DUP3 SSTORE SWAP1 PUSH1 0x0 MSTORE PUSH1 0x20 PUSH1 0x0 KECCAK256 SWAP1 DUP2 ADD SWAP3 DUP3 ISZERO PUSH2 0x1D26 JUMPI SWAP2 PUSH1 0x20 MUL DUP3 ADD JUMPDEST DUP3 DUP2 GT ISZERO PUSH2 0x1D25 JUMPI DUP3 MLOAD DUP3 PUSH1 0x0 PUSH2 0x100 EXP DUP2 SLOAD DUP2 PUSH20 0xFFFFFFFFFFFFFFFFFFFFFFFFFFFFFFFFFFFFFFFF MUL NOT AND SWAP1 DUP4 PUSH20 0xFFFFFFFFFFFFFFFFFFFFFFFFFFFFFFFFFFFFFFFF AND MUL OR SWAP1 SSTORE POP SWAP2 PUSH1 0x20 ADD SWAP2 SWAP1 PUSH1 0x1 ADD SWAP1 PUSH2 0x1CCD JUMP JUMPDEST JUMPDEST POP SWAP1 POP PUSH2 0x1D33 SWAP2 SWAP1 PUSH2 0x1D54 JUMP JUMPDEST POP SWAP1 JUMP JUMPDEST JUMPDEST DUP1 DUP3 GT ISZERO PUSH2 0x1D50 JUMPI PUSH1 0x0 DUP2 PUSH1 0x0 SWAP1 SSTORE POP PUSH1 0x1 ADD PUSH2 0x1D38 JUMP JUMPDEST POP SWAP1 JUMP JUMPDEST JUMPDEST DUP1 DUP3 GT ISZERO PUSH2 0x1D8B JUMPI PUSH1 0x0 DUP2 DUP2 PUSH2 0x100 EXP DUP2 SLOAD SWAP1 PUSH20 0xFFFFFFFFFFFFFFFFFFFFFFFFFFFFFFFFFFFFFFFF MUL NOT AND SWAP1 SSTORE POP PUSH1 0x1 ADD PUSH2 0x1D55 JUMP JUMPDEST POP SWAP1 JUMP JUMPDEST PUSH1 0x0 DUP2 CALLDATALOAD SWAP1 POP PUSH2 0x1D9E DUP2 PUSH2 0x355D JUMP JUMPDEST SWAP3 SWAP2 POP POP JUMP JUMPDEST PUSH1 0x0 DUP3 PUSH1 0x1F DUP4 ADD SLT PUSH2 0x1DB5 JUMPI PUSH1 0x0 DUP1 REVERT JUMPDEST DUP2 CALLDATALOAD PUSH2 0x1DC8 PUSH2 0x1DC3 DUP3 PUSH2 0x337A JUMP JUMPDEST PUSH2 0x334D JUMP JUMPDEST SWAP2 POP DUP2 DUP2 DUP4 MSTORE PUSH1 0x20 DUP5 ADD SWAP4 POP PUSH1 0x20 DUP2 ADD SWAP1 POP DUP4 DUP6 PUSH1 0x20 DUP5 MUL DUP3 ADD GT ISZERO PUSH2 0x1DED JUMPI PUSH1 0x0 DUP1 REVERT JUMPDEST PUSH1 0x0 JUMPDEST DUP4 DUP2 LT ISZERO PUSH2 0x1E1D JUMPI DUP2 PUSH2 0x1E03 DUP9 DUP3 PUSH2 0x1D8F JUMP JUMPDEST DUP5 MSTORE PUSH1 0x20 DUP5 ADD SWAP4 POP PUSH1 0x20 DUP4 ADD SWAP3 POP POP PUSH1 0x1 DUP2 ADD SWAP1 POP PUSH2 0x1DF0 JUMP JUMPDEST POP POP POP POP SWAP3 SWAP2 POP POP JUMP JUMPDEST PUSH1 0x0 DUP3 PUSH1 0x1F DUP4 ADD SLT PUSH2 0x1E38 JUMPI PUSH1 0x0 DUP1 REVERT JUMPDEST DUP2 CALLDATALOAD PUSH2 0x1E4B PUSH2 0x1E46 DUP3 PUSH2 0x33A2 JUMP JUMPDEST PUSH2 0x334D JUMP JUMPDEST SWAP2 POP DUP2 DUP2 DUP4 MSTORE PUSH1 0x20 DUP5 ADD SWAP4 POP PUSH1 0x20 DUP2 ADD SWAP1 POP DUP4 DUP6 PUSH1 0x60 DUP5 MUL DUP3 ADD GT ISZERO PUSH2 0x1E70 JUMPI PUSH1 0x0 DUP1 REVERT JUMPDEST PUSH1 0x0 JUMPDEST DUP4 DUP2 LT ISZERO PUSH2 0x1EA0 JUMPI DUP2 PUSH2 0x1E86 DUP9 DUP3 PUSH2 0x1FD1 JUMP JUMPDEST DUP5 MSTORE PUSH1 0x20 DUP5 ADD SWAP4 POP PUSH1 0x60 DUP4 ADD SWAP3 POP POP PUSH1 0x1 DUP2 ADD SWAP1 POP PUSH2 0x1E73 JUMP JUMPDEST POP POP POP POP SWAP3 SWAP2 POP POP JUMP JUMPDEST PUSH1 0x0 DUP1 DUP4 PUSH1 0x1F DUP5 ADD SLT PUSH2 0x1EBC JUMPI PUSH1 0x0 DUP1 REVERT JUMPDEST DUP3 CALLDATALOAD SWAP1 POP PUSH8 0xFFFFFFFFFFFFFFFF DUP2 GT ISZERO PUSH2 0x1ED5 JUMPI PUSH1 0x0 DUP1 REVERT JUMPDEST PUSH1 0x20 DUP4 ADD SWAP2 POP DUP4 PUSH1 0x20 DUP3 MUL DUP4 ADD GT ISZERO PUSH2 0x1EED JUMPI PUSH1 0x0 DUP1 REVERT JUMPDEST SWAP3 POP SWAP3 SWAP1 POP JUMP JUMPDEST PUSH1 0x0 DUP2 MLOAD SWAP1 POP PUSH2 0x1F03 DUP2 PUSH2 0x3574 JUMP JUMPDEST SWAP3 SWAP2 POP POP JUMP JUMPDEST PUSH1 0x0 DUP2 CALLDATALOAD SWAP1 POP PUSH2 0x1F18 DUP2 PUSH2 0x358B JUMP JUMPDEST SWAP3 SWAP2 POP POP JUMP JUMPDEST PUSH1 0x0 DUP2 CALLDATALOAD SWAP1 POP PUSH2 0x1F2D DUP2 PUSH2 0x35A2 JUMP JUMPDEST SWAP3 SWAP2 POP POP JUMP JUMPDEST PUSH1 0x0 DUP1 DUP4 PUSH1 0x1F DUP5 ADD SLT PUSH2 0x1F45 JUMPI PUSH1 0x0 DUP1 REVERT JUMPDEST DUP3 CALLDATALOAD SWAP1 POP PUSH8 0xFFFFFFFFFFFFFFFF DUP2 GT ISZERO PUSH2 0x1F5E JUMPI PUSH1 0x0 DUP1 REVERT JUMPDEST PUSH1 0x20 DUP4 ADD SWAP2 POP DUP4 PUSH1 0x1 DUP3 MUL DUP4 ADD GT ISZERO PUSH2 0x1F76 JUMPI PUSH1 0x0 DUP1 REVERT JUMPDEST SWAP3 POP SWAP3 SWAP1 POP JUMP JUMPDEST PUSH1 0x0 DUP3 PUSH1 0x1F DUP4 ADD SLT PUSH2 0x1F8E JUMPI PUSH1 0x0 DUP1 REVERT JUMPDEST DUP2 CALLDATALOAD PUSH2 0x1FA1 PUSH2 0x1F9C DUP3 PUSH2 0x33CA JUMP JUMPDEST PUSH2 0x334D JUMP JUMPDEST SWAP2 POP DUP1 DUP3 MSTORE PUSH1 0x20 DUP4 ADD PUSH1 0x20 DUP4 ADD DUP6 DUP4 DUP4 ADD GT ISZERO PUSH2 0x1FBD JUMPI PUSH1 0x0 DUP1 REVERT JUMPDEST PUSH2 0x1FC8 DUP4 DUP3 DUP5 PUSH2 0x350A JUMP JUMPDEST POP POP POP SWAP3 SWAP2 POP POP JUMP JUMPDEST PUSH1 0x0 PUSH1 0x60 DUP3 DUP5 SUB SLT ISZERO PUSH2 0x1FE3 JUMPI PUSH1 0x0 DUP1 REVERT JUMPDEST PUSH2 0x1FED PUSH1 0x60 PUSH2 0x334D JUMP JUMPDEST SWAP1 POP PUSH1 0x0 PUSH2 0x1FFD DUP5 DUP3 DUP6 ADD PUSH2 0x1F09 JUMP JUMPDEST PUSH1 0x0 DUP4 ADD MSTORE POP PUSH1 0x20 PUSH2 0x2011 DUP5 DUP3 DUP6 ADD PUSH2 0x1F09 JUMP JUMPDEST PUSH1 0x20 DUP4 ADD MSTORE POP PUSH1 0x40 PUSH2 0x2025 DUP5 DUP3 DUP6 ADD PUSH2 0x21AD JUMP JUMPDEST PUSH1 0x40 DUP4 ADD MSTORE POP SWAP3 SWAP2 POP POP JUMP JUMPDEST PUSH1 0x0 PUSH2 0x140 DUP3 DUP5 SUB SLT ISZERO PUSH2 0x2044 JUMPI PUSH1 0x0 DUP1 REVERT JUMPDEST PUSH2 0x204F PUSH2 0x140 PUSH2 0x334D JUMP JUMPDEST SWAP1 POP PUSH1 0x0 PUSH2 0x205F DUP5 DUP3 DUP6 ADD PUSH2 0x1D8F JUMP JUMPDEST PUSH1 0x0 DUP4 ADD MSTORE POP PUSH1 0x20 PUSH2 0x2073 DUP5 DUP3 DUP6 ADD PUSH2 0x2183 JUMP JUMPDEST PUSH1 0x20 DUP4 ADD MSTORE POP PUSH1 0x40 PUSH2 0x2087 DUP5 DUP3 DUP6 ADD PUSH2 0x1D8F JUMP JUMPDEST PUSH1 0x40 DUP4 ADD MSTORE POP PUSH1 0x60 DUP3 ADD CALLDATALOAD PUSH8 0xFFFFFFFFFFFFFFFF DUP2 GT ISZERO PUSH2 0x20A7 JUMPI PUSH1 0x0 DUP1 REVERT JUMPDEST PUSH2 0x20B3 DUP5 DUP3 DUP6 ADD PUSH2 0x1DA4 JUMP JUMPDEST PUSH1 0x60 DUP4 ADD MSTORE POP PUSH1 0x80 PUSH2 0x20C7 DUP5 DUP3 DUP6 ADD PUSH2 0x2183 JUMP JUMPDEST PUSH1 0x80 DUP4 ADD MSTORE POP PUSH1 0xA0 DUP3 ADD CALLDATALOAD PUSH8 0xFFFFFFFFFFFFFFFF DUP2 GT ISZERO PUSH2 0x20E7 JUMPI PUSH1 0x0 DUP1 REVERT JUMPDEST PUSH2 0x20F3 DUP5 DUP3 DUP6 ADD PUSH2 0x1F7D JUMP JUMPDEST PUSH1 0xA0 DUP4 ADD MSTORE POP PUSH1 0xC0 PUSH2 0x2107 DUP5 DUP3 DUP6 ADD PUSH2 0x2183 JUMP JUMPDEST PUSH1 0xC0 DUP4 ADD MSTORE POP PUSH1 0xE0 PUSH2 0x211B DUP5 DUP3 DUP6 ADD PUSH2 0x2183 JUMP JUMPDEST PUSH1 0xE0 DUP4 ADD MSTORE POP PUSH2 0x100 DUP3 ADD CALLDATALOAD PUSH8 0xFFFFFFFFFFFFFFFF DUP2 GT ISZERO PUSH2 0x213C JUMPI PUSH1 0x0 DUP1 REVERT JUMPDEST PUSH2 0x2148 DUP5 DUP3 DUP6 ADD PUSH2 0x1DA4 JUMP JUMPDEST PUSH2 0x100 DUP4 ADD MSTORE POP PUSH2 0x120 DUP3 ADD CALLDATALOAD PUSH8 0xFFFFFFFFFFFFFFFF DUP2 GT ISZERO PUSH2 0x216A JUMPI PUSH1 0x0 DUP1 REVERT JUMPDEST PUSH2 0x2176 DUP5 DUP3 DUP6 ADD PUSH2 0x1E27 JUMP JUMPDEST PUSH2 0x120 DUP4 ADD MSTORE POP SWAP3 SWAP2 POP POP JUMP JUMPDEST PUSH1 0x0 DUP2 CALLDATALOAD SWAP1 POP PUSH2 0x2192 DUP2 PUSH2 0x35B9 JUMP JUMPDEST SWAP3 SWAP2 POP POP JUMP JUMPDEST PUSH1 0x0 DUP2 MLOAD SWAP1 POP PUSH2 0x21A7 DUP2 PUSH2 0x35B9 JUMP JUMPDEST SWAP3 SWAP2 POP POP JUMP JUMPDEST PUSH1 0x0 DUP2 CALLDATALOAD SWAP1 POP PUSH2 0x21BC DUP2 PUSH2 0x35D0 JUMP JUMPDEST SWAP3 SWAP2 POP POP JUMP JUMPDEST PUSH1 0x0 PUSH1 0x20 DUP3 DUP5 SUB SLT ISZERO PUSH2 0x21D4 JUMPI PUSH1 0x0 DUP1 REVERT JUMPDEST PUSH1 0x0 PUSH2 0x21E2 DUP5 DUP3 DUP6 ADD PUSH2 0x1D8F JUMP JUMPDEST SWAP2 POP POP SWAP3 SWAP2 POP POP JUMP JUMPDEST PUSH1 0x0 DUP1 PUSH1 0x0 DUP1 PUSH1 0x0 DUP1 PUSH1 0x0 DUP1 PUSH1 0xA0 DUP10 DUP12 SUB SLT ISZERO PUSH2 0x2207 JUMPI PUSH1 0x0 DUP1 REVERT JUMPDEST PUSH1 0x0 PUSH2 0x2215 DUP12 DUP3 DUP13 ADD PUSH2 0x1D8F JUMP JUMPDEST SWAP9 POP POP PUSH1 0x20 PUSH2 0x2226 DUP12 DUP3 DUP13 ADD PUSH2 0x1D8F JUMP JUMPDEST SWAP8 POP POP PUSH1 0x40 DUP10 ADD CALLDATALOAD PUSH8 0xFFFFFFFFFFFFFFFF DUP2 GT ISZERO PUSH2 0x2243 JUMPI PUSH1 0x0 DUP1 REVERT JUMPDEST PUSH2 0x224F DUP12 DUP3 DUP13 ADD PUSH2 0x1EAA JUMP JUMPDEST SWAP7 POP SWAP7 POP POP PUSH1 0x60 DUP10 ADD CALLDATALOAD PUSH8 0xFFFFFFFFFFFFFFFF DUP2 GT ISZERO PUSH2 0x226E JUMPI PUSH1 0x0 DUP1 REVERT JUMPDEST PUSH2 0x227A DUP12 DUP3 DUP13 ADD PUSH2 0x1EAA JUMP JUMPDEST SWAP5 POP SWAP5 POP POP PUSH1 0x80 DUP10 ADD CALLDATALOAD PUSH8 0xFFFFFFFFFFFFFFFF DUP2 GT ISZERO PUSH2 0x2299 JUMPI PUSH1 0x0 DUP1 REVERT JUMPDEST PUSH2 0x22A5 DUP12 DUP3 DUP13 ADD PUSH2 0x1F33 JUMP JUMPDEST SWAP3 POP SWAP3 POP POP SWAP3 SWAP6 SWAP9 POP SWAP3 SWAP6 SWAP9 SWAP1 SWAP4 SWAP7 POP JUMP JUMPDEST PUSH1 0x0 DUP1 PUSH1 0x0 DUP1 PUSH1 0x0 DUP1 PUSH1 0xA0 DUP8 DUP10 SUB SLT ISZERO PUSH2 0x22D0 JUMPI PUSH1 0x0 DUP1 REVERT JUMPDEST PUSH1 0x0 PUSH2 0x22DE DUP10 DUP3 DUP11 ADD PUSH2 0x1D8F JUMP JUMPDEST SWAP7 POP POP PUSH1 0x20 PUSH2 0x22EF DUP10 DUP3 DUP11 ADD PUSH2 0x1D8F JUMP JUMPDEST SWAP6 POP POP PUSH1 0x40 PUSH2 0x2300 DUP10 DUP3 DUP11 ADD PUSH2 0x2183 JUMP JUMPDEST SWAP5 POP POP PUSH1 0x60 PUSH2 0x2311 DUP10 DUP3 DUP11 ADD PUSH2 0x2183 JUMP JUMPDEST SWAP4 POP POP PUSH1 0x80 DUP8 ADD CALLDATALOAD PUSH8 0xFFFFFFFFFFFFFFFF DUP2 GT ISZERO PUSH2 0x232E JUMPI PUSH1 0x0 DUP1 REVERT JUMPDEST PUSH2 0x233A DUP10 DUP3 DUP11 ADD PUSH2 0x1F33 JUMP JUMPDEST SWAP3 POP SWAP3 POP POP SWAP3 SWAP6 POP SWAP3 SWAP6 POP SWAP3 SWAP6 JUMP JUMPDEST PUSH1 0x0 DUP1 PUSH1 0x0 DUP1 PUSH1 0x0 PUSH1 0xA0 DUP7 DUP9 SUB SLT ISZERO PUSH2 0x2361 JUMPI PUSH1 0x0 DUP1 REVERT JUMPDEST PUSH1 0x0 PUSH2 0x236F DUP9 DUP3 DUP10 ADD PUSH2 0x1D8F JUMP JUMPDEST SWAP6 POP POP PUSH1 0x20 PUSH2 0x2380 DUP9 DUP3 DUP10 ADD PUSH2 0x1D8F JUMP JUMPDEST SWAP5 POP POP PUSH1 0x40 PUSH2 0x2391 DUP9 DUP3 DUP10 ADD PUSH2 0x2183 JUMP JUMPDEST SWAP4 POP POP PUSH1 0x60 PUSH2 0x23A2 DUP9 DUP3 DUP10 ADD PUSH2 0x2183 JUMP JUMPDEST SWAP3 POP POP PUSH1 0x80 DUP7 ADD CALLDATALOAD PUSH8 0xFFFFFFFFFFFFFFFF DUP2 GT ISZERO PUSH2 0x23BF JUMPI PUSH1 0x0 DUP1 REVERT JUMPDEST PUSH2 0x23CB DUP9 DUP3 DUP10 ADD PUSH2 0x1F7D JUMP JUMPDEST SWAP2 POP POP SWAP3 SWAP6 POP SWAP3 SWAP6 SWAP1 SWAP4 POP JUMP JUMPDEST PUSH1 0x0 DUP1 PUSH1 0x0 PUSH1 0x60 DUP5 DUP7 SUB SLT ISZERO PUSH2 0x23ED JUMPI PUSH1 0x0 DUP1 REVERT JUMPDEST PUSH1 0x0 PUSH2 0x23FB DUP7 DUP3 DUP8 ADD PUSH2 0x1D8F JUMP JUMPDEST SWAP4 POP POP PUSH1 0x20 PUSH2 0x240C DUP7 DUP3 DUP8 ADD PUSH2 0x2183 JUMP JUMPDEST SWAP3 POP POP PUSH1 0x40 PUSH2 0x241D DUP7 DUP3 DUP8 ADD PUSH2 0x1D8F JUMP JUMPDEST SWAP2 POP POP SWAP3 POP SWAP3 POP SWAP3 JUMP JUMPDEST PUSH1 0x0 DUP1 PUSH1 0x0 DUP1 PUSH1 0x0 PUSH1 0xA0 DUP7 DUP9 SUB SLT ISZERO PUSH2 0x243F JUMPI PUSH1 0x0 DUP1 REVERT JUMPDEST PUSH1 0x0 DUP7 ADD CALLDATALOAD PUSH8 0xFFFFFFFFFFFFFFFF DUP2 GT ISZERO PUSH2 0x2459 JUMPI PUSH1 0x0 DUP1 REVERT JUMPDEST PUSH2 0x2465 DUP9 DUP3 DUP10 ADD PUSH2 0x1DA4 JUMP JUMPDEST SWAP6 POP POP PUSH1 0x20 PUSH2 0x2476 DUP9 DUP3 DUP10 ADD PUSH2 0x1D8F JUMP JUMPDEST SWAP5 POP POP PUSH1 0x40 PUSH2 0x2487 DUP9 DUP3 DUP10 ADD PUSH2 0x2183 JUMP JUMPDEST SWAP4 POP POP PUSH1 0x60 PUSH2 0x2498 DUP9 DUP3 DUP10 ADD PUSH2 0x2183 JUMP JUMPDEST SWAP3 POP POP PUSH1 0x80 PUSH2 0x24A9 DUP9 DUP3 DUP10 ADD PUSH2 0x2183 JUMP JUMPDEST SWAP2 POP POP SWAP3 SWAP6 POP SWAP3 SWAP6 SWAP1 SWAP4 POP JUMP JUMPDEST PUSH1 0x0 DUP1 PUSH1 0x40 DUP4 DUP6 SUB SLT ISZERO PUSH2 0x24C9 JUMPI PUSH1 0x0 DUP1 REVERT JUMPDEST PUSH1 0x0 DUP4 ADD CALLDATALOAD PUSH8 0xFFFFFFFFFFFFFFFF DUP2 GT ISZERO PUSH2 0x24E3 JUMPI PUSH1 0x0 DUP1 REVERT JUMPDEST PUSH2 0x24EF DUP6 DUP3 DUP7 ADD PUSH2 0x1DA4 JUMP JUMPDEST SWAP3 POP POP PUSH1 0x20 PUSH2 0x2500 DUP6 DUP3 DUP7 ADD PUSH2 0x2183 JUMP JUMPDEST SWAP2 POP POP SWAP3 POP SWAP3 SWAP1 POP JUMP JUMPDEST PUSH1 0x0 PUSH1 0x20 DUP3 DUP5 SUB SLT ISZERO PUSH2 0x251C JUMPI PUSH1 0x0 DUP1 REVERT JUMPDEST PUSH1 0x0 PUSH2 0x252A DUP5 DUP3 DUP6 ADD PUSH2 0x1EF4 JUMP JUMPDEST SWAP2 POP POP SWAP3 SWAP2 POP POP JUMP JUMPDEST PUSH1 0x0 PUSH1 0x20 DUP3 DUP5 SUB SLT ISZERO PUSH2 0x2545 JUMPI PUSH1 0x0 DUP1 REVERT JUMPDEST PUSH1 0x0 PUSH2 0x2553 DUP5 DUP3 DUP6 ADD PUSH2 0x1F1E JUMP JUMPDEST SWAP2 POP POP SWAP3 SWAP2 POP POP JUMP JUMPDEST PUSH1 0x0 PUSH1 0x20 DUP3 DUP5 SUB SLT ISZERO PUSH2 0x256E JUMPI PUSH1 0x0 DUP1 REVERT JUMPDEST PUSH1 0x0 DUP3 ADD CALLDATALOAD PUSH8 0xFFFFFFFFFFFFFFFF DUP2 GT ISZERO PUSH2 0x2588 JUMPI PUSH1 0x0 DUP1 REVERT JUMPDEST PUSH2 0x2594 DUP5 DUP3 DUP6 ADD PUSH2 0x2031 JUMP JUMPDEST SWAP2 POP POP SWAP3 SWAP2 POP POP JUMP JUMPDEST PUSH1 0x0 PUSH1 0x20 DUP3 DUP5 SUB SLT ISZERO PUSH2 0x25AF JUMPI PUSH1 0x0 DUP1 REVERT JUMPDEST PUSH1 0x0 PUSH2 0x25BD DUP5 DUP3 DUP6 ADD PUSH2 0x2198 JUMP JUMPDEST SWAP2 POP POP SWAP3 SWAP2 POP POP JUMP JUMPDEST PUSH1 0x0 PUSH2 0x25D2 DUP4 DUP4 PUSH2 0x25DE JUMP JUMPDEST PUSH1 0x20 DUP4 ADD SWAP1 POP SWAP3 SWAP2 POP POP JUMP JUMPDEST PUSH2 0x25E7 DUP2 PUSH2 0x346D JUMP JUMPDEST DUP3 MSTORE POP POP JUMP JUMPDEST PUSH2 0x25F6 DUP2 PUSH2 0x346D JUMP JUMPDEST DUP3 MSTORE POP POP JUMP JUMPDEST PUSH1 0x0 PUSH2 0x2607 DUP3 PUSH2 0x3406 JUMP JUMPDEST PUSH2 0x2611 DUP2 DUP6 PUSH2 0x3429 JUMP JUMPDEST SWAP4 POP PUSH2 0x261C DUP4 PUSH2 0x33F6 JUMP JUMPDEST DUP1 PUSH1 0x0 JUMPDEST DUP4 DUP2 LT ISZERO PUSH2 0x264D JUMPI DUP2 MLOAD PUSH2 0x2634 DUP9 DUP3 PUSH2 0x25C6 JUMP JUMPDEST SWAP8 POP PUSH2 0x263F DUP4 PUSH2 0x341C JUMP JUMPDEST SWAP3 POP POP PUSH1 0x1 DUP2 ADD SWAP1 POP PUSH2 0x2620 JUMP JUMPDEST POP DUP6 SWAP4 POP POP POP POP SWAP3 SWAP2 POP POP JUMP JUMPDEST PUSH1 0x0 PUSH2 0x2665 DUP3 PUSH2 0x3406 JUMP JUMPDEST PUSH2 0x266F DUP2 DUP6 PUSH2 0x343A JUMP JUMPDEST SWAP4 POP PUSH2 0x267A DUP4 PUSH2 0x33F6 JUMP JUMPDEST DUP1 PUSH1 0x0 JUMPDEST DUP4 DUP2 LT ISZERO PUSH2 0x26AB JUMPI DUP2 MLOAD PUSH2 0x2692 DUP9 DUP3 PUSH2 0x25C6 JUMP JUMPDEST SWAP8 POP PUSH2 0x269D DUP4 PUSH2 0x341C JUMP JUMPDEST SWAP3 POP POP PUSH1 0x1 DUP2 ADD SWAP1 POP PUSH2 0x267E JUMP JUMPDEST POP DUP6 SWAP4 POP POP POP POP SWAP3 SWAP2 POP POP JUMP JUMPDEST PUSH2 0x26C1 DUP2 PUSH2 0x347F JUMP JUMPDEST DUP3 MSTORE POP POP JUMP JUMPDEST PUSH2 0x26D0 DUP2 PUSH2 0x348B JUMP JUMPDEST DUP3 MSTORE POP POP JUMP JUMPDEST PUSH2 0x26DF DUP2 PUSH2 0x3495 JUMP JUMPDEST DUP3 MSTORE POP POP JUMP JUMPDEST PUSH1 0x0 PUSH2 0x26F0 DUP3 PUSH2 0x3411 JUMP JUMPDEST PUSH2 0x26FA DUP2 DUP6 PUSH2 0x344B JUMP JUMPDEST SWAP4 POP PUSH2 0x270A DUP2 DUP6 PUSH1 0x20 DUP7 ADD PUSH2 0x3519 JUMP JUMPDEST PUSH2 0x2713 DUP2 PUSH2 0x354C JUMP JUMPDEST DUP5 ADD SWAP2 POP POP SWAP3 SWAP2 POP POP JUMP JUMPDEST PUSH2 0x2727 DUP2 PUSH2 0x34F8 JUMP JUMPDEST DUP3 MSTORE POP POP JUMP JUMPDEST PUSH1 0x0 PUSH2 0x273A PUSH1 0x21 DUP4 PUSH2 0x345C JUMP JUMPDEST SWAP2 POP PUSH32 0x234E465450726F7879237665726966793A205452414E534645525F4558504952 PUSH1 0x0 DUP4 ADD MSTORE PUSH32 0x5900000000000000000000000000000000000000000000000000000000000000 PUSH1 0x20 DUP4 ADD MSTORE PUSH1 0x40 DUP3 ADD SWAP1 POP SWAP2 SWAP1 POP JUMP JUMPDEST PUSH1 0x0 PUSH2 0x27A0 PUSH1 0x25 DUP4 PUSH2 0x345C JUMP JUMPDEST SWAP2 POP PUSH32 0x234E465450726F787923766572696669636174696F6E3A204241445F5349474E PUSH1 0x0 DUP4 ADD MSTORE PUSH32 0x4154555245000000000000000000000000000000000000000000000000000000 PUSH1 0x20 DUP4 ADD MSTORE PUSH1 0x40 DUP3 ADD SWAP1 POP SWAP2 SWAP1 POP JUMP JUMPDEST PUSH1 0x0 PUSH2 0x2806 PUSH1 0x27 DUP4 PUSH2 0x345C JUMP JUMPDEST SWAP2 POP PUSH32 0x234552433131353550726F7879235F7472616E736665723A20494E56414C4944 PUSH1 0x0 DUP4 ADD MSTORE PUSH32 0x5F414D4F554E5400000000000000000000000000000000000000000000000000 PUSH1 0x20 DUP4 ADD MSTORE PUSH1 0x40 DUP3 ADD SWAP1 POP SWAP2 SWAP1 POP JUMP JUMPDEST PUSH1 0x0 PUSH2 0x286C PUSH1 0x26 DUP4 PUSH2 0x345C JUMP JUMPDEST SWAP2 POP PUSH32 0x4F776E61626C653A206E6577206F776E657220697320746865207A65726F2061 PUSH1 0x0 DUP4 ADD MSTORE PUSH32 0x6464726573730000000000000000000000000000000000000000000000000000 PUSH1 0x20 DUP4 ADD MSTORE PUSH1 0x40 DUP3 ADD SWAP1 POP SWAP2 SWAP1 POP JUMP JUMPDEST PUSH1 0x0 PUSH2 0x28D2 PUSH1 0x27 DUP4 PUSH2 0x345C JUMP JUMPDEST SWAP2 POP PUSH32 0x234552433131353550726F7879235F77697468647261773A20494E56414C4944 PUSH1 0x0 DUP4 ADD MSTORE PUSH32 0x5F414D4F554E5400000000000000000000000000000000000000000000000000 PUSH1 0x20 DUP4 ADD MSTORE PUSH1 0x40 DUP3 ADD SWAP1 POP SWAP2 SWAP1 POP JUMP JUMPDEST PUSH1 0x0 PUSH2 0x2938 PUSH1 0x25 DUP4 PUSH2 0x345C JUMP JUMPDEST SWAP2 POP PUSH32 0x234E465450726F7879237665726966793A204241445F5253565F4C4953545F4C PUSH1 0x0 DUP4 ADD MSTORE PUSH32 0x454E475448000000000000000000000000000000000000000000000000000000 PUSH1 0x20 DUP4 ADD MSTORE PUSH1 0x40 DUP3 ADD SWAP1 POP SWAP2 SWAP1 POP JUMP JUMPDEST PUSH1 0x0 PUSH2 0x299E PUSH1 0x2E DUP4 PUSH2 0x345C JUMP JUMPDEST SWAP2 POP PUSH32 0x234552433131353550726F7879235F7472616E736665723A20494E5355464649 PUSH1 0x0 DUP4 ADD MSTORE PUSH32 0x4349454E545F42414C414E434553000000000000000000000000000000000000 PUSH1 0x20 DUP4 ADD MSTORE PUSH1 0x40 DUP3 ADD SWAP1 POP SWAP2 SWAP1 POP JUMP JUMPDEST PUSH1 0x0 PUSH2 0x2A04 PUSH1 0x20 DUP4 PUSH2 0x345C JUMP JUMPDEST SWAP2 POP PUSH32 0x234E465450726F7879237665726966793A204F574E45525F4E4F5F4D41544348 PUSH1 0x0 DUP4 ADD MSTORE PUSH1 0x20 DUP3 ADD SWAP1 POP SWAP2 SWAP1 POP JUMP JUMPDEST PUSH1 0x0 PUSH2 0x2A44 PUSH1 0x35 DUP4 PUSH2 0x345C JUMP JUMPDEST SWAP2 POP PUSH32 0x234E465450726F787923636865636B41646472657373456D7074793A20414444 PUSH1 0x0 DUP4 ADD MSTORE PUSH32 0x524553535F4C4953545F4C454E4754485F5A45524F0000000000000000000000 PUSH1 0x20 DUP4 ADD MSTORE PUSH1 0x40 DUP3 ADD SWAP1 POP SWAP2 SWAP1 POP JUMP JUMPDEST PUSH1 0x0 PUSH2 0x2AAA PUSH1 0x36 DUP4 PUSH2 0x345C JUMP JUMPDEST SWAP2 POP PUSH32 0x546865204E465420636F6E74726163742068617320616E20696E76616C696420 PUSH1 0x0 DUP4 ADD MSTORE PUSH32 0x4552433131353520696D706C656D656E746174696F6E00000000000000000000 PUSH1 0x20 DUP4 ADD MSTORE PUSH1 0x40 DUP3 ADD SWAP1 POP SWAP2 SWAP1 POP JUMP JUMPDEST PUSH1 0x0 PUSH2 0x2B10 PUSH1 0x1E DUP4 PUSH2 0x345C JUMP JUMPDEST SWAP2 POP PUSH32 0x234E465450726F7879237665726966793A20414444524553535F5A45524F0000 PUSH1 0x0 DUP4 ADD MSTORE PUSH1 0x20 DUP3 ADD SWAP1 POP SWAP2 SWAP1 POP JUMP JUMPDEST PUSH1 0x0 PUSH2 0x2B50 PUSH1 0x20 DUP4 PUSH2 0x345C JUMP JUMPDEST SWAP2 POP PUSH32 0x4F776E61626C653A2063616C6C6572206973206E6F7420746865206F776E6572 PUSH1 0x0 DUP4 ADD MSTORE PUSH1 0x20 DUP3 ADD SWAP1 POP SWAP2 SWAP1 POP JUMP JUMPDEST PUSH1 0x0 PUSH2 0x2B90 PUSH1 0x28 DUP4 PUSH2 0x345C JUMP JUMPDEST SWAP2 POP PUSH32 0x234E465450726F7879237472616E736665723A204E4F5F5452414E534645525F PUSH1 0x0 DUP4 ADD MSTORE PUSH32 0x5349474E5F455252000000000000000000000000000000000000000000000000 PUSH1 0x20 DUP4 ADD MSTORE PUSH1 0x40 DUP3 ADD SWAP1 POP SWAP2 SWAP1 POP JUMP JUMPDEST PUSH1 0x0 PUSH2 0x2BF6 PUSH1 0x30 DUP4 PUSH2 0x345C JUMP JUMPDEST SWAP2 POP PUSH32 0x234552433131353550726F7879235F6F6E455243313135355265636569766564 PUSH1 0x0 DUP4 ADD MSTORE PUSH32 0x3A20494E56414C49445F414D4F554E5400000000000000000000000000000000 PUSH1 0x20 DUP4 ADD MSTORE PUSH1 0x40 DUP3 ADD SWAP1 POP SWAP2 SWAP1 POP JUMP JUMPDEST PUSH1 0x0 PUSH2 0x2C5C PUSH1 0x2E DUP4 PUSH2 0x345C JUMP JUMPDEST SWAP2 POP PUSH32 0x234552433131353550726F7879235F77697468647261773A20494E5355464649 PUSH1 0x0 DUP4 ADD MSTORE PUSH32 0x4349454E545F42414C414E434553000000000000000000000000000000000000 PUSH1 0x20 DUP4 ADD MSTORE PUSH1 0x40 DUP3 ADD SWAP1 POP SWAP2 SWAP1 POP JUMP JUMPDEST PUSH1 0x0 PUSH2 0x2CC2 PUSH1 0x32 DUP4 PUSH2 0x345C JUMP JUMPDEST SWAP2 POP PUSH32 0x234552433131353550726F7879235F6973455243313135353A20494E564C4941 PUSH1 0x0 DUP4 ADD MSTORE PUSH32 0x445F434F4E54524143545F414444524553530000000000000000000000000000 PUSH1 0x20 DUP4 ADD MSTORE PUSH1 0x40 DUP3 ADD SWAP1 POP SWAP2 SWAP1 POP JUMP JUMPDEST PUSH1 0x0 PUSH2 0x2D28 PUSH1 0x27 DUP4 PUSH2 0x345C JUMP JUMPDEST SWAP2 POP PUSH32 0x234E465450726F7879237665726966793A205349474E5F434F554E545F544F4F PUSH1 0x0 DUP4 ADD MSTORE PUSH32 0x5F4C4954544C4500000000000000000000000000000000000000000000000000 PUSH1 0x20 DUP4 ADD MSTORE PUSH1 0x40 DUP3 ADD SWAP1 POP SWAP2 SWAP1 POP JUMP JUMPDEST PUSH1 0x0 PUSH2 0x2D8E PUSH1 0x25 DUP4 PUSH2 0x345C JUMP JUMPDEST SWAP2 POP PUSH32 0x234E465450726F787923636865636B4F776E6572733A204241445F5349474E5F PUSH1 0x0 DUP4 ADD MSTORE PUSH32 0x434F554E54000000000000000000000000000000000000000000000000000000 PUSH1 0x20 DUP4 ADD MSTORE PUSH1 0x40 DUP3 ADD SWAP1 POP SWAP2 SWAP1 POP JUMP JUMPDEST PUSH1 0x0 PUSH1 0x60 DUP4 ADD PUSH1 0x0 DUP4 ADD MLOAD PUSH2 0x2DFF PUSH1 0x0 DUP7 ADD DUP3 PUSH2 0x2E37 JUMP JUMPDEST POP PUSH1 0x20 DUP4 ADD MLOAD PUSH2 0x2E12 PUSH1 0x20 DUP7 ADD DUP3 PUSH2 0x2E37 JUMP JUMPDEST POP PUSH1 0x40 DUP4 ADD MLOAD DUP5 DUP3 SUB PUSH1 0x40 DUP7 ADD MSTORE PUSH2 0x2E2A DUP3 DUP3 PUSH2 0x25FC JUMP JUMPDEST SWAP2 POP POP DUP1 SWAP2 POP POP SWAP3 SWAP2 POP POP JUMP JUMPDEST PUSH2 0x2E40 DUP2 PUSH2 0x34E1 JUMP JUMPDEST DUP3 MSTORE POP POP JUMP JUMPDEST PUSH2 0x2E4F DUP2 PUSH2 0x34E1 JUMP JUMPDEST DUP3 MSTORE POP POP JUMP JUMPDEST PUSH2 0x2E5E DUP2 PUSH2 0x34EB JUMP JUMPDEST DUP3 MSTORE POP POP JUMP JUMPDEST PUSH1 0x0 PUSH1 0x20 DUP3 ADD SWAP1 POP PUSH2 0x2E79 PUSH1 0x0 DUP4 ADD DUP5 PUSH2 0x25ED JUMP JUMPDEST SWAP3 SWAP2 POP POP JUMP JUMPDEST PUSH1 0x0 PUSH1 0xA0 DUP3 ADD SWAP1 POP PUSH2 0x2E94 PUSH1 0x0 DUP4 ADD DUP9 PUSH2 0x25ED JUMP JUMPDEST PUSH2 0x2EA1 PUSH1 0x20 DUP4 ADD DUP8 PUSH2 0x25ED JUMP JUMPDEST PUSH2 0x2EAE PUSH1 0x40 DUP4 ADD DUP7 PUSH2 0x2E46 JUMP JUMPDEST PUSH2 0x2EBB PUSH1 0x60 DUP4 ADD DUP6 PUSH2 0x2E46 JUMP JUMPDEST DUP2 DUP2 SUB PUSH1 0x80 DUP4 ADD MSTORE PUSH2 0x2ECD DUP2 DUP5 PUSH2 0x26E5 JUMP JUMPDEST SWAP1 POP SWAP7 SWAP6 POP POP POP POP POP POP JUMP JUMPDEST PUSH1 0x0 PUSH1 0x60 DUP3 ADD SWAP1 POP PUSH2 0x2EEE PUSH1 0x0 DUP4 ADD DUP7 PUSH2 0x25ED JUMP JUMPDEST PUSH2 0x2EFB PUSH1 0x20 DUP4 ADD DUP6 PUSH2 0x271E JUMP JUMPDEST PUSH2 0x2F08 PUSH1 0x40 DUP4 ADD DUP5 PUSH2 0x2E46 JUMP JUMPDEST SWAP5 SWAP4 POP POP POP POP JUMP JUMPDEST PUSH1 0x0 PUSH1 0x40 DUP3 ADD SWAP1 POP PUSH2 0x2F25 PUSH1 0x0 DUP4 ADD DUP6 PUSH2 0x25ED JUMP JUMPDEST PUSH2 0x2F32 PUSH1 0x20 DUP4 ADD DUP5 PUSH2 0x2E46 JUMP JUMPDEST SWAP4 SWAP3 POP POP POP JUMP JUMPDEST PUSH1 0x0 PUSH2 0x100 DUP3 ADD SWAP1 POP PUSH2 0x2F4F PUSH1 0x0 DUP4 ADD DUP12 PUSH2 0x25ED JUMP JUMPDEST PUSH2 0x2F5C PUSH1 0x20 DUP4 ADD DUP11 PUSH2 0x2E46 JUMP JUMPDEST PUSH2 0x2F69 PUSH1 0x40 DUP4 ADD DUP10 PUSH2 0x25ED JUMP JUMPDEST DUP2 DUP2 SUB PUSH1 0x60 DUP4 ADD MSTORE PUSH2 0x2F7B DUP2 DUP9 PUSH2 0x265A JUMP JUMPDEST SWAP1 POP PUSH2 0x2F8A PUSH1 0x80 DUP4 ADD DUP8 PUSH2 0x2E46 JUMP JUMPDEST DUP2 DUP2 SUB PUSH1 0xA0 DUP4 ADD MSTORE PUSH2 0x2F9C DUP2 DUP7 PUSH2 0x26E5 JUMP JUMPDEST SWAP1 POP PUSH2 0x2FAB PUSH1 0xC0 DUP4 ADD DUP6 PUSH2 0x2E46 JUMP JUMPDEST PUSH2 0x2FB8 PUSH1 0xE0 DUP4 ADD DUP5 PUSH2 0x2E46 JUMP JUMPDEST SWAP10 SWAP9 POP POP POP POP POP POP POP POP POP JUMP JUMPDEST PUSH1 0x0 PUSH1 0x60 DUP3 ADD SWAP1 POP PUSH2 0x2FDA PUSH1 0x0 DUP4 ADD DUP7 PUSH2 0x25ED JUMP JUMPDEST PUSH2 0x2FE7 PUSH1 0x20 DUP4 ADD DUP6 PUSH2 0x2E46 JUMP JUMPDEST PUSH2 0x2FF4 PUSH1 0x40 DUP4 ADD DUP5 PUSH2 0x271E JUMP JUMPDEST SWAP5 SWAP4 POP POP POP POP JUMP JUMPDEST PUSH1 0x0 PUSH1 0x60 DUP3 ADD SWAP1 POP PUSH2 0x3011 PUSH1 0x0 DUP4 ADD DUP7 PUSH2 0x25ED JUMP JUMPDEST PUSH2 0x301E PUSH1 0x20 DUP4 ADD DUP6 PUSH2 0x2E46 JUMP JUMPDEST PUSH2 0x302B PUSH1 0x40 DUP4 ADD DUP5 PUSH2 0x2E46 JUMP JUMPDEST SWAP5 SWAP4 POP POP POP POP JUMP JUMPDEST PUSH1 0x0 PUSH1 0x20 DUP3 ADD SWAP1 POP PUSH2 0x3048 PUSH1 0x0 DUP4 ADD DUP5 PUSH2 0x26B8 JUMP JUMPDEST SWAP3 SWAP2 POP POP JUMP JUMPDEST PUSH1 0x0 PUSH1 0x80 DUP3 ADD SWAP1 POP PUSH2 0x3063 PUSH1 0x0 DUP4 ADD DUP8 PUSH2 0x26C7 JUMP JUMPDEST PUSH2 0x3070 PUSH1 0x20 DUP4 ADD DUP7 PUSH2 0x2E55 JUMP JUMPDEST PUSH2 0x307D PUSH1 0x40 DUP4 ADD DUP6 PUSH2 0x26C7 JUMP JUMPDEST PUSH2 0x308A PUSH1 0x60 DUP4 ADD DUP5 PUSH2 0x26C7 JUMP JUMPDEST SWAP6 SWAP5 POP POP POP POP POP JUMP JUMPDEST PUSH1 0x0 PUSH1 0x20 DUP3 ADD SWAP1 POP PUSH2 0x30A8 PUSH1 0x0 DUP4 ADD DUP5 PUSH2 0x26D6 JUMP JUMPDEST SWAP3 SWAP2 POP POP JUMP JUMPDEST PUSH1 0x0 PUSH1 0x20 DUP3 ADD SWAP1 POP DUP2 DUP2 SUB PUSH1 0x0 DUP4 ADD MSTORE PUSH2 0x30C8 DUP2 DUP5 PUSH2 0x26E5 JUMP JUMPDEST SWAP1 POP SWAP3 SWAP2 POP POP JUMP JUMPDEST PUSH1 0x0 PUSH1 0x20 DUP3 ADD SWAP1 POP DUP2 DUP2 SUB PUSH1 0x0 DUP4 ADD MSTORE PUSH2 0x30E9 DUP2 PUSH2 0x272D JUMP JUMPDEST SWAP1 POP SWAP2 SWAP1 POP JUMP JUMPDEST PUSH1 0x0 PUSH1 0x20 DUP3 ADD SWAP1 POP DUP2 DUP2 SUB PUSH1 0x0 DUP4 ADD MSTORE PUSH2 0x3109 DUP2 PUSH2 0x2793 JUMP JUMPDEST SWAP1 POP SWAP2 SWAP1 POP JUMP JUMPDEST PUSH1 0x0 PUSH1 0x20 DUP3 ADD SWAP1 POP DUP2 DUP2 SUB PUSH1 0x0 DUP4 ADD MSTORE PUSH2 0x3129 DUP2 PUSH2 0x27F9 JUMP JUMPDEST SWAP1 POP SWAP2 SWAP1 POP JUMP JUMPDEST PUSH1 0x0 PUSH1 0x20 DUP3 ADD SWAP1 POP DUP2 DUP2 SUB PUSH1 0x0 DUP4 ADD MSTORE PUSH2 0x3149 DUP2 PUSH2 0x285F JUMP JUMPDEST SWAP1 POP SWAP2 SWAP1 POP JUMP JUMPDEST PUSH1 0x0 PUSH1 0x20 DUP3 ADD SWAP1 POP DUP2 DUP2 SUB PUSH1 0x0 DUP4 ADD MSTORE PUSH2 0x3169 DUP2 PUSH2 0x28C5 JUMP JUMPDEST SWAP1 POP SWAP2 SWAP1 POP JUMP JUMPDEST PUSH1 0x0 PUSH1 0x20 DUP3 ADD SWAP1 POP DUP2 DUP2 SUB PUSH1 0x0 DUP4 ADD MSTORE PUSH2 0x3189 DUP2 PUSH2 0x292B JUMP JUMPDEST SWAP1 POP SWAP2 SWAP1 POP JUMP JUMPDEST PUSH1 0x0 PUSH1 0x20 DUP3 ADD SWAP1 POP DUP2 DUP2 SUB PUSH1 0x0 DUP4 ADD MSTORE PUSH2 0x31A9 DUP2 PUSH2 0x2991 JUMP JUMPDEST SWAP1 POP SWAP2 SWAP1 POP JUMP JUMPDEST PUSH1 0x0 PUSH1 0x20 DUP3 ADD SWAP1 POP DUP2 DUP2 SUB PUSH1 0x0 DUP4 ADD MSTORE PUSH2 0x31C9 DUP2 PUSH2 0x29F7 JUMP JUMPDEST SWAP1 POP SWAP2 SWAP1 POP JUMP JUMPDEST PUSH1 0x0 PUSH1 0x20 DUP3 ADD SWAP1 POP DUP2 DUP2 SUB PUSH1 0x0 DUP4 ADD MSTORE PUSH2 0x31E9 DUP2 PUSH2 0x2A37 JUMP JUMPDEST SWAP1 POP SWAP2 SWAP1 POP JUMP JUMPDEST PUSH1 0x0 PUSH1 0x20 DUP3 ADD SWAP1 POP DUP2 DUP2 SUB PUSH1 0x0 DUP4 ADD MSTORE PUSH2 0x3209 DUP2 PUSH2 0x2A9D JUMP JUMPDEST SWAP1 POP SWAP2 SWAP1 POP JUMP JUMPDEST PUSH1 0x0 PUSH1 0x20 DUP3 ADD SWAP1 POP DUP2 DUP2 SUB PUSH1 0x0 DUP4 ADD MSTORE PUSH2 0x3229 DUP2 PUSH2 0x2B03 JUMP JUMPDEST SWAP1 POP SWAP2 SWAP1 POP JUMP JUMPDEST PUSH1 0x0 PUSH1 0x20 DUP3 ADD SWAP1 POP DUP2 DUP2 SUB PUSH1 0x0 DUP4 ADD MSTORE PUSH2 0x3249 DUP2 PUSH2 0x2B43 JUMP JUMPDEST SWAP1 POP SWAP2 SWAP1 POP JUMP JUMPDEST PUSH1 0x0 PUSH1 0x20 DUP3 ADD SWAP1 POP DUP2 DUP2 SUB PUSH1 0x0 DUP4 ADD MSTORE PUSH2 0x3269 DUP2 PUSH2 0x2B83 JUMP JUMPDEST SWAP1 POP SWAP2 SWAP1 POP JUMP JUMPDEST PUSH1 0x0 PUSH1 0x20 DUP3 ADD SWAP1 POP DUP2 DUP2 SUB PUSH1 0x0 DUP4 ADD MSTORE PUSH2 0x3289 DUP2 PUSH2 0x2BE9 JUMP JUMPDEST SWAP1 POP SWAP2 SWAP1 POP JUMP JUMPDEST PUSH1 0x0 PUSH1 0x20 DUP3 ADD SWAP1 POP DUP2 DUP2 SUB PUSH1 0x0 DUP4 ADD MSTORE PUSH2 0x32A9 DUP2 PUSH2 0x2C4F JUMP JUMPDEST SWAP1 POP SWAP2 SWAP1 POP JUMP JUMPDEST PUSH1 0x0 PUSH1 0x20 DUP3 ADD SWAP1 POP DUP2 DUP2 SUB PUSH1 0x0 DUP4 ADD MSTORE PUSH2 0x32C9 DUP2 PUSH2 0x2CB5 JUMP JUMPDEST SWAP1 POP SWAP2 SWAP1 POP JUMP JUMPDEST PUSH1 0x0 PUSH1 0x20 DUP3 ADD SWAP1 POP DUP2 DUP2 SUB PUSH1 0x0 DUP4 ADD MSTORE PUSH2 0x32E9 DUP2 PUSH2 0x2D1B JUMP JUMPDEST SWAP1 POP SWAP2 SWAP1 POP JUMP JUMPDEST PUSH1 0x0 PUSH1 0x20 DUP3 ADD SWAP1 POP DUP2 DUP2 SUB PUSH1 0x0 DUP4 ADD MSTORE PUSH2 0x3309 DUP2 PUSH2 0x2D81 JUMP JUMPDEST SWAP1 POP SWAP2 SWAP1 POP JUMP JUMPDEST PUSH1 0x0 PUSH1 0x20 DUP3 ADD SWAP1 POP DUP2 DUP2 SUB PUSH1 0x0 DUP4 ADD MSTORE PUSH2 0x332A DUP2 DUP5 PUSH2 0x2DE7 JUMP JUMPDEST SWAP1 POP SWAP3 SWAP2 POP POP JUMP JUMPDEST PUSH1 0x0 PUSH1 0x20 DUP3 ADD SWAP1 POP PUSH2 0x3347 PUSH1 0x0 DUP4 ADD DUP5 PUSH2 0x2E46 JUMP JUMPDEST SWAP3 SWAP2 POP POP JUMP JUMPDEST PUSH1 0x0 PUSH1 0x40 MLOAD SWAP1 POP DUP2 DUP2 ADD DUP2 DUP2 LT PUSH8 0xFFFFFFFFFFFFFFFF DUP3 GT OR ISZERO PUSH2 0x3370 JUMPI PUSH1 0x0 DUP1 REVERT JUMPDEST DUP1 PUSH1 0x40 MSTORE POP SWAP2 SWAP1 POP JUMP JUMPDEST PUSH1 0x0 PUSH8 0xFFFFFFFFFFFFFFFF DUP3 GT ISZERO PUSH2 0x3391 JUMPI PUSH1 0x0 DUP1 REVERT JUMPDEST PUSH1 0x20 DUP3 MUL SWAP1 POP PUSH1 0x20 DUP2 ADD SWAP1 POP SWAP2 SWAP1 POP JUMP JUMPDEST PUSH1 0x0 PUSH8 0xFFFFFFFFFFFFFFFF DUP3 GT ISZERO PUSH2 0x33B9 JUMPI PUSH1 0x0 DUP1 REVERT JUMPDEST PUSH1 0x20 DUP3 MUL SWAP1 POP PUSH1 0x20 DUP2 ADD SWAP1 POP SWAP2 SWAP1 POP JUMP JUMPDEST PUSH1 0x0 PUSH8 0xFFFFFFFFFFFFFFFF DUP3 GT ISZERO PUSH2 0x33E1 JUMPI PUSH1 0x0 DUP1 REVERT JUMPDEST PUSH1 0x1F NOT PUSH1 0x1F DUP4 ADD AND SWAP1 POP PUSH1 0x20 DUP2 ADD SWAP1 POP SWAP2 SWAP1 POP JUMP JUMPDEST PUSH1 0x0 DUP2 SWAP1 POP PUSH1 0x20 DUP3 ADD SWAP1 POP SWAP2 SWAP1 POP JUMP JUMPDEST PUSH1 0x0 DUP2 MLOAD SWAP1 POP SWAP2 SWAP1 POP JUMP JUMPDEST PUSH1 0x0 DUP2 MLOAD SWAP1 POP SWAP2 SWAP1 POP JUMP JUMPDEST PUSH1 0x0 PUSH1 0x20 DUP3 ADD SWAP1 POP SWAP2 SWAP1 POP JUMP JUMPDEST PUSH1 0x0 DUP3 DUP3 MSTORE PUSH1 0x20 DUP3 ADD SWAP1 POP SWAP3 SWAP2 POP POP JUMP JUMPDEST PUSH1 0x0 DUP3 DUP3 MSTORE PUSH1 0x20 DUP3 ADD SWAP1 POP SWAP3 SWAP2 POP POP JUMP JUMPDEST PUSH1 0x0 DUP3 DUP3 MSTORE PUSH1 0x20 DUP3 ADD SWAP1 POP SWAP3 SWAP2 POP POP JUMP JUMPDEST PUSH1 0x0 DUP3 DUP3 MSTORE PUSH1 0x20 DUP3 ADD SWAP1 POP SWAP3 SWAP2 POP POP JUMP JUMPDEST PUSH1 0x0 PUSH2 0x3478 DUP3 PUSH2 0x34C1 JUMP JUMPDEST SWAP1 POP SWAP2 SWAP1 POP JUMP JUMPDEST PUSH1 0x0 DUP2 ISZERO ISZERO SWAP1 POP SWAP2 SWAP1 POP JUMP JUMPDEST PUSH1 0x0 DUP2 SWAP1 POP SWAP2 SWAP1 POP JUMP JUMPDEST PUSH1 0x0 PUSH32 0xFFFFFFFF00000000000000000000000000000000000000000000000000000000 DUP3 AND SWAP1 POP SWAP2 SWAP1 POP JUMP JUMPDEST PUSH1 0x0 PUSH20 0xFFFFFFFFFFFFFFFFFFFFFFFFFFFFFFFFFFFFFFFF DUP3 AND SWAP1 POP SWAP2 SWAP1 POP JUMP JUMPDEST PUSH1 0x0 DUP2 SWAP1 POP SWAP2 SWAP1 POP JUMP JUMPDEST PUSH1 0x0 PUSH1 0xFF DUP3 AND SWAP1 POP SWAP2 SWAP1 POP JUMP JUMPDEST PUSH1 0x0 PUSH2 0x3503 DUP3 PUSH2 0x34E1 JUMP JUMPDEST SWAP1 POP SWAP2 SWAP1 POP JUMP JUMPDEST DUP3 DUP2 DUP4 CALLDATACOPY PUSH1 0x0 DUP4 DUP4 ADD MSTORE POP POP POP JUMP JUMPDEST PUSH1 0x0 JUMPDEST DUP4 DUP2 LT ISZERO PUSH2 0x3537 JUMPI DUP1 DUP3 ADD MLOAD DUP2 DUP5 ADD MSTORE PUSH1 0x20 DUP2 ADD SWAP1 POP PUSH2 0x351C JUMP JUMPDEST DUP4 DUP2 GT ISZERO PUSH2 0x3546 JUMPI PUSH1 0x0 DUP5 DUP5 ADD MSTORE JUMPDEST POP POP POP POP JUMP JUMPDEST PUSH1 0x0 PUSH1 0x1F NOT PUSH1 0x1F DUP4 ADD AND SWAP1 POP SWAP2 SWAP1 POP JUMP JUMPDEST PUSH2 0x3566 DUP2 PUSH2 0x346D JUMP JUMPDEST DUP2 EQ PUSH2 0x3571 JUMPI PUSH1 0x0 DUP1 REVERT JUMPDEST POP JUMP JUMPDEST PUSH2 0x357D DUP2 PUSH2 0x347F JUMP JUMPDEST DUP2 EQ PUSH2 0x3588 JUMPI PUSH1 0x0 DUP1 REVERT JUMPDEST POP JUMP JUMPDEST PUSH2 0x3594 DUP2 PUSH2 0x348B JUMP JUMPDEST DUP2 EQ PUSH2 0x359F JUMPI PUSH1 0x0 DUP1 REVERT JUMPDEST POP JUMP JUMPDEST PUSH2 0x35AB DUP2 PUSH2 0x3495 JUMP JUMPDEST DUP2 EQ PUSH2 0x35B6 JUMPI PUSH1 0x0 DUP1 REVERT JUMPDEST POP JUMP JUMPDEST PUSH2 0x35C2 DUP2 PUSH2 0x34E1 JUMP JUMPDEST DUP2 EQ PUSH2 0x35CD JUMPI PUSH1 0x0 DUP1 REVERT JUMPDEST POP JUMP JUMPDEST PUSH2 0x35D9 DUP2 PUSH2 0x34EB JUMP JUMPDEST DUP2 EQ PUSH2 0x35E4 JUMPI PUSH1 0x0 DUP1 REVERT JUMPDEST POP JUMP INVALID LOG2 PUSH5 0x6970667358 0x22 SLT KECCAK256 MUL PUSH3 0xEE0887 CALLVALUE PUSH31 0xDB691B9E471760AD74117EC829D8871B5C473B207FA84F049464736F6C6343 STOP MOD 0xC STOP CALLER "
				},
				"gasEstimates": {
					"creation": {
						"codeDepositCost": "2770600",
						"executionCost": "infinite",
						"totalCost": "infinite"
					},
					"external": {
						"balanceOf(address,uint256,address)": "infinite",
						"encodePacked((address,uint256,address,address[],uint256,bytes,uint256,uint256,address[],(bytes32,bytes32,uint8)[]))": "infinite",
						"onERC1155BatchReceived(address,address,uint256[],uint256[],bytes)": "infinite",
						"onERC1155Received(address,address,uint256,uint256,bytes)": "infinite",
						"owner()": "1289",
						"ownersOf(address,uint256,address)": "infinite",
						"renounceOwnership()": "24314",
						"supportsInterface(bytes4)": "1570",
						"transfer(address[],address,uint256,uint256,uint256)": "infinite",
						"transferFrom((address,uint256,address,address[],uint256,bytes,uint256,uint256,address[],(bytes32,bytes32,uint8)[]))": "infinite",
						"transferOwnership(address)": "24728",
						"verify((address,uint256,address,address[],uint256,bytes,uint256,uint256,address[],(bytes32,bytes32,uint8)[]))": "infinite",
						"withdraw(address,address,uint256,uint256,bytes)": "infinite",
						"withdrawFrom((address,uint256,address,address[],uint256,bytes,uint256,uint256,address[],(bytes32,bytes32,uint8)[]))": "infinite"
					},
					"internal": {
						"_isERC1155(address)": "infinite",
						"_onERC1155Received(contract IERC1155,address,address[] memory,uint256,uint256,uint256)": "infinite",
						"_transfer(address,struct NFTProxy.Owners memory,address,uint256,uint256)": "infinite",
						"_withdraw(address,address,address,uint256,uint256,bytes memory)": "infinite"
					}
				},
				"methodIdentifiers": {
					"balanceOf(address,uint256,address)": "467f4cb9",
					"encodePacked((address,uint256,address,address[],uint256,bytes,uint256,uint256,address[],(bytes32,bytes32,uint8)[]))": "0525bdcf",
					"onERC1155BatchReceived(address,address,uint256[],uint256[],bytes)": "bc197c81",
					"onERC1155Received(address,address,uint256,uint256,bytes)": "f23a6e61",
					"owner()": "8da5cb5b",
					"ownersOf(address,uint256,address)": "7c4d7f44",
					"renounceOwnership()": "715018a6",
					"supportsInterface(bytes4)": "01ffc9a7",
					"transfer(address[],address,uint256,uint256,uint256)": "2a6c7d0c",
					"transferFrom((address,uint256,address,address[],uint256,bytes,uint256,uint256,address[],(bytes32,bytes32,uint8)[]))": "2a3b3836",
					"transferOwnership(address)": "f2fde38b",
					"verify((address,uint256,address,address[],uint256,bytes,uint256,uint256,address[],(bytes32,bytes32,uint8)[]))": "a24d22fe",
					"withdraw(address,address,uint256,uint256,bytes)": "074540da",
					"withdrawFrom((address,uint256,address,address[],uint256,bytes,uint256,uint256,address[],(bytes32,bytes32,uint8)[]))": "3291bf99"
				}
			},
			"storageLayout": {
				"storage": [
					{
						"astId": 436,
						"contract": "upgradeSolidityRemix/mvp-sol/solidity/erc1155_proxy.sol:ERC1155Proxy",
						"label": "_owner",
						"offset": 0,
						"slot": "0",
						"type": "t_address"
					},
					{
						"astId": 441,
						"contract": "upgradeSolidityRemix/mvp-sol/solidity/erc1155_proxy.sol:ERC1155Proxy",
						"label": "_supportedInterfaces",
						"offset": 0,
						"slot": "1",
						"type": "t_mapping(t_bytes4,t_bool)"
					},
					{
						"astId": 611,
						"contract": "upgradeSolidityRemix/mvp-sol/solidity/erc1155_proxy.sol:ERC1155Proxy",
						"label": "_assets",
						"offset": 0,
						"slot": "2",
						"type": "t_mapping(t_address,t_mapping(t_uint256,t_struct(Balances)605_storage))"
					}
				],
				"types": {
					"t_address": {
						"encoding": "inplace",
						"label": "address",
						"numberOfBytes": "20"
					},
					"t_array(t_address)dyn_storage": {
						"base": "t_address",
						"encoding": "dynamic_array",
						"label": "address[]",
						"numberOfBytes": "32"
					},
					"t_bool": {
						"encoding": "inplace",
						"label": "bool",
						"numberOfBytes": "1"
					},
					"t_bytes4": {
						"encoding": "inplace",
						"label": "bytes4",
						"numberOfBytes": "4"
					},
					"t_mapping(t_address,t_mapping(t_uint256,t_struct(Balances)605_storage))": {
						"encoding": "mapping",
						"key": "t_address",
						"label": "mapping(address => mapping(uint256 => struct ERC1155Proxy.Balances))",
						"numberOfBytes": "32",
						"value": "t_mapping(t_uint256,t_struct(Balances)605_storage)"
					},
					"t_mapping(t_address,t_struct(Owners)1217_storage)": {
						"encoding": "mapping",
						"key": "t_address",
						"label": "mapping(address => struct NFTProxy.Owners)",
						"numberOfBytes": "32",
						"value": "t_struct(Owners)1217_storage"
					},
					"t_mapping(t_bytes4,t_bool)": {
						"encoding": "mapping",
						"key": "t_bytes4",
						"label": "mapping(bytes4 => bool)",
						"numberOfBytes": "32",
						"value": "t_bool"
					},
					"t_mapping(t_uint256,t_struct(Balances)605_storage)": {
						"encoding": "mapping",
						"key": "t_uint256",
						"label": "mapping(uint256 => struct ERC1155Proxy.Balances)",
						"numberOfBytes": "32",
						"value": "t_struct(Balances)605_storage"
					},
					"t_struct(Balances)605_storage": {
						"encoding": "inplace",
						"label": "struct ERC1155Proxy.Balances",
						"members": [
							{
								"astId": 600,
								"contract": "upgradeSolidityRemix/mvp-sol/solidity/erc1155_proxy.sol:ERC1155Proxy",
								"label": "total",
								"offset": 0,
								"slot": "0",
								"type": "t_uint256"
							},
							{
								"astId": 604,
								"contract": "upgradeSolidityRemix/mvp-sol/solidity/erc1155_proxy.sol:ERC1155Proxy",
								"label": "values",
								"offset": 0,
								"slot": "1",
								"type": "t_mapping(t_address,t_struct(Owners)1217_storage)"
							}
						],
						"numberOfBytes": "64"
					},
					"t_struct(Owners)1217_storage": {
						"encoding": "inplace",
						"label": "struct NFTProxy.Owners",
						"members": [
							{
								"astId": 1211,
								"contract": "upgradeSolidityRemix/mvp-sol/solidity/erc1155_proxy.sol:ERC1155Proxy",
								"label": "balances",
								"offset": 0,
								"slot": "0",
								"type": "t_uint256"
							},
							{
								"astId": 1213,
								"contract": "upgradeSolidityRemix/mvp-sol/solidity/erc1155_proxy.sol:ERC1155Proxy",
								"label": "signCount",
								"offset": 0,
								"slot": "1",
								"type": "t_uint256"
							},
							{
								"astId": 1216,
								"contract": "upgradeSolidityRemix/mvp-sol/solidity/erc1155_proxy.sol:ERC1155Proxy",
								"label": "owners",
								"offset": 0,
								"slot": "2",
								"type": "t_array(t_address)dyn_storage"
							}
						],
						"numberOfBytes": "96"
					},
					"t_uint256": {
						"encoding": "inplace",
						"label": "uint256",
						"numberOfBytes": "32"
					}
				}
			},
			"userdoc": {
				"kind": "user",
				"methods": {},
				"version": 1
			}
		}
	}
}