{
	"upgradeSolidityRemix/mvp-sol/solidity/base.sol": {
		"MvpBase": {
			"abi": [
				{
					"inputs": [],
					"stateMutability": "nonpayable",
					"type": "constructor"
				},
				{
					"anonymous": false,
					"inputs": [
						{
							"indexed": true,
							"internalType": "address",
							"name": "previousOwner",
							"type": "address"
						},
						{
							"indexed": true,
							"internalType": "address",
							"name": "newOwner",
							"type": "address"
						}
					],
					"name": "OwnershipTransferred",
					"type": "event"
				},
				{
					"inputs": [],
					"name": "owner",
					"outputs": [
						{
							"internalType": "address",
							"name": "",
							"type": "address"
						}
					],
					"stateMutability": "view",
					"type": "function"
				},
				{
					"inputs": [],
					"name": "renounceOwnership",
					"outputs": [],
					"stateMutability": "nonpayable",
					"type": "function"
				},
				{
					"inputs": [
						{
							"internalType": "bytes4",
							"name": "interfaceId",
							"type": "bytes4"
						}
					],
					"name": "supportsInterface",
					"outputs": [
						{
							"internalType": "bool",
							"name": "",
							"type": "bool"
						}
					],
					"stateMutability": "view",
					"type": "function"
				},
				{
					"inputs": [
						{
							"internalType": "address",
							"name": "newOwner",
							"type": "address"
						}
					],
					"name": "transferOwnership",
					"outputs": [],
					"stateMutability": "nonpayable",
					"type": "function"
				}
			],
			"devdoc": {
				"kind": "dev",
				"methods": {
					"owner()": {
						"details": "Returns the address of the current owner."
					},
					"renounceOwnership()": {
						"details": "Leaves the contract without owner. It will not be possible to call `onlyOwner` functions anymore. Can only be called by the current owner. NOTE: Renouncing ownership will leave the contract without an owner, thereby removing any functionality that is only available to the owner."
					},
					"supportsInterface(bytes4)": {
						"details": "See {IERC165-supportsInterface}. Time complexity O(1), guaranteed to always use less than 30 000 gas."
					},
					"transferOwnership(address)": {
						"details": "Transfers ownership of the contract to a new account (`newOwner`). Can only be called by the current owner."
					}
				},
				"stateVariables": {
					"_supportedInterfaces": {
						"details": "Mapping of interface ids to whether or not it's supported."
					}
				},
				"version": 1
			},
			"evm": {
				"assembly": "    /* \"upgradeSolidityRemix/mvp-sol/solidity/base.sol\":1808:4578  contract MvpBase is IERC165 {\r... */\n  mstore(0x40, 0x80)\n    /* \"upgradeSolidityRemix/mvp-sol/solidity/base.sol\":2162:2271  constructor() public {  // payable\r... */\n  callvalue\n  dup1\n  iszero\n  tag_1\n  jumpi\n  0x00\n  dup1\n  revert\ntag_1:\n  pop\n    /* \"upgradeSolidityRemix/mvp-sol/solidity/base.sol\":2209:2221  _msgSender() */\n  tag_4\n    /* \"upgradeSolidityRemix/mvp-sol/solidity/base.sol\":2209:2219  _msgSender */\n  shl(0x20, tag_5)\n    /* \"upgradeSolidityRemix/mvp-sol/solidity/base.sol\":2209:2221  _msgSender() */\n  0x20\n  shr\n  jump\t// in\ntag_4:\n    /* \"upgradeSolidityRemix/mvp-sol/solidity/base.sol\":2200:2206  _owner */\n  0x00\n  dup1\n    /* \"upgradeSolidityRemix/mvp-sol/solidity/base.sol\":2200:2221  _owner = _msgSender() */\n  0x0100\n  exp\n  dup2\n  sload\n  dup2\n  0xffffffffffffffffffffffffffffffffffffffff\n  mul\n  not\n  and\n  swap1\n  dup4\n  0xffffffffffffffffffffffffffffffffffffffff\n  and\n  mul\n  or\n  swap1\n  sstore\n  pop\n    /* \"upgradeSolidityRemix/mvp-sol/solidity/base.sol\":2226:2266  _registerInterface(_INTERFACE_ID_ERC165) */\n  tag_6\n    /* \"upgradeSolidityRemix/mvp-sol/solidity/base.sol\":1890:1900  0x01ffc9a7 */\n  0x01ffc9a7\n    /* \"upgradeSolidityRemix/mvp-sol/solidity/base.sol\":2245:2265  _INTERFACE_ID_ERC165 */\n  0xe0\n  shl\n    /* \"upgradeSolidityRemix/mvp-sol/solidity/base.sol\":2226:2244  _registerInterface */\n  shl(0x20, tag_7)\n    /* \"upgradeSolidityRemix/mvp-sol/solidity/base.sol\":2226:2266  _registerInterface(_INTERFACE_ID_ERC165) */\n  0x20\n  shr\n  jump\t// in\ntag_6:\n    /* \"upgradeSolidityRemix/mvp-sol/solidity/base.sol\":1808:4578  contract MvpBase is IERC165 {\r... */\n  jump(tag_8)\n    /* \"upgradeSolidityRemix/mvp-sol/solidity/base.sol\":4255:4352  function _msgSender() internal view virtual returns (address payable) {\r... */\ntag_5:\n    /* \"upgradeSolidityRemix/mvp-sol/solidity/base.sol\":4308:4323  address payable */\n  0x00\n    /* \"upgradeSolidityRemix/mvp-sol/solidity/base.sol\":4337:4347  msg.sender */\n  caller\n    /* \"upgradeSolidityRemix/mvp-sol/solidity/base.sol\":4330:4347  return msg.sender */\n  swap1\n  pop\n    /* \"upgradeSolidityRemix/mvp-sol/solidity/base.sol\":4255:4352  function _msgSender() internal view virtual returns (address payable) {\r... */\n  swap1\n  jump\t// out\n    /* \"upgradeSolidityRemix/mvp-sol/solidity/base.sol\":2915:3103  function _registerInterface(bytes4 interfaceId) internal virtual {\r... */\ntag_7:\n    /* \"upgradeSolidityRemix/mvp-sol/solidity/base.sol\":3009:3019  0xffffffff */\n  0xffffffff\n    /* \"upgradeSolidityRemix/mvp-sol/solidity/base.sol\":2994:3019  interfaceId != 0xffffffff */\n  0xe0\n  shl\n    /* \"upgradeSolidityRemix/mvp-sol/solidity/base.sol\":2994:3005  interfaceId */\n  dup2\n    /* \"upgradeSolidityRemix/mvp-sol/solidity/base.sol\":2994:3019  interfaceId != 0xffffffff */\n  not(0xffffffffffffffffffffffffffffffffffffffffffffffffffffffff)\n  and\n  eq\n  iszero\n    /* \"upgradeSolidityRemix/mvp-sol/solidity/base.sol\":2986:3052  require(interfaceId != 0xffffffff, \"ERC165: invalid interface id\") */\n  tag_11\n  jumpi\n  mload(0x40)\n  0x08c379a000000000000000000000000000000000000000000000000000000000\n  dup2\n  mstore\n  0x04\n  add\n  dup1\n  dup1\n  0x20\n  add\n  dup3\n  dup2\n  sub\n  dup3\n  mstore\n  0x1c\n  dup2\n  mstore\n  0x20\n  add\n  dup1\n  0x4552433136353a20696e76616c696420696e7465726661636520696400000000\n  dup2\n  mstore\n  pop\n  0x20\n  add\n  swap2\n  pop\n  pop\n  mload(0x40)\n  dup1\n  swap2\n  sub\n  swap1\n  revert\ntag_11:\n    /* \"upgradeSolidityRemix/mvp-sol/solidity/base.sol\":3094:3098  true */\n  0x01\n    /* \"upgradeSolidityRemix/mvp-sol/solidity/base.sol\":3058:3078  _supportedInterfaces */\n  dup1\n    /* \"upgradeSolidityRemix/mvp-sol/solidity/base.sol\":3058:3091  _supportedInterfaces[interfaceId] */\n  0x00\n    /* \"upgradeSolidityRemix/mvp-sol/solidity/base.sol\":3079:3090  interfaceId */\n  dup4\n    /* \"upgradeSolidityRemix/mvp-sol/solidity/base.sol\":3058:3091  _supportedInterfaces[interfaceId] */\n  not(0xffffffffffffffffffffffffffffffffffffffffffffffffffffffff)\n  and\n  not(0xffffffffffffffffffffffffffffffffffffffffffffffffffffffff)\n  and\n  dup2\n  mstore\n  0x20\n  add\n  swap1\n  dup2\n  mstore\n  0x20\n  add\n  0x00\n  keccak256\n  0x00\n    /* \"upgradeSolidityRemix/mvp-sol/solidity/base.sol\":3058:3098  _supportedInterfaces[interfaceId] = true */\n  0x0100\n  exp\n  dup2\n  sload\n  dup2\n  0xff\n  mul\n  not\n  and\n  swap1\n  dup4\n  iszero\n  iszero\n  mul\n  or\n  swap1\n  sstore\n  pop\n    /* \"upgradeSolidityRemix/mvp-sol/solidity/base.sol\":2915:3103  function _registerInterface(bytes4 interfaceId) internal virtual {\r... */\n  pop\n  jump\t// out\n    /* \"upgradeSolidityRemix/mvp-sol/solidity/base.sol\":1808:4578  contract MvpBase is IERC165 {\r... */\ntag_8:\n  dataSize(sub_0)\n  dup1\n  dataOffset(sub_0)\n  0x00\n  codecopy\n  0x00\n  return\nstop\n\nsub_0: assembly {\n        /* \"upgradeSolidityRemix/mvp-sol/solidity/base.sol\":1808:4578  contract MvpBase is IERC165 {\r... */\n      mstore(0x40, 0x80)\n      callvalue\n      dup1\n      iszero\n      tag_1\n      jumpi\n      0x00\n      dup1\n      revert\n    tag_1:\n      pop\n      jumpi(tag_2, lt(calldatasize, 0x04))\n      shr(0xe0, calldataload(0x00))\n      dup1\n      0x01ffc9a7\n      eq\n      tag_3\n      jumpi\n      dup1\n      0x715018a6\n      eq\n      tag_4\n      jumpi\n      dup1\n      0x8da5cb5b\n      eq\n      tag_5\n      jumpi\n      dup1\n      0xf2fde38b\n      eq\n      tag_6\n      jumpi\n    tag_2:\n      0x00\n      dup1\n      revert\n        /* \"upgradeSolidityRemix/mvp-sol/solidity/base.sol\":2410:2544  function supportsInterface(bytes4 interfaceId) public view override returns (bool) {\r... */\n    tag_3:\n      tag_7\n      0x04\n      dup1\n      calldatasize\n      sub\n      0x20\n      dup2\n      lt\n      iszero\n      tag_8\n      jumpi\n      0x00\n      dup1\n      revert\n    tag_8:\n      dup2\n      add\n      swap1\n      dup1\n      dup1\n      calldataload\n      not(0xffffffffffffffffffffffffffffffffffffffffffffffffffffffff)\n      and\n      swap1\n      0x20\n      add\n      swap1\n      swap3\n      swap2\n      swap1\n      pop\n      pop\n      pop\n      tag_9\n      jump\t// in\n    tag_7:\n      mload(0x40)\n      dup1\n      dup3\n      iszero\n      iszero\n      dup2\n      mstore\n      0x20\n      add\n      swap2\n      pop\n      pop\n      mload(0x40)\n      dup1\n      swap2\n      sub\n      swap1\n      return\n        /* \"upgradeSolidityRemix/mvp-sol/solidity/base.sol\":3754:3887  function renounceOwnership() public virtual onlyOwner {\r... */\n    tag_4:\n      tag_10\n      tag_11\n      jump\t// in\n    tag_10:\n      stop\n        /* \"upgradeSolidityRemix/mvp-sol/solidity/base.sol\":3357:3427  function owner() public view returns (address) {\r... */\n    tag_5:\n      tag_12\n      tag_13\n      jump\t// in\n    tag_12:\n      mload(0x40)\n      dup1\n      dup3\n      0xffffffffffffffffffffffffffffffffffffffff\n      and\n      dup2\n      mstore\n      0x20\n      add\n      swap2\n      pop\n      pop\n      mload(0x40)\n      dup1\n      swap2\n      sub\n      swap1\n      return\n        /* \"upgradeSolidityRemix/mvp-sol/solidity/base.sol\":4027:4250  function transferOwnership(address newOwner) public virtual onlyOwner {\r... */\n    tag_6:\n      tag_14\n      0x04\n      dup1\n      calldatasize\n      sub\n      0x20\n      dup2\n      lt\n      iszero\n      tag_15\n      jumpi\n      0x00\n      dup1\n      revert\n    tag_15:\n      dup2\n      add\n      swap1\n      dup1\n      dup1\n      calldataload\n      0xffffffffffffffffffffffffffffffffffffffff\n      and\n      swap1\n      0x20\n      add\n      swap1\n      swap3\n      swap2\n      swap1\n      pop\n      pop\n      pop\n      tag_16\n      jump\t// in\n    tag_14:\n      stop\n        /* \"upgradeSolidityRemix/mvp-sol/solidity/base.sol\":2410:2544  function supportsInterface(bytes4 interfaceId) public view override returns (bool) {\r... */\n    tag_9:\n        /* \"upgradeSolidityRemix/mvp-sol/solidity/base.sol\":2487:2491  bool */\n      0x00\n        /* \"upgradeSolidityRemix/mvp-sol/solidity/base.sol\":2506:2526  _supportedInterfaces */\n      0x01\n        /* \"upgradeSolidityRemix/mvp-sol/solidity/base.sol\":2506:2539  _supportedInterfaces[interfaceId] */\n      0x00\n        /* \"upgradeSolidityRemix/mvp-sol/solidity/base.sol\":2527:2538  interfaceId */\n      dup4\n        /* \"upgradeSolidityRemix/mvp-sol/solidity/base.sol\":2506:2539  _supportedInterfaces[interfaceId] */\n      not(0xffffffffffffffffffffffffffffffffffffffffffffffffffffffff)\n      and\n      not(0xffffffffffffffffffffffffffffffffffffffffffffffffffffffff)\n      and\n      dup2\n      mstore\n      0x20\n      add\n      swap1\n      dup2\n      mstore\n      0x20\n      add\n      0x00\n      keccak256\n      0x00\n      swap1\n      sload\n      swap1\n      0x0100\n      exp\n      swap1\n      div\n      0xff\n      and\n        /* \"upgradeSolidityRemix/mvp-sol/solidity/base.sol\":2499:2539  return _supportedInterfaces[interfaceId] */\n      swap1\n      pop\n        /* \"upgradeSolidityRemix/mvp-sol/solidity/base.sol\":2410:2544  function supportsInterface(bytes4 interfaceId) public view override returns (bool) {\r... */\n      swap2\n      swap1\n      pop\n      jump\t// out\n        /* \"upgradeSolidityRemix/mvp-sol/solidity/base.sol\":3754:3887  function renounceOwnership() public virtual onlyOwner {\r... */\n    tag_11:\n        /* \"upgradeSolidityRemix/mvp-sol/solidity/base.sol\":3228:3240  _msgSender() */\n      tag_19\n        /* \"upgradeSolidityRemix/mvp-sol/solidity/base.sol\":3228:3238  _msgSender */\n      tag_20\n        /* \"upgradeSolidityRemix/mvp-sol/solidity/base.sol\":3228:3240  _msgSender() */\n      jump\t// in\n    tag_19:\n        /* \"upgradeSolidityRemix/mvp-sol/solidity/base.sol\":3218:3240  _owner == _msgSender() */\n      0xffffffffffffffffffffffffffffffffffffffff\n      and\n        /* \"upgradeSolidityRemix/mvp-sol/solidity/base.sol\":3218:3224  _owner */\n      0x00\n      dup1\n      sload\n      swap1\n      0x0100\n      exp\n      swap1\n      div\n      0xffffffffffffffffffffffffffffffffffffffff\n      and\n        /* \"upgradeSolidityRemix/mvp-sol/solidity/base.sol\":3218:3240  _owner == _msgSender() */\n      0xffffffffffffffffffffffffffffffffffffffff\n      and\n      eq\n        /* \"upgradeSolidityRemix/mvp-sol/solidity/base.sol\":3210:3277  require(_owner == _msgSender(), \"Ownable: caller is not the owner\") */\n      tag_21\n      jumpi\n      mload(0x40)\n      0x08c379a000000000000000000000000000000000000000000000000000000000\n      dup2\n      mstore\n      0x04\n      add\n      dup1\n      dup1\n      0x20\n      add\n      dup3\n      dup2\n      sub\n      dup3\n      mstore\n      0x20\n      dup2\n      mstore\n      0x20\n      add\n      dup1\n      0x4f776e61626c653a2063616c6c6572206973206e6f7420746865206f776e6572\n      dup2\n      mstore\n      pop\n      0x20\n      add\n      swap2\n      pop\n      pop\n      mload(0x40)\n      dup1\n      swap2\n      sub\n      swap1\n      revert\n    tag_21:\n        /* \"upgradeSolidityRemix/mvp-sol/solidity/base.sol\":3855:3856  0 */\n      0x00\n        /* \"upgradeSolidityRemix/mvp-sol/solidity/base.sol\":3818:3858  OwnershipTransferred(_owner, address(0)) */\n      0xffffffffffffffffffffffffffffffffffffffff\n      and\n        /* \"upgradeSolidityRemix/mvp-sol/solidity/base.sol\":3839:3845  _owner */\n      0x00\n      dup1\n      sload\n      swap1\n      0x0100\n      exp\n      swap1\n      div\n      0xffffffffffffffffffffffffffffffffffffffff\n      and\n        /* \"upgradeSolidityRemix/mvp-sol/solidity/base.sol\":3818:3858  OwnershipTransferred(_owner, address(0)) */\n      0xffffffffffffffffffffffffffffffffffffffff\n      and\n      0x8be0079c531659141344cd1fd0a4f28419497f9722a3daafe3b4186f6b6457e0\n      mload(0x40)\n      mload(0x40)\n      dup1\n      swap2\n      sub\n      swap1\n      log3\n        /* \"upgradeSolidityRemix/mvp-sol/solidity/base.sol\":3880:3881  0 */\n      0x00\n        /* \"upgradeSolidityRemix/mvp-sol/solidity/base.sol\":3863:3869  _owner */\n      dup1\n      0x00\n        /* \"upgradeSolidityRemix/mvp-sol/solidity/base.sol\":3863:3882  _owner = address(0) */\n      0x0100\n      exp\n      dup2\n      sload\n      dup2\n      0xffffffffffffffffffffffffffffffffffffffff\n      mul\n      not\n      and\n      swap1\n      dup4\n      0xffffffffffffffffffffffffffffffffffffffff\n      and\n      mul\n      or\n      swap1\n      sstore\n      pop\n        /* \"upgradeSolidityRemix/mvp-sol/solidity/base.sol\":3754:3887  function renounceOwnership() public virtual onlyOwner {\r... */\n      jump\t// out\n        /* \"upgradeSolidityRemix/mvp-sol/solidity/base.sol\":3357:3427  function owner() public view returns (address) {\r... */\n    tag_13:\n        /* \"upgradeSolidityRemix/mvp-sol/solidity/base.sol\":3395:3402  address */\n      0x00\n        /* \"upgradeSolidityRemix/mvp-sol/solidity/base.sol\":3416:3422  _owner */\n      dup1\n      0x00\n      swap1\n      sload\n      swap1\n      0x0100\n      exp\n      swap1\n      div\n      0xffffffffffffffffffffffffffffffffffffffff\n      and\n        /* \"upgradeSolidityRemix/mvp-sol/solidity/base.sol\":3409:3422  return _owner */\n      swap1\n      pop\n        /* \"upgradeSolidityRemix/mvp-sol/solidity/base.sol\":3357:3427  function owner() public view returns (address) {\r... */\n      swap1\n      jump\t// out\n        /* \"upgradeSolidityRemix/mvp-sol/solidity/base.sol\":4027:4250  function transferOwnership(address newOwner) public virtual onlyOwner {\r... */\n    tag_16:\n        /* \"upgradeSolidityRemix/mvp-sol/solidity/base.sol\":3228:3240  _msgSender() */\n      tag_25\n        /* \"upgradeSolidityRemix/mvp-sol/solidity/base.sol\":3228:3238  _msgSender */\n      tag_20\n        /* \"upgradeSolidityRemix/mvp-sol/solidity/base.sol\":3228:3240  _msgSender() */\n      jump\t// in\n    tag_25:\n        /* \"upgradeSolidityRemix/mvp-sol/solidity/base.sol\":3218:3240  _owner == _msgSender() */\n      0xffffffffffffffffffffffffffffffffffffffff\n      and\n        /* \"upgradeSolidityRemix/mvp-sol/solidity/base.sol\":3218:3224  _owner */\n      0x00\n      dup1\n      sload\n      swap1\n      0x0100\n      exp\n      swap1\n      div\n      0xffffffffffffffffffffffffffffffffffffffff\n      and\n        /* \"upgradeSolidityRemix/mvp-sol/solidity/base.sol\":3218:3240  _owner == _msgSender() */\n      0xffffffffffffffffffffffffffffffffffffffff\n      and\n      eq\n        /* \"upgradeSolidityRemix/mvp-sol/solidity/base.sol\":3210:3277  require(_owner == _msgSender(), \"Ownable: caller is not the owner\") */\n      tag_26\n      jumpi\n      mload(0x40)\n      0x08c379a000000000000000000000000000000000000000000000000000000000\n      dup2\n      mstore\n      0x04\n      add\n      dup1\n      dup1\n      0x20\n      add\n      dup3\n      dup2\n      sub\n      dup3\n      mstore\n      0x20\n      dup2\n      mstore\n      0x20\n      add\n      dup1\n      0x4f776e61626c653a2063616c6c6572206973206e6f7420746865206f776e6572\n      dup2\n      mstore\n      pop\n      0x20\n      add\n      swap2\n      pop\n      pop\n      mload(0x40)\n      dup1\n      swap2\n      sub\n      swap1\n      revert\n    tag_26:\n        /* \"upgradeSolidityRemix/mvp-sol/solidity/base.sol\":4130:4131  0 */\n      0x00\n        /* \"upgradeSolidityRemix/mvp-sol/solidity/base.sol\":4110:4132  newOwner != address(0) */\n      0xffffffffffffffffffffffffffffffffffffffff\n      and\n        /* \"upgradeSolidityRemix/mvp-sol/solidity/base.sol\":4110:4118  newOwner */\n      dup2\n        /* \"upgradeSolidityRemix/mvp-sol/solidity/base.sol\":4110:4132  newOwner != address(0) */\n      0xffffffffffffffffffffffffffffffffffffffff\n      and\n      eq\n      iszero\n        /* \"upgradeSolidityRemix/mvp-sol/solidity/base.sol\":4102:4175  require(newOwner != address(0), \"Ownable: new owner is the zero address\") */\n      tag_28\n      jumpi\n      mload(0x40)\n      0x08c379a000000000000000000000000000000000000000000000000000000000\n      dup2\n      mstore\n      0x04\n      add\n      dup1\n      dup1\n      0x20\n      add\n      dup3\n      dup2\n      sub\n      dup3\n      mstore\n      0x26\n      dup2\n      mstore\n      0x20\n      add\n      dup1\n      data_245f15ff17f551913a7a18385165551503906a406f905ac1c2437281a7cd0cfe\n      0x26\n      swap2\n      codecopy\n      0x40\n      add\n      swap2\n      pop\n      pop\n      mload(0x40)\n      dup1\n      swap2\n      sub\n      swap1\n      revert\n    tag_28:\n        /* \"upgradeSolidityRemix/mvp-sol/solidity/base.sol\":4214:4222  newOwner */\n      dup1\n        /* \"upgradeSolidityRemix/mvp-sol/solidity/base.sol\":4185:4223  OwnershipTransferred(_owner, newOwner) */\n      0xffffffffffffffffffffffffffffffffffffffff\n      and\n        /* \"upgradeSolidityRemix/mvp-sol/solidity/base.sol\":4206:4212  _owner */\n      0x00\n      dup1\n      sload\n      swap1\n      0x0100\n      exp\n      swap1\n      div\n      0xffffffffffffffffffffffffffffffffffffffff\n      and\n        /* \"upgradeSolidityRemix/mvp-sol/solidity/base.sol\":4185:4223  OwnershipTransferred(_owner, newOwner) */\n      0xffffffffffffffffffffffffffffffffffffffff\n      and\n      0x8be0079c531659141344cd1fd0a4f28419497f9722a3daafe3b4186f6b6457e0\n      mload(0x40)\n      mload(0x40)\n      dup1\n      swap2\n      sub\n      swap1\n      log3\n        /* \"upgradeSolidityRemix/mvp-sol/solidity/base.sol\":4237:4245  newOwner */\n      dup1\n        /* \"upgradeSolidityRemix/mvp-sol/solidity/base.sol\":4228:4234  _owner */\n      0x00\n      dup1\n        /* \"upgradeSolidityRemix/mvp-sol/solidity/base.sol\":4228:4245  _owner = newOwner */\n      0x0100\n      exp\n      dup2\n      sload\n      dup2\n      0xffffffffffffffffffffffffffffffffffffffff\n      mul\n      not\n      and\n      swap1\n      dup4\n      0xffffffffffffffffffffffffffffffffffffffff\n      and\n      mul\n      or\n      swap1\n      sstore\n      pop\n        /* \"upgradeSolidityRemix/mvp-sol/solidity/base.sol\":4027:4250  function transferOwnership(address newOwner) public virtual onlyOwner {\r... */\n      pop\n      jump\t// out\n        /* \"upgradeSolidityRemix/mvp-sol/solidity/base.sol\":4255:4352  function _msgSender() internal view virtual returns (address payable) {\r... */\n    tag_20:\n        /* \"upgradeSolidityRemix/mvp-sol/solidity/base.sol\":4308:4323  address payable */\n      0x00\n        /* \"upgradeSolidityRemix/mvp-sol/solidity/base.sol\":4337:4347  msg.sender */\n      caller\n        /* \"upgradeSolidityRemix/mvp-sol/solidity/base.sol\":4330:4347  return msg.sender */\n      swap1\n      pop\n        /* \"upgradeSolidityRemix/mvp-sol/solidity/base.sol\":4255:4352  function _msgSender() internal view virtual returns (address payable) {\r... */\n      swap1\n      jump\t// out\n    stop\n    data_245f15ff17f551913a7a18385165551503906a406f905ac1c2437281a7cd0cfe 4f776e61626c653a206e6577206f776e657220697320746865207a65726f2061646472657373\n\n    auxdata: 0xa264697066735822122096e2a9ad0a23a390ea1d1bd3f50ab50ae3f9e4b4db624a1cb0a8eb345ae0497864736f6c634300060c0033\n}\n",
				"bytecode": {
					"linkReferences": {},
					"object": "608060405234801561001057600080fd5b5061001f61007960201b60201c565b6000806101000a81548173ffffffffffffffffffffffffffffffffffffffff021916908373ffffffffffffffffffffffffffffffffffffffff1602179055506100746301ffc9a760e01b61008160201b60201c565b610189565b600033905090565b63ffffffff60e01b817bffffffffffffffffffffffffffffffffffffffffffffffffffffffff1916141561011d576040517f08c379a000000000000000000000000000000000000000000000000000000000815260040180806020018281038252601c8152602001807f4552433136353a20696e76616c696420696e746572666163652069640000000081525060200191505060405180910390fd5b6001806000837bffffffffffffffffffffffffffffffffffffffffffffffffffffffff19167bffffffffffffffffffffffffffffffffffffffffffffffffffffffff1916815260200190815260200160002060006101000a81548160ff02191690831515021790555050565b6105bc806101986000396000f3fe608060405234801561001057600080fd5b506004361061004c5760003560e01c806301ffc9a714610051578063715018a6146100b45780638da5cb5b146100be578063f2fde38b146100f2575b600080fd5b61009c6004803603602081101561006757600080fd5b8101908080357bffffffffffffffffffffffffffffffffffffffffffffffffffffffff19169060200190929190505050610136565b60405180821515815260200191505060405180910390f35b6100bc61019e565b005b6100c6610324565b604051808273ffffffffffffffffffffffffffffffffffffffff16815260200191505060405180910390f35b6101346004803603602081101561010857600080fd5b81019080803573ffffffffffffffffffffffffffffffffffffffff16906020019092919050505061034d565b005b600060016000837bffffffffffffffffffffffffffffffffffffffffffffffffffffffff19167bffffffffffffffffffffffffffffffffffffffffffffffffffffffff1916815260200190815260200160002060009054906101000a900460ff169050919050565b6101a6610558565b73ffffffffffffffffffffffffffffffffffffffff1660008054906101000a900473ffffffffffffffffffffffffffffffffffffffff1673ffffffffffffffffffffffffffffffffffffffff1614610266576040517f08c379a00000000000000000000000000000000000000000000000000000000081526004018080602001828103825260208152602001807f4f776e61626c653a2063616c6c6572206973206e6f7420746865206f776e657281525060200191505060405180910390fd5b600073ffffffffffffffffffffffffffffffffffffffff1660008054906101000a900473ffffffffffffffffffffffffffffffffffffffff1673ffffffffffffffffffffffffffffffffffffffff167f8be0079c531659141344cd1fd0a4f28419497f9722a3daafe3b4186f6b6457e060405160405180910390a360008060006101000a81548173ffffffffffffffffffffffffffffffffffffffff021916908373ffffffffffffffffffffffffffffffffffffffff160217905550565b60008060009054906101000a900473ffffffffffffffffffffffffffffffffffffffff16905090565b610355610558565b73ffffffffffffffffffffffffffffffffffffffff1660008054906101000a900473ffffffffffffffffffffffffffffffffffffffff1673ffffffffffffffffffffffffffffffffffffffff1614610415576040517f08c379a00000000000000000000000000000000000000000000000000000000081526004018080602001828103825260208152602001807f4f776e61626c653a2063616c6c6572206973206e6f7420746865206f776e657281525060200191505060405180910390fd5b600073ffffffffffffffffffffffffffffffffffffffff168173ffffffffffffffffffffffffffffffffffffffff16141561049b576040517f08c379a00000000000000000000000000000000000000000000000000000000081526004018080602001828103825260268152602001806105616026913960400191505060405180910390fd5b8073ffffffffffffffffffffffffffffffffffffffff1660008054906101000a900473ffffffffffffffffffffffffffffffffffffffff1673ffffffffffffffffffffffffffffffffffffffff167f8be0079c531659141344cd1fd0a4f28419497f9722a3daafe3b4186f6b6457e060405160405180910390a3806000806101000a81548173ffffffffffffffffffffffffffffffffffffffff021916908373ffffffffffffffffffffffffffffffffffffffff16021790555050565b60003390509056fe4f776e61626c653a206e6577206f776e657220697320746865207a65726f2061646472657373a264697066735822122096e2a9ad0a23a390ea1d1bd3f50ab50ae3f9e4b4db624a1cb0a8eb345ae0497864736f6c634300060c0033",
					"opcodes": "PUSH1 0x80 PUSH1 0x40 MSTORE CALLVALUE DUP1 ISZERO PUSH2 0x10 JUMPI PUSH1 0x0 DUP1 REVERT JUMPDEST POP PUSH2 0x1F PUSH2 0x79 PUSH1 0x20 SHL PUSH1 0x20 SHR JUMP JUMPDEST PUSH1 0x0 DUP1 PUSH2 0x100 EXP DUP2 SLOAD DUP2 PUSH20 0xFFFFFFFFFFFFFFFFFFFFFFFFFFFFFFFFFFFFFFFF MUL NOT AND SWAP1 DUP4 PUSH20 0xFFFFFFFFFFFFFFFFFFFFFFFFFFFFFFFFFFFFFFFF AND MUL OR SWAP1 SSTORE POP PUSH2 0x74 PUSH4 0x1FFC9A7 PUSH1 0xE0 SHL PUSH2 0x81 PUSH1 0x20 SHL PUSH1 0x20 SHR JUMP JUMPDEST PUSH2 0x189 JUMP JUMPDEST PUSH1 0x0 CALLER SWAP1 POP SWAP1 JUMP JUMPDEST PUSH4 0xFFFFFFFF PUSH1 0xE0 SHL DUP2 PUSH28 0xFFFFFFFFFFFFFFFFFFFFFFFFFFFFFFFFFFFFFFFFFFFFFFFFFFFFFFFF NOT AND EQ ISZERO PUSH2 0x11D JUMPI PUSH1 0x40 MLOAD PUSH32 0x8C379A000000000000000000000000000000000000000000000000000000000 DUP2 MSTORE PUSH1 0x4 ADD DUP1 DUP1 PUSH1 0x20 ADD DUP3 DUP2 SUB DUP3 MSTORE PUSH1 0x1C DUP2 MSTORE PUSH1 0x20 ADD DUP1 PUSH32 0x4552433136353A20696E76616C696420696E7465726661636520696400000000 DUP2 MSTORE POP PUSH1 0x20 ADD SWAP2 POP POP PUSH1 0x40 MLOAD DUP1 SWAP2 SUB SWAP1 REVERT JUMPDEST PUSH1 0x1 DUP1 PUSH1 0x0 DUP4 PUSH28 0xFFFFFFFFFFFFFFFFFFFFFFFFFFFFFFFFFFFFFFFFFFFFFFFFFFFFFFFF NOT AND PUSH28 0xFFFFFFFFFFFFFFFFFFFFFFFFFFFFFFFFFFFFFFFFFFFFFFFFFFFFFFFF NOT AND DUP2 MSTORE PUSH1 0x20 ADD SWAP1 DUP2 MSTORE PUSH1 0x20 ADD PUSH1 0x0 KECCAK256 PUSH1 0x0 PUSH2 0x100 EXP DUP2 SLOAD DUP2 PUSH1 0xFF MUL NOT AND SWAP1 DUP4 ISZERO ISZERO MUL OR SWAP1 SSTORE POP POP JUMP JUMPDEST PUSH2 0x5BC DUP1 PUSH2 0x198 PUSH1 0x0 CODECOPY PUSH1 0x0 RETURN INVALID PUSH1 0x80 PUSH1 0x40 MSTORE CALLVALUE DUP1 ISZERO PUSH2 0x10 JUMPI PUSH1 0x0 DUP1 REVERT JUMPDEST POP PUSH1 0x4 CALLDATASIZE LT PUSH2 0x4C JUMPI PUSH1 0x0 CALLDATALOAD PUSH1 0xE0 SHR DUP1 PUSH4 0x1FFC9A7 EQ PUSH2 0x51 JUMPI DUP1 PUSH4 0x715018A6 EQ PUSH2 0xB4 JUMPI DUP1 PUSH4 0x8DA5CB5B EQ PUSH2 0xBE JUMPI DUP1 PUSH4 0xF2FDE38B EQ PUSH2 0xF2 JUMPI JUMPDEST PUSH1 0x0 DUP1 REVERT JUMPDEST PUSH2 0x9C PUSH1 0x4 DUP1 CALLDATASIZE SUB PUSH1 0x20 DUP2 LT ISZERO PUSH2 0x67 JUMPI PUSH1 0x0 DUP1 REVERT JUMPDEST DUP2 ADD SWAP1 DUP1 DUP1 CALLDATALOAD PUSH28 0xFFFFFFFFFFFFFFFFFFFFFFFFFFFFFFFFFFFFFFFFFFFFFFFFFFFFFFFF NOT AND SWAP1 PUSH1 0x20 ADD SWAP1 SWAP3 SWAP2 SWAP1 POP POP POP PUSH2 0x136 JUMP JUMPDEST PUSH1 0x40 MLOAD DUP1 DUP3 ISZERO ISZERO DUP2 MSTORE PUSH1 0x20 ADD SWAP2 POP POP PUSH1 0x40 MLOAD DUP1 SWAP2 SUB SWAP1 RETURN JUMPDEST PUSH2 0xBC PUSH2 0x19E JUMP JUMPDEST STOP JUMPDEST PUSH2 0xC6 PUSH2 0x324 JUMP JUMPDEST PUSH1 0x40 MLOAD DUP1 DUP3 PUSH20 0xFFFFFFFFFFFFFFFFFFFFFFFFFFFFFFFFFFFFFFFF AND DUP2 MSTORE PUSH1 0x20 ADD SWAP2 POP POP PUSH1 0x40 MLOAD DUP1 SWAP2 SUB SWAP1 RETURN JUMPDEST PUSH2 0x134 PUSH1 0x4 DUP1 CALLDATASIZE SUB PUSH1 0x20 DUP2 LT ISZERO PUSH2 0x108 JUMPI PUSH1 0x0 DUP1 REVERT JUMPDEST DUP2 ADD SWAP1 DUP1 DUP1 CALLDATALOAD PUSH20 0xFFFFFFFFFFFFFFFFFFFFFFFFFFFFFFFFFFFFFFFF AND SWAP1 PUSH1 0x20 ADD SWAP1 SWAP3 SWAP2 SWAP1 POP POP POP PUSH2 0x34D JUMP JUMPDEST STOP JUMPDEST PUSH1 0x0 PUSH1 0x1 PUSH1 0x0 DUP4 PUSH28 0xFFFFFFFFFFFFFFFFFFFFFFFFFFFFFFFFFFFFFFFFFFFFFFFFFFFFFFFF NOT AND PUSH28 0xFFFFFFFFFFFFFFFFFFFFFFFFFFFFFFFFFFFFFFFFFFFFFFFFFFFFFFFF NOT AND DUP2 MSTORE PUSH1 0x20 ADD SWAP1 DUP2 MSTORE PUSH1 0x20 ADD PUSH1 0x0 KECCAK256 PUSH1 0x0 SWAP1 SLOAD SWAP1 PUSH2 0x100 EXP SWAP1 DIV PUSH1 0xFF AND SWAP1 POP SWAP2 SWAP1 POP JUMP JUMPDEST PUSH2 0x1A6 PUSH2 0x558 JUMP JUMPDEST PUSH20 0xFFFFFFFFFFFFFFFFFFFFFFFFFFFFFFFFFFFFFFFF AND PUSH1 0x0 DUP1 SLOAD SWAP1 PUSH2 0x100 EXP SWAP1 DIV PUSH20 0xFFFFFFFFFFFFFFFFFFFFFFFFFFFFFFFFFFFFFFFF AND PUSH20 0xFFFFFFFFFFFFFFFFFFFFFFFFFFFFFFFFFFFFFFFF AND EQ PUSH2 0x266 JUMPI PUSH1 0x40 MLOAD PUSH32 0x8C379A000000000000000000000000000000000000000000000000000000000 DUP2 MSTORE PUSH1 0x4 ADD DUP1 DUP1 PUSH1 0x20 ADD DUP3 DUP2 SUB DUP3 MSTORE PUSH1 0x20 DUP2 MSTORE PUSH1 0x20 ADD DUP1 PUSH32 0x4F776E61626C653A2063616C6C6572206973206E6F7420746865206F776E6572 DUP2 MSTORE POP PUSH1 0x20 ADD SWAP2 POP POP PUSH1 0x40 MLOAD DUP1 SWAP2 SUB SWAP1 REVERT JUMPDEST PUSH1 0x0 PUSH20 0xFFFFFFFFFFFFFFFFFFFFFFFFFFFFFFFFFFFFFFFF AND PUSH1 0x0 DUP1 SLOAD SWAP1 PUSH2 0x100 EXP SWAP1 DIV PUSH20 0xFFFFFFFFFFFFFFFFFFFFFFFFFFFFFFFFFFFFFFFF AND PUSH20 0xFFFFFFFFFFFFFFFFFFFFFFFFFFFFFFFFFFFFFFFF AND PUSH32 0x8BE0079C531659141344CD1FD0A4F28419497F9722A3DAAFE3B4186F6B6457E0 PUSH1 0x40 MLOAD PUSH1 0x40 MLOAD DUP1 SWAP2 SUB SWAP1 LOG3 PUSH1 0x0 DUP1 PUSH1 0x0 PUSH2 0x100 EXP DUP2 SLOAD DUP2 PUSH20 0xFFFFFFFFFFFFFFFFFFFFFFFFFFFFFFFFFFFFFFFF MUL NOT AND SWAP1 DUP4 PUSH20 0xFFFFFFFFFFFFFFFFFFFFFFFFFFFFFFFFFFFFFFFF AND MUL OR SWAP1 SSTORE POP JUMP JUMPDEST PUSH1 0x0 DUP1 PUSH1 0x0 SWAP1 SLOAD SWAP1 PUSH2 0x100 EXP SWAP1 DIV PUSH20 0xFFFFFFFFFFFFFFFFFFFFFFFFFFFFFFFFFFFFFFFF AND SWAP1 POP SWAP1 JUMP JUMPDEST PUSH2 0x355 PUSH2 0x558 JUMP JUMPDEST PUSH20 0xFFFFFFFFFFFFFFFFFFFFFFFFFFFFFFFFFFFFFFFF AND PUSH1 0x0 DUP1 SLOAD SWAP1 PUSH2 0x100 EXP SWAP1 DIV PUSH20 0xFFFFFFFFFFFFFFFFFFFFFFFFFFFFFFFFFFFFFFFF AND PUSH20 0xFFFFFFFFFFFFFFFFFFFFFFFFFFFFFFFFFFFFFFFF AND EQ PUSH2 0x415 JUMPI PUSH1 0x40 MLOAD PUSH32 0x8C379A000000000000000000000000000000000000000000000000000000000 DUP2 MSTORE PUSH1 0x4 ADD DUP1 DUP1 PUSH1 0x20 ADD DUP3 DUP2 SUB DUP3 MSTORE PUSH1 0x20 DUP2 MSTORE PUSH1 0x20 ADD DUP1 PUSH32 0x4F776E61626C653A2063616C6C6572206973206E6F7420746865206F776E6572 DUP2 MSTORE POP PUSH1 0x20 ADD SWAP2 POP POP PUSH1 0x40 MLOAD DUP1 SWAP2 SUB SWAP1 REVERT JUMPDEST PUSH1 0x0 PUSH20 0xFFFFFFFFFFFFFFFFFFFFFFFFFFFFFFFFFFFFFFFF AND DUP2 PUSH20 0xFFFFFFFFFFFFFFFFFFFFFFFFFFFFFFFFFFFFFFFF AND EQ ISZERO PUSH2 0x49B JUMPI PUSH1 0x40 MLOAD PUSH32 0x8C379A000000000000000000000000000000000000000000000000000000000 DUP2 MSTORE PUSH1 0x4 ADD DUP1 DUP1 PUSH1 0x20 ADD DUP3 DUP2 SUB DUP3 MSTORE PUSH1 0x26 DUP2 MSTORE PUSH1 0x20 ADD DUP1 PUSH2 0x561 PUSH1 0x26 SWAP2 CODECOPY PUSH1 0x40 ADD SWAP2 POP POP PUSH1 0x40 MLOAD DUP1 SWAP2 SUB SWAP1 REVERT JUMPDEST DUP1 PUSH20 0xFFFFFFFFFFFFFFFFFFFFFFFFFFFFFFFFFFFFFFFF AND PUSH1 0x0 DUP1 SLOAD SWAP1 PUSH2 0x100 EXP SWAP1 DIV PUSH20 0xFFFFFFFFFFFFFFFFFFFFFFFFFFFFFFFFFFFFFFFF AND PUSH20 0xFFFFFFFFFFFFFFFFFFFFFFFFFFFFFFFFFFFFFFFF AND PUSH32 0x8BE0079C531659141344CD1FD0A4F28419497F9722A3DAAFE3B4186F6B6457E0 PUSH1 0x40 MLOAD PUSH1 0x40 MLOAD DUP1 SWAP2 SUB SWAP1 LOG3 DUP1 PUSH1 0x0 DUP1 PUSH2 0x100 EXP DUP2 SLOAD DUP2 PUSH20 0xFFFFFFFFFFFFFFFFFFFFFFFFFFFFFFFFFFFFFFFF MUL NOT AND SWAP1 DUP4 PUSH20 0xFFFFFFFFFFFFFFFFFFFFFFFFFFFFFFFFFFFFFFFF AND MUL OR SWAP1 SSTORE POP POP JUMP JUMPDEST PUSH1 0x0 CALLER SWAP1 POP SWAP1 JUMP INVALID 0x4F PUSH24 0x6E61626C653A206E6577206F776E65722069732074686520 PUSH27 0x65726F2061646472657373A264697066735822122096E2A9AD0A23 LOG3 SWAP1 0xEA SAR SHL 0xD3 CREATE2 EXP 0xB5 EXP 0xE3 0xF9 0xE4 0xB4 0xDB PUSH3 0x4A1CB0 0xA8 0xEB CALLVALUE GAS 0xE0 0x49 PUSH25 0x64736F6C634300060C00330000000000000000000000000000 "
				},
				"gasEstimates": {
					"creation": {
						"codeDepositCost": "293600",
						"executionCost": "infinite",
						"totalCost": "infinite"
					},
					"external": {
						"owner()": "1077",
						"renounceOwnership()": "24291",
						"supportsInterface(bytes4)": "1225",
						"transferOwnership(address)": "infinite"
					},
					"internal": {
						"_msgData()": "infinite",
						"_msgSender()": "22",
						"_registerInterface(bytes4)": "infinite"
					}
				},
				"methodIdentifiers": {
					"owner()": "8da5cb5b",
					"renounceOwnership()": "715018a6",
					"supportsInterface(bytes4)": "01ffc9a7",
					"transferOwnership(address)": "f2fde38b"
				}
			},
			"storageLayout": {
				"storage": [
					{
						"astId": 436,
						"contract": "upgradeSolidityRemix/mvp-sol/solidity/base.sol:MvpBase",
						"label": "_owner",
						"offset": 0,
						"slot": "0",
						"type": "t_address"
					},
					{
						"astId": 441,
						"contract": "upgradeSolidityRemix/mvp-sol/solidity/base.sol:MvpBase",
						"label": "_supportedInterfaces",
						"offset": 0,
						"slot": "1",
						"type": "t_mapping(t_bytes4,t_bool)"
					}
				],
				"types": {
					"t_address": {
						"encoding": "inplace",
						"label": "address",
						"numberOfBytes": "20"
					},
					"t_bool": {
						"encoding": "inplace",
						"label": "bool",
						"numberOfBytes": "1"
					},
					"t_bytes4": {
						"encoding": "inplace",
						"label": "bytes4",
						"numberOfBytes": "4"
					},
					"t_mapping(t_bytes4,t_bool)": {
						"encoding": "mapping",
						"key": "t_bytes4",
						"label": "mapping(bytes4 => bool)",
						"numberOfBytes": "32",
						"value": "t_bool"
					}
				}
			},
			"userdoc": {
				"kind": "user",
				"methods": {},
				"version": 1
			}
		}
	}
}