{
	"upgradeSolidityRemix/mvp-sol/solidity/erc721_proxy.sol": {
		"ERC721Proxy": {
			"abi": [
				{
					"inputs": [],
					"stateMutability": "nonpayable",
					"type": "constructor"
				},
				{
					"anonymous": false,
					"inputs": [
						{
							"indexed": true,
							"internalType": "address",
							"name": "previousOwner",
							"type": "address"
						},
						{
							"indexed": true,
							"internalType": "address",
							"name": "newOwner",
							"type": "address"
						}
					],
					"name": "OwnershipTransferred",
					"type": "event"
				},
				{
					"anonymous": false,
					"inputs": [
						{
							"indexed": true,
							"internalType": "address",
							"name": "from",
							"type": "address"
						},
						{
							"indexed": true,
							"internalType": "address",
							"name": "to",
							"type": "address"
						},
						{
							"indexed": false,
							"internalType": "address",
							"name": "token",
							"type": "address"
						},
						{
							"indexed": true,
							"internalType": "uint256",
							"name": "tokenId",
							"type": "uint256"
						},
						{
							"indexed": false,
							"internalType": "uint256",
							"name": "fromBalance",
							"type": "uint256"
						},
						{
							"indexed": false,
							"internalType": "uint256",
							"name": "toBalance",
							"type": "uint256"
						}
					],
					"name": "Transfer",
					"type": "event"
				},
				{
					"inputs": [
						{
							"internalType": "address",
							"name": "token",
							"type": "address"
						},
						{
							"internalType": "uint256",
							"name": "tokenId",
							"type": "uint256"
						},
						{
							"internalType": "address",
							"name": "owner",
							"type": "address"
						}
					],
					"name": "balanceOf",
					"outputs": [
						{
							"internalType": "uint256",
							"name": "",
							"type": "uint256"
						}
					],
					"stateMutability": "view",
					"type": "function"
				},
				{
					"inputs": [
						{
							"components": [
								{
									"internalType": "address",
									"name": "token",
									"type": "address"
								},
								{
									"internalType": "uint256",
									"name": "tokenId",
									"type": "uint256"
								},
								{
									"internalType": "address",
									"name": "from",
									"type": "address"
								},
								{
									"internalType": "address[]",
									"name": "to",
									"type": "address[]"
								},
								{
									"internalType": "uint256",
									"name": "amount",
									"type": "uint256"
								},
								{
									"internalType": "bytes",
									"name": "data",
									"type": "bytes"
								},
								{
									"internalType": "uint256",
									"name": "expiry",
									"type": "uint256"
								},
								{
									"internalType": "uint256",
									"name": "signCount",
									"type": "uint256"
								},
								{
									"internalType": "address[]",
									"name": "signer",
									"type": "address[]"
								},
								{
									"components": [
										{
											"internalType": "bytes32",
											"name": "r",
											"type": "bytes32"
										},
										{
											"internalType": "bytes32",
											"name": "s",
											"type": "bytes32"
										},
										{
											"internalType": "uint8",
											"name": "v",
											"type": "uint8"
										}
									],
									"internalType": "struct NFTProxy.Signature[]",
									"name": "rsv",
									"type": "tuple[]"
								}
							],
							"internalType": "struct NFTProxy.TransferTx",
							"name": "tx",
							"type": "tuple"
						}
					],
					"name": "encodePacked",
					"outputs": [
						{
							"internalType": "bytes",
							"name": "",
							"type": "bytes"
						}
					],
					"stateMutability": "pure",
					"type": "function"
				},
				{
					"inputs": [
						{
							"internalType": "address",
							"name": "operator",
							"type": "address"
						},
						{
							"internalType": "address",
							"name": "from",
							"type": "address"
						},
						{
							"internalType": "uint256",
							"name": "tokenId",
							"type": "uint256"
						},
						{
							"internalType": "bytes",
							"name": "data",
							"type": "bytes"
						}
					],
					"name": "onERC721Received",
					"outputs": [
						{
							"internalType": "bytes4",
							"name": "",
							"type": "bytes4"
						}
					],
					"stateMutability": "nonpayable",
					"type": "function"
				},
				{
					"inputs": [],
					"name": "owner",
					"outputs": [
						{
							"internalType": "address",
							"name": "",
							"type": "address"
						}
					],
					"stateMutability": "view",
					"type": "function"
				},
				{
					"inputs": [
						{
							"internalType": "address",
							"name": "token",
							"type": "address"
						},
						{
							"internalType": "uint256",
							"name": "tokenId",
							"type": "uint256"
						},
						{
							"internalType": "address",
							"name": "owner",
							"type": "address"
						}
					],
					"name": "ownersOf",
					"outputs": [
						{
							"components": [
								{
									"internalType": "uint256",
									"name": "balances",
									"type": "uint256"
								},
								{
									"internalType": "uint256",
									"name": "signCount",
									"type": "uint256"
								},
								{
									"internalType": "address[]",
									"name": "owners",
									"type": "address[]"
								}
							],
							"internalType": "struct NFTProxy.Owners",
							"name": "",
							"type": "tuple"
						}
					],
					"stateMutability": "view",
					"type": "function"
				},
				{
					"inputs": [],
					"name": "renounceOwnership",
					"outputs": [],
					"stateMutability": "nonpayable",
					"type": "function"
				},
				{
					"inputs": [
						{
							"internalType": "bytes4",
							"name": "interfaceId",
							"type": "bytes4"
						}
					],
					"name": "supportsInterface",
					"outputs": [
						{
							"internalType": "bool",
							"name": "",
							"type": "bool"
						}
					],
					"stateMutability": "view",
					"type": "function"
				},
				{
					"inputs": [
						{
							"internalType": "address[]",
							"name": "to",
							"type": "address[]"
						},
						{
							"internalType": "address",
							"name": "token",
							"type": "address"
						},
						{
							"internalType": "uint256",
							"name": "tokenId",
							"type": "uint256"
						},
						{
							"internalType": "uint256",
							"name": "amount",
							"type": "uint256"
						},
						{
							"internalType": "uint256",
							"name": "signCount",
							"type": "uint256"
						}
					],
					"name": "transfer",
					"outputs": [],
					"stateMutability": "nonpayable",
					"type": "function"
				},
				{
					"inputs": [
						{
							"components": [
								{
									"internalType": "address",
									"name": "token",
									"type": "address"
								},
								{
									"internalType": "uint256",
									"name": "tokenId",
									"type": "uint256"
								},
								{
									"internalType": "address",
									"name": "from",
									"type": "address"
								},
								{
									"internalType": "address[]",
									"name": "to",
									"type": "address[]"
								},
								{
									"internalType": "uint256",
									"name": "amount",
									"type": "uint256"
								},
								{
									"internalType": "bytes",
									"name": "data",
									"type": "bytes"
								},
								{
									"internalType": "uint256",
									"name": "expiry",
									"type": "uint256"
								},
								{
									"internalType": "uint256",
									"name": "signCount",
									"type": "uint256"
								},
								{
									"internalType": "address[]",
									"name": "signer",
									"type": "address[]"
								},
								{
									"components": [
										{
											"internalType": "bytes32",
											"name": "r",
											"type": "bytes32"
										},
										{
											"internalType": "bytes32",
											"name": "s",
											"type": "bytes32"
										},
										{
											"internalType": "uint8",
											"name": "v",
											"type": "uint8"
										}
									],
									"internalType": "struct NFTProxy.Signature[]",
									"name": "rsv",
									"type": "tuple[]"
								}
							],
							"internalType": "struct NFTProxy.TransferTx",
							"name": "tx",
							"type": "tuple"
						}
					],
					"name": "transferFrom",
					"outputs": [],
					"stateMutability": "nonpayable",
					"type": "function"
				},
				{
					"inputs": [
						{
							"internalType": "address",
							"name": "newOwner",
							"type": "address"
						}
					],
					"name": "transferOwnership",
					"outputs": [],
					"stateMutability": "nonpayable",
					"type": "function"
				},
				{
					"inputs": [
						{
							"components": [
								{
									"internalType": "address",
									"name": "token",
									"type": "address"
								},
								{
									"internalType": "uint256",
									"name": "tokenId",
									"type": "uint256"
								},
								{
									"internalType": "address",
									"name": "from",
									"type": "address"
								},
								{
									"internalType": "address[]",
									"name": "to",
									"type": "address[]"
								},
								{
									"internalType": "uint256",
									"name": "amount",
									"type": "uint256"
								},
								{
									"internalType": "bytes",
									"name": "data",
									"type": "bytes"
								},
								{
									"internalType": "uint256",
									"name": "expiry",
									"type": "uint256"
								},
								{
									"internalType": "uint256",
									"name": "signCount",
									"type": "uint256"
								},
								{
									"internalType": "address[]",
									"name": "signer",
									"type": "address[]"
								},
								{
									"components": [
										{
											"internalType": "bytes32",
											"name": "r",
											"type": "bytes32"
										},
										{
											"internalType": "bytes32",
											"name": "s",
											"type": "bytes32"
										},
										{
											"internalType": "uint8",
											"name": "v",
											"type": "uint8"
										}
									],
									"internalType": "struct NFTProxy.Signature[]",
									"name": "rsv",
									"type": "tuple[]"
								}
							],
							"internalType": "struct NFTProxy.TransferTx",
							"name": "tx",
							"type": "tuple"
						}
					],
					"name": "verify",
					"outputs": [],
					"stateMutability": "view",
					"type": "function"
				},
				{
					"inputs": [
						{
							"internalType": "address",
							"name": "to",
							"type": "address"
						},
						{
							"internalType": "address",
							"name": "token",
							"type": "address"
						},
						{
							"internalType": "uint256",
							"name": "tokenId",
							"type": "uint256"
						},
						{
							"internalType": "uint256",
							"name": "amount",
							"type": "uint256"
						},
						{
							"internalType": "bytes",
							"name": "_data",
							"type": "bytes"
						}
					],
					"name": "withdraw",
					"outputs": [],
					"stateMutability": "nonpayable",
					"type": "function"
				},
				{
					"inputs": [
						{
							"components": [
								{
									"internalType": "address",
									"name": "token",
									"type": "address"
								},
								{
									"internalType": "uint256",
									"name": "tokenId",
									"type": "uint256"
								},
								{
									"internalType": "address",
									"name": "from",
									"type": "address"
								},
								{
									"internalType": "address[]",
									"name": "to",
									"type": "address[]"
								},
								{
									"internalType": "uint256",
									"name": "amount",
									"type": "uint256"
								},
								{
									"internalType": "bytes",
									"name": "data",
									"type": "bytes"
								},
								{
									"internalType": "uint256",
									"name": "expiry",
									"type": "uint256"
								},
								{
									"internalType": "uint256",
									"name": "signCount",
									"type": "uint256"
								},
								{
									"internalType": "address[]",
									"name": "signer",
									"type": "address[]"
								},
								{
									"components": [
										{
											"internalType": "bytes32",
											"name": "r",
											"type": "bytes32"
										},
										{
											"internalType": "bytes32",
											"name": "s",
											"type": "bytes32"
										},
										{
											"internalType": "uint8",
											"name": "v",
											"type": "uint8"
										}
									],
									"internalType": "struct NFTProxy.Signature[]",
									"name": "rsv",
									"type": "tuple[]"
								}
							],
							"internalType": "struct NFTProxy.TransferTx",
							"name": "tx",
							"type": "tuple"
						}
					],
					"name": "withdrawFrom",
					"outputs": [],
					"stateMutability": "nonpayable",
					"type": "function"
				}
			],
			"devdoc": {
				"kind": "dev",
				"methods": {
					"onERC721Received(address,address,uint256,bytes)": {
						"details": "The ERC721 smart contract calls this function on the recipient after a {IERC721-safeTransferFrom}. This function MUST return the function selector, otherwise the caller will revert the transaction. The selector to be returned can be obtained as `this.onERC721Received.selector`. This function MAY throw to revert and reject the transfer. Note: the ERC721 contract address is always the message sender.",
						"params": {
							"data": "Additional data with no specified format",
							"from": "The address which previously owned the token",
							"operator": "The address which called `safeTransferFrom` function",
							"tokenId": "The NFT identifier which is being transferred"
						},
						"returns": {
							"_0": "bytes4 `bytes4(keccak256(\"onERC721Received(address,address,uint256,bytes)\"))`"
						}
					},
					"owner()": {
						"details": "Returns the address of the current owner."
					},
					"renounceOwnership()": {
						"details": "Leaves the contract without owner. It will not be possible to call `onlyOwner` functions anymore. Can only be called by the current owner. NOTE: Renouncing ownership will leave the contract without an owner, thereby removing any functionality that is only available to the owner."
					},
					"supportsInterface(bytes4)": {
						"details": "See {IERC165-supportsInterface}. Time complexity O(1), guaranteed to always use less than 30 000 gas."
					},
					"transferOwnership(address)": {
						"details": "Transfers ownership of the contract to a new account (`newOwner`). Can only be called by the current owner."
					}
				},
				"version": 1
			},
			"evm": {
				"assembly": "    /* \"upgradeSolidityRemix/mvp-sol/solidity/erc721_proxy.sol\":365:3052  contract ERC721Proxy is IERC721Receiver, NFTProxy {\r... */\n  mstore(0x40, 0x80)\n    /* \"upgradeSolidityRemix/mvp-sol/solidity/erc721_proxy.sol\":678:757  constructor() public {  // payable\r... */\n  callvalue\n  dup1\n  iszero\n  tag_1\n  jumpi\n  0x00\n  dup1\n  revert\ntag_1:\n  pop\n    /* \"upgradeSolidityRemix/mvp-sol/solidity/base.sol\":2209:2221  _msgSender() */\n  tag_5\n    /* \"upgradeSolidityRemix/mvp-sol/solidity/base.sol\":2209:2219  _msgSender */\n  shl(0x20, tag_6)\n    /* \"upgradeSolidityRemix/mvp-sol/solidity/base.sol\":2209:2221  _msgSender() */\n  0x20\n  shr\n  jump\t// in\ntag_5:\n    /* \"upgradeSolidityRemix/mvp-sol/solidity/base.sol\":2200:2206  _owner */\n  0x00\n  dup1\n    /* \"upgradeSolidityRemix/mvp-sol/solidity/base.sol\":2200:2221  _owner = _msgSender() */\n  0x0100\n  exp\n  dup2\n  sload\n  dup2\n  0xffffffffffffffffffffffffffffffffffffffff\n  mul\n  not\n  and\n  swap1\n  dup4\n  0xffffffffffffffffffffffffffffffffffffffff\n  and\n  mul\n  or\n  swap1\n  sstore\n  pop\n    /* \"upgradeSolidityRemix/mvp-sol/solidity/base.sol\":2226:2266  _registerInterface(_INTERFACE_ID_ERC165) */\n  tag_7\n    /* \"upgradeSolidityRemix/mvp-sol/solidity/base.sol\":1890:1900  0x01ffc9a7 */\n  0x01ffc9a7\n    /* \"upgradeSolidityRemix/mvp-sol/solidity/base.sol\":2245:2265  _INTERFACE_ID_ERC165 */\n  0xe0\n  shl\n    /* \"upgradeSolidityRemix/mvp-sol/solidity/base.sol\":2226:2244  _registerInterface */\n  shl(0x20, tag_8)\n    /* \"upgradeSolidityRemix/mvp-sol/solidity/base.sol\":2226:2266  _registerInterface(_INTERFACE_ID_ERC165) */\n  0x20\n  shr\n  jump\t// in\ntag_7:\n    /* \"upgradeSolidityRemix/mvp-sol/solidity/erc721_proxy.sol\":716:752  _registerInterface(_ERC721_RECEIVED) */\n  tag_10\n    /* \"upgradeSolidityRemix/mvp-sol/solidity/erc721_proxy.sol\":601:611  0x150b7a02 */\n  0x150b7a02\n    /* \"upgradeSolidityRemix/mvp-sol/solidity/erc721_proxy.sol\":735:751  _ERC721_RECEIVED */\n  0xe0\n  shl\n    /* \"upgradeSolidityRemix/mvp-sol/solidity/erc721_proxy.sol\":716:734  _registerInterface */\n  shl(0x20, tag_8)\n    /* \"upgradeSolidityRemix/mvp-sol/solidity/erc721_proxy.sol\":716:752  _registerInterface(_ERC721_RECEIVED) */\n  0x20\n  shr\n  jump\t// in\ntag_10:\n    /* \"upgradeSolidityRemix/mvp-sol/solidity/erc721_proxy.sol\":365:3052  contract ERC721Proxy is IERC721Receiver, NFTProxy {\r... */\n  jump(tag_11)\n    /* \"upgradeSolidityRemix/mvp-sol/solidity/base.sol\":4255:4352  function _msgSender() internal view virtual returns (address payable) {\r... */\ntag_6:\n    /* \"upgradeSolidityRemix/mvp-sol/solidity/base.sol\":4308:4323  address payable */\n  0x00\n    /* \"upgradeSolidityRemix/mvp-sol/solidity/base.sol\":4337:4347  msg.sender */\n  caller\n    /* \"upgradeSolidityRemix/mvp-sol/solidity/base.sol\":4330:4347  return msg.sender */\n  swap1\n  pop\n    /* \"upgradeSolidityRemix/mvp-sol/solidity/base.sol\":4255:4352  function _msgSender() internal view virtual returns (address payable) {\r... */\n  swap1\n  jump\t// out\n    /* \"upgradeSolidityRemix/mvp-sol/solidity/base.sol\":2915:3103  function _registerInterface(bytes4 interfaceId) internal virtual {\r... */\ntag_8:\n    /* \"upgradeSolidityRemix/mvp-sol/solidity/base.sol\":3009:3019  0xffffffff */\n  0xffffffff\n    /* \"upgradeSolidityRemix/mvp-sol/solidity/base.sol\":2994:3019  interfaceId != 0xffffffff */\n  0xe0\n  shl\n    /* \"upgradeSolidityRemix/mvp-sol/solidity/base.sol\":2994:3005  interfaceId */\n  dup2\n    /* \"upgradeSolidityRemix/mvp-sol/solidity/base.sol\":2994:3019  interfaceId != 0xffffffff */\n  not(0xffffffffffffffffffffffffffffffffffffffffffffffffffffffff)\n  and\n  eq\n  iszero\n    /* \"upgradeSolidityRemix/mvp-sol/solidity/base.sol\":2986:3052  require(interfaceId != 0xffffffff, \"ERC165: invalid interface id\") */\n  tag_14\n  jumpi\n  mload(0x40)\n  0x08c379a000000000000000000000000000000000000000000000000000000000\n  dup2\n  mstore\n  0x04\n  add\n  tag_15\n  swap1\n  tag_16\n  jump\t// in\ntag_15:\n  mload(0x40)\n  dup1\n  swap2\n  sub\n  swap1\n  revert\ntag_14:\n    /* \"upgradeSolidityRemix/mvp-sol/solidity/base.sol\":3094:3098  true */\n  0x01\n    /* \"upgradeSolidityRemix/mvp-sol/solidity/base.sol\":3058:3078  _supportedInterfaces */\n  dup1\n    /* \"upgradeSolidityRemix/mvp-sol/solidity/base.sol\":3058:3091  _supportedInterfaces[interfaceId] */\n  0x00\n    /* \"upgradeSolidityRemix/mvp-sol/solidity/base.sol\":3079:3090  interfaceId */\n  dup4\n    /* \"upgradeSolidityRemix/mvp-sol/solidity/base.sol\":3058:3091  _supportedInterfaces[interfaceId] */\n  not(0xffffffffffffffffffffffffffffffffffffffffffffffffffffffff)\n  and\n  not(0xffffffffffffffffffffffffffffffffffffffffffffffffffffffff)\n  and\n  dup2\n  mstore\n  0x20\n  add\n  swap1\n  dup2\n  mstore\n  0x20\n  add\n  0x00\n  keccak256\n  0x00\n    /* \"upgradeSolidityRemix/mvp-sol/solidity/base.sol\":3058:3098  _supportedInterfaces[interfaceId] = true */\n  0x0100\n  exp\n  dup2\n  sload\n  dup2\n  0xff\n  mul\n  not\n  and\n  swap1\n  dup4\n  iszero\n  iszero\n  mul\n  or\n  swap1\n  sstore\n  pop\n    /* \"upgradeSolidityRemix/mvp-sol/solidity/base.sol\":2915:3103  function _registerInterface(bytes4 interfaceId) internal virtual {\r... */\n  pop\n  jump\t// out\n    /* \"--CODEGEN--\":6:334   */\ntag_18:\n  0x00\n    /* \"--CODEGEN--\":166:233   */\n  tag_20\n    /* \"--CODEGEN--\":230:232   */\n  0x1c\n    /* \"--CODEGEN--\":225:228   */\n  dup4\n    /* \"--CODEGEN--\":166:233   */\n  tag_21\n  jump\t// in\ntag_20:\n    /* \"--CODEGEN--\":159:233   */\n  swap2\n  pop\n    /* \"--CODEGEN--\":266:296   */\n  0x4552433136353a20696e76616c696420696e7465726661636520696400000000\n    /* \"--CODEGEN--\":262:263   */\n  0x00\n    /* \"--CODEGEN--\":257:260   */\n  dup4\n    /* \"--CODEGEN--\":253:264   */\n  add\n    /* \"--CODEGEN--\":246:297   */\n  mstore\n    /* \"--CODEGEN--\":325:327   */\n  0x20\n    /* \"--CODEGEN--\":320:323   */\n  dup3\n    /* \"--CODEGEN--\":316:328   */\n  add\n    /* \"--CODEGEN--\":309:328   */\n  swap1\n  pop\n    /* \"--CODEGEN--\":152:334   */\n  swap2\n  swap1\n  pop\n  jump\t// out\n    /* \"--CODEGEN--\":342:758   */\ntag_16:\n  0x00\n    /* \"--CODEGEN--\":542:544   */\n  0x20\n    /* \"--CODEGEN--\":531:540   */\n  dup3\n    /* \"--CODEGEN--\":527:545   */\n  add\n    /* \"--CODEGEN--\":519:545   */\n  swap1\n  pop\n    /* \"--CODEGEN--\":592:601   */\n  dup2\n    /* \"--CODEGEN--\":586:590   */\n  dup2\n    /* \"--CODEGEN--\":582:602   */\n  sub\n    /* \"--CODEGEN--\":578:579   */\n  0x00\n    /* \"--CODEGEN--\":567:576   */\n  dup4\n    /* \"--CODEGEN--\":563:580   */\n  add\n    /* \"--CODEGEN--\":556:603   */\n  mstore\n    /* \"--CODEGEN--\":617:748   */\n  tag_23\n    /* \"--CODEGEN--\":743:747   */\n  dup2\n    /* \"--CODEGEN--\":617:748   */\n  tag_18\n  jump\t// in\ntag_23:\n    /* \"--CODEGEN--\":609:748   */\n  swap1\n  pop\n    /* \"--CODEGEN--\":513:758   */\n  swap2\n  swap1\n  pop\n  jump\t// out\n    /* \"--CODEGEN--\":766:929   */\ntag_21:\n  0x00\n    /* \"--CODEGEN--\":881:887   */\n  dup3\n    /* \"--CODEGEN--\":876:879   */\n  dup3\n    /* \"--CODEGEN--\":869:888   */\n  mstore\n    /* \"--CODEGEN--\":918:922   */\n  0x20\n    /* \"--CODEGEN--\":913:916   */\n  dup3\n    /* \"--CODEGEN--\":909:923   */\n  add\n    /* \"--CODEGEN--\":894:923   */\n  swap1\n  pop\n    /* \"--CODEGEN--\":862:929   */\n  swap3\n  swap2\n  pop\n  pop\n  jump\t// out\n    /* \"upgradeSolidityRemix/mvp-sol/solidity/erc721_proxy.sol\":365:3052  contract ERC721Proxy is IERC721Receiver, NFTProxy {\r... */\ntag_11:\n  dataSize(sub_0)\n  dup1\n  dataOffset(sub_0)\n  0x00\n  codecopy\n  0x00\n  return\nstop\n\nsub_0: assembly {\n        /* \"upgradeSolidityRemix/mvp-sol/solidity/erc721_proxy.sol\":365:3052  contract ERC721Proxy is IERC721Receiver, NFTProxy {\r... */\n      mstore(0x40, 0x80)\n      callvalue\n      dup1\n      iszero\n      tag_1\n      jumpi\n      0x00\n      dup1\n      revert\n    tag_1:\n      pop\n      jumpi(tag_2, lt(calldatasize, 0x04))\n      shr(0xe0, calldataload(0x00))\n      dup1\n      0x3291bf99\n      gt\n      tag_16\n      jumpi\n      dup1\n      0x7c4d7f44\n      gt\n      tag_17\n      jumpi\n      dup1\n      0x7c4d7f44\n      eq\n      tag_12\n      jumpi\n      dup1\n      0x8da5cb5b\n      eq\n      tag_13\n      jumpi\n      dup1\n      0xa24d22fe\n      eq\n      tag_14\n      jumpi\n      dup1\n      0xf2fde38b\n      eq\n      tag_15\n      jumpi\n      jump(tag_2)\n    tag_17:\n      dup1\n      0x3291bf99\n      eq\n      tag_9\n      jumpi\n      dup1\n      0x467f4cb9\n      eq\n      tag_10\n      jumpi\n      dup1\n      0x715018a6\n      eq\n      tag_11\n      jumpi\n      jump(tag_2)\n    tag_16:\n      dup1\n      0x01ffc9a7\n      eq\n      tag_3\n      jumpi\n      dup1\n      0x0525bdcf\n      eq\n      tag_4\n      jumpi\n      dup1\n      0x074540da\n      eq\n      tag_5\n      jumpi\n      dup1\n      0x150b7a02\n      eq\n      tag_6\n      jumpi\n      dup1\n      0x2a3b3836\n      eq\n      tag_7\n      jumpi\n      dup1\n      0x2a6c7d0c\n      eq\n      tag_8\n      jumpi\n    tag_2:\n      0x00\n      dup1\n      revert\n        /* \"upgradeSolidityRemix/mvp-sol/solidity/base.sol\":2410:2544  function supportsInterface(bytes4 interfaceId) public view override returns (bool) {\r... */\n    tag_3:\n      tag_18\n      0x04\n      dup1\n      calldatasize\n      sub\n      dup2\n      add\n      swap1\n      tag_19\n      swap2\n      swap1\n      tag_20\n      jump\t// in\n    tag_19:\n      tag_21\n      jump\t// in\n    tag_18:\n      mload(0x40)\n      tag_22\n      swap2\n      swap1\n      tag_23\n      jump\t// in\n    tag_22:\n      mload(0x40)\n      dup1\n      swap2\n      sub\n      swap1\n      return\n        /* \"upgradeSolidityRemix/mvp-sol/solidity/nft_proxy.sol\":3096:3320  function encodePacked(TransferTx memory tx) public pure returns(bytes memory) {\r... */\n    tag_4:\n      tag_24\n      0x04\n      dup1\n      calldatasize\n      sub\n      dup2\n      add\n      swap1\n      tag_25\n      swap2\n      swap1\n      tag_26\n      jump\t// in\n    tag_25:\n      tag_27\n      jump\t// in\n    tag_24:\n      mload(0x40)\n      tag_28\n      swap2\n      swap1\n      tag_29\n      jump\t// in\n    tag_28:\n      mload(0x40)\n      dup1\n      swap2\n      sub\n      swap1\n      return\n        /* \"upgradeSolidityRemix/mvp-sol/solidity/nft_proxy.sol\":1400:1752  function withdraw(address to, address token, uint256 tokenId, uint256 amount, bytes memory _data) public {\r... */\n    tag_5:\n      tag_30\n      0x04\n      dup1\n      calldatasize\n      sub\n      dup2\n      add\n      swap1\n      tag_31\n      swap2\n      swap1\n      tag_32\n      jump\t// in\n    tag_31:\n      tag_33\n      jump\t// in\n    tag_30:\n      stop\n        /* \"upgradeSolidityRemix/mvp-sol/solidity/erc721_proxy.sol\":1176:1960  function onERC721Received(\r... */\n    tag_6:\n      tag_34\n      0x04\n      dup1\n      calldatasize\n      sub\n      dup2\n      add\n      swap1\n      tag_35\n      swap2\n      swap1\n      tag_36\n      jump\t// in\n    tag_35:\n      tag_37\n      jump\t// in\n    tag_34:\n      mload(0x40)\n      tag_38\n      swap2\n      swap1\n      tag_39\n      jump\t// in\n    tag_38:\n      mload(0x40)\n      dup1\n      swap2\n      sub\n      swap1\n      return\n        /* \"upgradeSolidityRemix/mvp-sol/solidity/nft_proxy.sol\":5158:5375  function transferFrom(TransferTx memory tx) public {\r... */\n    tag_7:\n      tag_40\n      0x04\n      dup1\n      calldatasize\n      sub\n      dup2\n      add\n      swap1\n      tag_41\n      swap2\n      swap1\n      tag_26\n      jump\t// in\n    tag_41:\n      tag_42\n      jump\t// in\n    tag_40:\n      stop\n        /* \"upgradeSolidityRemix/mvp-sol/solidity/nft_proxy.sol\":1757:2188  function transfer(address[] memory to, address token, uint256 tokenId, uint256 amount, uint256 signCount) public {\r... */\n    tag_8:\n      tag_43\n      0x04\n      dup1\n      calldatasize\n      sub\n      dup2\n      add\n      swap1\n      tag_44\n      swap2\n      swap1\n      tag_45\n      jump\t// in\n    tag_44:\n      tag_46\n      jump\t// in\n    tag_43:\n      stop\n        /* \"upgradeSolidityRemix/mvp-sol/solidity/nft_proxy.sol\":5007:5153  function withdrawFrom(TransferTx memory tx) public {\r... */\n    tag_9:\n      tag_47\n      0x04\n      dup1\n      calldatasize\n      sub\n      dup2\n      add\n      swap1\n      tag_48\n      swap2\n      swap1\n      tag_26\n      jump\t// in\n    tag_48:\n      tag_49\n      jump\t// in\n    tag_47:\n      stop\n        /* \"upgradeSolidityRemix/mvp-sol/solidity/erc721_proxy.sol\":2663:2893  function balanceOf(address token, uint256 tokenId, address owner) public view override returns(uint256) {\r... */\n    tag_10:\n      tag_50\n      0x04\n      dup1\n      calldatasize\n      sub\n      dup2\n      add\n      swap1\n      tag_51\n      swap2\n      swap1\n      tag_52\n      jump\t// in\n    tag_51:\n      tag_53\n      jump\t// in\n    tag_50:\n      mload(0x40)\n      tag_54\n      swap2\n      swap1\n      tag_55\n      jump\t// in\n    tag_54:\n      mload(0x40)\n      dup1\n      swap2\n      sub\n      swap1\n      return\n        /* \"upgradeSolidityRemix/mvp-sol/solidity/base.sol\":3754:3887  function renounceOwnership() public virtual onlyOwner {\r... */\n    tag_11:\n      tag_56\n      tag_57\n      jump\t// in\n    tag_56:\n      stop\n        /* \"upgradeSolidityRemix/mvp-sol/solidity/erc721_proxy.sol\":2898:3047  function ownersOf(address token, uint256 tokenId, address owner) public view override returns(Owners memory) {\r... */\n    tag_12:\n      tag_58\n      0x04\n      dup1\n      calldatasize\n      sub\n      dup2\n      add\n      swap1\n      tag_59\n      swap2\n      swap1\n      tag_52\n      jump\t// in\n    tag_59:\n      tag_60\n      jump\t// in\n    tag_58:\n      mload(0x40)\n      tag_61\n      swap2\n      swap1\n      tag_62\n      jump\t// in\n    tag_61:\n      mload(0x40)\n      dup1\n      swap2\n      sub\n      swap1\n      return\n        /* \"upgradeSolidityRemix/mvp-sol/solidity/base.sol\":3357:3427  function owner() public view returns (address) {\r... */\n    tag_13:\n      tag_63\n      tag_64\n      jump\t// in\n    tag_63:\n      mload(0x40)\n      tag_65\n      swap2\n      swap1\n      tag_66\n      jump\t// in\n    tag_65:\n      mload(0x40)\n      dup1\n      swap2\n      sub\n      swap1\n      return\n        /* \"upgradeSolidityRemix/mvp-sol/solidity/nft_proxy.sol\":3325:5002  function verify(TransferTx memory tx) view public {\r... */\n    tag_14:\n      tag_67\n      0x04\n      dup1\n      calldatasize\n      sub\n      dup2\n      add\n      swap1\n      tag_68\n      swap2\n      swap1\n      tag_26\n      jump\t// in\n    tag_68:\n      tag_69\n      jump\t// in\n    tag_67:\n      stop\n        /* \"upgradeSolidityRemix/mvp-sol/solidity/base.sol\":4027:4250  function transferOwnership(address newOwner) public virtual onlyOwner {\r... */\n    tag_15:\n      tag_70\n      0x04\n      dup1\n      calldatasize\n      sub\n      dup2\n      add\n      swap1\n      tag_71\n      swap2\n      swap1\n      tag_72\n      jump\t// in\n    tag_71:\n      tag_73\n      jump\t// in\n    tag_70:\n      stop\n        /* \"upgradeSolidityRemix/mvp-sol/solidity/base.sol\":2410:2544  function supportsInterface(bytes4 interfaceId) public view override returns (bool) {\r... */\n    tag_21:\n        /* \"upgradeSolidityRemix/mvp-sol/solidity/base.sol\":2487:2491  bool */\n      0x00\n        /* \"upgradeSolidityRemix/mvp-sol/solidity/base.sol\":2506:2526  _supportedInterfaces */\n      0x01\n        /* \"upgradeSolidityRemix/mvp-sol/solidity/base.sol\":2506:2539  _supportedInterfaces[interfaceId] */\n      0x00\n        /* \"upgradeSolidityRemix/mvp-sol/solidity/base.sol\":2527:2538  interfaceId */\n      dup4\n        /* \"upgradeSolidityRemix/mvp-sol/solidity/base.sol\":2506:2539  _supportedInterfaces[interfaceId] */\n      not(0xffffffffffffffffffffffffffffffffffffffffffffffffffffffff)\n      and\n      not(0xffffffffffffffffffffffffffffffffffffffffffffffffffffffff)\n      and\n      dup2\n      mstore\n      0x20\n      add\n      swap1\n      dup2\n      mstore\n      0x20\n      add\n      0x00\n      keccak256\n      0x00\n      swap1\n      sload\n      swap1\n      0x0100\n      exp\n      swap1\n      div\n      0xff\n      and\n        /* \"upgradeSolidityRemix/mvp-sol/solidity/base.sol\":2499:2539  return _supportedInterfaces[interfaceId] */\n      swap1\n      pop\n        /* \"upgradeSolidityRemix/mvp-sol/solidity/base.sol\":2410:2544  function supportsInterface(bytes4 interfaceId) public view override returns (bool) {\r... */\n      swap2\n      swap1\n      pop\n      jump\t// out\n        /* \"upgradeSolidityRemix/mvp-sol/solidity/nft_proxy.sol\":3096:3320  function encodePacked(TransferTx memory tx) public pure returns(bytes memory) {\r... */\n    tag_27:\n        /* \"upgradeSolidityRemix/mvp-sol/solidity/nft_proxy.sol\":3160:3172  bytes memory */\n      0x60\n        /* \"upgradeSolidityRemix/mvp-sol/solidity/nft_proxy.sol\":3179:3197  bytes memory byte_ */\n      dup1\n        /* \"upgradeSolidityRemix/mvp-sol/solidity/nft_proxy.sol\":3216:3218  tx */\n      dup3\n        /* \"upgradeSolidityRemix/mvp-sol/solidity/nft_proxy.sol\":3216:3224  tx.token */\n      0x00\n      add\n      mload\n        /* \"upgradeSolidityRemix/mvp-sol/solidity/nft_proxy.sol\":3226:3228  tx */\n      dup4\n        /* \"upgradeSolidityRemix/mvp-sol/solidity/nft_proxy.sol\":3226:3236  tx.tokenId */\n      0x20\n      add\n      mload\n        /* \"upgradeSolidityRemix/mvp-sol/solidity/nft_proxy.sol\":3238:3240  tx */\n      dup5\n        /* \"upgradeSolidityRemix/mvp-sol/solidity/nft_proxy.sol\":3238:3245  tx.from */\n      0x40\n      add\n      mload\n        /* \"upgradeSolidityRemix/mvp-sol/solidity/nft_proxy.sol\":3247:3249  tx */\n      dup6\n        /* \"upgradeSolidityRemix/mvp-sol/solidity/nft_proxy.sol\":3247:3252  tx.to */\n      0x60\n      add\n      mload\n        /* \"upgradeSolidityRemix/mvp-sol/solidity/nft_proxy.sol\":3254:3256  tx */\n      dup7\n        /* \"upgradeSolidityRemix/mvp-sol/solidity/nft_proxy.sol\":3254:3263  tx.amount */\n      0x80\n      add\n      mload\n        /* \"upgradeSolidityRemix/mvp-sol/solidity/nft_proxy.sol\":3265:3267  tx */\n      dup8\n        /* \"upgradeSolidityRemix/mvp-sol/solidity/nft_proxy.sol\":3265:3272  tx.data */\n      0xa0\n      add\n      mload\n        /* \"upgradeSolidityRemix/mvp-sol/solidity/nft_proxy.sol\":3274:3276  tx */\n      dup9\n        /* \"upgradeSolidityRemix/mvp-sol/solidity/nft_proxy.sol\":3274:3283  tx.expiry */\n      0xc0\n      add\n      mload\n        /* \"upgradeSolidityRemix/mvp-sol/solidity/nft_proxy.sol\":3285:3287  tx */\n      dup10\n        /* \"upgradeSolidityRemix/mvp-sol/solidity/nft_proxy.sol\":3285:3297  tx.signCount */\n      0xe0\n      add\n      mload\n        /* \"upgradeSolidityRemix/mvp-sol/solidity/nft_proxy.sol\":3200:3298  abi.encode(\r... */\n      add(0x20, mload(0x40))\n      tag_76\n      swap9\n      swap8\n      swap7\n      swap6\n      swap5\n      swap4\n      swap3\n      swap2\n      swap1\n      tag_77\n      jump\t// in\n    tag_76:\n      mload(0x40)\n      0x20\n      dup2\n      dup4\n      sub\n      sub\n      dup2\n      mstore\n      swap1\n      0x40\n      mstore\n        /* \"upgradeSolidityRemix/mvp-sol/solidity/nft_proxy.sol\":3179:3298  bytes memory byte_ = abi.encode(\r... */\n      swap1\n      pop\n        /* \"upgradeSolidityRemix/mvp-sol/solidity/nft_proxy.sol\":3310:3315  byte_ */\n      dup1\n        /* \"upgradeSolidityRemix/mvp-sol/solidity/nft_proxy.sol\":3303:3315  return byte_ */\n      swap2\n      pop\n      pop\n        /* \"upgradeSolidityRemix/mvp-sol/solidity/nft_proxy.sol\":3096:3320  function encodePacked(TransferTx memory tx) public pure returns(bytes memory) {\r... */\n      swap2\n      swap1\n      pop\n      jump\t// out\n        /* \"upgradeSolidityRemix/mvp-sol/solidity/nft_proxy.sol\":1400:1752  function withdraw(address to, address token, uint256 tokenId, uint256 amount, bytes memory _data) public {\r... */\n    tag_33:\n        /* \"upgradeSolidityRemix/mvp-sol/solidity/nft_proxy.sol\":1510:1530  Owners memory owners */\n      tag_79\n      tag_80\n      jump\t// in\n    tag_79:\n        /* \"upgradeSolidityRemix/mvp-sol/solidity/nft_proxy.sol\":1533:1571  ownersOf(token, tokenId, _msgSender()) */\n      tag_81\n        /* \"upgradeSolidityRemix/mvp-sol/solidity/nft_proxy.sol\":1542:1547  token */\n      dup6\n        /* \"upgradeSolidityRemix/mvp-sol/solidity/nft_proxy.sol\":1549:1556  tokenId */\n      dup6\n        /* \"upgradeSolidityRemix/mvp-sol/solidity/nft_proxy.sol\":1558:1570  _msgSender() */\n      tag_82\n        /* \"upgradeSolidityRemix/mvp-sol/solidity/nft_proxy.sol\":1558:1568  _msgSender */\n      tag_83\n        /* \"upgradeSolidityRemix/mvp-sol/solidity/nft_proxy.sol\":1558:1570  _msgSender() */\n      jump\t// in\n    tag_82:\n        /* \"upgradeSolidityRemix/mvp-sol/solidity/nft_proxy.sol\":1533:1541  ownersOf */\n      tag_60\n        /* \"upgradeSolidityRemix/mvp-sol/solidity/nft_proxy.sol\":1533:1571  ownersOf(token, tokenId, _msgSender()) */\n      jump\t// in\n    tag_81:\n        /* \"upgradeSolidityRemix/mvp-sol/solidity/nft_proxy.sol\":1510:1571  Owners memory owners = ownersOf(token, tokenId, _msgSender()) */\n      swap1\n      pop\n        /* \"upgradeSolidityRemix/mvp-sol/solidity/nft_proxy.sol\":1604:1605  1 */\n      0x01\n        /* \"upgradeSolidityRemix/mvp-sol/solidity/nft_proxy.sol\":1584:1590  owners */\n      dup2\n        /* \"upgradeSolidityRemix/mvp-sol/solidity/nft_proxy.sol\":1584:1600  owners.signCount */\n      0x20\n      add\n      mload\n        /* \"upgradeSolidityRemix/mvp-sol/solidity/nft_proxy.sol\":1584:1605  owners.signCount == 1 */\n      eq\n        /* \"upgradeSolidityRemix/mvp-sol/solidity/nft_proxy.sol\":1576:1650  require(owners.signCount == 1, \"#NFTProxy#transfer: NO_TRANSFER_SIGN_ERR\") */\n      tag_84\n      jumpi\n      mload(0x40)\n      0x08c379a000000000000000000000000000000000000000000000000000000000\n      dup2\n      mstore\n      0x04\n      add\n      tag_85\n      swap1\n      tag_86\n      jump\t// in\n    tag_85:\n      mload(0x40)\n      dup1\n      swap2\n      sub\n      swap1\n      revert\n    tag_84:\n        /* \"upgradeSolidityRemix/mvp-sol/solidity/nft_proxy.sol\":1689:1747  _withdraw(_msgSender(), to, token, tokenId, amount, _data) */\n      tag_87\n        /* \"upgradeSolidityRemix/mvp-sol/solidity/nft_proxy.sol\":1699:1711  _msgSender() */\n      tag_88\n        /* \"upgradeSolidityRemix/mvp-sol/solidity/nft_proxy.sol\":1699:1709  _msgSender */\n      tag_83\n        /* \"upgradeSolidityRemix/mvp-sol/solidity/nft_proxy.sol\":1699:1711  _msgSender() */\n      jump\t// in\n    tag_88:\n        /* \"upgradeSolidityRemix/mvp-sol/solidity/nft_proxy.sol\":1713:1715  to */\n      dup8\n        /* \"upgradeSolidityRemix/mvp-sol/solidity/nft_proxy.sol\":1717:1722  token */\n      dup8\n        /* \"upgradeSolidityRemix/mvp-sol/solidity/nft_proxy.sol\":1724:1731  tokenId */\n      dup8\n        /* \"upgradeSolidityRemix/mvp-sol/solidity/nft_proxy.sol\":1733:1739  amount */\n      dup8\n        /* \"upgradeSolidityRemix/mvp-sol/solidity/nft_proxy.sol\":1741:1746  _data */\n      dup8\n        /* \"upgradeSolidityRemix/mvp-sol/solidity/nft_proxy.sol\":1689:1698  _withdraw */\n      tag_89\n        /* \"upgradeSolidityRemix/mvp-sol/solidity/nft_proxy.sol\":1689:1747  _withdraw(_msgSender(), to, token, tokenId, amount, _data) */\n      jump\t// in\n    tag_87:\n        /* \"upgradeSolidityRemix/mvp-sol/solidity/nft_proxy.sol\":1400:1752  function withdraw(address to, address token, uint256 tokenId, uint256 amount, bytes memory _data) public {\r... */\n      pop\n      pop\n      pop\n      pop\n      pop\n      pop\n      jump\t// out\n        /* \"upgradeSolidityRemix/mvp-sol/solidity/erc721_proxy.sol\":1176:1960  function onERC721Received(\r... */\n    tag_37:\n        /* \"upgradeSolidityRemix/mvp-sol/solidity/erc721_proxy.sol\":1305:1311  bytes4 */\n      0x00\n        /* \"upgradeSolidityRemix/mvp-sol/solidity/erc721_proxy.sol\":1318:1331  IERC721 token */\n      dup1\n        /* \"upgradeSolidityRemix/mvp-sol/solidity/erc721_proxy.sol\":1334:1357  _isERC721(_msgSender()) */\n      tag_91\n        /* \"upgradeSolidityRemix/mvp-sol/solidity/erc721_proxy.sol\":1344:1356  _msgSender() */\n      tag_92\n        /* \"upgradeSolidityRemix/mvp-sol/solidity/erc721_proxy.sol\":1344:1354  _msgSender */\n      tag_83\n        /* \"upgradeSolidityRemix/mvp-sol/solidity/erc721_proxy.sol\":1344:1356  _msgSender() */\n      jump\t// in\n    tag_92:\n        /* \"upgradeSolidityRemix/mvp-sol/solidity/erc721_proxy.sol\":1334:1343  _isERC721 */\n      tag_93\n        /* \"upgradeSolidityRemix/mvp-sol/solidity/erc721_proxy.sol\":1334:1357  _isERC721(_msgSender()) */\n      jump\t// in\n    tag_91:\n        /* \"upgradeSolidityRemix/mvp-sol/solidity/erc721_proxy.sol\":1318:1357  IERC721 token = _isERC721(_msgSender()) */\n      swap1\n      pop\n        /* \"upgradeSolidityRemix/mvp-sol/solidity/erc721_proxy.sol\":1404:1408  this */\n      address\n        /* \"upgradeSolidityRemix/mvp-sol/solidity/erc721_proxy.sol\":1370:1409  token.ownerOf(tokenId) == address(this) */\n      0xffffffffffffffffffffffffffffffffffffffff\n      and\n        /* \"upgradeSolidityRemix/mvp-sol/solidity/erc721_proxy.sol\":1370:1375  token */\n      dup2\n        /* \"upgradeSolidityRemix/mvp-sol/solidity/erc721_proxy.sol\":1370:1383  token.ownerOf */\n      0xffffffffffffffffffffffffffffffffffffffff\n      and\n      0x6352211e\n        /* \"upgradeSolidityRemix/mvp-sol/solidity/erc721_proxy.sol\":1384:1391  tokenId */\n      dup7\n        /* \"upgradeSolidityRemix/mvp-sol/solidity/erc721_proxy.sol\":1370:1392  token.ownerOf(tokenId) */\n      mload(0x40)\n      dup3\n      0xffffffff\n      and\n      0xe0\n      shl\n      dup2\n      mstore\n      0x04\n      add\n      tag_94\n      swap2\n      swap1\n      tag_55\n      jump\t// in\n    tag_94:\n      0x20\n      mload(0x40)\n      dup1\n      dup4\n      sub\n      dup2\n      dup7\n      dup1\n      extcodesize\n      iszero\n      dup1\n      iszero\n      tag_95\n      jumpi\n      0x00\n      dup1\n      revert\n    tag_95:\n      pop\n      gas\n      staticcall\n      iszero\n      dup1\n      iszero\n      tag_97\n      jumpi\n      returndatasize\n      0x00\n      dup1\n      returndatacopy\n      revert(0x00, returndatasize)\n    tag_97:\n      pop\n      pop\n      pop\n      pop\n      mload(0x40)\n      returndatasize\n      not(0x1f)\n      0x1f\n      dup3\n      add\n      and\n      dup3\n      add\n      dup1\n      0x40\n      mstore\n      pop\n      dup2\n      add\n      swap1\n      tag_98\n      swap2\n      swap1\n      tag_99\n      jump\t// in\n    tag_98:\n        /* \"upgradeSolidityRemix/mvp-sol/solidity/erc721_proxy.sol\":1370:1409  token.ownerOf(tokenId) == address(this) */\n      0xffffffffffffffffffffffffffffffffffffffff\n      and\n      eq\n        /* \"upgradeSolidityRemix/mvp-sol/solidity/erc721_proxy.sol\":1362:1458  require(token.ownerOf(tokenId) == address(this), \"#ERC721Proxy#onERC721Received: NOT_OWN_TOKEN\") */\n      tag_100\n      jumpi\n      mload(0x40)\n      0x08c379a000000000000000000000000000000000000000000000000000000000\n      dup2\n      mstore\n      0x04\n      add\n      tag_101\n      swap1\n      tag_102\n      jump\t// in\n    tag_101:\n      mload(0x40)\n      dup1\n      swap2\n      sub\n      swap1\n      revert\n    tag_100:\n        /* \"upgradeSolidityRemix/mvp-sol/solidity/erc721_proxy.sol\":1465:1484  address[] memory to */\n      0x60\n        /* \"upgradeSolidityRemix/mvp-sol/solidity/erc721_proxy.sol\":1489:1506  uint256 signCount */\n      0x00\n        /* \"upgradeSolidityRemix/mvp-sol/solidity/erc721_proxy.sol\":1539:1543  data */\n      dup5\n        /* \"upgradeSolidityRemix/mvp-sol/solidity/erc721_proxy.sol\":1528:1566  abi.decode(data, (address[], uint256)) */\n      dup1\n      0x20\n      add\n      swap1\n      mload\n      dup2\n      add\n      swap1\n      tag_103\n      swap2\n      swap1\n      tag_104\n      jump\t// in\n    tag_103:\n        /* \"upgradeSolidityRemix/mvp-sol/solidity/erc721_proxy.sol\":1511:1566  (to,signCount) = abi.decode(data, (address[], uint256)) */\n      dup1\n      swap3\n      pop\n      dup2\n      swap4\n      pop\n      pop\n      pop\n        /* \"upgradeSolidityRemix/mvp-sol/solidity/erc721_proxy.sol\":1573:1594  checkEmptyAddress(to) */\n      tag_105\n        /* \"upgradeSolidityRemix/mvp-sol/solidity/erc721_proxy.sol\":1591:1593  to */\n      dup3\n        /* \"upgradeSolidityRemix/mvp-sol/solidity/erc721_proxy.sol\":1573:1590  checkEmptyAddress */\n      tag_106\n        /* \"upgradeSolidityRemix/mvp-sol/solidity/erc721_proxy.sol\":1573:1594  checkEmptyAddress(to) */\n      jump\t// in\n    tag_105:\n      pop\n        /* \"upgradeSolidityRemix/mvp-sol/solidity/erc721_proxy.sol\":1622:1623  0 */\n      0x00\n        /* \"upgradeSolidityRemix/mvp-sol/solidity/erc721_proxy.sol\":1609:1618  signCount */\n      dup2\n        /* \"upgradeSolidityRemix/mvp-sol/solidity/erc721_proxy.sol\":1609:1623  signCount != 0 */\n      eq\n      iszero\n        /* \"upgradeSolidityRemix/mvp-sol/solidity/erc721_proxy.sol\":1609:1649  signCount != 0 && signCount <= to.length */\n      dup1\n      iszero\n      tag_107\n      jumpi\n      pop\n        /* \"upgradeSolidityRemix/mvp-sol/solidity/erc721_proxy.sol\":1640:1642  to */\n      dup2\n        /* \"upgradeSolidityRemix/mvp-sol/solidity/erc721_proxy.sol\":1640:1649  to.length */\n      mload\n        /* \"upgradeSolidityRemix/mvp-sol/solidity/erc721_proxy.sol\":1627:1636  signCount */\n      dup2\n        /* \"upgradeSolidityRemix/mvp-sol/solidity/erc721_proxy.sol\":1627:1649  signCount <= to.length */\n      gt\n      iszero\n        /* \"upgradeSolidityRemix/mvp-sol/solidity/erc721_proxy.sol\":1609:1649  signCount != 0 && signCount <= to.length */\n    tag_107:\n        /* \"upgradeSolidityRemix/mvp-sol/solidity/erc721_proxy.sol\":1601:1702  require(signCount != 0 && signCount <= to.length, \"#ERC721Proxy#onERC721Received: BAD_MIN_SIGN_ZERO\") */\n      tag_108\n      jumpi\n      mload(0x40)\n      0x08c379a000000000000000000000000000000000000000000000000000000000\n      dup2\n      mstore\n      0x04\n      add\n      tag_109\n      swap1\n      tag_110\n      jump\t// in\n    tag_109:\n      mload(0x40)\n      dup1\n      swap2\n      sub\n      swap1\n      revert\n    tag_108:\n        /* \"upgradeSolidityRemix/mvp-sol/solidity/erc721_proxy.sol\":1709:1730  Owners storage owners */\n      0x00\n        /* \"upgradeSolidityRemix/mvp-sol/solidity/erc721_proxy.sol\":1733:1740  _assets */\n      0x02\n        /* \"upgradeSolidityRemix/mvp-sol/solidity/erc721_proxy.sol\":1733:1756  _assets[address(token)] */\n      0x00\n        /* \"upgradeSolidityRemix/mvp-sol/solidity/erc721_proxy.sol\":1749:1754  token */\n      dup6\n        /* \"upgradeSolidityRemix/mvp-sol/solidity/erc721_proxy.sol\":1733:1756  _assets[address(token)] */\n      0xffffffffffffffffffffffffffffffffffffffff\n      and\n      0xffffffffffffffffffffffffffffffffffffffff\n      and\n      dup2\n      mstore\n      0x20\n      add\n      swap1\n      dup2\n      mstore\n      0x20\n      add\n      0x00\n      keccak256\n        /* \"upgradeSolidityRemix/mvp-sol/solidity/erc721_proxy.sol\":1733:1765  _assets[address(token)][tokenId] */\n      0x00\n        /* \"upgradeSolidityRemix/mvp-sol/solidity/erc721_proxy.sol\":1757:1764  tokenId */\n      dup9\n        /* \"upgradeSolidityRemix/mvp-sol/solidity/erc721_proxy.sol\":1733:1765  _assets[address(token)][tokenId] */\n      dup2\n      mstore\n      0x20\n      add\n      swap1\n      dup2\n      mstore\n      0x20\n      add\n      0x00\n      keccak256\n        /* \"upgradeSolidityRemix/mvp-sol/solidity/erc721_proxy.sol\":1709:1765  Owners storage owners = _assets[address(token)][tokenId] */\n      swap1\n      pop\n        /* \"upgradeSolidityRemix/mvp-sol/solidity/erc721_proxy.sol\":1786:1788  to */\n      dup3\n        /* \"upgradeSolidityRemix/mvp-sol/solidity/erc721_proxy.sol\":1770:1776  owners */\n      dup2\n        /* \"upgradeSolidityRemix/mvp-sol/solidity/erc721_proxy.sol\":1770:1783  owners.owners */\n      0x02\n      add\n        /* \"upgradeSolidityRemix/mvp-sol/solidity/erc721_proxy.sol\":1770:1788  owners.owners = to */\n      swap1\n      dup1\n      mload\n      swap1\n      0x20\n      add\n      swap1\n      tag_111\n      swap3\n      swap2\n      swap1\n      tag_112\n      jump\t// in\n    tag_111:\n      pop\n        /* \"upgradeSolidityRemix/mvp-sol/solidity/erc721_proxy.sol\":1822:1831  signCount */\n      dup2\n        /* \"upgradeSolidityRemix/mvp-sol/solidity/erc721_proxy.sol\":1803:1809  owners */\n      dup2\n        /* \"upgradeSolidityRemix/mvp-sol/solidity/erc721_proxy.sol\":1803:1819  owners.signCount */\n      0x01\n      add\n        /* \"upgradeSolidityRemix/mvp-sol/solidity/erc721_proxy.sol\":1803:1831  owners.signCount = signCount */\n      dup2\n      swap1\n      sstore\n      pop\n        /* \"upgradeSolidityRemix/mvp-sol/solidity/erc721_proxy.sol\":1854:1855  1 */\n      0x01\n        /* \"upgradeSolidityRemix/mvp-sol/solidity/erc721_proxy.sol\":1836:1842  owners */\n      dup2\n        /* \"upgradeSolidityRemix/mvp-sol/solidity/erc721_proxy.sol\":1836:1851  owners.balances */\n      0x00\n      add\n        /* \"upgradeSolidityRemix/mvp-sol/solidity/erc721_proxy.sol\":1836:1855  owners.balances = 1 */\n      dup2\n      swap1\n      sstore\n      pop\n        /* \"upgradeSolidityRemix/mvp-sol/solidity/erc721_proxy.sol\":1911:1918  tokenId */\n      dup7\n        /* \"upgradeSolidityRemix/mvp-sol/solidity/erc721_proxy.sol\":1888:1890  to */\n      dup4\n        /* \"upgradeSolidityRemix/mvp-sol/solidity/erc721_proxy.sol\":1891:1892  0 */\n      0x00\n        /* \"upgradeSolidityRemix/mvp-sol/solidity/erc721_proxy.sol\":1888:1893  to[0] */\n      dup2\n      mload\n      dup2\n      lt\n      tag_113\n      jumpi\n      invalid\n    tag_113:\n      0x20\n      mul\n      0x20\n      add\n      add\n      mload\n        /* \"upgradeSolidityRemix/mvp-sol/solidity/erc721_proxy.sol\":1867:1925  Transfer(address(0), to[0], address(token), tokenId, 0, 1) */\n      0xffffffffffffffffffffffffffffffffffffffff\n      and\n        /* \"upgradeSolidityRemix/mvp-sol/solidity/erc721_proxy.sol\":1884:1885  0 */\n      0x00\n        /* \"upgradeSolidityRemix/mvp-sol/solidity/erc721_proxy.sol\":1867:1925  Transfer(address(0), to[0], address(token), tokenId, 0, 1) */\n      0xffffffffffffffffffffffffffffffffffffffff\n      and\n      0x737ab30b9cd3ddae02069f3057591007faf2305652d04c2582f7f1f6185d9711\n        /* \"upgradeSolidityRemix/mvp-sol/solidity/erc721_proxy.sol\":1903:1908  token */\n      dup8\n        /* \"upgradeSolidityRemix/mvp-sol/solidity/erc721_proxy.sol\":1920:1921  0 */\n      0x00\n        /* \"upgradeSolidityRemix/mvp-sol/solidity/erc721_proxy.sol\":1923:1924  1 */\n      0x01\n        /* \"upgradeSolidityRemix/mvp-sol/solidity/erc721_proxy.sol\":1867:1925  Transfer(address(0), to[0], address(token), tokenId, 0, 1) */\n      mload(0x40)\n      tag_114\n      swap4\n      swap3\n      swap2\n      swap1\n      tag_115\n      jump\t// in\n    tag_114:\n      mload(0x40)\n      dup1\n      swap2\n      sub\n      swap1\n      log4\n        /* \"upgradeSolidityRemix/mvp-sol/solidity/erc721_proxy.sol\":601:611  0x150b7a02 */\n      0x150b7a02\n        /* \"upgradeSolidityRemix/mvp-sol/solidity/erc721_proxy.sol\":1939:1955  _ERC721_RECEIVED */\n      0xe0\n      shl\n        /* \"upgradeSolidityRemix/mvp-sol/solidity/erc721_proxy.sol\":1932:1955  return _ERC721_RECEIVED */\n      swap5\n      pop\n      pop\n      pop\n      pop\n      pop\n        /* \"upgradeSolidityRemix/mvp-sol/solidity/erc721_proxy.sol\":1176:1960  function onERC721Received(\r... */\n      swap5\n      swap4\n      pop\n      pop\n      pop\n      pop\n      jump\t// out\n        /* \"upgradeSolidityRemix/mvp-sol/solidity/nft_proxy.sol\":5158:5375  function transferFrom(TransferTx memory tx) public {\r... */\n    tag_42:\n        /* \"upgradeSolidityRemix/mvp-sol/solidity/nft_proxy.sol\":5214:5224  verify(tx) */\n      tag_117\n        /* \"upgradeSolidityRemix/mvp-sol/solidity/nft_proxy.sol\":5221:5223  tx */\n      dup2\n        /* \"upgradeSolidityRemix/mvp-sol/solidity/nft_proxy.sol\":5214:5220  verify */\n      tag_69\n        /* \"upgradeSolidityRemix/mvp-sol/solidity/nft_proxy.sol\":5214:5224  verify(tx) */\n      jump\t// in\n    tag_117:\n        /* \"upgradeSolidityRemix/mvp-sol/solidity/nft_proxy.sol\":5229:5249  Owners memory owners */\n      tag_118\n      tag_80\n      jump\t// in\n    tag_118:\n        /* \"upgradeSolidityRemix/mvp-sol/solidity/nft_proxy.sol\":5252:5306  checkOwners(tx.token, tx.tokenId, tx.to, tx.signCount) */\n      tag_119\n        /* \"upgradeSolidityRemix/mvp-sol/solidity/nft_proxy.sol\":5264:5266  tx */\n      dup3\n        /* \"upgradeSolidityRemix/mvp-sol/solidity/nft_proxy.sol\":5264:5272  tx.token */\n      0x00\n      add\n      mload\n        /* \"upgradeSolidityRemix/mvp-sol/solidity/nft_proxy.sol\":5274:5276  tx */\n      dup4\n        /* \"upgradeSolidityRemix/mvp-sol/solidity/nft_proxy.sol\":5274:5284  tx.tokenId */\n      0x20\n      add\n      mload\n        /* \"upgradeSolidityRemix/mvp-sol/solidity/nft_proxy.sol\":5286:5288  tx */\n      dup5\n        /* \"upgradeSolidityRemix/mvp-sol/solidity/nft_proxy.sol\":5286:5291  tx.to */\n      0x60\n      add\n      mload\n        /* \"upgradeSolidityRemix/mvp-sol/solidity/nft_proxy.sol\":5293:5295  tx */\n      dup6\n        /* \"upgradeSolidityRemix/mvp-sol/solidity/nft_proxy.sol\":5293:5305  tx.signCount */\n      0xe0\n      add\n      mload\n        /* \"upgradeSolidityRemix/mvp-sol/solidity/nft_proxy.sol\":5252:5263  checkOwners */\n      tag_120\n        /* \"upgradeSolidityRemix/mvp-sol/solidity/nft_proxy.sol\":5252:5306  checkOwners(tx.token, tx.tokenId, tx.to, tx.signCount) */\n      jump\t// in\n    tag_119:\n        /* \"upgradeSolidityRemix/mvp-sol/solidity/nft_proxy.sol\":5229:5306  Owners memory owners = checkOwners(tx.token, tx.tokenId, tx.to, tx.signCount) */\n      swap1\n      pop\n        /* \"upgradeSolidityRemix/mvp-sol/solidity/nft_proxy.sol\":5311:5370  _transfer(tx.from, owners, tx.token, tx.tokenId, tx.amount) */\n      tag_121\n        /* \"upgradeSolidityRemix/mvp-sol/solidity/nft_proxy.sol\":5321:5323  tx */\n      dup3\n        /* \"upgradeSolidityRemix/mvp-sol/solidity/nft_proxy.sol\":5321:5328  tx.from */\n      0x40\n      add\n      mload\n        /* \"upgradeSolidityRemix/mvp-sol/solidity/nft_proxy.sol\":5330:5336  owners */\n      dup3\n        /* \"upgradeSolidityRemix/mvp-sol/solidity/nft_proxy.sol\":5338:5340  tx */\n      dup5\n        /* \"upgradeSolidityRemix/mvp-sol/solidity/nft_proxy.sol\":5338:5346  tx.token */\n      0x00\n      add\n      mload\n        /* \"upgradeSolidityRemix/mvp-sol/solidity/nft_proxy.sol\":5348:5350  tx */\n      dup6\n        /* \"upgradeSolidityRemix/mvp-sol/solidity/nft_proxy.sol\":5348:5358  tx.tokenId */\n      0x20\n      add\n      mload\n        /* \"upgradeSolidityRemix/mvp-sol/solidity/nft_proxy.sol\":5360:5362  tx */\n      dup7\n        /* \"upgradeSolidityRemix/mvp-sol/solidity/nft_proxy.sol\":5360:5369  tx.amount */\n      0x80\n      add\n      mload\n        /* \"upgradeSolidityRemix/mvp-sol/solidity/nft_proxy.sol\":5311:5320  _transfer */\n      tag_122\n        /* \"upgradeSolidityRemix/mvp-sol/solidity/nft_proxy.sol\":5311:5370  _transfer(tx.from, owners, tx.token, tx.tokenId, tx.amount) */\n      jump\t// in\n    tag_121:\n        /* \"upgradeSolidityRemix/mvp-sol/solidity/nft_proxy.sol\":5158:5375  function transferFrom(TransferTx memory tx) public {\r... */\n      pop\n      pop\n      jump\t// out\n        /* \"upgradeSolidityRemix/mvp-sol/solidity/nft_proxy.sol\":1757:2188  function transfer(address[] memory to, address token, uint256 tokenId, uint256 amount, uint256 signCount) public {\r... */\n    tag_46:\n        /* \"upgradeSolidityRemix/mvp-sol/solidity/nft_proxy.sol\":1875:1895  Owners memory owners */\n      tag_124\n      tag_80\n      jump\t// in\n    tag_124:\n        /* \"upgradeSolidityRemix/mvp-sol/solidity/nft_proxy.sol\":1898:1936  ownersOf(token, tokenId, _msgSender()) */\n      tag_125\n        /* \"upgradeSolidityRemix/mvp-sol/solidity/nft_proxy.sol\":1907:1912  token */\n      dup6\n        /* \"upgradeSolidityRemix/mvp-sol/solidity/nft_proxy.sol\":1914:1921  tokenId */\n      dup6\n        /* \"upgradeSolidityRemix/mvp-sol/solidity/nft_proxy.sol\":1923:1935  _msgSender() */\n      tag_126\n        /* \"upgradeSolidityRemix/mvp-sol/solidity/nft_proxy.sol\":1923:1933  _msgSender */\n      tag_83\n        /* \"upgradeSolidityRemix/mvp-sol/solidity/nft_proxy.sol\":1923:1935  _msgSender() */\n      jump\t// in\n    tag_126:\n        /* \"upgradeSolidityRemix/mvp-sol/solidity/nft_proxy.sol\":1898:1906  ownersOf */\n      tag_60\n        /* \"upgradeSolidityRemix/mvp-sol/solidity/nft_proxy.sol\":1898:1936  ownersOf(token, tokenId, _msgSender()) */\n      jump\t// in\n    tag_125:\n        /* \"upgradeSolidityRemix/mvp-sol/solidity/nft_proxy.sol\":1875:1936  Owners memory owners = ownersOf(token, tokenId, _msgSender()) */\n      swap1\n      pop\n        /* \"upgradeSolidityRemix/mvp-sol/solidity/nft_proxy.sol\":1969:1970  1 */\n      0x01\n        /* \"upgradeSolidityRemix/mvp-sol/solidity/nft_proxy.sol\":1949:1955  owners */\n      dup2\n        /* \"upgradeSolidityRemix/mvp-sol/solidity/nft_proxy.sol\":1949:1965  owners.signCount */\n      0x20\n      add\n      mload\n        /* \"upgradeSolidityRemix/mvp-sol/solidity/nft_proxy.sol\":1949:1970  owners.signCount == 1 */\n      eq\n        /* \"upgradeSolidityRemix/mvp-sol/solidity/nft_proxy.sol\":1941:2015  require(owners.signCount == 1, \"#NFTProxy#transfer: NO_TRANSFER_SIGN_ERR\") */\n      tag_127\n      jumpi\n      mload(0x40)\n      0x08c379a000000000000000000000000000000000000000000000000000000000\n      dup2\n      mstore\n      0x04\n      add\n      tag_128\n      swap1\n      tag_86\n      jump\t// in\n    tag_128:\n      mload(0x40)\n      dup1\n      swap2\n      sub\n      swap1\n      revert\n    tag_127:\n        /* \"upgradeSolidityRemix/mvp-sol/solidity/nft_proxy.sol\":2054:2076  Owners memory toOwners */\n      tag_129\n      tag_80\n      jump\t// in\n    tag_129:\n        /* \"upgradeSolidityRemix/mvp-sol/solidity/nft_proxy.sol\":2079:2121  checkOwners(token, tokenId, to, signCount) */\n      tag_130\n        /* \"upgradeSolidityRemix/mvp-sol/solidity/nft_proxy.sol\":2091:2096  token */\n      dup7\n        /* \"upgradeSolidityRemix/mvp-sol/solidity/nft_proxy.sol\":2098:2105  tokenId */\n      dup7\n        /* \"upgradeSolidityRemix/mvp-sol/solidity/nft_proxy.sol\":2107:2109  to */\n      dup10\n        /* \"upgradeSolidityRemix/mvp-sol/solidity/nft_proxy.sol\":2111:2120  signCount */\n      dup7\n        /* \"upgradeSolidityRemix/mvp-sol/solidity/nft_proxy.sol\":2079:2090  checkOwners */\n      tag_120\n        /* \"upgradeSolidityRemix/mvp-sol/solidity/nft_proxy.sol\":2079:2121  checkOwners(token, tokenId, to, signCount) */\n      jump\t// in\n    tag_130:\n        /* \"upgradeSolidityRemix/mvp-sol/solidity/nft_proxy.sol\":2054:2121  Owners memory toOwners = checkOwners(token, tokenId, to, signCount) */\n      swap1\n      pop\n        /* \"upgradeSolidityRemix/mvp-sol/solidity/nft_proxy.sol\":2126:2183  _transfer(_msgSender(), toOwners, token, tokenId, amount) */\n      tag_131\n        /* \"upgradeSolidityRemix/mvp-sol/solidity/nft_proxy.sol\":2136:2148  _msgSender() */\n      tag_132\n        /* \"upgradeSolidityRemix/mvp-sol/solidity/nft_proxy.sol\":2136:2146  _msgSender */\n      tag_83\n        /* \"upgradeSolidityRemix/mvp-sol/solidity/nft_proxy.sol\":2136:2148  _msgSender() */\n      jump\t// in\n    tag_132:\n        /* \"upgradeSolidityRemix/mvp-sol/solidity/nft_proxy.sol\":2150:2158  toOwners */\n      dup3\n        /* \"upgradeSolidityRemix/mvp-sol/solidity/nft_proxy.sol\":2160:2165  token */\n      dup9\n        /* \"upgradeSolidityRemix/mvp-sol/solidity/nft_proxy.sol\":2167:2174  tokenId */\n      dup9\n        /* \"upgradeSolidityRemix/mvp-sol/solidity/nft_proxy.sol\":2176:2182  amount */\n      dup9\n        /* \"upgradeSolidityRemix/mvp-sol/solidity/nft_proxy.sol\":2126:2135  _transfer */\n      tag_122\n        /* \"upgradeSolidityRemix/mvp-sol/solidity/nft_proxy.sol\":2126:2183  _transfer(_msgSender(), toOwners, token, tokenId, amount) */\n      jump\t// in\n    tag_131:\n        /* \"upgradeSolidityRemix/mvp-sol/solidity/nft_proxy.sol\":1757:2188  function transfer(address[] memory to, address token, uint256 tokenId, uint256 amount, uint256 signCount) public {\r... */\n      pop\n      pop\n      pop\n      pop\n      pop\n      pop\n      pop\n      jump\t// out\n        /* \"upgradeSolidityRemix/mvp-sol/solidity/nft_proxy.sol\":5007:5153  function withdrawFrom(TransferTx memory tx) public {\r... */\n    tag_49:\n        /* \"upgradeSolidityRemix/mvp-sol/solidity/nft_proxy.sol\":5063:5073  verify(tx) */\n      tag_134\n        /* \"upgradeSolidityRemix/mvp-sol/solidity/nft_proxy.sol\":5070:5072  tx */\n      dup2\n        /* \"upgradeSolidityRemix/mvp-sol/solidity/nft_proxy.sol\":5063:5069  verify */\n      tag_69\n        /* \"upgradeSolidityRemix/mvp-sol/solidity/nft_proxy.sol\":5063:5073  verify(tx) */\n      jump\t// in\n    tag_134:\n        /* \"upgradeSolidityRemix/mvp-sol/solidity/nft_proxy.sol\":5078:5148  _withdraw(tx.from, tx.to[0], tx.token, tx.tokenId, tx.amount, tx.data) */\n      tag_135\n        /* \"upgradeSolidityRemix/mvp-sol/solidity/nft_proxy.sol\":5088:5090  tx */\n      dup2\n        /* \"upgradeSolidityRemix/mvp-sol/solidity/nft_proxy.sol\":5088:5095  tx.from */\n      0x40\n      add\n      mload\n        /* \"upgradeSolidityRemix/mvp-sol/solidity/nft_proxy.sol\":5097:5099  tx */\n      dup3\n        /* \"upgradeSolidityRemix/mvp-sol/solidity/nft_proxy.sol\":5097:5102  tx.to */\n      0x60\n      add\n      mload\n        /* \"upgradeSolidityRemix/mvp-sol/solidity/nft_proxy.sol\":5103:5104  0 */\n      0x00\n        /* \"upgradeSolidityRemix/mvp-sol/solidity/nft_proxy.sol\":5097:5105  tx.to[0] */\n      dup2\n      mload\n      dup2\n      lt\n      tag_136\n      jumpi\n      invalid\n    tag_136:\n      0x20\n      mul\n      0x20\n      add\n      add\n      mload\n        /* \"upgradeSolidityRemix/mvp-sol/solidity/nft_proxy.sol\":5107:5109  tx */\n      dup4\n        /* \"upgradeSolidityRemix/mvp-sol/solidity/nft_proxy.sol\":5107:5115  tx.token */\n      0x00\n      add\n      mload\n        /* \"upgradeSolidityRemix/mvp-sol/solidity/nft_proxy.sol\":5117:5119  tx */\n      dup5\n        /* \"upgradeSolidityRemix/mvp-sol/solidity/nft_proxy.sol\":5117:5127  tx.tokenId */\n      0x20\n      add\n      mload\n        /* \"upgradeSolidityRemix/mvp-sol/solidity/nft_proxy.sol\":5129:5131  tx */\n      dup6\n        /* \"upgradeSolidityRemix/mvp-sol/solidity/nft_proxy.sol\":5129:5138  tx.amount */\n      0x80\n      add\n      mload\n        /* \"upgradeSolidityRemix/mvp-sol/solidity/nft_proxy.sol\":5140:5142  tx */\n      dup7\n        /* \"upgradeSolidityRemix/mvp-sol/solidity/nft_proxy.sol\":5140:5147  tx.data */\n      0xa0\n      add\n      mload\n        /* \"upgradeSolidityRemix/mvp-sol/solidity/nft_proxy.sol\":5078:5087  _withdraw */\n      tag_89\n        /* \"upgradeSolidityRemix/mvp-sol/solidity/nft_proxy.sol\":5078:5148  _withdraw(tx.from, tx.to[0], tx.token, tx.tokenId, tx.amount, tx.data) */\n      jump\t// in\n    tag_135:\n        /* \"upgradeSolidityRemix/mvp-sol/solidity/nft_proxy.sol\":5007:5153  function withdrawFrom(TransferTx memory tx) public {\r... */\n      pop\n      jump\t// out\n        /* \"upgradeSolidityRemix/mvp-sol/solidity/erc721_proxy.sol\":2663:2893  function balanceOf(address token, uint256 tokenId, address owner) public view override returns(uint256) {\r... */\n    tag_53:\n        /* \"upgradeSolidityRemix/mvp-sol/solidity/erc721_proxy.sol\":2758:2765  uint256 */\n      0x00\n        /* \"upgradeSolidityRemix/mvp-sol/solidity/erc721_proxy.sol\":2772:2796  address[] storage owners */\n      dup1\n        /* \"upgradeSolidityRemix/mvp-sol/solidity/erc721_proxy.sol\":2799:2806  _assets */\n      0x02\n        /* \"upgradeSolidityRemix/mvp-sol/solidity/erc721_proxy.sol\":2799:2813  _assets[token] */\n      0x00\n        /* \"upgradeSolidityRemix/mvp-sol/solidity/erc721_proxy.sol\":2807:2812  token */\n      dup7\n        /* \"upgradeSolidityRemix/mvp-sol/solidity/erc721_proxy.sol\":2799:2813  _assets[token] */\n      0xffffffffffffffffffffffffffffffffffffffff\n      and\n      0xffffffffffffffffffffffffffffffffffffffff\n      and\n      dup2\n      mstore\n      0x20\n      add\n      swap1\n      dup2\n      mstore\n      0x20\n      add\n      0x00\n      keccak256\n        /* \"upgradeSolidityRemix/mvp-sol/solidity/erc721_proxy.sol\":2799:2822  _assets[token][tokenId] */\n      0x00\n        /* \"upgradeSolidityRemix/mvp-sol/solidity/erc721_proxy.sol\":2814:2821  tokenId */\n      dup6\n        /* \"upgradeSolidityRemix/mvp-sol/solidity/erc721_proxy.sol\":2799:2822  _assets[token][tokenId] */\n      dup2\n      mstore\n      0x20\n      add\n      swap1\n      dup2\n      mstore\n      0x20\n      add\n      0x00\n      keccak256\n        /* \"upgradeSolidityRemix/mvp-sol/solidity/erc721_proxy.sol\":2799:2829  _assets[token][tokenId].owners */\n      0x02\n      add\n        /* \"upgradeSolidityRemix/mvp-sol/solidity/erc721_proxy.sol\":2772:2829  address[] storage owners = _assets[token][tokenId].owners */\n      swap1\n      pop\n        /* \"upgradeSolidityRemix/mvp-sol/solidity/erc721_proxy.sol\":2858:2859  0 */\n      0x00\n        /* \"upgradeSolidityRemix/mvp-sol/solidity/erc721_proxy.sol\":2841:2847  owners */\n      dup2\n        /* \"upgradeSolidityRemix/mvp-sol/solidity/erc721_proxy.sol\":2841:2854  owners.length */\n      dup1\n      sload\n      swap1\n      pop\n        /* \"upgradeSolidityRemix/mvp-sol/solidity/erc721_proxy.sol\":2841:2859  owners.length != 0 */\n      eq\n      iszero\n        /* \"upgradeSolidityRemix/mvp-sol/solidity/erc721_proxy.sol\":2841:2881  owners.length != 0 && owners[0] == owner */\n      dup1\n      iszero\n      tag_138\n      jumpi\n      pop\n        /* \"upgradeSolidityRemix/mvp-sol/solidity/erc721_proxy.sol\":2876:2881  owner */\n      dup3\n        /* \"upgradeSolidityRemix/mvp-sol/solidity/erc721_proxy.sol\":2863:2881  owners[0] == owner */\n      0xffffffffffffffffffffffffffffffffffffffff\n      and\n        /* \"upgradeSolidityRemix/mvp-sol/solidity/erc721_proxy.sol\":2863:2869  owners */\n      dup2\n        /* \"upgradeSolidityRemix/mvp-sol/solidity/erc721_proxy.sol\":2870:2871  0 */\n      0x00\n        /* \"upgradeSolidityRemix/mvp-sol/solidity/erc721_proxy.sol\":2863:2872  owners[0] */\n      dup2\n      sload\n      dup2\n      lt\n      tag_139\n      jumpi\n      invalid\n    tag_139:\n      swap1\n      0x00\n      mstore\n      keccak256(0x00, 0x20)\n      add\n      0x00\n      swap1\n      sload\n      swap1\n      0x0100\n      exp\n      swap1\n      div\n      0xffffffffffffffffffffffffffffffffffffffff\n      and\n        /* \"upgradeSolidityRemix/mvp-sol/solidity/erc721_proxy.sol\":2863:2881  owners[0] == owner */\n      0xffffffffffffffffffffffffffffffffffffffff\n      and\n      eq\n        /* \"upgradeSolidityRemix/mvp-sol/solidity/erc721_proxy.sol\":2841:2881  owners.length != 0 && owners[0] == owner */\n    tag_138:\n        /* \"upgradeSolidityRemix/mvp-sol/solidity/erc721_proxy.sol\":2841:2888  owners.length != 0 && owners[0] == owner ? 1: 0 */\n      tag_141\n      jumpi\n        /* \"upgradeSolidityRemix/mvp-sol/solidity/erc721_proxy.sol\":2887:2888  0 */\n      0x00\n        /* \"upgradeSolidityRemix/mvp-sol/solidity/erc721_proxy.sol\":2841:2888  owners.length != 0 && owners[0] == owner ? 1: 0 */\n      jump(tag_142)\n    tag_141:\n        /* \"upgradeSolidityRemix/mvp-sol/solidity/erc721_proxy.sol\":2884:2885  1 */\n      0x01\n        /* \"upgradeSolidityRemix/mvp-sol/solidity/erc721_proxy.sol\":2841:2888  owners.length != 0 && owners[0] == owner ? 1: 0 */\n    tag_142:\n        /* \"upgradeSolidityRemix/mvp-sol/solidity/erc721_proxy.sol\":2834:2888  return owners.length != 0 && owners[0] == owner ? 1: 0 */\n      0xff\n      and\n      swap2\n      pop\n      pop\n        /* \"upgradeSolidityRemix/mvp-sol/solidity/erc721_proxy.sol\":2663:2893  function balanceOf(address token, uint256 tokenId, address owner) public view override returns(uint256) {\r... */\n      swap4\n      swap3\n      pop\n      pop\n      pop\n      jump\t// out\n        /* \"upgradeSolidityRemix/mvp-sol/solidity/base.sol\":3754:3887  function renounceOwnership() public virtual onlyOwner {\r... */\n    tag_57:\n        /* \"upgradeSolidityRemix/mvp-sol/solidity/base.sol\":3228:3240  _msgSender() */\n      tag_144\n        /* \"upgradeSolidityRemix/mvp-sol/solidity/base.sol\":3228:3238  _msgSender */\n      tag_83\n        /* \"upgradeSolidityRemix/mvp-sol/solidity/base.sol\":3228:3240  _msgSender() */\n      jump\t// in\n    tag_144:\n        /* \"upgradeSolidityRemix/mvp-sol/solidity/base.sol\":3218:3240  _owner == _msgSender() */\n      0xffffffffffffffffffffffffffffffffffffffff\n      and\n        /* \"upgradeSolidityRemix/mvp-sol/solidity/base.sol\":3218:3224  _owner */\n      0x00\n      dup1\n      sload\n      swap1\n      0x0100\n      exp\n      swap1\n      div\n      0xffffffffffffffffffffffffffffffffffffffff\n      and\n        /* \"upgradeSolidityRemix/mvp-sol/solidity/base.sol\":3218:3240  _owner == _msgSender() */\n      0xffffffffffffffffffffffffffffffffffffffff\n      and\n      eq\n        /* \"upgradeSolidityRemix/mvp-sol/solidity/base.sol\":3210:3277  require(_owner == _msgSender(), \"Ownable: caller is not the owner\") */\n      tag_145\n      jumpi\n      mload(0x40)\n      0x08c379a000000000000000000000000000000000000000000000000000000000\n      dup2\n      mstore\n      0x04\n      add\n      tag_146\n      swap1\n      tag_147\n      jump\t// in\n    tag_146:\n      mload(0x40)\n      dup1\n      swap2\n      sub\n      swap1\n      revert\n    tag_145:\n        /* \"upgradeSolidityRemix/mvp-sol/solidity/base.sol\":3855:3856  0 */\n      0x00\n        /* \"upgradeSolidityRemix/mvp-sol/solidity/base.sol\":3818:3858  OwnershipTransferred(_owner, address(0)) */\n      0xffffffffffffffffffffffffffffffffffffffff\n      and\n        /* \"upgradeSolidityRemix/mvp-sol/solidity/base.sol\":3839:3845  _owner */\n      0x00\n      dup1\n      sload\n      swap1\n      0x0100\n      exp\n      swap1\n      div\n      0xffffffffffffffffffffffffffffffffffffffff\n      and\n        /* \"upgradeSolidityRemix/mvp-sol/solidity/base.sol\":3818:3858  OwnershipTransferred(_owner, address(0)) */\n      0xffffffffffffffffffffffffffffffffffffffff\n      and\n      0x8be0079c531659141344cd1fd0a4f28419497f9722a3daafe3b4186f6b6457e0\n      mload(0x40)\n      mload(0x40)\n      dup1\n      swap2\n      sub\n      swap1\n      log3\n        /* \"upgradeSolidityRemix/mvp-sol/solidity/base.sol\":3880:3881  0 */\n      0x00\n        /* \"upgradeSolidityRemix/mvp-sol/solidity/base.sol\":3863:3869  _owner */\n      dup1\n      0x00\n        /* \"upgradeSolidityRemix/mvp-sol/solidity/base.sol\":3863:3882  _owner = address(0) */\n      0x0100\n      exp\n      dup2\n      sload\n      dup2\n      0xffffffffffffffffffffffffffffffffffffffff\n      mul\n      not\n      and\n      swap1\n      dup4\n      0xffffffffffffffffffffffffffffffffffffffff\n      and\n      mul\n      or\n      swap1\n      sstore\n      pop\n        /* \"upgradeSolidityRemix/mvp-sol/solidity/base.sol\":3754:3887  function renounceOwnership() public virtual onlyOwner {\r... */\n      jump\t// out\n        /* \"upgradeSolidityRemix/mvp-sol/solidity/erc721_proxy.sol\":2898:3047  function ownersOf(address token, uint256 tokenId, address owner) public view override returns(Owners memory) {\r... */\n    tag_60:\n        /* \"upgradeSolidityRemix/mvp-sol/solidity/erc721_proxy.sol\":2992:3005  Owners memory */\n      tag_149\n      tag_80\n      jump\t// in\n    tag_149:\n        /* \"upgradeSolidityRemix/mvp-sol/solidity/erc721_proxy.sol\":3019:3026  _assets */\n      0x02\n        /* \"upgradeSolidityRemix/mvp-sol/solidity/erc721_proxy.sol\":3019:3033  _assets[token] */\n      0x00\n        /* \"upgradeSolidityRemix/mvp-sol/solidity/erc721_proxy.sol\":3027:3032  token */\n      dup6\n        /* \"upgradeSolidityRemix/mvp-sol/solidity/erc721_proxy.sol\":3019:3033  _assets[token] */\n      0xffffffffffffffffffffffffffffffffffffffff\n      and\n      0xffffffffffffffffffffffffffffffffffffffff\n      and\n      dup2\n      mstore\n      0x20\n      add\n      swap1\n      dup2\n      mstore\n      0x20\n      add\n      0x00\n      keccak256\n        /* \"upgradeSolidityRemix/mvp-sol/solidity/erc721_proxy.sol\":3019:3042  _assets[token][tokenId] */\n      0x00\n        /* \"upgradeSolidityRemix/mvp-sol/solidity/erc721_proxy.sol\":3034:3041  tokenId */\n      dup5\n        /* \"upgradeSolidityRemix/mvp-sol/solidity/erc721_proxy.sol\":3019:3042  _assets[token][tokenId] */\n      dup2\n      mstore\n      0x20\n      add\n      swap1\n      dup2\n      mstore\n      0x20\n      add\n      0x00\n      keccak256\n        /* \"upgradeSolidityRemix/mvp-sol/solidity/erc721_proxy.sol\":3012:3042  return _assets[token][tokenId] */\n      mload(0x40)\n      dup1\n      0x60\n      add\n      0x40\n      mstore\n      swap1\n      dup2\n      0x00\n      dup3\n      add\n      sload\n      dup2\n      mstore\n      0x20\n      add\n      0x01\n      dup3\n      add\n      sload\n      dup2\n      mstore\n      0x20\n      add\n      0x02\n      dup3\n      add\n      dup1\n      sload\n      dup1\n      0x20\n      mul\n      0x20\n      add\n      mload(0x40)\n      swap1\n      dup2\n      add\n      0x40\n      mstore\n      dup1\n      swap3\n      swap2\n      swap1\n      dup2\n      dup2\n      mstore\n      0x20\n      add\n      dup3\n      dup1\n      sload\n      dup1\n      iszero\n      tag_151\n      jumpi\n      0x20\n      mul\n      dup3\n      add\n      swap2\n      swap1\n      0x00\n      mstore\n      keccak256(0x00, 0x20)\n      swap1\n    tag_152:\n      dup2\n      0x00\n      swap1\n      sload\n      swap1\n      0x0100\n      exp\n      swap1\n      div\n      0xffffffffffffffffffffffffffffffffffffffff\n      and\n      0xffffffffffffffffffffffffffffffffffffffff\n      and\n      dup2\n      mstore\n      0x20\n      add\n      swap1\n      0x01\n      add\n      swap1\n      dup1\n      dup4\n      gt\n      tag_152\n      jumpi\n    tag_151:\n      pop\n      pop\n      pop\n      pop\n      pop\n      dup2\n      mstore\n      pop\n      pop\n      swap1\n      pop\n        /* \"upgradeSolidityRemix/mvp-sol/solidity/erc721_proxy.sol\":2898:3047  function ownersOf(address token, uint256 tokenId, address owner) public view override returns(Owners memory) {\r... */\n      swap4\n      swap3\n      pop\n      pop\n      pop\n      jump\t// out\n        /* \"upgradeSolidityRemix/mvp-sol/solidity/base.sol\":3357:3427  function owner() public view returns (address) {\r... */\n    tag_64:\n        /* \"upgradeSolidityRemix/mvp-sol/solidity/base.sol\":3395:3402  address */\n      0x00\n        /* \"upgradeSolidityRemix/mvp-sol/solidity/base.sol\":3416:3422  _owner */\n      dup1\n      0x00\n      swap1\n      sload\n      swap1\n      0x0100\n      exp\n      swap1\n      div\n      0xffffffffffffffffffffffffffffffffffffffff\n      and\n        /* \"upgradeSolidityRemix/mvp-sol/solidity/base.sol\":3409:3422  return _owner */\n      swap1\n      pop\n        /* \"upgradeSolidityRemix/mvp-sol/solidity/base.sol\":3357:3427  function owner() public view returns (address) {\r... */\n      swap1\n      jump\t// out\n        /* \"upgradeSolidityRemix/mvp-sol/solidity/nft_proxy.sol\":3325:5002  function verify(TransferTx memory tx) view public {\r... */\n    tag_69:\n        /* \"upgradeSolidityRemix/mvp-sol/solidity/nft_proxy.sol\":3400:3415  block.timestamp */\n      timestamp\n        /* \"upgradeSolidityRemix/mvp-sol/solidity/nft_proxy.sol\":3388:3390  tx */\n      dup2\n        /* \"upgradeSolidityRemix/mvp-sol/solidity/nft_proxy.sol\":3388:3397  tx.expiry */\n      0xc0\n      add\n      mload\n        /* \"upgradeSolidityRemix/mvp-sol/solidity/nft_proxy.sol\":3388:3415  tx.expiry > block.timestamp */\n      gt\n        /* \"upgradeSolidityRemix/mvp-sol/solidity/nft_proxy.sol\":3380:3453  require(tx.expiry > block.timestamp, \"#NFTProxy#verify: TRANSFER_EXPIRY\") */\n      tag_155\n      jumpi\n      mload(0x40)\n      0x08c379a000000000000000000000000000000000000000000000000000000000\n      dup2\n      mstore\n      0x04\n      add\n      tag_156\n      swap1\n      tag_157\n      jump\t// in\n    tag_156:\n      mload(0x40)\n      dup1\n      swap2\n      sub\n      swap1\n      revert\n    tag_155:\n        /* \"upgradeSolidityRemix/mvp-sol/solidity/nft_proxy.sol\":3460:3473  address token */\n      0x00\n        /* \"upgradeSolidityRemix/mvp-sol/solidity/nft_proxy.sol\":3476:3478  tx */\n      dup2\n        /* \"upgradeSolidityRemix/mvp-sol/solidity/nft_proxy.sol\":3476:3484  tx.token */\n      0x00\n      add\n      mload\n        /* \"upgradeSolidityRemix/mvp-sol/solidity/nft_proxy.sol\":3460:3484  address token = tx.token */\n      swap1\n      pop\n        /* \"upgradeSolidityRemix/mvp-sol/solidity/nft_proxy.sol\":3489:3504  uint256 tokenId */\n      0x00\n        /* \"upgradeSolidityRemix/mvp-sol/solidity/nft_proxy.sol\":3507:3509  tx */\n      dup3\n        /* \"upgradeSolidityRemix/mvp-sol/solidity/nft_proxy.sol\":3507:3517  tx.tokenId */\n      0x20\n      add\n      mload\n        /* \"upgradeSolidityRemix/mvp-sol/solidity/nft_proxy.sol\":3489:3517  uint256 tokenId = tx.tokenId */\n      swap1\n      pop\n        /* \"upgradeSolidityRemix/mvp-sol/solidity/nft_proxy.sol\":3522:3534  address from */\n      0x00\n        /* \"upgradeSolidityRemix/mvp-sol/solidity/nft_proxy.sol\":3537:3539  tx */\n      dup4\n        /* \"upgradeSolidityRemix/mvp-sol/solidity/nft_proxy.sol\":3537:3544  tx.from */\n      0x40\n      add\n      mload\n        /* \"upgradeSolidityRemix/mvp-sol/solidity/nft_proxy.sol\":3522:3544  address from = tx.from */\n      swap1\n      pop\n        /* \"upgradeSolidityRemix/mvp-sol/solidity/nft_proxy.sol\":3549:3572  address[] memory signer */\n      0x60\n        /* \"upgradeSolidityRemix/mvp-sol/solidity/nft_proxy.sol\":3575:3577  tx */\n      dup5\n        /* \"upgradeSolidityRemix/mvp-sol/solidity/nft_proxy.sol\":3575:3584  tx.signer */\n      0x0100\n      add\n      mload\n        /* \"upgradeSolidityRemix/mvp-sol/solidity/nft_proxy.sol\":3549:3584  address[] memory signer = tx.signer */\n      swap1\n      pop\n        /* \"upgradeSolidityRemix/mvp-sol/solidity/nft_proxy.sol\":3589:3612  Signature[] memory rsv_ */\n      0x60\n        /* \"upgradeSolidityRemix/mvp-sol/solidity/nft_proxy.sol\":3615:3617  tx */\n      dup6\n        /* \"upgradeSolidityRemix/mvp-sol/solidity/nft_proxy.sol\":3615:3621  tx.rsv */\n      0x0120\n      add\n      mload\n        /* \"upgradeSolidityRemix/mvp-sol/solidity/nft_proxy.sol\":3589:3621  Signature[] memory rsv_ = tx.rsv */\n      swap1\n      pop\n        /* \"upgradeSolidityRemix/mvp-sol/solidity/nft_proxy.sol\":3628:3644  bytes memory buf */\n      0x60\n        /* \"upgradeSolidityRemix/mvp-sol/solidity/nft_proxy.sol\":3647:3663  encodePacked(tx) */\n      tag_158\n        /* \"upgradeSolidityRemix/mvp-sol/solidity/nft_proxy.sol\":3660:3662  tx */\n      dup8\n        /* \"upgradeSolidityRemix/mvp-sol/solidity/nft_proxy.sol\":3647:3659  encodePacked */\n      tag_27\n        /* \"upgradeSolidityRemix/mvp-sol/solidity/nft_proxy.sol\":3647:3663  encodePacked(tx) */\n      jump\t// in\n    tag_158:\n        /* \"upgradeSolidityRemix/mvp-sol/solidity/nft_proxy.sol\":3628:3663  bytes memory buf = encodePacked(tx) */\n      swap1\n      pop\n        /* \"upgradeSolidityRemix/mvp-sol/solidity/nft_proxy.sol\":3734:3746  bytes32 hash */\n      0x00\n        /* \"upgradeSolidityRemix/mvp-sol/solidity/nft_proxy.sol\":3759:3762  buf */\n      dup2\n        /* \"upgradeSolidityRemix/mvp-sol/solidity/nft_proxy.sol\":3749:3763  keccak256(buf) */\n      dup1\n      mload\n      swap1\n      0x20\n      add\n      keccak256\n        /* \"upgradeSolidityRemix/mvp-sol/solidity/nft_proxy.sol\":3734:3763  bytes32 hash = keccak256(buf) */\n      swap1\n      pop\n        /* \"upgradeSolidityRemix/mvp-sol/solidity/nft_proxy.sol\":3770:3790  Owners memory owners */\n      tag_159\n      tag_80\n      jump\t// in\n    tag_159:\n        /* \"upgradeSolidityRemix/mvp-sol/solidity/nft_proxy.sol\":3793:3823  ownersOf(token, tokenId, from) */\n      tag_160\n        /* \"upgradeSolidityRemix/mvp-sol/solidity/nft_proxy.sol\":3802:3807  token */\n      dup9\n        /* \"upgradeSolidityRemix/mvp-sol/solidity/nft_proxy.sol\":3809:3816  tokenId */\n      dup9\n        /* \"upgradeSolidityRemix/mvp-sol/solidity/nft_proxy.sol\":3818:3822  from */\n      dup9\n        /* \"upgradeSolidityRemix/mvp-sol/solidity/nft_proxy.sol\":3793:3801  ownersOf */\n      tag_60\n        /* \"upgradeSolidityRemix/mvp-sol/solidity/nft_proxy.sol\":3793:3823  ownersOf(token, tokenId, from) */\n      jump\t// in\n    tag_160:\n        /* \"upgradeSolidityRemix/mvp-sol/solidity/nft_proxy.sol\":3770:3823  Owners memory owners = ownersOf(token, tokenId, from) */\n      swap1\n      pop\n        /* \"upgradeSolidityRemix/mvp-sol/solidity/nft_proxy.sol\":4046:4047  0 */\n      0x00\n        /* \"upgradeSolidityRemix/mvp-sol/solidity/nft_proxy.sol\":4030:4048  from != address(0) */\n      0xffffffffffffffffffffffffffffffffffffffff\n      and\n        /* \"upgradeSolidityRemix/mvp-sol/solidity/nft_proxy.sol\":4030:4034  from */\n      dup7\n        /* \"upgradeSolidityRemix/mvp-sol/solidity/nft_proxy.sol\":4030:4048  from != address(0) */\n      0xffffffffffffffffffffffffffffffffffffffff\n      and\n      eq\n      iszero\n        /* \"upgradeSolidityRemix/mvp-sol/solidity/nft_proxy.sol\":4022:4083  require(from != address(0), \"#NFTProxy#verify: ADDRESS_ZERO\") */\n      tag_161\n      jumpi\n      mload(0x40)\n      0x08c379a000000000000000000000000000000000000000000000000000000000\n      dup2\n      mstore\n      0x04\n      add\n      tag_162\n      swap1\n      tag_163\n      jump\t// in\n    tag_162:\n      mload(0x40)\n      dup1\n      swap2\n      sub\n      swap1\n      revert\n    tag_161:\n        /* \"upgradeSolidityRemix/mvp-sol/solidity/nft_proxy.sol\":4104:4110  owners */\n      dup1\n        /* \"upgradeSolidityRemix/mvp-sol/solidity/nft_proxy.sol\":4104:4117  owners.owners */\n      0x40\n      add\n      mload\n        /* \"upgradeSolidityRemix/mvp-sol/solidity/nft_proxy.sol\":4118:4119  0 */\n      0x00\n        /* \"upgradeSolidityRemix/mvp-sol/solidity/nft_proxy.sol\":4104:4120  owners.owners[0] */\n      dup2\n      mload\n      dup2\n      lt\n      tag_164\n      jumpi\n      invalid\n    tag_164:\n      0x20\n      mul\n      0x20\n      add\n      add\n      mload\n        /* \"upgradeSolidityRemix/mvp-sol/solidity/nft_proxy.sol\":4096:4120  from == owners.owners[0] */\n      0xffffffffffffffffffffffffffffffffffffffff\n      and\n        /* \"upgradeSolidityRemix/mvp-sol/solidity/nft_proxy.sol\":4096:4100  from */\n      dup7\n        /* \"upgradeSolidityRemix/mvp-sol/solidity/nft_proxy.sol\":4096:4120  from == owners.owners[0] */\n      0xffffffffffffffffffffffffffffffffffffffff\n      and\n      eq\n        /* \"upgradeSolidityRemix/mvp-sol/solidity/nft_proxy.sol\":4088:4157  require(from == owners.owners[0], \"#NFTProxy#verify: OWNER_NO_MATCH\") */\n      tag_165\n      jumpi\n      mload(0x40)\n      0x08c379a000000000000000000000000000000000000000000000000000000000\n      dup2\n      mstore\n      0x04\n      add\n      tag_166\n      swap1\n      tag_167\n      jump\t// in\n    tag_166:\n      mload(0x40)\n      dup1\n      swap2\n      sub\n      swap1\n      revert\n    tag_165:\n        /* \"upgradeSolidityRemix/mvp-sol/solidity/nft_proxy.sol\":4187:4193  owners */\n      dup1\n        /* \"upgradeSolidityRemix/mvp-sol/solidity/nft_proxy.sol\":4187:4203  owners.signCount */\n      0x20\n      add\n      mload\n        /* \"upgradeSolidityRemix/mvp-sol/solidity/nft_proxy.sol\":4170:4176  signer */\n      dup6\n        /* \"upgradeSolidityRemix/mvp-sol/solidity/nft_proxy.sol\":4170:4183  signer.length */\n      mload\n        /* \"upgradeSolidityRemix/mvp-sol/solidity/nft_proxy.sol\":4170:4203  signer.length >= owners.signCount */\n      lt\n      iszero\n        /* \"upgradeSolidityRemix/mvp-sol/solidity/nft_proxy.sol\":4162:4247  require(signer.length >= owners.signCount, \"#NFTProxy#verify: SIGN_COUNT_TOO_LITTLE\") */\n      tag_168\n      jumpi\n      mload(0x40)\n      0x08c379a000000000000000000000000000000000000000000000000000000000\n      dup2\n      mstore\n      0x04\n      add\n      tag_169\n      swap1\n      tag_170\n      jump\t// in\n    tag_169:\n      mload(0x40)\n      dup1\n      swap2\n      sub\n      swap1\n      revert\n    tag_168:\n        /* \"upgradeSolidityRemix/mvp-sol/solidity/nft_proxy.sol\":4277:4281  rsv_ */\n      dup4\n        /* \"upgradeSolidityRemix/mvp-sol/solidity/nft_proxy.sol\":4277:4288  rsv_.length */\n      mload\n        /* \"upgradeSolidityRemix/mvp-sol/solidity/nft_proxy.sol\":4260:4266  signer */\n      dup6\n        /* \"upgradeSolidityRemix/mvp-sol/solidity/nft_proxy.sol\":4260:4273  signer.length */\n      mload\n        /* \"upgradeSolidityRemix/mvp-sol/solidity/nft_proxy.sol\":4260:4288  signer.length == rsv_.length */\n      eq\n        /* \"upgradeSolidityRemix/mvp-sol/solidity/nft_proxy.sol\":4252:4330  require(signer.length == rsv_.length, \"#NFTProxy#verify: BAD_RSV_LIST_LENGTH\") */\n      tag_171\n      jumpi\n      mload(0x40)\n      0x08c379a000000000000000000000000000000000000000000000000000000000\n      dup2\n      mstore\n      0x04\n      add\n      tag_172\n      swap1\n      tag_173\n      jump\t// in\n    tag_172:\n      mload(0x40)\n      dup1\n      swap2\n      sub\n      swap1\n      revert\n    tag_171:\n        /* \"upgradeSolidityRemix/mvp-sol/solidity/nft_proxy.sol\":4337:4359  address[] memory addrs */\n      0x60\n        /* \"upgradeSolidityRemix/mvp-sol/solidity/nft_proxy.sol\":4376:4382  owners */\n      dup2\n        /* \"upgradeSolidityRemix/mvp-sol/solidity/nft_proxy.sol\":4376:4392  owners.signCount */\n      0x20\n      add\n      mload\n        /* \"upgradeSolidityRemix/mvp-sol/solidity/nft_proxy.sol\":4362:4393  new address[](owners.signCount) */\n      0xffffffffffffffff\n      dup2\n      gt\n      dup1\n      iszero\n      tag_174\n      jumpi\n      0x00\n      dup1\n      revert\n    tag_174:\n      pop\n      mload(0x40)\n      swap1\n      dup1\n      dup3\n      mstore\n      dup1\n      0x20\n      mul\n      0x20\n      add\n      dup3\n      add\n      0x40\n      mstore\n      dup1\n      iszero\n      tag_175\n      jumpi\n      dup2\n      0x20\n      add\n      0x20\n      dup3\n      mul\n      dup1\n      calldatasize\n      dup4\n      calldatacopy\n      dup1\n      dup3\n      add\n      swap2\n      pop\n      pop\n      swap1\n      pop\n    tag_175:\n      pop\n        /* \"upgradeSolidityRemix/mvp-sol/solidity/nft_proxy.sol\":4337:4393  address[] memory addrs = new address[](owners.signCount) */\n      swap1\n      pop\n        /* \"upgradeSolidityRemix/mvp-sol/solidity/nft_proxy.sol\":4398:4415  uint256 signCount */\n      0x00\n        /* \"upgradeSolidityRemix/mvp-sol/solidity/nft_proxy.sol\":4431:4440  uint256 i */\n      dup1\n        /* \"upgradeSolidityRemix/mvp-sol/solidity/nft_proxy.sol\":4426:4912  for (uint256 i = 0; i < signer.length; i++) {\r... */\n    tag_176:\n        /* \"upgradeSolidityRemix/mvp-sol/solidity/nft_proxy.sol\":4450:4456  signer */\n      dup8\n        /* \"upgradeSolidityRemix/mvp-sol/solidity/nft_proxy.sol\":4450:4463  signer.length */\n      mload\n        /* \"upgradeSolidityRemix/mvp-sol/solidity/nft_proxy.sol\":4446:4447  i */\n      dup2\n        /* \"upgradeSolidityRemix/mvp-sol/solidity/nft_proxy.sol\":4446:4463  i < signer.length */\n      lt\n        /* \"upgradeSolidityRemix/mvp-sol/solidity/nft_proxy.sol\":4426:4912  for (uint256 i = 0; i < signer.length; i++) {\r... */\n      iszero\n      tag_177\n      jumpi\n        /* \"upgradeSolidityRemix/mvp-sol/solidity/nft_proxy.sol\":4476:4488  address addr */\n      0x00\n        /* \"upgradeSolidityRemix/mvp-sol/solidity/nft_proxy.sol\":4491:4497  signer */\n      dup9\n        /* \"upgradeSolidityRemix/mvp-sol/solidity/nft_proxy.sol\":4498:4499  i */\n      dup3\n        /* \"upgradeSolidityRemix/mvp-sol/solidity/nft_proxy.sol\":4491:4500  signer[i] */\n      dup2\n      mload\n      dup2\n      lt\n      tag_179\n      jumpi\n      invalid\n    tag_179:\n      0x20\n      mul\n      0x20\n      add\n      add\n      mload\n        /* \"upgradeSolidityRemix/mvp-sol/solidity/nft_proxy.sol\":4476:4500  address addr = signer[i] */\n      swap1\n      pop\n        /* \"upgradeSolidityRemix/mvp-sol/solidity/nft_proxy.sol\":4534:4536  -1 */\n      0xffffffffffffffffffffffffffffffffffffffffffffffffffffffffffffffff\n        /* \"upgradeSolidityRemix/mvp-sol/solidity/nft_proxy.sol\":4510:4530  indexOf(addrs, addr) */\n      tag_180\n        /* \"upgradeSolidityRemix/mvp-sol/solidity/nft_proxy.sol\":4518:4523  addrs */\n      dup6\n        /* \"upgradeSolidityRemix/mvp-sol/solidity/nft_proxy.sol\":4525:4529  addr */\n      dup4\n        /* \"upgradeSolidityRemix/mvp-sol/solidity/nft_proxy.sol\":4510:4517  indexOf */\n      tag_181\n        /* \"upgradeSolidityRemix/mvp-sol/solidity/nft_proxy.sol\":4510:4530  indexOf(addrs, addr) */\n      jump\t// in\n    tag_180:\n        /* \"upgradeSolidityRemix/mvp-sol/solidity/nft_proxy.sol\":4510:4536  indexOf(addrs, addr) == -1 */\n      eq\n        /* \"upgradeSolidityRemix/mvp-sol/solidity/nft_proxy.sol\":4510:4574  indexOf(addrs, addr) == -1 && indexOf(owners.owners, addr) != -1 */\n      dup1\n      iszero\n      tag_182\n      jumpi\n      pop\n        /* \"upgradeSolidityRemix/mvp-sol/solidity/nft_proxy.sol\":4572:4574  -1 */\n      0xffffffffffffffffffffffffffffffffffffffffffffffffffffffffffffffff\n        /* \"upgradeSolidityRemix/mvp-sol/solidity/nft_proxy.sol\":4540:4568  indexOf(owners.owners, addr) */\n      tag_183\n        /* \"upgradeSolidityRemix/mvp-sol/solidity/nft_proxy.sol\":4548:4554  owners */\n      dup7\n        /* \"upgradeSolidityRemix/mvp-sol/solidity/nft_proxy.sol\":4548:4561  owners.owners */\n      0x40\n      add\n      mload\n        /* \"upgradeSolidityRemix/mvp-sol/solidity/nft_proxy.sol\":4563:4567  addr */\n      dup4\n        /* \"upgradeSolidityRemix/mvp-sol/solidity/nft_proxy.sol\":4540:4547  indexOf */\n      tag_181\n        /* \"upgradeSolidityRemix/mvp-sol/solidity/nft_proxy.sol\":4540:4568  indexOf(owners.owners, addr) */\n      jump\t// in\n    tag_183:\n        /* \"upgradeSolidityRemix/mvp-sol/solidity/nft_proxy.sol\":4540:4574  indexOf(owners.owners, addr) != -1 */\n      eq\n      iszero\n        /* \"upgradeSolidityRemix/mvp-sol/solidity/nft_proxy.sol\":4510:4574  indexOf(addrs, addr) == -1 && indexOf(owners.owners, addr) != -1 */\n    tag_182:\n        /* \"upgradeSolidityRemix/mvp-sol/solidity/nft_proxy.sol\":4506:4907  if (indexOf(addrs, addr) == -1 && indexOf(owners.owners, addr) != -1) { // Exclude duplicates\r... */\n      iszero\n      tag_184\n      jumpi\n        /* \"upgradeSolidityRemix/mvp-sol/solidity/nft_proxy.sol\":4605:4625  Signature memory rsv */\n      tag_185\n      tag_186\n      jump\t// in\n    tag_185:\n        /* \"upgradeSolidityRemix/mvp-sol/solidity/nft_proxy.sol\":4628:4632  rsv_ */\n      dup9\n        /* \"upgradeSolidityRemix/mvp-sol/solidity/nft_proxy.sol\":4633:4634  i */\n      dup4\n        /* \"upgradeSolidityRemix/mvp-sol/solidity/nft_proxy.sol\":4628:4635  rsv_[i] */\n      dup2\n      mload\n      dup2\n      lt\n      tag_187\n      jumpi\n      invalid\n    tag_187:\n      0x20\n      mul\n      0x20\n      add\n      add\n      mload\n        /* \"upgradeSolidityRemix/mvp-sol/solidity/nft_proxy.sol\":4605:4635  Signature memory rsv = rsv_[i] */\n      swap1\n      pop\n        /* \"upgradeSolidityRemix/mvp-sol/solidity/nft_proxy.sol\":4642:4653  address rec */\n      0x00\n        /* \"upgradeSolidityRemix/mvp-sol/solidity/nft_proxy.sol\":4656:4692  ecrecover(hash, rsv.v, rsv.r, rsv.s) */\n      0x01\n        /* \"upgradeSolidityRemix/mvp-sol/solidity/nft_proxy.sol\":4666:4670  hash */\n      dup9\n        /* \"upgradeSolidityRemix/mvp-sol/solidity/nft_proxy.sol\":4672:4675  rsv */\n      dup4\n        /* \"upgradeSolidityRemix/mvp-sol/solidity/nft_proxy.sol\":4672:4677  rsv.v */\n      0x40\n      add\n      mload\n        /* \"upgradeSolidityRemix/mvp-sol/solidity/nft_proxy.sol\":4679:4682  rsv */\n      dup5\n        /* \"upgradeSolidityRemix/mvp-sol/solidity/nft_proxy.sol\":4679:4684  rsv.r */\n      0x00\n      add\n      mload\n        /* \"upgradeSolidityRemix/mvp-sol/solidity/nft_proxy.sol\":4686:4689  rsv */\n      dup6\n        /* \"upgradeSolidityRemix/mvp-sol/solidity/nft_proxy.sol\":4686:4691  rsv.s */\n      0x20\n      add\n      mload\n        /* \"upgradeSolidityRemix/mvp-sol/solidity/nft_proxy.sol\":4656:4692  ecrecover(hash, rsv.v, rsv.r, rsv.s) */\n      mload(0x40)\n      0x00\n      dup2\n      mstore\n      0x20\n      add\n      0x40\n      mstore\n      mload(0x40)\n      tag_188\n      swap5\n      swap4\n      swap3\n      swap2\n      swap1\n      tag_189\n      jump\t// in\n    tag_188:\n      0x20\n      mload(0x40)\n      0x20\n      dup2\n      sub\n      swap1\n      dup1\n      dup5\n      sub\n      swap1\n      dup6\n      gas\n      staticcall\n      iszero\n      dup1\n      iszero\n      tag_191\n      jumpi\n      returndatasize\n      0x00\n      dup1\n      returndatacopy\n      revert(0x00, returndatasize)\n    tag_191:\n      pop\n      pop\n      pop\n      mload(sub(mload(0x40), 0x20))\n        /* \"upgradeSolidityRemix/mvp-sol/solidity/nft_proxy.sol\":4642:4692  address rec = ecrecover(hash, rsv.v, rsv.r, rsv.s) */\n      swap1\n      pop\n        /* \"upgradeSolidityRemix/mvp-sol/solidity/nft_proxy.sol\":4781:4785  addr */\n      dup3\n        /* \"upgradeSolidityRemix/mvp-sol/solidity/nft_proxy.sol\":4774:4785  rec == addr */\n      0xffffffffffffffffffffffffffffffffffffffff\n      and\n        /* \"upgradeSolidityRemix/mvp-sol/solidity/nft_proxy.sol\":4774:4777  rec */\n      dup2\n        /* \"upgradeSolidityRemix/mvp-sol/solidity/nft_proxy.sol\":4774:4785  rec == addr */\n      0xffffffffffffffffffffffffffffffffffffffff\n      and\n      eq\n        /* \"upgradeSolidityRemix/mvp-sol/solidity/nft_proxy.sol\":4770:4901  if (rec == addr) {\r... */\n      iszero\n      tag_192\n      jumpi\n        /* \"upgradeSolidityRemix/mvp-sol/solidity/nft_proxy.sol\":4814:4818  addr */\n      dup3\n        /* \"upgradeSolidityRemix/mvp-sol/solidity/nft_proxy.sol\":4795:4800  addrs */\n      dup7\n        /* \"upgradeSolidityRemix/mvp-sol/solidity/nft_proxy.sol\":4801:4810  signCount */\n      dup7\n        /* \"upgradeSolidityRemix/mvp-sol/solidity/nft_proxy.sol\":4795:4811  addrs[signCount] */\n      dup2\n      mload\n      dup2\n      lt\n      tag_193\n      jumpi\n      invalid\n    tag_193:\n      0x20\n      mul\n      0x20\n      add\n      add\n        /* \"upgradeSolidityRemix/mvp-sol/solidity/nft_proxy.sol\":4795:4818  addrs[signCount] = addr */\n      swap1\n      0xffffffffffffffffffffffffffffffffffffffff\n      and\n      swap1\n      dup2\n      0xffffffffffffffffffffffffffffffffffffffff\n      and\n      dup2\n      mstore\n      pop\n      pop\n        /* \"upgradeSolidityRemix/mvp-sol/solidity/nft_proxy.sol\":4826:4837  signCount++ */\n      dup5\n      dup1\n      0x01\n      add\n      swap6\n      pop\n      pop\n        /* \"upgradeSolidityRemix/mvp-sol/solidity/nft_proxy.sol\":4862:4868  owners */\n      dup7\n        /* \"upgradeSolidityRemix/mvp-sol/solidity/nft_proxy.sol\":4862:4878  owners.signCount */\n      0x20\n      add\n      mload\n        /* \"upgradeSolidityRemix/mvp-sol/solidity/nft_proxy.sol\":4849:4858  signCount */\n      dup6\n        /* \"upgradeSolidityRemix/mvp-sol/solidity/nft_proxy.sol\":4849:4878  signCount == owners.signCount */\n      eq\n        /* \"upgradeSolidityRemix/mvp-sol/solidity/nft_proxy.sol\":4845:4894  if (signCount == owners.signCount)\r... */\n      iszero\n      tag_194\n      jumpi\n        /* \"upgradeSolidityRemix/mvp-sol/solidity/nft_proxy.sol\":4887:4894  return; */\n      pop\n      pop\n      pop\n      pop\n      pop\n      pop\n      pop\n      pop\n      pop\n      pop\n      pop\n      pop\n      pop\n      pop\n      jump(tag_154)\n        /* \"upgradeSolidityRemix/mvp-sol/solidity/nft_proxy.sol\":4845:4894  if (signCount == owners.signCount)\r... */\n    tag_194:\n        /* \"upgradeSolidityRemix/mvp-sol/solidity/nft_proxy.sol\":4770:4901  if (rec == addr) {\r... */\n    tag_192:\n        /* \"upgradeSolidityRemix/mvp-sol/solidity/nft_proxy.sol\":4506:4907  if (indexOf(addrs, addr) == -1 && indexOf(owners.owners, addr) != -1) { // Exclude duplicates\r... */\n      pop\n      pop\n    tag_184:\n        /* \"upgradeSolidityRemix/mvp-sol/solidity/nft_proxy.sol\":4426:4912  for (uint256 i = 0; i < signer.length; i++) {\r... */\n      pop\n        /* \"upgradeSolidityRemix/mvp-sol/solidity/nft_proxy.sol\":4465:4468  i++ */\n      dup1\n      dup1\n      0x01\n      add\n      swap2\n      pop\n      pop\n        /* \"upgradeSolidityRemix/mvp-sol/solidity/nft_proxy.sol\":4426:4912  for (uint256 i = 0; i < signer.length; i++) {\r... */\n      jump(tag_176)\n    tag_177:\n      pop\n        /* \"upgradeSolidityRemix/mvp-sol/solidity/nft_proxy.sol\":4939:4945  owners */\n      dup3\n        /* \"upgradeSolidityRemix/mvp-sol/solidity/nft_proxy.sol\":4939:4955  owners.signCount */\n      0x20\n      add\n      mload\n        /* \"upgradeSolidityRemix/mvp-sol/solidity/nft_proxy.sol\":4926:4935  signCount */\n      dup2\n        /* \"upgradeSolidityRemix/mvp-sol/solidity/nft_proxy.sol\":4926:4955  signCount == owners.signCount */\n      eq\n        /* \"upgradeSolidityRemix/mvp-sol/solidity/nft_proxy.sol\":4918:4997  require(signCount == owners.signCount, \"#NFTProxy#verification: BAD_SIGNATURE\") */\n      tag_195\n      jumpi\n      mload(0x40)\n      0x08c379a000000000000000000000000000000000000000000000000000000000\n      dup2\n      mstore\n      0x04\n      add\n      tag_196\n      swap1\n      tag_197\n      jump\t// in\n    tag_196:\n      mload(0x40)\n      dup1\n      swap2\n      sub\n      swap1\n      revert\n    tag_195:\n        /* \"upgradeSolidityRemix/mvp-sol/solidity/nft_proxy.sol\":3325:5002  function verify(TransferTx memory tx) view public {\r... */\n      pop\n      pop\n      pop\n      pop\n      pop\n      pop\n      pop\n      pop\n      pop\n      pop\n    tag_154:\n      pop\n      jump\t// out\n        /* \"upgradeSolidityRemix/mvp-sol/solidity/base.sol\":4027:4250  function transferOwnership(address newOwner) public virtual onlyOwner {\r... */\n    tag_73:\n        /* \"upgradeSolidityRemix/mvp-sol/solidity/base.sol\":3228:3240  _msgSender() */\n      tag_199\n        /* \"upgradeSolidityRemix/mvp-sol/solidity/base.sol\":3228:3238  _msgSender */\n      tag_83\n        /* \"upgradeSolidityRemix/mvp-sol/solidity/base.sol\":3228:3240  _msgSender() */\n      jump\t// in\n    tag_199:\n        /* \"upgradeSolidityRemix/mvp-sol/solidity/base.sol\":3218:3240  _owner == _msgSender() */\n      0xffffffffffffffffffffffffffffffffffffffff\n      and\n        /* \"upgradeSolidityRemix/mvp-sol/solidity/base.sol\":3218:3224  _owner */\n      0x00\n      dup1\n      sload\n      swap1\n      0x0100\n      exp\n      swap1\n      div\n      0xffffffffffffffffffffffffffffffffffffffff\n      and\n        /* \"upgradeSolidityRemix/mvp-sol/solidity/base.sol\":3218:3240  _owner == _msgSender() */\n      0xffffffffffffffffffffffffffffffffffffffff\n      and\n      eq\n        /* \"upgradeSolidityRemix/mvp-sol/solidity/base.sol\":3210:3277  require(_owner == _msgSender(), \"Ownable: caller is not the owner\") */\n      tag_200\n      jumpi\n      mload(0x40)\n      0x08c379a000000000000000000000000000000000000000000000000000000000\n      dup2\n      mstore\n      0x04\n      add\n      tag_201\n      swap1\n      tag_147\n      jump\t// in\n    tag_201:\n      mload(0x40)\n      dup1\n      swap2\n      sub\n      swap1\n      revert\n    tag_200:\n        /* \"upgradeSolidityRemix/mvp-sol/solidity/base.sol\":4130:4131  0 */\n      0x00\n        /* \"upgradeSolidityRemix/mvp-sol/solidity/base.sol\":4110:4132  newOwner != address(0) */\n      0xffffffffffffffffffffffffffffffffffffffff\n      and\n        /* \"upgradeSolidityRemix/mvp-sol/solidity/base.sol\":4110:4118  newOwner */\n      dup2\n        /* \"upgradeSolidityRemix/mvp-sol/solidity/base.sol\":4110:4132  newOwner != address(0) */\n      0xffffffffffffffffffffffffffffffffffffffff\n      and\n      eq\n      iszero\n        /* \"upgradeSolidityRemix/mvp-sol/solidity/base.sol\":4102:4175  require(newOwner != address(0), \"Ownable: new owner is the zero address\") */\n      tag_203\n      jumpi\n      mload(0x40)\n      0x08c379a000000000000000000000000000000000000000000000000000000000\n      dup2\n      mstore\n      0x04\n      add\n      tag_204\n      swap1\n      tag_205\n      jump\t// in\n    tag_204:\n      mload(0x40)\n      dup1\n      swap2\n      sub\n      swap1\n      revert\n    tag_203:\n        /* \"upgradeSolidityRemix/mvp-sol/solidity/base.sol\":4214:4222  newOwner */\n      dup1\n        /* \"upgradeSolidityRemix/mvp-sol/solidity/base.sol\":4185:4223  OwnershipTransferred(_owner, newOwner) */\n      0xffffffffffffffffffffffffffffffffffffffff\n      and\n        /* \"upgradeSolidityRemix/mvp-sol/solidity/base.sol\":4206:4212  _owner */\n      0x00\n      dup1\n      sload\n      swap1\n      0x0100\n      exp\n      swap1\n      div\n      0xffffffffffffffffffffffffffffffffffffffff\n      and\n        /* \"upgradeSolidityRemix/mvp-sol/solidity/base.sol\":4185:4223  OwnershipTransferred(_owner, newOwner) */\n      0xffffffffffffffffffffffffffffffffffffffff\n      and\n      0x8be0079c531659141344cd1fd0a4f28419497f9722a3daafe3b4186f6b6457e0\n      mload(0x40)\n      mload(0x40)\n      dup1\n      swap2\n      sub\n      swap1\n      log3\n        /* \"upgradeSolidityRemix/mvp-sol/solidity/base.sol\":4237:4245  newOwner */\n      dup1\n        /* \"upgradeSolidityRemix/mvp-sol/solidity/base.sol\":4228:4234  _owner */\n      0x00\n      dup1\n        /* \"upgradeSolidityRemix/mvp-sol/solidity/base.sol\":4228:4245  _owner = newOwner */\n      0x0100\n      exp\n      dup2\n      sload\n      dup2\n      0xffffffffffffffffffffffffffffffffffffffff\n      mul\n      not\n      and\n      swap1\n      dup4\n      0xffffffffffffffffffffffffffffffffffffffff\n      and\n      mul\n      or\n      swap1\n      sstore\n      pop\n        /* \"upgradeSolidityRemix/mvp-sol/solidity/base.sol\":4027:4250  function transferOwnership(address newOwner) public virtual onlyOwner {\r... */\n      pop\n      jump\t// out\n        /* \"upgradeSolidityRemix/mvp-sol/solidity/base.sol\":4255:4352  function _msgSender() internal view virtual returns (address payable) {\r... */\n    tag_83:\n        /* \"upgradeSolidityRemix/mvp-sol/solidity/base.sol\":4308:4323  address payable */\n      0x00\n        /* \"upgradeSolidityRemix/mvp-sol/solidity/base.sol\":4337:4347  msg.sender */\n      caller\n        /* \"upgradeSolidityRemix/mvp-sol/solidity/base.sol\":4330:4347  return msg.sender */\n      swap1\n      pop\n        /* \"upgradeSolidityRemix/mvp-sol/solidity/base.sol\":4255:4352  function _msgSender() internal view virtual returns (address payable) {\r... */\n      swap1\n      jump\t// out\n        /* \"upgradeSolidityRemix/mvp-sol/solidity/erc721_proxy.sol\":1965:2347  function _withdraw(\r... */\n    tag_89:\n        /* \"upgradeSolidityRemix/mvp-sol/solidity/erc721_proxy.sol\":2126:2127  1 */\n      0x01\n        /* \"upgradeSolidityRemix/mvp-sol/solidity/erc721_proxy.sol\":2116:2122  amount */\n      dup3\n        /* \"upgradeSolidityRemix/mvp-sol/solidity/erc721_proxy.sol\":2116:2127  amount == 1 */\n      eq\n        /* \"upgradeSolidityRemix/mvp-sol/solidity/erc721_proxy.sol\":2108:2172  require(amount == 1, \"#ERC721Proxy#_withdraw: AMOUNT_ONLY_BE_1\") */\n      tag_208\n      jumpi\n      mload(0x40)\n      0x08c379a000000000000000000000000000000000000000000000000000000000\n      dup2\n      mstore\n      0x04\n      add\n      tag_209\n      swap1\n      tag_210\n      jump\t// in\n    tag_209:\n      mload(0x40)\n      dup1\n      swap2\n      sub\n      swap1\n      revert\n    tag_208:\n        /* \"upgradeSolidityRemix/mvp-sol/solidity/erc721_proxy.sol\":2186:2193  _assets */\n      0x02\n        /* \"upgradeSolidityRemix/mvp-sol/solidity/erc721_proxy.sol\":2186:2200  _assets[token] */\n      0x00\n        /* \"upgradeSolidityRemix/mvp-sol/solidity/erc721_proxy.sol\":2194:2199  token */\n      dup6\n        /* \"upgradeSolidityRemix/mvp-sol/solidity/erc721_proxy.sol\":2186:2200  _assets[token] */\n      0xffffffffffffffffffffffffffffffffffffffff\n      and\n      0xffffffffffffffffffffffffffffffffffffffff\n      and\n      dup2\n      mstore\n      0x20\n      add\n      swap1\n      dup2\n      mstore\n      0x20\n      add\n      0x00\n      keccak256\n        /* \"upgradeSolidityRemix/mvp-sol/solidity/erc721_proxy.sol\":2186:2209  _assets[token][tokenId] */\n      0x00\n        /* \"upgradeSolidityRemix/mvp-sol/solidity/erc721_proxy.sol\":2201:2208  tokenId */\n      dup5\n        /* \"upgradeSolidityRemix/mvp-sol/solidity/erc721_proxy.sol\":2186:2209  _assets[token][tokenId] */\n      dup2\n      mstore\n      0x20\n      add\n      swap1\n      dup2\n      mstore\n      0x20\n      add\n      0x00\n      keccak256\n      0x00\n        /* \"upgradeSolidityRemix/mvp-sol/solidity/erc721_proxy.sol\":2179:2209  delete _assets[token][tokenId] */\n      dup1\n      dup3\n      add\n      0x00\n      swap1\n      sstore\n      0x01\n      dup3\n      add\n      0x00\n      swap1\n      sstore\n      0x02\n      dup3\n      add\n      0x00\n      tag_211\n      swap2\n      swap1\n      tag_212\n      jump\t// in\n    tag_211:\n      pop\n      pop\n        /* \"upgradeSolidityRemix/mvp-sol/solidity/erc721_proxy.sol\":2224:2229  token */\n      dup4\n        /* \"upgradeSolidityRemix/mvp-sol/solidity/erc721_proxy.sol\":2216:2247  IERC721(token).safeTransferFrom */\n      0xffffffffffffffffffffffffffffffffffffffff\n      and\n      0xb88d4fde\n        /* \"upgradeSolidityRemix/mvp-sol/solidity/erc721_proxy.sol\":2256:2260  this */\n      address\n        /* \"upgradeSolidityRemix/mvp-sol/solidity/erc721_proxy.sol\":2263:2265  to */\n      dup8\n        /* \"upgradeSolidityRemix/mvp-sol/solidity/erc721_proxy.sol\":2267:2274  tokenId */\n      dup7\n        /* \"upgradeSolidityRemix/mvp-sol/solidity/erc721_proxy.sol\":2276:2281  _data */\n      dup6\n        /* \"upgradeSolidityRemix/mvp-sol/solidity/erc721_proxy.sol\":2216:2282  IERC721(token).safeTransferFrom(address(this), to, tokenId, _data) */\n      mload(0x40)\n      dup6\n      0xffffffff\n      and\n      0xe0\n      shl\n      dup2\n      mstore\n      0x04\n      add\n      tag_213\n      swap5\n      swap4\n      swap3\n      swap2\n      swap1\n      tag_214\n      jump\t// in\n    tag_213:\n      0x00\n      mload(0x40)\n      dup1\n      dup4\n      sub\n      dup2\n      0x00\n      dup8\n      dup1\n      extcodesize\n      iszero\n      dup1\n      iszero\n      tag_215\n      jumpi\n      0x00\n      dup1\n      revert\n    tag_215:\n      pop\n      gas\n      call\n      iszero\n      dup1\n      iszero\n      tag_217\n      jumpi\n      returndatasize\n      0x00\n      dup1\n      returndatacopy\n      revert(0x00, returndatasize)\n    tag_217:\n      pop\n      pop\n      pop\n      pop\n        /* \"upgradeSolidityRemix/mvp-sol/solidity/erc721_proxy.sol\":2328:2335  tokenId */\n      dup3\n        /* \"upgradeSolidityRemix/mvp-sol/solidity/erc721_proxy.sol\":2317:2318  0 */\n      0x00\n        /* \"upgradeSolidityRemix/mvp-sol/solidity/erc721_proxy.sol\":2294:2342  Transfer(from, address(0), token, tokenId, 0, 1) */\n      0xffffffffffffffffffffffffffffffffffffffff\n      and\n        /* \"upgradeSolidityRemix/mvp-sol/solidity/erc721_proxy.sol\":2303:2307  from */\n      dup8\n        /* \"upgradeSolidityRemix/mvp-sol/solidity/erc721_proxy.sol\":2294:2342  Transfer(from, address(0), token, tokenId, 0, 1) */\n      0xffffffffffffffffffffffffffffffffffffffff\n      and\n      0x737ab30b9cd3ddae02069f3057591007faf2305652d04c2582f7f1f6185d9711\n        /* \"upgradeSolidityRemix/mvp-sol/solidity/erc721_proxy.sol\":2321:2326  token */\n      dup8\n        /* \"upgradeSolidityRemix/mvp-sol/solidity/erc721_proxy.sol\":2337:2338  0 */\n      0x00\n        /* \"upgradeSolidityRemix/mvp-sol/solidity/erc721_proxy.sol\":2340:2341  1 */\n      0x01\n        /* \"upgradeSolidityRemix/mvp-sol/solidity/erc721_proxy.sol\":2294:2342  Transfer(from, address(0), token, tokenId, 0, 1) */\n      mload(0x40)\n      tag_218\n      swap4\n      swap3\n      swap2\n      swap1\n      tag_115\n      jump\t// in\n    tag_218:\n      mload(0x40)\n      dup1\n      swap2\n      sub\n      swap1\n      log4\n        /* \"upgradeSolidityRemix/mvp-sol/solidity/erc721_proxy.sol\":1965:2347  function _withdraw(\r... */\n      pop\n      pop\n      pop\n      pop\n      pop\n      pop\n      jump\t// out\n        /* \"upgradeSolidityRemix/mvp-sol/solidity/erc721_proxy.sol\":843:1171  function _isERC721(address addr) internal view returns (IERC721) {\r... */\n    tag_93:\n        /* \"upgradeSolidityRemix/mvp-sol/solidity/erc721_proxy.sol\":899:906  IERC721 */\n      0x00\n        /* \"upgradeSolidityRemix/mvp-sol/solidity/erc721_proxy.sol\":926:943  addr.isContract() */\n      tag_220\n        /* \"upgradeSolidityRemix/mvp-sol/solidity/erc721_proxy.sol\":926:930  addr */\n      dup3\n        /* \"upgradeSolidityRemix/mvp-sol/solidity/erc721_proxy.sol\":926:941  addr.isContract */\n      0xffffffffffffffffffffffffffffffffffffffff\n      and\n      tag_221\n        /* \"upgradeSolidityRemix/mvp-sol/solidity/erc721_proxy.sol\":926:943  addr.isContract() */\n      jump\t// in\n    tag_220:\n        /* \"upgradeSolidityRemix/mvp-sol/solidity/erc721_proxy.sol\":913:1004  require(\r... */\n      tag_222\n      jumpi\n      mload(0x40)\n      0x08c379a000000000000000000000000000000000000000000000000000000000\n      dup2\n      mstore\n      0x04\n      add\n      tag_223\n      swap1\n      tag_224\n      jump\t// in\n    tag_223:\n      mload(0x40)\n      dup1\n      swap2\n      sub\n      swap1\n      revert\n    tag_222:\n        /* \"upgradeSolidityRemix/mvp-sol/solidity/erc721_proxy.sol\":1030:1034  addr */\n      dup2\n        /* \"upgradeSolidityRemix/mvp-sol/solidity/erc721_proxy.sol\":1022:1053  IERC721(addr).supportsInterface */\n      0xffffffffffffffffffffffffffffffffffffffff\n      and\n      0x01ffc9a7\n        /* \"upgradeSolidityRemix/mvp-sol/solidity/erc721_proxy.sol\":662:672  0x80ac58cd */\n      0x80ac58cd\n        /* \"upgradeSolidityRemix/mvp-sol/solidity/erc721_proxy.sol\":1054:1074  _INTERFACE_ID_ERC721 */\n      0xe0\n      shl\n        /* \"upgradeSolidityRemix/mvp-sol/solidity/erc721_proxy.sol\":1022:1075  IERC721(addr).supportsInterface(_INTERFACE_ID_ERC721) */\n      mload(0x40)\n      dup3\n      0xffffffff\n      and\n      0xe0\n      shl\n      dup2\n      mstore\n      0x04\n      add\n      tag_225\n      swap2\n      swap1\n      tag_39\n      jump\t// in\n    tag_225:\n      0x20\n      mload(0x40)\n      dup1\n      dup4\n      sub\n      dup2\n      dup7\n      dup1\n      extcodesize\n      iszero\n      dup1\n      iszero\n      tag_226\n      jumpi\n      0x00\n      dup1\n      revert\n    tag_226:\n      pop\n      gas\n      staticcall\n      iszero\n      dup1\n      iszero\n      tag_228\n      jumpi\n      returndatasize\n      0x00\n      dup1\n      returndatacopy\n      revert(0x00, returndatasize)\n    tag_228:\n      pop\n      pop\n      pop\n      pop\n      mload(0x40)\n      returndatasize\n      not(0x1f)\n      0x1f\n      dup3\n      add\n      and\n      dup3\n      add\n      dup1\n      0x40\n      mstore\n      pop\n      dup2\n      add\n      swap1\n      tag_229\n      swap2\n      swap1\n      tag_230\n      jump\t// in\n    tag_229:\n        /* \"upgradeSolidityRemix/mvp-sol/solidity/erc721_proxy.sol\":1009:1141  require(\r... */\n      tag_231\n      jumpi\n      mload(0x40)\n      0x08c379a000000000000000000000000000000000000000000000000000000000\n      dup2\n      mstore\n      0x04\n      add\n      tag_232\n      swap1\n      tag_233\n      jump\t// in\n    tag_232:\n      mload(0x40)\n      dup1\n      swap2\n      sub\n      swap1\n      revert\n    tag_231:\n        /* \"upgradeSolidityRemix/mvp-sol/solidity/erc721_proxy.sol\":1161:1165  addr */\n      dup2\n        /* \"upgradeSolidityRemix/mvp-sol/solidity/erc721_proxy.sol\":1146:1166  return IERC721(addr) */\n      swap1\n      pop\n        /* \"upgradeSolidityRemix/mvp-sol/solidity/erc721_proxy.sol\":843:1171  function _isERC721(address addr) internal view returns (IERC721) {\r... */\n      swap2\n      swap1\n      pop\n      jump\t// out\n        /* \"upgradeSolidityRemix/mvp-sol/solidity/nft_proxy.sol\":2193:2388  function checkEmptyAddress(address[] memory addrs) internal pure returns(address) {\r... */\n    tag_106:\n        /* \"upgradeSolidityRemix/mvp-sol/solidity/nft_proxy.sol\":2266:2273  address */\n      0x00\n        /* \"upgradeSolidityRemix/mvp-sol/solidity/nft_proxy.sol\":2304:2305  0 */\n      dup1\n        /* \"upgradeSolidityRemix/mvp-sol/solidity/nft_proxy.sol\":2288:2293  addrs */\n      dup3\n        /* \"upgradeSolidityRemix/mvp-sol/solidity/nft_proxy.sol\":2288:2300  addrs.length */\n      mload\n        /* \"upgradeSolidityRemix/mvp-sol/solidity/nft_proxy.sol\":2288:2305  addrs.length != 0 */\n      eq\n      iszero\n        /* \"upgradeSolidityRemix/mvp-sol/solidity/nft_proxy.sol\":2280:2363  require(addrs.length != 0, \"#NFTProxy#checkAddressEmpty: ADDRESS_LIST_LENGTH_ZERO\") */\n      tag_235\n      jumpi\n      mload(0x40)\n      0x08c379a000000000000000000000000000000000000000000000000000000000\n      dup2\n      mstore\n      0x04\n      add\n      tag_236\n      swap1\n      tag_237\n      jump\t// in\n    tag_236:\n      mload(0x40)\n      dup1\n      swap2\n      sub\n      swap1\n      revert\n    tag_235:\n        /* \"upgradeSolidityRemix/mvp-sol/solidity/nft_proxy.sol\":2375:2380  addrs */\n      dup2\n        /* \"upgradeSolidityRemix/mvp-sol/solidity/nft_proxy.sol\":2381:2382  0 */\n      0x00\n        /* \"upgradeSolidityRemix/mvp-sol/solidity/nft_proxy.sol\":2375:2383  addrs[0] */\n      dup2\n      mload\n      dup2\n      lt\n      tag_238\n      jumpi\n      invalid\n    tag_238:\n      0x20\n      mul\n      0x20\n      add\n      add\n      mload\n        /* \"upgradeSolidityRemix/mvp-sol/solidity/nft_proxy.sol\":2368:2383  return addrs[0] */\n      swap1\n      pop\n        /* \"upgradeSolidityRemix/mvp-sol/solidity/nft_proxy.sol\":2193:2388  function checkEmptyAddress(address[] memory addrs) internal pure returns(address) {\r... */\n      swap2\n      swap1\n      pop\n      jump\t// out\n        /* \"upgradeSolidityRemix/mvp-sol/solidity/nft_proxy.sol\":2393:2872  function checkOwners(address token, uint256 tokenId, address[] memory owners, uint256 signCount) view internal returns (Owners memory) {\r... */\n    tag_120:\n        /* \"upgradeSolidityRemix/mvp-sol/solidity/nft_proxy.sol\":2513:2526  Owners memory */\n      tag_239\n      tag_80\n      jump\t// in\n    tag_239:\n        /* \"upgradeSolidityRemix/mvp-sol/solidity/nft_proxy.sol\":2533:2546  address owner */\n      0x00\n        /* \"upgradeSolidityRemix/mvp-sol/solidity/nft_proxy.sol\":2549:2574  checkEmptyAddress(owners) */\n      tag_241\n        /* \"upgradeSolidityRemix/mvp-sol/solidity/nft_proxy.sol\":2567:2573  owners */\n      dup5\n        /* \"upgradeSolidityRemix/mvp-sol/solidity/nft_proxy.sol\":2549:2566  checkEmptyAddress */\n      tag_106\n        /* \"upgradeSolidityRemix/mvp-sol/solidity/nft_proxy.sol\":2549:2574  checkEmptyAddress(owners) */\n      jump\t// in\n    tag_241:\n        /* \"upgradeSolidityRemix/mvp-sol/solidity/nft_proxy.sol\":2533:2574  address owner = checkEmptyAddress(owners) */\n      swap1\n      pop\n        /* \"upgradeSolidityRemix/mvp-sol/solidity/nft_proxy.sol\":2579:2600  Owners memory owners_ */\n      tag_242\n      tag_80\n      jump\t// in\n    tag_242:\n        /* \"upgradeSolidityRemix/mvp-sol/solidity/nft_proxy.sol\":2603:2634  ownersOf(token, tokenId, owner) */\n      tag_243\n        /* \"upgradeSolidityRemix/mvp-sol/solidity/nft_proxy.sol\":2612:2617  token */\n      dup8\n        /* \"upgradeSolidityRemix/mvp-sol/solidity/nft_proxy.sol\":2619:2626  tokenId */\n      dup8\n        /* \"upgradeSolidityRemix/mvp-sol/solidity/nft_proxy.sol\":2628:2633  owner */\n      dup5\n        /* \"upgradeSolidityRemix/mvp-sol/solidity/nft_proxy.sol\":2603:2611  ownersOf */\n      tag_60\n        /* \"upgradeSolidityRemix/mvp-sol/solidity/nft_proxy.sol\":2603:2634  ownersOf(token, tokenId, owner) */\n      jump\t// in\n    tag_243:\n        /* \"upgradeSolidityRemix/mvp-sol/solidity/nft_proxy.sol\":2579:2634  Owners memory owners_ = ownersOf(token, tokenId, owner) */\n      swap1\n      pop\n        /* \"upgradeSolidityRemix/mvp-sol/solidity/nft_proxy.sol\":2668:2669  0 */\n      0x00\n        /* \"upgradeSolidityRemix/mvp-sol/solidity/nft_proxy.sol\":2643:2650  owners_ */\n      dup2\n        /* \"upgradeSolidityRemix/mvp-sol/solidity/nft_proxy.sol\":2643:2657  owners_.owners */\n      0x40\n      add\n      mload\n        /* \"upgradeSolidityRemix/mvp-sol/solidity/nft_proxy.sol\":2643:2664  owners_.owners.length */\n      mload\n        /* \"upgradeSolidityRemix/mvp-sol/solidity/nft_proxy.sol\":2643:2669  owners_.owners.length == 0 */\n      eq\n        /* \"upgradeSolidityRemix/mvp-sol/solidity/nft_proxy.sol\":2639:2849  if (owners_.owners.length == 0) {\r... */\n      iszero\n      tag_244\n      jumpi\n        /* \"upgradeSolidityRemix/mvp-sol/solidity/nft_proxy.sol\":2698:2704  owners */\n      dup5\n        /* \"upgradeSolidityRemix/mvp-sol/solidity/nft_proxy.sol\":2698:2711  owners.length */\n      mload\n        /* \"upgradeSolidityRemix/mvp-sol/solidity/nft_proxy.sol\":2685:2694  signCount */\n      dup5\n        /* \"upgradeSolidityRemix/mvp-sol/solidity/nft_proxy.sol\":2685:2711  signCount <= owners.length */\n      gt\n      iszero\n        /* \"upgradeSolidityRemix/mvp-sol/solidity/nft_proxy.sol\":2677:2753  require(signCount <= owners.length, \"#NFTProxy#checkOwners: BAD_SIGN_COUNT\") */\n      tag_245\n      jumpi\n      mload(0x40)\n      0x08c379a000000000000000000000000000000000000000000000000000000000\n      dup2\n      mstore\n      0x04\n      add\n      tag_246\n      swap1\n      tag_247\n      jump\t// in\n    tag_246:\n      mload(0x40)\n      dup1\n      swap2\n      sub\n      swap1\n      revert\n    tag_245:\n        /* \"upgradeSolidityRemix/mvp-sol/solidity/nft_proxy.sol\":2778:2779  1 */\n      0x01\n        /* \"upgradeSolidityRemix/mvp-sol/solidity/nft_proxy.sol\":2759:2766  owners_ */\n      dup2\n        /* \"upgradeSolidityRemix/mvp-sol/solidity/nft_proxy.sol\":2759:2775  owners_.balances */\n      0x00\n      add\n        /* \"upgradeSolidityRemix/mvp-sol/solidity/nft_proxy.sol\":2759:2779  owners_.balances = 1 */\n      dup2\n      dup2\n      mstore\n      pop\n      pop\n        /* \"upgradeSolidityRemix/mvp-sol/solidity/nft_proxy.sol\":2802:2808  owners */\n      dup5\n        /* \"upgradeSolidityRemix/mvp-sol/solidity/nft_proxy.sol\":2785:2792  owners_ */\n      dup2\n        /* \"upgradeSolidityRemix/mvp-sol/solidity/nft_proxy.sol\":2785:2799  owners_.owners */\n      0x40\n      add\n        /* \"upgradeSolidityRemix/mvp-sol/solidity/nft_proxy.sol\":2785:2808  owners_.owners = owners */\n      dup2\n      swap1\n      mstore\n      pop\n        /* \"upgradeSolidityRemix/mvp-sol/solidity/nft_proxy.sol\":2834:2843  signCount */\n      dup4\n        /* \"upgradeSolidityRemix/mvp-sol/solidity/nft_proxy.sol\":2814:2821  owners_ */\n      dup2\n        /* \"upgradeSolidityRemix/mvp-sol/solidity/nft_proxy.sol\":2814:2831  owners_.signCount */\n      0x20\n      add\n        /* \"upgradeSolidityRemix/mvp-sol/solidity/nft_proxy.sol\":2814:2843  owners_.signCount = signCount */\n      dup2\n      dup2\n      mstore\n      pop\n      pop\n        /* \"upgradeSolidityRemix/mvp-sol/solidity/nft_proxy.sol\":2639:2849  if (owners_.owners.length == 0) {\r... */\n    tag_244:\n        /* \"upgradeSolidityRemix/mvp-sol/solidity/nft_proxy.sol\":2860:2867  owners_ */\n      dup1\n        /* \"upgradeSolidityRemix/mvp-sol/solidity/nft_proxy.sol\":2853:2867  return owners_ */\n      swap3\n      pop\n      pop\n      pop\n        /* \"upgradeSolidityRemix/mvp-sol/solidity/nft_proxy.sol\":2393:2872  function checkOwners(address token, uint256 tokenId, address[] memory owners, uint256 signCount) view internal returns (Owners memory) {\r... */\n      swap5\n      swap4\n      pop\n      pop\n      pop\n      pop\n      jump\t// out\n        /* \"upgradeSolidityRemix/mvp-sol/solidity/erc721_proxy.sol\":2352:2658  function _transfer(address from, Owners memory toOwners, address token, uint256 tokenId, uint256 amount) internal override {\r... */\n    tag_122:\n        /* \"upgradeSolidityRemix/mvp-sol/solidity/erc721_proxy.sol\":2498:2499  1 */\n      0x01\n        /* \"upgradeSolidityRemix/mvp-sol/solidity/erc721_proxy.sol\":2488:2494  amount */\n      dup2\n        /* \"upgradeSolidityRemix/mvp-sol/solidity/erc721_proxy.sol\":2488:2499  amount == 1 */\n      eq\n        /* \"upgradeSolidityRemix/mvp-sol/solidity/erc721_proxy.sol\":2480:2544  require(amount == 1, \"#ERC721Proxy#_transfer: AMOUNT_ONLY_BE_1\") */\n      tag_249\n      jumpi\n      mload(0x40)\n      0x08c379a000000000000000000000000000000000000000000000000000000000\n      dup2\n      mstore\n      0x04\n      add\n      tag_250\n      swap1\n      tag_251\n      jump\t// in\n    tag_250:\n      mload(0x40)\n      dup1\n      swap2\n      sub\n      swap1\n      revert\n    tag_249:\n        /* \"upgradeSolidityRemix/mvp-sol/solidity/erc721_proxy.sol\":2577:2585  toOwners */\n      dup4\n        /* \"upgradeSolidityRemix/mvp-sol/solidity/erc721_proxy.sol\":2551:2558  _assets */\n      0x02\n        /* \"upgradeSolidityRemix/mvp-sol/solidity/erc721_proxy.sol\":2551:2565  _assets[token] */\n      0x00\n        /* \"upgradeSolidityRemix/mvp-sol/solidity/erc721_proxy.sol\":2559:2564  token */\n      dup6\n        /* \"upgradeSolidityRemix/mvp-sol/solidity/erc721_proxy.sol\":2551:2565  _assets[token] */\n      0xffffffffffffffffffffffffffffffffffffffff\n      and\n      0xffffffffffffffffffffffffffffffffffffffff\n      and\n      dup2\n      mstore\n      0x20\n      add\n      swap1\n      dup2\n      mstore\n      0x20\n      add\n      0x00\n      keccak256\n        /* \"upgradeSolidityRemix/mvp-sol/solidity/erc721_proxy.sol\":2551:2574  _assets[token][tokenId] */\n      0x00\n        /* \"upgradeSolidityRemix/mvp-sol/solidity/erc721_proxy.sol\":2566:2573  tokenId */\n      dup5\n        /* \"upgradeSolidityRemix/mvp-sol/solidity/erc721_proxy.sol\":2551:2574  _assets[token][tokenId] */\n      dup2\n      mstore\n      0x20\n      add\n      swap1\n      dup2\n      mstore\n      0x20\n      add\n      0x00\n      keccak256\n        /* \"upgradeSolidityRemix/mvp-sol/solidity/erc721_proxy.sol\":2551:2585  _assets[token][tokenId] = toOwners */\n      0x00\n      dup3\n      add\n      mload\n      dup2\n      0x00\n      add\n      sstore\n      0x20\n      dup3\n      add\n      mload\n      dup2\n      0x01\n      add\n      sstore\n      0x40\n      dup3\n      add\n      mload\n      dup2\n      0x02\n      add\n      swap1\n      dup1\n      mload\n      swap1\n      0x20\n      add\n      swap1\n      tag_252\n      swap3\n      swap2\n      swap1\n      tag_112\n      jump\t// in\n    tag_252:\n      pop\n      swap1\n      pop\n      pop\n        /* \"upgradeSolidityRemix/mvp-sol/solidity/erc721_proxy.sol\":2639:2646  tokenId */\n      dup2\n        /* \"upgradeSolidityRemix/mvp-sol/solidity/erc721_proxy.sol\":2612:2620  toOwners */\n      dup5\n        /* \"upgradeSolidityRemix/mvp-sol/solidity/erc721_proxy.sol\":2612:2627  toOwners.owners */\n      0x40\n      add\n      mload\n        /* \"upgradeSolidityRemix/mvp-sol/solidity/erc721_proxy.sol\":2628:2629  0 */\n      0x00\n        /* \"upgradeSolidityRemix/mvp-sol/solidity/erc721_proxy.sol\":2612:2630  toOwners.owners[0] */\n      dup2\n      mload\n      dup2\n      lt\n      tag_253\n      jumpi\n      invalid\n    tag_253:\n      0x20\n      mul\n      0x20\n      add\n      add\n      mload\n        /* \"upgradeSolidityRemix/mvp-sol/solidity/erc721_proxy.sol\":2597:2653  Transfer(from, toOwners.owners[0], token, tokenId, 0, 1) */\n      0xffffffffffffffffffffffffffffffffffffffff\n      and\n        /* \"upgradeSolidityRemix/mvp-sol/solidity/erc721_proxy.sol\":2606:2610  from */\n      dup7\n        /* \"upgradeSolidityRemix/mvp-sol/solidity/erc721_proxy.sol\":2597:2653  Transfer(from, toOwners.owners[0], token, tokenId, 0, 1) */\n      0xffffffffffffffffffffffffffffffffffffffff\n      and\n      0x737ab30b9cd3ddae02069f3057591007faf2305652d04c2582f7f1f6185d9711\n        /* \"upgradeSolidityRemix/mvp-sol/solidity/erc721_proxy.sol\":2632:2637  token */\n      dup7\n        /* \"upgradeSolidityRemix/mvp-sol/solidity/erc721_proxy.sol\":2648:2649  0 */\n      0x00\n        /* \"upgradeSolidityRemix/mvp-sol/solidity/erc721_proxy.sol\":2651:2652  1 */\n      0x01\n        /* \"upgradeSolidityRemix/mvp-sol/solidity/erc721_proxy.sol\":2597:2653  Transfer(from, toOwners.owners[0], token, tokenId, 0, 1) */\n      mload(0x40)\n      tag_254\n      swap4\n      swap3\n      swap2\n      swap1\n      tag_115\n      jump\t// in\n    tag_254:\n      mload(0x40)\n      dup1\n      swap2\n      sub\n      swap1\n      log4\n        /* \"upgradeSolidityRemix/mvp-sol/solidity/erc721_proxy.sol\":2352:2658  function _transfer(address from, Owners memory toOwners, address token, uint256 tokenId, uint256 amount) internal override {\r... */\n      pop\n      pop\n      pop\n      pop\n      pop\n      jump\t// out\n        /* \"upgradeSolidityRemix/mvp-sol/solidity/nft_proxy.sol\":2877:3091  function indexOf(address[] memory addrs, address addr) internal pure returns(int256) {\r... */\n    tag_181:\n        /* \"upgradeSolidityRemix/mvp-sol/solidity/nft_proxy.sol\":2954:2960  int256 */\n      0x00\n        /* \"upgradeSolidityRemix/mvp-sol/solidity/nft_proxy.sol\":2972:2981  uint256 i */\n      dup1\n        /* \"upgradeSolidityRemix/mvp-sol/solidity/nft_proxy.sol\":2984:2985  0 */\n      0x00\n        /* \"upgradeSolidityRemix/mvp-sol/solidity/nft_proxy.sol\":2972:2985  uint256 i = 0 */\n      swap1\n      pop\n        /* \"upgradeSolidityRemix/mvp-sol/solidity/nft_proxy.sol\":2967:3073  for (uint256 i = 0; i < addrs.length; i++) {\r... */\n    tag_256:\n        /* \"upgradeSolidityRemix/mvp-sol/solidity/nft_proxy.sol\":2991:2996  addrs */\n      dup4\n        /* \"upgradeSolidityRemix/mvp-sol/solidity/nft_proxy.sol\":2991:3003  addrs.length */\n      mload\n        /* \"upgradeSolidityRemix/mvp-sol/solidity/nft_proxy.sol\":2987:2988  i */\n      dup2\n        /* \"upgradeSolidityRemix/mvp-sol/solidity/nft_proxy.sol\":2987:3003  i < addrs.length */\n      lt\n        /* \"upgradeSolidityRemix/mvp-sol/solidity/nft_proxy.sol\":2967:3073  for (uint256 i = 0; i < addrs.length; i++) {\r... */\n      iszero\n      tag_257\n      jumpi\n        /* \"upgradeSolidityRemix/mvp-sol/solidity/nft_proxy.sol\":3032:3036  addr */\n      dup3\n        /* \"upgradeSolidityRemix/mvp-sol/solidity/nft_proxy.sol\":3020:3036  addrs[i] == addr */\n      0xffffffffffffffffffffffffffffffffffffffff\n      and\n        /* \"upgradeSolidityRemix/mvp-sol/solidity/nft_proxy.sol\":3020:3025  addrs */\n      dup5\n        /* \"upgradeSolidityRemix/mvp-sol/solidity/nft_proxy.sol\":3026:3027  i */\n      dup3\n        /* \"upgradeSolidityRemix/mvp-sol/solidity/nft_proxy.sol\":3020:3028  addrs[i] */\n      dup2\n      mload\n      dup2\n      lt\n      tag_259\n      jumpi\n      invalid\n    tag_259:\n      0x20\n      mul\n      0x20\n      add\n      add\n      mload\n        /* \"upgradeSolidityRemix/mvp-sol/solidity/nft_proxy.sol\":3020:3036  addrs[i] == addr */\n      0xffffffffffffffffffffffffffffffffffffffff\n      and\n      eq\n        /* \"upgradeSolidityRemix/mvp-sol/solidity/nft_proxy.sol\":3016:3068  if (addrs[i] == addr) {\r... */\n      iszero\n      tag_260\n      jumpi\n        /* \"upgradeSolidityRemix/mvp-sol/solidity/nft_proxy.sol\":3059:3060  i */\n      dup1\n        /* \"upgradeSolidityRemix/mvp-sol/solidity/nft_proxy.sol\":3045:3061  return int256(i) */\n      swap2\n      pop\n      pop\n      jump(tag_255)\n        /* \"upgradeSolidityRemix/mvp-sol/solidity/nft_proxy.sol\":3016:3068  if (addrs[i] == addr) {\r... */\n    tag_260:\n        /* \"upgradeSolidityRemix/mvp-sol/solidity/nft_proxy.sol\":3005:3008  i++ */\n      dup1\n      dup1\n      0x01\n      add\n      swap2\n      pop\n      pop\n        /* \"upgradeSolidityRemix/mvp-sol/solidity/nft_proxy.sol\":2967:3073  for (uint256 i = 0; i < addrs.length; i++) {\r... */\n      jump(tag_256)\n    tag_257:\n      pop\n        /* \"upgradeSolidityRemix/mvp-sol/solidity/nft_proxy.sol\":3084:3086  -1 */\n      0xffffffffffffffffffffffffffffffffffffffffffffffffffffffffffffffff\n        /* \"upgradeSolidityRemix/mvp-sol/solidity/nft_proxy.sol\":3077:3086  return -1 */\n      swap1\n      pop\n        /* \"upgradeSolidityRemix/mvp-sol/solidity/nft_proxy.sol\":2877:3091  function indexOf(address[] memory addrs, address addr) internal pure returns(int256) {\r... */\n    tag_255:\n      swap3\n      swap2\n      pop\n      pop\n      jump\t// out\n        /* \"@openzeppelin/contracts-ethereum-package/contracts/utils/Address.sol\":685:1295  function isContract(address account) internal view returns (bool) {... */\n    tag_221:\n        /* \"@openzeppelin/contracts-ethereum-package/contracts/utils/Address.sol\":745:749  bool */\n      0x00\n        /* \"@openzeppelin/contracts-ethereum-package/contracts/utils/Address.sol\":1003:1019  bytes32 codehash */\n      dup1\n        /* \"@openzeppelin/contracts-ethereum-package/contracts/utils/Address.sol\":1029:1048  bytes32 accountHash */\n      0x00\n        /* \"@openzeppelin/contracts-ethereum-package/contracts/utils/Address.sol\":1051:1117  0xc5d2460186f7233c927e7db2dcc703c0e500b653ca82273b7bfad8045d85a470 */\n      0xc5d2460186f7233c927e7db2dcc703c0e500b653ca82273b7bfad8045d85a470\n        /* \"@openzeppelin/contracts-ethereum-package/contracts/utils/Address.sol\":1029:1117  bytes32 accountHash = 0xc5d2460186f7233c927e7db2dcc703c0e500b653ca82273b7bfad8045d85a470 */\n      0x00\n      shl\n      swap1\n      pop\n        /* \"@openzeppelin/contracts-ethereum-package/contracts/utils/Address.sol\":1218:1225  account */\n      dup4\n        /* \"@openzeppelin/contracts-ethereum-package/contracts/utils/Address.sol\":1206:1226  extcodehash(account) */\n      extcodehash\n        /* \"@openzeppelin/contracts-ethereum-package/contracts/utils/Address.sol\":1194:1226  codehash := extcodehash(account) */\n      swap2\n      pop\n        /* \"@openzeppelin/contracts-ethereum-package/contracts/utils/Address.sol\":1257:1268  accountHash */\n      dup1\n        /* \"@openzeppelin/contracts-ethereum-package/contracts/utils/Address.sol\":1245:1253  codehash */\n      dup3\n        /* \"@openzeppelin/contracts-ethereum-package/contracts/utils/Address.sol\":1245:1268  codehash != accountHash */\n      eq\n      iszero\n        /* \"@openzeppelin/contracts-ethereum-package/contracts/utils/Address.sol\":1245:1287  codehash != accountHash && codehash != 0x0 */\n      dup1\n      iszero\n      tag_262\n      jumpi\n      pop\n        /* \"@openzeppelin/contracts-ethereum-package/contracts/utils/Address.sol\":1284:1287  0x0 */\n      0x00\n        /* \"@openzeppelin/contracts-ethereum-package/contracts/utils/Address.sol\":1272:1287  codehash != 0x0 */\n      dup1\n      shl\n        /* \"@openzeppelin/contracts-ethereum-package/contracts/utils/Address.sol\":1272:1280  codehash */\n      dup3\n        /* \"@openzeppelin/contracts-ethereum-package/contracts/utils/Address.sol\":1272:1287  codehash != 0x0 */\n      eq\n      iszero\n        /* \"@openzeppelin/contracts-ethereum-package/contracts/utils/Address.sol\":1245:1287  codehash != accountHash && codehash != 0x0 */\n    tag_262:\n        /* \"@openzeppelin/contracts-ethereum-package/contracts/utils/Address.sol\":1237:1288  return (codehash != accountHash && codehash != 0x0) */\n      swap3\n      pop\n      pop\n      pop\n        /* \"@openzeppelin/contracts-ethereum-package/contracts/utils/Address.sol\":685:1295  function isContract(address account) internal view returns (bool) {... */\n      swap2\n      swap1\n      pop\n      jump\t// out\n    tag_80:\n      mload(0x40)\n      dup1\n      0x60\n      add\n      0x40\n      mstore\n      dup1\n      0x00\n      dup2\n      mstore\n      0x20\n      add\n      0x00\n      dup2\n      mstore\n      0x20\n      add\n      0x60\n      dup2\n      mstore\n      pop\n      swap1\n      jump\t// out\n    tag_112:\n      dup3\n      dup1\n      sload\n      dup3\n      dup3\n      sstore\n      swap1\n      0x00\n      mstore\n      keccak256(0x00, 0x20)\n      swap1\n      dup2\n      add\n      swap3\n      dup3\n      iszero\n      tag_263\n      jumpi\n      swap2\n      0x20\n      mul\n      dup3\n      add\n    tag_264:\n      dup3\n      dup2\n      gt\n      iszero\n      tag_265\n      jumpi\n      dup3\n      mload\n      dup3\n      exp(0x0100, 0x00)\n      dup2\n      sload\n      dup2\n      0xffffffffffffffffffffffffffffffffffffffff\n      mul\n      not\n      and\n      swap1\n      dup4\n      0xffffffffffffffffffffffffffffffffffffffff\n      and\n      mul\n      or\n      swap1\n      sstore\n      pop\n      swap2\n      0x20\n      add\n      swap2\n      swap1\n      0x01\n      add\n      swap1\n      jump(tag_264)\n    tag_265:\n    tag_263:\n      pop\n      swap1\n      pop\n      tag_266\n      swap2\n      swap1\n      tag_267\n      jump\t// in\n    tag_266:\n      pop\n      swap1\n      jump\t// out\n    tag_186:\n      mload(0x40)\n      dup1\n      0x60\n      add\n      0x40\n      mstore\n      dup1\n      0x00\n      dup1\n      not\n      and\n      dup2\n      mstore\n      0x20\n      add\n      0x00\n      dup1\n      not\n      and\n      dup2\n      mstore\n      0x20\n      add\n      and(0xff, 0x00)\n      dup2\n      mstore\n      pop\n      swap1\n      jump\t// out\n    tag_212:\n      pop\n      dup1\n      sload\n      0x00\n      dup3\n      sstore\n      swap1\n      0x00\n      mstore\n      keccak256(0x00, 0x20)\n      swap1\n      dup2\n      add\n      swap1\n      tag_269\n      swap2\n      swap1\n      tag_270\n      jump\t// in\n    tag_269:\n      pop\n      jump\t// out\n    tag_267:\n    tag_271:\n      dup1\n      dup3\n      gt\n      iszero\n      tag_272\n      jumpi\n      0x00\n      dup2\n      dup2\n      0x0100\n      exp\n      dup2\n      sload\n      swap1\n      0xffffffffffffffffffffffffffffffffffffffff\n      mul\n      not\n      and\n      swap1\n      sstore\n      pop\n      0x01\n      add\n      jump(tag_271)\n    tag_272:\n      pop\n      swap1\n      jump\t// out\n    tag_270:\n    tag_273:\n      dup1\n      dup3\n      gt\n      iszero\n      tag_274\n      jumpi\n      0x00\n      dup2\n      0x00\n      swap1\n      sstore\n      pop\n      0x01\n      add\n      jump(tag_273)\n    tag_274:\n      pop\n      swap1\n      jump\t// out\n        /* \"--CODEGEN--\":5:135   */\n    tag_276:\n      0x00\n        /* \"--CODEGEN--\":85:91   */\n      dup2\n        /* \"--CODEGEN--\":72:92   */\n      calldataload\n        /* \"--CODEGEN--\":63:92   */\n      swap1\n      pop\n        /* \"--CODEGEN--\":97:130   */\n      tag_278\n        /* \"--CODEGEN--\":124:129   */\n      dup2\n        /* \"--CODEGEN--\":97:130   */\n      tag_279\n      jump\t// in\n    tag_278:\n        /* \"--CODEGEN--\":57:135   */\n      swap3\n      swap2\n      pop\n      pop\n      jump\t// out\n        /* \"--CODEGEN--\":142:276   */\n    tag_280:\n      0x00\n        /* \"--CODEGEN--\":226:232   */\n      dup2\n        /* \"--CODEGEN--\":220:233   */\n      mload\n        /* \"--CODEGEN--\":211:233   */\n      swap1\n      pop\n        /* \"--CODEGEN--\":238:271   */\n      tag_282\n        /* \"--CODEGEN--\":265:270   */\n      dup2\n        /* \"--CODEGEN--\":238:271   */\n      tag_279\n      jump\t// in\n    tag_282:\n        /* \"--CODEGEN--\":205:276   */\n      swap3\n      swap2\n      pop\n      pop\n      jump\t// out\n        /* \"--CODEGEN--\":301:1008   */\n    tag_283:\n      0x00\n        /* \"--CODEGEN--\":418:421   */\n      dup3\n        /* \"--CODEGEN--\":411:415   */\n      0x1f\n        /* \"--CODEGEN--\":403:409   */\n      dup4\n        /* \"--CODEGEN--\":399:416   */\n      add\n        /* \"--CODEGEN--\":395:422   */\n      slt\n        /* \"--CODEGEN--\":385:387   */\n      tag_285\n      jumpi\n        /* \"--CODEGEN--\":436:437   */\n      0x00\n        /* \"--CODEGEN--\":433:434   */\n      dup1\n        /* \"--CODEGEN--\":426:438   */\n      revert\n        /* \"--CODEGEN--\":385:387   */\n    tag_285:\n        /* \"--CODEGEN--\":473:479   */\n      dup2\n        /* \"--CODEGEN--\":460:480   */\n      calldataload\n        /* \"--CODEGEN--\":495:575   */\n      tag_286\n        /* \"--CODEGEN--\":510:574   */\n      tag_287\n        /* \"--CODEGEN--\":567:573   */\n      dup3\n        /* \"--CODEGEN--\":510:574   */\n      tag_288\n      jump\t// in\n    tag_287:\n        /* \"--CODEGEN--\":495:575   */\n      tag_289\n      jump\t// in\n    tag_286:\n        /* \"--CODEGEN--\":486:575   */\n      swap2\n      pop\n        /* \"--CODEGEN--\":592:597   */\n      dup2\n        /* \"--CODEGEN--\":617:623   */\n      dup2\n        /* \"--CODEGEN--\":610:615   */\n      dup4\n        /* \"--CODEGEN--\":603:624   */\n      mstore\n        /* \"--CODEGEN--\":647:651   */\n      0x20\n        /* \"--CODEGEN--\":639:645   */\n      dup5\n        /* \"--CODEGEN--\":635:652   */\n      add\n        /* \"--CODEGEN--\":625:652   */\n      swap4\n      pop\n        /* \"--CODEGEN--\":669:673   */\n      0x20\n        /* \"--CODEGEN--\":664:667   */\n      dup2\n        /* \"--CODEGEN--\":660:674   */\n      add\n        /* \"--CODEGEN--\":653:674   */\n      swap1\n      pop\n        /* \"--CODEGEN--\":722:728   */\n      dup4\n        /* \"--CODEGEN--\":769:772   */\n      dup6\n        /* \"--CODEGEN--\":761:765   */\n      0x20\n        /* \"--CODEGEN--\":753:759   */\n      dup5\n        /* \"--CODEGEN--\":749:766   */\n      mul\n        /* \"--CODEGEN--\":744:747   */\n      dup3\n        /* \"--CODEGEN--\":740:767   */\n      add\n        /* \"--CODEGEN--\":737:773   */\n      gt\n        /* \"--CODEGEN--\":734:736   */\n      iszero\n      tag_290\n      jumpi\n        /* \"--CODEGEN--\":786:787   */\n      0x00\n        /* \"--CODEGEN--\":783:784   */\n      dup1\n        /* \"--CODEGEN--\":776:788   */\n      revert\n        /* \"--CODEGEN--\":734:736   */\n    tag_290:\n        /* \"--CODEGEN--\":811:812   */\n      0x00\n        /* \"--CODEGEN--\":796:1002   */\n    tag_291:\n        /* \"--CODEGEN--\":821:827   */\n      dup4\n        /* \"--CODEGEN--\":818:819   */\n      dup2\n        /* \"--CODEGEN--\":815:828   */\n      lt\n        /* \"--CODEGEN--\":796:1002   */\n      iszero\n      tag_293\n      jumpi\n        /* \"--CODEGEN--\":879:882   */\n      dup2\n        /* \"--CODEGEN--\":901:938   */\n      tag_294\n        /* \"--CODEGEN--\":934:937   */\n      dup9\n        /* \"--CODEGEN--\":922:932   */\n      dup3\n        /* \"--CODEGEN--\":901:938   */\n      tag_276\n      jump\t// in\n    tag_294:\n        /* \"--CODEGEN--\":896:899   */\n      dup5\n        /* \"--CODEGEN--\":889:939   */\n      mstore\n        /* \"--CODEGEN--\":962:966   */\n      0x20\n        /* \"--CODEGEN--\":957:960   */\n      dup5\n        /* \"--CODEGEN--\":953:967   */\n      add\n        /* \"--CODEGEN--\":946:967   */\n      swap4\n      pop\n        /* \"--CODEGEN--\":990:994   */\n      0x20\n        /* \"--CODEGEN--\":985:988   */\n      dup4\n        /* \"--CODEGEN--\":981:995   */\n      add\n        /* \"--CODEGEN--\":974:995   */\n      swap3\n      pop\n        /* \"--CODEGEN--\":853:1002   */\n      pop\n        /* \"--CODEGEN--\":843:844   */\n      0x01\n        /* \"--CODEGEN--\":840:841   */\n      dup2\n        /* \"--CODEGEN--\":836:845   */\n      add\n        /* \"--CODEGEN--\":831:845   */\n      swap1\n      pop\n        /* \"--CODEGEN--\":796:1002   */\n      jump(tag_291)\n    tag_293:\n        /* \"--CODEGEN--\":800:814   */\n      pop\n        /* \"--CODEGEN--\":378:1008   */\n      pop\n      pop\n      pop\n      swap3\n      swap2\n      pop\n      pop\n      jump\t// out\n        /* \"--CODEGEN--\":1034:1756   */\n    tag_295:\n      0x00\n        /* \"--CODEGEN--\":1162:1165   */\n      dup3\n        /* \"--CODEGEN--\":1155:1159   */\n      0x1f\n        /* \"--CODEGEN--\":1147:1153   */\n      dup4\n        /* \"--CODEGEN--\":1143:1160   */\n      add\n        /* \"--CODEGEN--\":1139:1166   */\n      slt\n        /* \"--CODEGEN--\":1129:1131   */\n      tag_297\n      jumpi\n        /* \"--CODEGEN--\":1180:1181   */\n      0x00\n        /* \"--CODEGEN--\":1177:1178   */\n      dup1\n        /* \"--CODEGEN--\":1170:1182   */\n      revert\n        /* \"--CODEGEN--\":1129:1131   */\n    tag_297:\n        /* \"--CODEGEN--\":1210:1216   */\n      dup2\n        /* \"--CODEGEN--\":1204:1217   */\n      mload\n        /* \"--CODEGEN--\":1232:1312   */\n      tag_298\n        /* \"--CODEGEN--\":1247:1311   */\n      tag_299\n        /* \"--CODEGEN--\":1304:1310   */\n      dup3\n        /* \"--CODEGEN--\":1247:1311   */\n      tag_288\n      jump\t// in\n    tag_299:\n        /* \"--CODEGEN--\":1232:1312   */\n      tag_289\n      jump\t// in\n    tag_298:\n        /* \"--CODEGEN--\":1223:1312   */\n      swap2\n      pop\n        /* \"--CODEGEN--\":1329:1334   */\n      dup2\n        /* \"--CODEGEN--\":1354:1360   */\n      dup2\n        /* \"--CODEGEN--\":1347:1352   */\n      dup4\n        /* \"--CODEGEN--\":1340:1361   */\n      mstore\n        /* \"--CODEGEN--\":1384:1388   */\n      0x20\n        /* \"--CODEGEN--\":1376:1382   */\n      dup5\n        /* \"--CODEGEN--\":1372:1389   */\n      add\n        /* \"--CODEGEN--\":1362:1389   */\n      swap4\n      pop\n        /* \"--CODEGEN--\":1406:1410   */\n      0x20\n        /* \"--CODEGEN--\":1401:1404   */\n      dup2\n        /* \"--CODEGEN--\":1397:1411   */\n      add\n        /* \"--CODEGEN--\":1390:1411   */\n      swap1\n      pop\n        /* \"--CODEGEN--\":1459:1465   */\n      dup4\n        /* \"--CODEGEN--\":1506:1509   */\n      dup6\n        /* \"--CODEGEN--\":1498:1502   */\n      0x20\n        /* \"--CODEGEN--\":1490:1496   */\n      dup5\n        /* \"--CODEGEN--\":1486:1503   */\n      mul\n        /* \"--CODEGEN--\":1481:1484   */\n      dup3\n        /* \"--CODEGEN--\":1477:1504   */\n      add\n        /* \"--CODEGEN--\":1474:1510   */\n      gt\n        /* \"--CODEGEN--\":1471:1473   */\n      iszero\n      tag_300\n      jumpi\n        /* \"--CODEGEN--\":1523:1524   */\n      0x00\n        /* \"--CODEGEN--\":1520:1521   */\n      dup1\n        /* \"--CODEGEN--\":1513:1525   */\n      revert\n        /* \"--CODEGEN--\":1471:1473   */\n    tag_300:\n        /* \"--CODEGEN--\":1548:1549   */\n      0x00\n        /* \"--CODEGEN--\":1533:1750   */\n    tag_301:\n        /* \"--CODEGEN--\":1558:1564   */\n      dup4\n        /* \"--CODEGEN--\":1555:1556   */\n      dup2\n        /* \"--CODEGEN--\":1552:1565   */\n      lt\n        /* \"--CODEGEN--\":1533:1750   */\n      iszero\n      tag_303\n      jumpi\n        /* \"--CODEGEN--\":1616:1619   */\n      dup2\n        /* \"--CODEGEN--\":1638:1686   */\n      tag_304\n        /* \"--CODEGEN--\":1682:1685   */\n      dup9\n        /* \"--CODEGEN--\":1670:1680   */\n      dup3\n        /* \"--CODEGEN--\":1638:1686   */\n      tag_280\n      jump\t// in\n    tag_304:\n        /* \"--CODEGEN--\":1633:1636   */\n      dup5\n        /* \"--CODEGEN--\":1626:1687   */\n      mstore\n        /* \"--CODEGEN--\":1710:1714   */\n      0x20\n        /* \"--CODEGEN--\":1705:1708   */\n      dup5\n        /* \"--CODEGEN--\":1701:1715   */\n      add\n        /* \"--CODEGEN--\":1694:1715   */\n      swap4\n      pop\n        /* \"--CODEGEN--\":1738:1742   */\n      0x20\n        /* \"--CODEGEN--\":1733:1736   */\n      dup4\n        /* \"--CODEGEN--\":1729:1743   */\n      add\n        /* \"--CODEGEN--\":1722:1743   */\n      swap3\n      pop\n        /* \"--CODEGEN--\":1590:1750   */\n      pop\n        /* \"--CODEGEN--\":1580:1581   */\n      0x01\n        /* \"--CODEGEN--\":1577:1578   */\n      dup2\n        /* \"--CODEGEN--\":1573:1582   */\n      add\n        /* \"--CODEGEN--\":1568:1582   */\n      swap1\n      pop\n        /* \"--CODEGEN--\":1533:1750   */\n      jump(tag_301)\n    tag_303:\n        /* \"--CODEGEN--\":1537:1551   */\n      pop\n        /* \"--CODEGEN--\":1122:1756   */\n      pop\n      pop\n      pop\n      swap3\n      swap2\n      pop\n      pop\n      jump\t// out\n        /* \"--CODEGEN--\":1800:2588   */\n    tag_305:\n      0x00\n        /* \"--CODEGEN--\":1944:1947   */\n      dup3\n        /* \"--CODEGEN--\":1937:1941   */\n      0x1f\n        /* \"--CODEGEN--\":1929:1935   */\n      dup4\n        /* \"--CODEGEN--\":1925:1942   */\n      add\n        /* \"--CODEGEN--\":1921:1948   */\n      slt\n        /* \"--CODEGEN--\":1911:1913   */\n      tag_307\n      jumpi\n        /* \"--CODEGEN--\":1962:1963   */\n      0x00\n        /* \"--CODEGEN--\":1959:1960   */\n      dup1\n        /* \"--CODEGEN--\":1952:1964   */\n      revert\n        /* \"--CODEGEN--\":1911:1913   */\n    tag_307:\n        /* \"--CODEGEN--\":1999:2005   */\n      dup2\n        /* \"--CODEGEN--\":1986:2006   */\n      calldataload\n        /* \"--CODEGEN--\":2021:2128   */\n      tag_308\n        /* \"--CODEGEN--\":2036:2127   */\n      tag_309\n        /* \"--CODEGEN--\":2120:2126   */\n      dup3\n        /* \"--CODEGEN--\":2036:2127   */\n      tag_310\n      jump\t// in\n    tag_309:\n        /* \"--CODEGEN--\":2021:2128   */\n      tag_289\n      jump\t// in\n    tag_308:\n        /* \"--CODEGEN--\":2012:2128   */\n      swap2\n      pop\n        /* \"--CODEGEN--\":2145:2150   */\n      dup2\n        /* \"--CODEGEN--\":2170:2176   */\n      dup2\n        /* \"--CODEGEN--\":2163:2168   */\n      dup4\n        /* \"--CODEGEN--\":2156:2177   */\n      mstore\n        /* \"--CODEGEN--\":2200:2204   */\n      0x20\n        /* \"--CODEGEN--\":2192:2198   */\n      dup5\n        /* \"--CODEGEN--\":2188:2205   */\n      add\n        /* \"--CODEGEN--\":2178:2205   */\n      swap4\n      pop\n        /* \"--CODEGEN--\":2222:2226   */\n      0x20\n        /* \"--CODEGEN--\":2217:2220   */\n      dup2\n        /* \"--CODEGEN--\":2213:2227   */\n      add\n        /* \"--CODEGEN--\":2206:2227   */\n      swap1\n      pop\n        /* \"--CODEGEN--\":2275:2281   */\n      dup4\n        /* \"--CODEGEN--\":2322:2325   */\n      dup6\n        /* \"--CODEGEN--\":2314:2318   */\n      0x60\n        /* \"--CODEGEN--\":2306:2312   */\n      dup5\n        /* \"--CODEGEN--\":2302:2319   */\n      mul\n        /* \"--CODEGEN--\":2297:2300   */\n      dup3\n        /* \"--CODEGEN--\":2293:2320   */\n      add\n        /* \"--CODEGEN--\":2290:2326   */\n      gt\n        /* \"--CODEGEN--\":2287:2289   */\n      iszero\n      tag_311\n      jumpi\n        /* \"--CODEGEN--\":2339:2340   */\n      0x00\n        /* \"--CODEGEN--\":2336:2337   */\n      dup1\n        /* \"--CODEGEN--\":2329:2341   */\n      revert\n        /* \"--CODEGEN--\":2287:2289   */\n    tag_311:\n        /* \"--CODEGEN--\":2364:2365   */\n      0x00\n        /* \"--CODEGEN--\":2349:2582   */\n    tag_312:\n        /* \"--CODEGEN--\":2374:2380   */\n      dup4\n        /* \"--CODEGEN--\":2371:2372   */\n      dup2\n        /* \"--CODEGEN--\":2368:2381   */\n      lt\n        /* \"--CODEGEN--\":2349:2582   */\n      iszero\n      tag_314\n      jumpi\n        /* \"--CODEGEN--\":2432:2435   */\n      dup2\n        /* \"--CODEGEN--\":2454:2518   */\n      tag_315\n        /* \"--CODEGEN--\":2514:2517   */\n      dup9\n        /* \"--CODEGEN--\":2502:2512   */\n      dup3\n        /* \"--CODEGEN--\":2454:2518   */\n      tag_316\n      jump\t// in\n    tag_315:\n        /* \"--CODEGEN--\":2449:2452   */\n      dup5\n        /* \"--CODEGEN--\":2442:2519   */\n      mstore\n        /* \"--CODEGEN--\":2542:2546   */\n      0x20\n        /* \"--CODEGEN--\":2537:2540   */\n      dup5\n        /* \"--CODEGEN--\":2533:2547   */\n      add\n        /* \"--CODEGEN--\":2526:2547   */\n      swap4\n      pop\n        /* \"--CODEGEN--\":2570:2574   */\n      0x60\n        /* \"--CODEGEN--\":2565:2568   */\n      dup4\n        /* \"--CODEGEN--\":2561:2575   */\n      add\n        /* \"--CODEGEN--\":2554:2575   */\n      swap3\n      pop\n        /* \"--CODEGEN--\":2406:2582   */\n      pop\n        /* \"--CODEGEN--\":2396:2397   */\n      0x01\n        /* \"--CODEGEN--\":2393:2394   */\n      dup2\n        /* \"--CODEGEN--\":2389:2398   */\n      add\n        /* \"--CODEGEN--\":2384:2398   */\n      swap1\n      pop\n        /* \"--CODEGEN--\":2349:2582   */\n      jump(tag_312)\n    tag_314:\n        /* \"--CODEGEN--\":2353:2367   */\n      pop\n        /* \"--CODEGEN--\":1904:2588   */\n      pop\n      pop\n      pop\n      swap3\n      swap2\n      pop\n      pop\n      jump\t// out\n        /* \"--CODEGEN--\":2596:2724   */\n    tag_317:\n      0x00\n        /* \"--CODEGEN--\":2677:2683   */\n      dup2\n        /* \"--CODEGEN--\":2671:2684   */\n      mload\n        /* \"--CODEGEN--\":2662:2684   */\n      swap1\n      pop\n        /* \"--CODEGEN--\":2689:2719   */\n      tag_319\n        /* \"--CODEGEN--\":2713:2718   */\n      dup2\n        /* \"--CODEGEN--\":2689:2719   */\n      tag_320\n      jump\t// in\n    tag_319:\n        /* \"--CODEGEN--\":2656:2724   */\n      swap3\n      swap2\n      pop\n      pop\n      jump\t// out\n        /* \"--CODEGEN--\":2731:2861   */\n    tag_321:\n      0x00\n        /* \"--CODEGEN--\":2811:2817   */\n      dup2\n        /* \"--CODEGEN--\":2798:2818   */\n      calldataload\n        /* \"--CODEGEN--\":2789:2818   */\n      swap1\n      pop\n        /* \"--CODEGEN--\":2823:2856   */\n      tag_323\n        /* \"--CODEGEN--\":2850:2855   */\n      dup2\n        /* \"--CODEGEN--\":2823:2856   */\n      tag_324\n      jump\t// in\n    tag_323:\n        /* \"--CODEGEN--\":2783:2861   */\n      swap3\n      swap2\n      pop\n      pop\n      jump\t// out\n        /* \"--CODEGEN--\":2868:2996   */\n    tag_325:\n      0x00\n        /* \"--CODEGEN--\":2947:2953   */\n      dup2\n        /* \"--CODEGEN--\":2934:2954   */\n      calldataload\n        /* \"--CODEGEN--\":2925:2954   */\n      swap1\n      pop\n        /* \"--CODEGEN--\":2959:2991   */\n      tag_327\n        /* \"--CODEGEN--\":2985:2990   */\n      dup2\n        /* \"--CODEGEN--\":2959:2991   */\n      tag_328\n      jump\t// in\n    tag_327:\n        /* \"--CODEGEN--\":2919:2996   */\n      swap3\n      swap2\n      pop\n      pop\n      jump\t// out\n        /* \"--CODEGEN--\":3004:3444   */\n    tag_329:\n      0x00\n        /* \"--CODEGEN--\":3105:3108   */\n      dup3\n        /* \"--CODEGEN--\":3098:3102   */\n      0x1f\n        /* \"--CODEGEN--\":3090:3096   */\n      dup4\n        /* \"--CODEGEN--\":3086:3103   */\n      add\n        /* \"--CODEGEN--\":3082:3109   */\n      slt\n        /* \"--CODEGEN--\":3072:3074   */\n      tag_331\n      jumpi\n        /* \"--CODEGEN--\":3123:3124   */\n      0x00\n        /* \"--CODEGEN--\":3120:3121   */\n      dup1\n        /* \"--CODEGEN--\":3113:3125   */\n      revert\n        /* \"--CODEGEN--\":3072:3074   */\n    tag_331:\n        /* \"--CODEGEN--\":3160:3166   */\n      dup2\n        /* \"--CODEGEN--\":3147:3167   */\n      calldataload\n        /* \"--CODEGEN--\":3182:3246   */\n      tag_332\n        /* \"--CODEGEN--\":3197:3245   */\n      tag_333\n        /* \"--CODEGEN--\":3238:3244   */\n      dup3\n        /* \"--CODEGEN--\":3197:3245   */\n      tag_334\n      jump\t// in\n    tag_333:\n        /* \"--CODEGEN--\":3182:3246   */\n      tag_289\n      jump\t// in\n    tag_332:\n        /* \"--CODEGEN--\":3173:3246   */\n      swap2\n      pop\n        /* \"--CODEGEN--\":3266:3272   */\n      dup1\n        /* \"--CODEGEN--\":3259:3264   */\n      dup3\n        /* \"--CODEGEN--\":3252:3273   */\n      mstore\n        /* \"--CODEGEN--\":3302:3306   */\n      0x20\n        /* \"--CODEGEN--\":3294:3300   */\n      dup4\n        /* \"--CODEGEN--\":3290:3307   */\n      add\n        /* \"--CODEGEN--\":3335:3339   */\n      0x20\n        /* \"--CODEGEN--\":3328:3333   */\n      dup4\n        /* \"--CODEGEN--\":3324:3340   */\n      add\n        /* \"--CODEGEN--\":3370:3373   */\n      dup6\n        /* \"--CODEGEN--\":3361:3367   */\n      dup4\n        /* \"--CODEGEN--\":3356:3359   */\n      dup4\n        /* \"--CODEGEN--\":3352:3368   */\n      add\n        /* \"--CODEGEN--\":3349:3374   */\n      gt\n        /* \"--CODEGEN--\":3346:3348   */\n      iszero\n      tag_335\n      jumpi\n        /* \"--CODEGEN--\":3387:3388   */\n      0x00\n        /* \"--CODEGEN--\":3384:3385   */\n      dup1\n        /* \"--CODEGEN--\":3377:3389   */\n      revert\n        /* \"--CODEGEN--\":3346:3348   */\n    tag_335:\n        /* \"--CODEGEN--\":3397:3438   */\n      tag_336\n        /* \"--CODEGEN--\":3431:3437   */\n      dup4\n        /* \"--CODEGEN--\":3426:3429   */\n      dup3\n        /* \"--CODEGEN--\":3421:3424   */\n      dup5\n        /* \"--CODEGEN--\":3397:3438   */\n      tag_337\n      jump\t// in\n    tag_336:\n        /* \"--CODEGEN--\":3065:3444   */\n      pop\n      pop\n      pop\n      swap3\n      swap2\n      pop\n      pop\n      jump\t// out\n        /* \"--CODEGEN--\":3484:4086   */\n    tag_316:\n      0x00\n        /* \"--CODEGEN--\":3600:3604   */\n      0x60\n        /* \"--CODEGEN--\":3588:3597   */\n      dup3\n        /* \"--CODEGEN--\":3583:3586   */\n      dup5\n        /* \"--CODEGEN--\":3579:3598   */\n      sub\n        /* \"--CODEGEN--\":3575:3605   */\n      slt\n        /* \"--CODEGEN--\":3572:3574   */\n      iszero\n      tag_339\n      jumpi\n        /* \"--CODEGEN--\":3618:3619   */\n      0x00\n        /* \"--CODEGEN--\":3615:3616   */\n      dup1\n        /* \"--CODEGEN--\":3608:3620   */\n      revert\n        /* \"--CODEGEN--\":3572:3574   */\n    tag_339:\n        /* \"--CODEGEN--\":3636:3656   */\n      tag_340\n        /* \"--CODEGEN--\":3651:3655   */\n      0x60\n        /* \"--CODEGEN--\":3636:3656   */\n      tag_289\n      jump\t// in\n    tag_340:\n        /* \"--CODEGEN--\":3627:3656   */\n      swap1\n      pop\n        /* \"--CODEGEN--\":3703:3704   */\n      0x00\n        /* \"--CODEGEN--\":3735:3784   */\n      tag_341\n        /* \"--CODEGEN--\":3780:3783   */\n      dup5\n        /* \"--CODEGEN--\":3771:3777   */\n      dup3\n        /* \"--CODEGEN--\":3760:3769   */\n      dup6\n        /* \"--CODEGEN--\":3756:3778   */\n      add\n        /* \"--CODEGEN--\":3735:3784   */\n      tag_321\n      jump\t// in\n    tag_341:\n        /* \"--CODEGEN--\":3728:3732   */\n      0x00\n        /* \"--CODEGEN--\":3721:3726   */\n      dup4\n        /* \"--CODEGEN--\":3717:3733   */\n      add\n        /* \"--CODEGEN--\":3710:3785   */\n      mstore\n        /* \"--CODEGEN--\":3666:3796   */\n      pop\n        /* \"--CODEGEN--\":3843:3845   */\n      0x20\n        /* \"--CODEGEN--\":3876:3925   */\n      tag_342\n        /* \"--CODEGEN--\":3921:3924   */\n      dup5\n        /* \"--CODEGEN--\":3912:3918   */\n      dup3\n        /* \"--CODEGEN--\":3901:3910   */\n      dup6\n        /* \"--CODEGEN--\":3897:3919   */\n      add\n        /* \"--CODEGEN--\":3876:3925   */\n      tag_321\n      jump\t// in\n    tag_342:\n        /* \"--CODEGEN--\":3869:3873   */\n      0x20\n        /* \"--CODEGEN--\":3862:3867   */\n      dup4\n        /* \"--CODEGEN--\":3858:3874   */\n      add\n        /* \"--CODEGEN--\":3851:3926   */\n      mstore\n        /* \"--CODEGEN--\":3806:3937   */\n      pop\n        /* \"--CODEGEN--\":3984:3986   */\n      0x40\n        /* \"--CODEGEN--\":4017:4064   */\n      tag_343\n        /* \"--CODEGEN--\":4060:4063   */\n      dup5\n        /* \"--CODEGEN--\":4051:4057   */\n      dup3\n        /* \"--CODEGEN--\":4040:4049   */\n      dup6\n        /* \"--CODEGEN--\":4036:4058   */\n      add\n        /* \"--CODEGEN--\":4017:4064   */\n      tag_344\n      jump\t// in\n    tag_343:\n        /* \"--CODEGEN--\":4010:4014   */\n      0x40\n        /* \"--CODEGEN--\":4003:4008   */\n      dup4\n        /* \"--CODEGEN--\":3999:4015   */\n      add\n        /* \"--CODEGEN--\":3992:4065   */\n      mstore\n        /* \"--CODEGEN--\":3947:4076   */\n      pop\n        /* \"--CODEGEN--\":3566:4086   */\n      swap3\n      swap2\n      pop\n      pop\n      jump\t// out\n        /* \"--CODEGEN--\":4126:6229   */\n    tag_345:\n      0x00\n        /* \"--CODEGEN--\":4243:4249   */\n      0x0140\n        /* \"--CODEGEN--\":4231:4240   */\n      dup3\n        /* \"--CODEGEN--\":4226:4229   */\n      dup5\n        /* \"--CODEGEN--\":4222:4241   */\n      sub\n        /* \"--CODEGEN--\":4218:4250   */\n      slt\n        /* \"--CODEGEN--\":4215:4217   */\n      iszero\n      tag_347\n      jumpi\n        /* \"--CODEGEN--\":4263:4264   */\n      0x00\n        /* \"--CODEGEN--\":4260:4261   */\n      dup1\n        /* \"--CODEGEN--\":4253:4265   */\n      revert\n        /* \"--CODEGEN--\":4215:4217   */\n    tag_347:\n        /* \"--CODEGEN--\":4281:4303   */\n      tag_348\n        /* \"--CODEGEN--\":4296:4302   */\n      0x0140\n        /* \"--CODEGEN--\":4281:4303   */\n      tag_289\n      jump\t// in\n    tag_348:\n        /* \"--CODEGEN--\":4272:4303   */\n      swap1\n      pop\n        /* \"--CODEGEN--\":4354:4355   */\n      0x00\n        /* \"--CODEGEN--\":4386:4435   */\n      tag_349\n        /* \"--CODEGEN--\":4431:4434   */\n      dup5\n        /* \"--CODEGEN--\":4422:4428   */\n      dup3\n        /* \"--CODEGEN--\":4411:4420   */\n      dup6\n        /* \"--CODEGEN--\":4407:4429   */\n      add\n        /* \"--CODEGEN--\":4386:4435   */\n      tag_276\n      jump\t// in\n    tag_349:\n        /* \"--CODEGEN--\":4379:4383   */\n      0x00\n        /* \"--CODEGEN--\":4372:4377   */\n      dup4\n        /* \"--CODEGEN--\":4368:4384   */\n      add\n        /* \"--CODEGEN--\":4361:4436   */\n      mstore\n        /* \"--CODEGEN--\":4313:4447   */\n      pop\n        /* \"--CODEGEN--\":4500:4502   */\n      0x20\n        /* \"--CODEGEN--\":4533:4582   */\n      tag_350\n        /* \"--CODEGEN--\":4578:4581   */\n      dup5\n        /* \"--CODEGEN--\":4569:4575   */\n      dup3\n        /* \"--CODEGEN--\":4558:4567   */\n      dup6\n        /* \"--CODEGEN--\":4554:4576   */\n      add\n        /* \"--CODEGEN--\":4533:4582   */\n      tag_351\n      jump\t// in\n    tag_350:\n        /* \"--CODEGEN--\":4526:4530   */\n      0x20\n        /* \"--CODEGEN--\":4519:4524   */\n      dup4\n        /* \"--CODEGEN--\":4515:4531   */\n      add\n        /* \"--CODEGEN--\":4508:4583   */\n      mstore\n        /* \"--CODEGEN--\":4457:4594   */\n      pop\n        /* \"--CODEGEN--\":4644:4646   */\n      0x40\n        /* \"--CODEGEN--\":4677:4726   */\n      tag_352\n        /* \"--CODEGEN--\":4722:4725   */\n      dup5\n        /* \"--CODEGEN--\":4713:4719   */\n      dup3\n        /* \"--CODEGEN--\":4702:4711   */\n      dup6\n        /* \"--CODEGEN--\":4698:4720   */\n      add\n        /* \"--CODEGEN--\":4677:4726   */\n      tag_276\n      jump\t// in\n    tag_352:\n        /* \"--CODEGEN--\":4670:4674   */\n      0x40\n        /* \"--CODEGEN--\":4663:4668   */\n      dup4\n        /* \"--CODEGEN--\":4659:4675   */\n      add\n        /* \"--CODEGEN--\":4652:4727   */\n      mstore\n        /* \"--CODEGEN--\":4604:4738   */\n      pop\n        /* \"--CODEGEN--\":4814:4816   */\n      0x60\n        /* \"--CODEGEN--\":4803:4812   */\n      dup3\n        /* \"--CODEGEN--\":4799:4817   */\n      add\n        /* \"--CODEGEN--\":4786:4818   */\n      calldataload\n        /* \"--CODEGEN--\":4838:4856   */\n      0xffffffffffffffff\n        /* \"--CODEGEN--\":4830:4836   */\n      dup2\n        /* \"--CODEGEN--\":4827:4857   */\n      gt\n        /* \"--CODEGEN--\":4824:4826   */\n      iszero\n      tag_353\n      jumpi\n        /* \"--CODEGEN--\":4870:4871   */\n      0x00\n        /* \"--CODEGEN--\":4867:4868   */\n      dup1\n        /* \"--CODEGEN--\":4860:4872   */\n      revert\n        /* \"--CODEGEN--\":4824:4826   */\n    tag_353:\n        /* \"--CODEGEN--\":4905:4979   */\n      tag_354\n        /* \"--CODEGEN--\":4975:4978   */\n      dup5\n        /* \"--CODEGEN--\":4966:4972   */\n      dup3\n        /* \"--CODEGEN--\":4955:4964   */\n      dup6\n        /* \"--CODEGEN--\":4951:4973   */\n      add\n        /* \"--CODEGEN--\":4905:4979   */\n      tag_283\n      jump\t// in\n    tag_354:\n        /* \"--CODEGEN--\":4898:4902   */\n      0x60\n        /* \"--CODEGEN--\":4891:4896   */\n      dup4\n        /* \"--CODEGEN--\":4887:4903   */\n      add\n        /* \"--CODEGEN--\":4880:4980   */\n      mstore\n        /* \"--CODEGEN--\":4748:4991   */\n      pop\n        /* \"--CODEGEN--\":5043:5046   */\n      0x80\n        /* \"--CODEGEN--\":5077:5126   */\n      tag_355\n        /* \"--CODEGEN--\":5122:5125   */\n      dup5\n        /* \"--CODEGEN--\":5113:5119   */\n      dup3\n        /* \"--CODEGEN--\":5102:5111   */\n      dup6\n        /* \"--CODEGEN--\":5098:5120   */\n      add\n        /* \"--CODEGEN--\":5077:5126   */\n      tag_351\n      jump\t// in\n    tag_355:\n        /* \"--CODEGEN--\":5070:5074   */\n      0x80\n        /* \"--CODEGEN--\":5063:5068   */\n      dup4\n        /* \"--CODEGEN--\":5059:5075   */\n      add\n        /* \"--CODEGEN--\":5052:5127   */\n      mstore\n        /* \"--CODEGEN--\":5001:5138   */\n      pop\n        /* \"--CODEGEN--\":5216:5219   */\n      0xa0\n        /* \"--CODEGEN--\":5205:5214   */\n      dup3\n        /* \"--CODEGEN--\":5201:5220   */\n      add\n        /* \"--CODEGEN--\":5188:5221   */\n      calldataload\n        /* \"--CODEGEN--\":5241:5259   */\n      0xffffffffffffffff\n        /* \"--CODEGEN--\":5233:5239   */\n      dup2\n        /* \"--CODEGEN--\":5230:5260   */\n      gt\n        /* \"--CODEGEN--\":5227:5229   */\n      iszero\n      tag_356\n      jumpi\n        /* \"--CODEGEN--\":5273:5274   */\n      0x00\n        /* \"--CODEGEN--\":5270:5271   */\n      dup1\n        /* \"--CODEGEN--\":5263:5275   */\n      revert\n        /* \"--CODEGEN--\":5227:5229   */\n    tag_356:\n        /* \"--CODEGEN--\":5308:5366   */\n      tag_357\n        /* \"--CODEGEN--\":5362:5365   */\n      dup5\n        /* \"--CODEGEN--\":5353:5359   */\n      dup3\n        /* \"--CODEGEN--\":5342:5351   */\n      dup6\n        /* \"--CODEGEN--\":5338:5360   */\n      add\n        /* \"--CODEGEN--\":5308:5366   */\n      tag_329\n      jump\t// in\n    tag_357:\n        /* \"--CODEGEN--\":5301:5305   */\n      0xa0\n        /* \"--CODEGEN--\":5294:5299   */\n      dup4\n        /* \"--CODEGEN--\":5290:5306   */\n      add\n        /* \"--CODEGEN--\":5283:5367   */\n      mstore\n        /* \"--CODEGEN--\":5148:5378   */\n      pop\n        /* \"--CODEGEN--\":5430:5433   */\n      0xc0\n        /* \"--CODEGEN--\":5464:5513   */\n      tag_358\n        /* \"--CODEGEN--\":5509:5512   */\n      dup5\n        /* \"--CODEGEN--\":5500:5506   */\n      dup3\n        /* \"--CODEGEN--\":5489:5498   */\n      dup6\n        /* \"--CODEGEN--\":5485:5507   */\n      add\n        /* \"--CODEGEN--\":5464:5513   */\n      tag_351\n      jump\t// in\n    tag_358:\n        /* \"--CODEGEN--\":5457:5461   */\n      0xc0\n        /* \"--CODEGEN--\":5450:5455   */\n      dup4\n        /* \"--CODEGEN--\":5446:5462   */\n      add\n        /* \"--CODEGEN--\":5439:5514   */\n      mstore\n        /* \"--CODEGEN--\":5388:5525   */\n      pop\n        /* \"--CODEGEN--\":5580:5583   */\n      0xe0\n        /* \"--CODEGEN--\":5614:5663   */\n      tag_359\n        /* \"--CODEGEN--\":5659:5662   */\n      dup5\n        /* \"--CODEGEN--\":5650:5656   */\n      dup3\n        /* \"--CODEGEN--\":5639:5648   */\n      dup6\n        /* \"--CODEGEN--\":5635:5657   */\n      add\n        /* \"--CODEGEN--\":5614:5663   */\n      tag_351\n      jump\t// in\n    tag_359:\n        /* \"--CODEGEN--\":5607:5611   */\n      0xe0\n        /* \"--CODEGEN--\":5600:5605   */\n      dup4\n        /* \"--CODEGEN--\":5596:5612   */\n      add\n        /* \"--CODEGEN--\":5589:5664   */\n      mstore\n        /* \"--CODEGEN--\":5535:5675   */\n      pop\n        /* \"--CODEGEN--\":5755:5758   */\n      0x0100\n        /* \"--CODEGEN--\":5744:5753   */\n      dup3\n        /* \"--CODEGEN--\":5740:5759   */\n      add\n        /* \"--CODEGEN--\":5727:5760   */\n      calldataload\n        /* \"--CODEGEN--\":5780:5798   */\n      0xffffffffffffffff\n        /* \"--CODEGEN--\":5772:5778   */\n      dup2\n        /* \"--CODEGEN--\":5769:5799   */\n      gt\n        /* \"--CODEGEN--\":5766:5768   */\n      iszero\n      tag_360\n      jumpi\n        /* \"--CODEGEN--\":5812:5813   */\n      0x00\n        /* \"--CODEGEN--\":5809:5810   */\n      dup1\n        /* \"--CODEGEN--\":5802:5814   */\n      revert\n        /* \"--CODEGEN--\":5766:5768   */\n    tag_360:\n        /* \"--CODEGEN--\":5849:5923   */\n      tag_361\n        /* \"--CODEGEN--\":5919:5922   */\n      dup5\n        /* \"--CODEGEN--\":5910:5916   */\n      dup3\n        /* \"--CODEGEN--\":5899:5908   */\n      dup6\n        /* \"--CODEGEN--\":5895:5917   */\n      add\n        /* \"--CODEGEN--\":5849:5923   */\n      tag_283\n      jump\t// in\n    tag_361:\n        /* \"--CODEGEN--\":5840:5846   */\n      0x0100\n        /* \"--CODEGEN--\":5833:5838   */\n      dup4\n        /* \"--CODEGEN--\":5829:5847   */\n      add\n        /* \"--CODEGEN--\":5822:5924   */\n      mstore\n        /* \"--CODEGEN--\":5685:5935   */\n      pop\n        /* \"--CODEGEN--\":6012:6015   */\n      0x0120\n        /* \"--CODEGEN--\":6001:6010   */\n      dup3\n        /* \"--CODEGEN--\":5997:6016   */\n      add\n        /* \"--CODEGEN--\":5984:6017   */\n      calldataload\n        /* \"--CODEGEN--\":6037:6055   */\n      0xffffffffffffffff\n        /* \"--CODEGEN--\":6029:6035   */\n      dup2\n        /* \"--CODEGEN--\":6026:6056   */\n      gt\n        /* \"--CODEGEN--\":6023:6025   */\n      iszero\n      tag_362\n      jumpi\n        /* \"--CODEGEN--\":6069:6070   */\n      0x00\n        /* \"--CODEGEN--\":6066:6067   */\n      dup1\n        /* \"--CODEGEN--\":6059:6071   */\n      revert\n        /* \"--CODEGEN--\":6023:6025   */\n    tag_362:\n        /* \"--CODEGEN--\":6106:6207   */\n      tag_363\n        /* \"--CODEGEN--\":6203:6206   */\n      dup5\n        /* \"--CODEGEN--\":6194:6200   */\n      dup3\n        /* \"--CODEGEN--\":6183:6192   */\n      dup6\n        /* \"--CODEGEN--\":6179:6201   */\n      add\n        /* \"--CODEGEN--\":6106:6207   */\n      tag_305\n      jump\t// in\n    tag_363:\n        /* \"--CODEGEN--\":6097:6103   */\n      0x0120\n        /* \"--CODEGEN--\":6090:6095   */\n      dup4\n        /* \"--CODEGEN--\":6086:6104   */\n      add\n        /* \"--CODEGEN--\":6079:6208   */\n      mstore\n        /* \"--CODEGEN--\":5945:6219   */\n      pop\n        /* \"--CODEGEN--\":4209:6229   */\n      swap3\n      swap2\n      pop\n      pop\n      jump\t// out\n        /* \"--CODEGEN--\":6236:6366   */\n    tag_351:\n      0x00\n        /* \"--CODEGEN--\":6316:6322   */\n      dup2\n        /* \"--CODEGEN--\":6303:6323   */\n      calldataload\n        /* \"--CODEGEN--\":6294:6323   */\n      swap1\n      pop\n        /* \"--CODEGEN--\":6328:6361   */\n      tag_365\n        /* \"--CODEGEN--\":6355:6360   */\n      dup2\n        /* \"--CODEGEN--\":6328:6361   */\n      tag_366\n      jump\t// in\n    tag_365:\n        /* \"--CODEGEN--\":6288:6366   */\n      swap3\n      swap2\n      pop\n      pop\n      jump\t// out\n        /* \"--CODEGEN--\":6373:6507   */\n    tag_367:\n      0x00\n        /* \"--CODEGEN--\":6457:6463   */\n      dup2\n        /* \"--CODEGEN--\":6451:6464   */\n      mload\n        /* \"--CODEGEN--\":6442:6464   */\n      swap1\n      pop\n        /* \"--CODEGEN--\":6469:6502   */\n      tag_369\n        /* \"--CODEGEN--\":6496:6501   */\n      dup2\n        /* \"--CODEGEN--\":6469:6502   */\n      tag_366\n      jump\t// in\n    tag_369:\n        /* \"--CODEGEN--\":6436:6507   */\n      swap3\n      swap2\n      pop\n      pop\n      jump\t// out\n        /* \"--CODEGEN--\":6514:6640   */\n    tag_344:\n      0x00\n        /* \"--CODEGEN--\":6592:6598   */\n      dup2\n        /* \"--CODEGEN--\":6579:6599   */\n      calldataload\n        /* \"--CODEGEN--\":6570:6599   */\n      swap1\n      pop\n        /* \"--CODEGEN--\":6604:6635   */\n      tag_371\n        /* \"--CODEGEN--\":6629:6634   */\n      dup2\n        /* \"--CODEGEN--\":6604:6635   */\n      tag_372\n      jump\t// in\n    tag_371:\n        /* \"--CODEGEN--\":6564:6640   */\n      swap3\n      swap2\n      pop\n      pop\n      jump\t// out\n        /* \"--CODEGEN--\":6647:6888   */\n    tag_72:\n      0x00\n        /* \"--CODEGEN--\":6751:6753   */\n      0x20\n        /* \"--CODEGEN--\":6739:6748   */\n      dup3\n        /* \"--CODEGEN--\":6730:6737   */\n      dup5\n        /* \"--CODEGEN--\":6726:6749   */\n      sub\n        /* \"--CODEGEN--\":6722:6754   */\n      slt\n        /* \"--CODEGEN--\":6719:6721   */\n      iszero\n      tag_374\n      jumpi\n        /* \"--CODEGEN--\":6767:6768   */\n      0x00\n        /* \"--CODEGEN--\":6764:6765   */\n      dup1\n        /* \"--CODEGEN--\":6757:6769   */\n      revert\n        /* \"--CODEGEN--\":6719:6721   */\n    tag_374:\n        /* \"--CODEGEN--\":6802:6803   */\n      0x00\n        /* \"--CODEGEN--\":6819:6872   */\n      tag_375\n        /* \"--CODEGEN--\":6864:6871   */\n      dup5\n        /* \"--CODEGEN--\":6855:6861   */\n      dup3\n        /* \"--CODEGEN--\":6844:6853   */\n      dup6\n        /* \"--CODEGEN--\":6840:6862   */\n      add\n        /* \"--CODEGEN--\":6819:6872   */\n      tag_276\n      jump\t// in\n    tag_375:\n        /* \"--CODEGEN--\":6809:6872   */\n      swap2\n      pop\n        /* \"--CODEGEN--\":6781:6878   */\n      pop\n        /* \"--CODEGEN--\":6713:6888   */\n      swap3\n      swap2\n      pop\n      pop\n      jump\t// out\n        /* \"--CODEGEN--\":6895:7158   */\n    tag_99:\n      0x00\n        /* \"--CODEGEN--\":7010:7012   */\n      0x20\n        /* \"--CODEGEN--\":6998:7007   */\n      dup3\n        /* \"--CODEGEN--\":6989:6996   */\n      dup5\n        /* \"--CODEGEN--\":6985:7008   */\n      sub\n        /* \"--CODEGEN--\":6981:7013   */\n      slt\n        /* \"--CODEGEN--\":6978:6980   */\n      iszero\n      tag_377\n      jumpi\n        /* \"--CODEGEN--\":7026:7027   */\n      0x00\n        /* \"--CODEGEN--\":7023:7024   */\n      dup1\n        /* \"--CODEGEN--\":7016:7028   */\n      revert\n        /* \"--CODEGEN--\":6978:6980   */\n    tag_377:\n        /* \"--CODEGEN--\":7061:7062   */\n      0x00\n        /* \"--CODEGEN--\":7078:7142   */\n      tag_378\n        /* \"--CODEGEN--\":7134:7141   */\n      dup5\n        /* \"--CODEGEN--\":7125:7131   */\n      dup3\n        /* \"--CODEGEN--\":7114:7123   */\n      dup6\n        /* \"--CODEGEN--\":7110:7132   */\n      add\n        /* \"--CODEGEN--\":7078:7142   */\n      tag_280\n      jump\t// in\n    tag_378:\n        /* \"--CODEGEN--\":7068:7142   */\n      swap2\n      pop\n        /* \"--CODEGEN--\":7040:7148   */\n      pop\n        /* \"--CODEGEN--\":6972:7158   */\n      swap3\n      swap2\n      pop\n      pop\n      jump\t// out\n        /* \"--CODEGEN--\":7165:7886   */\n    tag_36:\n      0x00\n      dup1\n      0x00\n      dup1\n        /* \"--CODEGEN--\":7329:7332   */\n      0x80\n        /* \"--CODEGEN--\":7317:7326   */\n      dup6\n        /* \"--CODEGEN--\":7308:7315   */\n      dup8\n        /* \"--CODEGEN--\":7304:7327   */\n      sub\n        /* \"--CODEGEN--\":7300:7333   */\n      slt\n        /* \"--CODEGEN--\":7297:7299   */\n      iszero\n      tag_380\n      jumpi\n        /* \"--CODEGEN--\":7346:7347   */\n      0x00\n        /* \"--CODEGEN--\":7343:7344   */\n      dup1\n        /* \"--CODEGEN--\":7336:7348   */\n      revert\n        /* \"--CODEGEN--\":7297:7299   */\n    tag_380:\n        /* \"--CODEGEN--\":7381:7382   */\n      0x00\n        /* \"--CODEGEN--\":7398:7451   */\n      tag_381\n        /* \"--CODEGEN--\":7443:7450   */\n      dup8\n        /* \"--CODEGEN--\":7434:7440   */\n      dup3\n        /* \"--CODEGEN--\":7423:7432   */\n      dup9\n        /* \"--CODEGEN--\":7419:7441   */\n      add\n        /* \"--CODEGEN--\":7398:7451   */\n      tag_276\n      jump\t// in\n    tag_381:\n        /* \"--CODEGEN--\":7388:7451   */\n      swap5\n      pop\n        /* \"--CODEGEN--\":7360:7457   */\n      pop\n        /* \"--CODEGEN--\":7488:7490   */\n      0x20\n        /* \"--CODEGEN--\":7506:7559   */\n      tag_382\n        /* \"--CODEGEN--\":7551:7558   */\n      dup8\n        /* \"--CODEGEN--\":7542:7548   */\n      dup3\n        /* \"--CODEGEN--\":7531:7540   */\n      dup9\n        /* \"--CODEGEN--\":7527:7549   */\n      add\n        /* \"--CODEGEN--\":7506:7559   */\n      tag_276\n      jump\t// in\n    tag_382:\n        /* \"--CODEGEN--\":7496:7559   */\n      swap4\n      pop\n        /* \"--CODEGEN--\":7467:7565   */\n      pop\n        /* \"--CODEGEN--\":7596:7598   */\n      0x40\n        /* \"--CODEGEN--\":7614:7667   */\n      tag_383\n        /* \"--CODEGEN--\":7659:7666   */\n      dup8\n        /* \"--CODEGEN--\":7650:7656   */\n      dup3\n        /* \"--CODEGEN--\":7639:7648   */\n      dup9\n        /* \"--CODEGEN--\":7635:7657   */\n      add\n        /* \"--CODEGEN--\":7614:7667   */\n      tag_351\n      jump\t// in\n    tag_383:\n        /* \"--CODEGEN--\":7604:7667   */\n      swap3\n      pop\n        /* \"--CODEGEN--\":7575:7673   */\n      pop\n        /* \"--CODEGEN--\":7732:7734   */\n      0x60\n        /* \"--CODEGEN--\":7721:7730   */\n      dup6\n        /* \"--CODEGEN--\":7717:7735   */\n      add\n        /* \"--CODEGEN--\":7704:7736   */\n      calldataload\n        /* \"--CODEGEN--\":7756:7774   */\n      0xffffffffffffffff\n        /* \"--CODEGEN--\":7748:7754   */\n      dup2\n        /* \"--CODEGEN--\":7745:7775   */\n      gt\n        /* \"--CODEGEN--\":7742:7744   */\n      iszero\n      tag_384\n      jumpi\n        /* \"--CODEGEN--\":7788:7789   */\n      0x00\n        /* \"--CODEGEN--\":7785:7786   */\n      dup1\n        /* \"--CODEGEN--\":7778:7790   */\n      revert\n        /* \"--CODEGEN--\":7742:7744   */\n    tag_384:\n        /* \"--CODEGEN--\":7808:7870   */\n      tag_385\n        /* \"--CODEGEN--\":7862:7869   */\n      dup8\n        /* \"--CODEGEN--\":7853:7859   */\n      dup3\n        /* \"--CODEGEN--\":7842:7851   */\n      dup9\n        /* \"--CODEGEN--\":7838:7860   */\n      add\n        /* \"--CODEGEN--\":7808:7870   */\n      tag_329\n      jump\t// in\n    tag_385:\n        /* \"--CODEGEN--\":7798:7870   */\n      swap2\n      pop\n        /* \"--CODEGEN--\":7683:7876   */\n      pop\n        /* \"--CODEGEN--\":7291:7886   */\n      swap3\n      swap6\n      swap2\n      swap5\n      pop\n      swap3\n      pop\n      jump\t// out\n        /* \"--CODEGEN--\":7893:8740   */\n    tag_32:\n      0x00\n      dup1\n      0x00\n      dup1\n      0x00\n        /* \"--CODEGEN--\":8074:8077   */\n      0xa0\n        /* \"--CODEGEN--\":8062:8071   */\n      dup7\n        /* \"--CODEGEN--\":8053:8060   */\n      dup9\n        /* \"--CODEGEN--\":8049:8072   */\n      sub\n        /* \"--CODEGEN--\":8045:8078   */\n      slt\n        /* \"--CODEGEN--\":8042:8044   */\n      iszero\n      tag_387\n      jumpi\n        /* \"--CODEGEN--\":8091:8092   */\n      0x00\n        /* \"--CODEGEN--\":8088:8089   */\n      dup1\n        /* \"--CODEGEN--\":8081:8093   */\n      revert\n        /* \"--CODEGEN--\":8042:8044   */\n    tag_387:\n        /* \"--CODEGEN--\":8126:8127   */\n      0x00\n        /* \"--CODEGEN--\":8143:8196   */\n      tag_388\n        /* \"--CODEGEN--\":8188:8195   */\n      dup9\n        /* \"--CODEGEN--\":8179:8185   */\n      dup3\n        /* \"--CODEGEN--\":8168:8177   */\n      dup10\n        /* \"--CODEGEN--\":8164:8186   */\n      add\n        /* \"--CODEGEN--\":8143:8196   */\n      tag_276\n      jump\t// in\n    tag_388:\n        /* \"--CODEGEN--\":8133:8196   */\n      swap6\n      pop\n        /* \"--CODEGEN--\":8105:8202   */\n      pop\n        /* \"--CODEGEN--\":8233:8235   */\n      0x20\n        /* \"--CODEGEN--\":8251:8304   */\n      tag_389\n        /* \"--CODEGEN--\":8296:8303   */\n      dup9\n        /* \"--CODEGEN--\":8287:8293   */\n      dup3\n        /* \"--CODEGEN--\":8276:8285   */\n      dup10\n        /* \"--CODEGEN--\":8272:8294   */\n      add\n        /* \"--CODEGEN--\":8251:8304   */\n      tag_276\n      jump\t// in\n    tag_389:\n        /* \"--CODEGEN--\":8241:8304   */\n      swap5\n      pop\n        /* \"--CODEGEN--\":8212:8310   */\n      pop\n        /* \"--CODEGEN--\":8341:8343   */\n      0x40\n        /* \"--CODEGEN--\":8359:8412   */\n      tag_390\n        /* \"--CODEGEN--\":8404:8411   */\n      dup9\n        /* \"--CODEGEN--\":8395:8401   */\n      dup3\n        /* \"--CODEGEN--\":8384:8393   */\n      dup10\n        /* \"--CODEGEN--\":8380:8402   */\n      add\n        /* \"--CODEGEN--\":8359:8412   */\n      tag_351\n      jump\t// in\n    tag_390:\n        /* \"--CODEGEN--\":8349:8412   */\n      swap4\n      pop\n        /* \"--CODEGEN--\":8320:8418   */\n      pop\n        /* \"--CODEGEN--\":8449:8451   */\n      0x60\n        /* \"--CODEGEN--\":8467:8520   */\n      tag_391\n        /* \"--CODEGEN--\":8512:8519   */\n      dup9\n        /* \"--CODEGEN--\":8503:8509   */\n      dup3\n        /* \"--CODEGEN--\":8492:8501   */\n      dup10\n        /* \"--CODEGEN--\":8488:8510   */\n      add\n        /* \"--CODEGEN--\":8467:8520   */\n      tag_351\n      jump\t// in\n    tag_391:\n        /* \"--CODEGEN--\":8457:8520   */\n      swap3\n      pop\n        /* \"--CODEGEN--\":8428:8526   */\n      pop\n        /* \"--CODEGEN--\":8585:8588   */\n      0x80\n        /* \"--CODEGEN--\":8574:8583   */\n      dup7\n        /* \"--CODEGEN--\":8570:8589   */\n      add\n        /* \"--CODEGEN--\":8557:8590   */\n      calldataload\n        /* \"--CODEGEN--\":8610:8628   */\n      0xffffffffffffffff\n        /* \"--CODEGEN--\":8602:8608   */\n      dup2\n        /* \"--CODEGEN--\":8599:8629   */\n      gt\n        /* \"--CODEGEN--\":8596:8598   */\n      iszero\n      tag_392\n      jumpi\n        /* \"--CODEGEN--\":8642:8643   */\n      0x00\n        /* \"--CODEGEN--\":8639:8640   */\n      dup1\n        /* \"--CODEGEN--\":8632:8644   */\n      revert\n        /* \"--CODEGEN--\":8596:8598   */\n    tag_392:\n        /* \"--CODEGEN--\":8662:8724   */\n      tag_393\n        /* \"--CODEGEN--\":8716:8723   */\n      dup9\n        /* \"--CODEGEN--\":8707:8713   */\n      dup3\n        /* \"--CODEGEN--\":8696:8705   */\n      dup10\n        /* \"--CODEGEN--\":8692:8714   */\n      add\n        /* \"--CODEGEN--\":8662:8724   */\n      tag_329\n      jump\t// in\n    tag_393:\n        /* \"--CODEGEN--\":8652:8724   */\n      swap2\n      pop\n        /* \"--CODEGEN--\":8536:8730   */\n      pop\n        /* \"--CODEGEN--\":8036:8740   */\n      swap3\n      swap6\n      pop\n      swap3\n      swap6\n      swap1\n      swap4\n      pop\n      jump\t// out\n        /* \"--CODEGEN--\":8747:9238   */\n    tag_52:\n      0x00\n      dup1\n      0x00\n        /* \"--CODEGEN--\":8885:8887   */\n      0x60\n        /* \"--CODEGEN--\":8873:8882   */\n      dup5\n        /* \"--CODEGEN--\":8864:8871   */\n      dup7\n        /* \"--CODEGEN--\":8860:8883   */\n      sub\n        /* \"--CODEGEN--\":8856:8888   */\n      slt\n        /* \"--CODEGEN--\":8853:8855   */\n      iszero\n      tag_395\n      jumpi\n        /* \"--CODEGEN--\":8901:8902   */\n      0x00\n        /* \"--CODEGEN--\":8898:8899   */\n      dup1\n        /* \"--CODEGEN--\":8891:8903   */\n      revert\n        /* \"--CODEGEN--\":8853:8855   */\n    tag_395:\n        /* \"--CODEGEN--\":8936:8937   */\n      0x00\n        /* \"--CODEGEN--\":8953:9006   */\n      tag_396\n        /* \"--CODEGEN--\":8998:9005   */\n      dup7\n        /* \"--CODEGEN--\":8989:8995   */\n      dup3\n        /* \"--CODEGEN--\":8978:8987   */\n      dup8\n        /* \"--CODEGEN--\":8974:8996   */\n      add\n        /* \"--CODEGEN--\":8953:9006   */\n      tag_276\n      jump\t// in\n    tag_396:\n        /* \"--CODEGEN--\":8943:9006   */\n      swap4\n      pop\n        /* \"--CODEGEN--\":8915:9012   */\n      pop\n        /* \"--CODEGEN--\":9043:9045   */\n      0x20\n        /* \"--CODEGEN--\":9061:9114   */\n      tag_397\n        /* \"--CODEGEN--\":9106:9113   */\n      dup7\n        /* \"--CODEGEN--\":9097:9103   */\n      dup3\n        /* \"--CODEGEN--\":9086:9095   */\n      dup8\n        /* \"--CODEGEN--\":9082:9104   */\n      add\n        /* \"--CODEGEN--\":9061:9114   */\n      tag_351\n      jump\t// in\n    tag_397:\n        /* \"--CODEGEN--\":9051:9114   */\n      swap3\n      pop\n        /* \"--CODEGEN--\":9022:9120   */\n      pop\n        /* \"--CODEGEN--\":9151:9153   */\n      0x40\n        /* \"--CODEGEN--\":9169:9222   */\n      tag_398\n        /* \"--CODEGEN--\":9214:9221   */\n      dup7\n        /* \"--CODEGEN--\":9205:9211   */\n      dup3\n        /* \"--CODEGEN--\":9194:9203   */\n      dup8\n        /* \"--CODEGEN--\":9190:9212   */\n      add\n        /* \"--CODEGEN--\":9169:9222   */\n      tag_276\n      jump\t// in\n    tag_398:\n        /* \"--CODEGEN--\":9159:9222   */\n      swap2\n      pop\n        /* \"--CODEGEN--\":9130:9228   */\n      pop\n        /* \"--CODEGEN--\":8847:9238   */\n      swap3\n      pop\n      swap3\n      pop\n      swap3\n      jump\t// out\n        /* \"--CODEGEN--\":9245:10124   */\n    tag_45:\n      0x00\n      dup1\n      0x00\n      dup1\n      0x00\n        /* \"--CODEGEN--\":9442:9445   */\n      0xa0\n        /* \"--CODEGEN--\":9430:9439   */\n      dup7\n        /* \"--CODEGEN--\":9421:9428   */\n      dup9\n        /* \"--CODEGEN--\":9417:9440   */\n      sub\n        /* \"--CODEGEN--\":9413:9446   */\n      slt\n        /* \"--CODEGEN--\":9410:9412   */\n      iszero\n      tag_400\n      jumpi\n        /* \"--CODEGEN--\":9459:9460   */\n      0x00\n        /* \"--CODEGEN--\":9456:9457   */\n      dup1\n        /* \"--CODEGEN--\":9449:9461   */\n      revert\n        /* \"--CODEGEN--\":9410:9412   */\n    tag_400:\n        /* \"--CODEGEN--\":9522:9523   */\n      0x00\n        /* \"--CODEGEN--\":9511:9520   */\n      dup7\n        /* \"--CODEGEN--\":9507:9524   */\n      add\n        /* \"--CODEGEN--\":9494:9525   */\n      calldataload\n        /* \"--CODEGEN--\":9545:9563   */\n      0xffffffffffffffff\n        /* \"--CODEGEN--\":9537:9543   */\n      dup2\n        /* \"--CODEGEN--\":9534:9564   */\n      gt\n        /* \"--CODEGEN--\":9531:9533   */\n      iszero\n      tag_401\n      jumpi\n        /* \"--CODEGEN--\":9577:9578   */\n      0x00\n        /* \"--CODEGEN--\":9574:9575   */\n      dup1\n        /* \"--CODEGEN--\":9567:9579   */\n      revert\n        /* \"--CODEGEN--\":9531:9533   */\n    tag_401:\n        /* \"--CODEGEN--\":9597:9675   */\n      tag_402\n        /* \"--CODEGEN--\":9667:9674   */\n      dup9\n        /* \"--CODEGEN--\":9658:9664   */\n      dup3\n        /* \"--CODEGEN--\":9647:9656   */\n      dup10\n        /* \"--CODEGEN--\":9643:9665   */\n      add\n        /* \"--CODEGEN--\":9597:9675   */\n      tag_283\n      jump\t// in\n    tag_402:\n        /* \"--CODEGEN--\":9587:9675   */\n      swap6\n      pop\n        /* \"--CODEGEN--\":9473:9681   */\n      pop\n        /* \"--CODEGEN--\":9712:9714   */\n      0x20\n        /* \"--CODEGEN--\":9730:9783   */\n      tag_403\n        /* \"--CODEGEN--\":9775:9782   */\n      dup9\n        /* \"--CODEGEN--\":9766:9772   */\n      dup3\n        /* \"--CODEGEN--\":9755:9764   */\n      dup10\n        /* \"--CODEGEN--\":9751:9773   */\n      add\n        /* \"--CODEGEN--\":9730:9783   */\n      tag_276\n      jump\t// in\n    tag_403:\n        /* \"--CODEGEN--\":9720:9783   */\n      swap5\n      pop\n        /* \"--CODEGEN--\":9691:9789   */\n      pop\n        /* \"--CODEGEN--\":9820:9822   */\n      0x40\n        /* \"--CODEGEN--\":9838:9891   */\n      tag_404\n        /* \"--CODEGEN--\":9883:9890   */\n      dup9\n        /* \"--CODEGEN--\":9874:9880   */\n      dup3\n        /* \"--CODEGEN--\":9863:9872   */\n      dup10\n        /* \"--CODEGEN--\":9859:9881   */\n      add\n        /* \"--CODEGEN--\":9838:9891   */\n      tag_351\n      jump\t// in\n    tag_404:\n        /* \"--CODEGEN--\":9828:9891   */\n      swap4\n      pop\n        /* \"--CODEGEN--\":9799:9897   */\n      pop\n        /* \"--CODEGEN--\":9928:9930   */\n      0x60\n        /* \"--CODEGEN--\":9946:9999   */\n      tag_405\n        /* \"--CODEGEN--\":9991:9998   */\n      dup9\n        /* \"--CODEGEN--\":9982:9988   */\n      dup3\n        /* \"--CODEGEN--\":9971:9980   */\n      dup10\n        /* \"--CODEGEN--\":9967:9989   */\n      add\n        /* \"--CODEGEN--\":9946:9999   */\n      tag_351\n      jump\t// in\n    tag_405:\n        /* \"--CODEGEN--\":9936:9999   */\n      swap3\n      pop\n        /* \"--CODEGEN--\":9907:10005   */\n      pop\n        /* \"--CODEGEN--\":10036:10039   */\n      0x80\n        /* \"--CODEGEN--\":10055:10108   */\n      tag_406\n        /* \"--CODEGEN--\":10100:10107   */\n      dup9\n        /* \"--CODEGEN--\":10091:10097   */\n      dup3\n        /* \"--CODEGEN--\":10080:10089   */\n      dup10\n        /* \"--CODEGEN--\":10076:10098   */\n      add\n        /* \"--CODEGEN--\":10055:10108   */\n      tag_351\n      jump\t// in\n    tag_406:\n        /* \"--CODEGEN--\":10045:10108   */\n      swap2\n      pop\n        /* \"--CODEGEN--\":10015:10114   */\n      pop\n        /* \"--CODEGEN--\":9404:10124   */\n      swap3\n      swap6\n      pop\n      swap3\n      swap6\n      swap1\n      swap4\n      pop\n      jump\t// out\n        /* \"--CODEGEN--\":10131:10659   */\n    tag_104:\n      0x00\n      dup1\n        /* \"--CODEGEN--\":10288:10290   */\n      0x40\n        /* \"--CODEGEN--\":10276:10285   */\n      dup4\n        /* \"--CODEGEN--\":10267:10274   */\n      dup6\n        /* \"--CODEGEN--\":10263:10286   */\n      sub\n        /* \"--CODEGEN--\":10259:10291   */\n      slt\n        /* \"--CODEGEN--\":10256:10258   */\n      iszero\n      tag_408\n      jumpi\n        /* \"--CODEGEN--\":10304:10305   */\n      0x00\n        /* \"--CODEGEN--\":10301:10302   */\n      dup1\n        /* \"--CODEGEN--\":10294:10306   */\n      revert\n        /* \"--CODEGEN--\":10256:10258   */\n    tag_408:\n        /* \"--CODEGEN--\":10360:10361   */\n      0x00\n        /* \"--CODEGEN--\":10349:10358   */\n      dup4\n        /* \"--CODEGEN--\":10345:10362   */\n      add\n        /* \"--CODEGEN--\":10339:10363   */\n      mload\n        /* \"--CODEGEN--\":10383:10401   */\n      0xffffffffffffffff\n        /* \"--CODEGEN--\":10375:10381   */\n      dup2\n        /* \"--CODEGEN--\":10372:10402   */\n      gt\n        /* \"--CODEGEN--\":10369:10371   */\n      iszero\n      tag_409\n      jumpi\n        /* \"--CODEGEN--\":10415:10416   */\n      0x00\n        /* \"--CODEGEN--\":10412:10413   */\n      dup1\n        /* \"--CODEGEN--\":10405:10417   */\n      revert\n        /* \"--CODEGEN--\":10369:10371   */\n    tag_409:\n        /* \"--CODEGEN--\":10435:10524   */\n      tag_410\n        /* \"--CODEGEN--\":10516:10523   */\n      dup6\n        /* \"--CODEGEN--\":10507:10513   */\n      dup3\n        /* \"--CODEGEN--\":10496:10505   */\n      dup7\n        /* \"--CODEGEN--\":10492:10514   */\n      add\n        /* \"--CODEGEN--\":10435:10524   */\n      tag_295\n      jump\t// in\n    tag_410:\n        /* \"--CODEGEN--\":10425:10524   */\n      swap3\n      pop\n        /* \"--CODEGEN--\":10318:10530   */\n      pop\n        /* \"--CODEGEN--\":10561:10563   */\n      0x20\n        /* \"--CODEGEN--\":10579:10643   */\n      tag_411\n        /* \"--CODEGEN--\":10635:10642   */\n      dup6\n        /* \"--CODEGEN--\":10626:10632   */\n      dup3\n        /* \"--CODEGEN--\":10615:10624   */\n      dup7\n        /* \"--CODEGEN--\":10611:10633   */\n      add\n        /* \"--CODEGEN--\":10579:10643   */\n      tag_367\n      jump\t// in\n    tag_411:\n        /* \"--CODEGEN--\":10569:10643   */\n      swap2\n      pop\n        /* \"--CODEGEN--\":10540:10649   */\n      pop\n        /* \"--CODEGEN--\":10250:10659   */\n      swap3\n      pop\n      swap3\n      swap1\n      pop\n      jump\t// out\n        /* \"--CODEGEN--\":10666:10923   */\n    tag_230:\n      0x00\n        /* \"--CODEGEN--\":10778:10780   */\n      0x20\n        /* \"--CODEGEN--\":10766:10775   */\n      dup3\n        /* \"--CODEGEN--\":10757:10764   */\n      dup5\n        /* \"--CODEGEN--\":10753:10776   */\n      sub\n        /* \"--CODEGEN--\":10749:10781   */\n      slt\n        /* \"--CODEGEN--\":10746:10748   */\n      iszero\n      tag_413\n      jumpi\n        /* \"--CODEGEN--\":10794:10795   */\n      0x00\n        /* \"--CODEGEN--\":10791:10792   */\n      dup1\n        /* \"--CODEGEN--\":10784:10796   */\n      revert\n        /* \"--CODEGEN--\":10746:10748   */\n    tag_413:\n        /* \"--CODEGEN--\":10829:10830   */\n      0x00\n        /* \"--CODEGEN--\":10846:10907   */\n      tag_414\n        /* \"--CODEGEN--\":10899:10906   */\n      dup5\n        /* \"--CODEGEN--\":10890:10896   */\n      dup3\n        /* \"--CODEGEN--\":10879:10888   */\n      dup6\n        /* \"--CODEGEN--\":10875:10897   */\n      add\n        /* \"--CODEGEN--\":10846:10907   */\n      tag_317\n      jump\t// in\n    tag_414:\n        /* \"--CODEGEN--\":10836:10907   */\n      swap2\n      pop\n        /* \"--CODEGEN--\":10808:10913   */\n      pop\n        /* \"--CODEGEN--\":10740:10923   */\n      swap3\n      swap2\n      pop\n      pop\n      jump\t// out\n        /* \"--CODEGEN--\":10930:11169   */\n    tag_20:\n      0x00\n        /* \"--CODEGEN--\":11033:11035   */\n      0x20\n        /* \"--CODEGEN--\":11021:11030   */\n      dup3\n        /* \"--CODEGEN--\":11012:11019   */\n      dup5\n        /* \"--CODEGEN--\":11008:11031   */\n      sub\n        /* \"--CODEGEN--\":11004:11036   */\n      slt\n        /* \"--CODEGEN--\":11001:11003   */\n      iszero\n      tag_416\n      jumpi\n        /* \"--CODEGEN--\":11049:11050   */\n      0x00\n        /* \"--CODEGEN--\":11046:11047   */\n      dup1\n        /* \"--CODEGEN--\":11039:11051   */\n      revert\n        /* \"--CODEGEN--\":11001:11003   */\n    tag_416:\n        /* \"--CODEGEN--\":11084:11085   */\n      0x00\n        /* \"--CODEGEN--\":11101:11153   */\n      tag_417\n        /* \"--CODEGEN--\":11145:11152   */\n      dup5\n        /* \"--CODEGEN--\":11136:11142   */\n      dup3\n        /* \"--CODEGEN--\":11125:11134   */\n      dup6\n        /* \"--CODEGEN--\":11121:11143   */\n      add\n        /* \"--CODEGEN--\":11101:11153   */\n      tag_325\n      jump\t// in\n    tag_417:\n        /* \"--CODEGEN--\":11091:11153   */\n      swap2\n      pop\n        /* \"--CODEGEN--\":11063:11159   */\n      pop\n        /* \"--CODEGEN--\":10995:11169   */\n      swap3\n      swap2\n      pop\n      pop\n      jump\t// out\n        /* \"--CODEGEN--\":11176:11559   */\n    tag_26:\n      0x00\n        /* \"--CODEGEN--\":11308:11310   */\n      0x20\n        /* \"--CODEGEN--\":11296:11305   */\n      dup3\n        /* \"--CODEGEN--\":11287:11294   */\n      dup5\n        /* \"--CODEGEN--\":11283:11306   */\n      sub\n        /* \"--CODEGEN--\":11279:11311   */\n      slt\n        /* \"--CODEGEN--\":11276:11278   */\n      iszero\n      tag_419\n      jumpi\n        /* \"--CODEGEN--\":11324:11325   */\n      0x00\n        /* \"--CODEGEN--\":11321:11322   */\n      dup1\n        /* \"--CODEGEN--\":11314:11326   */\n      revert\n        /* \"--CODEGEN--\":11276:11278   */\n    tag_419:\n        /* \"--CODEGEN--\":11387:11388   */\n      0x00\n        /* \"--CODEGEN--\":11376:11385   */\n      dup3\n        /* \"--CODEGEN--\":11372:11389   */\n      add\n        /* \"--CODEGEN--\":11359:11390   */\n      calldataload\n        /* \"--CODEGEN--\":11410:11428   */\n      0xffffffffffffffff\n        /* \"--CODEGEN--\":11402:11408   */\n      dup2\n        /* \"--CODEGEN--\":11399:11429   */\n      gt\n        /* \"--CODEGEN--\":11396:11398   */\n      iszero\n      tag_420\n      jumpi\n        /* \"--CODEGEN--\":11442:11443   */\n      0x00\n        /* \"--CODEGEN--\":11439:11440   */\n      dup1\n        /* \"--CODEGEN--\":11432:11444   */\n      revert\n        /* \"--CODEGEN--\":11396:11398   */\n    tag_420:\n        /* \"--CODEGEN--\":11462:11543   */\n      tag_421\n        /* \"--CODEGEN--\":11535:11542   */\n      dup5\n        /* \"--CODEGEN--\":11526:11532   */\n      dup3\n        /* \"--CODEGEN--\":11515:11524   */\n      dup6\n        /* \"--CODEGEN--\":11511:11533   */\n      add\n        /* \"--CODEGEN--\":11462:11543   */\n      tag_345\n      jump\t// in\n    tag_421:\n        /* \"--CODEGEN--\":11452:11543   */\n      swap2\n      pop\n        /* \"--CODEGEN--\":11338:11549   */\n      pop\n        /* \"--CODEGEN--\":11270:11559   */\n      swap3\n      swap2\n      pop\n      pop\n      jump\t// out\n        /* \"--CODEGEN--\":11567:11740   */\n    tag_422:\n      0x00\n        /* \"--CODEGEN--\":11654:11700   */\n      tag_424\n        /* \"--CODEGEN--\":11696:11699   */\n      dup4\n        /* \"--CODEGEN--\":11688:11694   */\n      dup4\n        /* \"--CODEGEN--\":11654:11700   */\n      tag_425\n      jump\t// in\n    tag_424:\n        /* \"--CODEGEN--\":11729:11733   */\n      0x20\n        /* \"--CODEGEN--\":11724:11727   */\n      dup4\n        /* \"--CODEGEN--\":11720:11734   */\n      add\n        /* \"--CODEGEN--\":11706:11734   */\n      swap1\n      pop\n        /* \"--CODEGEN--\":11647:11740   */\n      swap3\n      swap2\n      pop\n      pop\n      jump\t// out\n        /* \"--CODEGEN--\":11748:11851   */\n    tag_425:\n        /* \"--CODEGEN--\":11821:11845   */\n      tag_427\n        /* \"--CODEGEN--\":11839:11844   */\n      dup2\n        /* \"--CODEGEN--\":11821:11845   */\n      tag_428\n      jump\t// in\n    tag_427:\n        /* \"--CODEGEN--\":11816:11819   */\n      dup3\n        /* \"--CODEGEN--\":11809:11846   */\n      mstore\n        /* \"--CODEGEN--\":11803:11851   */\n      pop\n      pop\n      jump\t// out\n        /* \"--CODEGEN--\":11858:11971   */\n    tag_429:\n        /* \"--CODEGEN--\":11941:11965   */\n      tag_431\n        /* \"--CODEGEN--\":11959:11964   */\n      dup2\n        /* \"--CODEGEN--\":11941:11965   */\n      tag_428\n      jump\t// in\n    tag_431:\n        /* \"--CODEGEN--\":11936:11939   */\n      dup3\n        /* \"--CODEGEN--\":11929:11966   */\n      mstore\n        /* \"--CODEGEN--\":11923:11971   */\n      pop\n      pop\n      jump\t// out\n        /* \"--CODEGEN--\":12009:12679   */\n    tag_432:\n      0x00\n        /* \"--CODEGEN--\":12144:12198   */\n      tag_434\n        /* \"--CODEGEN--\":12192:12197   */\n      dup3\n        /* \"--CODEGEN--\":12144:12198   */\n      tag_435\n      jump\t// in\n    tag_434:\n        /* \"--CODEGEN--\":12211:12287   */\n      tag_436\n        /* \"--CODEGEN--\":12280:12286   */\n      dup2\n        /* \"--CODEGEN--\":12275:12278   */\n      dup6\n        /* \"--CODEGEN--\":12211:12287   */\n      tag_437\n      jump\t// in\n    tag_436:\n        /* \"--CODEGEN--\":12204:12287   */\n      swap4\n      pop\n        /* \"--CODEGEN--\":12308:12364   */\n      tag_438\n        /* \"--CODEGEN--\":12358:12363   */\n      dup4\n        /* \"--CODEGEN--\":12308:12364   */\n      tag_439\n      jump\t// in\n    tag_438:\n        /* \"--CODEGEN--\":12384:12391   */\n      dup1\n        /* \"--CODEGEN--\":12412:12413   */\n      0x00\n        /* \"--CODEGEN--\":12397:12657   */\n    tag_440:\n        /* \"--CODEGEN--\":12422:12428   */\n      dup4\n        /* \"--CODEGEN--\":12419:12420   */\n      dup2\n        /* \"--CODEGEN--\":12416:12429   */\n      lt\n        /* \"--CODEGEN--\":12397:12657   */\n      iszero\n      tag_442\n      jumpi\n        /* \"--CODEGEN--\":12489:12495   */\n      dup2\n        /* \"--CODEGEN--\":12483:12496   */\n      mload\n        /* \"--CODEGEN--\":12510:12573   */\n      tag_443\n        /* \"--CODEGEN--\":12569:12572   */\n      dup9\n        /* \"--CODEGEN--\":12554:12567   */\n      dup3\n        /* \"--CODEGEN--\":12510:12573   */\n      tag_422\n      jump\t// in\n    tag_443:\n        /* \"--CODEGEN--\":12503:12573   */\n      swap8\n      pop\n        /* \"--CODEGEN--\":12590:12650   */\n      tag_444\n        /* \"--CODEGEN--\":12643:12649   */\n      dup4\n        /* \"--CODEGEN--\":12590:12650   */\n      tag_445\n      jump\t// in\n    tag_444:\n        /* \"--CODEGEN--\":12580:12650   */\n      swap3\n      pop\n        /* \"--CODEGEN--\":12454:12657   */\n      pop\n        /* \"--CODEGEN--\":12444:12445   */\n      0x01\n        /* \"--CODEGEN--\":12441:12442   */\n      dup2\n        /* \"--CODEGEN--\":12437:12446   */\n      add\n        /* \"--CODEGEN--\":12432:12446   */\n      swap1\n      pop\n        /* \"--CODEGEN--\":12397:12657   */\n      jump(tag_440)\n    tag_442:\n        /* \"--CODEGEN--\":12401:12415   */\n      pop\n        /* \"--CODEGEN--\":12670:12673   */\n      dup6\n        /* \"--CODEGEN--\":12663:12673   */\n      swap4\n      pop\n        /* \"--CODEGEN--\":12123:12679   */\n      pop\n      pop\n      pop\n      swap3\n      swap2\n      pop\n      pop\n      jump\t// out\n        /* \"--CODEGEN--\":12718:13408   */\n    tag_446:\n      0x00\n        /* \"--CODEGEN--\":12863:12917   */\n      tag_448\n        /* \"--CODEGEN--\":12911:12916   */\n      dup3\n        /* \"--CODEGEN--\":12863:12917   */\n      tag_435\n      jump\t// in\n    tag_448:\n        /* \"--CODEGEN--\":12930:13016   */\n      tag_449\n        /* \"--CODEGEN--\":13009:13015   */\n      dup2\n        /* \"--CODEGEN--\":13004:13007   */\n      dup6\n        /* \"--CODEGEN--\":12930:13016   */\n      tag_450\n      jump\t// in\n    tag_449:\n        /* \"--CODEGEN--\":12923:13016   */\n      swap4\n      pop\n        /* \"--CODEGEN--\":13037:13093   */\n      tag_451\n        /* \"--CODEGEN--\":13087:13092   */\n      dup4\n        /* \"--CODEGEN--\":13037:13093   */\n      tag_439\n      jump\t// in\n    tag_451:\n        /* \"--CODEGEN--\":13113:13120   */\n      dup1\n        /* \"--CODEGEN--\":13141:13142   */\n      0x00\n        /* \"--CODEGEN--\":13126:13386   */\n    tag_452:\n        /* \"--CODEGEN--\":13151:13157   */\n      dup4\n        /* \"--CODEGEN--\":13148:13149   */\n      dup2\n        /* \"--CODEGEN--\":13145:13158   */\n      lt\n        /* \"--CODEGEN--\":13126:13386   */\n      iszero\n      tag_454\n      jumpi\n        /* \"--CODEGEN--\":13218:13224   */\n      dup2\n        /* \"--CODEGEN--\":13212:13225   */\n      mload\n        /* \"--CODEGEN--\":13239:13302   */\n      tag_455\n        /* \"--CODEGEN--\":13298:13301   */\n      dup9\n        /* \"--CODEGEN--\":13283:13296   */\n      dup3\n        /* \"--CODEGEN--\":13239:13302   */\n      tag_422\n      jump\t// in\n    tag_455:\n        /* \"--CODEGEN--\":13232:13302   */\n      swap8\n      pop\n        /* \"--CODEGEN--\":13319:13379   */\n      tag_456\n        /* \"--CODEGEN--\":13372:13378   */\n      dup4\n        /* \"--CODEGEN--\":13319:13379   */\n      tag_445\n      jump\t// in\n    tag_456:\n        /* \"--CODEGEN--\":13309:13379   */\n      swap3\n      pop\n        /* \"--CODEGEN--\":13183:13386   */\n      pop\n        /* \"--CODEGEN--\":13173:13174   */\n      0x01\n        /* \"--CODEGEN--\":13170:13171   */\n      dup2\n        /* \"--CODEGEN--\":13166:13175   */\n      add\n        /* \"--CODEGEN--\":13161:13175   */\n      swap1\n      pop\n        /* \"--CODEGEN--\":13126:13386   */\n      jump(tag_452)\n    tag_454:\n        /* \"--CODEGEN--\":13130:13144   */\n      pop\n        /* \"--CODEGEN--\":13399:13402   */\n      dup6\n        /* \"--CODEGEN--\":13392:13402   */\n      swap4\n      pop\n        /* \"--CODEGEN--\":12842:13408   */\n      pop\n      pop\n      pop\n      swap3\n      swap2\n      pop\n      pop\n      jump\t// out\n        /* \"--CODEGEN--\":13416:13520   */\n    tag_457:\n        /* \"--CODEGEN--\":13493:13514   */\n      tag_459\n        /* \"--CODEGEN--\":13508:13513   */\n      dup2\n        /* \"--CODEGEN--\":13493:13514   */\n      tag_460\n      jump\t// in\n    tag_459:\n        /* \"--CODEGEN--\":13488:13491   */\n      dup3\n        /* \"--CODEGEN--\":13481:13515   */\n      mstore\n        /* \"--CODEGEN--\":13475:13520   */\n      pop\n      pop\n      jump\t// out\n        /* \"--CODEGEN--\":13527:13640   */\n    tag_461:\n        /* \"--CODEGEN--\":13610:13634   */\n      tag_463\n        /* \"--CODEGEN--\":13628:13633   */\n      dup2\n        /* \"--CODEGEN--\":13610:13634   */\n      tag_464\n      jump\t// in\n    tag_463:\n        /* \"--CODEGEN--\":13605:13608   */\n      dup3\n        /* \"--CODEGEN--\":13598:13635   */\n      mstore\n        /* \"--CODEGEN--\":13592:13640   */\n      pop\n      pop\n      jump\t// out\n        /* \"--CODEGEN--\":13647:13757   */\n    tag_465:\n        /* \"--CODEGEN--\":13728:13751   */\n      tag_467\n        /* \"--CODEGEN--\":13745:13750   */\n      dup2\n        /* \"--CODEGEN--\":13728:13751   */\n      tag_468\n      jump\t// in\n    tag_467:\n        /* \"--CODEGEN--\":13723:13726   */\n      dup3\n        /* \"--CODEGEN--\":13716:13752   */\n      mstore\n        /* \"--CODEGEN--\":13710:13757   */\n      pop\n      pop\n      jump\t// out\n        /* \"--CODEGEN--\":13764:14107   */\n    tag_469:\n      0x00\n        /* \"--CODEGEN--\":13874:13912   */\n      tag_471\n        /* \"--CODEGEN--\":13906:13911   */\n      dup3\n        /* \"--CODEGEN--\":13874:13912   */\n      tag_472\n      jump\t// in\n    tag_471:\n        /* \"--CODEGEN--\":13924:13994   */\n      tag_473\n        /* \"--CODEGEN--\":13987:13993   */\n      dup2\n        /* \"--CODEGEN--\":13982:13985   */\n      dup6\n        /* \"--CODEGEN--\":13924:13994   */\n      tag_474\n      jump\t// in\n    tag_473:\n        /* \"--CODEGEN--\":13917:13994   */\n      swap4\n      pop\n        /* \"--CODEGEN--\":13999:14051   */\n      tag_475\n        /* \"--CODEGEN--\":14044:14050   */\n      dup2\n        /* \"--CODEGEN--\":14039:14042   */\n      dup6\n        /* \"--CODEGEN--\":14032:14036   */\n      0x20\n        /* \"--CODEGEN--\":14025:14030   */\n      dup7\n        /* \"--CODEGEN--\":14021:14037   */\n      add\n        /* \"--CODEGEN--\":13999:14051   */\n      tag_476\n      jump\t// in\n    tag_475:\n        /* \"--CODEGEN--\":14072:14101   */\n      tag_477\n        /* \"--CODEGEN--\":14094:14100   */\n      dup2\n        /* \"--CODEGEN--\":14072:14101   */\n      tag_478\n      jump\t// in\n    tag_477:\n        /* \"--CODEGEN--\":14067:14070   */\n      dup5\n        /* \"--CODEGEN--\":14063:14102   */\n      add\n        /* \"--CODEGEN--\":14056:14102   */\n      swap2\n      pop\n        /* \"--CODEGEN--\":13854:14107   */\n      pop\n      swap3\n      swap2\n      pop\n      pop\n      jump\t// out\n        /* \"--CODEGEN--\":14114:14256   */\n    tag_479:\n        /* \"--CODEGEN--\":14205:14250   */\n      tag_481\n        /* \"--CODEGEN--\":14244:14249   */\n      dup2\n        /* \"--CODEGEN--\":14205:14250   */\n      tag_482\n      jump\t// in\n    tag_481:\n        /* \"--CODEGEN--\":14200:14203   */\n      dup3\n        /* \"--CODEGEN--\":14193:14251   */\n      mstore\n        /* \"--CODEGEN--\":14187:14256   */\n      pop\n      pop\n      jump\t// out\n        /* \"--CODEGEN--\":14263:14405   */\n    tag_483:\n        /* \"--CODEGEN--\":14354:14399   */\n      tag_485\n        /* \"--CODEGEN--\":14393:14398   */\n      dup2\n        /* \"--CODEGEN--\":14354:14399   */\n      tag_486\n      jump\t// in\n    tag_485:\n        /* \"--CODEGEN--\":14349:14352   */\n      dup3\n        /* \"--CODEGEN--\":14342:14400   */\n      mstore\n        /* \"--CODEGEN--\":14336:14405   */\n      pop\n      pop\n      jump\t// out\n        /* \"--CODEGEN--\":14413:14783   */\n    tag_487:\n      0x00\n        /* \"--CODEGEN--\":14573:14640   */\n      tag_489\n        /* \"--CODEGEN--\":14637:14639   */\n      0x21\n        /* \"--CODEGEN--\":14632:14635   */\n      dup4\n        /* \"--CODEGEN--\":14573:14640   */\n      tag_490\n      jump\t// in\n    tag_489:\n        /* \"--CODEGEN--\":14566:14640   */\n      swap2\n      pop\n        /* \"--CODEGEN--\":14673:14707   */\n      0x234e465450726f7879237665726966793a205452414e534645525f4558504952\n        /* \"--CODEGEN--\":14669:14670   */\n      0x00\n        /* \"--CODEGEN--\":14664:14667   */\n      dup4\n        /* \"--CODEGEN--\":14660:14671   */\n      add\n        /* \"--CODEGEN--\":14653:14708   */\n      mstore\n        /* \"--CODEGEN--\":14742:14745   */\n      0x5900000000000000000000000000000000000000000000000000000000000000\n        /* \"--CODEGEN--\":14737:14739   */\n      0x20\n        /* \"--CODEGEN--\":14732:14735   */\n      dup4\n        /* \"--CODEGEN--\":14728:14740   */\n      add\n        /* \"--CODEGEN--\":14721:14746   */\n      mstore\n        /* \"--CODEGEN--\":14774:14776   */\n      0x40\n        /* \"--CODEGEN--\":14769:14772   */\n      dup3\n        /* \"--CODEGEN--\":14765:14777   */\n      add\n        /* \"--CODEGEN--\":14758:14777   */\n      swap1\n      pop\n        /* \"--CODEGEN--\":14559:14783   */\n      swap2\n      swap1\n      pop\n      jump\t// out\n        /* \"--CODEGEN--\":14792:15166   */\n    tag_491:\n      0x00\n        /* \"--CODEGEN--\":14952:15019   */\n      tag_493\n        /* \"--CODEGEN--\":15016:15018   */\n      0x25\n        /* \"--CODEGEN--\":15011:15014   */\n      dup4\n        /* \"--CODEGEN--\":14952:15019   */\n      tag_490\n      jump\t// in\n    tag_493:\n        /* \"--CODEGEN--\":14945:15019   */\n      swap2\n      pop\n        /* \"--CODEGEN--\":15052:15086   */\n      0x234e465450726f787923766572696669636174696f6e3a204241445f5349474e\n        /* \"--CODEGEN--\":15048:15049   */\n      0x00\n        /* \"--CODEGEN--\":15043:15046   */\n      dup4\n        /* \"--CODEGEN--\":15039:15050   */\n      add\n        /* \"--CODEGEN--\":15032:15087   */\n      mstore\n        /* \"--CODEGEN--\":15121:15128   */\n      0x4154555245000000000000000000000000000000000000000000000000000000\n        /* \"--CODEGEN--\":15116:15118   */\n      0x20\n        /* \"--CODEGEN--\":15111:15114   */\n      dup4\n        /* \"--CODEGEN--\":15107:15119   */\n      add\n        /* \"--CODEGEN--\":15100:15129   */\n      mstore\n        /* \"--CODEGEN--\":15157:15159   */\n      0x40\n        /* \"--CODEGEN--\":15152:15155   */\n      dup3\n        /* \"--CODEGEN--\":15148:15160   */\n      add\n        /* \"--CODEGEN--\":15141:15160   */\n      swap1\n      pop\n        /* \"--CODEGEN--\":14938:15166   */\n      swap2\n      swap1\n      pop\n      jump\t// out\n        /* \"--CODEGEN--\":15175:15550   */\n    tag_494:\n      0x00\n        /* \"--CODEGEN--\":15335:15402   */\n      tag_496\n        /* \"--CODEGEN--\":15399:15401   */\n      0x26\n        /* \"--CODEGEN--\":15394:15397   */\n      dup4\n        /* \"--CODEGEN--\":15335:15402   */\n      tag_490\n      jump\t// in\n    tag_496:\n        /* \"--CODEGEN--\":15328:15402   */\n      swap2\n      pop\n        /* \"--CODEGEN--\":15435:15469   */\n      0x4f776e61626c653a206e6577206f776e657220697320746865207a65726f2061\n        /* \"--CODEGEN--\":15431:15432   */\n      0x00\n        /* \"--CODEGEN--\":15426:15429   */\n      dup4\n        /* \"--CODEGEN--\":15422:15433   */\n      add\n        /* \"--CODEGEN--\":15415:15470   */\n      mstore\n        /* \"--CODEGEN--\":15504:15512   */\n      0x6464726573730000000000000000000000000000000000000000000000000000\n        /* \"--CODEGEN--\":15499:15501   */\n      0x20\n        /* \"--CODEGEN--\":15494:15497   */\n      dup4\n        /* \"--CODEGEN--\":15490:15502   */\n      add\n        /* \"--CODEGEN--\":15483:15513   */\n      mstore\n        /* \"--CODEGEN--\":15541:15543   */\n      0x40\n        /* \"--CODEGEN--\":15536:15539   */\n      dup3\n        /* \"--CODEGEN--\":15532:15544   */\n      add\n        /* \"--CODEGEN--\":15525:15544   */\n      swap1\n      pop\n        /* \"--CODEGEN--\":15321:15550   */\n      swap2\n      swap1\n      pop\n      jump\t// out\n        /* \"--CODEGEN--\":15559:15933   */\n    tag_497:\n      0x00\n        /* \"--CODEGEN--\":15719:15786   */\n      tag_499\n        /* \"--CODEGEN--\":15783:15785   */\n      0x25\n        /* \"--CODEGEN--\":15778:15781   */\n      dup4\n        /* \"--CODEGEN--\":15719:15786   */\n      tag_490\n      jump\t// in\n    tag_499:\n        /* \"--CODEGEN--\":15712:15786   */\n      swap2\n      pop\n        /* \"--CODEGEN--\":15819:15853   */\n      0x234e465450726f7879237665726966793a204241445f5253565f4c4953545f4c\n        /* \"--CODEGEN--\":15815:15816   */\n      0x00\n        /* \"--CODEGEN--\":15810:15813   */\n      dup4\n        /* \"--CODEGEN--\":15806:15817   */\n      add\n        /* \"--CODEGEN--\":15799:15854   */\n      mstore\n        /* \"--CODEGEN--\":15888:15895   */\n      0x454e475448000000000000000000000000000000000000000000000000000000\n        /* \"--CODEGEN--\":15883:15885   */\n      0x20\n        /* \"--CODEGEN--\":15878:15881   */\n      dup4\n        /* \"--CODEGEN--\":15874:15886   */\n      add\n        /* \"--CODEGEN--\":15867:15896   */\n      mstore\n        /* \"--CODEGEN--\":15924:15926   */\n      0x40\n        /* \"--CODEGEN--\":15919:15922   */\n      dup3\n        /* \"--CODEGEN--\":15915:15927   */\n      add\n        /* \"--CODEGEN--\":15908:15927   */\n      swap1\n      pop\n        /* \"--CODEGEN--\":15705:15933   */\n      swap2\n      swap1\n      pop\n      jump\t// out\n        /* \"--CODEGEN--\":15942:16332   */\n    tag_500:\n      0x00\n        /* \"--CODEGEN--\":16102:16169   */\n      tag_502\n        /* \"--CODEGEN--\":16166:16168   */\n      0x35\n        /* \"--CODEGEN--\":16161:16164   */\n      dup4\n        /* \"--CODEGEN--\":16102:16169   */\n      tag_490\n      jump\t// in\n    tag_502:\n        /* \"--CODEGEN--\":16095:16169   */\n      swap2\n      pop\n        /* \"--CODEGEN--\":16202:16236   */\n      0x546865204e465420636f6e74726163742068617320616e20696e76616c696420\n        /* \"--CODEGEN--\":16198:16199   */\n      0x00\n        /* \"--CODEGEN--\":16193:16196   */\n      dup4\n        /* \"--CODEGEN--\":16189:16200   */\n      add\n        /* \"--CODEGEN--\":16182:16237   */\n      mstore\n        /* \"--CODEGEN--\":16271:16294   */\n      0x45524337323120696d706c656d656e746174696f6e0000000000000000000000\n        /* \"--CODEGEN--\":16266:16268   */\n      0x20\n        /* \"--CODEGEN--\":16261:16264   */\n      dup4\n        /* \"--CODEGEN--\":16257:16269   */\n      add\n        /* \"--CODEGEN--\":16250:16295   */\n      mstore\n        /* \"--CODEGEN--\":16323:16325   */\n      0x40\n        /* \"--CODEGEN--\":16318:16321   */\n      dup3\n        /* \"--CODEGEN--\":16314:16326   */\n      add\n        /* \"--CODEGEN--\":16307:16326   */\n      swap1\n      pop\n        /* \"--CODEGEN--\":16088:16332   */\n      swap2\n      swap1\n      pop\n      jump\t// out\n        /* \"--CODEGEN--\":16341:16726   */\n    tag_503:\n      0x00\n        /* \"--CODEGEN--\":16501:16568   */\n      tag_505\n        /* \"--CODEGEN--\":16565:16567   */\n      0x30\n        /* \"--CODEGEN--\":16560:16563   */\n      dup4\n        /* \"--CODEGEN--\":16501:16568   */\n      tag_490\n      jump\t// in\n    tag_505:\n        /* \"--CODEGEN--\":16494:16568   */\n      swap2\n      pop\n        /* \"--CODEGEN--\":16601:16635   */\n      0x2345524337323150726f7879236f6e45524337323152656365697665643a2042\n        /* \"--CODEGEN--\":16597:16598   */\n      0x00\n        /* \"--CODEGEN--\":16592:16595   */\n      dup4\n        /* \"--CODEGEN--\":16588:16599   */\n      add\n        /* \"--CODEGEN--\":16581:16636   */\n      mstore\n        /* \"--CODEGEN--\":16670:16688   */\n      0x41445f4d494e5f5349474e5f5a45524f00000000000000000000000000000000\n        /* \"--CODEGEN--\":16665:16667   */\n      0x20\n        /* \"--CODEGEN--\":16660:16663   */\n      dup4\n        /* \"--CODEGEN--\":16656:16668   */\n      add\n        /* \"--CODEGEN--\":16649:16689   */\n      mstore\n        /* \"--CODEGEN--\":16717:16719   */\n      0x40\n        /* \"--CODEGEN--\":16712:16715   */\n      dup3\n        /* \"--CODEGEN--\":16708:16720   */\n      add\n        /* \"--CODEGEN--\":16701:16720   */\n      swap1\n      pop\n        /* \"--CODEGEN--\":16487:16726   */\n      swap2\n      swap1\n      pop\n      jump\t// out\n        /* \"--CODEGEN--\":16735:17067   */\n    tag_506:\n      0x00\n        /* \"--CODEGEN--\":16895:16962   */\n      tag_508\n        /* \"--CODEGEN--\":16959:16961   */\n      0x20\n        /* \"--CODEGEN--\":16954:16957   */\n      dup4\n        /* \"--CODEGEN--\":16895:16962   */\n      tag_490\n      jump\t// in\n    tag_508:\n        /* \"--CODEGEN--\":16888:16962   */\n      swap2\n      pop\n        /* \"--CODEGEN--\":16995:17029   */\n      0x234e465450726f7879237665726966793a204f574e45525f4e4f5f4d41544348\n        /* \"--CODEGEN--\":16991:16992   */\n      0x00\n        /* \"--CODEGEN--\":16986:16989   */\n      dup4\n        /* \"--CODEGEN--\":16982:16993   */\n      add\n        /* \"--CODEGEN--\":16975:17030   */\n      mstore\n        /* \"--CODEGEN--\":17058:17060   */\n      0x20\n        /* \"--CODEGEN--\":17053:17056   */\n      dup3\n        /* \"--CODEGEN--\":17049:17061   */\n      add\n        /* \"--CODEGEN--\":17042:17061   */\n      swap1\n      pop\n        /* \"--CODEGEN--\":16881:17067   */\n      swap2\n      swap1\n      pop\n      jump\t// out\n        /* \"--CODEGEN--\":17076:17466   */\n    tag_509:\n      0x00\n        /* \"--CODEGEN--\":17236:17303   */\n      tag_511\n        /* \"--CODEGEN--\":17300:17302   */\n      0x35\n        /* \"--CODEGEN--\":17295:17298   */\n      dup4\n        /* \"--CODEGEN--\":17236:17303   */\n      tag_490\n      jump\t// in\n    tag_511:\n        /* \"--CODEGEN--\":17229:17303   */\n      swap2\n      pop\n        /* \"--CODEGEN--\":17336:17370   */\n      0x234e465450726f787923636865636b41646472657373456d7074793a20414444\n        /* \"--CODEGEN--\":17332:17333   */\n      0x00\n        /* \"--CODEGEN--\":17327:17330   */\n      dup4\n        /* \"--CODEGEN--\":17323:17334   */\n      add\n        /* \"--CODEGEN--\":17316:17371   */\n      mstore\n        /* \"--CODEGEN--\":17405:17428   */\n      0x524553535f4c4953545f4c454e4754485f5a45524f0000000000000000000000\n        /* \"--CODEGEN--\":17400:17402   */\n      0x20\n        /* \"--CODEGEN--\":17395:17398   */\n      dup4\n        /* \"--CODEGEN--\":17391:17403   */\n      add\n        /* \"--CODEGEN--\":17384:17429   */\n      mstore\n        /* \"--CODEGEN--\":17457:17459   */\n      0x40\n        /* \"--CODEGEN--\":17452:17455   */\n      dup3\n        /* \"--CODEGEN--\":17448:17460   */\n      add\n        /* \"--CODEGEN--\":17441:17460   */\n      swap1\n      pop\n        /* \"--CODEGEN--\":17222:17466   */\n      swap2\n      swap1\n      pop\n      jump\t// out\n        /* \"--CODEGEN--\":17475:17852   */\n    tag_512:\n      0x00\n        /* \"--CODEGEN--\":17635:17702   */\n      tag_514\n        /* \"--CODEGEN--\":17699:17701   */\n      0x28\n        /* \"--CODEGEN--\":17694:17697   */\n      dup4\n        /* \"--CODEGEN--\":17635:17702   */\n      tag_490\n      jump\t// in\n    tag_514:\n        /* \"--CODEGEN--\":17628:17702   */\n      swap2\n      pop\n        /* \"--CODEGEN--\":17735:17769   */\n      0x2345524337323150726f7879235f77697468647261773a20414d4f554e545f4f\n        /* \"--CODEGEN--\":17731:17732   */\n      0x00\n        /* \"--CODEGEN--\":17726:17729   */\n      dup4\n        /* \"--CODEGEN--\":17722:17733   */\n      add\n        /* \"--CODEGEN--\":17715:17770   */\n      mstore\n        /* \"--CODEGEN--\":17804:17814   */\n      0x4e4c595f42455f31000000000000000000000000000000000000000000000000\n        /* \"--CODEGEN--\":17799:17801   */\n      0x20\n        /* \"--CODEGEN--\":17794:17797   */\n      dup4\n        /* \"--CODEGEN--\":17790:17802   */\n      add\n        /* \"--CODEGEN--\":17783:17815   */\n      mstore\n        /* \"--CODEGEN--\":17843:17845   */\n      0x40\n        /* \"--CODEGEN--\":17838:17841   */\n      dup3\n        /* \"--CODEGEN--\":17834:17846   */\n      add\n        /* \"--CODEGEN--\":17827:17846   */\n      swap1\n      pop\n        /* \"--CODEGEN--\":17621:17852   */\n      swap2\n      swap1\n      pop\n      jump\t// out\n        /* \"--CODEGEN--\":17861:18191   */\n    tag_515:\n      0x00\n        /* \"--CODEGEN--\":18021:18088   */\n      tag_517\n        /* \"--CODEGEN--\":18085:18087   */\n      0x1e\n        /* \"--CODEGEN--\":18080:18083   */\n      dup4\n        /* \"--CODEGEN--\":18021:18088   */\n      tag_490\n      jump\t// in\n    tag_517:\n        /* \"--CODEGEN--\":18014:18088   */\n      swap2\n      pop\n        /* \"--CODEGEN--\":18121:18153   */\n      0x234e465450726f7879237665726966793a20414444524553535f5a45524f0000\n        /* \"--CODEGEN--\":18117:18118   */\n      0x00\n        /* \"--CODEGEN--\":18112:18115   */\n      dup4\n        /* \"--CODEGEN--\":18108:18119   */\n      add\n        /* \"--CODEGEN--\":18101:18154   */\n      mstore\n        /* \"--CODEGEN--\":18182:18184   */\n      0x20\n        /* \"--CODEGEN--\":18177:18180   */\n      dup3\n        /* \"--CODEGEN--\":18173:18185   */\n      add\n        /* \"--CODEGEN--\":18166:18185   */\n      swap1\n      pop\n        /* \"--CODEGEN--\":18007:18191   */\n      swap2\n      swap1\n      pop\n      jump\t// out\n        /* \"--CODEGEN--\":18200:18532   */\n    tag_518:\n      0x00\n        /* \"--CODEGEN--\":18360:18427   */\n      tag_520\n        /* \"--CODEGEN--\":18424:18426   */\n      0x20\n        /* \"--CODEGEN--\":18419:18422   */\n      dup4\n        /* \"--CODEGEN--\":18360:18427   */\n      tag_490\n      jump\t// in\n    tag_520:\n        /* \"--CODEGEN--\":18353:18427   */\n      swap2\n      pop\n        /* \"--CODEGEN--\":18460:18494   */\n      0x4f776e61626c653a2063616c6c6572206973206e6f7420746865206f776e6572\n        /* \"--CODEGEN--\":18456:18457   */\n      0x00\n        /* \"--CODEGEN--\":18451:18454   */\n      dup4\n        /* \"--CODEGEN--\":18447:18458   */\n      add\n        /* \"--CODEGEN--\":18440:18495   */\n      mstore\n        /* \"--CODEGEN--\":18523:18525   */\n      0x20\n        /* \"--CODEGEN--\":18518:18521   */\n      dup3\n        /* \"--CODEGEN--\":18514:18526   */\n      add\n        /* \"--CODEGEN--\":18507:18526   */\n      swap1\n      pop\n        /* \"--CODEGEN--\":18346:18532   */\n      swap2\n      swap1\n      pop\n      jump\t// out\n        /* \"--CODEGEN--\":18541:18918   */\n    tag_521:\n      0x00\n        /* \"--CODEGEN--\":18701:18768   */\n      tag_523\n        /* \"--CODEGEN--\":18765:18767   */\n      0x28\n        /* \"--CODEGEN--\":18760:18763   */\n      dup4\n        /* \"--CODEGEN--\":18701:18768   */\n      tag_490\n      jump\t// in\n    tag_523:\n        /* \"--CODEGEN--\":18694:18768   */\n      swap2\n      pop\n        /* \"--CODEGEN--\":18801:18835   */\n      0x2345524337323150726f7879235f7472616e736665723a20414d4f554e545f4f\n        /* \"--CODEGEN--\":18797:18798   */\n      0x00\n        /* \"--CODEGEN--\":18792:18795   */\n      dup4\n        /* \"--CODEGEN--\":18788:18799   */\n      add\n        /* \"--CODEGEN--\":18781:18836   */\n      mstore\n        /* \"--CODEGEN--\":18870:18880   */\n      0x4e4c595f42455f31000000000000000000000000000000000000000000000000\n        /* \"--CODEGEN--\":18865:18867   */\n      0x20\n        /* \"--CODEGEN--\":18860:18863   */\n      dup4\n        /* \"--CODEGEN--\":18856:18868   */\n      add\n        /* \"--CODEGEN--\":18849:18881   */\n      mstore\n        /* \"--CODEGEN--\":18909:18911   */\n      0x40\n        /* \"--CODEGEN--\":18904:18907   */\n      dup3\n        /* \"--CODEGEN--\":18900:18912   */\n      add\n        /* \"--CODEGEN--\":18893:18912   */\n      swap1\n      pop\n        /* \"--CODEGEN--\":18687:18918   */\n      swap2\n      swap1\n      pop\n      jump\t// out\n        /* \"--CODEGEN--\":18927:19304   */\n    tag_524:\n      0x00\n        /* \"--CODEGEN--\":19087:19154   */\n      tag_526\n        /* \"--CODEGEN--\":19151:19153   */\n      0x28\n        /* \"--CODEGEN--\":19146:19149   */\n      dup4\n        /* \"--CODEGEN--\":19087:19154   */\n      tag_490\n      jump\t// in\n    tag_526:\n        /* \"--CODEGEN--\":19080:19154   */\n      swap2\n      pop\n        /* \"--CODEGEN--\":19187:19221   */\n      0x234e465450726f7879237472616e736665723a204e4f5f5452414e534645525f\n        /* \"--CODEGEN--\":19183:19184   */\n      0x00\n        /* \"--CODEGEN--\":19178:19181   */\n      dup4\n        /* \"--CODEGEN--\":19174:19185   */\n      add\n        /* \"--CODEGEN--\":19167:19222   */\n      mstore\n        /* \"--CODEGEN--\":19256:19266   */\n      0x5349474e5f455252000000000000000000000000000000000000000000000000\n        /* \"--CODEGEN--\":19251:19253   */\n      0x20\n        /* \"--CODEGEN--\":19246:19249   */\n      dup4\n        /* \"--CODEGEN--\":19242:19254   */\n      add\n        /* \"--CODEGEN--\":19235:19267   */\n      mstore\n        /* \"--CODEGEN--\":19295:19297   */\n      0x40\n        /* \"--CODEGEN--\":19290:19293   */\n      dup3\n        /* \"--CODEGEN--\":19286:19298   */\n      add\n        /* \"--CODEGEN--\":19279:19298   */\n      swap1\n      pop\n        /* \"--CODEGEN--\":19073:19304   */\n      swap2\n      swap1\n      pop\n      jump\t// out\n        /* \"--CODEGEN--\":19313:19698   */\n    tag_527:\n      0x00\n        /* \"--CODEGEN--\":19473:19540   */\n      tag_529\n        /* \"--CODEGEN--\":19537:19539   */\n      0x30\n        /* \"--CODEGEN--\":19532:19535   */\n      dup4\n        /* \"--CODEGEN--\":19473:19540   */\n      tag_490\n      jump\t// in\n    tag_529:\n        /* \"--CODEGEN--\":19466:19540   */\n      swap2\n      pop\n        /* \"--CODEGEN--\":19573:19607   */\n      0x2345524337323150726f7879235f69734552433732313a20494e564c4941445f\n        /* \"--CODEGEN--\":19569:19570   */\n      0x00\n        /* \"--CODEGEN--\":19564:19567   */\n      dup4\n        /* \"--CODEGEN--\":19560:19571   */\n      add\n        /* \"--CODEGEN--\":19553:19608   */\n      mstore\n        /* \"--CODEGEN--\":19642:19660   */\n      0x434f4e54524143545f4144445245535300000000000000000000000000000000\n        /* \"--CODEGEN--\":19637:19639   */\n      0x20\n        /* \"--CODEGEN--\":19632:19635   */\n      dup4\n        /* \"--CODEGEN--\":19628:19640   */\n      add\n        /* \"--CODEGEN--\":19621:19661   */\n      mstore\n        /* \"--CODEGEN--\":19689:19691   */\n      0x40\n        /* \"--CODEGEN--\":19684:19687   */\n      dup3\n        /* \"--CODEGEN--\":19680:19692   */\n      add\n        /* \"--CODEGEN--\":19673:19692   */\n      swap1\n      pop\n        /* \"--CODEGEN--\":19459:19698   */\n      swap2\n      swap1\n      pop\n      jump\t// out\n        /* \"--CODEGEN--\":19707:20083   */\n    tag_530:\n      0x00\n        /* \"--CODEGEN--\":19867:19934   */\n      tag_532\n        /* \"--CODEGEN--\":19931:19933   */\n      0x27\n        /* \"--CODEGEN--\":19926:19929   */\n      dup4\n        /* \"--CODEGEN--\":19867:19934   */\n      tag_490\n      jump\t// in\n    tag_532:\n        /* \"--CODEGEN--\":19860:19934   */\n      swap2\n      pop\n        /* \"--CODEGEN--\":19967:20001   */\n      0x234e465450726f7879237665726966793a205349474e5f434f554e545f544f4f\n        /* \"--CODEGEN--\":19963:19964   */\n      0x00\n        /* \"--CODEGEN--\":19958:19961   */\n      dup4\n        /* \"--CODEGEN--\":19954:19965   */\n      add\n        /* \"--CODEGEN--\":19947:20002   */\n      mstore\n        /* \"--CODEGEN--\":20036:20045   */\n      0x5f4c4954544c4500000000000000000000000000000000000000000000000000\n        /* \"--CODEGEN--\":20031:20033   */\n      0x20\n        /* \"--CODEGEN--\":20026:20029   */\n      dup4\n        /* \"--CODEGEN--\":20022:20034   */\n      add\n        /* \"--CODEGEN--\":20015:20046   */\n      mstore\n        /* \"--CODEGEN--\":20074:20076   */\n      0x40\n        /* \"--CODEGEN--\":20069:20072   */\n      dup3\n        /* \"--CODEGEN--\":20065:20077   */\n      add\n        /* \"--CODEGEN--\":20058:20077   */\n      swap1\n      pop\n        /* \"--CODEGEN--\":19853:20083   */\n      swap2\n      swap1\n      pop\n      jump\t// out\n        /* \"--CODEGEN--\":20092:20473   */\n    tag_533:\n      0x00\n        /* \"--CODEGEN--\":20252:20319   */\n      tag_535\n        /* \"--CODEGEN--\":20316:20318   */\n      0x2c\n        /* \"--CODEGEN--\":20311:20314   */\n      dup4\n        /* \"--CODEGEN--\":20252:20319   */\n      tag_490\n      jump\t// in\n    tag_535:\n        /* \"--CODEGEN--\":20245:20319   */\n      swap2\n      pop\n        /* \"--CODEGEN--\":20352:20386   */\n      0x2345524337323150726f7879236f6e45524337323152656365697665643a204e\n        /* \"--CODEGEN--\":20348:20349   */\n      0x00\n        /* \"--CODEGEN--\":20343:20346   */\n      dup4\n        /* \"--CODEGEN--\":20339:20350   */\n      add\n        /* \"--CODEGEN--\":20332:20387   */\n      mstore\n        /* \"--CODEGEN--\":20421:20435   */\n      0x4f545f4f574e5f544f4b454e0000000000000000000000000000000000000000\n        /* \"--CODEGEN--\":20416:20418   */\n      0x20\n        /* \"--CODEGEN--\":20411:20414   */\n      dup4\n        /* \"--CODEGEN--\":20407:20419   */\n      add\n        /* \"--CODEGEN--\":20400:20436   */\n      mstore\n        /* \"--CODEGEN--\":20464:20466   */\n      0x40\n        /* \"--CODEGEN--\":20459:20462   */\n      dup3\n        /* \"--CODEGEN--\":20455:20467   */\n      add\n        /* \"--CODEGEN--\":20448:20467   */\n      swap1\n      pop\n        /* \"--CODEGEN--\":20238:20473   */\n      swap2\n      swap1\n      pop\n      jump\t// out\n        /* \"--CODEGEN--\":20482:20856   */\n    tag_536:\n      0x00\n        /* \"--CODEGEN--\":20642:20709   */\n      tag_538\n        /* \"--CODEGEN--\":20706:20708   */\n      0x25\n        /* \"--CODEGEN--\":20701:20704   */\n      dup4\n        /* \"--CODEGEN--\":20642:20709   */\n      tag_490\n      jump\t// in\n    tag_538:\n        /* \"--CODEGEN--\":20635:20709   */\n      swap2\n      pop\n        /* \"--CODEGEN--\":20742:20776   */\n      0x234e465450726f787923636865636b4f776e6572733a204241445f5349474e5f\n        /* \"--CODEGEN--\":20738:20739   */\n      0x00\n        /* \"--CODEGEN--\":20733:20736   */\n      dup4\n        /* \"--CODEGEN--\":20729:20740   */\n      add\n        /* \"--CODEGEN--\":20722:20777   */\n      mstore\n        /* \"--CODEGEN--\":20811:20818   */\n      0x434f554e54000000000000000000000000000000000000000000000000000000\n        /* \"--CODEGEN--\":20806:20808   */\n      0x20\n        /* \"--CODEGEN--\":20801:20804   */\n      dup4\n        /* \"--CODEGEN--\":20797:20809   */\n      add\n        /* \"--CODEGEN--\":20790:20819   */\n      mstore\n        /* \"--CODEGEN--\":20847:20849   */\n      0x40\n        /* \"--CODEGEN--\":20842:20845   */\n      dup3\n        /* \"--CODEGEN--\":20838:20850   */\n      add\n        /* \"--CODEGEN--\":20831:20850   */\n      swap1\n      pop\n        /* \"--CODEGEN--\":20628:20856   */\n      swap2\n      swap1\n      pop\n      jump\t// out\n        /* \"--CODEGEN--\":20919:21683   */\n    tag_539:\n      0x00\n        /* \"--CODEGEN--\":21068:21072   */\n      0x60\n        /* \"--CODEGEN--\":21063:21066   */\n      dup4\n        /* \"--CODEGEN--\":21059:21073   */\n      add\n        /* \"--CODEGEN--\":21155:21159   */\n      0x00\n        /* \"--CODEGEN--\":21148:21153   */\n      dup4\n        /* \"--CODEGEN--\":21144:21160   */\n      add\n        /* \"--CODEGEN--\":21138:21161   */\n      mload\n        /* \"--CODEGEN--\":21167:21230   */\n      tag_541\n        /* \"--CODEGEN--\":21224:21228   */\n      0x00\n        /* \"--CODEGEN--\":21219:21222   */\n      dup7\n        /* \"--CODEGEN--\":21215:21229   */\n      add\n        /* \"--CODEGEN--\":21201:21213   */\n      dup3\n        /* \"--CODEGEN--\":21167:21230   */\n      tag_542\n      jump\t// in\n    tag_541:\n        /* \"--CODEGEN--\":21088:21236   */\n      pop\n        /* \"--CODEGEN--\":21314:21318   */\n      0x20\n        /* \"--CODEGEN--\":21307:21312   */\n      dup4\n        /* \"--CODEGEN--\":21303:21319   */\n      add\n        /* \"--CODEGEN--\":21297:21320   */\n      mload\n        /* \"--CODEGEN--\":21326:21389   */\n      tag_543\n        /* \"--CODEGEN--\":21383:21387   */\n      0x20\n        /* \"--CODEGEN--\":21378:21381   */\n      dup7\n        /* \"--CODEGEN--\":21374:21388   */\n      add\n        /* \"--CODEGEN--\":21360:21372   */\n      dup3\n        /* \"--CODEGEN--\":21326:21389   */\n      tag_542\n      jump\t// in\n    tag_543:\n        /* \"--CODEGEN--\":21246:21395   */\n      pop\n        /* \"--CODEGEN--\":21470:21474   */\n      0x40\n        /* \"--CODEGEN--\":21463:21468   */\n      dup4\n        /* \"--CODEGEN--\":21459:21475   */\n      add\n        /* \"--CODEGEN--\":21453:21476   */\n      mload\n        /* \"--CODEGEN--\":21522:21525   */\n      dup5\n        /* \"--CODEGEN--\":21516:21520   */\n      dup3\n        /* \"--CODEGEN--\":21512:21526   */\n      sub\n        /* \"--CODEGEN--\":21505:21509   */\n      0x40\n        /* \"--CODEGEN--\":21500:21503   */\n      dup7\n        /* \"--CODEGEN--\":21496:21510   */\n      add\n        /* \"--CODEGEN--\":21489:21527   */\n      mstore\n        /* \"--CODEGEN--\":21542:21645   */\n      tag_544\n        /* \"--CODEGEN--\":21640:21644   */\n      dup3\n        /* \"--CODEGEN--\":21626:21638   */\n      dup3\n        /* \"--CODEGEN--\":21542:21645   */\n      tag_432\n      jump\t// in\n    tag_544:\n        /* \"--CODEGEN--\":21534:21645   */\n      swap2\n      pop\n        /* \"--CODEGEN--\":21405:21657   */\n      pop\n        /* \"--CODEGEN--\":21674:21678   */\n      dup1\n        /* \"--CODEGEN--\":21667:21678   */\n      swap2\n      pop\n        /* \"--CODEGEN--\":21041:21683   */\n      pop\n      swap3\n      swap2\n      pop\n      pop\n      jump\t// out\n        /* \"--CODEGEN--\":21690:21793   */\n    tag_542:\n        /* \"--CODEGEN--\":21763:21787   */\n      tag_546\n        /* \"--CODEGEN--\":21781:21786   */\n      dup2\n        /* \"--CODEGEN--\":21763:21787   */\n      tag_547\n      jump\t// in\n    tag_546:\n        /* \"--CODEGEN--\":21758:21761   */\n      dup3\n        /* \"--CODEGEN--\":21751:21788   */\n      mstore\n        /* \"--CODEGEN--\":21745:21793   */\n      pop\n      pop\n      jump\t// out\n        /* \"--CODEGEN--\":21800:21913   */\n    tag_548:\n        /* \"--CODEGEN--\":21883:21907   */\n      tag_550\n        /* \"--CODEGEN--\":21901:21906   */\n      dup2\n        /* \"--CODEGEN--\":21883:21907   */\n      tag_547\n      jump\t// in\n    tag_550:\n        /* \"--CODEGEN--\":21878:21881   */\n      dup3\n        /* \"--CODEGEN--\":21871:21908   */\n      mstore\n        /* \"--CODEGEN--\":21865:21913   */\n      pop\n      pop\n      jump\t// out\n        /* \"--CODEGEN--\":21920:22027   */\n    tag_551:\n        /* \"--CODEGEN--\":21999:22021   */\n      tag_553\n        /* \"--CODEGEN--\":22015:22020   */\n      dup2\n        /* \"--CODEGEN--\":21999:22021   */\n      tag_554\n      jump\t// in\n    tag_553:\n        /* \"--CODEGEN--\":21994:21997   */\n      dup3\n        /* \"--CODEGEN--\":21987:22022   */\n      mstore\n        /* \"--CODEGEN--\":21981:22027   */\n      pop\n      pop\n      jump\t// out\n        /* \"--CODEGEN--\":22034:22256   */\n    tag_66:\n      0x00\n        /* \"--CODEGEN--\":22161:22163   */\n      0x20\n        /* \"--CODEGEN--\":22150:22159   */\n      dup3\n        /* \"--CODEGEN--\":22146:22164   */\n      add\n        /* \"--CODEGEN--\":22138:22164   */\n      swap1\n      pop\n        /* \"--CODEGEN--\":22175:22246   */\n      tag_556\n        /* \"--CODEGEN--\":22243:22244   */\n      0x00\n        /* \"--CODEGEN--\":22232:22241   */\n      dup4\n        /* \"--CODEGEN--\":22228:22245   */\n      add\n        /* \"--CODEGEN--\":22219:22225   */\n      dup5\n        /* \"--CODEGEN--\":22175:22246   */\n      tag_429\n      jump\t// in\n    tag_556:\n        /* \"--CODEGEN--\":22132:22256   */\n      swap3\n      swap2\n      pop\n      pop\n      jump\t// out\n        /* \"--CODEGEN--\":22263:22903   */\n    tag_214:\n      0x00\n        /* \"--CODEGEN--\":22492:22495   */\n      0x80\n        /* \"--CODEGEN--\":22481:22490   */\n      dup3\n        /* \"--CODEGEN--\":22477:22496   */\n      add\n        /* \"--CODEGEN--\":22469:22496   */\n      swap1\n      pop\n        /* \"--CODEGEN--\":22507:22578   */\n      tag_558\n        /* \"--CODEGEN--\":22575:22576   */\n      0x00\n        /* \"--CODEGEN--\":22564:22573   */\n      dup4\n        /* \"--CODEGEN--\":22560:22577   */\n      add\n        /* \"--CODEGEN--\":22551:22557   */\n      dup8\n        /* \"--CODEGEN--\":22507:22578   */\n      tag_429\n      jump\t// in\n    tag_558:\n        /* \"--CODEGEN--\":22589:22661   */\n      tag_559\n        /* \"--CODEGEN--\":22657:22659   */\n      0x20\n        /* \"--CODEGEN--\":22646:22655   */\n      dup4\n        /* \"--CODEGEN--\":22642:22660   */\n      add\n        /* \"--CODEGEN--\":22633:22639   */\n      dup7\n        /* \"--CODEGEN--\":22589:22661   */\n      tag_429\n      jump\t// in\n    tag_559:\n        /* \"--CODEGEN--\":22672:22744   */\n      tag_560\n        /* \"--CODEGEN--\":22740:22742   */\n      0x40\n        /* \"--CODEGEN--\":22729:22738   */\n      dup4\n        /* \"--CODEGEN--\":22725:22743   */\n      add\n        /* \"--CODEGEN--\":22716:22722   */\n      dup6\n        /* \"--CODEGEN--\":22672:22744   */\n      tag_548\n      jump\t// in\n    tag_560:\n        /* \"--CODEGEN--\":22792:22801   */\n      dup2\n        /* \"--CODEGEN--\":22786:22790   */\n      dup2\n        /* \"--CODEGEN--\":22782:22802   */\n      sub\n        /* \"--CODEGEN--\":22777:22779   */\n      0x60\n        /* \"--CODEGEN--\":22766:22775   */\n      dup4\n        /* \"--CODEGEN--\":22762:22780   */\n      add\n        /* \"--CODEGEN--\":22755:22803   */\n      mstore\n        /* \"--CODEGEN--\":22817:22893   */\n      tag_561\n        /* \"--CODEGEN--\":22888:22892   */\n      dup2\n        /* \"--CODEGEN--\":22879:22885   */\n      dup5\n        /* \"--CODEGEN--\":22817:22893   */\n      tag_469\n      jump\t// in\n    tag_561:\n        /* \"--CODEGEN--\":22809:22893   */\n      swap1\n      pop\n        /* \"--CODEGEN--\":22463:22903   */\n      swap6\n      swap5\n      pop\n      pop\n      pop\n      pop\n      pop\n      jump\t// out\n        /* \"--CODEGEN--\":22910:23386   */\n    tag_115:\n      0x00\n        /* \"--CODEGEN--\":23109:23111   */\n      0x60\n        /* \"--CODEGEN--\":23098:23107   */\n      dup3\n        /* \"--CODEGEN--\":23094:23112   */\n      add\n        /* \"--CODEGEN--\":23086:23112   */\n      swap1\n      pop\n        /* \"--CODEGEN--\":23123:23194   */\n      tag_563\n        /* \"--CODEGEN--\":23191:23192   */\n      0x00\n        /* \"--CODEGEN--\":23180:23189   */\n      dup4\n        /* \"--CODEGEN--\":23176:23193   */\n      add\n        /* \"--CODEGEN--\":23167:23173   */\n      dup7\n        /* \"--CODEGEN--\":23123:23194   */\n      tag_429\n      jump\t// in\n    tag_563:\n        /* \"--CODEGEN--\":23205:23285   */\n      tag_564\n        /* \"--CODEGEN--\":23281:23283   */\n      0x20\n        /* \"--CODEGEN--\":23270:23279   */\n      dup4\n        /* \"--CODEGEN--\":23266:23284   */\n      add\n        /* \"--CODEGEN--\":23257:23263   */\n      dup6\n        /* \"--CODEGEN--\":23205:23285   */\n      tag_479\n      jump\t// in\n    tag_564:\n        /* \"--CODEGEN--\":23296:23376   */\n      tag_565\n        /* \"--CODEGEN--\":23372:23374   */\n      0x40\n        /* \"--CODEGEN--\":23361:23370   */\n      dup4\n        /* \"--CODEGEN--\":23357:23375   */\n      add\n        /* \"--CODEGEN--\":23348:23354   */\n      dup5\n        /* \"--CODEGEN--\":23296:23376   */\n      tag_483\n      jump\t// in\n    tag_565:\n        /* \"--CODEGEN--\":23080:23386   */\n      swap5\n      swap4\n      pop\n      pop\n      pop\n      pop\n      jump\t// out\n        /* \"--CODEGEN--\":23393:24629   */\n    tag_77:\n      0x00\n        /* \"--CODEGEN--\":23784:23787   */\n      0x0100\n        /* \"--CODEGEN--\":23773:23782   */\n      dup3\n        /* \"--CODEGEN--\":23769:23788   */\n      add\n        /* \"--CODEGEN--\":23761:23788   */\n      swap1\n      pop\n        /* \"--CODEGEN--\":23799:23870   */\n      tag_567\n        /* \"--CODEGEN--\":23867:23868   */\n      0x00\n        /* \"--CODEGEN--\":23856:23865   */\n      dup4\n        /* \"--CODEGEN--\":23852:23869   */\n      add\n        /* \"--CODEGEN--\":23843:23849   */\n      dup12\n        /* \"--CODEGEN--\":23799:23870   */\n      tag_429\n      jump\t// in\n    tag_567:\n        /* \"--CODEGEN--\":23881:23953   */\n      tag_568\n        /* \"--CODEGEN--\":23949:23951   */\n      0x20\n        /* \"--CODEGEN--\":23938:23947   */\n      dup4\n        /* \"--CODEGEN--\":23934:23952   */\n      add\n        /* \"--CODEGEN--\":23925:23931   */\n      dup11\n        /* \"--CODEGEN--\":23881:23953   */\n      tag_548\n      jump\t// in\n    tag_568:\n        /* \"--CODEGEN--\":23964:24036   */\n      tag_569\n        /* \"--CODEGEN--\":24032:24034   */\n      0x40\n        /* \"--CODEGEN--\":24021:24030   */\n      dup4\n        /* \"--CODEGEN--\":24017:24035   */\n      add\n        /* \"--CODEGEN--\":24008:24014   */\n      dup10\n        /* \"--CODEGEN--\":23964:24036   */\n      tag_429\n      jump\t// in\n    tag_569:\n        /* \"--CODEGEN--\":24084:24093   */\n      dup2\n        /* \"--CODEGEN--\":24078:24082   */\n      dup2\n        /* \"--CODEGEN--\":24074:24094   */\n      sub\n        /* \"--CODEGEN--\":24069:24071   */\n      0x60\n        /* \"--CODEGEN--\":24058:24067   */\n      dup4\n        /* \"--CODEGEN--\":24054:24072   */\n      add\n        /* \"--CODEGEN--\":24047:24095   */\n      mstore\n        /* \"--CODEGEN--\":24109:24217   */\n      tag_570\n        /* \"--CODEGEN--\":24212:24216   */\n      dup2\n        /* \"--CODEGEN--\":24203:24209   */\n      dup9\n        /* \"--CODEGEN--\":24109:24217   */\n      tag_446\n      jump\t// in\n    tag_570:\n        /* \"--CODEGEN--\":24101:24217   */\n      swap1\n      pop\n        /* \"--CODEGEN--\":24228:24301   */\n      tag_571\n        /* \"--CODEGEN--\":24296:24299   */\n      0x80\n        /* \"--CODEGEN--\":24285:24294   */\n      dup4\n        /* \"--CODEGEN--\":24281:24300   */\n      add\n        /* \"--CODEGEN--\":24272:24278   */\n      dup8\n        /* \"--CODEGEN--\":24228:24301   */\n      tag_548\n      jump\t// in\n    tag_571:\n        /* \"--CODEGEN--\":24350:24359   */\n      dup2\n        /* \"--CODEGEN--\":24344:24348   */\n      dup2\n        /* \"--CODEGEN--\":24340:24360   */\n      sub\n        /* \"--CODEGEN--\":24334:24337   */\n      0xa0\n        /* \"--CODEGEN--\":24323:24332   */\n      dup4\n        /* \"--CODEGEN--\":24319:24338   */\n      add\n        /* \"--CODEGEN--\":24312:24361   */\n      mstore\n        /* \"--CODEGEN--\":24375:24451   */\n      tag_572\n        /* \"--CODEGEN--\":24446:24450   */\n      dup2\n        /* \"--CODEGEN--\":24437:24443   */\n      dup7\n        /* \"--CODEGEN--\":24375:24451   */\n      tag_469\n      jump\t// in\n    tag_572:\n        /* \"--CODEGEN--\":24367:24451   */\n      swap1\n      pop\n        /* \"--CODEGEN--\":24462:24535   */\n      tag_573\n        /* \"--CODEGEN--\":24530:24533   */\n      0xc0\n        /* \"--CODEGEN--\":24519:24528   */\n      dup4\n        /* \"--CODEGEN--\":24515:24534   */\n      add\n        /* \"--CODEGEN--\":24506:24512   */\n      dup6\n        /* \"--CODEGEN--\":24462:24535   */\n      tag_548\n      jump\t// in\n    tag_573:\n        /* \"--CODEGEN--\":24546:24619   */\n      tag_574\n        /* \"--CODEGEN--\":24614:24617   */\n      0xe0\n        /* \"--CODEGEN--\":24603:24612   */\n      dup4\n        /* \"--CODEGEN--\":24599:24618   */\n      add\n        /* \"--CODEGEN--\":24590:24596   */\n      dup5\n        /* \"--CODEGEN--\":24546:24619   */\n      tag_548\n      jump\t// in\n    tag_574:\n        /* \"--CODEGEN--\":23755:24629   */\n      swap10\n      swap9\n      pop\n      pop\n      pop\n      pop\n      pop\n      pop\n      pop\n      pop\n      pop\n      jump\t// out\n        /* \"--CODEGEN--\":24636:24846   */\n    tag_23:\n      0x00\n        /* \"--CODEGEN--\":24757:24759   */\n      0x20\n        /* \"--CODEGEN--\":24746:24755   */\n      dup3\n        /* \"--CODEGEN--\":24742:24760   */\n      add\n        /* \"--CODEGEN--\":24734:24760   */\n      swap1\n      pop\n        /* \"--CODEGEN--\":24771:24836   */\n      tag_576\n        /* \"--CODEGEN--\":24833:24834   */\n      0x00\n        /* \"--CODEGEN--\":24822:24831   */\n      dup4\n        /* \"--CODEGEN--\":24818:24835   */\n      add\n        /* \"--CODEGEN--\":24809:24815   */\n      dup5\n        /* \"--CODEGEN--\":24771:24836   */\n      tag_457\n      jump\t// in\n    tag_576:\n        /* \"--CODEGEN--\":24728:24846   */\n      swap3\n      swap2\n      pop\n      pop\n      jump\t// out\n        /* \"--CODEGEN--\":24853:25401   */\n    tag_189:\n      0x00\n        /* \"--CODEGEN--\":25060:25063   */\n      0x80\n        /* \"--CODEGEN--\":25049:25058   */\n      dup3\n        /* \"--CODEGEN--\":25045:25064   */\n      add\n        /* \"--CODEGEN--\":25037:25064   */\n      swap1\n      pop\n        /* \"--CODEGEN--\":25075:25146   */\n      tag_578\n        /* \"--CODEGEN--\":25143:25144   */\n      0x00\n        /* \"--CODEGEN--\":25132:25141   */\n      dup4\n        /* \"--CODEGEN--\":25128:25145   */\n      add\n        /* \"--CODEGEN--\":25119:25125   */\n      dup8\n        /* \"--CODEGEN--\":25075:25146   */\n      tag_461\n      jump\t// in\n    tag_578:\n        /* \"--CODEGEN--\":25157:25225   */\n      tag_579\n        /* \"--CODEGEN--\":25221:25223   */\n      0x20\n        /* \"--CODEGEN--\":25210:25219   */\n      dup4\n        /* \"--CODEGEN--\":25206:25224   */\n      add\n        /* \"--CODEGEN--\":25197:25203   */\n      dup7\n        /* \"--CODEGEN--\":25157:25225   */\n      tag_551\n      jump\t// in\n    tag_579:\n        /* \"--CODEGEN--\":25236:25308   */\n      tag_580\n        /* \"--CODEGEN--\":25304:25306   */\n      0x40\n        /* \"--CODEGEN--\":25293:25302   */\n      dup4\n        /* \"--CODEGEN--\":25289:25307   */\n      add\n        /* \"--CODEGEN--\":25280:25286   */\n      dup6\n        /* \"--CODEGEN--\":25236:25308   */\n      tag_461\n      jump\t// in\n    tag_580:\n        /* \"--CODEGEN--\":25319:25391   */\n      tag_581\n        /* \"--CODEGEN--\":25387:25389   */\n      0x60\n        /* \"--CODEGEN--\":25376:25385   */\n      dup4\n        /* \"--CODEGEN--\":25372:25390   */\n      add\n        /* \"--CODEGEN--\":25363:25369   */\n      dup5\n        /* \"--CODEGEN--\":25319:25391   */\n      tag_461\n      jump\t// in\n    tag_581:\n        /* \"--CODEGEN--\":25031:25401   */\n      swap6\n      swap5\n      pop\n      pop\n      pop\n      pop\n      pop\n      jump\t// out\n        /* \"--CODEGEN--\":25408:25626   */\n    tag_39:\n      0x00\n        /* \"--CODEGEN--\":25533:25535   */\n      0x20\n        /* \"--CODEGEN--\":25522:25531   */\n      dup3\n        /* \"--CODEGEN--\":25518:25536   */\n      add\n        /* \"--CODEGEN--\":25510:25536   */\n      swap1\n      pop\n        /* \"--CODEGEN--\":25547:25616   */\n      tag_583\n        /* \"--CODEGEN--\":25613:25614   */\n      0x00\n        /* \"--CODEGEN--\":25602:25611   */\n      dup4\n        /* \"--CODEGEN--\":25598:25615   */\n      add\n        /* \"--CODEGEN--\":25589:25595   */\n      dup5\n        /* \"--CODEGEN--\":25547:25616   */\n      tag_465\n      jump\t// in\n    tag_583:\n        /* \"--CODEGEN--\":25504:25626   */\n      swap3\n      swap2\n      pop\n      pop\n      jump\t// out\n        /* \"--CODEGEN--\":25633:25939   */\n    tag_29:\n      0x00\n        /* \"--CODEGEN--\":25778:25780   */\n      0x20\n        /* \"--CODEGEN--\":25767:25776   */\n      dup3\n        /* \"--CODEGEN--\":25763:25781   */\n      add\n        /* \"--CODEGEN--\":25755:25781   */\n      swap1\n      pop\n        /* \"--CODEGEN--\":25828:25837   */\n      dup2\n        /* \"--CODEGEN--\":25822:25826   */\n      dup2\n        /* \"--CODEGEN--\":25818:25838   */\n      sub\n        /* \"--CODEGEN--\":25814:25815   */\n      0x00\n        /* \"--CODEGEN--\":25803:25812   */\n      dup4\n        /* \"--CODEGEN--\":25799:25816   */\n      add\n        /* \"--CODEGEN--\":25792:25839   */\n      mstore\n        /* \"--CODEGEN--\":25853:25929   */\n      tag_585\n        /* \"--CODEGEN--\":25924:25928   */\n      dup2\n        /* \"--CODEGEN--\":25915:25921   */\n      dup5\n        /* \"--CODEGEN--\":25853:25929   */\n      tag_469\n      jump\t// in\n    tag_585:\n        /* \"--CODEGEN--\":25845:25929   */\n      swap1\n      pop\n        /* \"--CODEGEN--\":25749:25939   */\n      swap3\n      swap2\n      pop\n      pop\n      jump\t// out\n        /* \"--CODEGEN--\":25946:26362   */\n    tag_157:\n      0x00\n        /* \"--CODEGEN--\":26146:26148   */\n      0x20\n        /* \"--CODEGEN--\":26135:26144   */\n      dup3\n        /* \"--CODEGEN--\":26131:26149   */\n      add\n        /* \"--CODEGEN--\":26123:26149   */\n      swap1\n      pop\n        /* \"--CODEGEN--\":26196:26205   */\n      dup2\n        /* \"--CODEGEN--\":26190:26194   */\n      dup2\n        /* \"--CODEGEN--\":26186:26206   */\n      sub\n        /* \"--CODEGEN--\":26182:26183   */\n      0x00\n        /* \"--CODEGEN--\":26171:26180   */\n      dup4\n        /* \"--CODEGEN--\":26167:26184   */\n      add\n        /* \"--CODEGEN--\":26160:26207   */\n      mstore\n        /* \"--CODEGEN--\":26221:26352   */\n      tag_587\n        /* \"--CODEGEN--\":26347:26351   */\n      dup2\n        /* \"--CODEGEN--\":26221:26352   */\n      tag_487\n      jump\t// in\n    tag_587:\n        /* \"--CODEGEN--\":26213:26352   */\n      swap1\n      pop\n        /* \"--CODEGEN--\":26117:26362   */\n      swap2\n      swap1\n      pop\n      jump\t// out\n        /* \"--CODEGEN--\":26369:26785   */\n    tag_197:\n      0x00\n        /* \"--CODEGEN--\":26569:26571   */\n      0x20\n        /* \"--CODEGEN--\":26558:26567   */\n      dup3\n        /* \"--CODEGEN--\":26554:26572   */\n      add\n        /* \"--CODEGEN--\":26546:26572   */\n      swap1\n      pop\n        /* \"--CODEGEN--\":26619:26628   */\n      dup2\n        /* \"--CODEGEN--\":26613:26617   */\n      dup2\n        /* \"--CODEGEN--\":26609:26629   */\n      sub\n        /* \"--CODEGEN--\":26605:26606   */\n      0x00\n        /* \"--CODEGEN--\":26594:26603   */\n      dup4\n        /* \"--CODEGEN--\":26590:26607   */\n      add\n        /* \"--CODEGEN--\":26583:26630   */\n      mstore\n        /* \"--CODEGEN--\":26644:26775   */\n      tag_589\n        /* \"--CODEGEN--\":26770:26774   */\n      dup2\n        /* \"--CODEGEN--\":26644:26775   */\n      tag_491\n      jump\t// in\n    tag_589:\n        /* \"--CODEGEN--\":26636:26775   */\n      swap1\n      pop\n        /* \"--CODEGEN--\":26540:26785   */\n      swap2\n      swap1\n      pop\n      jump\t// out\n        /* \"--CODEGEN--\":26792:27208   */\n    tag_205:\n      0x00\n        /* \"--CODEGEN--\":26992:26994   */\n      0x20\n        /* \"--CODEGEN--\":26981:26990   */\n      dup3\n        /* \"--CODEGEN--\":26977:26995   */\n      add\n        /* \"--CODEGEN--\":26969:26995   */\n      swap1\n      pop\n        /* \"--CODEGEN--\":27042:27051   */\n      dup2\n        /* \"--CODEGEN--\":27036:27040   */\n      dup2\n        /* \"--CODEGEN--\":27032:27052   */\n      sub\n        /* \"--CODEGEN--\":27028:27029   */\n      0x00\n        /* \"--CODEGEN--\":27017:27026   */\n      dup4\n        /* \"--CODEGEN--\":27013:27030   */\n      add\n        /* \"--CODEGEN--\":27006:27053   */\n      mstore\n        /* \"--CODEGEN--\":27067:27198   */\n      tag_591\n        /* \"--CODEGEN--\":27193:27197   */\n      dup2\n        /* \"--CODEGEN--\":27067:27198   */\n      tag_494\n      jump\t// in\n    tag_591:\n        /* \"--CODEGEN--\":27059:27198   */\n      swap1\n      pop\n        /* \"--CODEGEN--\":26963:27208   */\n      swap2\n      swap1\n      pop\n      jump\t// out\n        /* \"--CODEGEN--\":27215:27631   */\n    tag_173:\n      0x00\n        /* \"--CODEGEN--\":27415:27417   */\n      0x20\n        /* \"--CODEGEN--\":27404:27413   */\n      dup3\n        /* \"--CODEGEN--\":27400:27418   */\n      add\n        /* \"--CODEGEN--\":27392:27418   */\n      swap1\n      pop\n        /* \"--CODEGEN--\":27465:27474   */\n      dup2\n        /* \"--CODEGEN--\":27459:27463   */\n      dup2\n        /* \"--CODEGEN--\":27455:27475   */\n      sub\n        /* \"--CODEGEN--\":27451:27452   */\n      0x00\n        /* \"--CODEGEN--\":27440:27449   */\n      dup4\n        /* \"--CODEGEN--\":27436:27453   */\n      add\n        /* \"--CODEGEN--\":27429:27476   */\n      mstore\n        /* \"--CODEGEN--\":27490:27621   */\n      tag_593\n        /* \"--CODEGEN--\":27616:27620   */\n      dup2\n        /* \"--CODEGEN--\":27490:27621   */\n      tag_497\n      jump\t// in\n    tag_593:\n        /* \"--CODEGEN--\":27482:27621   */\n      swap1\n      pop\n        /* \"--CODEGEN--\":27386:27631   */\n      swap2\n      swap1\n      pop\n      jump\t// out\n        /* \"--CODEGEN--\":27638:28054   */\n    tag_233:\n      0x00\n        /* \"--CODEGEN--\":27838:27840   */\n      0x20\n        /* \"--CODEGEN--\":27827:27836   */\n      dup3\n        /* \"--CODEGEN--\":27823:27841   */\n      add\n        /* \"--CODEGEN--\":27815:27841   */\n      swap1\n      pop\n        /* \"--CODEGEN--\":27888:27897   */\n      dup2\n        /* \"--CODEGEN--\":27882:27886   */\n      dup2\n        /* \"--CODEGEN--\":27878:27898   */\n      sub\n        /* \"--CODEGEN--\":27874:27875   */\n      0x00\n        /* \"--CODEGEN--\":27863:27872   */\n      dup4\n        /* \"--CODEGEN--\":27859:27876   */\n      add\n        /* \"--CODEGEN--\":27852:27899   */\n      mstore\n        /* \"--CODEGEN--\":27913:28044   */\n      tag_595\n        /* \"--CODEGEN--\":28039:28043   */\n      dup2\n        /* \"--CODEGEN--\":27913:28044   */\n      tag_500\n      jump\t// in\n    tag_595:\n        /* \"--CODEGEN--\":27905:28044   */\n      swap1\n      pop\n        /* \"--CODEGEN--\":27809:28054   */\n      swap2\n      swap1\n      pop\n      jump\t// out\n        /* \"--CODEGEN--\":28061:28477   */\n    tag_110:\n      0x00\n        /* \"--CODEGEN--\":28261:28263   */\n      0x20\n        /* \"--CODEGEN--\":28250:28259   */\n      dup3\n        /* \"--CODEGEN--\":28246:28264   */\n      add\n        /* \"--CODEGEN--\":28238:28264   */\n      swap1\n      pop\n        /* \"--CODEGEN--\":28311:28320   */\n      dup2\n        /* \"--CODEGEN--\":28305:28309   */\n      dup2\n        /* \"--CODEGEN--\":28301:28321   */\n      sub\n        /* \"--CODEGEN--\":28297:28298   */\n      0x00\n        /* \"--CODEGEN--\":28286:28295   */\n      dup4\n        /* \"--CODEGEN--\":28282:28299   */\n      add\n        /* \"--CODEGEN--\":28275:28322   */\n      mstore\n        /* \"--CODEGEN--\":28336:28467   */\n      tag_597\n        /* \"--CODEGEN--\":28462:28466   */\n      dup2\n        /* \"--CODEGEN--\":28336:28467   */\n      tag_503\n      jump\t// in\n    tag_597:\n        /* \"--CODEGEN--\":28328:28467   */\n      swap1\n      pop\n        /* \"--CODEGEN--\":28232:28477   */\n      swap2\n      swap1\n      pop\n      jump\t// out\n        /* \"--CODEGEN--\":28484:28900   */\n    tag_167:\n      0x00\n        /* \"--CODEGEN--\":28684:28686   */\n      0x20\n        /* \"--CODEGEN--\":28673:28682   */\n      dup3\n        /* \"--CODEGEN--\":28669:28687   */\n      add\n        /* \"--CODEGEN--\":28661:28687   */\n      swap1\n      pop\n        /* \"--CODEGEN--\":28734:28743   */\n      dup2\n        /* \"--CODEGEN--\":28728:28732   */\n      dup2\n        /* \"--CODEGEN--\":28724:28744   */\n      sub\n        /* \"--CODEGEN--\":28720:28721   */\n      0x00\n        /* \"--CODEGEN--\":28709:28718   */\n      dup4\n        /* \"--CODEGEN--\":28705:28722   */\n      add\n        /* \"--CODEGEN--\":28698:28745   */\n      mstore\n        /* \"--CODEGEN--\":28759:28890   */\n      tag_599\n        /* \"--CODEGEN--\":28885:28889   */\n      dup2\n        /* \"--CODEGEN--\":28759:28890   */\n      tag_506\n      jump\t// in\n    tag_599:\n        /* \"--CODEGEN--\":28751:28890   */\n      swap1\n      pop\n        /* \"--CODEGEN--\":28655:28900   */\n      swap2\n      swap1\n      pop\n      jump\t// out\n        /* \"--CODEGEN--\":28907:29323   */\n    tag_237:\n      0x00\n        /* \"--CODEGEN--\":29107:29109   */\n      0x20\n        /* \"--CODEGEN--\":29096:29105   */\n      dup3\n        /* \"--CODEGEN--\":29092:29110   */\n      add\n        /* \"--CODEGEN--\":29084:29110   */\n      swap1\n      pop\n        /* \"--CODEGEN--\":29157:29166   */\n      dup2\n        /* \"--CODEGEN--\":29151:29155   */\n      dup2\n        /* \"--CODEGEN--\":29147:29167   */\n      sub\n        /* \"--CODEGEN--\":29143:29144   */\n      0x00\n        /* \"--CODEGEN--\":29132:29141   */\n      dup4\n        /* \"--CODEGEN--\":29128:29145   */\n      add\n        /* \"--CODEGEN--\":29121:29168   */\n      mstore\n        /* \"--CODEGEN--\":29182:29313   */\n      tag_601\n        /* \"--CODEGEN--\":29308:29312   */\n      dup2\n        /* \"--CODEGEN--\":29182:29313   */\n      tag_509\n      jump\t// in\n    tag_601:\n        /* \"--CODEGEN--\":29174:29313   */\n      swap1\n      pop\n        /* \"--CODEGEN--\":29078:29323   */\n      swap2\n      swap1\n      pop\n      jump\t// out\n        /* \"--CODEGEN--\":29330:29746   */\n    tag_210:\n      0x00\n        /* \"--CODEGEN--\":29530:29532   */\n      0x20\n        /* \"--CODEGEN--\":29519:29528   */\n      dup3\n        /* \"--CODEGEN--\":29515:29533   */\n      add\n        /* \"--CODEGEN--\":29507:29533   */\n      swap1\n      pop\n        /* \"--CODEGEN--\":29580:29589   */\n      dup2\n        /* \"--CODEGEN--\":29574:29578   */\n      dup2\n        /* \"--CODEGEN--\":29570:29590   */\n      sub\n        /* \"--CODEGEN--\":29566:29567   */\n      0x00\n        /* \"--CODEGEN--\":29555:29564   */\n      dup4\n        /* \"--CODEGEN--\":29551:29568   */\n      add\n        /* \"--CODEGEN--\":29544:29591   */\n      mstore\n        /* \"--CODEGEN--\":29605:29736   */\n      tag_603\n        /* \"--CODEGEN--\":29731:29735   */\n      dup2\n        /* \"--CODEGEN--\":29605:29736   */\n      tag_512\n      jump\t// in\n    tag_603:\n        /* \"--CODEGEN--\":29597:29736   */\n      swap1\n      pop\n        /* \"--CODEGEN--\":29501:29746   */\n      swap2\n      swap1\n      pop\n      jump\t// out\n        /* \"--CODEGEN--\":29753:30169   */\n    tag_163:\n      0x00\n        /* \"--CODEGEN--\":29953:29955   */\n      0x20\n        /* \"--CODEGEN--\":29942:29951   */\n      dup3\n        /* \"--CODEGEN--\":29938:29956   */\n      add\n        /* \"--CODEGEN--\":29930:29956   */\n      swap1\n      pop\n        /* \"--CODEGEN--\":30003:30012   */\n      dup2\n        /* \"--CODEGEN--\":29997:30001   */\n      dup2\n        /* \"--CODEGEN--\":29993:30013   */\n      sub\n        /* \"--CODEGEN--\":29989:29990   */\n      0x00\n        /* \"--CODEGEN--\":29978:29987   */\n      dup4\n        /* \"--CODEGEN--\":29974:29991   */\n      add\n        /* \"--CODEGEN--\":29967:30014   */\n      mstore\n        /* \"--CODEGEN--\":30028:30159   */\n      tag_605\n        /* \"--CODEGEN--\":30154:30158   */\n      dup2\n        /* \"--CODEGEN--\":30028:30159   */\n      tag_515\n      jump\t// in\n    tag_605:\n        /* \"--CODEGEN--\":30020:30159   */\n      swap1\n      pop\n        /* \"--CODEGEN--\":29924:30169   */\n      swap2\n      swap1\n      pop\n      jump\t// out\n        /* \"--CODEGEN--\":30176:30592   */\n    tag_147:\n      0x00\n        /* \"--CODEGEN--\":30376:30378   */\n      0x20\n        /* \"--CODEGEN--\":30365:30374   */\n      dup3\n        /* \"--CODEGEN--\":30361:30379   */\n      add\n        /* \"--CODEGEN--\":30353:30379   */\n      swap1\n      pop\n        /* \"--CODEGEN--\":30426:30435   */\n      dup2\n        /* \"--CODEGEN--\":30420:30424   */\n      dup2\n        /* \"--CODEGEN--\":30416:30436   */\n      sub\n        /* \"--CODEGEN--\":30412:30413   */\n      0x00\n        /* \"--CODEGEN--\":30401:30410   */\n      dup4\n        /* \"--CODEGEN--\":30397:30414   */\n      add\n        /* \"--CODEGEN--\":30390:30437   */\n      mstore\n        /* \"--CODEGEN--\":30451:30582   */\n      tag_607\n        /* \"--CODEGEN--\":30577:30581   */\n      dup2\n        /* \"--CODEGEN--\":30451:30582   */\n      tag_518\n      jump\t// in\n    tag_607:\n        /* \"--CODEGEN--\":30443:30582   */\n      swap1\n      pop\n        /* \"--CODEGEN--\":30347:30592   */\n      swap2\n      swap1\n      pop\n      jump\t// out\n        /* \"--CODEGEN--\":30599:31015   */\n    tag_251:\n      0x00\n        /* \"--CODEGEN--\":30799:30801   */\n      0x20\n        /* \"--CODEGEN--\":30788:30797   */\n      dup3\n        /* \"--CODEGEN--\":30784:30802   */\n      add\n        /* \"--CODEGEN--\":30776:30802   */\n      swap1\n      pop\n        /* \"--CODEGEN--\":30849:30858   */\n      dup2\n        /* \"--CODEGEN--\":30843:30847   */\n      dup2\n        /* \"--CODEGEN--\":30839:30859   */\n      sub\n        /* \"--CODEGEN--\":30835:30836   */\n      0x00\n        /* \"--CODEGEN--\":30824:30833   */\n      dup4\n        /* \"--CODEGEN--\":30820:30837   */\n      add\n        /* \"--CODEGEN--\":30813:30860   */\n      mstore\n        /* \"--CODEGEN--\":30874:31005   */\n      tag_609\n        /* \"--CODEGEN--\":31000:31004   */\n      dup2\n        /* \"--CODEGEN--\":30874:31005   */\n      tag_521\n      jump\t// in\n    tag_609:\n        /* \"--CODEGEN--\":30866:31005   */\n      swap1\n      pop\n        /* \"--CODEGEN--\":30770:31015   */\n      swap2\n      swap1\n      pop\n      jump\t// out\n        /* \"--CODEGEN--\":31022:31438   */\n    tag_86:\n      0x00\n        /* \"--CODEGEN--\":31222:31224   */\n      0x20\n        /* \"--CODEGEN--\":31211:31220   */\n      dup3\n        /* \"--CODEGEN--\":31207:31225   */\n      add\n        /* \"--CODEGEN--\":31199:31225   */\n      swap1\n      pop\n        /* \"--CODEGEN--\":31272:31281   */\n      dup2\n        /* \"--CODEGEN--\":31266:31270   */\n      dup2\n        /* \"--CODEGEN--\":31262:31282   */\n      sub\n        /* \"--CODEGEN--\":31258:31259   */\n      0x00\n        /* \"--CODEGEN--\":31247:31256   */\n      dup4\n        /* \"--CODEGEN--\":31243:31260   */\n      add\n        /* \"--CODEGEN--\":31236:31283   */\n      mstore\n        /* \"--CODEGEN--\":31297:31428   */\n      tag_611\n        /* \"--CODEGEN--\":31423:31427   */\n      dup2\n        /* \"--CODEGEN--\":31297:31428   */\n      tag_524\n      jump\t// in\n    tag_611:\n        /* \"--CODEGEN--\":31289:31428   */\n      swap1\n      pop\n        /* \"--CODEGEN--\":31193:31438   */\n      swap2\n      swap1\n      pop\n      jump\t// out\n        /* \"--CODEGEN--\":31445:31861   */\n    tag_224:\n      0x00\n        /* \"--CODEGEN--\":31645:31647   */\n      0x20\n        /* \"--CODEGEN--\":31634:31643   */\n      dup3\n        /* \"--CODEGEN--\":31630:31648   */\n      add\n        /* \"--CODEGEN--\":31622:31648   */\n      swap1\n      pop\n        /* \"--CODEGEN--\":31695:31704   */\n      dup2\n        /* \"--CODEGEN--\":31689:31693   */\n      dup2\n        /* \"--CODEGEN--\":31685:31705   */\n      sub\n        /* \"--CODEGEN--\":31681:31682   */\n      0x00\n        /* \"--CODEGEN--\":31670:31679   */\n      dup4\n        /* \"--CODEGEN--\":31666:31683   */\n      add\n        /* \"--CODEGEN--\":31659:31706   */\n      mstore\n        /* \"--CODEGEN--\":31720:31851   */\n      tag_613\n        /* \"--CODEGEN--\":31846:31850   */\n      dup2\n        /* \"--CODEGEN--\":31720:31851   */\n      tag_527\n      jump\t// in\n    tag_613:\n        /* \"--CODEGEN--\":31712:31851   */\n      swap1\n      pop\n        /* \"--CODEGEN--\":31616:31861   */\n      swap2\n      swap1\n      pop\n      jump\t// out\n        /* \"--CODEGEN--\":31868:32284   */\n    tag_170:\n      0x00\n        /* \"--CODEGEN--\":32068:32070   */\n      0x20\n        /* \"--CODEGEN--\":32057:32066   */\n      dup3\n        /* \"--CODEGEN--\":32053:32071   */\n      add\n        /* \"--CODEGEN--\":32045:32071   */\n      swap1\n      pop\n        /* \"--CODEGEN--\":32118:32127   */\n      dup2\n        /* \"--CODEGEN--\":32112:32116   */\n      dup2\n        /* \"--CODEGEN--\":32108:32128   */\n      sub\n        /* \"--CODEGEN--\":32104:32105   */\n      0x00\n        /* \"--CODEGEN--\":32093:32102   */\n      dup4\n        /* \"--CODEGEN--\":32089:32106   */\n      add\n        /* \"--CODEGEN--\":32082:32129   */\n      mstore\n        /* \"--CODEGEN--\":32143:32274   */\n      tag_615\n        /* \"--CODEGEN--\":32269:32273   */\n      dup2\n        /* \"--CODEGEN--\":32143:32274   */\n      tag_530\n      jump\t// in\n    tag_615:\n        /* \"--CODEGEN--\":32135:32274   */\n      swap1\n      pop\n        /* \"--CODEGEN--\":32039:32284   */\n      swap2\n      swap1\n      pop\n      jump\t// out\n        /* \"--CODEGEN--\":32291:32707   */\n    tag_102:\n      0x00\n        /* \"--CODEGEN--\":32491:32493   */\n      0x20\n        /* \"--CODEGEN--\":32480:32489   */\n      dup3\n        /* \"--CODEGEN--\":32476:32494   */\n      add\n        /* \"--CODEGEN--\":32468:32494   */\n      swap1\n      pop\n        /* \"--CODEGEN--\":32541:32550   */\n      dup2\n        /* \"--CODEGEN--\":32535:32539   */\n      dup2\n        /* \"--CODEGEN--\":32531:32551   */\n      sub\n        /* \"--CODEGEN--\":32527:32528   */\n      0x00\n        /* \"--CODEGEN--\":32516:32525   */\n      dup4\n        /* \"--CODEGEN--\":32512:32529   */\n      add\n        /* \"--CODEGEN--\":32505:32552   */\n      mstore\n        /* \"--CODEGEN--\":32566:32697   */\n      tag_617\n        /* \"--CODEGEN--\":32692:32696   */\n      dup2\n        /* \"--CODEGEN--\":32566:32697   */\n      tag_533\n      jump\t// in\n    tag_617:\n        /* \"--CODEGEN--\":32558:32697   */\n      swap1\n      pop\n        /* \"--CODEGEN--\":32462:32707   */\n      swap2\n      swap1\n      pop\n      jump\t// out\n        /* \"--CODEGEN--\":32714:33130   */\n    tag_247:\n      0x00\n        /* \"--CODEGEN--\":32914:32916   */\n      0x20\n        /* \"--CODEGEN--\":32903:32912   */\n      dup3\n        /* \"--CODEGEN--\":32899:32917   */\n      add\n        /* \"--CODEGEN--\":32891:32917   */\n      swap1\n      pop\n        /* \"--CODEGEN--\":32964:32973   */\n      dup2\n        /* \"--CODEGEN--\":32958:32962   */\n      dup2\n        /* \"--CODEGEN--\":32954:32974   */\n      sub\n        /* \"--CODEGEN--\":32950:32951   */\n      0x00\n        /* \"--CODEGEN--\":32939:32948   */\n      dup4\n        /* \"--CODEGEN--\":32935:32952   */\n      add\n        /* \"--CODEGEN--\":32928:32975   */\n      mstore\n        /* \"--CODEGEN--\":32989:33120   */\n      tag_619\n        /* \"--CODEGEN--\":33115:33119   */\n      dup2\n        /* \"--CODEGEN--\":32989:33120   */\n      tag_536\n      jump\t// in\n    tag_619:\n        /* \"--CODEGEN--\":32981:33120   */\n      swap1\n      pop\n        /* \"--CODEGEN--\":32885:33130   */\n      swap2\n      swap1\n      pop\n      jump\t// out\n        /* \"--CODEGEN--\":33137:33503   */\n    tag_62:\n      0x00\n        /* \"--CODEGEN--\":33312:33314   */\n      0x20\n        /* \"--CODEGEN--\":33301:33310   */\n      dup3\n        /* \"--CODEGEN--\":33297:33315   */\n      add\n        /* \"--CODEGEN--\":33289:33315   */\n      swap1\n      pop\n        /* \"--CODEGEN--\":33362:33371   */\n      dup2\n        /* \"--CODEGEN--\":33356:33360   */\n      dup2\n        /* \"--CODEGEN--\":33352:33372   */\n      sub\n        /* \"--CODEGEN--\":33348:33349   */\n      0x00\n        /* \"--CODEGEN--\":33337:33346   */\n      dup4\n        /* \"--CODEGEN--\":33333:33350   */\n      add\n        /* \"--CODEGEN--\":33326:33373   */\n      mstore\n        /* \"--CODEGEN--\":33387:33493   */\n      tag_621\n        /* \"--CODEGEN--\":33488:33492   */\n      dup2\n        /* \"--CODEGEN--\":33479:33485   */\n      dup5\n        /* \"--CODEGEN--\":33387:33493   */\n      tag_539\n      jump\t// in\n    tag_621:\n        /* \"--CODEGEN--\":33379:33493   */\n      swap1\n      pop\n        /* \"--CODEGEN--\":33283:33503   */\n      swap3\n      swap2\n      pop\n      pop\n      jump\t// out\n        /* \"--CODEGEN--\":33510:33732   */\n    tag_55:\n      0x00\n        /* \"--CODEGEN--\":33637:33639   */\n      0x20\n        /* \"--CODEGEN--\":33626:33635   */\n      dup3\n        /* \"--CODEGEN--\":33622:33640   */\n      add\n        /* \"--CODEGEN--\":33614:33640   */\n      swap1\n      pop\n        /* \"--CODEGEN--\":33651:33722   */\n      tag_623\n        /* \"--CODEGEN--\":33719:33720   */\n      0x00\n        /* \"--CODEGEN--\":33708:33717   */\n      dup4\n        /* \"--CODEGEN--\":33704:33721   */\n      add\n        /* \"--CODEGEN--\":33695:33701   */\n      dup5\n        /* \"--CODEGEN--\":33651:33722   */\n      tag_548\n      jump\t// in\n    tag_623:\n        /* \"--CODEGEN--\":33608:33732   */\n      swap3\n      swap2\n      pop\n      pop\n      jump\t// out\n        /* \"--CODEGEN--\":33739:33995   */\n    tag_289:\n      0x00\n        /* \"--CODEGEN--\":33801:33803   */\n      0x40\n        /* \"--CODEGEN--\":33795:33804   */\n      mload\n        /* \"--CODEGEN--\":33785:33804   */\n      swap1\n      pop\n        /* \"--CODEGEN--\":33839:33843   */\n      dup2\n        /* \"--CODEGEN--\":33831:33837   */\n      dup2\n        /* \"--CODEGEN--\":33827:33844   */\n      add\n        /* \"--CODEGEN--\":33938:33944   */\n      dup2\n        /* \"--CODEGEN--\":33926:33936   */\n      dup2\n        /* \"--CODEGEN--\":33923:33945   */\n      lt\n        /* \"--CODEGEN--\":33902:33920   */\n      0xffffffffffffffff\n        /* \"--CODEGEN--\":33890:33900   */\n      dup3\n        /* \"--CODEGEN--\":33887:33921   */\n      gt\n        /* \"--CODEGEN--\":33884:33946   */\n      or\n        /* \"--CODEGEN--\":33881:33883   */\n      iszero\n      tag_625\n      jumpi\n        /* \"--CODEGEN--\":33959:33960   */\n      0x00\n        /* \"--CODEGEN--\":33956:33957   */\n      dup1\n        /* \"--CODEGEN--\":33949:33961   */\n      revert\n        /* \"--CODEGEN--\":33881:33883   */\n    tag_625:\n        /* \"--CODEGEN--\":33979:33989   */\n      dup1\n        /* \"--CODEGEN--\":33975:33977   */\n      0x40\n        /* \"--CODEGEN--\":33968:33990   */\n      mstore\n        /* \"--CODEGEN--\":33779:33995   */\n      pop\n      swap2\n      swap1\n      pop\n      jump\t// out\n        /* \"--CODEGEN--\":34002:34306   */\n    tag_288:\n      0x00\n        /* \"--CODEGEN--\":34161:34179   */\n      0xffffffffffffffff\n        /* \"--CODEGEN--\":34153:34159   */\n      dup3\n        /* \"--CODEGEN--\":34150:34180   */\n      gt\n        /* \"--CODEGEN--\":34147:34149   */\n      iszero\n      tag_627\n      jumpi\n        /* \"--CODEGEN--\":34193:34194   */\n      0x00\n        /* \"--CODEGEN--\":34190:34191   */\n      dup1\n        /* \"--CODEGEN--\":34183:34195   */\n      revert\n        /* \"--CODEGEN--\":34147:34149   */\n    tag_627:\n        /* \"--CODEGEN--\":34228:34232   */\n      0x20\n        /* \"--CODEGEN--\":34220:34226   */\n      dup3\n        /* \"--CODEGEN--\":34216:34233   */\n      mul\n        /* \"--CODEGEN--\":34208:34233   */\n      swap1\n      pop\n        /* \"--CODEGEN--\":34291:34295   */\n      0x20\n        /* \"--CODEGEN--\":34285:34289   */\n      dup2\n        /* \"--CODEGEN--\":34281:34296   */\n      add\n        /* \"--CODEGEN--\":34273:34296   */\n      swap1\n      pop\n        /* \"--CODEGEN--\":34084:34306   */\n      swap2\n      swap1\n      pop\n      jump\t// out\n        /* \"--CODEGEN--\":34313:34644   */\n    tag_310:\n      0x00\n        /* \"--CODEGEN--\":34499:34517   */\n      0xffffffffffffffff\n        /* \"--CODEGEN--\":34491:34497   */\n      dup3\n        /* \"--CODEGEN--\":34488:34518   */\n      gt\n        /* \"--CODEGEN--\":34485:34487   */\n      iszero\n      tag_629\n      jumpi\n        /* \"--CODEGEN--\":34531:34532   */\n      0x00\n        /* \"--CODEGEN--\":34528:34529   */\n      dup1\n        /* \"--CODEGEN--\":34521:34533   */\n      revert\n        /* \"--CODEGEN--\":34485:34487   */\n    tag_629:\n        /* \"--CODEGEN--\":34566:34570   */\n      0x20\n        /* \"--CODEGEN--\":34558:34564   */\n      dup3\n        /* \"--CODEGEN--\":34554:34571   */\n      mul\n        /* \"--CODEGEN--\":34546:34571   */\n      swap1\n      pop\n        /* \"--CODEGEN--\":34629:34633   */\n      0x20\n        /* \"--CODEGEN--\":34623:34627   */\n      dup2\n        /* \"--CODEGEN--\":34619:34634   */\n      add\n        /* \"--CODEGEN--\":34611:34634   */\n      swap1\n      pop\n        /* \"--CODEGEN--\":34422:34644   */\n      swap2\n      swap1\n      pop\n      jump\t// out\n        /* \"--CODEGEN--\":34651:34972   */\n    tag_334:\n      0x00\n        /* \"--CODEGEN--\":34794:34812   */\n      0xffffffffffffffff\n        /* \"--CODEGEN--\":34786:34792   */\n      dup3\n        /* \"--CODEGEN--\":34783:34813   */\n      gt\n        /* \"--CODEGEN--\":34780:34782   */\n      iszero\n      tag_631\n      jumpi\n        /* \"--CODEGEN--\":34826:34827   */\n      0x00\n        /* \"--CODEGEN--\":34823:34824   */\n      dup1\n        /* \"--CODEGEN--\":34816:34828   */\n      revert\n        /* \"--CODEGEN--\":34780:34782   */\n    tag_631:\n        /* \"--CODEGEN--\":34893:34897   */\n      0x1f\n        /* \"--CODEGEN--\":34889:34898   */\n      not\n        /* \"--CODEGEN--\":34882:34886   */\n      0x1f\n        /* \"--CODEGEN--\":34874:34880   */\n      dup4\n        /* \"--CODEGEN--\":34870:34887   */\n      add\n        /* \"--CODEGEN--\":34866:34899   */\n      and\n        /* \"--CODEGEN--\":34858:34899   */\n      swap1\n      pop\n        /* \"--CODEGEN--\":34957:34961   */\n      0x20\n        /* \"--CODEGEN--\":34951:34955   */\n      dup2\n        /* \"--CODEGEN--\":34947:34962   */\n      add\n        /* \"--CODEGEN--\":34939:34962   */\n      swap1\n      pop\n        /* \"--CODEGEN--\":34717:34972   */\n      swap2\n      swap1\n      pop\n      jump\t// out\n        /* \"--CODEGEN--\":34979:35130   */\n    tag_439:\n      0x00\n        /* \"--CODEGEN--\":35065:35068   */\n      dup2\n        /* \"--CODEGEN--\":35057:35068   */\n      swap1\n      pop\n        /* \"--CODEGEN--\":35103:35107   */\n      0x20\n        /* \"--CODEGEN--\":35098:35101   */\n      dup3\n        /* \"--CODEGEN--\":35094:35108   */\n      add\n        /* \"--CODEGEN--\":35086:35108   */\n      swap1\n      pop\n        /* \"--CODEGEN--\":35051:35130   */\n      swap2\n      swap1\n      pop\n      jump\t// out\n        /* \"--CODEGEN--\":35137:35274   */\n    tag_435:\n      0x00\n        /* \"--CODEGEN--\":35246:35251   */\n      dup2\n        /* \"--CODEGEN--\":35240:35252   */\n      mload\n        /* \"--CODEGEN--\":35230:35252   */\n      swap1\n      pop\n        /* \"--CODEGEN--\":35211:35274   */\n      swap2\n      swap1\n      pop\n      jump\t// out\n        /* \"--CODEGEN--\":35281:35402   */\n    tag_472:\n      0x00\n        /* \"--CODEGEN--\":35374:35379   */\n      dup2\n        /* \"--CODEGEN--\":35368:35380   */\n      mload\n        /* \"--CODEGEN--\":35358:35380   */\n      swap1\n      pop\n        /* \"--CODEGEN--\":35339:35402   */\n      swap2\n      swap1\n      pop\n      jump\t// out\n        /* \"--CODEGEN--\":35409:35517   */\n    tag_445:\n      0x00\n        /* \"--CODEGEN--\":35507:35511   */\n      0x20\n        /* \"--CODEGEN--\":35502:35505   */\n      dup3\n        /* \"--CODEGEN--\":35498:35512   */\n      add\n        /* \"--CODEGEN--\":35490:35512   */\n      swap1\n      pop\n        /* \"--CODEGEN--\":35484:35517   */\n      swap2\n      swap1\n      pop\n      jump\t// out\n        /* \"--CODEGEN--\":35525:35693   */\n    tag_437:\n      0x00\n        /* \"--CODEGEN--\":35645:35651   */\n      dup3\n        /* \"--CODEGEN--\":35640:35643   */\n      dup3\n        /* \"--CODEGEN--\":35633:35652   */\n      mstore\n        /* \"--CODEGEN--\":35682:35686   */\n      0x20\n        /* \"--CODEGEN--\":35677:35680   */\n      dup3\n        /* \"--CODEGEN--\":35673:35687   */\n      add\n        /* \"--CODEGEN--\":35658:35687   */\n      swap1\n      pop\n        /* \"--CODEGEN--\":35626:35693   */\n      swap3\n      swap2\n      pop\n      pop\n      jump\t// out\n        /* \"--CODEGEN--\":35702:35880   */\n    tag_450:\n      0x00\n        /* \"--CODEGEN--\":35832:35838   */\n      dup3\n        /* \"--CODEGEN--\":35827:35830   */\n      dup3\n        /* \"--CODEGEN--\":35820:35839   */\n      mstore\n        /* \"--CODEGEN--\":35869:35873   */\n      0x20\n        /* \"--CODEGEN--\":35864:35867   */\n      dup3\n        /* \"--CODEGEN--\":35860:35874   */\n      add\n        /* \"--CODEGEN--\":35845:35874   */\n      swap1\n      pop\n        /* \"--CODEGEN--\":35813:35880   */\n      swap3\n      swap2\n      pop\n      pop\n      jump\t// out\n        /* \"--CODEGEN--\":35889:36051   */\n    tag_474:\n      0x00\n        /* \"--CODEGEN--\":36003:36009   */\n      dup3\n        /* \"--CODEGEN--\":35998:36001   */\n      dup3\n        /* \"--CODEGEN--\":35991:36010   */\n      mstore\n        /* \"--CODEGEN--\":36040:36044   */\n      0x20\n        /* \"--CODEGEN--\":36035:36038   */\n      dup3\n        /* \"--CODEGEN--\":36031:36045   */\n      add\n        /* \"--CODEGEN--\":36016:36045   */\n      swap1\n      pop\n        /* \"--CODEGEN--\":35984:36051   */\n      swap3\n      swap2\n      pop\n      pop\n      jump\t// out\n        /* \"--CODEGEN--\":36060:36223   */\n    tag_490:\n      0x00\n        /* \"--CODEGEN--\":36175:36181   */\n      dup3\n        /* \"--CODEGEN--\":36170:36173   */\n      dup3\n        /* \"--CODEGEN--\":36163:36182   */\n      mstore\n        /* \"--CODEGEN--\":36212:36216   */\n      0x20\n        /* \"--CODEGEN--\":36207:36210   */\n      dup3\n        /* \"--CODEGEN--\":36203:36217   */\n      add\n        /* \"--CODEGEN--\":36188:36217   */\n      swap1\n      pop\n        /* \"--CODEGEN--\":36156:36223   */\n      swap3\n      swap2\n      pop\n      pop\n      jump\t// out\n        /* \"--CODEGEN--\":36231:36322   */\n    tag_428:\n      0x00\n        /* \"--CODEGEN--\":36293:36317   */\n      tag_641\n        /* \"--CODEGEN--\":36311:36316   */\n      dup3\n        /* \"--CODEGEN--\":36293:36317   */\n      tag_642\n      jump\t// in\n    tag_641:\n        /* \"--CODEGEN--\":36282:36317   */\n      swap1\n      pop\n        /* \"--CODEGEN--\":36276:36322   */\n      swap2\n      swap1\n      pop\n      jump\t// out\n        /* \"--CODEGEN--\":36329:36414   */\n    tag_460:\n      0x00\n        /* \"--CODEGEN--\":36402:36407   */\n      dup2\n        /* \"--CODEGEN--\":36395:36408   */\n      iszero\n        /* \"--CODEGEN--\":36388:36409   */\n      iszero\n        /* \"--CODEGEN--\":36377:36409   */\n      swap1\n      pop\n        /* \"--CODEGEN--\":36371:36414   */\n      swap2\n      swap1\n      pop\n      jump\t// out\n        /* \"--CODEGEN--\":36421:36493   */\n    tag_464:\n      0x00\n        /* \"--CODEGEN--\":36483:36488   */\n      dup2\n        /* \"--CODEGEN--\":36472:36488   */\n      swap1\n      pop\n        /* \"--CODEGEN--\":36466:36493   */\n      swap2\n      swap1\n      pop\n      jump\t// out\n        /* \"--CODEGEN--\":36500:36644   */\n    tag_468:\n      0x00\n        /* \"--CODEGEN--\":36572:36638   */\n      0xffffffff00000000000000000000000000000000000000000000000000000000\n        /* \"--CODEGEN--\":36565:36570   */\n      dup3\n        /* \"--CODEGEN--\":36561:36639   */\n      and\n        /* \"--CODEGEN--\":36550:36639   */\n      swap1\n      pop\n        /* \"--CODEGEN--\":36544:36644   */\n      swap2\n      swap1\n      pop\n      jump\t// out\n        /* \"--CODEGEN--\":36651:36772   */\n    tag_642:\n      0x00\n        /* \"--CODEGEN--\":36724:36766   */\n      0xffffffffffffffffffffffffffffffffffffffff\n        /* \"--CODEGEN--\":36717:36722   */\n      dup3\n        /* \"--CODEGEN--\":36713:36767   */\n      and\n        /* \"--CODEGEN--\":36702:36767   */\n      swap1\n      pop\n        /* \"--CODEGEN--\":36696:36772   */\n      swap2\n      swap1\n      pop\n      jump\t// out\n        /* \"--CODEGEN--\":36779:36851   */\n    tag_547:\n      0x00\n        /* \"--CODEGEN--\":36841:36846   */\n      dup2\n        /* \"--CODEGEN--\":36830:36846   */\n      swap1\n      pop\n        /* \"--CODEGEN--\":36824:36851   */\n      swap2\n      swap1\n      pop\n      jump\t// out\n        /* \"--CODEGEN--\":36858:36939   */\n    tag_554:\n      0x00\n        /* \"--CODEGEN--\":36929:36933   */\n      0xff\n        /* \"--CODEGEN--\":36922:36927   */\n      dup3\n        /* \"--CODEGEN--\":36918:36934   */\n      and\n        /* \"--CODEGEN--\":36907:36934   */\n      swap1\n      pop\n        /* \"--CODEGEN--\":36901:36939   */\n      swap2\n      swap1\n      pop\n      jump\t// out\n        /* \"--CODEGEN--\":36946:37062   */\n    tag_482:\n      0x00\n        /* \"--CODEGEN--\":37033:37057   */\n      tag_650\n        /* \"--CODEGEN--\":37051:37056   */\n      dup3\n        /* \"--CODEGEN--\":37033:37057   */\n      tag_547\n      jump\t// in\n    tag_650:\n        /* \"--CODEGEN--\":37020:37057   */\n      swap1\n      pop\n        /* \"--CODEGEN--\":37014:37062   */\n      swap2\n      swap1\n      pop\n      jump\t// out\n        /* \"--CODEGEN--\":37069:37185   */\n    tag_486:\n      0x00\n        /* \"--CODEGEN--\":37156:37180   */\n      tag_652\n        /* \"--CODEGEN--\":37174:37179   */\n      dup3\n        /* \"--CODEGEN--\":37156:37180   */\n      tag_547\n      jump\t// in\n    tag_652:\n        /* \"--CODEGEN--\":37143:37180   */\n      swap1\n      pop\n        /* \"--CODEGEN--\":37137:37185   */\n      swap2\n      swap1\n      pop\n      jump\t// out\n        /* \"--CODEGEN--\":37193:37338   */\n    tag_337:\n        /* \"--CODEGEN--\":37274:37280   */\n      dup3\n        /* \"--CODEGEN--\":37269:37272   */\n      dup2\n        /* \"--CODEGEN--\":37264:37267   */\n      dup4\n        /* \"--CODEGEN--\":37251:37281   */\n      calldatacopy\n        /* \"--CODEGEN--\":37330:37331   */\n      0x00\n        /* \"--CODEGEN--\":37321:37327   */\n      dup4\n        /* \"--CODEGEN--\":37316:37319   */\n      dup4\n        /* \"--CODEGEN--\":37312:37328   */\n      add\n        /* \"--CODEGEN--\":37305:37332   */\n      mstore\n        /* \"--CODEGEN--\":37244:37338   */\n      pop\n      pop\n      pop\n      jump\t// out\n        /* \"--CODEGEN--\":37347:37615   */\n    tag_476:\n        /* \"--CODEGEN--\":37412:37413   */\n      0x00\n        /* \"--CODEGEN--\":37419:37520   */\n    tag_655:\n        /* \"--CODEGEN--\":37433:37439   */\n      dup4\n        /* \"--CODEGEN--\":37430:37431   */\n      dup2\n        /* \"--CODEGEN--\":37427:37440   */\n      lt\n        /* \"--CODEGEN--\":37419:37520   */\n      iszero\n      tag_657\n      jumpi\n        /* \"--CODEGEN--\":37509:37510   */\n      dup1\n        /* \"--CODEGEN--\":37504:37507   */\n      dup3\n        /* \"--CODEGEN--\":37500:37511   */\n      add\n        /* \"--CODEGEN--\":37494:37512   */\n      mload\n        /* \"--CODEGEN--\":37490:37491   */\n      dup2\n        /* \"--CODEGEN--\":37485:37488   */\n      dup5\n        /* \"--CODEGEN--\":37481:37492   */\n      add\n        /* \"--CODEGEN--\":37474:37513   */\n      mstore\n        /* \"--CODEGEN--\":37455:37457   */\n      0x20\n        /* \"--CODEGEN--\":37452:37453   */\n      dup2\n        /* \"--CODEGEN--\":37448:37458   */\n      add\n        /* \"--CODEGEN--\":37443:37458   */\n      swap1\n      pop\n        /* \"--CODEGEN--\":37419:37520   */\n      jump(tag_655)\n    tag_657:\n        /* \"--CODEGEN--\":37535:37541   */\n      dup4\n        /* \"--CODEGEN--\":37532:37533   */\n      dup2\n        /* \"--CODEGEN--\":37529:37542   */\n      gt\n        /* \"--CODEGEN--\":37526:37528   */\n      iszero\n      tag_658\n      jumpi\n        /* \"--CODEGEN--\":37600:37601   */\n      0x00\n        /* \"--CODEGEN--\":37591:37597   */\n      dup5\n        /* \"--CODEGEN--\":37586:37589   */\n      dup5\n        /* \"--CODEGEN--\":37582:37598   */\n      add\n        /* \"--CODEGEN--\":37575:37602   */\n      mstore\n        /* \"--CODEGEN--\":37526:37528   */\n    tag_658:\n        /* \"--CODEGEN--\":37396:37615   */\n      pop\n      pop\n      pop\n      pop\n      jump\t// out\n        /* \"--CODEGEN--\":37623:37720   */\n    tag_478:\n      0x00\n        /* \"--CODEGEN--\":37711:37713   */\n      0x1f\n        /* \"--CODEGEN--\":37707:37714   */\n      not\n        /* \"--CODEGEN--\":37702:37704   */\n      0x1f\n        /* \"--CODEGEN--\":37695:37700   */\n      dup4\n        /* \"--CODEGEN--\":37691:37705   */\n      add\n        /* \"--CODEGEN--\":37687:37715   */\n      and\n        /* \"--CODEGEN--\":37677:37715   */\n      swap1\n      pop\n        /* \"--CODEGEN--\":37671:37720   */\n      swap2\n      swap1\n      pop\n      jump\t// out\n        /* \"--CODEGEN--\":37728:37845   */\n    tag_279:\n        /* \"--CODEGEN--\":37797:37821   */\n      tag_661\n        /* \"--CODEGEN--\":37815:37820   */\n      dup2\n        /* \"--CODEGEN--\":37797:37821   */\n      tag_428\n      jump\t// in\n    tag_661:\n        /* \"--CODEGEN--\":37790:37795   */\n      dup2\n        /* \"--CODEGEN--\":37787:37822   */\n      eq\n        /* \"--CODEGEN--\":37777:37779   */\n      tag_662\n      jumpi\n        /* \"--CODEGEN--\":37836:37837   */\n      0x00\n        /* \"--CODEGEN--\":37833:37834   */\n      dup1\n        /* \"--CODEGEN--\":37826:37838   */\n      revert\n        /* \"--CODEGEN--\":37777:37779   */\n    tag_662:\n        /* \"--CODEGEN--\":37771:37845   */\n      pop\n      jump\t// out\n        /* \"--CODEGEN--\":37852:37963   */\n    tag_320:\n        /* \"--CODEGEN--\":37918:37939   */\n      tag_664\n        /* \"--CODEGEN--\":37933:37938   */\n      dup2\n        /* \"--CODEGEN--\":37918:37939   */\n      tag_460\n      jump\t// in\n    tag_664:\n        /* \"--CODEGEN--\":37911:37916   */\n      dup2\n        /* \"--CODEGEN--\":37908:37940   */\n      eq\n        /* \"--CODEGEN--\":37898:37900   */\n      tag_665\n      jumpi\n        /* \"--CODEGEN--\":37954:37955   */\n      0x00\n        /* \"--CODEGEN--\":37951:37952   */\n      dup1\n        /* \"--CODEGEN--\":37944:37956   */\n      revert\n        /* \"--CODEGEN--\":37898:37900   */\n    tag_665:\n        /* \"--CODEGEN--\":37892:37963   */\n      pop\n      jump\t// out\n        /* \"--CODEGEN--\":37970:38087   */\n    tag_324:\n        /* \"--CODEGEN--\":38039:38063   */\n      tag_667\n        /* \"--CODEGEN--\":38057:38062   */\n      dup2\n        /* \"--CODEGEN--\":38039:38063   */\n      tag_464\n      jump\t// in\n    tag_667:\n        /* \"--CODEGEN--\":38032:38037   */\n      dup2\n        /* \"--CODEGEN--\":38029:38064   */\n      eq\n        /* \"--CODEGEN--\":38019:38021   */\n      tag_668\n      jumpi\n        /* \"--CODEGEN--\":38078:38079   */\n      0x00\n        /* \"--CODEGEN--\":38075:38076   */\n      dup1\n        /* \"--CODEGEN--\":38068:38080   */\n      revert\n        /* \"--CODEGEN--\":38019:38021   */\n    tag_668:\n        /* \"--CODEGEN--\":38013:38087   */\n      pop\n      jump\t// out\n        /* \"--CODEGEN--\":38094:38209   */\n    tag_328:\n        /* \"--CODEGEN--\":38162:38185   */\n      tag_670\n        /* \"--CODEGEN--\":38179:38184   */\n      dup2\n        /* \"--CODEGEN--\":38162:38185   */\n      tag_468\n      jump\t// in\n    tag_670:\n        /* \"--CODEGEN--\":38155:38160   */\n      dup2\n        /* \"--CODEGEN--\":38152:38186   */\n      eq\n        /* \"--CODEGEN--\":38142:38144   */\n      tag_671\n      jumpi\n        /* \"--CODEGEN--\":38200:38201   */\n      0x00\n        /* \"--CODEGEN--\":38197:38198   */\n      dup1\n        /* \"--CODEGEN--\":38190:38202   */\n      revert\n        /* \"--CODEGEN--\":38142:38144   */\n    tag_671:\n        /* \"--CODEGEN--\":38136:38209   */\n      pop\n      jump\t// out\n        /* \"--CODEGEN--\":38216:38333   */\n    tag_366:\n        /* \"--CODEGEN--\":38285:38309   */\n      tag_673\n        /* \"--CODEGEN--\":38303:38308   */\n      dup2\n        /* \"--CODEGEN--\":38285:38309   */\n      tag_547\n      jump\t// in\n    tag_673:\n        /* \"--CODEGEN--\":38278:38283   */\n      dup2\n        /* \"--CODEGEN--\":38275:38310   */\n      eq\n        /* \"--CODEGEN--\":38265:38267   */\n      tag_674\n      jumpi\n        /* \"--CODEGEN--\":38324:38325   */\n      0x00\n        /* \"--CODEGEN--\":38321:38322   */\n      dup1\n        /* \"--CODEGEN--\":38314:38326   */\n      revert\n        /* \"--CODEGEN--\":38265:38267   */\n    tag_674:\n        /* \"--CODEGEN--\":38259:38333   */\n      pop\n      jump\t// out\n        /* \"--CODEGEN--\":38340:38453   */\n    tag_372:\n        /* \"--CODEGEN--\":38407:38429   */\n      tag_676\n        /* \"--CODEGEN--\":38423:38428   */\n      dup2\n        /* \"--CODEGEN--\":38407:38429   */\n      tag_554\n      jump\t// in\n    tag_676:\n        /* \"--CODEGEN--\":38400:38405   */\n      dup2\n        /* \"--CODEGEN--\":38397:38430   */\n      eq\n        /* \"--CODEGEN--\":38387:38389   */\n      tag_677\n      jumpi\n        /* \"--CODEGEN--\":38444:38445   */\n      0x00\n        /* \"--CODEGEN--\":38441:38442   */\n      dup1\n        /* \"--CODEGEN--\":38434:38446   */\n      revert\n        /* \"--CODEGEN--\":38387:38389   */\n    tag_677:\n        /* \"--CODEGEN--\":38381:38453   */\n      pop\n      jump\t// out\n\n    auxdata: 0xa26469706673582212209d782b4d79eee0c092c9ea4380f1f898011ea5e176aaac65549eec087bc8140364736f6c634300060c0033\n}\n",
				"bytecode": {
					"linkReferences": {},
					"object": "60806040523480156200001157600080fd5b50620000226200009760201b60201c565b6000806101000a81548173ffffffffffffffffffffffffffffffffffffffff021916908373ffffffffffffffffffffffffffffffffffffffff160217905550620000796301ffc9a760e01b6200009f60201b60201c565b6200009163150b7a0260e01b6200009f60201b60201c565b620001ec565b600033905090565b63ffffffff60e01b817bffffffffffffffffffffffffffffffffffffffffffffffffffffffff191614156200010b576040517f08c379a00000000000000000000000000000000000000000000000000000000081526004016200010290620001b9565b60405180910390fd5b6001806000837bffffffffffffffffffffffffffffffffffffffffffffffffffffffff19167bffffffffffffffffffffffffffffffffffffffffffffffffffffffff1916815260200190815260200160002060006101000a81548160ff02191690831515021790555050565b600062000186601c83620001db565b91507f4552433136353a20696e76616c696420696e74657266616365206964000000006000830152602082019050919050565b60006020820190508181036000830152620001d48162000177565b9050919050565b600082825260208201905092915050565b612f6f80620001fc6000396000f3fe608060405234801561001057600080fd5b50600436106100cf5760003560e01c80633291bf991161008c5780637c4d7f44116100665780637c4d7f441461020e5780638da5cb5b1461023e578063a24d22fe1461025c578063f2fde38b14610278576100cf565b80633291bf99146101b8578063467f4cb9146101d4578063715018a614610204576100cf565b806301ffc9a7146100d45780630525bdcf14610104578063074540da14610134578063150b7a02146101505780632a3b3836146101805780632a6c7d0c1461019c575b600080fd5b6100ee60048036038101906100e99190611fb8565b610294565b6040516100fb9190612993565b60405180910390f35b61011e60048036038101906101199190611fe1565b6102fc565b60405161012b9190612a0e565b60405180910390f35b61014e60048036038101906101499190611dce565b610358565b005b61016a60048036038101906101659190611d53565b6103d8565b60405161017791906129f3565b60405180910390f35b61019a60048036038101906101959190611fe1565b610675565b005b6101b660048036038101906101b19190611eac565b6106c5565b005b6101d260048036038101906101cd9190611fe1565b61075b565b005b6101ee60048036038101906101e99190611e5d565b6107a1565b6040516101fb9190612c72565b60405180910390f35b61020c61088b565b005b61022860048036038101906102239190611e5d565b6109de565b6040516102359190612c50565b60405180910390f35b610246610aec565b6040516102539190612869565b60405180910390f35b61027660048036038101906102719190611fe1565b610b15565b005b610292600480360381019061028d9190611d01565b610f9e565b005b600060016000837bffffffffffffffffffffffffffffffffffffffffffffffffffffffff19167bffffffffffffffffffffffffffffffffffffffffffffffffffffffff1916815260200190815260200160002060009054906101000a900460ff169050919050565b606080826000015183602001518460400151856060015186608001518760a001518860c001518960e0015160405160200161033e989796959493929190612907565b604051602081830303815290604052905080915050919050565b61036061177c565b610372858561036d611160565b6109de565b905060018160200151146103bb576040517f08c379a00000000000000000000000000000000000000000000000000000000081526004016103b290612bb0565b60405180910390fd5b6103d06103c6611160565b8787878787611168565b505050505050565b6000806103eb6103e6611160565b611304565b90503073ffffffffffffffffffffffffffffffffffffffff168173ffffffffffffffffffffffffffffffffffffffff16636352211e866040518263ffffffff1660e01b815260040161043d9190612c72565b60206040518083038186803b15801561045557600080fd5b505afa158015610469573d6000803e3d6000fd5b505050506040513d601f19601f8201168201806040525081019061048d9190611d2a565b73ffffffffffffffffffffffffffffffffffffffff16146104e3576040517f08c379a00000000000000000000000000000000000000000000000000000000081526004016104da90612c10565b60405180910390fd5b60606000848060200190518101906104fb9190611f3b565b809250819350505061050c8261143b565b506000811415801561051f575081518111155b61055e576040517f08c379a000000000000000000000000000000000000000000000000000000000815260040161055590612ad0565b60405180910390fd5b6000600260008573ffffffffffffffffffffffffffffffffffffffff1673ffffffffffffffffffffffffffffffffffffffff16815260200190815260200160002060008881526020019081526020016000209050828160020190805190602001906105ca92919061179d565b508181600101819055506001816000018190555086836000815181106105ec57fe5b602002602001015173ffffffffffffffffffffffffffffffffffffffff16600073ffffffffffffffffffffffffffffffffffffffff167f737ab30b9cd3ddae02069f3057591007faf2305652d04c2582f7f1f6185d97118760006001604051610657939291906128d0565b60405180910390a463150b7a0260e01b945050505050949350505050565b61067e81610b15565b61068661177c565b6106a28260000151836020015184606001518560e0015161149d565b90506106c1826040015182846000015185602001518660800151611545565b5050565b6106cd61177c565b6106df85856106da611160565b6109de565b90506001816020015114610728576040517f08c379a000000000000000000000000000000000000000000000000000000000815260040161071f90612bb0565b60405180910390fd5b61073061177c565b61073c8686898661149d565b9050610752610749611160565b82888888611545565b50505050505050565b61076481610b15565b61079e8160400151826060015160008151811061077d57fe5b60200260200101518360000151846020015185608001518660a00151611168565b50565b600080600260008673ffffffffffffffffffffffffffffffffffffffff1673ffffffffffffffffffffffffffffffffffffffff16815260200190815260200160002060008581526020019081526020016000206002019050600081805490501415801561087057508273ffffffffffffffffffffffffffffffffffffffff168160008154811061082d57fe5b9060005260206000200160009054906101000a900473ffffffffffffffffffffffffffffffffffffffff1673ffffffffffffffffffffffffffffffffffffffff16145b61087b57600061087e565b60015b60ff169150509392505050565b610893611160565b73ffffffffffffffffffffffffffffffffffffffff1660008054906101000a900473ffffffffffffffffffffffffffffffffffffffff1673ffffffffffffffffffffffffffffffffffffffff1614610920576040517f08c379a000000000000000000000000000000000000000000000000000000000815260040161091790612b70565b60405180910390fd5b600073ffffffffffffffffffffffffffffffffffffffff1660008054906101000a900473ffffffffffffffffffffffffffffffffffffffff1673ffffffffffffffffffffffffffffffffffffffff167f8be0079c531659141344cd1fd0a4f28419497f9722a3daafe3b4186f6b6457e060405160405180910390a360008060006101000a81548173ffffffffffffffffffffffffffffffffffffffff021916908373ffffffffffffffffffffffffffffffffffffffff160217905550565b6109e661177c565b600260008573ffffffffffffffffffffffffffffffffffffffff1673ffffffffffffffffffffffffffffffffffffffff1681526020019081526020016000206000848152602001908152602001600020604051806060016040529081600082015481526020016001820154815260200160028201805480602002602001604051908101604052809291908181526020018280548015610ada57602002820191906000526020600020905b8160009054906101000a900473ffffffffffffffffffffffffffffffffffffffff1673ffffffffffffffffffffffffffffffffffffffff1681526020019060010190808311610a90575b50505050508152505090509392505050565b60008060009054906101000a900473ffffffffffffffffffffffffffffffffffffffff16905090565b428160c0015111610b5b576040517f08c379a0000000000000000000000000000000000000000000000000000000008152600401610b5290612a30565b60405180910390fd5b60008160000151905060008260200151905060008360400151905060608461010001519050606085610120015190506060610b95876102fc565b9050600081805190602001209050610bab61177c565b610bb68888886109de565b9050600073ffffffffffffffffffffffffffffffffffffffff168673ffffffffffffffffffffffffffffffffffffffff161415610c28576040517f08c379a0000000000000000000000000000000000000000000000000000000008152600401610c1f90612b50565b60405180910390fd5b8060400151600081518110610c3957fe5b602002602001015173ffffffffffffffffffffffffffffffffffffffff168673ffffffffffffffffffffffffffffffffffffffff1614610cae576040517f08c379a0000000000000000000000000000000000000000000000000000000008152600401610ca590612af0565b60405180910390fd5b806020015185511015610cf6576040517f08c379a0000000000000000000000000000000000000000000000000000000008152600401610ced90612bf0565b60405180910390fd5b8351855114610d3a576040517f08c379a0000000000000000000000000000000000000000000000000000000008152600401610d3190612a90565b60405180910390fd5b6060816020015167ffffffffffffffff81118015610d5757600080fd5b50604051908082528060200260200182016040528015610d865781602001602082028036833780820191505090505b5090506000805b8751811015610f49576000888281518110610da457fe5b602002602001015190507fffffffffffffffffffffffffffffffffffffffffffffffffffffffffffffffff610dd98583611698565b148015610e1357507fffffffffffffffffffffffffffffffffffffffffffffffffffffffffffffffff610e10866040015183611698565b14155b15610f3b57610e20611827565b888381518110610e2c57fe5b60200260200101519050600060018883604001518460000151856020015160405160008152602001604052604051610e6794939291906129ae565b6020604051602081039080840390855afa158015610e89573d6000803e3d6000fd5b5050506020604051035190508273ffffffffffffffffffffffffffffffffffffffff168173ffffffffffffffffffffffffffffffffffffffff161415610f385782868681518110610ed657fe5b602002602001019073ffffffffffffffffffffffffffffffffffffffff16908173ffffffffffffffffffffffffffffffffffffffff168152505084806001019550508660200151851415610f37575050505050505050505050505050610f9b565b5b50505b508080600101915050610d8d565b5082602001518114610f90576040517f08c379a0000000000000000000000000000000000000000000000000000000008152600401610f8790612a50565b60405180910390fd5b505050505050505050505b50565b610fa6611160565b73ffffffffffffffffffffffffffffffffffffffff1660008054906101000a900473ffffffffffffffffffffffffffffffffffffffff1673ffffffffffffffffffffffffffffffffffffffff1614611033576040517f08c379a000000000000000000000000000000000000000000000000000000000815260040161102a90612b70565b60405180910390fd5b600073ffffffffffffffffffffffffffffffffffffffff168173ffffffffffffffffffffffffffffffffffffffff1614156110a3576040517f08c379a000000000000000000000000000000000000000000000000000000000815260040161109a90612a70565b60405180910390fd5b8073ffffffffffffffffffffffffffffffffffffffff1660008054906101000a900473ffffffffffffffffffffffffffffffffffffffff1673ffffffffffffffffffffffffffffffffffffffff167f8be0079c531659141344cd1fd0a4f28419497f9722a3daafe3b4186f6b6457e060405160405180910390a3806000806101000a81548173ffffffffffffffffffffffffffffffffffffffff021916908373ffffffffffffffffffffffffffffffffffffffff16021790555050565b600033905090565b600182146111ab576040517f08c379a00000000000000000000000000000000000000000000000000000000081526004016111a290612b30565b60405180910390fd5b600260008573ffffffffffffffffffffffffffffffffffffffff1673ffffffffffffffffffffffffffffffffffffffff1681526020019081526020016000206000848152602001908152602001600020600080820160009055600182016000905560028201600061121c9190611851565b50508373ffffffffffffffffffffffffffffffffffffffff1663b88d4fde308786856040518563ffffffff1660e01b815260040161125d9493929190612884565b600060405180830381600087803b15801561127757600080fd5b505af115801561128b573d6000803e3d6000fd5b5050505082600073ffffffffffffffffffffffffffffffffffffffff168773ffffffffffffffffffffffffffffffffffffffff167f737ab30b9cd3ddae02069f3057591007faf2305652d04c2582f7f1f6185d971187600060016040516112f4939291906128d0565b60405180910390a4505050505050565b60006113258273ffffffffffffffffffffffffffffffffffffffff16611731565b611364576040517f08c379a000000000000000000000000000000000000000000000000000000000815260040161135b90612bd0565b60405180910390fd5b8173ffffffffffffffffffffffffffffffffffffffff166301ffc9a76380ac58cd60e01b6040518263ffffffff1660e01b81526004016113a491906129f3565b60206040518083038186803b1580156113bc57600080fd5b505afa1580156113d0573d6000803e3d6000fd5b505050506040513d601f19601f820116820180604052508101906113f49190611f8f565b611433576040517f08c379a000000000000000000000000000000000000000000000000000000000815260040161142a90612ab0565b60405180910390fd5b819050919050565b60008082511415611481576040517f08c379a000000000000000000000000000000000000000000000000000000000815260040161147890612b10565b60405180910390fd5b8160008151811061148e57fe5b60200260200101519050919050565b6114a561177c565b60006114b08461143b565b90506114ba61177c565b6114c58787846109de565b905060008160400151511415611538578451841115611519576040517f08c379a000000000000000000000000000000000000000000000000000000000815260040161151090612c30565b60405180910390fd5b6001816000018181525050848160400181905250838160200181815250505b8092505050949350505050565b60018114611588576040517f08c379a000000000000000000000000000000000000000000000000000000000815260040161157f90612b90565b60405180910390fd5b83600260008573ffffffffffffffffffffffffffffffffffffffff1673ffffffffffffffffffffffffffffffffffffffff16815260200190815260200160002060008481526020019081526020016000206000820151816000015560208201518160010155604082015181600201908051906020019061160992919061179d565b5090505081846040015160008151811061161f57fe5b602002602001015173ffffffffffffffffffffffffffffffffffffffff168673ffffffffffffffffffffffffffffffffffffffff167f737ab30b9cd3ddae02069f3057591007faf2305652d04c2582f7f1f6185d97118660006001604051611689939291906128d0565b60405180910390a45050505050565b600080600090505b8351811015611706578273ffffffffffffffffffffffffffffffffffffffff168482815181106116cc57fe5b602002602001015173ffffffffffffffffffffffffffffffffffffffff1614156116f9578091505061172b565b80806001019150506116a0565b507fffffffffffffffffffffffffffffffffffffffffffffffffffffffffffffffff90505b92915050565b60008060007fc5d2460186f7233c927e7db2dcc703c0e500b653ca82273b7bfad8045d85a47060001b9050833f915080821415801561177357506000801b8214155b92505050919050565b60405180606001604052806000815260200160008152602001606081525090565b828054828255906000526020600020908101928215611816579160200282015b828111156118155782518260006101000a81548173ffffffffffffffffffffffffffffffffffffffff021916908373ffffffffffffffffffffffffffffffffffffffff160217905550916020019190600101906117bd565b5b5090506118239190611872565b5090565b60405180606001604052806000801916815260200160008019168152602001600060ff1681525090565b508054600082559060005260206000209081019061186f91906118ad565b50565b5b808211156118a957600081816101000a81549073ffffffffffffffffffffffffffffffffffffffff021916905550600101611873565b5090565b5b808211156118c65760008160009055506001016118ae565b5090565b6000813590506118d981612eaf565b92915050565b6000815190506118ee81612eaf565b92915050565b600082601f83011261190557600080fd5b813561191861191382612cba565b612c8d565b9150818183526020840193506020810190508385602084028201111561193d57600080fd5b60005b8381101561196d578161195388826118ca565b845260208401935060208301925050600181019050611940565b5050505092915050565b600082601f83011261198857600080fd5b815161199b61199682612cba565b612c8d565b915081818352602084019350602081019050838560208402820111156119c057600080fd5b60005b838110156119f057816119d688826118df565b8452602084019350602083019250506001810190506119c3565b5050505092915050565b600082601f830112611a0b57600080fd5b8135611a1e611a1982612ce2565b612c8d565b91508181835260208401935060208101905083856060840282011115611a4357600080fd5b60005b83811015611a735781611a598882611b10565b845260208401935060608301925050600181019050611a46565b5050505092915050565b600081519050611a8c81612ec6565b92915050565b600081359050611aa181612edd565b92915050565b600081359050611ab681612ef4565b92915050565b600082601f830112611acd57600080fd5b8135611ae0611adb82612d0a565b612c8d565b91508082526020830160208301858383011115611afc57600080fd5b611b07838284612e5c565b50505092915050565b600060608284031215611b2257600080fd5b611b2c6060612c8d565b90506000611b3c84828501611a92565b6000830152506020611b5084828501611a92565b6020830152506040611b6484828501611cec565b60408301525092915050565b60006101408284031215611b8357600080fd5b611b8e610140612c8d565b90506000611b9e848285016118ca565b6000830152506020611bb284828501611cc2565b6020830152506040611bc6848285016118ca565b604083015250606082013567ffffffffffffffff811115611be657600080fd5b611bf2848285016118f4565b6060830152506080611c0684828501611cc2565b60808301525060a082013567ffffffffffffffff811115611c2657600080fd5b611c3284828501611abc565b60a08301525060c0611c4684828501611cc2565b60c08301525060e0611c5a84828501611cc2565b60e08301525061010082013567ffffffffffffffff811115611c7b57600080fd5b611c87848285016118f4565b6101008301525061012082013567ffffffffffffffff811115611ca957600080fd5b611cb5848285016119fa565b6101208301525092915050565b600081359050611cd181612f0b565b92915050565b600081519050611ce681612f0b565b92915050565b600081359050611cfb81612f22565b92915050565b600060208284031215611d1357600080fd5b6000611d21848285016118ca565b91505092915050565b600060208284031215611d3c57600080fd5b6000611d4a848285016118df565b91505092915050565b60008060008060808587031215611d6957600080fd5b6000611d77878288016118ca565b9450506020611d88878288016118ca565b9350506040611d9987828801611cc2565b925050606085013567ffffffffffffffff811115611db657600080fd5b611dc287828801611abc565b91505092959194509250565b600080600080600060a08688031215611de657600080fd5b6000611df4888289016118ca565b9550506020611e05888289016118ca565b9450506040611e1688828901611cc2565b9350506060611e2788828901611cc2565b925050608086013567ffffffffffffffff811115611e4457600080fd5b611e5088828901611abc565b9150509295509295909350565b600080600060608486031215611e7257600080fd5b6000611e80868287016118ca565b9350506020611e9186828701611cc2565b9250506040611ea2868287016118ca565b9150509250925092565b600080600080600060a08688031215611ec457600080fd5b600086013567ffffffffffffffff811115611ede57600080fd5b611eea888289016118f4565b9550506020611efb888289016118ca565b9450506040611f0c88828901611cc2565b9350506060611f1d88828901611cc2565b9250506080611f2e88828901611cc2565b9150509295509295909350565b60008060408385031215611f4e57600080fd5b600083015167ffffffffffffffff811115611f6857600080fd5b611f7485828601611977565b9250506020611f8585828601611cd7565b9150509250929050565b600060208284031215611fa157600080fd5b6000611faf84828501611a7d565b91505092915050565b600060208284031215611fca57600080fd5b6000611fd884828501611aa7565b91505092915050565b600060208284031215611ff357600080fd5b600082013567ffffffffffffffff81111561200d57600080fd5b61201984828501611b70565b91505092915050565b600061202e838361203a565b60208301905092915050565b61204381612dad565b82525050565b61205281612dad565b82525050565b600061206382612d46565b61206d8185612d69565b935061207883612d36565b8060005b838110156120a95781516120908882612022565b975061209b83612d5c565b92505060018101905061207c565b5085935050505092915050565b60006120c182612d46565b6120cb8185612d7a565b93506120d683612d36565b8060005b838110156121075781516120ee8882612022565b97506120f983612d5c565b9250506001810190506120da565b5085935050505092915050565b61211d81612dbf565b82525050565b61212c81612dcb565b82525050565b61213b81612dd5565b82525050565b600061214c82612d51565b6121568185612d8b565b9350612166818560208601612e6b565b61216f81612e9e565b840191505092915050565b61218381612e38565b82525050565b61219281612e4a565b82525050565b60006121a5602183612d9c565b91507f234e465450726f7879237665726966793a205452414e534645525f455850495260008301527f59000000000000000000000000000000000000000000000000000000000000006020830152604082019050919050565b600061220b602583612d9c565b91507f234e465450726f787923766572696669636174696f6e3a204241445f5349474e60008301527f41545552450000000000000000000000000000000000000000000000000000006020830152604082019050919050565b6000612271602683612d9c565b91507f4f776e61626c653a206e6577206f776e657220697320746865207a65726f206160008301527f64647265737300000000000000000000000000000000000000000000000000006020830152604082019050919050565b60006122d7602583612d9c565b91507f234e465450726f7879237665726966793a204241445f5253565f4c4953545f4c60008301527f454e4754480000000000000000000000000000000000000000000000000000006020830152604082019050919050565b600061233d603583612d9c565b91507f546865204e465420636f6e74726163742068617320616e20696e76616c69642060008301527f45524337323120696d706c656d656e746174696f6e00000000000000000000006020830152604082019050919050565b60006123a3603083612d9c565b91507f2345524337323150726f7879236f6e45524337323152656365697665643a204260008301527f41445f4d494e5f5349474e5f5a45524f000000000000000000000000000000006020830152604082019050919050565b6000612409602083612d9c565b91507f234e465450726f7879237665726966793a204f574e45525f4e4f5f4d415443486000830152602082019050919050565b6000612449603583612d9c565b91507f234e465450726f787923636865636b41646472657373456d7074793a2041444460008301527f524553535f4c4953545f4c454e4754485f5a45524f00000000000000000000006020830152604082019050919050565b60006124af602883612d9c565b91507f2345524337323150726f7879235f77697468647261773a20414d4f554e545f4f60008301527f4e4c595f42455f310000000000000000000000000000000000000000000000006020830152604082019050919050565b6000612515601e83612d9c565b91507f234e465450726f7879237665726966793a20414444524553535f5a45524f00006000830152602082019050919050565b6000612555602083612d9c565b91507f4f776e61626c653a2063616c6c6572206973206e6f7420746865206f776e65726000830152602082019050919050565b6000612595602883612d9c565b91507f2345524337323150726f7879235f7472616e736665723a20414d4f554e545f4f60008301527f4e4c595f42455f310000000000000000000000000000000000000000000000006020830152604082019050919050565b60006125fb602883612d9c565b91507f234e465450726f7879237472616e736665723a204e4f5f5452414e534645525f60008301527f5349474e5f4552520000000000000000000000000000000000000000000000006020830152604082019050919050565b6000612661603083612d9c565b91507f2345524337323150726f7879235f69734552433732313a20494e564c4941445f60008301527f434f4e54524143545f41444452455353000000000000000000000000000000006020830152604082019050919050565b60006126c7602783612d9c565b91507f234e465450726f7879237665726966793a205349474e5f434f554e545f544f4f60008301527f5f4c4954544c45000000000000000000000000000000000000000000000000006020830152604082019050919050565b600061272d602c83612d9c565b91507f2345524337323150726f7879236f6e45524337323152656365697665643a204e60008301527f4f545f4f574e5f544f4b454e00000000000000000000000000000000000000006020830152604082019050919050565b6000612793602583612d9c565b91507f234e465450726f787923636865636b4f776e6572733a204241445f5349474e5f60008301527f434f554e540000000000000000000000000000000000000000000000000000006020830152604082019050919050565b6000606083016000830151612804600086018261283c565b506020830151612817602086018261283c565b506040830151848203604086015261282f8282612058565b9150508091505092915050565b61284581612e21565b82525050565b61285481612e21565b82525050565b61286381612e2b565b82525050565b600060208201905061287e6000830184612049565b92915050565b60006080820190506128996000830187612049565b6128a66020830186612049565b6128b3604083018561284b565b81810360608301526128c58184612141565b905095945050505050565b60006060820190506128e56000830186612049565b6128f2602083018561217a565b6128ff6040830184612189565b949350505050565b60006101008201905061291d600083018b612049565b61292a602083018a61284b565b6129376040830189612049565b818103606083015261294981886120b6565b9050612958608083018761284b565b81810360a083015261296a8186612141565b905061297960c083018561284b565b61298660e083018461284b565b9998505050505050505050565b60006020820190506129a86000830184612114565b92915050565b60006080820190506129c36000830187612123565b6129d0602083018661285a565b6129dd6040830185612123565b6129ea6060830184612123565b95945050505050565b6000602082019050612a086000830184612132565b92915050565b60006020820190508181036000830152612a288184612141565b905092915050565b60006020820190508181036000830152612a4981612198565b9050919050565b60006020820190508181036000830152612a69816121fe565b9050919050565b60006020820190508181036000830152612a8981612264565b9050919050565b60006020820190508181036000830152612aa9816122ca565b9050919050565b60006020820190508181036000830152612ac981612330565b9050919050565b60006020820190508181036000830152612ae981612396565b9050919050565b60006020820190508181036000830152612b09816123fc565b9050919050565b60006020820190508181036000830152612b298161243c565b9050919050565b60006020820190508181036000830152612b49816124a2565b9050919050565b60006020820190508181036000830152612b6981612508565b9050919050565b60006020820190508181036000830152612b8981612548565b9050919050565b60006020820190508181036000830152612ba981612588565b9050919050565b60006020820190508181036000830152612bc9816125ee565b9050919050565b60006020820190508181036000830152612be981612654565b9050919050565b60006020820190508181036000830152612c09816126ba565b9050919050565b60006020820190508181036000830152612c2981612720565b9050919050565b60006020820190508181036000830152612c4981612786565b9050919050565b60006020820190508181036000830152612c6a81846127ec565b905092915050565b6000602082019050612c87600083018461284b565b92915050565b6000604051905081810181811067ffffffffffffffff82111715612cb057600080fd5b8060405250919050565b600067ffffffffffffffff821115612cd157600080fd5b602082029050602081019050919050565b600067ffffffffffffffff821115612cf957600080fd5b602082029050602081019050919050565b600067ffffffffffffffff821115612d2157600080fd5b601f19601f8301169050602081019050919050565b6000819050602082019050919050565b600081519050919050565b600081519050919050565b6000602082019050919050565b600082825260208201905092915050565b600082825260208201905092915050565b600082825260208201905092915050565b600082825260208201905092915050565b6000612db882612e01565b9050919050565b60008115159050919050565b6000819050919050565b60007fffffffff0000000000000000000000000000000000000000000000000000000082169050919050565b600073ffffffffffffffffffffffffffffffffffffffff82169050919050565b6000819050919050565b600060ff82169050919050565b6000612e4382612e21565b9050919050565b6000612e5582612e21565b9050919050565b82818337600083830152505050565b60005b83811015612e89578082015181840152602081019050612e6e565b83811115612e98576000848401525b50505050565b6000601f19601f8301169050919050565b612eb881612dad565b8114612ec357600080fd5b50565b612ecf81612dbf565b8114612eda57600080fd5b50565b612ee681612dcb565b8114612ef157600080fd5b50565b612efd81612dd5565b8114612f0857600080fd5b50565b612f1481612e21565b8114612f1f57600080fd5b50565b612f2b81612e2b565b8114612f3657600080fd5b5056fea26469706673582212209d782b4d79eee0c092c9ea4380f1f898011ea5e176aaac65549eec087bc8140364736f6c634300060c0033",
					"opcodes": "PUSH1 0x80 PUSH1 0x40 MSTORE CALLVALUE DUP1 ISZERO PUSH3 0x11 JUMPI PUSH1 0x0 DUP1 REVERT JUMPDEST POP PUSH3 0x22 PUSH3 0x97 PUSH1 0x20 SHL PUSH1 0x20 SHR JUMP JUMPDEST PUSH1 0x0 DUP1 PUSH2 0x100 EXP DUP2 SLOAD DUP2 PUSH20 0xFFFFFFFFFFFFFFFFFFFFFFFFFFFFFFFFFFFFFFFF MUL NOT AND SWAP1 DUP4 PUSH20 0xFFFFFFFFFFFFFFFFFFFFFFFFFFFFFFFFFFFFFFFF AND MUL OR SWAP1 SSTORE POP PUSH3 0x79 PUSH4 0x1FFC9A7 PUSH1 0xE0 SHL PUSH3 0x9F PUSH1 0x20 SHL PUSH1 0x20 SHR JUMP JUMPDEST PUSH3 0x91 PUSH4 0x150B7A02 PUSH1 0xE0 SHL PUSH3 0x9F PUSH1 0x20 SHL PUSH1 0x20 SHR JUMP JUMPDEST PUSH3 0x1EC JUMP JUMPDEST PUSH1 0x0 CALLER SWAP1 POP SWAP1 JUMP JUMPDEST PUSH4 0xFFFFFFFF PUSH1 0xE0 SHL DUP2 PUSH28 0xFFFFFFFFFFFFFFFFFFFFFFFFFFFFFFFFFFFFFFFFFFFFFFFFFFFFFFFF NOT AND EQ ISZERO PUSH3 0x10B JUMPI PUSH1 0x40 MLOAD PUSH32 0x8C379A000000000000000000000000000000000000000000000000000000000 DUP2 MSTORE PUSH1 0x4 ADD PUSH3 0x102 SWAP1 PUSH3 0x1B9 JUMP JUMPDEST PUSH1 0x40 MLOAD DUP1 SWAP2 SUB SWAP1 REVERT JUMPDEST PUSH1 0x1 DUP1 PUSH1 0x0 DUP4 PUSH28 0xFFFFFFFFFFFFFFFFFFFFFFFFFFFFFFFFFFFFFFFFFFFFFFFFFFFFFFFF NOT AND PUSH28 0xFFFFFFFFFFFFFFFFFFFFFFFFFFFFFFFFFFFFFFFFFFFFFFFFFFFFFFFF NOT AND DUP2 MSTORE PUSH1 0x20 ADD SWAP1 DUP2 MSTORE PUSH1 0x20 ADD PUSH1 0x0 KECCAK256 PUSH1 0x0 PUSH2 0x100 EXP DUP2 SLOAD DUP2 PUSH1 0xFF MUL NOT AND SWAP1 DUP4 ISZERO ISZERO MUL OR SWAP1 SSTORE POP POP JUMP JUMPDEST PUSH1 0x0 PUSH3 0x186 PUSH1 0x1C DUP4 PUSH3 0x1DB JUMP JUMPDEST SWAP2 POP PUSH32 0x4552433136353A20696E76616C696420696E7465726661636520696400000000 PUSH1 0x0 DUP4 ADD MSTORE PUSH1 0x20 DUP3 ADD SWAP1 POP SWAP2 SWAP1 POP JUMP JUMPDEST PUSH1 0x0 PUSH1 0x20 DUP3 ADD SWAP1 POP DUP2 DUP2 SUB PUSH1 0x0 DUP4 ADD MSTORE PUSH3 0x1D4 DUP2 PUSH3 0x177 JUMP JUMPDEST SWAP1 POP SWAP2 SWAP1 POP JUMP JUMPDEST PUSH1 0x0 DUP3 DUP3 MSTORE PUSH1 0x20 DUP3 ADD SWAP1 POP SWAP3 SWAP2 POP POP JUMP JUMPDEST PUSH2 0x2F6F DUP1 PUSH3 0x1FC PUSH1 0x0 CODECOPY PUSH1 0x0 RETURN INVALID PUSH1 0x80 PUSH1 0x40 MSTORE CALLVALUE DUP1 ISZERO PUSH2 0x10 JUMPI PUSH1 0x0 DUP1 REVERT JUMPDEST POP PUSH1 0x4 CALLDATASIZE LT PUSH2 0xCF JUMPI PUSH1 0x0 CALLDATALOAD PUSH1 0xE0 SHR DUP1 PUSH4 0x3291BF99 GT PUSH2 0x8C JUMPI DUP1 PUSH4 0x7C4D7F44 GT PUSH2 0x66 JUMPI DUP1 PUSH4 0x7C4D7F44 EQ PUSH2 0x20E JUMPI DUP1 PUSH4 0x8DA5CB5B EQ PUSH2 0x23E JUMPI DUP1 PUSH4 0xA24D22FE EQ PUSH2 0x25C JUMPI DUP1 PUSH4 0xF2FDE38B EQ PUSH2 0x278 JUMPI PUSH2 0xCF JUMP JUMPDEST DUP1 PUSH4 0x3291BF99 EQ PUSH2 0x1B8 JUMPI DUP1 PUSH4 0x467F4CB9 EQ PUSH2 0x1D4 JUMPI DUP1 PUSH4 0x715018A6 EQ PUSH2 0x204 JUMPI PUSH2 0xCF JUMP JUMPDEST DUP1 PUSH4 0x1FFC9A7 EQ PUSH2 0xD4 JUMPI DUP1 PUSH4 0x525BDCF EQ PUSH2 0x104 JUMPI DUP1 PUSH4 0x74540DA EQ PUSH2 0x134 JUMPI DUP1 PUSH4 0x150B7A02 EQ PUSH2 0x150 JUMPI DUP1 PUSH4 0x2A3B3836 EQ PUSH2 0x180 JUMPI DUP1 PUSH4 0x2A6C7D0C EQ PUSH2 0x19C JUMPI JUMPDEST PUSH1 0x0 DUP1 REVERT JUMPDEST PUSH2 0xEE PUSH1 0x4 DUP1 CALLDATASIZE SUB DUP2 ADD SWAP1 PUSH2 0xE9 SWAP2 SWAP1 PUSH2 0x1FB8 JUMP JUMPDEST PUSH2 0x294 JUMP JUMPDEST PUSH1 0x40 MLOAD PUSH2 0xFB SWAP2 SWAP1 PUSH2 0x2993 JUMP JUMPDEST PUSH1 0x40 MLOAD DUP1 SWAP2 SUB SWAP1 RETURN JUMPDEST PUSH2 0x11E PUSH1 0x4 DUP1 CALLDATASIZE SUB DUP2 ADD SWAP1 PUSH2 0x119 SWAP2 SWAP1 PUSH2 0x1FE1 JUMP JUMPDEST PUSH2 0x2FC JUMP JUMPDEST PUSH1 0x40 MLOAD PUSH2 0x12B SWAP2 SWAP1 PUSH2 0x2A0E JUMP JUMPDEST PUSH1 0x40 MLOAD DUP1 SWAP2 SUB SWAP1 RETURN JUMPDEST PUSH2 0x14E PUSH1 0x4 DUP1 CALLDATASIZE SUB DUP2 ADD SWAP1 PUSH2 0x149 SWAP2 SWAP1 PUSH2 0x1DCE JUMP JUMPDEST PUSH2 0x358 JUMP JUMPDEST STOP JUMPDEST PUSH2 0x16A PUSH1 0x4 DUP1 CALLDATASIZE SUB DUP2 ADD SWAP1 PUSH2 0x165 SWAP2 SWAP1 PUSH2 0x1D53 JUMP JUMPDEST PUSH2 0x3D8 JUMP JUMPDEST PUSH1 0x40 MLOAD PUSH2 0x177 SWAP2 SWAP1 PUSH2 0x29F3 JUMP JUMPDEST PUSH1 0x40 MLOAD DUP1 SWAP2 SUB SWAP1 RETURN JUMPDEST PUSH2 0x19A PUSH1 0x4 DUP1 CALLDATASIZE SUB DUP2 ADD SWAP1 PUSH2 0x195 SWAP2 SWAP1 PUSH2 0x1FE1 JUMP JUMPDEST PUSH2 0x675 JUMP JUMPDEST STOP JUMPDEST PUSH2 0x1B6 PUSH1 0x4 DUP1 CALLDATASIZE SUB DUP2 ADD SWAP1 PUSH2 0x1B1 SWAP2 SWAP1 PUSH2 0x1EAC JUMP JUMPDEST PUSH2 0x6C5 JUMP JUMPDEST STOP JUMPDEST PUSH2 0x1D2 PUSH1 0x4 DUP1 CALLDATASIZE SUB DUP2 ADD SWAP1 PUSH2 0x1CD SWAP2 SWAP1 PUSH2 0x1FE1 JUMP JUMPDEST PUSH2 0x75B JUMP JUMPDEST STOP JUMPDEST PUSH2 0x1EE PUSH1 0x4 DUP1 CALLDATASIZE SUB DUP2 ADD SWAP1 PUSH2 0x1E9 SWAP2 SWAP1 PUSH2 0x1E5D JUMP JUMPDEST PUSH2 0x7A1 JUMP JUMPDEST PUSH1 0x40 MLOAD PUSH2 0x1FB SWAP2 SWAP1 PUSH2 0x2C72 JUMP JUMPDEST PUSH1 0x40 MLOAD DUP1 SWAP2 SUB SWAP1 RETURN JUMPDEST PUSH2 0x20C PUSH2 0x88B JUMP JUMPDEST STOP JUMPDEST PUSH2 0x228 PUSH1 0x4 DUP1 CALLDATASIZE SUB DUP2 ADD SWAP1 PUSH2 0x223 SWAP2 SWAP1 PUSH2 0x1E5D JUMP JUMPDEST PUSH2 0x9DE JUMP JUMPDEST PUSH1 0x40 MLOAD PUSH2 0x235 SWAP2 SWAP1 PUSH2 0x2C50 JUMP JUMPDEST PUSH1 0x40 MLOAD DUP1 SWAP2 SUB SWAP1 RETURN JUMPDEST PUSH2 0x246 PUSH2 0xAEC JUMP JUMPDEST PUSH1 0x40 MLOAD PUSH2 0x253 SWAP2 SWAP1 PUSH2 0x2869 JUMP JUMPDEST PUSH1 0x40 MLOAD DUP1 SWAP2 SUB SWAP1 RETURN JUMPDEST PUSH2 0x276 PUSH1 0x4 DUP1 CALLDATASIZE SUB DUP2 ADD SWAP1 PUSH2 0x271 SWAP2 SWAP1 PUSH2 0x1FE1 JUMP JUMPDEST PUSH2 0xB15 JUMP JUMPDEST STOP JUMPDEST PUSH2 0x292 PUSH1 0x4 DUP1 CALLDATASIZE SUB DUP2 ADD SWAP1 PUSH2 0x28D SWAP2 SWAP1 PUSH2 0x1D01 JUMP JUMPDEST PUSH2 0xF9E JUMP JUMPDEST STOP JUMPDEST PUSH1 0x0 PUSH1 0x1 PUSH1 0x0 DUP4 PUSH28 0xFFFFFFFFFFFFFFFFFFFFFFFFFFFFFFFFFFFFFFFFFFFFFFFFFFFFFFFF NOT AND PUSH28 0xFFFFFFFFFFFFFFFFFFFFFFFFFFFFFFFFFFFFFFFFFFFFFFFFFFFFFFFF NOT AND DUP2 MSTORE PUSH1 0x20 ADD SWAP1 DUP2 MSTORE PUSH1 0x20 ADD PUSH1 0x0 KECCAK256 PUSH1 0x0 SWAP1 SLOAD SWAP1 PUSH2 0x100 EXP SWAP1 DIV PUSH1 0xFF AND SWAP1 POP SWAP2 SWAP1 POP JUMP JUMPDEST PUSH1 0x60 DUP1 DUP3 PUSH1 0x0 ADD MLOAD DUP4 PUSH1 0x20 ADD MLOAD DUP5 PUSH1 0x40 ADD MLOAD DUP6 PUSH1 0x60 ADD MLOAD DUP7 PUSH1 0x80 ADD MLOAD DUP8 PUSH1 0xA0 ADD MLOAD DUP9 PUSH1 0xC0 ADD MLOAD DUP10 PUSH1 0xE0 ADD MLOAD PUSH1 0x40 MLOAD PUSH1 0x20 ADD PUSH2 0x33E SWAP9 SWAP8 SWAP7 SWAP6 SWAP5 SWAP4 SWAP3 SWAP2 SWAP1 PUSH2 0x2907 JUMP JUMPDEST PUSH1 0x40 MLOAD PUSH1 0x20 DUP2 DUP4 SUB SUB DUP2 MSTORE SWAP1 PUSH1 0x40 MSTORE SWAP1 POP DUP1 SWAP2 POP POP SWAP2 SWAP1 POP JUMP JUMPDEST PUSH2 0x360 PUSH2 0x177C JUMP JUMPDEST PUSH2 0x372 DUP6 DUP6 PUSH2 0x36D PUSH2 0x1160 JUMP JUMPDEST PUSH2 0x9DE JUMP JUMPDEST SWAP1 POP PUSH1 0x1 DUP2 PUSH1 0x20 ADD MLOAD EQ PUSH2 0x3BB JUMPI PUSH1 0x40 MLOAD PUSH32 0x8C379A000000000000000000000000000000000000000000000000000000000 DUP2 MSTORE PUSH1 0x4 ADD PUSH2 0x3B2 SWAP1 PUSH2 0x2BB0 JUMP JUMPDEST PUSH1 0x40 MLOAD DUP1 SWAP2 SUB SWAP1 REVERT JUMPDEST PUSH2 0x3D0 PUSH2 0x3C6 PUSH2 0x1160 JUMP JUMPDEST DUP8 DUP8 DUP8 DUP8 DUP8 PUSH2 0x1168 JUMP JUMPDEST POP POP POP POP POP POP JUMP JUMPDEST PUSH1 0x0 DUP1 PUSH2 0x3EB PUSH2 0x3E6 PUSH2 0x1160 JUMP JUMPDEST PUSH2 0x1304 JUMP JUMPDEST SWAP1 POP ADDRESS PUSH20 0xFFFFFFFFFFFFFFFFFFFFFFFFFFFFFFFFFFFFFFFF AND DUP2 PUSH20 0xFFFFFFFFFFFFFFFFFFFFFFFFFFFFFFFFFFFFFFFF AND PUSH4 0x6352211E DUP7 PUSH1 0x40 MLOAD DUP3 PUSH4 0xFFFFFFFF AND PUSH1 0xE0 SHL DUP2 MSTORE PUSH1 0x4 ADD PUSH2 0x43D SWAP2 SWAP1 PUSH2 0x2C72 JUMP JUMPDEST PUSH1 0x20 PUSH1 0x40 MLOAD DUP1 DUP4 SUB DUP2 DUP7 DUP1 EXTCODESIZE ISZERO DUP1 ISZERO PUSH2 0x455 JUMPI PUSH1 0x0 DUP1 REVERT JUMPDEST POP GAS STATICCALL ISZERO DUP1 ISZERO PUSH2 0x469 JUMPI RETURNDATASIZE PUSH1 0x0 DUP1 RETURNDATACOPY RETURNDATASIZE PUSH1 0x0 REVERT JUMPDEST POP POP POP POP PUSH1 0x40 MLOAD RETURNDATASIZE PUSH1 0x1F NOT PUSH1 0x1F DUP3 ADD AND DUP3 ADD DUP1 PUSH1 0x40 MSTORE POP DUP2 ADD SWAP1 PUSH2 0x48D SWAP2 SWAP1 PUSH2 0x1D2A JUMP JUMPDEST PUSH20 0xFFFFFFFFFFFFFFFFFFFFFFFFFFFFFFFFFFFFFFFF AND EQ PUSH2 0x4E3 JUMPI PUSH1 0x40 MLOAD PUSH32 0x8C379A000000000000000000000000000000000000000000000000000000000 DUP2 MSTORE PUSH1 0x4 ADD PUSH2 0x4DA SWAP1 PUSH2 0x2C10 JUMP JUMPDEST PUSH1 0x40 MLOAD DUP1 SWAP2 SUB SWAP1 REVERT JUMPDEST PUSH1 0x60 PUSH1 0x0 DUP5 DUP1 PUSH1 0x20 ADD SWAP1 MLOAD DUP2 ADD SWAP1 PUSH2 0x4FB SWAP2 SWAP1 PUSH2 0x1F3B JUMP JUMPDEST DUP1 SWAP3 POP DUP2 SWAP4 POP POP POP PUSH2 0x50C DUP3 PUSH2 0x143B JUMP JUMPDEST POP PUSH1 0x0 DUP2 EQ ISZERO DUP1 ISZERO PUSH2 0x51F JUMPI POP DUP2 MLOAD DUP2 GT ISZERO JUMPDEST PUSH2 0x55E JUMPI PUSH1 0x40 MLOAD PUSH32 0x8C379A000000000000000000000000000000000000000000000000000000000 DUP2 MSTORE PUSH1 0x4 ADD PUSH2 0x555 SWAP1 PUSH2 0x2AD0 JUMP JUMPDEST PUSH1 0x40 MLOAD DUP1 SWAP2 SUB SWAP1 REVERT JUMPDEST PUSH1 0x0 PUSH1 0x2 PUSH1 0x0 DUP6 PUSH20 0xFFFFFFFFFFFFFFFFFFFFFFFFFFFFFFFFFFFFFFFF AND PUSH20 0xFFFFFFFFFFFFFFFFFFFFFFFFFFFFFFFFFFFFFFFF AND DUP2 MSTORE PUSH1 0x20 ADD SWAP1 DUP2 MSTORE PUSH1 0x20 ADD PUSH1 0x0 KECCAK256 PUSH1 0x0 DUP9 DUP2 MSTORE PUSH1 0x20 ADD SWAP1 DUP2 MSTORE PUSH1 0x20 ADD PUSH1 0x0 KECCAK256 SWAP1 POP DUP3 DUP2 PUSH1 0x2 ADD SWAP1 DUP1 MLOAD SWAP1 PUSH1 0x20 ADD SWAP1 PUSH2 0x5CA SWAP3 SWAP2 SWAP1 PUSH2 0x179D JUMP JUMPDEST POP DUP2 DUP2 PUSH1 0x1 ADD DUP2 SWAP1 SSTORE POP PUSH1 0x1 DUP2 PUSH1 0x0 ADD DUP2 SWAP1 SSTORE POP DUP7 DUP4 PUSH1 0x0 DUP2 MLOAD DUP2 LT PUSH2 0x5EC JUMPI INVALID JUMPDEST PUSH1 0x20 MUL PUSH1 0x20 ADD ADD MLOAD PUSH20 0xFFFFFFFFFFFFFFFFFFFFFFFFFFFFFFFFFFFFFFFF AND PUSH1 0x0 PUSH20 0xFFFFFFFFFFFFFFFFFFFFFFFFFFFFFFFFFFFFFFFF AND PUSH32 0x737AB30B9CD3DDAE02069F3057591007FAF2305652D04C2582F7F1F6185D9711 DUP8 PUSH1 0x0 PUSH1 0x1 PUSH1 0x40 MLOAD PUSH2 0x657 SWAP4 SWAP3 SWAP2 SWAP1 PUSH2 0x28D0 JUMP JUMPDEST PUSH1 0x40 MLOAD DUP1 SWAP2 SUB SWAP1 LOG4 PUSH4 0x150B7A02 PUSH1 0xE0 SHL SWAP5 POP POP POP POP POP SWAP5 SWAP4 POP POP POP POP JUMP JUMPDEST PUSH2 0x67E DUP2 PUSH2 0xB15 JUMP JUMPDEST PUSH2 0x686 PUSH2 0x177C JUMP JUMPDEST PUSH2 0x6A2 DUP3 PUSH1 0x0 ADD MLOAD DUP4 PUSH1 0x20 ADD MLOAD DUP5 PUSH1 0x60 ADD MLOAD DUP6 PUSH1 0xE0 ADD MLOAD PUSH2 0x149D JUMP JUMPDEST SWAP1 POP PUSH2 0x6C1 DUP3 PUSH1 0x40 ADD MLOAD DUP3 DUP5 PUSH1 0x0 ADD MLOAD DUP6 PUSH1 0x20 ADD MLOAD DUP7 PUSH1 0x80 ADD MLOAD PUSH2 0x1545 JUMP JUMPDEST POP POP JUMP JUMPDEST PUSH2 0x6CD PUSH2 0x177C JUMP JUMPDEST PUSH2 0x6DF DUP6 DUP6 PUSH2 0x6DA PUSH2 0x1160 JUMP JUMPDEST PUSH2 0x9DE JUMP JUMPDEST SWAP1 POP PUSH1 0x1 DUP2 PUSH1 0x20 ADD MLOAD EQ PUSH2 0x728 JUMPI PUSH1 0x40 MLOAD PUSH32 0x8C379A000000000000000000000000000000000000000000000000000000000 DUP2 MSTORE PUSH1 0x4 ADD PUSH2 0x71F SWAP1 PUSH2 0x2BB0 JUMP JUMPDEST PUSH1 0x40 MLOAD DUP1 SWAP2 SUB SWAP1 REVERT JUMPDEST PUSH2 0x730 PUSH2 0x177C JUMP JUMPDEST PUSH2 0x73C DUP7 DUP7 DUP10 DUP7 PUSH2 0x149D JUMP JUMPDEST SWAP1 POP PUSH2 0x752 PUSH2 0x749 PUSH2 0x1160 JUMP JUMPDEST DUP3 DUP9 DUP9 DUP9 PUSH2 0x1545 JUMP JUMPDEST POP POP POP POP POP POP POP JUMP JUMPDEST PUSH2 0x764 DUP2 PUSH2 0xB15 JUMP JUMPDEST PUSH2 0x79E DUP2 PUSH1 0x40 ADD MLOAD DUP3 PUSH1 0x60 ADD MLOAD PUSH1 0x0 DUP2 MLOAD DUP2 LT PUSH2 0x77D JUMPI INVALID JUMPDEST PUSH1 0x20 MUL PUSH1 0x20 ADD ADD MLOAD DUP4 PUSH1 0x0 ADD MLOAD DUP5 PUSH1 0x20 ADD MLOAD DUP6 PUSH1 0x80 ADD MLOAD DUP7 PUSH1 0xA0 ADD MLOAD PUSH2 0x1168 JUMP JUMPDEST POP JUMP JUMPDEST PUSH1 0x0 DUP1 PUSH1 0x2 PUSH1 0x0 DUP7 PUSH20 0xFFFFFFFFFFFFFFFFFFFFFFFFFFFFFFFFFFFFFFFF AND PUSH20 0xFFFFFFFFFFFFFFFFFFFFFFFFFFFFFFFFFFFFFFFF AND DUP2 MSTORE PUSH1 0x20 ADD SWAP1 DUP2 MSTORE PUSH1 0x20 ADD PUSH1 0x0 KECCAK256 PUSH1 0x0 DUP6 DUP2 MSTORE PUSH1 0x20 ADD SWAP1 DUP2 MSTORE PUSH1 0x20 ADD PUSH1 0x0 KECCAK256 PUSH1 0x2 ADD SWAP1 POP PUSH1 0x0 DUP2 DUP1 SLOAD SWAP1 POP EQ ISZERO DUP1 ISZERO PUSH2 0x870 JUMPI POP DUP3 PUSH20 0xFFFFFFFFFFFFFFFFFFFFFFFFFFFFFFFFFFFFFFFF AND DUP2 PUSH1 0x0 DUP2 SLOAD DUP2 LT PUSH2 0x82D JUMPI INVALID JUMPDEST SWAP1 PUSH1 0x0 MSTORE PUSH1 0x20 PUSH1 0x0 KECCAK256 ADD PUSH1 0x0 SWAP1 SLOAD SWAP1 PUSH2 0x100 EXP SWAP1 DIV PUSH20 0xFFFFFFFFFFFFFFFFFFFFFFFFFFFFFFFFFFFFFFFF AND PUSH20 0xFFFFFFFFFFFFFFFFFFFFFFFFFFFFFFFFFFFFFFFF AND EQ JUMPDEST PUSH2 0x87B JUMPI PUSH1 0x0 PUSH2 0x87E JUMP JUMPDEST PUSH1 0x1 JUMPDEST PUSH1 0xFF AND SWAP2 POP POP SWAP4 SWAP3 POP POP POP JUMP JUMPDEST PUSH2 0x893 PUSH2 0x1160 JUMP JUMPDEST PUSH20 0xFFFFFFFFFFFFFFFFFFFFFFFFFFFFFFFFFFFFFFFF AND PUSH1 0x0 DUP1 SLOAD SWAP1 PUSH2 0x100 EXP SWAP1 DIV PUSH20 0xFFFFFFFFFFFFFFFFFFFFFFFFFFFFFFFFFFFFFFFF AND PUSH20 0xFFFFFFFFFFFFFFFFFFFFFFFFFFFFFFFFFFFFFFFF AND EQ PUSH2 0x920 JUMPI PUSH1 0x40 MLOAD PUSH32 0x8C379A000000000000000000000000000000000000000000000000000000000 DUP2 MSTORE PUSH1 0x4 ADD PUSH2 0x917 SWAP1 PUSH2 0x2B70 JUMP JUMPDEST PUSH1 0x40 MLOAD DUP1 SWAP2 SUB SWAP1 REVERT JUMPDEST PUSH1 0x0 PUSH20 0xFFFFFFFFFFFFFFFFFFFFFFFFFFFFFFFFFFFFFFFF AND PUSH1 0x0 DUP1 SLOAD SWAP1 PUSH2 0x100 EXP SWAP1 DIV PUSH20 0xFFFFFFFFFFFFFFFFFFFFFFFFFFFFFFFFFFFFFFFF AND PUSH20 0xFFFFFFFFFFFFFFFFFFFFFFFFFFFFFFFFFFFFFFFF AND PUSH32 0x8BE0079C531659141344CD1FD0A4F28419497F9722A3DAAFE3B4186F6B6457E0 PUSH1 0x40 MLOAD PUSH1 0x40 MLOAD DUP1 SWAP2 SUB SWAP1 LOG3 PUSH1 0x0 DUP1 PUSH1 0x0 PUSH2 0x100 EXP DUP2 SLOAD DUP2 PUSH20 0xFFFFFFFFFFFFFFFFFFFFFFFFFFFFFFFFFFFFFFFF MUL NOT AND SWAP1 DUP4 PUSH20 0xFFFFFFFFFFFFFFFFFFFFFFFFFFFFFFFFFFFFFFFF AND MUL OR SWAP1 SSTORE POP JUMP JUMPDEST PUSH2 0x9E6 PUSH2 0x177C JUMP JUMPDEST PUSH1 0x2 PUSH1 0x0 DUP6 PUSH20 0xFFFFFFFFFFFFFFFFFFFFFFFFFFFFFFFFFFFFFFFF AND PUSH20 0xFFFFFFFFFFFFFFFFFFFFFFFFFFFFFFFFFFFFFFFF AND DUP2 MSTORE PUSH1 0x20 ADD SWAP1 DUP2 MSTORE PUSH1 0x20 ADD PUSH1 0x0 KECCAK256 PUSH1 0x0 DUP5 DUP2 MSTORE PUSH1 0x20 ADD SWAP1 DUP2 MSTORE PUSH1 0x20 ADD PUSH1 0x0 KECCAK256 PUSH1 0x40 MLOAD DUP1 PUSH1 0x60 ADD PUSH1 0x40 MSTORE SWAP1 DUP2 PUSH1 0x0 DUP3 ADD SLOAD DUP2 MSTORE PUSH1 0x20 ADD PUSH1 0x1 DUP3 ADD SLOAD DUP2 MSTORE PUSH1 0x20 ADD PUSH1 0x2 DUP3 ADD DUP1 SLOAD DUP1 PUSH1 0x20 MUL PUSH1 0x20 ADD PUSH1 0x40 MLOAD SWAP1 DUP2 ADD PUSH1 0x40 MSTORE DUP1 SWAP3 SWAP2 SWAP1 DUP2 DUP2 MSTORE PUSH1 0x20 ADD DUP3 DUP1 SLOAD DUP1 ISZERO PUSH2 0xADA JUMPI PUSH1 0x20 MUL DUP3 ADD SWAP2 SWAP1 PUSH1 0x0 MSTORE PUSH1 0x20 PUSH1 0x0 KECCAK256 SWAP1 JUMPDEST DUP2 PUSH1 0x0 SWAP1 SLOAD SWAP1 PUSH2 0x100 EXP SWAP1 DIV PUSH20 0xFFFFFFFFFFFFFFFFFFFFFFFFFFFFFFFFFFFFFFFF AND PUSH20 0xFFFFFFFFFFFFFFFFFFFFFFFFFFFFFFFFFFFFFFFF AND DUP2 MSTORE PUSH1 0x20 ADD SWAP1 PUSH1 0x1 ADD SWAP1 DUP1 DUP4 GT PUSH2 0xA90 JUMPI JUMPDEST POP POP POP POP POP DUP2 MSTORE POP POP SWAP1 POP SWAP4 SWAP3 POP POP POP JUMP JUMPDEST PUSH1 0x0 DUP1 PUSH1 0x0 SWAP1 SLOAD SWAP1 PUSH2 0x100 EXP SWAP1 DIV PUSH20 0xFFFFFFFFFFFFFFFFFFFFFFFFFFFFFFFFFFFFFFFF AND SWAP1 POP SWAP1 JUMP JUMPDEST TIMESTAMP DUP2 PUSH1 0xC0 ADD MLOAD GT PUSH2 0xB5B JUMPI PUSH1 0x40 MLOAD PUSH32 0x8C379A000000000000000000000000000000000000000000000000000000000 DUP2 MSTORE PUSH1 0x4 ADD PUSH2 0xB52 SWAP1 PUSH2 0x2A30 JUMP JUMPDEST PUSH1 0x40 MLOAD DUP1 SWAP2 SUB SWAP1 REVERT JUMPDEST PUSH1 0x0 DUP2 PUSH1 0x0 ADD MLOAD SWAP1 POP PUSH1 0x0 DUP3 PUSH1 0x20 ADD MLOAD SWAP1 POP PUSH1 0x0 DUP4 PUSH1 0x40 ADD MLOAD SWAP1 POP PUSH1 0x60 DUP5 PUSH2 0x100 ADD MLOAD SWAP1 POP PUSH1 0x60 DUP6 PUSH2 0x120 ADD MLOAD SWAP1 POP PUSH1 0x60 PUSH2 0xB95 DUP8 PUSH2 0x2FC JUMP JUMPDEST SWAP1 POP PUSH1 0x0 DUP2 DUP1 MLOAD SWAP1 PUSH1 0x20 ADD KECCAK256 SWAP1 POP PUSH2 0xBAB PUSH2 0x177C JUMP JUMPDEST PUSH2 0xBB6 DUP9 DUP9 DUP9 PUSH2 0x9DE JUMP JUMPDEST SWAP1 POP PUSH1 0x0 PUSH20 0xFFFFFFFFFFFFFFFFFFFFFFFFFFFFFFFFFFFFFFFF AND DUP7 PUSH20 0xFFFFFFFFFFFFFFFFFFFFFFFFFFFFFFFFFFFFFFFF AND EQ ISZERO PUSH2 0xC28 JUMPI PUSH1 0x40 MLOAD PUSH32 0x8C379A000000000000000000000000000000000000000000000000000000000 DUP2 MSTORE PUSH1 0x4 ADD PUSH2 0xC1F SWAP1 PUSH2 0x2B50 JUMP JUMPDEST PUSH1 0x40 MLOAD DUP1 SWAP2 SUB SWAP1 REVERT JUMPDEST DUP1 PUSH1 0x40 ADD MLOAD PUSH1 0x0 DUP2 MLOAD DUP2 LT PUSH2 0xC39 JUMPI INVALID JUMPDEST PUSH1 0x20 MUL PUSH1 0x20 ADD ADD MLOAD PUSH20 0xFFFFFFFFFFFFFFFFFFFFFFFFFFFFFFFFFFFFFFFF AND DUP7 PUSH20 0xFFFFFFFFFFFFFFFFFFFFFFFFFFFFFFFFFFFFFFFF AND EQ PUSH2 0xCAE JUMPI PUSH1 0x40 MLOAD PUSH32 0x8C379A000000000000000000000000000000000000000000000000000000000 DUP2 MSTORE PUSH1 0x4 ADD PUSH2 0xCA5 SWAP1 PUSH2 0x2AF0 JUMP JUMPDEST PUSH1 0x40 MLOAD DUP1 SWAP2 SUB SWAP1 REVERT JUMPDEST DUP1 PUSH1 0x20 ADD MLOAD DUP6 MLOAD LT ISZERO PUSH2 0xCF6 JUMPI PUSH1 0x40 MLOAD PUSH32 0x8C379A000000000000000000000000000000000000000000000000000000000 DUP2 MSTORE PUSH1 0x4 ADD PUSH2 0xCED SWAP1 PUSH2 0x2BF0 JUMP JUMPDEST PUSH1 0x40 MLOAD DUP1 SWAP2 SUB SWAP1 REVERT JUMPDEST DUP4 MLOAD DUP6 MLOAD EQ PUSH2 0xD3A JUMPI PUSH1 0x40 MLOAD PUSH32 0x8C379A000000000000000000000000000000000000000000000000000000000 DUP2 MSTORE PUSH1 0x4 ADD PUSH2 0xD31 SWAP1 PUSH2 0x2A90 JUMP JUMPDEST PUSH1 0x40 MLOAD DUP1 SWAP2 SUB SWAP1 REVERT JUMPDEST PUSH1 0x60 DUP2 PUSH1 0x20 ADD MLOAD PUSH8 0xFFFFFFFFFFFFFFFF DUP2 GT DUP1 ISZERO PUSH2 0xD57 JUMPI PUSH1 0x0 DUP1 REVERT JUMPDEST POP PUSH1 0x40 MLOAD SWAP1 DUP1 DUP3 MSTORE DUP1 PUSH1 0x20 MUL PUSH1 0x20 ADD DUP3 ADD PUSH1 0x40 MSTORE DUP1 ISZERO PUSH2 0xD86 JUMPI DUP2 PUSH1 0x20 ADD PUSH1 0x20 DUP3 MUL DUP1 CALLDATASIZE DUP4 CALLDATACOPY DUP1 DUP3 ADD SWAP2 POP POP SWAP1 POP JUMPDEST POP SWAP1 POP PUSH1 0x0 DUP1 JUMPDEST DUP8 MLOAD DUP2 LT ISZERO PUSH2 0xF49 JUMPI PUSH1 0x0 DUP9 DUP3 DUP2 MLOAD DUP2 LT PUSH2 0xDA4 JUMPI INVALID JUMPDEST PUSH1 0x20 MUL PUSH1 0x20 ADD ADD MLOAD SWAP1 POP PUSH32 0xFFFFFFFFFFFFFFFFFFFFFFFFFFFFFFFFFFFFFFFFFFFFFFFFFFFFFFFFFFFFFFFF PUSH2 0xDD9 DUP6 DUP4 PUSH2 0x1698 JUMP JUMPDEST EQ DUP1 ISZERO PUSH2 0xE13 JUMPI POP PUSH32 0xFFFFFFFFFFFFFFFFFFFFFFFFFFFFFFFFFFFFFFFFFFFFFFFFFFFFFFFFFFFFFFFF PUSH2 0xE10 DUP7 PUSH1 0x40 ADD MLOAD DUP4 PUSH2 0x1698 JUMP JUMPDEST EQ ISZERO JUMPDEST ISZERO PUSH2 0xF3B JUMPI PUSH2 0xE20 PUSH2 0x1827 JUMP JUMPDEST DUP9 DUP4 DUP2 MLOAD DUP2 LT PUSH2 0xE2C JUMPI INVALID JUMPDEST PUSH1 0x20 MUL PUSH1 0x20 ADD ADD MLOAD SWAP1 POP PUSH1 0x0 PUSH1 0x1 DUP9 DUP4 PUSH1 0x40 ADD MLOAD DUP5 PUSH1 0x0 ADD MLOAD DUP6 PUSH1 0x20 ADD MLOAD PUSH1 0x40 MLOAD PUSH1 0x0 DUP2 MSTORE PUSH1 0x20 ADD PUSH1 0x40 MSTORE PUSH1 0x40 MLOAD PUSH2 0xE67 SWAP5 SWAP4 SWAP3 SWAP2 SWAP1 PUSH2 0x29AE JUMP JUMPDEST PUSH1 0x20 PUSH1 0x40 MLOAD PUSH1 0x20 DUP2 SUB SWAP1 DUP1 DUP5 SUB SWAP1 DUP6 GAS STATICCALL ISZERO DUP1 ISZERO PUSH2 0xE89 JUMPI RETURNDATASIZE PUSH1 0x0 DUP1 RETURNDATACOPY RETURNDATASIZE PUSH1 0x0 REVERT JUMPDEST POP POP POP PUSH1 0x20 PUSH1 0x40 MLOAD SUB MLOAD SWAP1 POP DUP3 PUSH20 0xFFFFFFFFFFFFFFFFFFFFFFFFFFFFFFFFFFFFFFFF AND DUP2 PUSH20 0xFFFFFFFFFFFFFFFFFFFFFFFFFFFFFFFFFFFFFFFF AND EQ ISZERO PUSH2 0xF38 JUMPI DUP3 DUP7 DUP7 DUP2 MLOAD DUP2 LT PUSH2 0xED6 JUMPI INVALID JUMPDEST PUSH1 0x20 MUL PUSH1 0x20 ADD ADD SWAP1 PUSH20 0xFFFFFFFFFFFFFFFFFFFFFFFFFFFFFFFFFFFFFFFF AND SWAP1 DUP2 PUSH20 0xFFFFFFFFFFFFFFFFFFFFFFFFFFFFFFFFFFFFFFFF AND DUP2 MSTORE POP POP DUP5 DUP1 PUSH1 0x1 ADD SWAP6 POP POP DUP7 PUSH1 0x20 ADD MLOAD DUP6 EQ ISZERO PUSH2 0xF37 JUMPI POP POP POP POP POP POP POP POP POP POP POP POP POP POP PUSH2 0xF9B JUMP JUMPDEST JUMPDEST POP POP JUMPDEST POP DUP1 DUP1 PUSH1 0x1 ADD SWAP2 POP POP PUSH2 0xD8D JUMP JUMPDEST POP DUP3 PUSH1 0x20 ADD MLOAD DUP2 EQ PUSH2 0xF90 JUMPI PUSH1 0x40 MLOAD PUSH32 0x8C379A000000000000000000000000000000000000000000000000000000000 DUP2 MSTORE PUSH1 0x4 ADD PUSH2 0xF87 SWAP1 PUSH2 0x2A50 JUMP JUMPDEST PUSH1 0x40 MLOAD DUP1 SWAP2 SUB SWAP1 REVERT JUMPDEST POP POP POP POP POP POP POP POP POP POP JUMPDEST POP JUMP JUMPDEST PUSH2 0xFA6 PUSH2 0x1160 JUMP JUMPDEST PUSH20 0xFFFFFFFFFFFFFFFFFFFFFFFFFFFFFFFFFFFFFFFF AND PUSH1 0x0 DUP1 SLOAD SWAP1 PUSH2 0x100 EXP SWAP1 DIV PUSH20 0xFFFFFFFFFFFFFFFFFFFFFFFFFFFFFFFFFFFFFFFF AND PUSH20 0xFFFFFFFFFFFFFFFFFFFFFFFFFFFFFFFFFFFFFFFF AND EQ PUSH2 0x1033 JUMPI PUSH1 0x40 MLOAD PUSH32 0x8C379A000000000000000000000000000000000000000000000000000000000 DUP2 MSTORE PUSH1 0x4 ADD PUSH2 0x102A SWAP1 PUSH2 0x2B70 JUMP JUMPDEST PUSH1 0x40 MLOAD DUP1 SWAP2 SUB SWAP1 REVERT JUMPDEST PUSH1 0x0 PUSH20 0xFFFFFFFFFFFFFFFFFFFFFFFFFFFFFFFFFFFFFFFF AND DUP2 PUSH20 0xFFFFFFFFFFFFFFFFFFFFFFFFFFFFFFFFFFFFFFFF AND EQ ISZERO PUSH2 0x10A3 JUMPI PUSH1 0x40 MLOAD PUSH32 0x8C379A000000000000000000000000000000000000000000000000000000000 DUP2 MSTORE PUSH1 0x4 ADD PUSH2 0x109A SWAP1 PUSH2 0x2A70 JUMP JUMPDEST PUSH1 0x40 MLOAD DUP1 SWAP2 SUB SWAP1 REVERT JUMPDEST DUP1 PUSH20 0xFFFFFFFFFFFFFFFFFFFFFFFFFFFFFFFFFFFFFFFF AND PUSH1 0x0 DUP1 SLOAD SWAP1 PUSH2 0x100 EXP SWAP1 DIV PUSH20 0xFFFFFFFFFFFFFFFFFFFFFFFFFFFFFFFFFFFFFFFF AND PUSH20 0xFFFFFFFFFFFFFFFFFFFFFFFFFFFFFFFFFFFFFFFF AND PUSH32 0x8BE0079C531659141344CD1FD0A4F28419497F9722A3DAAFE3B4186F6B6457E0 PUSH1 0x40 MLOAD PUSH1 0x40 MLOAD DUP1 SWAP2 SUB SWAP1 LOG3 DUP1 PUSH1 0x0 DUP1 PUSH2 0x100 EXP DUP2 SLOAD DUP2 PUSH20 0xFFFFFFFFFFFFFFFFFFFFFFFFFFFFFFFFFFFFFFFF MUL NOT AND SWAP1 DUP4 PUSH20 0xFFFFFFFFFFFFFFFFFFFFFFFFFFFFFFFFFFFFFFFF AND MUL OR SWAP1 SSTORE POP POP JUMP JUMPDEST PUSH1 0x0 CALLER SWAP1 POP SWAP1 JUMP JUMPDEST PUSH1 0x1 DUP3 EQ PUSH2 0x11AB JUMPI PUSH1 0x40 MLOAD PUSH32 0x8C379A000000000000000000000000000000000000000000000000000000000 DUP2 MSTORE PUSH1 0x4 ADD PUSH2 0x11A2 SWAP1 PUSH2 0x2B30 JUMP JUMPDEST PUSH1 0x40 MLOAD DUP1 SWAP2 SUB SWAP1 REVERT JUMPDEST PUSH1 0x2 PUSH1 0x0 DUP6 PUSH20 0xFFFFFFFFFFFFFFFFFFFFFFFFFFFFFFFFFFFFFFFF AND PUSH20 0xFFFFFFFFFFFFFFFFFFFFFFFFFFFFFFFFFFFFFFFF AND DUP2 MSTORE PUSH1 0x20 ADD SWAP1 DUP2 MSTORE PUSH1 0x20 ADD PUSH1 0x0 KECCAK256 PUSH1 0x0 DUP5 DUP2 MSTORE PUSH1 0x20 ADD SWAP1 DUP2 MSTORE PUSH1 0x20 ADD PUSH1 0x0 KECCAK256 PUSH1 0x0 DUP1 DUP3 ADD PUSH1 0x0 SWAP1 SSTORE PUSH1 0x1 DUP3 ADD PUSH1 0x0 SWAP1 SSTORE PUSH1 0x2 DUP3 ADD PUSH1 0x0 PUSH2 0x121C SWAP2 SWAP1 PUSH2 0x1851 JUMP JUMPDEST POP POP DUP4 PUSH20 0xFFFFFFFFFFFFFFFFFFFFFFFFFFFFFFFFFFFFFFFF AND PUSH4 0xB88D4FDE ADDRESS DUP8 DUP7 DUP6 PUSH1 0x40 MLOAD DUP6 PUSH4 0xFFFFFFFF AND PUSH1 0xE0 SHL DUP2 MSTORE PUSH1 0x4 ADD PUSH2 0x125D SWAP5 SWAP4 SWAP3 SWAP2 SWAP1 PUSH2 0x2884 JUMP JUMPDEST PUSH1 0x0 PUSH1 0x40 MLOAD DUP1 DUP4 SUB DUP2 PUSH1 0x0 DUP8 DUP1 EXTCODESIZE ISZERO DUP1 ISZERO PUSH2 0x1277 JUMPI PUSH1 0x0 DUP1 REVERT JUMPDEST POP GAS CALL ISZERO DUP1 ISZERO PUSH2 0x128B JUMPI RETURNDATASIZE PUSH1 0x0 DUP1 RETURNDATACOPY RETURNDATASIZE PUSH1 0x0 REVERT JUMPDEST POP POP POP POP DUP3 PUSH1 0x0 PUSH20 0xFFFFFFFFFFFFFFFFFFFFFFFFFFFFFFFFFFFFFFFF AND DUP8 PUSH20 0xFFFFFFFFFFFFFFFFFFFFFFFFFFFFFFFFFFFFFFFF AND PUSH32 0x737AB30B9CD3DDAE02069F3057591007FAF2305652D04C2582F7F1F6185D9711 DUP8 PUSH1 0x0 PUSH1 0x1 PUSH1 0x40 MLOAD PUSH2 0x12F4 SWAP4 SWAP3 SWAP2 SWAP1 PUSH2 0x28D0 JUMP JUMPDEST PUSH1 0x40 MLOAD DUP1 SWAP2 SUB SWAP1 LOG4 POP POP POP POP POP POP JUMP JUMPDEST PUSH1 0x0 PUSH2 0x1325 DUP3 PUSH20 0xFFFFFFFFFFFFFFFFFFFFFFFFFFFFFFFFFFFFFFFF AND PUSH2 0x1731 JUMP JUMPDEST PUSH2 0x1364 JUMPI PUSH1 0x40 MLOAD PUSH32 0x8C379A000000000000000000000000000000000000000000000000000000000 DUP2 MSTORE PUSH1 0x4 ADD PUSH2 0x135B SWAP1 PUSH2 0x2BD0 JUMP JUMPDEST PUSH1 0x40 MLOAD DUP1 SWAP2 SUB SWAP1 REVERT JUMPDEST DUP2 PUSH20 0xFFFFFFFFFFFFFFFFFFFFFFFFFFFFFFFFFFFFFFFF AND PUSH4 0x1FFC9A7 PUSH4 0x80AC58CD PUSH1 0xE0 SHL PUSH1 0x40 MLOAD DUP3 PUSH4 0xFFFFFFFF AND PUSH1 0xE0 SHL DUP2 MSTORE PUSH1 0x4 ADD PUSH2 0x13A4 SWAP2 SWAP1 PUSH2 0x29F3 JUMP JUMPDEST PUSH1 0x20 PUSH1 0x40 MLOAD DUP1 DUP4 SUB DUP2 DUP7 DUP1 EXTCODESIZE ISZERO DUP1 ISZERO PUSH2 0x13BC JUMPI PUSH1 0x0 DUP1 REVERT JUMPDEST POP GAS STATICCALL ISZERO DUP1 ISZERO PUSH2 0x13D0 JUMPI RETURNDATASIZE PUSH1 0x0 DUP1 RETURNDATACOPY RETURNDATASIZE PUSH1 0x0 REVERT JUMPDEST POP POP POP POP PUSH1 0x40 MLOAD RETURNDATASIZE PUSH1 0x1F NOT PUSH1 0x1F DUP3 ADD AND DUP3 ADD DUP1 PUSH1 0x40 MSTORE POP DUP2 ADD SWAP1 PUSH2 0x13F4 SWAP2 SWAP1 PUSH2 0x1F8F JUMP JUMPDEST PUSH2 0x1433 JUMPI PUSH1 0x40 MLOAD PUSH32 0x8C379A000000000000000000000000000000000000000000000000000000000 DUP2 MSTORE PUSH1 0x4 ADD PUSH2 0x142A SWAP1 PUSH2 0x2AB0 JUMP JUMPDEST PUSH1 0x40 MLOAD DUP1 SWAP2 SUB SWAP1 REVERT JUMPDEST DUP2 SWAP1 POP SWAP2 SWAP1 POP JUMP JUMPDEST PUSH1 0x0 DUP1 DUP3 MLOAD EQ ISZERO PUSH2 0x1481 JUMPI PUSH1 0x40 MLOAD PUSH32 0x8C379A000000000000000000000000000000000000000000000000000000000 DUP2 MSTORE PUSH1 0x4 ADD PUSH2 0x1478 SWAP1 PUSH2 0x2B10 JUMP JUMPDEST PUSH1 0x40 MLOAD DUP1 SWAP2 SUB SWAP1 REVERT JUMPDEST DUP2 PUSH1 0x0 DUP2 MLOAD DUP2 LT PUSH2 0x148E JUMPI INVALID JUMPDEST PUSH1 0x20 MUL PUSH1 0x20 ADD ADD MLOAD SWAP1 POP SWAP2 SWAP1 POP JUMP JUMPDEST PUSH2 0x14A5 PUSH2 0x177C JUMP JUMPDEST PUSH1 0x0 PUSH2 0x14B0 DUP5 PUSH2 0x143B JUMP JUMPDEST SWAP1 POP PUSH2 0x14BA PUSH2 0x177C JUMP JUMPDEST PUSH2 0x14C5 DUP8 DUP8 DUP5 PUSH2 0x9DE JUMP JUMPDEST SWAP1 POP PUSH1 0x0 DUP2 PUSH1 0x40 ADD MLOAD MLOAD EQ ISZERO PUSH2 0x1538 JUMPI DUP5 MLOAD DUP5 GT ISZERO PUSH2 0x1519 JUMPI PUSH1 0x40 MLOAD PUSH32 0x8C379A000000000000000000000000000000000000000000000000000000000 DUP2 MSTORE PUSH1 0x4 ADD PUSH2 0x1510 SWAP1 PUSH2 0x2C30 JUMP JUMPDEST PUSH1 0x40 MLOAD DUP1 SWAP2 SUB SWAP1 REVERT JUMPDEST PUSH1 0x1 DUP2 PUSH1 0x0 ADD DUP2 DUP2 MSTORE POP POP DUP5 DUP2 PUSH1 0x40 ADD DUP2 SWAP1 MSTORE POP DUP4 DUP2 PUSH1 0x20 ADD DUP2 DUP2 MSTORE POP POP JUMPDEST DUP1 SWAP3 POP POP POP SWAP5 SWAP4 POP POP POP POP JUMP JUMPDEST PUSH1 0x1 DUP2 EQ PUSH2 0x1588 JUMPI PUSH1 0x40 MLOAD PUSH32 0x8C379A000000000000000000000000000000000000000000000000000000000 DUP2 MSTORE PUSH1 0x4 ADD PUSH2 0x157F SWAP1 PUSH2 0x2B90 JUMP JUMPDEST PUSH1 0x40 MLOAD DUP1 SWAP2 SUB SWAP1 REVERT JUMPDEST DUP4 PUSH1 0x2 PUSH1 0x0 DUP6 PUSH20 0xFFFFFFFFFFFFFFFFFFFFFFFFFFFFFFFFFFFFFFFF AND PUSH20 0xFFFFFFFFFFFFFFFFFFFFFFFFFFFFFFFFFFFFFFFF AND DUP2 MSTORE PUSH1 0x20 ADD SWAP1 DUP2 MSTORE PUSH1 0x20 ADD PUSH1 0x0 KECCAK256 PUSH1 0x0 DUP5 DUP2 MSTORE PUSH1 0x20 ADD SWAP1 DUP2 MSTORE PUSH1 0x20 ADD PUSH1 0x0 KECCAK256 PUSH1 0x0 DUP3 ADD MLOAD DUP2 PUSH1 0x0 ADD SSTORE PUSH1 0x20 DUP3 ADD MLOAD DUP2 PUSH1 0x1 ADD SSTORE PUSH1 0x40 DUP3 ADD MLOAD DUP2 PUSH1 0x2 ADD SWAP1 DUP1 MLOAD SWAP1 PUSH1 0x20 ADD SWAP1 PUSH2 0x1609 SWAP3 SWAP2 SWAP1 PUSH2 0x179D JUMP JUMPDEST POP SWAP1 POP POP DUP2 DUP5 PUSH1 0x40 ADD MLOAD PUSH1 0x0 DUP2 MLOAD DUP2 LT PUSH2 0x161F JUMPI INVALID JUMPDEST PUSH1 0x20 MUL PUSH1 0x20 ADD ADD MLOAD PUSH20 0xFFFFFFFFFFFFFFFFFFFFFFFFFFFFFFFFFFFFFFFF AND DUP7 PUSH20 0xFFFFFFFFFFFFFFFFFFFFFFFFFFFFFFFFFFFFFFFF AND PUSH32 0x737AB30B9CD3DDAE02069F3057591007FAF2305652D04C2582F7F1F6185D9711 DUP7 PUSH1 0x0 PUSH1 0x1 PUSH1 0x40 MLOAD PUSH2 0x1689 SWAP4 SWAP3 SWAP2 SWAP1 PUSH2 0x28D0 JUMP JUMPDEST PUSH1 0x40 MLOAD DUP1 SWAP2 SUB SWAP1 LOG4 POP POP POP POP POP JUMP JUMPDEST PUSH1 0x0 DUP1 PUSH1 0x0 SWAP1 POP JUMPDEST DUP4 MLOAD DUP2 LT ISZERO PUSH2 0x1706 JUMPI DUP3 PUSH20 0xFFFFFFFFFFFFFFFFFFFFFFFFFFFFFFFFFFFFFFFF AND DUP5 DUP3 DUP2 MLOAD DUP2 LT PUSH2 0x16CC JUMPI INVALID JUMPDEST PUSH1 0x20 MUL PUSH1 0x20 ADD ADD MLOAD PUSH20 0xFFFFFFFFFFFFFFFFFFFFFFFFFFFFFFFFFFFFFFFF AND EQ ISZERO PUSH2 0x16F9 JUMPI DUP1 SWAP2 POP POP PUSH2 0x172B JUMP JUMPDEST DUP1 DUP1 PUSH1 0x1 ADD SWAP2 POP POP PUSH2 0x16A0 JUMP JUMPDEST POP PUSH32 0xFFFFFFFFFFFFFFFFFFFFFFFFFFFFFFFFFFFFFFFFFFFFFFFFFFFFFFFFFFFFFFFF SWAP1 POP JUMPDEST SWAP3 SWAP2 POP POP JUMP JUMPDEST PUSH1 0x0 DUP1 PUSH1 0x0 PUSH32 0xC5D2460186F7233C927E7DB2DCC703C0E500B653CA82273B7BFAD8045D85A470 PUSH1 0x0 SHL SWAP1 POP DUP4 EXTCODEHASH SWAP2 POP DUP1 DUP3 EQ ISZERO DUP1 ISZERO PUSH2 0x1773 JUMPI POP PUSH1 0x0 DUP1 SHL DUP3 EQ ISZERO JUMPDEST SWAP3 POP POP POP SWAP2 SWAP1 POP JUMP JUMPDEST PUSH1 0x40 MLOAD DUP1 PUSH1 0x60 ADD PUSH1 0x40 MSTORE DUP1 PUSH1 0x0 DUP2 MSTORE PUSH1 0x20 ADD PUSH1 0x0 DUP2 MSTORE PUSH1 0x20 ADD PUSH1 0x60 DUP2 MSTORE POP SWAP1 JUMP JUMPDEST DUP3 DUP1 SLOAD DUP3 DUP3 SSTORE SWAP1 PUSH1 0x0 MSTORE PUSH1 0x20 PUSH1 0x0 KECCAK256 SWAP1 DUP2 ADD SWAP3 DUP3 ISZERO PUSH2 0x1816 JUMPI SWAP2 PUSH1 0x20 MUL DUP3 ADD JUMPDEST DUP3 DUP2 GT ISZERO PUSH2 0x1815 JUMPI DUP3 MLOAD DUP3 PUSH1 0x0 PUSH2 0x100 EXP DUP2 SLOAD DUP2 PUSH20 0xFFFFFFFFFFFFFFFFFFFFFFFFFFFFFFFFFFFFFFFF MUL NOT AND SWAP1 DUP4 PUSH20 0xFFFFFFFFFFFFFFFFFFFFFFFFFFFFFFFFFFFFFFFF AND MUL OR SWAP1 SSTORE POP SWAP2 PUSH1 0x20 ADD SWAP2 SWAP1 PUSH1 0x1 ADD SWAP1 PUSH2 0x17BD JUMP JUMPDEST JUMPDEST POP SWAP1 POP PUSH2 0x1823 SWAP2 SWAP1 PUSH2 0x1872 JUMP JUMPDEST POP SWAP1 JUMP JUMPDEST PUSH1 0x40 MLOAD DUP1 PUSH1 0x60 ADD PUSH1 0x40 MSTORE DUP1 PUSH1 0x0 DUP1 NOT AND DUP2 MSTORE PUSH1 0x20 ADD PUSH1 0x0 DUP1 NOT AND DUP2 MSTORE PUSH1 0x20 ADD PUSH1 0x0 PUSH1 0xFF AND DUP2 MSTORE POP SWAP1 JUMP JUMPDEST POP DUP1 SLOAD PUSH1 0x0 DUP3 SSTORE SWAP1 PUSH1 0x0 MSTORE PUSH1 0x20 PUSH1 0x0 KECCAK256 SWAP1 DUP2 ADD SWAP1 PUSH2 0x186F SWAP2 SWAP1 PUSH2 0x18AD JUMP JUMPDEST POP JUMP JUMPDEST JUMPDEST DUP1 DUP3 GT ISZERO PUSH2 0x18A9 JUMPI PUSH1 0x0 DUP2 DUP2 PUSH2 0x100 EXP DUP2 SLOAD SWAP1 PUSH20 0xFFFFFFFFFFFFFFFFFFFFFFFFFFFFFFFFFFFFFFFF MUL NOT AND SWAP1 SSTORE POP PUSH1 0x1 ADD PUSH2 0x1873 JUMP JUMPDEST POP SWAP1 JUMP JUMPDEST JUMPDEST DUP1 DUP3 GT ISZERO PUSH2 0x18C6 JUMPI PUSH1 0x0 DUP2 PUSH1 0x0 SWAP1 SSTORE POP PUSH1 0x1 ADD PUSH2 0x18AE JUMP JUMPDEST POP SWAP1 JUMP JUMPDEST PUSH1 0x0 DUP2 CALLDATALOAD SWAP1 POP PUSH2 0x18D9 DUP2 PUSH2 0x2EAF JUMP JUMPDEST SWAP3 SWAP2 POP POP JUMP JUMPDEST PUSH1 0x0 DUP2 MLOAD SWAP1 POP PUSH2 0x18EE DUP2 PUSH2 0x2EAF JUMP JUMPDEST SWAP3 SWAP2 POP POP JUMP JUMPDEST PUSH1 0x0 DUP3 PUSH1 0x1F DUP4 ADD SLT PUSH2 0x1905 JUMPI PUSH1 0x0 DUP1 REVERT JUMPDEST DUP2 CALLDATALOAD PUSH2 0x1918 PUSH2 0x1913 DUP3 PUSH2 0x2CBA JUMP JUMPDEST PUSH2 0x2C8D JUMP JUMPDEST SWAP2 POP DUP2 DUP2 DUP4 MSTORE PUSH1 0x20 DUP5 ADD SWAP4 POP PUSH1 0x20 DUP2 ADD SWAP1 POP DUP4 DUP6 PUSH1 0x20 DUP5 MUL DUP3 ADD GT ISZERO PUSH2 0x193D JUMPI PUSH1 0x0 DUP1 REVERT JUMPDEST PUSH1 0x0 JUMPDEST DUP4 DUP2 LT ISZERO PUSH2 0x196D JUMPI DUP2 PUSH2 0x1953 DUP9 DUP3 PUSH2 0x18CA JUMP JUMPDEST DUP5 MSTORE PUSH1 0x20 DUP5 ADD SWAP4 POP PUSH1 0x20 DUP4 ADD SWAP3 POP POP PUSH1 0x1 DUP2 ADD SWAP1 POP PUSH2 0x1940 JUMP JUMPDEST POP POP POP POP SWAP3 SWAP2 POP POP JUMP JUMPDEST PUSH1 0x0 DUP3 PUSH1 0x1F DUP4 ADD SLT PUSH2 0x1988 JUMPI PUSH1 0x0 DUP1 REVERT JUMPDEST DUP2 MLOAD PUSH2 0x199B PUSH2 0x1996 DUP3 PUSH2 0x2CBA JUMP JUMPDEST PUSH2 0x2C8D JUMP JUMPDEST SWAP2 POP DUP2 DUP2 DUP4 MSTORE PUSH1 0x20 DUP5 ADD SWAP4 POP PUSH1 0x20 DUP2 ADD SWAP1 POP DUP4 DUP6 PUSH1 0x20 DUP5 MUL DUP3 ADD GT ISZERO PUSH2 0x19C0 JUMPI PUSH1 0x0 DUP1 REVERT JUMPDEST PUSH1 0x0 JUMPDEST DUP4 DUP2 LT ISZERO PUSH2 0x19F0 JUMPI DUP2 PUSH2 0x19D6 DUP9 DUP3 PUSH2 0x18DF JUMP JUMPDEST DUP5 MSTORE PUSH1 0x20 DUP5 ADD SWAP4 POP PUSH1 0x20 DUP4 ADD SWAP3 POP POP PUSH1 0x1 DUP2 ADD SWAP1 POP PUSH2 0x19C3 JUMP JUMPDEST POP POP POP POP SWAP3 SWAP2 POP POP JUMP JUMPDEST PUSH1 0x0 DUP3 PUSH1 0x1F DUP4 ADD SLT PUSH2 0x1A0B JUMPI PUSH1 0x0 DUP1 REVERT JUMPDEST DUP2 CALLDATALOAD PUSH2 0x1A1E PUSH2 0x1A19 DUP3 PUSH2 0x2CE2 JUMP JUMPDEST PUSH2 0x2C8D JUMP JUMPDEST SWAP2 POP DUP2 DUP2 DUP4 MSTORE PUSH1 0x20 DUP5 ADD SWAP4 POP PUSH1 0x20 DUP2 ADD SWAP1 POP DUP4 DUP6 PUSH1 0x60 DUP5 MUL DUP3 ADD GT ISZERO PUSH2 0x1A43 JUMPI PUSH1 0x0 DUP1 REVERT JUMPDEST PUSH1 0x0 JUMPDEST DUP4 DUP2 LT ISZERO PUSH2 0x1A73 JUMPI DUP2 PUSH2 0x1A59 DUP9 DUP3 PUSH2 0x1B10 JUMP JUMPDEST DUP5 MSTORE PUSH1 0x20 DUP5 ADD SWAP4 POP PUSH1 0x60 DUP4 ADD SWAP3 POP POP PUSH1 0x1 DUP2 ADD SWAP1 POP PUSH2 0x1A46 JUMP JUMPDEST POP POP POP POP SWAP3 SWAP2 POP POP JUMP JUMPDEST PUSH1 0x0 DUP2 MLOAD SWAP1 POP PUSH2 0x1A8C DUP2 PUSH2 0x2EC6 JUMP JUMPDEST SWAP3 SWAP2 POP POP JUMP JUMPDEST PUSH1 0x0 DUP2 CALLDATALOAD SWAP1 POP PUSH2 0x1AA1 DUP2 PUSH2 0x2EDD JUMP JUMPDEST SWAP3 SWAP2 POP POP JUMP JUMPDEST PUSH1 0x0 DUP2 CALLDATALOAD SWAP1 POP PUSH2 0x1AB6 DUP2 PUSH2 0x2EF4 JUMP JUMPDEST SWAP3 SWAP2 POP POP JUMP JUMPDEST PUSH1 0x0 DUP3 PUSH1 0x1F DUP4 ADD SLT PUSH2 0x1ACD JUMPI PUSH1 0x0 DUP1 REVERT JUMPDEST DUP2 CALLDATALOAD PUSH2 0x1AE0 PUSH2 0x1ADB DUP3 PUSH2 0x2D0A JUMP JUMPDEST PUSH2 0x2C8D JUMP JUMPDEST SWAP2 POP DUP1 DUP3 MSTORE PUSH1 0x20 DUP4 ADD PUSH1 0x20 DUP4 ADD DUP6 DUP4 DUP4 ADD GT ISZERO PUSH2 0x1AFC JUMPI PUSH1 0x0 DUP1 REVERT JUMPDEST PUSH2 0x1B07 DUP4 DUP3 DUP5 PUSH2 0x2E5C JUMP JUMPDEST POP POP POP SWAP3 SWAP2 POP POP JUMP JUMPDEST PUSH1 0x0 PUSH1 0x60 DUP3 DUP5 SUB SLT ISZERO PUSH2 0x1B22 JUMPI PUSH1 0x0 DUP1 REVERT JUMPDEST PUSH2 0x1B2C PUSH1 0x60 PUSH2 0x2C8D JUMP JUMPDEST SWAP1 POP PUSH1 0x0 PUSH2 0x1B3C DUP5 DUP3 DUP6 ADD PUSH2 0x1A92 JUMP JUMPDEST PUSH1 0x0 DUP4 ADD MSTORE POP PUSH1 0x20 PUSH2 0x1B50 DUP5 DUP3 DUP6 ADD PUSH2 0x1A92 JUMP JUMPDEST PUSH1 0x20 DUP4 ADD MSTORE POP PUSH1 0x40 PUSH2 0x1B64 DUP5 DUP3 DUP6 ADD PUSH2 0x1CEC JUMP JUMPDEST PUSH1 0x40 DUP4 ADD MSTORE POP SWAP3 SWAP2 POP POP JUMP JUMPDEST PUSH1 0x0 PUSH2 0x140 DUP3 DUP5 SUB SLT ISZERO PUSH2 0x1B83 JUMPI PUSH1 0x0 DUP1 REVERT JUMPDEST PUSH2 0x1B8E PUSH2 0x140 PUSH2 0x2C8D JUMP JUMPDEST SWAP1 POP PUSH1 0x0 PUSH2 0x1B9E DUP5 DUP3 DUP6 ADD PUSH2 0x18CA JUMP JUMPDEST PUSH1 0x0 DUP4 ADD MSTORE POP PUSH1 0x20 PUSH2 0x1BB2 DUP5 DUP3 DUP6 ADD PUSH2 0x1CC2 JUMP JUMPDEST PUSH1 0x20 DUP4 ADD MSTORE POP PUSH1 0x40 PUSH2 0x1BC6 DUP5 DUP3 DUP6 ADD PUSH2 0x18CA JUMP JUMPDEST PUSH1 0x40 DUP4 ADD MSTORE POP PUSH1 0x60 DUP3 ADD CALLDATALOAD PUSH8 0xFFFFFFFFFFFFFFFF DUP2 GT ISZERO PUSH2 0x1BE6 JUMPI PUSH1 0x0 DUP1 REVERT JUMPDEST PUSH2 0x1BF2 DUP5 DUP3 DUP6 ADD PUSH2 0x18F4 JUMP JUMPDEST PUSH1 0x60 DUP4 ADD MSTORE POP PUSH1 0x80 PUSH2 0x1C06 DUP5 DUP3 DUP6 ADD PUSH2 0x1CC2 JUMP JUMPDEST PUSH1 0x80 DUP4 ADD MSTORE POP PUSH1 0xA0 DUP3 ADD CALLDATALOAD PUSH8 0xFFFFFFFFFFFFFFFF DUP2 GT ISZERO PUSH2 0x1C26 JUMPI PUSH1 0x0 DUP1 REVERT JUMPDEST PUSH2 0x1C32 DUP5 DUP3 DUP6 ADD PUSH2 0x1ABC JUMP JUMPDEST PUSH1 0xA0 DUP4 ADD MSTORE POP PUSH1 0xC0 PUSH2 0x1C46 DUP5 DUP3 DUP6 ADD PUSH2 0x1CC2 JUMP JUMPDEST PUSH1 0xC0 DUP4 ADD MSTORE POP PUSH1 0xE0 PUSH2 0x1C5A DUP5 DUP3 DUP6 ADD PUSH2 0x1CC2 JUMP JUMPDEST PUSH1 0xE0 DUP4 ADD MSTORE POP PUSH2 0x100 DUP3 ADD CALLDATALOAD PUSH8 0xFFFFFFFFFFFFFFFF DUP2 GT ISZERO PUSH2 0x1C7B JUMPI PUSH1 0x0 DUP1 REVERT JUMPDEST PUSH2 0x1C87 DUP5 DUP3 DUP6 ADD PUSH2 0x18F4 JUMP JUMPDEST PUSH2 0x100 DUP4 ADD MSTORE POP PUSH2 0x120 DUP3 ADD CALLDATALOAD PUSH8 0xFFFFFFFFFFFFFFFF DUP2 GT ISZERO PUSH2 0x1CA9 JUMPI PUSH1 0x0 DUP1 REVERT JUMPDEST PUSH2 0x1CB5 DUP5 DUP3 DUP6 ADD PUSH2 0x19FA JUMP JUMPDEST PUSH2 0x120 DUP4 ADD MSTORE POP SWAP3 SWAP2 POP POP JUMP JUMPDEST PUSH1 0x0 DUP2 CALLDATALOAD SWAP1 POP PUSH2 0x1CD1 DUP2 PUSH2 0x2F0B JUMP JUMPDEST SWAP3 SWAP2 POP POP JUMP JUMPDEST PUSH1 0x0 DUP2 MLOAD SWAP1 POP PUSH2 0x1CE6 DUP2 PUSH2 0x2F0B JUMP JUMPDEST SWAP3 SWAP2 POP POP JUMP JUMPDEST PUSH1 0x0 DUP2 CALLDATALOAD SWAP1 POP PUSH2 0x1CFB DUP2 PUSH2 0x2F22 JUMP JUMPDEST SWAP3 SWAP2 POP POP JUMP JUMPDEST PUSH1 0x0 PUSH1 0x20 DUP3 DUP5 SUB SLT ISZERO PUSH2 0x1D13 JUMPI PUSH1 0x0 DUP1 REVERT JUMPDEST PUSH1 0x0 PUSH2 0x1D21 DUP5 DUP3 DUP6 ADD PUSH2 0x18CA JUMP JUMPDEST SWAP2 POP POP SWAP3 SWAP2 POP POP JUMP JUMPDEST PUSH1 0x0 PUSH1 0x20 DUP3 DUP5 SUB SLT ISZERO PUSH2 0x1D3C JUMPI PUSH1 0x0 DUP1 REVERT JUMPDEST PUSH1 0x0 PUSH2 0x1D4A DUP5 DUP3 DUP6 ADD PUSH2 0x18DF JUMP JUMPDEST SWAP2 POP POP SWAP3 SWAP2 POP POP JUMP JUMPDEST PUSH1 0x0 DUP1 PUSH1 0x0 DUP1 PUSH1 0x80 DUP6 DUP8 SUB SLT ISZERO PUSH2 0x1D69 JUMPI PUSH1 0x0 DUP1 REVERT JUMPDEST PUSH1 0x0 PUSH2 0x1D77 DUP8 DUP3 DUP9 ADD PUSH2 0x18CA JUMP JUMPDEST SWAP5 POP POP PUSH1 0x20 PUSH2 0x1D88 DUP8 DUP3 DUP9 ADD PUSH2 0x18CA JUMP JUMPDEST SWAP4 POP POP PUSH1 0x40 PUSH2 0x1D99 DUP8 DUP3 DUP9 ADD PUSH2 0x1CC2 JUMP JUMPDEST SWAP3 POP POP PUSH1 0x60 DUP6 ADD CALLDATALOAD PUSH8 0xFFFFFFFFFFFFFFFF DUP2 GT ISZERO PUSH2 0x1DB6 JUMPI PUSH1 0x0 DUP1 REVERT JUMPDEST PUSH2 0x1DC2 DUP8 DUP3 DUP9 ADD PUSH2 0x1ABC JUMP JUMPDEST SWAP2 POP POP SWAP3 SWAP6 SWAP2 SWAP5 POP SWAP3 POP JUMP JUMPDEST PUSH1 0x0 DUP1 PUSH1 0x0 DUP1 PUSH1 0x0 PUSH1 0xA0 DUP7 DUP9 SUB SLT ISZERO PUSH2 0x1DE6 JUMPI PUSH1 0x0 DUP1 REVERT JUMPDEST PUSH1 0x0 PUSH2 0x1DF4 DUP9 DUP3 DUP10 ADD PUSH2 0x18CA JUMP JUMPDEST SWAP6 POP POP PUSH1 0x20 PUSH2 0x1E05 DUP9 DUP3 DUP10 ADD PUSH2 0x18CA JUMP JUMPDEST SWAP5 POP POP PUSH1 0x40 PUSH2 0x1E16 DUP9 DUP3 DUP10 ADD PUSH2 0x1CC2 JUMP JUMPDEST SWAP4 POP POP PUSH1 0x60 PUSH2 0x1E27 DUP9 DUP3 DUP10 ADD PUSH2 0x1CC2 JUMP JUMPDEST SWAP3 POP POP PUSH1 0x80 DUP7 ADD CALLDATALOAD PUSH8 0xFFFFFFFFFFFFFFFF DUP2 GT ISZERO PUSH2 0x1E44 JUMPI PUSH1 0x0 DUP1 REVERT JUMPDEST PUSH2 0x1E50 DUP9 DUP3 DUP10 ADD PUSH2 0x1ABC JUMP JUMPDEST SWAP2 POP POP SWAP3 SWAP6 POP SWAP3 SWAP6 SWAP1 SWAP4 POP JUMP JUMPDEST PUSH1 0x0 DUP1 PUSH1 0x0 PUSH1 0x60 DUP5 DUP7 SUB SLT ISZERO PUSH2 0x1E72 JUMPI PUSH1 0x0 DUP1 REVERT JUMPDEST PUSH1 0x0 PUSH2 0x1E80 DUP7 DUP3 DUP8 ADD PUSH2 0x18CA JUMP JUMPDEST SWAP4 POP POP PUSH1 0x20 PUSH2 0x1E91 DUP7 DUP3 DUP8 ADD PUSH2 0x1CC2 JUMP JUMPDEST SWAP3 POP POP PUSH1 0x40 PUSH2 0x1EA2 DUP7 DUP3 DUP8 ADD PUSH2 0x18CA JUMP JUMPDEST SWAP2 POP POP SWAP3 POP SWAP3 POP SWAP3 JUMP JUMPDEST PUSH1 0x0 DUP1 PUSH1 0x0 DUP1 PUSH1 0x0 PUSH1 0xA0 DUP7 DUP9 SUB SLT ISZERO PUSH2 0x1EC4 JUMPI PUSH1 0x0 DUP1 REVERT JUMPDEST PUSH1 0x0 DUP7 ADD CALLDATALOAD PUSH8 0xFFFFFFFFFFFFFFFF DUP2 GT ISZERO PUSH2 0x1EDE JUMPI PUSH1 0x0 DUP1 REVERT JUMPDEST PUSH2 0x1EEA DUP9 DUP3 DUP10 ADD PUSH2 0x18F4 JUMP JUMPDEST SWAP6 POP POP PUSH1 0x20 PUSH2 0x1EFB DUP9 DUP3 DUP10 ADD PUSH2 0x18CA JUMP JUMPDEST SWAP5 POP POP PUSH1 0x40 PUSH2 0x1F0C DUP9 DUP3 DUP10 ADD PUSH2 0x1CC2 JUMP JUMPDEST SWAP4 POP POP PUSH1 0x60 PUSH2 0x1F1D DUP9 DUP3 DUP10 ADD PUSH2 0x1CC2 JUMP JUMPDEST SWAP3 POP POP PUSH1 0x80 PUSH2 0x1F2E DUP9 DUP3 DUP10 ADD PUSH2 0x1CC2 JUMP JUMPDEST SWAP2 POP POP SWAP3 SWAP6 POP SWAP3 SWAP6 SWAP1 SWAP4 POP JUMP JUMPDEST PUSH1 0x0 DUP1 PUSH1 0x40 DUP4 DUP6 SUB SLT ISZERO PUSH2 0x1F4E JUMPI PUSH1 0x0 DUP1 REVERT JUMPDEST PUSH1 0x0 DUP4 ADD MLOAD PUSH8 0xFFFFFFFFFFFFFFFF DUP2 GT ISZERO PUSH2 0x1F68 JUMPI PUSH1 0x0 DUP1 REVERT JUMPDEST PUSH2 0x1F74 DUP6 DUP3 DUP7 ADD PUSH2 0x1977 JUMP JUMPDEST SWAP3 POP POP PUSH1 0x20 PUSH2 0x1F85 DUP6 DUP3 DUP7 ADD PUSH2 0x1CD7 JUMP JUMPDEST SWAP2 POP POP SWAP3 POP SWAP3 SWAP1 POP JUMP JUMPDEST PUSH1 0x0 PUSH1 0x20 DUP3 DUP5 SUB SLT ISZERO PUSH2 0x1FA1 JUMPI PUSH1 0x0 DUP1 REVERT JUMPDEST PUSH1 0x0 PUSH2 0x1FAF DUP5 DUP3 DUP6 ADD PUSH2 0x1A7D JUMP JUMPDEST SWAP2 POP POP SWAP3 SWAP2 POP POP JUMP JUMPDEST PUSH1 0x0 PUSH1 0x20 DUP3 DUP5 SUB SLT ISZERO PUSH2 0x1FCA JUMPI PUSH1 0x0 DUP1 REVERT JUMPDEST PUSH1 0x0 PUSH2 0x1FD8 DUP5 DUP3 DUP6 ADD PUSH2 0x1AA7 JUMP JUMPDEST SWAP2 POP POP SWAP3 SWAP2 POP POP JUMP JUMPDEST PUSH1 0x0 PUSH1 0x20 DUP3 DUP5 SUB SLT ISZERO PUSH2 0x1FF3 JUMPI PUSH1 0x0 DUP1 REVERT JUMPDEST PUSH1 0x0 DUP3 ADD CALLDATALOAD PUSH8 0xFFFFFFFFFFFFFFFF DUP2 GT ISZERO PUSH2 0x200D JUMPI PUSH1 0x0 DUP1 REVERT JUMPDEST PUSH2 0x2019 DUP5 DUP3 DUP6 ADD PUSH2 0x1B70 JUMP JUMPDEST SWAP2 POP POP SWAP3 SWAP2 POP POP JUMP JUMPDEST PUSH1 0x0 PUSH2 0x202E DUP4 DUP4 PUSH2 0x203A JUMP JUMPDEST PUSH1 0x20 DUP4 ADD SWAP1 POP SWAP3 SWAP2 POP POP JUMP JUMPDEST PUSH2 0x2043 DUP2 PUSH2 0x2DAD JUMP JUMPDEST DUP3 MSTORE POP POP JUMP JUMPDEST PUSH2 0x2052 DUP2 PUSH2 0x2DAD JUMP JUMPDEST DUP3 MSTORE POP POP JUMP JUMPDEST PUSH1 0x0 PUSH2 0x2063 DUP3 PUSH2 0x2D46 JUMP JUMPDEST PUSH2 0x206D DUP2 DUP6 PUSH2 0x2D69 JUMP JUMPDEST SWAP4 POP PUSH2 0x2078 DUP4 PUSH2 0x2D36 JUMP JUMPDEST DUP1 PUSH1 0x0 JUMPDEST DUP4 DUP2 LT ISZERO PUSH2 0x20A9 JUMPI DUP2 MLOAD PUSH2 0x2090 DUP9 DUP3 PUSH2 0x2022 JUMP JUMPDEST SWAP8 POP PUSH2 0x209B DUP4 PUSH2 0x2D5C JUMP JUMPDEST SWAP3 POP POP PUSH1 0x1 DUP2 ADD SWAP1 POP PUSH2 0x207C JUMP JUMPDEST POP DUP6 SWAP4 POP POP POP POP SWAP3 SWAP2 POP POP JUMP JUMPDEST PUSH1 0x0 PUSH2 0x20C1 DUP3 PUSH2 0x2D46 JUMP JUMPDEST PUSH2 0x20CB DUP2 DUP6 PUSH2 0x2D7A JUMP JUMPDEST SWAP4 POP PUSH2 0x20D6 DUP4 PUSH2 0x2D36 JUMP JUMPDEST DUP1 PUSH1 0x0 JUMPDEST DUP4 DUP2 LT ISZERO PUSH2 0x2107 JUMPI DUP2 MLOAD PUSH2 0x20EE DUP9 DUP3 PUSH2 0x2022 JUMP JUMPDEST SWAP8 POP PUSH2 0x20F9 DUP4 PUSH2 0x2D5C JUMP JUMPDEST SWAP3 POP POP PUSH1 0x1 DUP2 ADD SWAP1 POP PUSH2 0x20DA JUMP JUMPDEST POP DUP6 SWAP4 POP POP POP POP SWAP3 SWAP2 POP POP JUMP JUMPDEST PUSH2 0x211D DUP2 PUSH2 0x2DBF JUMP JUMPDEST DUP3 MSTORE POP POP JUMP JUMPDEST PUSH2 0x212C DUP2 PUSH2 0x2DCB JUMP JUMPDEST DUP3 MSTORE POP POP JUMP JUMPDEST PUSH2 0x213B DUP2 PUSH2 0x2DD5 JUMP JUMPDEST DUP3 MSTORE POP POP JUMP JUMPDEST PUSH1 0x0 PUSH2 0x214C DUP3 PUSH2 0x2D51 JUMP JUMPDEST PUSH2 0x2156 DUP2 DUP6 PUSH2 0x2D8B JUMP JUMPDEST SWAP4 POP PUSH2 0x2166 DUP2 DUP6 PUSH1 0x20 DUP7 ADD PUSH2 0x2E6B JUMP JUMPDEST PUSH2 0x216F DUP2 PUSH2 0x2E9E JUMP JUMPDEST DUP5 ADD SWAP2 POP POP SWAP3 SWAP2 POP POP JUMP JUMPDEST PUSH2 0x2183 DUP2 PUSH2 0x2E38 JUMP JUMPDEST DUP3 MSTORE POP POP JUMP JUMPDEST PUSH2 0x2192 DUP2 PUSH2 0x2E4A JUMP JUMPDEST DUP3 MSTORE POP POP JUMP JUMPDEST PUSH1 0x0 PUSH2 0x21A5 PUSH1 0x21 DUP4 PUSH2 0x2D9C JUMP JUMPDEST SWAP2 POP PUSH32 0x234E465450726F7879237665726966793A205452414E534645525F4558504952 PUSH1 0x0 DUP4 ADD MSTORE PUSH32 0x5900000000000000000000000000000000000000000000000000000000000000 PUSH1 0x20 DUP4 ADD MSTORE PUSH1 0x40 DUP3 ADD SWAP1 POP SWAP2 SWAP1 POP JUMP JUMPDEST PUSH1 0x0 PUSH2 0x220B PUSH1 0x25 DUP4 PUSH2 0x2D9C JUMP JUMPDEST SWAP2 POP PUSH32 0x234E465450726F787923766572696669636174696F6E3A204241445F5349474E PUSH1 0x0 DUP4 ADD MSTORE PUSH32 0x4154555245000000000000000000000000000000000000000000000000000000 PUSH1 0x20 DUP4 ADD MSTORE PUSH1 0x40 DUP3 ADD SWAP1 POP SWAP2 SWAP1 POP JUMP JUMPDEST PUSH1 0x0 PUSH2 0x2271 PUSH1 0x26 DUP4 PUSH2 0x2D9C JUMP JUMPDEST SWAP2 POP PUSH32 0x4F776E61626C653A206E6577206F776E657220697320746865207A65726F2061 PUSH1 0x0 DUP4 ADD MSTORE PUSH32 0x6464726573730000000000000000000000000000000000000000000000000000 PUSH1 0x20 DUP4 ADD MSTORE PUSH1 0x40 DUP3 ADD SWAP1 POP SWAP2 SWAP1 POP JUMP JUMPDEST PUSH1 0x0 PUSH2 0x22D7 PUSH1 0x25 DUP4 PUSH2 0x2D9C JUMP JUMPDEST SWAP2 POP PUSH32 0x234E465450726F7879237665726966793A204241445F5253565F4C4953545F4C PUSH1 0x0 DUP4 ADD MSTORE PUSH32 0x454E475448000000000000000000000000000000000000000000000000000000 PUSH1 0x20 DUP4 ADD MSTORE PUSH1 0x40 DUP3 ADD SWAP1 POP SWAP2 SWAP1 POP JUMP JUMPDEST PUSH1 0x0 PUSH2 0x233D PUSH1 0x35 DUP4 PUSH2 0x2D9C JUMP JUMPDEST SWAP2 POP PUSH32 0x546865204E465420636F6E74726163742068617320616E20696E76616C696420 PUSH1 0x0 DUP4 ADD MSTORE PUSH32 0x45524337323120696D706C656D656E746174696F6E0000000000000000000000 PUSH1 0x20 DUP4 ADD MSTORE PUSH1 0x40 DUP3 ADD SWAP1 POP SWAP2 SWAP1 POP JUMP JUMPDEST PUSH1 0x0 PUSH2 0x23A3 PUSH1 0x30 DUP4 PUSH2 0x2D9C JUMP JUMPDEST SWAP2 POP PUSH32 0x2345524337323150726F7879236F6E45524337323152656365697665643A2042 PUSH1 0x0 DUP4 ADD MSTORE PUSH32 0x41445F4D494E5F5349474E5F5A45524F00000000000000000000000000000000 PUSH1 0x20 DUP4 ADD MSTORE PUSH1 0x40 DUP3 ADD SWAP1 POP SWAP2 SWAP1 POP JUMP JUMPDEST PUSH1 0x0 PUSH2 0x2409 PUSH1 0x20 DUP4 PUSH2 0x2D9C JUMP JUMPDEST SWAP2 POP PUSH32 0x234E465450726F7879237665726966793A204F574E45525F4E4F5F4D41544348 PUSH1 0x0 DUP4 ADD MSTORE PUSH1 0x20 DUP3 ADD SWAP1 POP SWAP2 SWAP1 POP JUMP JUMPDEST PUSH1 0x0 PUSH2 0x2449 PUSH1 0x35 DUP4 PUSH2 0x2D9C JUMP JUMPDEST SWAP2 POP PUSH32 0x234E465450726F787923636865636B41646472657373456D7074793A20414444 PUSH1 0x0 DUP4 ADD MSTORE PUSH32 0x524553535F4C4953545F4C454E4754485F5A45524F0000000000000000000000 PUSH1 0x20 DUP4 ADD MSTORE PUSH1 0x40 DUP3 ADD SWAP1 POP SWAP2 SWAP1 POP JUMP JUMPDEST PUSH1 0x0 PUSH2 0x24AF PUSH1 0x28 DUP4 PUSH2 0x2D9C JUMP JUMPDEST SWAP2 POP PUSH32 0x2345524337323150726F7879235F77697468647261773A20414D4F554E545F4F PUSH1 0x0 DUP4 ADD MSTORE PUSH32 0x4E4C595F42455F31000000000000000000000000000000000000000000000000 PUSH1 0x20 DUP4 ADD MSTORE PUSH1 0x40 DUP3 ADD SWAP1 POP SWAP2 SWAP1 POP JUMP JUMPDEST PUSH1 0x0 PUSH2 0x2515 PUSH1 0x1E DUP4 PUSH2 0x2D9C JUMP JUMPDEST SWAP2 POP PUSH32 0x234E465450726F7879237665726966793A20414444524553535F5A45524F0000 PUSH1 0x0 DUP4 ADD MSTORE PUSH1 0x20 DUP3 ADD SWAP1 POP SWAP2 SWAP1 POP JUMP JUMPDEST PUSH1 0x0 PUSH2 0x2555 PUSH1 0x20 DUP4 PUSH2 0x2D9C JUMP JUMPDEST SWAP2 POP PUSH32 0x4F776E61626C653A2063616C6C6572206973206E6F7420746865206F776E6572 PUSH1 0x0 DUP4 ADD MSTORE PUSH1 0x20 DUP3 ADD SWAP1 POP SWAP2 SWAP1 POP JUMP JUMPDEST PUSH1 0x0 PUSH2 0x2595 PUSH1 0x28 DUP4 PUSH2 0x2D9C JUMP JUMPDEST SWAP2 POP PUSH32 0x2345524337323150726F7879235F7472616E736665723A20414D4F554E545F4F PUSH1 0x0 DUP4 ADD MSTORE PUSH32 0x4E4C595F42455F31000000000000000000000000000000000000000000000000 PUSH1 0x20 DUP4 ADD MSTORE PUSH1 0x40 DUP3 ADD SWAP1 POP SWAP2 SWAP1 POP JUMP JUMPDEST PUSH1 0x0 PUSH2 0x25FB PUSH1 0x28 DUP4 PUSH2 0x2D9C JUMP JUMPDEST SWAP2 POP PUSH32 0x234E465450726F7879237472616E736665723A204E4F5F5452414E534645525F PUSH1 0x0 DUP4 ADD MSTORE PUSH32 0x5349474E5F455252000000000000000000000000000000000000000000000000 PUSH1 0x20 DUP4 ADD MSTORE PUSH1 0x40 DUP3 ADD SWAP1 POP SWAP2 SWAP1 POP JUMP JUMPDEST PUSH1 0x0 PUSH2 0x2661 PUSH1 0x30 DUP4 PUSH2 0x2D9C JUMP JUMPDEST SWAP2 POP PUSH32 0x2345524337323150726F7879235F69734552433732313A20494E564C4941445F PUSH1 0x0 DUP4 ADD MSTORE PUSH32 0x434F4E54524143545F4144445245535300000000000000000000000000000000 PUSH1 0x20 DUP4 ADD MSTORE PUSH1 0x40 DUP3 ADD SWAP1 POP SWAP2 SWAP1 POP JUMP JUMPDEST PUSH1 0x0 PUSH2 0x26C7 PUSH1 0x27 DUP4 PUSH2 0x2D9C JUMP JUMPDEST SWAP2 POP PUSH32 0x234E465450726F7879237665726966793A205349474E5F434F554E545F544F4F PUSH1 0x0 DUP4 ADD MSTORE PUSH32 0x5F4C4954544C4500000000000000000000000000000000000000000000000000 PUSH1 0x20 DUP4 ADD MSTORE PUSH1 0x40 DUP3 ADD SWAP1 POP SWAP2 SWAP1 POP JUMP JUMPDEST PUSH1 0x0 PUSH2 0x272D PUSH1 0x2C DUP4 PUSH2 0x2D9C JUMP JUMPDEST SWAP2 POP PUSH32 0x2345524337323150726F7879236F6E45524337323152656365697665643A204E PUSH1 0x0 DUP4 ADD MSTORE PUSH32 0x4F545F4F574E5F544F4B454E0000000000000000000000000000000000000000 PUSH1 0x20 DUP4 ADD MSTORE PUSH1 0x40 DUP3 ADD SWAP1 POP SWAP2 SWAP1 POP JUMP JUMPDEST PUSH1 0x0 PUSH2 0x2793 PUSH1 0x25 DUP4 PUSH2 0x2D9C JUMP JUMPDEST SWAP2 POP PUSH32 0x234E465450726F787923636865636B4F776E6572733A204241445F5349474E5F PUSH1 0x0 DUP4 ADD MSTORE PUSH32 0x434F554E54000000000000000000000000000000000000000000000000000000 PUSH1 0x20 DUP4 ADD MSTORE PUSH1 0x40 DUP3 ADD SWAP1 POP SWAP2 SWAP1 POP JUMP JUMPDEST PUSH1 0x0 PUSH1 0x60 DUP4 ADD PUSH1 0x0 DUP4 ADD MLOAD PUSH2 0x2804 PUSH1 0x0 DUP7 ADD DUP3 PUSH2 0x283C JUMP JUMPDEST POP PUSH1 0x20 DUP4 ADD MLOAD PUSH2 0x2817 PUSH1 0x20 DUP7 ADD DUP3 PUSH2 0x283C JUMP JUMPDEST POP PUSH1 0x40 DUP4 ADD MLOAD DUP5 DUP3 SUB PUSH1 0x40 DUP7 ADD MSTORE PUSH2 0x282F DUP3 DUP3 PUSH2 0x2058 JUMP JUMPDEST SWAP2 POP POP DUP1 SWAP2 POP POP SWAP3 SWAP2 POP POP JUMP JUMPDEST PUSH2 0x2845 DUP2 PUSH2 0x2E21 JUMP JUMPDEST DUP3 MSTORE POP POP JUMP JUMPDEST PUSH2 0x2854 DUP2 PUSH2 0x2E21 JUMP JUMPDEST DUP3 MSTORE POP POP JUMP JUMPDEST PUSH2 0x2863 DUP2 PUSH2 0x2E2B JUMP JUMPDEST DUP3 MSTORE POP POP JUMP JUMPDEST PUSH1 0x0 PUSH1 0x20 DUP3 ADD SWAP1 POP PUSH2 0x287E PUSH1 0x0 DUP4 ADD DUP5 PUSH2 0x2049 JUMP JUMPDEST SWAP3 SWAP2 POP POP JUMP JUMPDEST PUSH1 0x0 PUSH1 0x80 DUP3 ADD SWAP1 POP PUSH2 0x2899 PUSH1 0x0 DUP4 ADD DUP8 PUSH2 0x2049 JUMP JUMPDEST PUSH2 0x28A6 PUSH1 0x20 DUP4 ADD DUP7 PUSH2 0x2049 JUMP JUMPDEST PUSH2 0x28B3 PUSH1 0x40 DUP4 ADD DUP6 PUSH2 0x284B JUMP JUMPDEST DUP2 DUP2 SUB PUSH1 0x60 DUP4 ADD MSTORE PUSH2 0x28C5 DUP2 DUP5 PUSH2 0x2141 JUMP JUMPDEST SWAP1 POP SWAP6 SWAP5 POP POP POP POP POP JUMP JUMPDEST PUSH1 0x0 PUSH1 0x60 DUP3 ADD SWAP1 POP PUSH2 0x28E5 PUSH1 0x0 DUP4 ADD DUP7 PUSH2 0x2049 JUMP JUMPDEST PUSH2 0x28F2 PUSH1 0x20 DUP4 ADD DUP6 PUSH2 0x217A JUMP JUMPDEST PUSH2 0x28FF PUSH1 0x40 DUP4 ADD DUP5 PUSH2 0x2189 JUMP JUMPDEST SWAP5 SWAP4 POP POP POP POP JUMP JUMPDEST PUSH1 0x0 PUSH2 0x100 DUP3 ADD SWAP1 POP PUSH2 0x291D PUSH1 0x0 DUP4 ADD DUP12 PUSH2 0x2049 JUMP JUMPDEST PUSH2 0x292A PUSH1 0x20 DUP4 ADD DUP11 PUSH2 0x284B JUMP JUMPDEST PUSH2 0x2937 PUSH1 0x40 DUP4 ADD DUP10 PUSH2 0x2049 JUMP JUMPDEST DUP2 DUP2 SUB PUSH1 0x60 DUP4 ADD MSTORE PUSH2 0x2949 DUP2 DUP9 PUSH2 0x20B6 JUMP JUMPDEST SWAP1 POP PUSH2 0x2958 PUSH1 0x80 DUP4 ADD DUP8 PUSH2 0x284B JUMP JUMPDEST DUP2 DUP2 SUB PUSH1 0xA0 DUP4 ADD MSTORE PUSH2 0x296A DUP2 DUP7 PUSH2 0x2141 JUMP JUMPDEST SWAP1 POP PUSH2 0x2979 PUSH1 0xC0 DUP4 ADD DUP6 PUSH2 0x284B JUMP JUMPDEST PUSH2 0x2986 PUSH1 0xE0 DUP4 ADD DUP5 PUSH2 0x284B JUMP JUMPDEST SWAP10 SWAP9 POP POP POP POP POP POP POP POP POP JUMP JUMPDEST PUSH1 0x0 PUSH1 0x20 DUP3 ADD SWAP1 POP PUSH2 0x29A8 PUSH1 0x0 DUP4 ADD DUP5 PUSH2 0x2114 JUMP JUMPDEST SWAP3 SWAP2 POP POP JUMP JUMPDEST PUSH1 0x0 PUSH1 0x80 DUP3 ADD SWAP1 POP PUSH2 0x29C3 PUSH1 0x0 DUP4 ADD DUP8 PUSH2 0x2123 JUMP JUMPDEST PUSH2 0x29D0 PUSH1 0x20 DUP4 ADD DUP7 PUSH2 0x285A JUMP JUMPDEST PUSH2 0x29DD PUSH1 0x40 DUP4 ADD DUP6 PUSH2 0x2123 JUMP JUMPDEST PUSH2 0x29EA PUSH1 0x60 DUP4 ADD DUP5 PUSH2 0x2123 JUMP JUMPDEST SWAP6 SWAP5 POP POP POP POP POP JUMP JUMPDEST PUSH1 0x0 PUSH1 0x20 DUP3 ADD SWAP1 POP PUSH2 0x2A08 PUSH1 0x0 DUP4 ADD DUP5 PUSH2 0x2132 JUMP JUMPDEST SWAP3 SWAP2 POP POP JUMP JUMPDEST PUSH1 0x0 PUSH1 0x20 DUP3 ADD SWAP1 POP DUP2 DUP2 SUB PUSH1 0x0 DUP4 ADD MSTORE PUSH2 0x2A28 DUP2 DUP5 PUSH2 0x2141 JUMP JUMPDEST SWAP1 POP SWAP3 SWAP2 POP POP JUMP JUMPDEST PUSH1 0x0 PUSH1 0x20 DUP3 ADD SWAP1 POP DUP2 DUP2 SUB PUSH1 0x0 DUP4 ADD MSTORE PUSH2 0x2A49 DUP2 PUSH2 0x2198 JUMP JUMPDEST SWAP1 POP SWAP2 SWAP1 POP JUMP JUMPDEST PUSH1 0x0 PUSH1 0x20 DUP3 ADD SWAP1 POP DUP2 DUP2 SUB PUSH1 0x0 DUP4 ADD MSTORE PUSH2 0x2A69 DUP2 PUSH2 0x21FE JUMP JUMPDEST SWAP1 POP SWAP2 SWAP1 POP JUMP JUMPDEST PUSH1 0x0 PUSH1 0x20 DUP3 ADD SWAP1 POP DUP2 DUP2 SUB PUSH1 0x0 DUP4 ADD MSTORE PUSH2 0x2A89 DUP2 PUSH2 0x2264 JUMP JUMPDEST SWAP1 POP SWAP2 SWAP1 POP JUMP JUMPDEST PUSH1 0x0 PUSH1 0x20 DUP3 ADD SWAP1 POP DUP2 DUP2 SUB PUSH1 0x0 DUP4 ADD MSTORE PUSH2 0x2AA9 DUP2 PUSH2 0x22CA JUMP JUMPDEST SWAP1 POP SWAP2 SWAP1 POP JUMP JUMPDEST PUSH1 0x0 PUSH1 0x20 DUP3 ADD SWAP1 POP DUP2 DUP2 SUB PUSH1 0x0 DUP4 ADD MSTORE PUSH2 0x2AC9 DUP2 PUSH2 0x2330 JUMP JUMPDEST SWAP1 POP SWAP2 SWAP1 POP JUMP JUMPDEST PUSH1 0x0 PUSH1 0x20 DUP3 ADD SWAP1 POP DUP2 DUP2 SUB PUSH1 0x0 DUP4 ADD MSTORE PUSH2 0x2AE9 DUP2 PUSH2 0x2396 JUMP JUMPDEST SWAP1 POP SWAP2 SWAP1 POP JUMP JUMPDEST PUSH1 0x0 PUSH1 0x20 DUP3 ADD SWAP1 POP DUP2 DUP2 SUB PUSH1 0x0 DUP4 ADD MSTORE PUSH2 0x2B09 DUP2 PUSH2 0x23FC JUMP JUMPDEST SWAP1 POP SWAP2 SWAP1 POP JUMP JUMPDEST PUSH1 0x0 PUSH1 0x20 DUP3 ADD SWAP1 POP DUP2 DUP2 SUB PUSH1 0x0 DUP4 ADD MSTORE PUSH2 0x2B29 DUP2 PUSH2 0x243C JUMP JUMPDEST SWAP1 POP SWAP2 SWAP1 POP JUMP JUMPDEST PUSH1 0x0 PUSH1 0x20 DUP3 ADD SWAP1 POP DUP2 DUP2 SUB PUSH1 0x0 DUP4 ADD MSTORE PUSH2 0x2B49 DUP2 PUSH2 0x24A2 JUMP JUMPDEST SWAP1 POP SWAP2 SWAP1 POP JUMP JUMPDEST PUSH1 0x0 PUSH1 0x20 DUP3 ADD SWAP1 POP DUP2 DUP2 SUB PUSH1 0x0 DUP4 ADD MSTORE PUSH2 0x2B69 DUP2 PUSH2 0x2508 JUMP JUMPDEST SWAP1 POP SWAP2 SWAP1 POP JUMP JUMPDEST PUSH1 0x0 PUSH1 0x20 DUP3 ADD SWAP1 POP DUP2 DUP2 SUB PUSH1 0x0 DUP4 ADD MSTORE PUSH2 0x2B89 DUP2 PUSH2 0x2548 JUMP JUMPDEST SWAP1 POP SWAP2 SWAP1 POP JUMP JUMPDEST PUSH1 0x0 PUSH1 0x20 DUP3 ADD SWAP1 POP DUP2 DUP2 SUB PUSH1 0x0 DUP4 ADD MSTORE PUSH2 0x2BA9 DUP2 PUSH2 0x2588 JUMP JUMPDEST SWAP1 POP SWAP2 SWAP1 POP JUMP JUMPDEST PUSH1 0x0 PUSH1 0x20 DUP3 ADD SWAP1 POP DUP2 DUP2 SUB PUSH1 0x0 DUP4 ADD MSTORE PUSH2 0x2BC9 DUP2 PUSH2 0x25EE JUMP JUMPDEST SWAP1 POP SWAP2 SWAP1 POP JUMP JUMPDEST PUSH1 0x0 PUSH1 0x20 DUP3 ADD SWAP1 POP DUP2 DUP2 SUB PUSH1 0x0 DUP4 ADD MSTORE PUSH2 0x2BE9 DUP2 PUSH2 0x2654 JUMP JUMPDEST SWAP1 POP SWAP2 SWAP1 POP JUMP JUMPDEST PUSH1 0x0 PUSH1 0x20 DUP3 ADD SWAP1 POP DUP2 DUP2 SUB PUSH1 0x0 DUP4 ADD MSTORE PUSH2 0x2C09 DUP2 PUSH2 0x26BA JUMP JUMPDEST SWAP1 POP SWAP2 SWAP1 POP JUMP JUMPDEST PUSH1 0x0 PUSH1 0x20 DUP3 ADD SWAP1 POP DUP2 DUP2 SUB PUSH1 0x0 DUP4 ADD MSTORE PUSH2 0x2C29 DUP2 PUSH2 0x2720 JUMP JUMPDEST SWAP1 POP SWAP2 SWAP1 POP JUMP JUMPDEST PUSH1 0x0 PUSH1 0x20 DUP3 ADD SWAP1 POP DUP2 DUP2 SUB PUSH1 0x0 DUP4 ADD MSTORE PUSH2 0x2C49 DUP2 PUSH2 0x2786 JUMP JUMPDEST SWAP1 POP SWAP2 SWAP1 POP JUMP JUMPDEST PUSH1 0x0 PUSH1 0x20 DUP3 ADD SWAP1 POP DUP2 DUP2 SUB PUSH1 0x0 DUP4 ADD MSTORE PUSH2 0x2C6A DUP2 DUP5 PUSH2 0x27EC JUMP JUMPDEST SWAP1 POP SWAP3 SWAP2 POP POP JUMP JUMPDEST PUSH1 0x0 PUSH1 0x20 DUP3 ADD SWAP1 POP PUSH2 0x2C87 PUSH1 0x0 DUP4 ADD DUP5 PUSH2 0x284B JUMP JUMPDEST SWAP3 SWAP2 POP POP JUMP JUMPDEST PUSH1 0x0 PUSH1 0x40 MLOAD SWAP1 POP DUP2 DUP2 ADD DUP2 DUP2 LT PUSH8 0xFFFFFFFFFFFFFFFF DUP3 GT OR ISZERO PUSH2 0x2CB0 JUMPI PUSH1 0x0 DUP1 REVERT JUMPDEST DUP1 PUSH1 0x40 MSTORE POP SWAP2 SWAP1 POP JUMP JUMPDEST PUSH1 0x0 PUSH8 0xFFFFFFFFFFFFFFFF DUP3 GT ISZERO PUSH2 0x2CD1 JUMPI PUSH1 0x0 DUP1 REVERT JUMPDEST PUSH1 0x20 DUP3 MUL SWAP1 POP PUSH1 0x20 DUP2 ADD SWAP1 POP SWAP2 SWAP1 POP JUMP JUMPDEST PUSH1 0x0 PUSH8 0xFFFFFFFFFFFFFFFF DUP3 GT ISZERO PUSH2 0x2CF9 JUMPI PUSH1 0x0 DUP1 REVERT JUMPDEST PUSH1 0x20 DUP3 MUL SWAP1 POP PUSH1 0x20 DUP2 ADD SWAP1 POP SWAP2 SWAP1 POP JUMP JUMPDEST PUSH1 0x0 PUSH8 0xFFFFFFFFFFFFFFFF DUP3 GT ISZERO PUSH2 0x2D21 JUMPI PUSH1 0x0 DUP1 REVERT JUMPDEST PUSH1 0x1F NOT PUSH1 0x1F DUP4 ADD AND SWAP1 POP PUSH1 0x20 DUP2 ADD SWAP1 POP SWAP2 SWAP1 POP JUMP JUMPDEST PUSH1 0x0 DUP2 SWAP1 POP PUSH1 0x20 DUP3 ADD SWAP1 POP SWAP2 SWAP1 POP JUMP JUMPDEST PUSH1 0x0 DUP2 MLOAD SWAP1 POP SWAP2 SWAP1 POP JUMP JUMPDEST PUSH1 0x0 DUP2 MLOAD SWAP1 POP SWAP2 SWAP1 POP JUMP JUMPDEST PUSH1 0x0 PUSH1 0x20 DUP3 ADD SWAP1 POP SWAP2 SWAP1 POP JUMP JUMPDEST PUSH1 0x0 DUP3 DUP3 MSTORE PUSH1 0x20 DUP3 ADD SWAP1 POP SWAP3 SWAP2 POP POP JUMP JUMPDEST PUSH1 0x0 DUP3 DUP3 MSTORE PUSH1 0x20 DUP3 ADD SWAP1 POP SWAP3 SWAP2 POP POP JUMP JUMPDEST PUSH1 0x0 DUP3 DUP3 MSTORE PUSH1 0x20 DUP3 ADD SWAP1 POP SWAP3 SWAP2 POP POP JUMP JUMPDEST PUSH1 0x0 DUP3 DUP3 MSTORE PUSH1 0x20 DUP3 ADD SWAP1 POP SWAP3 SWAP2 POP POP JUMP JUMPDEST PUSH1 0x0 PUSH2 0x2DB8 DUP3 PUSH2 0x2E01 JUMP JUMPDEST SWAP1 POP SWAP2 SWAP1 POP JUMP JUMPDEST PUSH1 0x0 DUP2 ISZERO ISZERO SWAP1 POP SWAP2 SWAP1 POP JUMP JUMPDEST PUSH1 0x0 DUP2 SWAP1 POP SWAP2 SWAP1 POP JUMP JUMPDEST PUSH1 0x0 PUSH32 0xFFFFFFFF00000000000000000000000000000000000000000000000000000000 DUP3 AND SWAP1 POP SWAP2 SWAP1 POP JUMP JUMPDEST PUSH1 0x0 PUSH20 0xFFFFFFFFFFFFFFFFFFFFFFFFFFFFFFFFFFFFFFFF DUP3 AND SWAP1 POP SWAP2 SWAP1 POP JUMP JUMPDEST PUSH1 0x0 DUP2 SWAP1 POP SWAP2 SWAP1 POP JUMP JUMPDEST PUSH1 0x0 PUSH1 0xFF DUP3 AND SWAP1 POP SWAP2 SWAP1 POP JUMP JUMPDEST PUSH1 0x0 PUSH2 0x2E43 DUP3 PUSH2 0x2E21 JUMP JUMPDEST SWAP1 POP SWAP2 SWAP1 POP JUMP JUMPDEST PUSH1 0x0 PUSH2 0x2E55 DUP3 PUSH2 0x2E21 JUMP JUMPDEST SWAP1 POP SWAP2 SWAP1 POP JUMP JUMPDEST DUP3 DUP2 DUP4 CALLDATACOPY PUSH1 0x0 DUP4 DUP4 ADD MSTORE POP POP POP JUMP JUMPDEST PUSH1 0x0 JUMPDEST DUP4 DUP2 LT ISZERO PUSH2 0x2E89 JUMPI DUP1 DUP3 ADD MLOAD DUP2 DUP5 ADD MSTORE PUSH1 0x20 DUP2 ADD SWAP1 POP PUSH2 0x2E6E JUMP JUMPDEST DUP4 DUP2 GT ISZERO PUSH2 0x2E98 JUMPI PUSH1 0x0 DUP5 DUP5 ADD MSTORE JUMPDEST POP POP POP POP JUMP JUMPDEST PUSH1 0x0 PUSH1 0x1F NOT PUSH1 0x1F DUP4 ADD AND SWAP1 POP SWAP2 SWAP1 POP JUMP JUMPDEST PUSH2 0x2EB8 DUP2 PUSH2 0x2DAD JUMP JUMPDEST DUP2 EQ PUSH2 0x2EC3 JUMPI PUSH1 0x0 DUP1 REVERT JUMPDEST POP JUMP JUMPDEST PUSH2 0x2ECF DUP2 PUSH2 0x2DBF JUMP JUMPDEST DUP2 EQ PUSH2 0x2EDA JUMPI PUSH1 0x0 DUP1 REVERT JUMPDEST POP JUMP JUMPDEST PUSH2 0x2EE6 DUP2 PUSH2 0x2DCB JUMP JUMPDEST DUP2 EQ PUSH2 0x2EF1 JUMPI PUSH1 0x0 DUP1 REVERT JUMPDEST POP JUMP JUMPDEST PUSH2 0x2EFD DUP2 PUSH2 0x2DD5 JUMP JUMPDEST DUP2 EQ PUSH2 0x2F08 JUMPI PUSH1 0x0 DUP1 REVERT JUMPDEST POP JUMP JUMPDEST PUSH2 0x2F14 DUP2 PUSH2 0x2E21 JUMP JUMPDEST DUP2 EQ PUSH2 0x2F1F JUMPI PUSH1 0x0 DUP1 REVERT JUMPDEST POP JUMP JUMPDEST PUSH2 0x2F2B DUP2 PUSH2 0x2E2B JUMP JUMPDEST DUP2 EQ PUSH2 0x2F36 JUMPI PUSH1 0x0 DUP1 REVERT JUMPDEST POP JUMP INVALID LOG2 PUSH5 0x6970667358 0x22 SLT KECCAK256 SWAP14 PUSH25 0x2B4D79EEE0C092C9EA4380F1F898011EA5E176AAAC65549EEC ADDMOD PUSH28 0xC8140364736F6C634300060C00330000000000000000000000000000 "
				},
				"gasEstimates": {
					"creation": {
						"codeDepositCost": "2428600",
						"executionCost": "infinite",
						"totalCost": "infinite"
					},
					"external": {
						"balanceOf(address,uint256,address)": "infinite",
						"encodePacked((address,uint256,address,address[],uint256,bytes,uint256,uint256,address[],(bytes32,bytes32,uint8)[]))": "infinite",
						"onERC721Received(address,address,uint256,bytes)": "infinite",
						"owner()": "1266",
						"ownersOf(address,uint256,address)": "infinite",
						"renounceOwnership()": "24358",
						"supportsInterface(bytes4)": "1547",
						"transfer(address[],address,uint256,uint256,uint256)": "infinite",
						"transferFrom((address,uint256,address,address[],uint256,bytes,uint256,uint256,address[],(bytes32,bytes32,uint8)[]))": "infinite",
						"transferOwnership(address)": "24728",
						"verify((address,uint256,address,address[],uint256,bytes,uint256,uint256,address[],(bytes32,bytes32,uint8)[]))": "infinite",
						"withdraw(address,address,uint256,uint256,bytes)": "infinite",
						"withdrawFrom((address,uint256,address,address[],uint256,bytes,uint256,uint256,address[],(bytes32,bytes32,uint8)[]))": "infinite"
					},
					"internal": {
						"_isERC721(address)": "infinite",
						"_transfer(address,struct NFTProxy.Owners memory,address,uint256,uint256)": "infinite",
						"_withdraw(address,address,address,uint256,uint256,bytes memory)": "infinite"
					}
				},
				"methodIdentifiers": {
					"balanceOf(address,uint256,address)": "467f4cb9",
					"encodePacked((address,uint256,address,address[],uint256,bytes,uint256,uint256,address[],(bytes32,bytes32,uint8)[]))": "0525bdcf",
					"onERC721Received(address,address,uint256,bytes)": "150b7a02",
					"owner()": "8da5cb5b",
					"ownersOf(address,uint256,address)": "7c4d7f44",
					"renounceOwnership()": "715018a6",
					"supportsInterface(bytes4)": "01ffc9a7",
					"transfer(address[],address,uint256,uint256,uint256)": "2a6c7d0c",
					"transferFrom((address,uint256,address,address[],uint256,bytes,uint256,uint256,address[],(bytes32,bytes32,uint8)[]))": "2a3b3836",
					"transferOwnership(address)": "f2fde38b",
					"verify((address,uint256,address,address[],uint256,bytes,uint256,uint256,address[],(bytes32,bytes32,uint8)[]))": "a24d22fe",
					"withdraw(address,address,uint256,uint256,bytes)": "074540da",
					"withdrawFrom((address,uint256,address,address[],uint256,bytes,uint256,uint256,address[],(bytes32,bytes32,uint8)[]))": "3291bf99"
				}
			},
			"storageLayout": {
				"storage": [
					{
						"astId": 562,
						"contract": "upgradeSolidityRemix/mvp-sol/solidity/erc721_proxy.sol:ERC721Proxy",
						"label": "_owner",
						"offset": 0,
						"slot": "0",
						"type": "t_address"
					},
					{
						"astId": 567,
						"contract": "upgradeSolidityRemix/mvp-sol/solidity/erc721_proxy.sol:ERC721Proxy",
						"label": "_supportedInterfaces",
						"offset": 0,
						"slot": "1",
						"type": "t_mapping(t_bytes4,t_bool)"
					},
					{
						"astId": 732,
						"contract": "upgradeSolidityRemix/mvp-sol/solidity/erc721_proxy.sol:ERC721Proxy",
						"label": "_assets",
						"offset": 0,
						"slot": "2",
						"type": "t_mapping(t_address,t_mapping(t_uint256,t_struct(Owners)1072_storage))"
					}
				],
				"types": {
					"t_address": {
						"encoding": "inplace",
						"label": "address",
						"numberOfBytes": "20"
					},
					"t_array(t_address)dyn_storage": {
						"base": "t_address",
						"encoding": "dynamic_array",
						"label": "address[]",
						"numberOfBytes": "32"
					},
					"t_bool": {
						"encoding": "inplace",
						"label": "bool",
						"numberOfBytes": "1"
					},
					"t_bytes4": {
						"encoding": "inplace",
						"label": "bytes4",
						"numberOfBytes": "4"
					},
					"t_mapping(t_address,t_mapping(t_uint256,t_struct(Owners)1072_storage))": {
						"encoding": "mapping",
						"key": "t_address",
						"label": "mapping(address => mapping(uint256 => struct NFTProxy.Owners))",
						"numberOfBytes": "32",
						"value": "t_mapping(t_uint256,t_struct(Owners)1072_storage)"
					},
					"t_mapping(t_bytes4,t_bool)": {
						"encoding": "mapping",
						"key": "t_bytes4",
						"label": "mapping(bytes4 => bool)",
						"numberOfBytes": "32",
						"value": "t_bool"
					},
					"t_mapping(t_uint256,t_struct(Owners)1072_storage)": {
						"encoding": "mapping",
						"key": "t_uint256",
						"label": "mapping(uint256 => struct NFTProxy.Owners)",
						"numberOfBytes": "32",
						"value": "t_struct(Owners)1072_storage"
					},
					"t_struct(Owners)1072_storage": {
						"encoding": "inplace",
						"label": "struct NFTProxy.Owners",
						"members": [
							{
								"astId": 1066,
								"contract": "upgradeSolidityRemix/mvp-sol/solidity/erc721_proxy.sol:ERC721Proxy",
								"label": "balances",
								"offset": 0,
								"slot": "0",
								"type": "t_uint256"
							},
							{
								"astId": 1068,
								"contract": "upgradeSolidityRemix/mvp-sol/solidity/erc721_proxy.sol:ERC721Proxy",
								"label": "signCount",
								"offset": 0,
								"slot": "1",
								"type": "t_uint256"
							},
							{
								"astId": 1071,
								"contract": "upgradeSolidityRemix/mvp-sol/solidity/erc721_proxy.sol:ERC721Proxy",
								"label": "owners",
								"offset": 0,
								"slot": "2",
								"type": "t_array(t_address)dyn_storage"
							}
						],
						"numberOfBytes": "96"
					},
					"t_uint256": {
						"encoding": "inplace",
						"label": "uint256",
						"numberOfBytes": "32"
					}
				}
			},
			"userdoc": {
				"kind": "user",
				"methods": {
					"onERC721Received(address,address,uint256,bytes)": {
						"notice": "Handle the receipt of an NFT"
					}
				},
				"version": 1
			}
		}
	}
}